{
  "transactions": [
    {
      "hash": "0x9b23bb9985b1eae1a80d6c0126688e2c8c4411fc63d8022c0b9713dfabe19ae9",
      "transactionType": "CREATE",
      "contractName": "LiquidityHelper",
      "contractAddress": "0x8c5614f6186ed6d6b690c0948a5b984badf8ab5d",
      "function": null,
      "arguments": [
        "0x76E9E1AFFDe82bb4544cE95EA58fFc2f9D45061f"
      ],
      "transaction": {
        "from": "0x63f976191f9dd75bd5b0fd81320d37fbc0d74080",
        "gas": "0x100e46",
        "value": "0x0",
        "input": "0x60a034607357601f610e4338819003918201601f19168301916001600160401b03831184841017607757808492602094604052833981010312607357516001600160a01b0381168103607357608052604051610db7908161008c8239608051818181608f0152818161012801526108f40152f35b5f80fd5b634e487b7160e01b5f52604160045260245ffdfe60806040526004361015610011575f80fd5b5f3560e01c80635a874382146104ef5780635e94883c146104ef57806391dd7346146100b75763dc4c90d314610045575f80fd5b346100b3575f7ffffffffffffffffffffffffffffffffffffffffffffffffffffffffffffffffc3601126100b357602060405173ffffffffffffffffffffffffffffffffffffffff7f0000000000000000000000000000000000000000000000000000000000000000168152f35b5f80fd5b346100b35760207ffffffffffffffffffffffffffffffffffffffffffffffffffffffffffffffffc3601126100b35760043567ffffffffffffffff81116100b357366023820112156100b357806004013567ffffffffffffffff81116100b35781019060248201903682116100b3577f000000000000000000000000000000000000000000000000000000000000000073ffffffffffffffffffffffffffffffffffffffff811691823303610491576020818603126100b357602481013567ffffffffffffffff81116100b357019361016090859003126100b3576040519261019f846104f4565b6101ab6024860161057e565b84526101ba81604487016105ad565b92602085019384526101cf8260e48801610645565b90604086019182526101648701359267ffffffffffffffff84116100b3575f6102056102949260246040976102c29c01016106c9565b938460608a01526102d6885191519587519b8c97889687957f5a6bcfda000000000000000000000000000000000000000000000000000000008752600487019073ffffffffffffffffffffffffffffffffffffffff6080809282815116855282602082015116602086015262ffffff6040820151166040860152606081015160020b6060860152015116910152565b8051600290810b60a48701526020820151900b60c4860152604081015160e486015260600151610104850152565b6101406101248401526101448301906109ba565b03925af1928315610486575f93610450575b61034994508360801d600f0b9184600f0b925f811261040d575b5f84126103c1575b5f811361037f575b505f831361034d575b85856040519060208201526020815261033560408261053d565b6040519182916020835260208301906109ba565b0390f35b73ffffffffffffffffffffffffffffffffffffffff806020610376965101511692511691610d16565b8280808061031b565b6103bb9073ffffffffffffffffffffffffffffffffffffffff865151168373ffffffffffffffffffffffffffffffffffffffff86511691610d16565b86610312565b61040873ffffffffffffffffffffffffffffffffffffffff6020875101511673ffffffffffffffffffffffffffffffffffffffff85511684610402886109fd565b92610a7d565b61030a565b61044b73ffffffffffffffffffffffffffffffffffffffff8651511673ffffffffffffffffffffffffffffffffffffffff85511684610402856109fd565b610302565b92506040843d60401161047e575b8161046b6040938361053d565b810103126100b3576103499351926102e8565b3d915061045e565b6040513d5f823e3d90fd5b60646040517f08c379a000000000000000000000000000000000000000000000000000000000815260206004820152601960248201527f4f6e6c7920506f6f6c4d616e616765722063616e2063616c6c000000000000006044820152fd5b61070f565b6080810190811067ffffffffffffffff82111761051057604052565b7f4e487b71000000000000000000000000000000000000000000000000000000005f52604160045260245ffd5b90601f7fffffffffffffffffffffffffffffffffffffffffffffffffffffffffffffffe0910116810190811067ffffffffffffffff82111761051057604052565b359073ffffffffffffffffffffffffffffffffffffffff821682036100b357565b35908160020b82036100b357565b91908260a09103126100b35760405160a0810181811067ffffffffffffffff8211176105105760405280926105e18161057e565b82526105ef6020820161057e565b602083015260408101359062ffffff821682036100b357608091604084015261061a6060820161059f565b606084015201359073ffffffffffffffffffffffffffffffffffffffff821682036100b35760800152565b91908260809103126100b35760405161065d816104f4565b606080829461066b8161059f565b84526106796020820161059f565b6020850152604081013560408501520135910152565b67ffffffffffffffff811161051057601f017fffffffffffffffffffffffffffffffffffffffffffffffffffffffffffffffe01660200190565b81601f820112156100b3578035906106e08261068f565b926106ee604051948561053d565b828452602083830101116100b357815f926020809301838601378301015290565b346100b3576101407ffffffffffffffffffffffffffffffffffffffffffffffffffffffffffffffffc3601126100b35761074a3660046105ad565b6107553660a4610645565b906101243567ffffffffffffffff81116100b35761089f5f926108736108da9561085e61079b73ffffffffffffffffffffffffffffffffffffffff9636906004016106c9565b9161082c604051956107ac876104f4565b3387526020870190815260408701928352606087019485526040519889976020808a01525116604088015251606087019073ffffffffffffffffffffffffffffffffffffffff6080809282815116855282602082015116602086015262ffffff6040820151166040860152606081015160020b6060860152015116910152565b518051600290810b6101008701526020820151900b610120860152604081015161014086015260600151610160850152565b516101606101808401526101a08301906109ba565b037fffffffffffffffffffffffffffffffffffffffffffffffffffffffffffffffe0810183528261053d565b604051809381927f48c894910000000000000000000000000000000000000000000000000000000083526020600484015260248301906109ba565b03818373ffffffffffffffffffffffffffffffffffffffff7f0000000000000000000000000000000000000000000000000000000000000000165af1908115610486575f91610940575b506020818051810103126100b357602080910151604051908152f35b90503d805f833e610951818361053d565b8101906020818303126100b35780519067ffffffffffffffff82116100b3570181601f820112156100b3578051906109888261068f565b92610996604051948561053d565b828452602083830101116100b357815f9260208093018386015e830101525f610924565b907fffffffffffffffffffffffffffffffffffffffffffffffffffffffffffffffe0601f602080948051918291828752018686015e5f8582860101520116010190565b7f80000000000000000000000000000000000000000000000000000000000000008114610a29575f0390565b7f4e487b71000000000000000000000000000000000000000000000000000000005f52601160045260245ffd5b908160209103126100b3575180151581036100b35790565b908160209103126100b3575190565b90919073ffffffffffffffffffffffffffffffffffffffff1680610b1d57505073ffffffffffffffffffffffffffffffffffffffff600460209260405194859384927f11da60b4000000000000000000000000000000000000000000000000000000008452165af1801561048657610af25750565b610b139060203d602011610b16575b610b0b818361053d565b810190610a6e565b50565b503d610b01565b90929173ffffffffffffffffffffffffffffffffffffffff1691823b156100b357604051937fa58411940000000000000000000000000000000000000000000000000000000085528260048601525a945f816024818389819bf1801561048657610ced575b5073ffffffffffffffffffffffffffffffffffffffff1684308214610c79576020929160649160405195869485937f23b872dd000000000000000000000000000000000000000000000000000000008552600485015288602485015260448401525af18015610c6e57916020918493610c41575b505b6004604051809581937f11da60b40000000000000000000000000000000000000000000000000000000083525af1908115610c355750610af25750565b604051903d90823e3d90fd5b610c6090833d8511610c67575b610c58818361053d565b810190610a56565b505f610bf6565b503d610c4e565b6040513d85823e3d90fd5b929050604460209260405194859384927fa9059cbb00000000000000000000000000000000000000000000000000000000845288600485015260248401525af18015610c6e57916020918493610cd0575b50610bf8565b610ce690833d8511610c6757610c58818361053d565b505f610cca565b610cfa9195505f9061053d565b5f9373ffffffffffffffffffffffffffffffffffffffff610b82565b91929073ffffffffffffffffffffffffffffffffffffffff16803b156100b3575f928360649273ffffffffffffffffffffffffffffffffffffffff948560405198899788967f0b0d9c0900000000000000000000000000000000000000000000000000000000885216600487015216602485015260448401525af1801561048657610d9e5750565b5f610da89161053d565b56fea164736f6c634300081a000a00000000000000000000000076e9e1affde82bb4544ce95ea58ffc2f9d45061f",
        "nonce": "0xdbb",
        "chainId": "0xaa36a7"
      },
      "additionalContracts": [],
      "isFixedGasLimit": false
    },
    {
      "hash": "0xb8cec4881dbd8504c152b4650a685049b32a8318eb5c66b576b3d7a13cb7aea7",
      "transactionType": "CALL",
      "contractName": null,
      "contractAddress": "0x1c7d4b196cb0c7b01d743fbc6116a902379c7238",
      "function": "approve(address,uint256)",
      "arguments": [
        "0x8c5614f6186Ed6D6B690C0948A5B984Badf8AB5D",
        "115792089237316195423570985008687907853269984665640564039457584007913129639935"
      ],
      "transaction": {
        "from": "0x63f976191f9dd75bd5b0fd81320d37fbc0d74080",
        "to": "0x1c7d4b196cb0c7b01d743fbc6116a902379c7238",
        "gas": "0x13eb1",
        "value": "0x0",
        "input": "0x095ea7b30000000000000000000000008c5614f6186ed6d6b690c0948a5b984badf8ab5dffffffffffffffffffffffffffffffffffffffffffffffffffffffffffffffff",
        "nonce": "0xdbc",
        "chainId": "0xaa36a7"
      },
      "additionalContracts": [],
      "isFixedGasLimit": false
    },
    {
      "hash": "0xcf919c26ce17cc7a25eff81f84ab5cfb2128785e56dda1d24100c7b33ab0d49f",
      "transactionType": "CALL",
      "contractName": null,
      "contractAddress": "0xfff9976782d46cc05630d1f6ebab18b2324d6b14",
      "function": "approve(address,uint256)",
      "arguments": [
        "0x8c5614f6186Ed6D6B690C0948A5B984Badf8AB5D",
        "115792089237316195423570985008687907853269984665640564039457584007913129639935"
      ],
      "transaction": {
        "from": "0x63f976191f9dd75bd5b0fd81320d37fbc0d74080",
        "to": "0xfff9976782d46cc05630d1f6ebab18b2324d6b14",
        "gas": "0xfa27",
        "value": "0x0",
        "input": "0x095ea7b30000000000000000000000008c5614f6186ed6d6b690c0948a5b984badf8ab5dffffffffffffffffffffffffffffffffffffffffffffffffffffffffffffffff",
        "nonce": "0xdbd",
        "chainId": "0xaa36a7"
      },
      "additionalContracts": [],
      "isFixedGasLimit": false
    },
    {
      "hash": "0xfe0e0d9a34053df409f1e27e9bfdd3a18700160345c03dc0a064a986b79c249c",
      "transactionType": "CALL",
      "contractName": "LiquidityHelper",
      "contractAddress": "0x8c5614f6186ed6d6b690c0948a5b984badf8ab5d",
      "function": "addLiquidity((address,address,uint24,int24,address),(int24,int24,int256,bytes32),bytes)",
      "arguments": [
        "(0x1c7D4B196Cb0C7B01d743Fbc6116a902379C7238, 0xfFf9976782d46CC05630D1f6eBAb18b2324d6B14, 5000, 60, 0x6A087B9340925E1c66273FAE8F7527c8754F1540)",
        "(719340, 720540, 2, 0x0000000000000000000000000000000000000000000000000000000000000000)",
        "0x"
      ],
      "transaction": {
        "from": "0x63f976191f9dd75bd5b0fd81320d37fbc0d74080",
        "to": "0x8c5614f6186ed6d6b690c0948a5b984badf8ab5d",
        "gas": "0x4ed9e",
        "value": "0x0",
        "input": "0x5a8743820000000000000000000000001c7d4b196cb0c7b01d743fbc6116a902379c7238000000000000000000000000fff9976782d46cc05630d1f6ebab18b2324d6b140000000000000000000000000000000000000000000000000000000000001388000000000000000000000000000000000000000000000000000000000000003c0000000000000000000000006a087b9340925e1c66273fae8f7527c8754f154000000000000000000000000000000000000000000000000000000000000af9ec00000000000000000000000000000000000000000000000000000000000afe9c0000000000000000000000000000000000000000000000000000000000000002000000000000000000000000000000000000000000000000000000000000000000000000000000000000000000000000000000000000000000000000000001400000000000000000000000000000000000000000000000000000000000000000",
        "nonce": "0xdbe",
        "chainId": "0xaa36a7"
      },
      "additionalContracts": [],
      "isFixedGasLimit": false
    }
  ],
  "receipts": [
    {
      "status": "0x1",
      "cumulativeGasUsed": "0x2143e9c",
      "logs": [],
      "logsBloom": "0x00000000000000000000000000000000000000000000000000000000000000000000000000000000000000000000000000000000000000000000000000000000000000000000000000000000000000000000000000000000000000000000000000000000000000000000000000000000000000000000000000000000000000000000000000000000000000000000000000000000000000000000000000000000000000000000000000000000000000000000000000000000000000000000000000000000000000000000000000000000000000000000000000000000000000000000000000000000000000000000000000000000000000000000000000000000",
      "type": "0x2",
      "transactionHash": "0x9b23bb9985b1eae1a80d6c0126688e2c8c4411fc63d8022c0b9713dfabe19ae9",
      "transactionIndex": "0x73",
      "blockHash": "0xafecfb29bfe3fc7295d2c79ecb4f9c53085b84593d3e144c830d152c7f9e07ac",
      "blockNumber": "0x987305",
      "gasUsed": "0xc59c0",
      "effectiveGasPrice": "0x56df5a",
      "from": "0x63f976191f9dd75bd5b0fd81320d37fbc0d74080",
      "to": null,
      "contractAddress": "0x8c5614f6186ed6d6b690c0948a5b984badf8ab5d"
    },
    {
      "status": "0x1",
      "cumulativeGasUsed": "0x15403eb",
      "logs": [
        {
          "address": "0x1c7d4b196cb0c7b01d743fbc6116a902379c7238",
          "topics": [
            "0x8c5be1e5ebec7d5bd14f71427d1e84f3dd0314c0f7b2291e5b200ac8c7c3b925",
            "0x00000000000000000000000063f976191f9dd75bd5b0fd81320d37fbc0d74080",
            "0x0000000000000000000000008c5614f6186ed6d6b690c0948a5b984badf8ab5d"
          ],
          "data": "0xffffffffffffffffffffffffffffffffffffffffffffffffffffffffffffffff",
          "blockHash": "0x03af4c5e0d9ed915d6516414b3d7cb7be16c5d76c6cb40a1d4c44aa6154893c3",
          "blockNumber": "0x987306",
          "blockTimestamp": "0x695d27fc",
          "transactionHash": "0xb8cec4881dbd8504c152b4650a685049b32a8318eb5c66b576b3d7a13cb7aea7",
          "transactionIndex": "0x73",
          "logIndex": "0x95",
          "removed": false
        }
      ],
      "logsBloom": "0x00000000000000000000000000000000000000000000001000000000000200000000000000000000000000000000000000000000000010800000000000200000000000000000000000000000000000000000000000000000000000000000000000000000000000000000000000000000000000000000000000000000000000000000000000100000000000000000000000000000000000000000000000000000020000400000000000000000000000000000000000000000000000000000000000000000000000000000000000000000000000000000000000000000000000000010000000000000000014020000000000000000000000000000000000000000",
      "type": "0x2",
      "transactionHash": "0xb8cec4881dbd8504c152b4650a685049b32a8318eb5c66b576b3d7a13cb7aea7",
      "transactionIndex": "0x73",
      "blockHash": "0x03af4c5e0d9ed915d6516414b3d7cb7be16c5d76c6cb40a1d4c44aa6154893c3",
      "blockNumber": "0x987306",
      "gasUsed": "0xd9e9",
      "effectiveGasPrice": "0x56e7d9",
      "from": "0x63f976191f9dd75bd5b0fd81320d37fbc0d74080",
      "to": "0x1c7d4b196cb0c7b01d743fbc6116a902379c7238",
      "contractAddress": null
    },
    {
      "status": "0x1",
      "cumulativeGasUsed": "0x66f59b",
      "logs": [
        {
          "address": "0xfff9976782d46cc05630d1f6ebab18b2324d6b14",
          "topics": [
            "0x8c5be1e5ebec7d5bd14f71427d1e84f3dd0314c0f7b2291e5b200ac8c7c3b925",
            "0x00000000000000000000000063f976191f9dd75bd5b0fd81320d37fbc0d74080",
            "0x0000000000000000000000008c5614f6186ed6d6b690c0948a5b984badf8ab5d"
          ],
          "data": "0xffffffffffffffffffffffffffffffffffffffffffffffffffffffffffffffff",
          "blockHash": "0xac11ad534effc03908dd01eb426f7e9da477b57ececbe17bc3a3e5b6dbd0f2a7",
          "blockNumber": "0x987307",
          "blockTimestamp": "0x695d2808",
          "transactionHash": "0xcf919c26ce17cc7a25eff81f84ab5cfb2128785e56dda1d24100c7b33ab0d49f",
          "transactionIndex": "0x2f",
          "logIndex": "0x2b",
          "removed": false
        }
      ],
      "logsBloom": "0x00000000000000000000000000000000000000000000001000000000000000000000000000000000000000000000000000000000000010800000000000200000000000000000000000000000000000000000000000000000000000000000000000000000000000000000000000000000000000000000000000000000000000000040000000000000000000000000000000000000000000000000000000000000020020400000000000000000000000000000000000000000000000000000000000000000000000000002000000000000000000000000000000000000000000000010000000000000000004020000000000000000000000000000000000000000",
      "type": "0x2",
      "transactionHash": "0xcf919c26ce17cc7a25eff81f84ab5cfb2128785e56dda1d24100c7b33ab0d49f",
      "transactionIndex": "0x2f",
      "blockHash": "0xac11ad534effc03908dd01eb426f7e9da477b57ececbe17bc3a3e5b6dbd0f2a7",
      "blockNumber": "0x987307",
      "gasUsed": "0xb51c",
      "effectiveGasPrice": "0x56ea05",
      "from": "0x63f976191f9dd75bd5b0fd81320d37fbc0d74080",
      "to": "0xfff9976782d46cc05630d1f6ebab18b2324d6b14",
      "contractAddress": null
    },
    {
      "status": "0x1",
      "cumulativeGasUsed": "0x565def",
      "logs": [
        {
          "address": "0x76e9e1affde82bb4544ce95ea58ffc2f9d45061f",
          "topics": [
            "0xf208f4912782fd25c7f114ca3723a2d5dd6f3bcc3ac8db5af63baa85f711d5ec",
            "0x33675a0516ba5149ed7e90938f2c7feb2fdcdf4e5475bd05cc37e5be14df6bce",
            "0x0000000000000000000000008c5614f6186ed6d6b690c0948a5b984badf8ab5d"
          ],
          "data": "0x00000000000000000000000000000000000000000000000000000000000af9ec00000000000000000000000000000000000000000000000000000000000afe9c00000000000000000000000000000000000000000000000000000000000000020000000000000000000000000000000000000000000000000000000000000000",
          "blockHash": "0x0c085904b74cedb2f3c5d9ac6a1f8bd60c63c0274c140301d6adab9abc2dac3a",
          "blockNumber": "0x987308",
          "blockTimestamp": "0x695d2814",
          "transactionHash": "0xfe0e0d9a34053df409f1e27e9bfdd3a18700160345c03dc0a064a986b79c249c",
          "transactionIndex": "0x33",
          "logIndex": "0x4d",
          "removed": false
        },
        {
          "address": "0x1c7d4b196cb0c7b01d743fbc6116a902379c7238",
          "topics": [
            "0xddf252ad1be2c89b69c2b068fc378daa952ba7f163c4a11628f55a4df523b3ef",
            "0x00000000000000000000000063f976191f9dd75bd5b0fd81320d37fbc0d74080",
            "0x00000000000000000000000076e9e1affde82bb4544ce95ea58ffc2f9d45061f"
          ],
          "data": "0x0000000000000000000000000000000000000000000000000000000000000001",
          "blockHash": "0x0c085904b74cedb2f3c5d9ac6a1f8bd60c63c0274c140301d6adab9abc2dac3a",
          "blockNumber": "0x987308",
          "blockTimestamp": "0x695d2814",
          "transactionHash": "0xfe0e0d9a34053df409f1e27e9bfdd3a18700160345c03dc0a064a986b79c249c",
          "transactionIndex": "0x33",
          "logIndex": "0x4e",
          "removed": false
        },
        {
          "address": "0xfff9976782d46cc05630d1f6ebab18b2324d6b14",
          "topics": [
            "0xddf252ad1be2c89b69c2b068fc378daa952ba7f163c4a11628f55a4df523b3ef",
            "0x00000000000000000000000063f976191f9dd75bd5b0fd81320d37fbc0d74080",
            "0x00000000000000000000000076e9e1affde82bb4544ce95ea58ffc2f9d45061f"
          ],
          "data": "0x0000000000000000000000000000000000000000000000000000ee7743b42c72",
          "blockHash": "0x0c085904b74cedb2f3c5d9ac6a1f8bd60c63c0274c140301d6adab9abc2dac3a",
          "blockNumber": "0x987308",
          "blockTimestamp": "0x695d2814",
          "transactionHash": "0xfe0e0d9a34053df409f1e27e9bfdd3a18700160345c03dc0a064a986b79c249c",
          "transactionIndex": "0x33",
          "logIndex": "0x4f",
          "removed": false
        }
      ],
      "logsBloom": "0x00001000000000000000000000000000000000000000001000000000000200000000000000000000000100000000000000000000000010800000000000000000000000000000000000000008000000000000000000000800000000000000010000000000000000000000000000000000000000000000000000000012000000000040000001100000000000000000010000000000000000000000000000000000000024400000000000000000000000000000000000000000000001000000000000100002000000000002000000000000000000000000000000008000000000000000000000000000000014020000000004000000000000000000000000000000",
      "type": "0x2",
      "transactionHash": "0xfe0e0d9a34053df409f1e27e9bfdd3a18700160345c03dc0a064a986b79c249c",
      "transactionIndex": "0x33",
      "blockHash": "0x0c085904b74cedb2f3c5d9ac6a1f8bd60c63c0274c140301d6adab9abc2dac3a",
      "blockNumber": "0x987308",
      "gasUsed": "0x39164",
      "effectiveGasPrice": "0x56ce24",
      "from": "0x63f976191f9dd75bd5b0fd81320d37fbc0d74080",
      "to": "0x8c5614f6186ed6d6b690c0948a5b984badf8ab5d",
      "contractAddress": null
    }
  ],
  "libraries": [],
  "pending": [],
  "returns": {},
  "timestamp": 1767712789122,
  "chain": 11155111,
  "commit": "7902c05"
}