{
  "transactions": [
    {
      "hash": "0x9d7b2ce0316007ba78f4e90f031dba655559469483c607f04bdac76f4cd6583a",
      "transactionType": "CREATE",
      "contractName": "LiquidityHelper",
      "contractAddress": "0x839c4f8e340a7ae6eedfd9f2685e33d178ee5a90",
      "function": null,
      "arguments": [
        "0xc77aE1faE9BB15fDD1Ea96897A12Ec074FA65250"
      ],
      "transaction": {
        "from": "0x63f976191f9dd75bd5b0fd81320d37fbc0d74080",
        "gas": "0x1147d1",
        "value": "0x0",
        "input": "0x60a034607357601f610f6138819003918201601f19168301916001600160401b03831184841017607757808492602094604052833981010312607357516001600160a01b0381168103607357608052604051610ed5908161008c823960805181818160840152818161011d01526108bd0152f35b5f80fd5b634e487b7160e01b5f52604160045260245ffdfe60806040526004361015610011575f80fd5b5f3560e01c80635a874382146105e057806391dd7346146100ac5763dc4c90d31461003a575f80fd5b346100a8575f7ffffffffffffffffffffffffffffffffffffffffffffffffffffffffffffffffc3601126100a857602060405173ffffffffffffffffffffffffffffffffffffffff7f0000000000000000000000000000000000000000000000000000000000000000168152f35b5f80fd5b346100a85760207ffffffffffffffffffffffffffffffffffffffffffffffffffffffffffffffffc3601126100a85760043567ffffffffffffffff81116100a857366023820112156100a857806004013567ffffffffffffffff81116100a85781019060248201913683116100a8577f000000000000000000000000000000000000000000000000000000000000000073ffffffffffffffffffffffffffffffffffffffff811692833303610582576020818403126100a85760248101359067ffffffffffffffff82116100a8570193610160858403126100a8576040519361019485610983565b6101a060248701610a29565b855260a07fffffffffffffffffffffffffffffffffffffffffffffffffffffffffffffffe087860301126100a857604051936101db856109cc565b6101e760448801610a29565b85526101f560648801610a29565b6020860152608487013562ffffff811681036100a857604086015261021c60a48801610a4a565b606086015260c487013573ffffffffffffffffffffffffffffffffffffffff811681036100a8577fffffffffffffffffffffffffffffffffffffffffffffffffffffffffffffff1c88608093602493858a015260208a01988952030101126100a8576040519061028b82610983565b61029760e48801610a4a565b82526102a66101048801610a4a565b602083015261012487013560408301526101448701356060830152604086019182526101648701359267ffffffffffffffff84116100a8575f6102f66103859260246040976103b39c0101610a92565b938460608a01526103c7885191519587519b8c97889687957f5a6bcfda000000000000000000000000000000000000000000000000000000008752600487019073ffffffffffffffffffffffffffffffffffffffff6080809282815116855282602082015116602086015262ffffff6040820151166040860152606081015160020b6060860152015116910152565b8051600290810b60a48701526020820151900b60c4860152604081015160e486015260600151610104850152565b610140610124840152610144830190610ad8565b03925af1928315610577575f93610541575b61043a94508360801d600f0b9184600f0b925f81126104fe575b5f84126104b2575b5f8113610470575b505f831361043e575b8585604051906020820152602081526104266040826109e8565b604051918291602083526020830190610ad8565b0390f35b73ffffffffffffffffffffffffffffffffffffffff806020610467965101511692511691610e34565b8280808061040c565b6104ac9073ffffffffffffffffffffffffffffffffffffffff865151168373ffffffffffffffffffffffffffffffffffffffff86511691610e34565b86610403565b6104f973ffffffffffffffffffffffffffffffffffffffff6020875101511673ffffffffffffffffffffffffffffffffffffffff855116846104f388610b1b565b92610b9b565b6103fb565b61053c73ffffffffffffffffffffffffffffffffffffffff8651511673ffffffffffffffffffffffffffffffffffffffff855116846104f385610b1b565b6103f3565b92506040843d60401161056f575b8161055c604093836109e8565b810103126100a85761043a9351926103d9565b3d915061054f565b6040513d5f823e3d90fd5b60646040517f08c379a000000000000000000000000000000000000000000000000000000000815260206004820152601960248201527f4f6e6c7920506f6f6c4d616e616765722063616e2063616c6c000000000000006044820152fd5b346100a8577ffffffffffffffffffffffffffffffffffffffffffffffffffffffffffffffffc360161014081126100a85760a0136100a857604051610624816109cc565b60043573ffffffffffffffffffffffffffffffffffffffff811681036100a857815260243573ffffffffffffffffffffffffffffffffffffffff811681036100a857602082015260443562ffffff811681036100a85760408201526064358060020b81036100a857606082015260843573ffffffffffffffffffffffffffffffffffffffff811681036100a857608082015260807fffffffffffffffffffffffffffffffffffffffffffffffffffffffffffffff5c3601126100a857604051906106ed82610983565b60a4358060020b81036100a857825260c4358060020b81036100a857602083015260e43560408301526101043560608301526101243567ffffffffffffffff81116100a8576108685f9261083c6108a39561082761076473ffffffffffffffffffffffffffffffffffffffff963690600401610a92565b916107f56040519561077587610983565b3387526020870190815260408701928352606087019485526040519889976020808a01525116604088015251606087019073ffffffffffffffffffffffffffffffffffffffff6080809282815116855282602082015116602086015262ffffff6040820151166040860152606081015160020b6060860152015116910152565b518051600290810b6101008701526020820151900b610120860152604081015161014086015260600151610160850152565b516101606101808401526101a0830190610ad8565b037fffffffffffffffffffffffffffffffffffffffffffffffffffffffffffffffe081018352826109e8565b604051809381927f48c89491000000000000000000000000000000000000000000000000000000008352602060048401526024830190610ad8565b03818373ffffffffffffffffffffffffffffffffffffffff7f0000000000000000000000000000000000000000000000000000000000000000165af1908115610577575f91610909575b506020818051810103126100a857602080910151604051908152f35b90503d805f833e61091a81836109e8565b8101906020818303126100a85780519067ffffffffffffffff82116100a8570181601f820112156100a85780519061095182610a58565b9261095f60405194856109e8565b828452602083830101116100a857815f9260208093018386015e83010152816108ed565b6080810190811067ffffffffffffffff82111761099f57604052565b7f4e487b71000000000000000000000000000000000000000000000000000000005f52604160045260245ffd5b60a0810190811067ffffffffffffffff82111761099f57604052565b90601f7fffffffffffffffffffffffffffffffffffffffffffffffffffffffffffffffe0910116810190811067ffffffffffffffff82111761099f57604052565b359073ffffffffffffffffffffffffffffffffffffffff821682036100a857565b35908160020b82036100a857565b67ffffffffffffffff811161099f57601f017fffffffffffffffffffffffffffffffffffffffffffffffffffffffffffffffe01660200190565b81601f820112156100a857803590610aa982610a58565b92610ab760405194856109e8565b828452602083830101116100a857815f926020809301838601378301015290565b907fffffffffffffffffffffffffffffffffffffffffffffffffffffffffffffffe0601f602080948051918291828752018686015e5f8582860101520116010190565b7f80000000000000000000000000000000000000000000000000000000000000008114610b47575f0390565b7f4e487b71000000000000000000000000000000000000000000000000000000005f52601160045260245ffd5b908160209103126100a8575180151581036100a85790565b908160209103126100a8575190565b90919073ffffffffffffffffffffffffffffffffffffffff1680610c3b57505073ffffffffffffffffffffffffffffffffffffffff600460209260405194859384927f11da60b4000000000000000000000000000000000000000000000000000000008452165af1801561057757610c105750565b610c319060203d602011610c34575b610c2981836109e8565b810190610b8c565b50565b503d610c1f565b90929173ffffffffffffffffffffffffffffffffffffffff1691823b156100a857604051937fa58411940000000000000000000000000000000000000000000000000000000085528260048601525a945f816024818389819bf1801561057757610e0b575b5073ffffffffffffffffffffffffffffffffffffffff1684308214610d97576020929160649160405195869485937f23b872dd000000000000000000000000000000000000000000000000000000008552600485015288602485015260448401525af18015610d8c57916020918493610d5f575b505b6004604051809581937f11da60b40000000000000000000000000000000000000000000000000000000083525af1908115610d535750610c105750565b604051903d90823e3d90fd5b610d7e90833d8511610d85575b610d7681836109e8565b810190610b74565b505f610d14565b503d610d6c565b6040513d85823e3d90fd5b929050604460209260405194859384927fa9059cbb00000000000000000000000000000000000000000000000000000000845288600485015260248401525af18015610d8c57916020918493610dee575b50610d16565b610e0490833d8511610d8557610d7681836109e8565b505f610de8565b610e189195505f906109e8565b5f9373ffffffffffffffffffffffffffffffffffffffff610ca0565b91929073ffffffffffffffffffffffffffffffffffffffff16803b156100a8575f928360649273ffffffffffffffffffffffffffffffffffffffff948560405198899788967f0b0d9c0900000000000000000000000000000000000000000000000000000000885216600487015216602485015260448401525af1801561057757610ebc5750565b5f610ec6916109e8565b56fea164736f6c634300081a000a000000000000000000000000c77ae1fae9bb15fdd1ea96897a12ec074fa65250",
        "nonce": "0x18",
        "chainId": "0xaa36a7"
      },
      "additionalContracts": [],
      "isFixedGasLimit": false
    },
    {
      "hash": "0xfd58fe98bc7093d2992ceb3a35c7d00be027b8ab28b62303cd9882cca18bb6fc",
      "transactionType": "CALL",
      "contractName": null,
      "contractAddress": "0x1c7d4b196cb0c7b01d743fbc6116a902379c7238",
      "function": "approve(address,uint256)",
      "arguments": [
        "0x839C4F8e340A7ae6eEDfd9f2685E33D178ee5a90",
        "115792089237316195423570985008687907853269984665640564039457584007913129639935"
      ],
      "transaction": {
        "from": "0x63f976191f9dd75bd5b0fd81320d37fbc0d74080",
        "to": "0x1c7d4b196cb0c7b01d743fbc6116a902379c7238",
        "gas": "0x13eb1",
        "value": "0x0",
        "input": "0x095ea7b3000000000000000000000000839c4f8e340a7ae6eedfd9f2685e33d178ee5a90ffffffffffffffffffffffffffffffffffffffffffffffffffffffffffffffff",
        "nonce": "0x19",
        "chainId": "0xaa36a7"
      },
      "additionalContracts": [],
      "isFixedGasLimit": false
    },
    {
      "hash": "0x1caa55735638205e5678168bf339a8c76f3f1ad2291703e792c4de5d7fff0c6a",
      "transactionType": "CALL",
      "contractName": null,
      "contractAddress": "0xfff9976782d46cc05630d1f6ebab18b2324d6b14",
      "function": "approve(address,uint256)",
      "arguments": [
        "0x839C4F8e340A7ae6eEDfd9f2685E33D178ee5a90",
        "115792089237316195423570985008687907853269984665640564039457584007913129639935"
      ],
      "transaction": {
        "from": "0x63f976191f9dd75bd5b0fd81320d37fbc0d74080",
        "to": "0xfff9976782d46cc05630d1f6ebab18b2324d6b14",
        "gas": "0xfa27",
        "value": "0x0",
        "input": "0x095ea7b3000000000000000000000000839c4f8e340a7ae6eedfd9f2685e33d178ee5a90ffffffffffffffffffffffffffffffffffffffffffffffffffffffffffffffff",
        "nonce": "0x1a",
        "chainId": "0xaa36a7"
      },
      "additionalContracts": [],
      "isFixedGasLimit": false
    },
    {
      "hash": "0xe2d676f8d495ffc6d85ac998dfd01e87257d651c9eea9ca12898efa8a40fda51",
      "transactionType": "CALL",
      "contractName": "LiquidityHelper",
      "contractAddress": "0x839c4f8e340a7ae6eedfd9f2685e33d178ee5a90",
      "function": "addLiquidity((address,address,uint24,int24,address),(int24,int24,int256,bytes32),bytes)",
      "arguments": [
        "(0x1c7D4B196Cb0C7B01d743Fbc6116a902379C7238, 0xfFf9976782d46CC05630D1f6eBAb18b2324d6B14, 3000, 60, 0x01308892b21f3E6fB6fF8e13a29D775e991D5540)",
        "(-887220, 887220, 1000000, 0x0000000000000000000000000000000000000000000000000000000000000000)",
        "0x"
      ],
      "transaction": {
        "from": "0x63f976191f9dd75bd5b0fd81320d37fbc0d74080",
        "to": "0x839c4f8e340a7ae6eedfd9f2685e33d178ee5a90",
        "gas": "0x70b2d",
        "value": "0x0",
        "input": "0x5a8743820000000000000000000000001c7d4b196cb0c7b01d743fbc6116a902379c7238000000000000000000000000fff9976782d46cc05630d1f6ebab18b2324d6b140000000000000000000000000000000000000000000000000000000000000bb8000000000000000000000000000000000000000000000000000000000000003c00000000000000000000000001308892b21f3e6fb6ff8e13a29d775e991d5540fffffffffffffffffffffffffffffffffffffffffffffffffffffffffff2764c00000000000000000000000000000000000000000000000000000000000d89b400000000000000000000000000000000000000000000000000000000000f4240000000000000000000000000000000000000000000000000000000000000000000000000000000000000000000000000000000000000000000000000000001400000000000000000000000000000000000000000000000000000000000000000",
        "nonce": "0x1b",
        "chainId": "0xaa36a7"
      },
      "additionalContracts": [],
      "isFixedGasLimit": false
    }
  ],
  "receipts": [
    {
      "status": "0x1",
      "cumulativeGasUsed": "0xe170f7",
      "logs": [],
      "logsBloom": "0x00000000000000000000000000000000000000000000000000000000000000000000000000000000000000000000000000000000000000000000000000000000000000000000000000000000000000000000000000000000000000000000000000000000000000000000000000000000000000000000000000000000000000000000000000000000000000000000000000000000000000000000000000000000000000000000000000000000000000000000000000000000000000000000000000000000000000000000000000000000000000000000000000000000000000000000000000000000000000000000000000000000000000000000000000000000",
      "type": "0x2",
      "transactionHash": "0xe2d676f8d495ffc6d85ac998dfd01e87257d651c9eea9ca12898efa8a40fda51",
      "transactionIndex": "0x35",
      "blockHash": "0xb4a867b3a12cab2e9f286d84ada4f016074b881a8641d0d2b0686c2542e1721c",
      "blockNumber": "0x977c8e",
      "gasUsed": "0xd4af0",
      "effectiveGasPrice": "0x138192",
      "from": "0x63f976191f9dd75bd5b0fd81320d37fbc0d74080",
      "to": null,
      "contractAddress": "0x839c4f8e340a7ae6eedfd9f2685e33d178ee5a90"
    },
    {
      "status": "0x1",
      "cumulativeGasUsed": "0x1bb9ba4",
      "logs": [
        {
          "address": "0x1c7d4b196cb0c7b01d743fbc6116a902379c7238",
          "topics": [
            "0x8c5be1e5ebec7d5bd14f71427d1e84f3dd0314c0f7b2291e5b200ac8c7c3b925",
            "0x00000000000000000000000063f976191f9dd75bd5b0fd81320d37fbc0d74080",
            "0x000000000000000000000000839c4f8e340a7ae6eedfd9f2685e33d178ee5a90"
          ],
          "data": "0xffffffffffffffffffffffffffffffffffffffffffffffffffffffffffffffff",
          "blockHash": "0xb4a867b3a12cab2e9f286d84ada4f016074b881a8641d0d2b0686c2542e1721c",
          "blockNumber": "0x977c8e",
          "blockTimestamp": "0x695063dc",
          "transactionHash": "0x1caa55735638205e5678168bf339a8c76f3f1ad2291703e792c4de5d7fff0c6a",
          "transactionIndex": "0x8c",
          "logIndex": "0x2b1",
          "removed": false
        }
      ],
      "logsBloom": "0x00000000000000000000000000000000000000000000000000000000000200000000000000000000001000000000000000000000000010000000000000200000000000000000000000000000000000000000000000000000000000000000000000000000000000000000000000000000000000000000000000000000000000000000000000100000000000000000000000000000000000000000000000000010020000400000000000000000000000008000000000000000000000000000000000000000000000000000000000000000000000000000000000000000000000000010000000000000000010020000000000000000000000000000000000000000",
      "type": "0x2",
      "transactionHash": "0x1caa55735638205e5678168bf339a8c76f3f1ad2291703e792c4de5d7fff0c6a",
      "transactionIndex": "0x8c",
      "blockHash": "0xb4a867b3a12cab2e9f286d84ada4f016074b881a8641d0d2b0686c2542e1721c",
      "blockNumber": "0x977c8e",
      "gasUsed": "0xd9e9",
      "effectiveGasPrice": "0x138192",
      "from": "0x63f976191f9dd75bd5b0fd81320d37fbc0d74080",
      "to": "0x1c7d4b196cb0c7b01d743fbc6116a902379c7238",
      "contractAddress": null
    },
    {
      "status": "0x1",
      "cumulativeGasUsed": "0x1c2f178",
      "logs": [
        {
          "address": "0xfff9976782d46cc05630d1f6ebab18b2324d6b14",
          "topics": [
            "0x8c5be1e5ebec7d5bd14f71427d1e84f3dd0314c0f7b2291e5b200ac8c7c3b925",
            "0x00000000000000000000000063f976191f9dd75bd5b0fd81320d37fbc0d74080",
            "0x000000000000000000000000839c4f8e340a7ae6eedfd9f2685e33d178ee5a90"
          ],
          "data": "0xffffffffffffffffffffffffffffffffffffffffffffffffffffffffffffffff",
          "blockHash": "0xb4a867b3a12cab2e9f286d84ada4f016074b881a8641d0d2b0686c2542e1721c",
          "blockNumber": "0x977c8e",
          "blockTimestamp": "0x695063dc",
          "transactionHash": "0xfd58fe98bc7093d2992ceb3a35c7d00be027b8ab28b62303cd9882cca18bb6fc",
          "transactionIndex": "0x96",
          "logIndex": "0x2ba",
          "removed": false
        }
      ],
      "logsBloom": "0x00000000000000000000000000000000000000000000000000000000000000000000000000000000001000000000000000000000000010000000000000200000000000000000000000000000000000000000000000000000000000000000000000000000000000000000000000000000000000000000000000000000000000000040000000000000000000000000000000000000000000000000000000000010020020400000000000000000000000008000000000000000000000000000000000000000000000000002000000000000000000000000000000000000000000000010000000000000000000020000000000000000000000000000000000000000",
      "type": "0x2",
      "transactionHash": "0xfd58fe98bc7093d2992ceb3a35c7d00be027b8ab28b62303cd9882cca18bb6fc",
      "transactionIndex": "0x96",
      "blockHash": "0xb4a867b3a12cab2e9f286d84ada4f016074b881a8641d0d2b0686c2542e1721c",
      "blockNumber": "0x977c8e",
      "gasUsed": "0xb51c",
      "effectiveGasPrice": "0x138192",
      "from": "0x63f976191f9dd75bd5b0fd81320d37fbc0d74080",
      "to": "0xfff9976782d46cc05630d1f6ebab18b2324d6b14",
      "contractAddress": null
    },
    {
      "status": "0x1",
      "cumulativeGasUsed": "0x1c7c269",
      "logs": [
        {
          "address": "0xc77ae1fae9bb15fdd1ea96897a12ec074fa65250",
          "topics": [
            "0xf208f4912782fd25c7f114ca3723a2d5dd6f3bcc3ac8db5af63baa85f711d5ec",
            "0x3e787f8e105d15f0defa18c11b59ad8649262980b0a7f97fce2543ec171ee142",
            "0x000000000000000000000000839c4f8e340a7ae6eedfd9f2685e33d178ee5a90"
          ],
          "data": "0xfffffffffffffffffffffffffffffffffffffffffffffffffffffffffff2764c00000000000000000000000000000000000000000000000000000000000d89b400000000000000000000000000000000000000000000000000000000000f42400000000000000000000000000000000000000000000000000000000000000000",
          "blockHash": "0xb4a867b3a12cab2e9f286d84ada4f016074b881a8641d0d2b0686c2542e1721c",
          "blockNumber": "0x977c8e",
          "blockTimestamp": "0x695063dc",
          "transactionHash": "0x9d7b2ce0316007ba78f4e90f031dba655559469483c607f04bdac76f4cd6583a",
          "transactionIndex": "0x97",
          "logIndex": "0x2bb",
          "removed": false
        },
        {
          "address": "0x1c7d4b196cb0c7b01d743fbc6116a902379c7238",
          "topics": [
            "0xddf252ad1be2c89b69c2b068fc378daa952ba7f163c4a11628f55a4df523b3ef",
            "0x00000000000000000000000063f976191f9dd75bd5b0fd81320d37fbc0d74080",
            "0x000000000000000000000000c77ae1fae9bb15fdd1ea96897a12ec074fa65250"
          ],
          "data": "0x00000000000000000000000000000000000000000000000000000000000f4240",
          "blockHash": "0xb4a867b3a12cab2e9f286d84ada4f016074b881a8641d0d2b0686c2542e1721c",
          "blockNumber": "0x977c8e",
          "blockTimestamp": "0x695063dc",
          "transactionHash": "0x9d7b2ce0316007ba78f4e90f031dba655559469483c607f04bdac76f4cd6583a",
          "transactionIndex": "0x97",
          "logIndex": "0x2bc",
          "removed": false
        },
        {
          "address": "0xfff9976782d46cc05630d1f6ebab18b2324d6b14",
          "topics": [
            "0xddf252ad1be2c89b69c2b068fc378daa952ba7f163c4a11628f55a4df523b3ef",
            "0x00000000000000000000000063f976191f9dd75bd5b0fd81320d37fbc0d74080",
            "0x000000000000000000000000c77ae1fae9bb15fdd1ea96897a12ec074fa65250"
          ],
          "data": "0x00000000000000000000000000000000000000000000000000000000000f4240",
          "blockHash": "0xb4a867b3a12cab2e9f286d84ada4f016074b881a8641d0d2b0686c2542e1721c",
          "blockNumber": "0x977c8e",
          "blockTimestamp": "0x695063dc",
          "transactionHash": "0x9d7b2ce0316007ba78f4e90f031dba655559469483c607f04bdac76f4cd6583a",
          "transactionIndex": "0x97",
          "logIndex": "0x2bd",
          "removed": false
        }
      ],
      "logsBloom": "0x00000000040000000000000000000000000000000000000000000000000200000000000000000000001000000000000000000000000010000000000000000000200000000000000000000008001000100000008000000000000000000000000000000000000000000000000000000000000000000000000000000010000000000040000001100000000000400000000000000000000000000000000000000010000024400000000000004000000000008000000000000000000000000000000000000002000000000002000000000000000000000000000000000000000000000000000000000000000010060000000004000000000000000000000000000400",
      "type": "0x2",
      "transactionHash": "0x9d7b2ce0316007ba78f4e90f031dba655559469483c607f04bdac76f4cd6583a",
      "transactionIndex": "0x97",
      "blockHash": "0xb4a867b3a12cab2e9f286d84ada4f016074b881a8641d0d2b0686c2542e1721c",
      "blockNumber": "0x977c8e",
      "gasUsed": "0x4d0f1",
      "effectiveGasPrice": "0x138192",
      "from": "0x63f976191f9dd75bd5b0fd81320d37fbc0d74080",
      "to": "0x839c4f8e340a7ae6eedfd9f2685e33d178ee5a90",
      "contractAddress": null
    }
  ],
  "libraries": [],
  "pending": [],
  "returns": {},
  "timestamp": 1766876126193,
  "chain": 11155111,
  "commit": "c0a531b"
}