{
  "transactions": [
    {
      "hash": "0xdd3c4dc9c8b7ca306242b69c312a166d820d07c3c3d21f75260368904bf1fb39",
      "transactionType": "CREATE",
      "contractName": "SwapHelper",
      "contractAddress": "0x709407b6bc572b7608524874228a756ca31a689f",
      "function": null,
      "arguments": [
        "0x76E9E1AFFDe82bb4544cE95EA58fFc2f9D45061f"
      ],
      "transaction": {
        "from": "0x63f976191f9dd75bd5b0fd81320d37fbc0d74080",
        "gas": "0x118d81",
        "value": "0x0",
        "input": "0x60a034607457601f610f9f38819003918201601f19168301916001600160401b03831184841017607857808492602094604052833981010312607457516001600160a01b0381168103607457608052604051610f12908161008d82396080518181816103290152818161044d01526104e20152f35b5f80fd5b634e487b7160e01b5f52604160045260245ffdfe6080806040526004361015610012575f80fd5b5f3560e01c90816391dd73461461047157508063dc4c90d3146104035763f3cd914c1461003d575f80fd5b3461037a577ffffffffffffffffffffffffffffffffffffffffffffffffffffffffffffffffc3601610120811261037a5760a01361037a5760405161008181610a3e565b60043573ffffffffffffffffffffffffffffffffffffffff8116810361037a57815260243573ffffffffffffffffffffffffffffffffffffffff8116810361037a57602082015260443562ffffff8116810361037a5760408201526064358060020b810361037a57606082015260843573ffffffffffffffffffffffffffffffffffffffff8116810361037a57608082015260607fffffffffffffffffffffffffffffffffffffffffffffffffffffffffffffff5c36011261037a576040519061014a82610a5a565b60a435801515810361037a57825260c435602083015260e43573ffffffffffffffffffffffffffffffffffffffff8116810361037a5760408301526101043567ffffffffffffffff811161037a576102d45f926102a861030f956102936101ca73ffffffffffffffffffffffffffffffffffffffff963690600401610b12565b9161025b604051956101db876109f5565b3387526020870190815260408701928352606087019485526040519889976020808a01525116604088015251606087019073ffffffffffffffffffffffffffffffffffffffff6080809282815116855282602082015116602086015262ffffff6040820151166040860152606081015160020b6060860152015116910152565b518051151561010086015260208101516101208601526040015173ffffffffffffffffffffffffffffffffffffffff16610140850152565b516101406101608401526101808301906109b2565b037fffffffffffffffffffffffffffffffffffffffffffffffffffffffffffffffe08101835282610a76565b604051809381927f48c894910000000000000000000000000000000000000000000000000000000083526020600484015260248301906109b2565b03818373ffffffffffffffffffffffffffffffffffffffff7f0000000000000000000000000000000000000000000000000000000000000000165af19081156103f8575f9161037e575b506020815191818082019384920101031261037a5760209051604051908152f35b5f80fd5b90503d805f833e61038f8183610a76565b81019060208183031261037a5780519067ffffffffffffffff821161037a570181601f8201121561037a578051906103c682610ad8565b926103d46040519485610a76565b8284526020838301011161037a57815f9260208093018386015e830101525f610359565b6040513d5f823e3d90fd5b3461037a575f7ffffffffffffffffffffffffffffffffffffffffffffffffffffffffffffffffc36011261037a57602060405173ffffffffffffffffffffffffffffffffffffffff7f0000000000000000000000000000000000000000000000000000000000000000168152f35b3461037a5760207ffffffffffffffffffffffffffffffffffffffffffffffffffffffffffffffffc36011261037a576004359067ffffffffffffffff821161037a573660238301121561037a57816004013567ffffffffffffffff811161037a578201602481019236841161037a577f00000000000000000000000000000000000000000000000000000000000000009073ffffffffffffffffffffffffffffffffffffffff821693843303610956575060208184031261037a5760248101359067ffffffffffffffff821161037a5701936101408584031261037a576040519361055b856109f5565b61056760248701610ab7565b855260a07fffffffffffffffffffffffffffffffffffffffffffffffffffffffffffffffe0878603011261037a57604051936105a285610a3e565b6105ae60448801610ab7565b85526105bc60648801610ab7565b6020860152608487013562ffffff8116810361037a57604086015260a48701358060020b810361037a57606086015260c487013573ffffffffffffffffffffffffffffffffffffffff8116810361037a577fffffffffffffffffffffffffffffffffffffffffffffffffffffffffffffff1c8860609360249360808a015260208a019889520301011261037a576040519061065682610a5a565b60e4870135801515810361037a578252610104870135602083015261012487013573ffffffffffffffffffffffffffffffffffffffff8116810361037a576040830152604086019182526101448701359267ffffffffffffffff841161037a575f6106ce61075e9260246020976107929c0101610b12565b938460608a01526107a688519151956040519b8c97889687957ff3cd914c000000000000000000000000000000000000000000000000000000008752600487019073ffffffffffffffffffffffffffffffffffffffff6080809282815116855282602082015116602086015262ffffff6040820151166040860152606081015160020b6060860152015116910152565b8051151560a4860152602081015160c48601526040015173ffffffffffffffffffffffffffffffffffffffff1660e4850152565b6101206101048401526101248301906109b2565b03925af19283156103f8575f93610920575b61081994508360801d600f0b9184600f0b925f81126108dd575b5f8412610891575b5f811361084f575b505f831361081d575b858560405190602082015260208152610805604082610a76565b6040519182916020835260208301906109b2565b0390f35b73ffffffffffffffffffffffffffffffffffffffff806020610846965101511692511691610e71565b828080806107eb565b61088b9073ffffffffffffffffffffffffffffffffffffffff865151168373ffffffffffffffffffffffffffffffffffffffff86511691610e71565b866107e2565b6108d873ffffffffffffffffffffffffffffffffffffffff6020875101511673ffffffffffffffffffffffffffffffffffffffff855116846108d288610b67565b92610bd8565b6107da565b61091b73ffffffffffffffffffffffffffffffffffffffff8651511673ffffffffffffffffffffffffffffffffffffffff855116846108d285610b67565b6107d2565b92506020843d60201161094e575b8161093b60209383610a76565b8101031261037a576108199351926107b8565b3d915061092e565b807f08c379a0000000000000000000000000000000000000000000000000000000006064925260206004820152601960248201527f4f6e6c7920506f6f6c4d616e616765722063616e2063616c6c000000000000006044820152fd5b907fffffffffffffffffffffffffffffffffffffffffffffffffffffffffffffffe0601f602080948051918291828752018686015e5f8582860101520116010190565b6080810190811067ffffffffffffffff821117610a1157604052565b7f4e487b71000000000000000000000000000000000000000000000000000000005f52604160045260245ffd5b60a0810190811067ffffffffffffffff821117610a1157604052565b6060810190811067ffffffffffffffff821117610a1157604052565b90601f7fffffffffffffffffffffffffffffffffffffffffffffffffffffffffffffffe0910116810190811067ffffffffffffffff821117610a1157604052565b359073ffffffffffffffffffffffffffffffffffffffff8216820361037a57565b67ffffffffffffffff8111610a1157601f017fffffffffffffffffffffffffffffffffffffffffffffffffffffffffffffffe01660200190565b81601f8201121561037a57803590610b2982610ad8565b92610b376040519485610a76565b8284526020838301011161037a57815f926020809301838601378301015290565b9081602091031261037a575190565b7f80000000000000000000000000000000000000000000000000000000000000008114610b93575f0390565b7f4e487b71000000000000000000000000000000000000000000000000000000005f52601160045260245ffd5b9081602091031261037a5751801515810361037a5790565b90919073ffffffffffffffffffffffffffffffffffffffff1680610c7857505073ffffffffffffffffffffffffffffffffffffffff600460209260405194859384927f11da60b4000000000000000000000000000000000000000000000000000000008452165af180156103f857610c4d5750565b610c6e9060203d602011610c71575b610c668183610a76565b810190610b58565b50565b503d610c5c565b90929173ffffffffffffffffffffffffffffffffffffffff1691823b1561037a57604051937fa58411940000000000000000000000000000000000000000000000000000000085528260048601525a945f816024818389819bf180156103f857610e48575b5073ffffffffffffffffffffffffffffffffffffffff1684308214610dd4576020929160649160405195869485937f23b872dd000000000000000000000000000000000000000000000000000000008552600485015288602485015260448401525af18015610dc957916020918493610d9c575b505b6004604051809581937f11da60b40000000000000000000000000000000000000000000000000000000083525af1908115610d905750610c4d5750565b604051903d90823e3d90fd5b610dbb90833d8511610dc2575b610db38183610a76565b810190610bc0565b505f610d51565b503d610da9565b6040513d85823e3d90fd5b929050604460209260405194859384927fa9059cbb00000000000000000000000000000000000000000000000000000000845288600485015260248401525af18015610dc957916020918493610e2b575b50610d53565b610e4190833d8511610dc257610db38183610a76565b505f610e25565b610e559195505f90610a76565b5f9373ffffffffffffffffffffffffffffffffffffffff610cdd565b91929073ffffffffffffffffffffffffffffffffffffffff16803b1561037a575f928360649273ffffffffffffffffffffffffffffffffffffffff948560405198899788967f0b0d9c0900000000000000000000000000000000000000000000000000000000885216600487015216602485015260448401525af180156103f857610ef95750565b5f610f0391610a76565b56fea164736f6c634300081a000a00000000000000000000000076e9e1affde82bb4544ce95ea58ffc2f9d45061f",
        "nonce": "0x1096",
        "chainId": "0xaa36a7"
      },
      "additionalContracts": [],
      "isFixedGasLimit": false
    },
    {
      "hash": "0xc29db9553d37920d68bdf3d180c01f17e8f6e635c29242137598f6cf7377084e",
      "transactionType": "CALL",
      "contractName": null,
      "contractAddress": "0xfff9976782d46cc05630d1f6ebab18b2324d6b14",
      "function": "approve(address,uint256)",
      "arguments": [
        "0x709407B6Bc572b7608524874228A756ca31A689f",
        "115792089237316195423570985008687907853269984665640564039457584007913129639935"
      ],
      "transaction": {
        "from": "0x63f976191f9dd75bd5b0fd81320d37fbc0d74080",
        "to": "0xfff9976782d46cc05630d1f6ebab18b2324d6b14",
        "gas": "0xfa27",
        "value": "0x0",
        "input": "0x095ea7b3000000000000000000000000709407b6bc572b7608524874228a756ca31a689fffffffffffffffffffffffffffffffffffffffffffffffffffffffffffffffff",
        "nonce": "0x1097",
        "chainId": "0xaa36a7"
      },
      "additionalContracts": [],
      "isFixedGasLimit": false
    },
    {
      "hash": "0x8c65aaf9f765acb98e5dd88c6a4a28e10c20b87aa6c86c787f41444f197be481",
      "transactionType": "CALL",
      "contractName": null,
      "contractAddress": "0x1c7d4b196cb0c7b01d743fbc6116a902379c7238",
      "function": "approve(address,uint256)",
      "arguments": [
        "0x709407B6Bc572b7608524874228A756ca31A689f",
        "115792089237316195423570985008687907853269984665640564039457584007913129639935"
      ],
      "transaction": {
        "from": "0x63f976191f9dd75bd5b0fd81320d37fbc0d74080",
        "to": "0x1c7d4b196cb0c7b01d743fbc6116a902379c7238",
        "gas": "0x13eb1",
        "value": "0x0",
        "input": "0x095ea7b3000000000000000000000000709407b6bc572b7608524874228a756ca31a689fffffffffffffffffffffffffffffffffffffffffffffffffffffffffffffffff",
        "nonce": "0x1098",
        "chainId": "0xaa36a7"
      },
      "additionalContracts": [],
      "isFixedGasLimit": false
    },
    {
      "hash": "0x85c7beb54bc52ed665273ad0846af0d9e9384eeb14881b427b49cfc85d0d944e",
      "transactionType": "CALL",
      "contractName": "SwapHelper",
      "contractAddress": "0x709407b6bc572b7608524874228a756ca31a689f",
      "function": "swap((address,address,uint24,int24,address),(bool,int256,uint160),bytes)",
      "arguments": [
        "(0x1c7D4B196Cb0C7B01d743Fbc6116a902379C7238, 0xfFf9976782d46CC05630D1f6eBAb18b2324d6B14, 3000, 60, 0x5C13377F19B9AEB3CB00Fcc8E58e9A2B43889540)",
        "(false, -100000000000000, 1461446703485210103287273052203988822378723970341)",
        "0x"
      ],
      "transaction": {
        "from": "0x63f976191f9dd75bd5b0fd81320d37fbc0d74080",
        "to": "0x709407b6bc572b7608524874228a756ca31a689f",
        "gas": "0x26efe",
        "value": "0x0",
        "input": "0xf3cd914c0000000000000000000000001c7d4b196cb0c7b01d743fbc6116a902379c7238000000000000000000000000fff9976782d46cc05630d1f6ebab18b2324d6b140000000000000000000000000000000000000000000000000000000000000bb8000000000000000000000000000000000000000000000000000000000000003c0000000000000000000000005c13377f19b9aeb3cb00fcc8e58e9a2b438895400000000000000000000000000000000000000000000000000000000000000000ffffffffffffffffffffffffffffffffffffffffffffffffffffa50cef85c000000000000000000000000000fffd8963efd1fc6a506488495d951d5263988d2500000000000000000000000000000000000000000000000000000000000001200000000000000000000000000000000000000000000000000000000000000000",
        "nonce": "0x1099",
        "chainId": "0xaa36a7"
      },
      "additionalContracts": [],
      "isFixedGasLimit": false
    },
    {
      "hash": "0x50c2058f88e0bb17c38d1e91f866293a7e831848d0985b223cd0a4c2876d590c",
      "transactionType": "CALL",
      "contractName": "SwapHelper",
      "contractAddress": "0x709407b6bc572b7608524874228a756ca31a689f",
      "function": "swap((address,address,uint24,int24,address),(bool,int256,uint160),bytes)",
      "arguments": [
        "(0x1c7D4B196Cb0C7B01d743Fbc6116a902379C7238, 0xfFf9976782d46CC05630D1f6eBAb18b2324d6B14, 3000, 60, 0x5C13377F19B9AEB3CB00Fcc8E58e9A2B43889540)",
        "(false, -100000000000000, 1461446703485210103287273052203988822378723970341)",
        "0x"
      ],
      "transaction": {
        "from": "0x63f976191f9dd75bd5b0fd81320d37fbc0d74080",
        "to": "0x709407b6bc572b7608524874228a756ca31a689f",
        "gas": "0x26f2d",
        "value": "0x0",
        "input": "0xf3cd914c0000000000000000000000001c7d4b196cb0c7b01d743fbc6116a902379c7238000000000000000000000000fff9976782d46cc05630d1f6ebab18b2324d6b140000000000000000000000000000000000000000000000000000000000000bb8000000000000000000000000000000000000000000000000000000000000003c0000000000000000000000005c13377f19b9aeb3cb00fcc8e58e9a2b438895400000000000000000000000000000000000000000000000000000000000000000ffffffffffffffffffffffffffffffffffffffffffffffffffffa50cef85c000000000000000000000000000fffd8963efd1fc6a506488495d951d5263988d2500000000000000000000000000000000000000000000000000000000000001200000000000000000000000000000000000000000000000000000000000000000",
        "nonce": "0x109a",
        "chainId": "0xaa36a7"
      },
      "additionalContracts": [],
      "isFixedGasLimit": false
    },
    {
      "hash": "0x5006bdf0e5aaf6be739cef43b7ad47ba7a355232130ccdb2783305f917776f27",
      "transactionType": "CALL",
      "contractName": "SwapHelper",
      "contractAddress": "0x709407b6bc572b7608524874228a756ca31a689f",
      "function": "swap((address,address,uint24,int24,address),(bool,int256,uint160),bytes)",
      "arguments": [
        "(0x1c7D4B196Cb0C7B01d743Fbc6116a902379C7238, 0xfFf9976782d46CC05630D1f6eBAb18b2324d6B14, 3000, 60, 0x5C13377F19B9AEB3CB00Fcc8E58e9A2B43889540)",
        "(false, -100000000000000, 1461446703485210103287273052203988822378723970341)",
        "0x"
      ],
      "transaction": {
        "from": "0x63f976191f9dd75bd5b0fd81320d37fbc0d74080",
        "to": "0x709407b6bc572b7608524874228a756ca31a689f",
        "gas": "0x26f5c",
        "value": "0x0",
        "input": "0xf3cd914c0000000000000000000000001c7d4b196cb0c7b01d743fbc6116a902379c7238000000000000000000000000fff9976782d46cc05630d1f6ebab18b2324d6b140000000000000000000000000000000000000000000000000000000000000bb8000000000000000000000000000000000000000000000000000000000000003c0000000000000000000000005c13377f19b9aeb3cb00fcc8e58e9a2b438895400000000000000000000000000000000000000000000000000000000000000000ffffffffffffffffffffffffffffffffffffffffffffffffffffa50cef85c000000000000000000000000000fffd8963efd1fc6a506488495d951d5263988d2500000000000000000000000000000000000000000000000000000000000001200000000000000000000000000000000000000000000000000000000000000000",
        "nonce": "0x109b",
        "chainId": "0xaa36a7"
      },
      "additionalContracts": [],
      "isFixedGasLimit": false
    },
    {
      "hash": "0xdc577cad789d52f18ac6cd20f5499b8a3028910ee5aae08cc37415bb95488441",
      "transactionType": "CALL",
      "contractName": "SwapHelper",
      "contractAddress": "0x709407b6bc572b7608524874228a756ca31a689f",
      "function": "swap((address,address,uint24,int24,address),(bool,int256,uint160),bytes)",
      "arguments": [
        "(0x1c7D4B196Cb0C7B01d743Fbc6116a902379C7238, 0xfFf9976782d46CC05630D1f6eBAb18b2324d6B14, 3000, 60, 0x5C13377F19B9AEB3CB00Fcc8E58e9A2B43889540)",
        "(false, -100000000000000, 1461446703485210103287273052203988822378723970341)",
        "0x"
      ],
      "transaction": {
        "from": "0x63f976191f9dd75bd5b0fd81320d37fbc0d74080",
        "to": "0x709407b6bc572b7608524874228a756ca31a689f",
        "gas": "0x26f8b",
        "value": "0x0",
        "input": "0xf3cd914c0000000000000000000000001c7d4b196cb0c7b01d743fbc6116a902379c7238000000000000000000000000fff9976782d46cc05630d1f6ebab18b2324d6b140000000000000000000000000000000000000000000000000000000000000bb8000000000000000000000000000000000000000000000000000000000000003c0000000000000000000000005c13377f19b9aeb3cb00fcc8e58e9a2b438895400000000000000000000000000000000000000000000000000000000000000000ffffffffffffffffffffffffffffffffffffffffffffffffffffa50cef85c000000000000000000000000000fffd8963efd1fc6a506488495d951d5263988d2500000000000000000000000000000000000000000000000000000000000001200000000000000000000000000000000000000000000000000000000000000000",
        "nonce": "0x109c",
        "chainId": "0xaa36a7"
      },
      "additionalContracts": [],
      "isFixedGasLimit": false
    },
    {
      "hash": "0x45708d380b396dfb3778368f99e2c96b13d7d13e6796056def33841d8c3a1483",
      "transactionType": "CALL",
      "contractName": "SwapHelper",
      "contractAddress": "0x709407b6bc572b7608524874228a756ca31a689f",
      "function": "swap((address,address,uint24,int24,address),(bool,int256,uint160),bytes)",
      "arguments": [
        "(0x1c7D4B196Cb0C7B01d743Fbc6116a902379C7238, 0xfFf9976782d46CC05630D1f6eBAb18b2324d6B14, 3000, 60, 0x5C13377F19B9AEB3CB00Fcc8E58e9A2B43889540)",
        "(false, -100000000000000, 1461446703485210103287273052203988822378723970341)",
        "0x"
      ],
      "transaction": {
        "from": "0x63f976191f9dd75bd5b0fd81320d37fbc0d74080",
        "to": "0x709407b6bc572b7608524874228a756ca31a689f",
        "gas": "0x26f2d",
        "value": "0x0",
        "input": "0xf3cd914c0000000000000000000000001c7d4b196cb0c7b01d743fbc6116a902379c7238000000000000000000000000fff9976782d46cc05630d1f6ebab18b2324d6b140000000000000000000000000000000000000000000000000000000000000bb8000000000000000000000000000000000000000000000000000000000000003c0000000000000000000000005c13377f19b9aeb3cb00fcc8e58e9a2b438895400000000000000000000000000000000000000000000000000000000000000000ffffffffffffffffffffffffffffffffffffffffffffffffffffa50cef85c000000000000000000000000000fffd8963efd1fc6a506488495d951d5263988d2500000000000000000000000000000000000000000000000000000000000001200000000000000000000000000000000000000000000000000000000000000000",
        "nonce": "0x109d",
        "chainId": "0xaa36a7"
      },
      "additionalContracts": [],
      "isFixedGasLimit": false
    },
    {
      "hash": "0x133bf98d6bfc3e5ef1b5477200ac936eb79015f91f6badb63fc1cd2e78d17c19",
      "transactionType": "CALL",
      "contractName": "SwapHelper",
      "contractAddress": "0x709407b6bc572b7608524874228a756ca31a689f",
      "function": "swap((address,address,uint24,int24,address),(bool,int256,uint160),bytes)",
      "arguments": [
        "(0x1c7D4B196Cb0C7B01d743Fbc6116a902379C7238, 0xfFf9976782d46CC05630D1f6eBAb18b2324d6B14, 3000, 60, 0x5C13377F19B9AEB3CB00Fcc8E58e9A2B43889540)",
        "(false, -100000000000000, 1461446703485210103287273052203988822378723970341)",
        "0x"
      ],
      "transaction": {
        "from": "0x63f976191f9dd75bd5b0fd81320d37fbc0d74080",
        "to": "0x709407b6bc572b7608524874228a756ca31a689f",
        "gas": "0x24cb5",
        "value": "0x0",
        "input": "0xf3cd914c0000000000000000000000001c7d4b196cb0c7b01d743fbc6116a902379c7238000000000000000000000000fff9976782d46cc05630d1f6ebab18b2324d6b140000000000000000000000000000000000000000000000000000000000000bb8000000000000000000000000000000000000000000000000000000000000003c0000000000000000000000005c13377f19b9aeb3cb00fcc8e58e9a2b438895400000000000000000000000000000000000000000000000000000000000000000ffffffffffffffffffffffffffffffffffffffffffffffffffffa50cef85c000000000000000000000000000fffd8963efd1fc6a506488495d951d5263988d2500000000000000000000000000000000000000000000000000000000000001200000000000000000000000000000000000000000000000000000000000000000",
        "nonce": "0x109e",
        "chainId": "0xaa36a7"
      },
      "additionalContracts": [],
      "isFixedGasLimit": false
    },
    {
      "hash": "0x6c6901531528f9f1774af6f9cb9af061a54aca2b66a53ac57cd7c49aef592d54",
      "transactionType": "CALL",
      "contractName": "SwapHelper",
      "contractAddress": "0x709407b6bc572b7608524874228a756ca31a689f",
      "function": "swap((address,address,uint24,int24,address),(bool,int256,uint160),bytes)",
      "arguments": [
        "(0x1c7D4B196Cb0C7B01d743Fbc6116a902379C7238, 0xfFf9976782d46CC05630D1f6eBAb18b2324d6B14, 3000, 60, 0x5C13377F19B9AEB3CB00Fcc8E58e9A2B43889540)",
        "(false, -100000000000000, 1461446703485210103287273052203988822378723970341)",
        "0x"
      ],
      "transaction": {
        "from": "0x63f976191f9dd75bd5b0fd81320d37fbc0d74080",
        "to": "0x709407b6bc572b7608524874228a756ca31a689f",
        "gas": "0x26f5c",
        "value": "0x0",
        "input": "0xf3cd914c0000000000000000000000001c7d4b196cb0c7b01d743fbc6116a902379c7238000000000000000000000000fff9976782d46cc05630d1f6ebab18b2324d6b140000000000000000000000000000000000000000000000000000000000000bb8000000000000000000000000000000000000000000000000000000000000003c0000000000000000000000005c13377f19b9aeb3cb00fcc8e58e9a2b438895400000000000000000000000000000000000000000000000000000000000000000ffffffffffffffffffffffffffffffffffffffffffffffffffffa50cef85c000000000000000000000000000fffd8963efd1fc6a506488495d951d5263988d2500000000000000000000000000000000000000000000000000000000000001200000000000000000000000000000000000000000000000000000000000000000",
        "nonce": "0x109f",
        "chainId": "0xaa36a7"
      },
      "additionalContracts": [],
      "isFixedGasLimit": false
    },
    {
      "hash": "0x03494414a68f845ede1e357dad0b2634edff23d7f563c4bf5e623a2d343f835a",
      "transactionType": "CALL",
      "contractName": "SwapHelper",
      "contractAddress": "0x709407b6bc572b7608524874228a756ca31a689f",
      "function": "swap((address,address,uint24,int24,address),(bool,int256,uint160),bytes)",
      "arguments": [
        "(0x1c7D4B196Cb0C7B01d743Fbc6116a902379C7238, 0xfFf9976782d46CC05630D1f6eBAb18b2324d6B14, 3000, 60, 0x5C13377F19B9AEB3CB00Fcc8E58e9A2B43889540)",
        "(false, -100000000000000, 1461446703485210103287273052203988822378723970341)",
        "0x"
      ],
      "transaction": {
        "from": "0x63f976191f9dd75bd5b0fd81320d37fbc0d74080",
        "to": "0x709407b6bc572b7608524874228a756ca31a689f",
        "gas": "0x26fb9",
        "value": "0x0",
        "input": "0xf3cd914c0000000000000000000000001c7d4b196cb0c7b01d743fbc6116a902379c7238000000000000000000000000fff9976782d46cc05630d1f6ebab18b2324d6b140000000000000000000000000000000000000000000000000000000000000bb8000000000000000000000000000000000000000000000000000000000000003c0000000000000000000000005c13377f19b9aeb3cb00fcc8e58e9a2b438895400000000000000000000000000000000000000000000000000000000000000000ffffffffffffffffffffffffffffffffffffffffffffffffffffa50cef85c000000000000000000000000000fffd8963efd1fc6a506488495d951d5263988d2500000000000000000000000000000000000000000000000000000000000001200000000000000000000000000000000000000000000000000000000000000000",
        "nonce": "0x10a0",
        "chainId": "0xaa36a7"
      },
      "additionalContracts": [],
      "isFixedGasLimit": false
    },
    {
      "hash": "0x7329a7912919301fdc6a2c24da53038d8b325713a703799fbb4b2644cff41430",
      "transactionType": "CALL",
      "contractName": "SwapHelper",
      "contractAddress": "0x709407b6bc572b7608524874228a756ca31a689f",
      "function": "swap((address,address,uint24,int24,address),(bool,int256,uint160),bytes)",
      "arguments": [
        "(0x1c7D4B196Cb0C7B01d743Fbc6116a902379C7238, 0xfFf9976782d46CC05630D1f6eBAb18b2324d6B14, 3000, 60, 0x5C13377F19B9AEB3CB00Fcc8E58e9A2B43889540)",
        "(false, -100000000000000, 1461446703485210103287273052203988822378723970341)",
        "0x"
      ],
      "transaction": {
        "from": "0x63f976191f9dd75bd5b0fd81320d37fbc0d74080",
        "to": "0x709407b6bc572b7608524874228a756ca31a689f",
        "gas": "0x24ce1",
        "value": "0x0",
        "input": "0xf3cd914c0000000000000000000000001c7d4b196cb0c7b01d743fbc6116a902379c7238000000000000000000000000fff9976782d46cc05630d1f6ebab18b2324d6b140000000000000000000000000000000000000000000000000000000000000bb8000000000000000000000000000000000000000000000000000000000000003c0000000000000000000000005c13377f19b9aeb3cb00fcc8e58e9a2b438895400000000000000000000000000000000000000000000000000000000000000000ffffffffffffffffffffffffffffffffffffffffffffffffffffa50cef85c000000000000000000000000000fffd8963efd1fc6a506488495d951d5263988d2500000000000000000000000000000000000000000000000000000000000001200000000000000000000000000000000000000000000000000000000000000000",
        "nonce": "0x10a1",
        "chainId": "0xaa36a7"
      },
      "additionalContracts": [],
      "isFixedGasLimit": false
    },
    {
      "hash": "0xd3fd6973b919c524e8dcdcc0155351d5fb373e6058f4b78fb56dd13527974eb1",
      "transactionType": "CALL",
      "contractName": "SwapHelper",
      "contractAddress": "0x709407b6bc572b7608524874228a756ca31a689f",
      "function": "swap((address,address,uint24,int24,address),(bool,int256,uint160),bytes)",
      "arguments": [
        "(0x1c7D4B196Cb0C7B01d743Fbc6116a902379C7238, 0xfFf9976782d46CC05630D1f6eBAb18b2324d6B14, 3000, 60, 0x5C13377F19B9AEB3CB00Fcc8E58e9A2B43889540)",
        "(false, -100000000000000, 1461446703485210103287273052203988822378723970341)",
        "0x"
      ],
      "transaction": {
        "from": "0x63f976191f9dd75bd5b0fd81320d37fbc0d74080",
        "to": "0x709407b6bc572b7608524874228a756ca31a689f",
        "gas": "0x26fb9",
        "value": "0x0",
        "input": "0xf3cd914c0000000000000000000000001c7d4b196cb0c7b01d743fbc6116a902379c7238000000000000000000000000fff9976782d46cc05630d1f6ebab18b2324d6b140000000000000000000000000000000000000000000000000000000000000bb8000000000000000000000000000000000000000000000000000000000000003c0000000000000000000000005c13377f19b9aeb3cb00fcc8e58e9a2b438895400000000000000000000000000000000000000000000000000000000000000000ffffffffffffffffffffffffffffffffffffffffffffffffffffa50cef85c000000000000000000000000000fffd8963efd1fc6a506488495d951d5263988d2500000000000000000000000000000000000000000000000000000000000001200000000000000000000000000000000000000000000000000000000000000000",
        "nonce": "0x10a2",
        "chainId": "0xaa36a7"
      },
      "additionalContracts": [],
      "isFixedGasLimit": false
    },
    {
      "hash": "0x4f2424e5088da61ae693ce416de05ea49903bedd27c077cce28940b9a02226bf",
      "transactionType": "CALL",
      "contractName": "SwapHelper",
      "contractAddress": "0x709407b6bc572b7608524874228a756ca31a689f",
      "function": "swap((address,address,uint24,int24,address),(bool,int256,uint160),bytes)",
      "arguments": [
        "(0x1c7D4B196Cb0C7B01d743Fbc6116a902379C7238, 0xfFf9976782d46CC05630D1f6eBAb18b2324d6B14, 3000, 60, 0x5C13377F19B9AEB3CB00Fcc8E58e9A2B43889540)",
        "(false, -100000000000000, 1461446703485210103287273052203988822378723970341)",
        "0x"
      ],
      "transaction": {
        "from": "0x63f976191f9dd75bd5b0fd81320d37fbc0d74080",
        "to": "0x709407b6bc572b7608524874228a756ca31a689f",
        "gas": "0x24d0d",
        "value": "0x0",
        "input": "0xf3cd914c0000000000000000000000001c7d4b196cb0c7b01d743fbc6116a902379c7238000000000000000000000000fff9976782d46cc05630d1f6ebab18b2324d6b140000000000000000000000000000000000000000000000000000000000000bb8000000000000000000000000000000000000000000000000000000000000003c0000000000000000000000005c13377f19b9aeb3cb00fcc8e58e9a2b438895400000000000000000000000000000000000000000000000000000000000000000ffffffffffffffffffffffffffffffffffffffffffffffffffffa50cef85c000000000000000000000000000fffd8963efd1fc6a506488495d951d5263988d2500000000000000000000000000000000000000000000000000000000000001200000000000000000000000000000000000000000000000000000000000000000",
        "nonce": "0x10a3",
        "chainId": "0xaa36a7"
      },
      "additionalContracts": [],
      "isFixedGasLimit": false
    },
    {
      "hash": "0x993cf6e2d610b3db81c8827d217593ec97ebc5c27237194a22fef674118af709",
      "transactionType": "CALL",
      "contractName": "SwapHelper",
      "contractAddress": "0x709407b6bc572b7608524874228a756ca31a689f",
      "function": "swap((address,address,uint24,int24,address),(bool,int256,uint160),bytes)",
      "arguments": [
        "(0x1c7D4B196Cb0C7B01d743Fbc6116a902379C7238, 0xfFf9976782d46CC05630D1f6eBAb18b2324d6B14, 3000, 60, 0x5C13377F19B9AEB3CB00Fcc8E58e9A2B43889540)",
        "(false, -100000000000000, 1461446703485210103287273052203988822378723970341)",
        "0x"
      ],
      "transaction": {
        "from": "0x63f976191f9dd75bd5b0fd81320d37fbc0d74080",
        "to": "0x709407b6bc572b7608524874228a756ca31a689f",
        "gas": "0x26a49",
        "value": "0x0",
        "input": "0xf3cd914c0000000000000000000000001c7d4b196cb0c7b01d743fbc6116a902379c7238000000000000000000000000fff9976782d46cc05630d1f6ebab18b2324d6b140000000000000000000000000000000000000000000000000000000000000bb8000000000000000000000000000000000000000000000000000000000000003c0000000000000000000000005c13377f19b9aeb3cb00fcc8e58e9a2b438895400000000000000000000000000000000000000000000000000000000000000000ffffffffffffffffffffffffffffffffffffffffffffffffffffa50cef85c000000000000000000000000000fffd8963efd1fc6a506488495d951d5263988d2500000000000000000000000000000000000000000000000000000000000001200000000000000000000000000000000000000000000000000000000000000000",
        "nonce": "0x10a4",
        "chainId": "0xaa36a7"
      },
      "additionalContracts": [],
      "isFixedGasLimit": false
    },
    {
      "hash": "0x64185f8abd619090cd8280d623d5435a3924d5cb015628775f87770b223449be",
      "transactionType": "CALL",
      "contractName": "SwapHelper",
      "contractAddress": "0x709407b6bc572b7608524874228a756ca31a689f",
      "function": "swap((address,address,uint24,int24,address),(bool,int256,uint160),bytes)",
      "arguments": [
        "(0x1c7D4B196Cb0C7B01d743Fbc6116a902379C7238, 0xfFf9976782d46CC05630D1f6eBAb18b2324d6B14, 3000, 60, 0x5C13377F19B9AEB3CB00Fcc8E58e9A2B43889540)",
        "(false, -100000000000000, 1461446703485210103287273052203988822378723970341)",
        "0x"
      ],
      "transaction": {
        "from": "0x63f976191f9dd75bd5b0fd81320d37fbc0d74080",
        "to": "0x709407b6bc572b7608524874228a756ca31a689f",
        "gas": "0x26a49",
        "value": "0x0",
        "input": "0xf3cd914c0000000000000000000000001c7d4b196cb0c7b01d743fbc6116a902379c7238000000000000000000000000fff9976782d46cc05630d1f6ebab18b2324d6b140000000000000000000000000000000000000000000000000000000000000bb8000000000000000000000000000000000000000000000000000000000000003c0000000000000000000000005c13377f19b9aeb3cb00fcc8e58e9a2b438895400000000000000000000000000000000000000000000000000000000000000000ffffffffffffffffffffffffffffffffffffffffffffffffffffa50cef85c000000000000000000000000000fffd8963efd1fc6a506488495d951d5263988d2500000000000000000000000000000000000000000000000000000000000001200000000000000000000000000000000000000000000000000000000000000000",
        "nonce": "0x10a5",
        "chainId": "0xaa36a7"
      },
      "additionalContracts": [],
      "isFixedGasLimit": false
    },
    {
      "hash": "0x130cda3ae278f653af734ba1b7af8b8b1f74536d240974c8ef42a591304dc09e",
      "transactionType": "CALL",
      "contractName": "SwapHelper",
      "contractAddress": "0x709407b6bc572b7608524874228a756ca31a689f",
      "function": "swap((address,address,uint24,int24,address),(bool,int256,uint160),bytes)",
      "arguments": [
        "(0x1c7D4B196Cb0C7B01d743Fbc6116a902379C7238, 0xfFf9976782d46CC05630D1f6eBAb18b2324d6B14, 3000, 60, 0x5C13377F19B9AEB3CB00Fcc8E58e9A2B43889540)",
        "(false, -100000000000000, 1461446703485210103287273052203988822378723970341)",
        "0x"
      ],
      "transaction": {
        "from": "0x63f976191f9dd75bd5b0fd81320d37fbc0d74080",
        "to": "0x709407b6bc572b7608524874228a756ca31a689f",
        "gas": "0x26f5c",
        "value": "0x0",
        "input": "0xf3cd914c0000000000000000000000001c7d4b196cb0c7b01d743fbc6116a902379c7238000000000000000000000000fff9976782d46cc05630d1f6ebab18b2324d6b140000000000000000000000000000000000000000000000000000000000000bb8000000000000000000000000000000000000000000000000000000000000003c0000000000000000000000005c13377f19b9aeb3cb00fcc8e58e9a2b438895400000000000000000000000000000000000000000000000000000000000000000ffffffffffffffffffffffffffffffffffffffffffffffffffffa50cef85c000000000000000000000000000fffd8963efd1fc6a506488495d951d5263988d2500000000000000000000000000000000000000000000000000000000000001200000000000000000000000000000000000000000000000000000000000000000",
        "nonce": "0x10a6",
        "chainId": "0xaa36a7"
      },
      "additionalContracts": [],
      "isFixedGasLimit": false
    },
    {
      "hash": "0x46bd31284ae3dc4cfd67e4484774e4e4e91a8b64c1943ef30ba09819339d4172",
      "transactionType": "CALL",
      "contractName": "SwapHelper",
      "contractAddress": "0x709407b6bc572b7608524874228a756ca31a689f",
      "function": "swap((address,address,uint24,int24,address),(bool,int256,uint160),bytes)",
      "arguments": [
        "(0x1c7D4B196Cb0C7B01d743Fbc6116a902379C7238, 0xfFf9976782d46CC05630D1f6eBAb18b2324d6B14, 3000, 60, 0x5C13377F19B9AEB3CB00Fcc8E58e9A2B43889540)",
        "(false, -100000000000000, 1461446703485210103287273052203988822378723970341)",
        "0x"
      ],
      "transaction": {
        "from": "0x63f976191f9dd75bd5b0fd81320d37fbc0d74080",
        "to": "0x709407b6bc572b7608524874228a756ca31a689f",
        "gas": "0x26f5c",
        "value": "0x0",
        "input": "0xf3cd914c0000000000000000000000001c7d4b196cb0c7b01d743fbc6116a902379c7238000000000000000000000000fff9976782d46cc05630d1f6ebab18b2324d6b140000000000000000000000000000000000000000000000000000000000000bb8000000000000000000000000000000000000000000000000000000000000003c0000000000000000000000005c13377f19b9aeb3cb00fcc8e58e9a2b438895400000000000000000000000000000000000000000000000000000000000000000ffffffffffffffffffffffffffffffffffffffffffffffffffffa50cef85c000000000000000000000000000fffd8963efd1fc6a506488495d951d5263988d2500000000000000000000000000000000000000000000000000000000000001200000000000000000000000000000000000000000000000000000000000000000",
        "nonce": "0x10a7",
        "chainId": "0xaa36a7"
      },
      "additionalContracts": [],
      "isFixedGasLimit": false
    },
    {
      "hash": "0xd4323c34769a54ce72249bc3cde72031fdea8e4f2bcebe4e4d6fd2d9e1a0347d",
      "transactionType": "CALL",
      "contractName": "SwapHelper",
      "contractAddress": "0x709407b6bc572b7608524874228a756ca31a689f",
      "function": "swap((address,address,uint24,int24,address),(bool,int256,uint160),bytes)",
      "arguments": [
        "(0x1c7D4B196Cb0C7B01d743Fbc6116a902379C7238, 0xfFf9976782d46CC05630D1f6eBAb18b2324d6B14, 3000, 60, 0x5C13377F19B9AEB3CB00Fcc8E58e9A2B43889540)",
        "(false, -100000000000000, 1461446703485210103287273052203988822378723970341)",
        "0x"
      ],
      "transaction": {
        "from": "0x63f976191f9dd75bd5b0fd81320d37fbc0d74080",
        "to": "0x709407b6bc572b7608524874228a756ca31a689f",
        "gas": "0x24ce1",
        "value": "0x0",
        "input": "0xf3cd914c0000000000000000000000001c7d4b196cb0c7b01d743fbc6116a902379c7238000000000000000000000000fff9976782d46cc05630d1f6ebab18b2324d6b140000000000000000000000000000000000000000000000000000000000000bb8000000000000000000000000000000000000000000000000000000000000003c0000000000000000000000005c13377f19b9aeb3cb00fcc8e58e9a2b438895400000000000000000000000000000000000000000000000000000000000000000ffffffffffffffffffffffffffffffffffffffffffffffffffffa50cef85c000000000000000000000000000fffd8963efd1fc6a506488495d951d5263988d2500000000000000000000000000000000000000000000000000000000000001200000000000000000000000000000000000000000000000000000000000000000",
        "nonce": "0x10a8",
        "chainId": "0xaa36a7"
      },
      "additionalContracts": [],
      "isFixedGasLimit": false
    },
    {
      "hash": "0xf8365a6c2b54e90d0a89f4abe5638db0d819d6ab7d57841ecf2de262dcd2e635",
      "transactionType": "CALL",
      "contractName": "SwapHelper",
      "contractAddress": "0x709407b6bc572b7608524874228a756ca31a689f",
      "function": "swap((address,address,uint24,int24,address),(bool,int256,uint160),bytes)",
      "arguments": [
        "(0x1c7D4B196Cb0C7B01d743Fbc6116a902379C7238, 0xfFf9976782d46CC05630D1f6eBAb18b2324d6B14, 3000, 60, 0x5C13377F19B9AEB3CB00Fcc8E58e9A2B43889540)",
        "(false, -100000000000000, 1461446703485210103287273052203988822378723970341)",
        "0x"
      ],
      "transaction": {
        "from": "0x63f976191f9dd75bd5b0fd81320d37fbc0d74080",
        "to": "0x709407b6bc572b7608524874228a756ca31a689f",
        "gas": "0x24cb5",
        "value": "0x0",
        "input": "0xf3cd914c0000000000000000000000001c7d4b196cb0c7b01d743fbc6116a902379c7238000000000000000000000000fff9976782d46cc05630d1f6ebab18b2324d6b140000000000000000000000000000000000000000000000000000000000000bb8000000000000000000000000000000000000000000000000000000000000003c0000000000000000000000005c13377f19b9aeb3cb00fcc8e58e9a2b438895400000000000000000000000000000000000000000000000000000000000000000ffffffffffffffffffffffffffffffffffffffffffffffffffffa50cef85c000000000000000000000000000fffd8963efd1fc6a506488495d951d5263988d2500000000000000000000000000000000000000000000000000000000000001200000000000000000000000000000000000000000000000000000000000000000",
        "nonce": "0x10a9",
        "chainId": "0xaa36a7"
      },
      "additionalContracts": [],
      "isFixedGasLimit": false
    },
    {
      "hash": "0x8c734d4fe0dd71689c5d42bac191a12d5ef52a26293f4cae9286a1936ea16892",
      "transactionType": "CALL",
      "contractName": "SwapHelper",
      "contractAddress": "0x709407b6bc572b7608524874228a756ca31a689f",
      "function": "swap((address,address,uint24,int24,address),(bool,int256,uint160),bytes)",
      "arguments": [
        "(0x1c7D4B196Cb0C7B01d743Fbc6116a902379C7238, 0xfFf9976782d46CC05630D1f6eBAb18b2324d6B14, 3000, 60, 0x5C13377F19B9AEB3CB00Fcc8E58e9A2B43889540)",
        "(false, -100000000000000, 1461446703485210103287273052203988822378723970341)",
        "0x"
      ],
      "transaction": {
        "from": "0x63f976191f9dd75bd5b0fd81320d37fbc0d74080",
        "to": "0x709407b6bc572b7608524874228a756ca31a689f",
        "gas": "0x24ce1",
        "value": "0x0",
        "input": "0xf3cd914c0000000000000000000000001c7d4b196cb0c7b01d743fbc6116a902379c7238000000000000000000000000fff9976782d46cc05630d1f6ebab18b2324d6b140000000000000000000000000000000000000000000000000000000000000bb8000000000000000000000000000000000000000000000000000000000000003c0000000000000000000000005c13377f19b9aeb3cb00fcc8e58e9a2b438895400000000000000000000000000000000000000000000000000000000000000000ffffffffffffffffffffffffffffffffffffffffffffffffffffa50cef85c000000000000000000000000000fffd8963efd1fc6a506488495d951d5263988d2500000000000000000000000000000000000000000000000000000000000001200000000000000000000000000000000000000000000000000000000000000000",
        "nonce": "0x10aa",
        "chainId": "0xaa36a7"
      },
      "additionalContracts": [],
      "isFixedGasLimit": false
    },
    {
      "hash": "0x43fbdea22b573129ec28bb75d80de84909f28df4fdaefb30fd7bea966f41df8d",
      "transactionType": "CALL",
      "contractName": "SwapHelper",
      "contractAddress": "0x709407b6bc572b7608524874228a756ca31a689f",
      "function": "swap((address,address,uint24,int24,address),(bool,int256,uint160),bytes)",
      "arguments": [
        "(0x1c7D4B196Cb0C7B01d743Fbc6116a902379C7238, 0xfFf9976782d46CC05630D1f6eBAb18b2324d6B14, 3000, 60, 0x5C13377F19B9AEB3CB00Fcc8E58e9A2B43889540)",
        "(false, -100000000000000, 1461446703485210103287273052203988822378723970341)",
        "0x"
      ],
      "transaction": {
        "from": "0x63f976191f9dd75bd5b0fd81320d37fbc0d74080",
        "to": "0x709407b6bc572b7608524874228a756ca31a689f",
        "gas": "0x26a49",
        "value": "0x0",
        "input": "0xf3cd914c0000000000000000000000001c7d4b196cb0c7b01d743fbc6116a902379c7238000000000000000000000000fff9976782d46cc05630d1f6ebab18b2324d6b140000000000000000000000000000000000000000000000000000000000000bb8000000000000000000000000000000000000000000000000000000000000003c0000000000000000000000005c13377f19b9aeb3cb00fcc8e58e9a2b438895400000000000000000000000000000000000000000000000000000000000000000ffffffffffffffffffffffffffffffffffffffffffffffffffffa50cef85c000000000000000000000000000fffd8963efd1fc6a506488495d951d5263988d2500000000000000000000000000000000000000000000000000000000000001200000000000000000000000000000000000000000000000000000000000000000",
        "nonce": "0x10ab",
        "chainId": "0xaa36a7"
      },
      "additionalContracts": [],
      "isFixedGasLimit": false
    },
    {
      "hash": "0xc19dc57940b9bbf6ebeb89d76d53103fe716fd2580cc59c3c23948b948e100ea",
      "transactionType": "CALL",
      "contractName": "SwapHelper",
      "contractAddress": "0x709407b6bc572b7608524874228a756ca31a689f",
      "function": "swap((address,address,uint24,int24,address),(bool,int256,uint160),bytes)",
      "arguments": [
        "(0x1c7D4B196Cb0C7B01d743Fbc6116a902379C7238, 0xfFf9976782d46CC05630D1f6eBAb18b2324d6B14, 3000, 60, 0x5C13377F19B9AEB3CB00Fcc8E58e9A2B43889540)",
        "(false, -100000000000000, 1461446703485210103287273052203988822378723970341)",
        "0x"
      ],
      "transaction": {
        "from": "0x63f976191f9dd75bd5b0fd81320d37fbc0d74080",
        "to": "0x709407b6bc572b7608524874228a756ca31a689f",
        "gas": "0x26fe8",
        "value": "0x0",
        "input": "0xf3cd914c0000000000000000000000001c7d4b196cb0c7b01d743fbc6116a902379c7238000000000000000000000000fff9976782d46cc05630d1f6ebab18b2324d6b140000000000000000000000000000000000000000000000000000000000000bb8000000000000000000000000000000000000000000000000000000000000003c0000000000000000000000005c13377f19b9aeb3cb00fcc8e58e9a2b438895400000000000000000000000000000000000000000000000000000000000000000ffffffffffffffffffffffffffffffffffffffffffffffffffffa50cef85c000000000000000000000000000fffd8963efd1fc6a506488495d951d5263988d2500000000000000000000000000000000000000000000000000000000000001200000000000000000000000000000000000000000000000000000000000000000",
        "nonce": "0x10ac",
        "chainId": "0xaa36a7"
      },
      "additionalContracts": [],
      "isFixedGasLimit": false
    },
    {
      "hash": "0x8f532f36fceeaf8e439f49be5909f1af9a43b9455d7f2346cd7793b7c7af617f",
      "transactionType": "CALL",
      "contractName": "SwapHelper",
      "contractAddress": "0x709407b6bc572b7608524874228a756ca31a689f",
      "function": "swap((address,address,uint24,int24,address),(bool,int256,uint160),bytes)",
      "arguments": [
        "(0x1c7D4B196Cb0C7B01d743Fbc6116a902379C7238, 0xfFf9976782d46CC05630D1f6eBAb18b2324d6B14, 3000, 60, 0x5C13377F19B9AEB3CB00Fcc8E58e9A2B43889540)",
        "(false, -100000000000000, 1461446703485210103287273052203988822378723970341)",
        "0x"
      ],
      "transaction": {
        "from": "0x63f976191f9dd75bd5b0fd81320d37fbc0d74080",
        "to": "0x709407b6bc572b7608524874228a756ca31a689f",
        "gas": "0x26f8b",
        "value": "0x0",
        "input": "0xf3cd914c0000000000000000000000001c7d4b196cb0c7b01d743fbc6116a902379c7238000000000000000000000000fff9976782d46cc05630d1f6ebab18b2324d6b140000000000000000000000000000000000000000000000000000000000000bb8000000000000000000000000000000000000000000000000000000000000003c0000000000000000000000005c13377f19b9aeb3cb00fcc8e58e9a2b438895400000000000000000000000000000000000000000000000000000000000000000ffffffffffffffffffffffffffffffffffffffffffffffffffffa50cef85c000000000000000000000000000fffd8963efd1fc6a506488495d951d5263988d2500000000000000000000000000000000000000000000000000000000000001200000000000000000000000000000000000000000000000000000000000000000",
        "nonce": "0x10ad",
        "chainId": "0xaa36a7"
      },
      "additionalContracts": [],
      "isFixedGasLimit": false
    },
    {
      "hash": "0x81d85279b6112919365013d8312b909d76741e63f79def90e63ec61626ae7f71",
      "transactionType": "CALL",
      "contractName": "SwapHelper",
      "contractAddress": "0x709407b6bc572b7608524874228a756ca31a689f",
      "function": "swap((address,address,uint24,int24,address),(bool,int256,uint160),bytes)",
      "arguments": [
        "(0x1c7D4B196Cb0C7B01d743Fbc6116a902379C7238, 0xfFf9976782d46CC05630D1f6eBAb18b2324d6B14, 3000, 60, 0x5C13377F19B9AEB3CB00Fcc8E58e9A2B43889540)",
        "(false, -100000000000000, 1461446703485210103287273052203988822378723970341)",
        "0x"
      ],
      "transaction": {
        "from": "0x63f976191f9dd75bd5b0fd81320d37fbc0d74080",
        "to": "0x709407b6bc572b7608524874228a756ca31a689f",
        "gas": "0x24ce1",
        "value": "0x0",
        "input": "0xf3cd914c0000000000000000000000001c7d4b196cb0c7b01d743fbc6116a902379c7238000000000000000000000000fff9976782d46cc05630d1f6ebab18b2324d6b140000000000000000000000000000000000000000000000000000000000000bb8000000000000000000000000000000000000000000000000000000000000003c0000000000000000000000005c13377f19b9aeb3cb00fcc8e58e9a2b438895400000000000000000000000000000000000000000000000000000000000000000ffffffffffffffffffffffffffffffffffffffffffffffffffffa50cef85c000000000000000000000000000fffd8963efd1fc6a506488495d951d5263988d2500000000000000000000000000000000000000000000000000000000000001200000000000000000000000000000000000000000000000000000000000000000",
        "nonce": "0x10ae",
        "chainId": "0xaa36a7"
      },
      "additionalContracts": [],
      "isFixedGasLimit": false
    },
    {
      "hash": "0xfdf8b2f65839a83354e6dfbb7bc00eb8a6367c650639390167889b7eaf3188e1",
      "transactionType": "CALL",
      "contractName": "SwapHelper",
      "contractAddress": "0x709407b6bc572b7608524874228a756ca31a689f",
      "function": "swap((address,address,uint24,int24,address),(bool,int256,uint160),bytes)",
      "arguments": [
        "(0x1c7D4B196Cb0C7B01d743Fbc6116a902379C7238, 0xfFf9976782d46CC05630D1f6eBAb18b2324d6B14, 3000, 60, 0x5C13377F19B9AEB3CB00Fcc8E58e9A2B43889540)",
        "(false, -100000000000000, 1461446703485210103287273052203988822378723970341)",
        "0x"
      ],
      "transaction": {
        "from": "0x63f976191f9dd75bd5b0fd81320d37fbc0d74080",
        "to": "0x709407b6bc572b7608524874228a756ca31a689f",
        "gas": "0x24ce1",
        "value": "0x0",
        "input": "0xf3cd914c0000000000000000000000001c7d4b196cb0c7b01d743fbc6116a902379c7238000000000000000000000000fff9976782d46cc05630d1f6ebab18b2324d6b140000000000000000000000000000000000000000000000000000000000000bb8000000000000000000000000000000000000000000000000000000000000003c0000000000000000000000005c13377f19b9aeb3cb00fcc8e58e9a2b438895400000000000000000000000000000000000000000000000000000000000000000ffffffffffffffffffffffffffffffffffffffffffffffffffffa50cef85c000000000000000000000000000fffd8963efd1fc6a506488495d951d5263988d2500000000000000000000000000000000000000000000000000000000000001200000000000000000000000000000000000000000000000000000000000000000",
        "nonce": "0x10af",
        "chainId": "0xaa36a7"
      },
      "additionalContracts": [],
      "isFixedGasLimit": false
    },
    {
      "hash": "0xbab39927fd7c7cbf9a498c51afb64674db473d791e87781ce1ec42a93a0e9212",
      "transactionType": "CALL",
      "contractName": "SwapHelper",
      "contractAddress": "0x709407b6bc572b7608524874228a756ca31a689f",
      "function": "swap((address,address,uint24,int24,address),(bool,int256,uint160),bytes)",
      "arguments": [
        "(0x1c7D4B196Cb0C7B01d743Fbc6116a902379C7238, 0xfFf9976782d46CC05630D1f6eBAb18b2324d6B14, 3000, 60, 0x5C13377F19B9AEB3CB00Fcc8E58e9A2B43889540)",
        "(false, -100000000000000, 1461446703485210103287273052203988822378723970341)",
        "0x"
      ],
      "transaction": {
        "from": "0x63f976191f9dd75bd5b0fd81320d37fbc0d74080",
        "to": "0x709407b6bc572b7608524874228a756ca31a689f",
        "gas": "0x24d0d",
        "value": "0x0",
        "input": "0xf3cd914c0000000000000000000000001c7d4b196cb0c7b01d743fbc6116a902379c7238000000000000000000000000fff9976782d46cc05630d1f6ebab18b2324d6b140000000000000000000000000000000000000000000000000000000000000bb8000000000000000000000000000000000000000000000000000000000000003c0000000000000000000000005c13377f19b9aeb3cb00fcc8e58e9a2b438895400000000000000000000000000000000000000000000000000000000000000000ffffffffffffffffffffffffffffffffffffffffffffffffffffa50cef85c000000000000000000000000000fffd8963efd1fc6a506488495d951d5263988d2500000000000000000000000000000000000000000000000000000000000001200000000000000000000000000000000000000000000000000000000000000000",
        "nonce": "0x10b0",
        "chainId": "0xaa36a7"
      },
      "additionalContracts": [],
      "isFixedGasLimit": false
    },
    {
      "hash": "0x750002672603f95c96c1c779ecef19257e3285ddf654fea3b861f916d31cbe87",
      "transactionType": "CALL",
      "contractName": "SwapHelper",
      "contractAddress": "0x709407b6bc572b7608524874228a756ca31a689f",
      "function": "swap((address,address,uint24,int24,address),(bool,int256,uint160),bytes)",
      "arguments": [
        "(0x1c7D4B196Cb0C7B01d743Fbc6116a902379C7238, 0xfFf9976782d46CC05630D1f6eBAb18b2324d6B14, 3000, 60, 0x5C13377F19B9AEB3CB00Fcc8E58e9A2B43889540)",
        "(false, -100000000000000, 1461446703485210103287273052203988822378723970341)",
        "0x"
      ],
      "transaction": {
        "from": "0x63f976191f9dd75bd5b0fd81320d37fbc0d74080",
        "to": "0x709407b6bc572b7608524874228a756ca31a689f",
        "gas": "0x26f8b",
        "value": "0x0",
        "input": "0xf3cd914c0000000000000000000000001c7d4b196cb0c7b01d743fbc6116a902379c7238000000000000000000000000fff9976782d46cc05630d1f6ebab18b2324d6b140000000000000000000000000000000000000000000000000000000000000bb8000000000000000000000000000000000000000000000000000000000000003c0000000000000000000000005c13377f19b9aeb3cb00fcc8e58e9a2b438895400000000000000000000000000000000000000000000000000000000000000000ffffffffffffffffffffffffffffffffffffffffffffffffffffa50cef85c000000000000000000000000000fffd8963efd1fc6a506488495d951d5263988d2500000000000000000000000000000000000000000000000000000000000001200000000000000000000000000000000000000000000000000000000000000000",
        "nonce": "0x10b1",
        "chainId": "0xaa36a7"
      },
      "additionalContracts": [],
      "isFixedGasLimit": false
    }
  ],
  "receipts": [
    {
      "status": "0x1",
      "cumulativeGasUsed": "0x826a8e",
      "logs": [],
      "logsBloom": "0x00000000000000000000000000000000000000000000000000000000000000000000000000000000000000000000000000000000000000000000000000000000000000000000000000000000000000000000000000000000000000000000000000000000000000000000000000000000000000000000000000000000000000000000000000000000000000000000000000000000000000000000000000000000000000000000000000000000000000000000000000000000000000000000000000000000000000000000000000000000000000000000000000000000000000000000000000000000000000000000000000000000000000000000000000000000",
      "type": "0x2",
      "transactionHash": "0x5006bdf0e5aaf6be739cef43b7ad47ba7a355232130ccdb2783305f917776f27",
      "transactionIndex": "0xa0",
      "blockHash": "0xbf2a8523bb2b9473caf012642e2b0c188342aebf70424d10e605567ef6d88d98",
      "blockNumber": "0x987d1a",
      "gasUsed": "0xd808b",
      "effectiveGasPrice": "0xf4240",
      "from": "0x63f976191f9dd75bd5b0fd81320d37fbc0d74080",
      "to": null,
      "contractAddress": "0x709407b6bc572b7608524874228a756ca31a689f"
    },
    {
      "status": "0x1",
      "cumulativeGasUsed": "0x831faa",
      "logs": [
        {
          "address": "0xfff9976782d46cc05630d1f6ebab18b2324d6b14",
          "topics": [
            "0x8c5be1e5ebec7d5bd14f71427d1e84f3dd0314c0f7b2291e5b200ac8c7c3b925",
            "0x00000000000000000000000063f976191f9dd75bd5b0fd81320d37fbc0d74080",
            "0x000000000000000000000000709407b6bc572b7608524874228a756ca31a689f"
          ],
          "data": "0xffffffffffffffffffffffffffffffffffffffffffffffffffffffffffffffff",
          "blockHash": "0xbf2a8523bb2b9473caf012642e2b0c188342aebf70424d10e605567ef6d88d98",
          "blockNumber": "0x987d1a",
          "blockTimestamp": "0x695db2e0",
          "transactionHash": "0xc29db9553d37920d68bdf3d180c01f17e8f6e635c29242137598f6cf7377084e",
          "transactionIndex": "0xa1",
          "logIndex": "0x4e",
          "removed": false
        }
      ],
      "logsBloom": "0x00000000000000000000000000000000000000000000000000000000000000000000000000000000000000000000000000000000000010000000000000200000000000000000000000000000000000000000000000000000000000000000000000000000000000000000000000000000000000000000000000000000000000000040000000000000000000000000000000000000000000000000000000000000020020400000000000000000000000000000000000000000000000000000000000000000000000000002000000000000000000000000000000000000000000000011020000000000000000020000000000000000000000000001000000000000",
      "type": "0x2",
      "transactionHash": "0xc29db9553d37920d68bdf3d180c01f17e8f6e635c29242137598f6cf7377084e",
      "transactionIndex": "0xa1",
      "blockHash": "0xbf2a8523bb2b9473caf012642e2b0c188342aebf70424d10e605567ef6d88d98",
      "blockNumber": "0x987d1a",
      "gasUsed": "0xb51c",
      "effectiveGasPrice": "0xf4240",
      "from": "0x63f976191f9dd75bd5b0fd81320d37fbc0d74080",
      "to": "0xfff9976782d46cc05630d1f6ebab18b2324d6b14",
      "contractAddress": null
    },
    {
      "status": "0x1",
      "cumulativeGasUsed": "0x83f993",
      "logs": [
        {
          "address": "0x1c7d4b196cb0c7b01d743fbc6116a902379c7238",
          "topics": [
            "0x8c5be1e5ebec7d5bd14f71427d1e84f3dd0314c0f7b2291e5b200ac8c7c3b925",
            "0x00000000000000000000000063f976191f9dd75bd5b0fd81320d37fbc0d74080",
            "0x000000000000000000000000709407b6bc572b7608524874228a756ca31a689f"
          ],
          "data": "0xffffffffffffffffffffffffffffffffffffffffffffffffffffffffffffffff",
          "blockHash": "0xbf2a8523bb2b9473caf012642e2b0c188342aebf70424d10e605567ef6d88d98",
          "blockNumber": "0x987d1a",
          "blockTimestamp": "0x695db2e0",
          "transactionHash": "0x8c65aaf9f765acb98e5dd88c6a4a28e10c20b87aa6c86c787f41444f197be481",
          "transactionIndex": "0xa2",
          "logIndex": "0x4f",
          "removed": false
        }
      ],
      "logsBloom": "0x00000000000000000000000000000000000000000000000000000000000200000000000000000000000000000000000000000000000010000000000000200000000000000000000000000000000000000000000000000000000000000000000000000000000000000000000000000000000000000000000000000000000000000000000000100000000000000000000000000000000000000000000000000000020000400000000000000000000000000000000000000000000000000000000000000000000000000000000000000000000000000000000000000000000000000011020000000000000010020000000000000000000000000001000000000000",
      "type": "0x2",
      "transactionHash": "0x8c65aaf9f765acb98e5dd88c6a4a28e10c20b87aa6c86c787f41444f197be481",
      "transactionIndex": "0xa2",
      "blockHash": "0xbf2a8523bb2b9473caf012642e2b0c188342aebf70424d10e605567ef6d88d98",
      "blockNumber": "0x987d1a",
      "gasUsed": "0xd9e9",
      "effectiveGasPrice": "0xf4240",
      "from": "0x63f976191f9dd75bd5b0fd81320d37fbc0d74080",
      "to": "0x1c7d4b196cb0c7b01d743fbc6116a902379c7238",
      "contractAddress": null
    },
    {
      "status": "0x1",
      "cumulativeGasUsed": "0x85a38e",
      "logs": [
        {
          "address": "0x76e9e1affde82bb4544ce95ea58ffc2f9d45061f",
          "topics": [
            "0x40e9cecb9f5f1f1c5b9c97dec2917b7ee92e57ba5563708daca94dd84ad7112f",
            "0x6648efe854126eca977839455e095d4cb46e5035b64bc3aa0f8da2c5ebdce489",
            "0x000000000000000000000000709407b6bc572b7608524874228a756ca31a689f"
          ],
          "data": "0x0000000000000000000000000000000000000000000000000000000000000000ffffffffffffffffffffffffffffffffffffffffffffffffffffa50cef85c000000000000000000000000000000054243f0250f14c9e5d50ca3cdb62aba68750000000000000000000000000000000000000000000000000000000000000028d000000000000000000000000000000000000000000000000000000000009d07f0000000000000000000000000000000000000000000000000000000000000bb8",
          "blockHash": "0xbf2a8523bb2b9473caf012642e2b0c188342aebf70424d10e605567ef6d88d98",
          "blockNumber": "0x987d1a",
          "blockTimestamp": "0x695db2e0",
          "transactionHash": "0xdd3c4dc9c8b7ca306242b69c312a166d820d07c3c3d21f75260368904bf1fb39",
          "transactionIndex": "0xa3",
          "logIndex": "0x50",
          "removed": false
        },
        {
          "address": "0x5c13377f19b9aeb3cb00fcc8e58e9a2b43889540",
          "topics": [
            "0xcd9f4ccdc13709817c4447834a44bef5d62ffe25139e5c329d8debc5c177cc79",
            "0x6648efe854126eca977839455e095d4cb46e5035b64bc3aa0f8da2c5ebdce489"
          ],
          "data": "0x000000000000000000000000000000000000000000000000000000000000000000000000000000000000000000000000000000000000000000000045d964b8000000000000000000000000000000000000000000000000000000000000000bb80000000000000000000000000000000000000000000000000001998ba38ad80000000000000000000000000000000000000000000000000012bf5c6483134bb8",
          "blockHash": "0xbf2a8523bb2b9473caf012642e2b0c188342aebf70424d10e605567ef6d88d98",
          "blockNumber": "0x987d1a",
          "blockTimestamp": "0x695db2e0",
          "transactionHash": "0xdd3c4dc9c8b7ca306242b69c312a166d820d07c3c3d21f75260368904bf1fb39",
          "transactionIndex": "0xa3",
          "logIndex": "0x51",
          "removed": false
        },
        {
          "address": "0xfff9976782d46cc05630d1f6ebab18b2324d6b14",
          "topics": [
            "0xddf252ad1be2c89b69c2b068fc378daa952ba7f163c4a11628f55a4df523b3ef",
            "0x00000000000000000000000063f976191f9dd75bd5b0fd81320d37fbc0d74080",
            "0x00000000000000000000000076e9e1affde82bb4544ce95ea58ffc2f9d45061f"
          ],
          "data": "0x00000000000000000000000000000000000000000000000000005af3107a4000",
          "blockHash": "0xbf2a8523bb2b9473caf012642e2b0c188342aebf70424d10e605567ef6d88d98",
          "blockNumber": "0x987d1a",
          "blockTimestamp": "0x695db2e0",
          "transactionHash": "0xdd3c4dc9c8b7ca306242b69c312a166d820d07c3c3d21f75260368904bf1fb39",
          "transactionIndex": "0xa3",
          "logIndex": "0x52",
          "removed": false
        }
      ],
      "logsBloom": "0x00001000000000000000000000000000002000000000000000000000000000000000000000000000000020000000000000000000040010000000000000001000000000000000000000000008000000000000000000000820000000000000010000000000000000000000004000000000000000000000000000000012000000000040000000000000000000000000010000000000000000000000000000000000000020400000040000000000000000000000000000000000000001000000000000000002000004000002000000000000000000000000000000008000000000000001020000000000004000020000050000000000000000000001000000000000",
      "type": "0x2",
      "transactionHash": "0xdd3c4dc9c8b7ca306242b69c312a166d820d07c3c3d21f75260368904bf1fb39",
      "transactionIndex": "0xa3",
      "blockHash": "0xbf2a8523bb2b9473caf012642e2b0c188342aebf70424d10e605567ef6d88d98",
      "blockNumber": "0x987d1a",
      "gasUsed": "0x1a9fb",
      "effectiveGasPrice": "0xf4240",
      "from": "0x63f976191f9dd75bd5b0fd81320d37fbc0d74080",
      "to": "0x709407b6bc572b7608524874228a756ca31a689f",
      "contractAddress": null
    },
    {
      "status": "0x1",
      "cumulativeGasUsed": "0x874da9",
      "logs": [
        {
          "address": "0x76e9e1affde82bb4544ce95ea58ffc2f9d45061f",
          "topics": [
            "0x40e9cecb9f5f1f1c5b9c97dec2917b7ee92e57ba5563708daca94dd84ad7112f",
            "0x6648efe854126eca977839455e095d4cb46e5035b64bc3aa0f8da2c5ebdce489",
            "0x000000000000000000000000709407b6bc572b7608524874228a756ca31a689f"
          ],
          "data": "0x0000000000000000000000000000000000000000000000000000000000000000ffffffffffffffffffffffffffffffffffffffffffffffffffffa50cef85c00000000000000000000000000000005447cb714ba98e7b14c9ede9bec449a42d24000000000000000000000000000000000000000000000000000000000000028d000000000000000000000000000000000000000000000000000000000009d0a00000000000000000000000000000000000000000000000000000000000000bb8",
          "blockHash": "0xbf2a8523bb2b9473caf012642e2b0c188342aebf70424d10e605567ef6d88d98",
          "blockNumber": "0x987d1a",
          "blockTimestamp": "0x695db2e0",
          "transactionHash": "0x85c7beb54bc52ed665273ad0846af0d9e9384eeb14881b427b49cfc85d0d944e",
          "transactionIndex": "0xa4",
          "logIndex": "0x53",
          "removed": false
        },
        {
          "address": "0x5c13377f19b9aeb3cb00fcc8e58e9a2b43889540",
          "topics": [
            "0xcd9f4ccdc13709817c4447834a44bef5d62ffe25139e5c329d8debc5c177cc79",
            "0x6648efe854126eca977839455e095d4cb46e5035b64bc3aa0f8da2c5ebdce489"
          ],
          "data": "0x000000000000000000000000000000000000000000000000000000000000000000000000000000000000000000000000000000000000000000000045d964b8000000000000000000000000000000000000000000000000000000000000000bb8000000000000000000000000000000000000000000000000000199d17cef900000000000000000000000000000000000000000000000000012c28ef0175f8bb8",
          "blockHash": "0xbf2a8523bb2b9473caf012642e2b0c188342aebf70424d10e605567ef6d88d98",
          "blockNumber": "0x987d1a",
          "blockTimestamp": "0x695db2e0",
          "transactionHash": "0x85c7beb54bc52ed665273ad0846af0d9e9384eeb14881b427b49cfc85d0d944e",
          "transactionIndex": "0xa4",
          "logIndex": "0x54",
          "removed": false
        },
        {
          "address": "0xfff9976782d46cc05630d1f6ebab18b2324d6b14",
          "topics": [
            "0xddf252ad1be2c89b69c2b068fc378daa952ba7f163c4a11628f55a4df523b3ef",
            "0x00000000000000000000000063f976191f9dd75bd5b0fd81320d37fbc0d74080",
            "0x00000000000000000000000076e9e1affde82bb4544ce95ea58ffc2f9d45061f"
          ],
          "data": "0x00000000000000000000000000000000000000000000000000005af3107a4000",
          "blockHash": "0xbf2a8523bb2b9473caf012642e2b0c188342aebf70424d10e605567ef6d88d98",
          "blockNumber": "0x987d1a",
          "blockTimestamp": "0x695db2e0",
          "transactionHash": "0x85c7beb54bc52ed665273ad0846af0d9e9384eeb14881b427b49cfc85d0d944e",
          "transactionIndex": "0xa4",
          "logIndex": "0x55",
          "removed": false
        }
      ],
      "logsBloom": "0x00001000000000000000000000000000002000000000000000000000000000000000000000000000000020000000000000000000040010000000000000001000000000000000000000000008000000000000000000000820000000000000010000000000000000000000004000000000000000000000000000000012000000000040000000000000000000000000010000000000000000000000000000000000000020400000040000000000000000000000000000000000000001000000000000000002000004000002000000000000000000000000000000008000000000000001020000000000004000020000050000000000000000000001000000000000",
      "type": "0x2",
      "transactionHash": "0x85c7beb54bc52ed665273ad0846af0d9e9384eeb14881b427b49cfc85d0d944e",
      "transactionIndex": "0xa4",
      "blockHash": "0xbf2a8523bb2b9473caf012642e2b0c188342aebf70424d10e605567ef6d88d98",
      "blockNumber": "0x987d1a",
      "gasUsed": "0x1aa1b",
      "effectiveGasPrice": "0xf4240",
      "from": "0x63f976191f9dd75bd5b0fd81320d37fbc0d74080",
      "to": "0x709407b6bc572b7608524874228a756ca31a689f",
      "contractAddress": null
    },
    {
      "status": "0x1",
      "cumulativeGasUsed": "0x88f7e4",
      "logs": [
        {
          "address": "0x76e9e1affde82bb4544ce95ea58ffc2f9d45061f",
          "topics": [
            "0x40e9cecb9f5f1f1c5b9c97dec2917b7ee92e57ba5563708daca94dd84ad7112f",
            "0x6648efe854126eca977839455e095d4cb46e5035b64bc3aa0f8da2c5ebdce489",
            "0x000000000000000000000000709407b6bc572b7608524874228a756ca31a689f"
          ],
          "data": "0x0000000000000000000000000000000000000000000000000000000000000000ffffffffffffffffffffffffffffffffffffffffffffffffffffa50cef85c0000000000000000000000000000000546b57e04661d057cc431196a225e7a1d2f8000000000000000000000000000000000000000000000000000000000000028d000000000000000000000000000000000000000000000000000000000009d0c10000000000000000000000000000000000000000000000000000000000000bb8",
          "blockHash": "0xbf2a8523bb2b9473caf012642e2b0c188342aebf70424d10e605567ef6d88d98",
          "blockNumber": "0x987d1a",
          "blockTimestamp": "0x695db2e0",
          "transactionHash": "0x50c2058f88e0bb17c38d1e91f866293a7e831848d0985b223cd0a4c2876d590c",
          "transactionIndex": "0xa5",
          "logIndex": "0x56",
          "removed": false
        },
        {
          "address": "0x5c13377f19b9aeb3cb00fcc8e58e9a2b43889540",
          "topics": [
            "0xcd9f4ccdc13709817c4447834a44bef5d62ffe25139e5c329d8debc5c177cc79",
            "0x6648efe854126eca977839455e095d4cb46e5035b64bc3aa0f8da2c5ebdce489"
          ],
          "data": "0x000000000000000000000000000000000000000000000000000000000000000000000000000000000000000000000000000000000000000000000045d964b8000000000000000000000000000000000000000000000000000000000000000bb800000000000000000000000000000000000000000000000000019a175654480000000000000000000000000000000000000000000000000012c5c17bababcbb8",
          "blockHash": "0xbf2a8523bb2b9473caf012642e2b0c188342aebf70424d10e605567ef6d88d98",
          "blockNumber": "0x987d1a",
          "blockTimestamp": "0x695db2e0",
          "transactionHash": "0x50c2058f88e0bb17c38d1e91f866293a7e831848d0985b223cd0a4c2876d590c",
          "transactionIndex": "0xa5",
          "logIndex": "0x57",
          "removed": false
        },
        {
          "address": "0xfff9976782d46cc05630d1f6ebab18b2324d6b14",
          "topics": [
            "0xddf252ad1be2c89b69c2b068fc378daa952ba7f163c4a11628f55a4df523b3ef",
            "0x00000000000000000000000063f976191f9dd75bd5b0fd81320d37fbc0d74080",
            "0x00000000000000000000000076e9e1affde82bb4544ce95ea58ffc2f9d45061f"
          ],
          "data": "0x00000000000000000000000000000000000000000000000000005af3107a4000",
          "blockHash": "0xbf2a8523bb2b9473caf012642e2b0c188342aebf70424d10e605567ef6d88d98",
          "blockNumber": "0x987d1a",
          "blockTimestamp": "0x695db2e0",
          "transactionHash": "0x50c2058f88e0bb17c38d1e91f866293a7e831848d0985b223cd0a4c2876d590c",
          "transactionIndex": "0xa5",
          "logIndex": "0x58",
          "removed": false
        }
      ],
      "logsBloom": "0x00001000000000000000000000000000002000000000000000000000000000000000000000000000000020000000000000000000040010000000000000001000000000000000000000000008000000000000000000000820000000000000010000000000000000000000004000000000000000000000000000000012000000000040000000000000000000000000010000000000000000000000000000000000000020400000040000000000000000000000000000000000000001000000000000000002000004000002000000000000000000000000000000008000000000000001020000000000004000020000050000000000000000000001000000000000",
      "type": "0x2",
      "transactionHash": "0x50c2058f88e0bb17c38d1e91f866293a7e831848d0985b223cd0a4c2876d590c",
      "transactionIndex": "0xa5",
      "blockHash": "0xbf2a8523bb2b9473caf012642e2b0c188342aebf70424d10e605567ef6d88d98",
      "blockNumber": "0x987d1a",
      "gasUsed": "0x1aa3b",
      "effectiveGasPrice": "0xf4240",
      "from": "0x63f976191f9dd75bd5b0fd81320d37fbc0d74080",
      "to": "0x709407b6bc572b7608524874228a756ca31a689f",
      "contractAddress": null
    },
    {
      "status": "0x1",
      "cumulativeGasUsed": "0x8e0816",
      "logs": [
        {
          "address": "0x76e9e1affde82bb4544ce95ea58ffc2f9d45061f",
          "topics": [
            "0x40e9cecb9f5f1f1c5b9c97dec2917b7ee92e57ba5563708daca94dd84ad7112f",
            "0x6648efe854126eca977839455e095d4cb46e5035b64bc3aa0f8da2c5ebdce489",
            "0x000000000000000000000000709407b6bc572b7608524874228a756ca31a689f"
          ],
          "data": "0x0000000000000000000000000000000000000000000000000000000000000000ffffffffffffffffffffffffffffffffffffffffffffffffffffa50cef85c0000000000000000000000000000000548ee44f411a123483bc35438587859f78cc000000000000000000000000000000000000000000000000000000000000028d000000000000000000000000000000000000000000000000000000000009d0e20000000000000000000000000000000000000000000000000000000000000bb8",
          "blockHash": "0xbf2a8523bb2b9473caf012642e2b0c188342aebf70424d10e605567ef6d88d98",
          "blockNumber": "0x987d1a",
          "blockTimestamp": "0x695db2e0",
          "transactionHash": "0x45708d380b396dfb3778368f99e2c96b13d7d13e6796056def33841d8c3a1483",
          "transactionIndex": "0xb0",
          "logIndex": "0x5a",
          "removed": false
        },
        {
          "address": "0x5c13377f19b9aeb3cb00fcc8e58e9a2b43889540",
          "topics": [
            "0xcd9f4ccdc13709817c4447834a44bef5d62ffe25139e5c329d8debc5c177cc79",
            "0x6648efe854126eca977839455e095d4cb46e5035b64bc3aa0f8da2c5ebdce489"
          ],
          "data": "0x000000000000000000000000000000000000000000000000000000000000000000000000000000000000000000000000000000000000000000000045d964b8000000000000000000000000000000000000000000000000000000000000000bb800000000000000000000000000000000000000000000000000019a5d2fb9000000000000000000000000000000000000000000000000000012c8f4073ff80bb8",
          "blockHash": "0xbf2a8523bb2b9473caf012642e2b0c188342aebf70424d10e605567ef6d88d98",
          "blockNumber": "0x987d1a",
          "blockTimestamp": "0x695db2e0",
          "transactionHash": "0x45708d380b396dfb3778368f99e2c96b13d7d13e6796056def33841d8c3a1483",
          "transactionIndex": "0xb0",
          "logIndex": "0x5b",
          "removed": false
        },
        {
          "address": "0xfff9976782d46cc05630d1f6ebab18b2324d6b14",
          "topics": [
            "0xddf252ad1be2c89b69c2b068fc378daa952ba7f163c4a11628f55a4df523b3ef",
            "0x00000000000000000000000063f976191f9dd75bd5b0fd81320d37fbc0d74080",
            "0x00000000000000000000000076e9e1affde82bb4544ce95ea58ffc2f9d45061f"
          ],
          "data": "0x00000000000000000000000000000000000000000000000000005af3107a4000",
          "blockHash": "0xbf2a8523bb2b9473caf012642e2b0c188342aebf70424d10e605567ef6d88d98",
          "blockNumber": "0x987d1a",
          "blockTimestamp": "0x695db2e0",
          "transactionHash": "0x45708d380b396dfb3778368f99e2c96b13d7d13e6796056def33841d8c3a1483",
          "transactionIndex": "0xb0",
          "logIndex": "0x5c",
          "removed": false
        }
      ],
      "logsBloom": "0x00001000000000000000000000000000002000000000000000000000000000000000000000000000000020000000000000000000040010000000000000001000000000000000000000000008000000000000000000000820000000000000010000000000000000000000004000000000000000000000000000000012000000000040000000000000000000000000010000000000000000000000000000000000000020400000040000000000000000000000000000000000000001000000000000000002000004000002000000000000000000000000000000008000000000000001020000000000004000020000050000000000000000000001000000000000",
      "type": "0x2",
      "transactionHash": "0x45708d380b396dfb3778368f99e2c96b13d7d13e6796056def33841d8c3a1483",
      "transactionIndex": "0xb0",
      "blockHash": "0xbf2a8523bb2b9473caf012642e2b0c188342aebf70424d10e605567ef6d88d98",
      "blockNumber": "0x987d1a",
      "gasUsed": "0x1aa5b",
      "effectiveGasPrice": "0xf4240",
      "from": "0x63f976191f9dd75bd5b0fd81320d37fbc0d74080",
      "to": "0x709407b6bc572b7608524874228a756ca31a689f",
      "contractAddress": null
    },
    {
      "status": "0x1",
      "cumulativeGasUsed": "0x8fb231",
      "logs": [
        {
          "address": "0x76e9e1affde82bb4544ce95ea58ffc2f9d45061f",
          "topics": [
            "0x40e9cecb9f5f1f1c5b9c97dec2917b7ee92e57ba5563708daca94dd84ad7112f",
            "0x6648efe854126eca977839455e095d4cb46e5035b64bc3aa0f8da2c5ebdce489",
            "0x000000000000000000000000709407b6bc572b7608524874228a756ca31a689f"
          ],
          "data": "0x0000000000000000000000000000000000000000000000000000000000000000ffffffffffffffffffffffffffffffffffffffffffffffffffffa50cef85c000000000000000000000000000000054b270be3bd254113b3558f068e9239d1ea0000000000000000000000000000000000000000000000000000000000000028d000000000000000000000000000000000000000000000000000000000009d1030000000000000000000000000000000000000000000000000000000000000bb8",
          "blockHash": "0xbf2a8523bb2b9473caf012642e2b0c188342aebf70424d10e605567ef6d88d98",
          "blockNumber": "0x987d1a",
          "blockTimestamp": "0x695db2e0",
          "transactionHash": "0xdc577cad789d52f18ac6cd20f5499b8a3028910ee5aae08cc37415bb95488441",
          "transactionIndex": "0xb1",
          "logIndex": "0x5d",
          "removed": false
        },
        {
          "address": "0x5c13377f19b9aeb3cb00fcc8e58e9a2b43889540",
          "topics": [
            "0xcd9f4ccdc13709817c4447834a44bef5d62ffe25139e5c329d8debc5c177cc79",
            "0x6648efe854126eca977839455e095d4cb46e5035b64bc3aa0f8da2c5ebdce489"
          ],
          "data": "0x000000000000000000000000000000000000000000000000000000000000000000000000000000000000000000000000000000000000000000000045d964b8000000000000000000000000000000000000000000000000000000000000000bb800000000000000000000000000000000000000000000000000019aa3091db80000000000000000000000000000000000000000000000000012cc2692d4444bb8",
          "blockHash": "0xbf2a8523bb2b9473caf012642e2b0c188342aebf70424d10e605567ef6d88d98",
          "blockNumber": "0x987d1a",
          "blockTimestamp": "0x695db2e0",
          "transactionHash": "0xdc577cad789d52f18ac6cd20f5499b8a3028910ee5aae08cc37415bb95488441",
          "transactionIndex": "0xb1",
          "logIndex": "0x5e",
          "removed": false
        },
        {
          "address": "0xfff9976782d46cc05630d1f6ebab18b2324d6b14",
          "topics": [
            "0xddf252ad1be2c89b69c2b068fc378daa952ba7f163c4a11628f55a4df523b3ef",
            "0x00000000000000000000000063f976191f9dd75bd5b0fd81320d37fbc0d74080",
            "0x00000000000000000000000076e9e1affde82bb4544ce95ea58ffc2f9d45061f"
          ],
          "data": "0x00000000000000000000000000000000000000000000000000005af3107a4000",
          "blockHash": "0xbf2a8523bb2b9473caf012642e2b0c188342aebf70424d10e605567ef6d88d98",
          "blockNumber": "0x987d1a",
          "blockTimestamp": "0x695db2e0",
          "transactionHash": "0xdc577cad789d52f18ac6cd20f5499b8a3028910ee5aae08cc37415bb95488441",
          "transactionIndex": "0xb1",
          "logIndex": "0x5f",
          "removed": false
        }
      ],
      "logsBloom": "0x00001000000000000000000000000000002000000000000000000000000000000000000000000000000020000000000000000000040010000000000000001000000000000000000000000008000000000000000000000820000000000000010000000000000000000000004000000000000000000000000000000012000000000040000000000000000000000000010000000000000000000000000000000000000020400000040000000000000000000000000000000000000001000000000000000002000004000002000000000000000000000000000000008000000000000001020000000000004000020000050000000000000000000001000000000000",
      "type": "0x2",
      "transactionHash": "0xdc577cad789d52f18ac6cd20f5499b8a3028910ee5aae08cc37415bb95488441",
      "transactionIndex": "0xb1",
      "blockHash": "0xbf2a8523bb2b9473caf012642e2b0c188342aebf70424d10e605567ef6d88d98",
      "blockNumber": "0x987d1a",
      "gasUsed": "0x1aa1b",
      "effectiveGasPrice": "0xf4240",
      "from": "0x63f976191f9dd75bd5b0fd81320d37fbc0d74080",
      "to": "0x709407b6bc572b7608524874228a756ca31a689f",
      "contractAddress": null
    },
    {
      "status": "0x1",
      "cumulativeGasUsed": "0x915c68",
      "logs": [
        {
          "address": "0x76e9e1affde82bb4544ce95ea58ffc2f9d45061f",
          "topics": [
            "0x40e9cecb9f5f1f1c5b9c97dec2917b7ee92e57ba5563708daca94dd84ad7112f",
            "0x6648efe854126eca977839455e095d4cb46e5035b64bc3aa0f8da2c5ebdce489",
            "0x000000000000000000000000709407b6bc572b7608524874228a756ca31a689f"
          ],
          "data": "0x0000000000000000000000000000000000000000000000000000000000000000ffffffffffffffffffffffffffffffffffffffffffffffffffffa50cef85c000000000000000000000000000000054d5fd2d368a95edf2ae7c9d4c4ac19ac474000000000000000000000000000000000000000000000000000000000000028d000000000000000000000000000000000000000000000000000000000009d1240000000000000000000000000000000000000000000000000000000000000bb8",
          "blockHash": "0xbf2a8523bb2b9473caf012642e2b0c188342aebf70424d10e605567ef6d88d98",
          "blockNumber": "0x987d1a",
          "blockTimestamp": "0x695db2e0",
          "transactionHash": "0x6c6901531528f9f1774af6f9cb9af061a54aca2b66a53ac57cd7c49aef592d54",
          "transactionIndex": "0xb2",
          "logIndex": "0x60",
          "removed": false
        },
        {
          "address": "0x5c13377f19b9aeb3cb00fcc8e58e9a2b43889540",
          "topics": [
            "0xcd9f4ccdc13709817c4447834a44bef5d62ffe25139e5c329d8debc5c177cc79",
            "0x6648efe854126eca977839455e095d4cb46e5035b64bc3aa0f8da2c5ebdce489"
          ],
          "data": "0x000000000000000000000000000000000000000000000000000000000000000000000000000000000000000000000000000000000000000000000045d964b8000000000000000000000000000000000000000000000000000000000000000bb800000000000000000000000000000000000000000000000000019ae8e282700000000000000000000000000000000000000000000000000012cf591e68908bb8",
          "blockHash": "0xbf2a8523bb2b9473caf012642e2b0c188342aebf70424d10e605567ef6d88d98",
          "blockNumber": "0x987d1a",
          "blockTimestamp": "0x695db2e0",
          "transactionHash": "0x6c6901531528f9f1774af6f9cb9af061a54aca2b66a53ac57cd7c49aef592d54",
          "transactionIndex": "0xb2",
          "logIndex": "0x61",
          "removed": false
        },
        {
          "address": "0xfff9976782d46cc05630d1f6ebab18b2324d6b14",
          "topics": [
            "0xddf252ad1be2c89b69c2b068fc378daa952ba7f163c4a11628f55a4df523b3ef",
            "0x00000000000000000000000063f976191f9dd75bd5b0fd81320d37fbc0d74080",
            "0x00000000000000000000000076e9e1affde82bb4544ce95ea58ffc2f9d45061f"
          ],
          "data": "0x00000000000000000000000000000000000000000000000000005af3107a4000",
          "blockHash": "0xbf2a8523bb2b9473caf012642e2b0c188342aebf70424d10e605567ef6d88d98",
          "blockNumber": "0x987d1a",
          "blockTimestamp": "0x695db2e0",
          "transactionHash": "0x6c6901531528f9f1774af6f9cb9af061a54aca2b66a53ac57cd7c49aef592d54",
          "transactionIndex": "0xb2",
          "logIndex": "0x62",
          "removed": false
        }
      ],
      "logsBloom": "0x00001000000000000000000000000000002000000000000000000000000000000000000000000000000020000000000000000000040010000000000000001000000000000000000000000008000000000000000000000820000000000000010000000000000000000000004000000000000000000000000000000012000000000040000000000000000000000000010000000000000000000000000000000000000020400000040000000000000000000000000000000000000001000000000000000002000004000002000000000000000000000000000000008000000000000001020000000000004000020000050000000000000000000001000000000000",
      "type": "0x2",
      "transactionHash": "0x6c6901531528f9f1774af6f9cb9af061a54aca2b66a53ac57cd7c49aef592d54",
      "transactionIndex": "0xb2",
      "blockHash": "0xbf2a8523bb2b9473caf012642e2b0c188342aebf70424d10e605567ef6d88d98",
      "blockNumber": "0x987d1a",
      "gasUsed": "0x1aa37",
      "effectiveGasPrice": "0xf4240",
      "from": "0x63f976191f9dd75bd5b0fd81320d37fbc0d74080",
      "to": "0x709407b6bc572b7608524874228a756ca31a689f",
      "contractAddress": null
    },
    {
      "status": "0x1",
      "cumulativeGasUsed": "0x9f388f",
      "logs": [
        {
          "address": "0x76e9e1affde82bb4544ce95ea58ffc2f9d45061f",
          "topics": [
            "0x40e9cecb9f5f1f1c5b9c97dec2917b7ee92e57ba5563708daca94dd84ad7112f",
            "0x6648efe854126eca977839455e095d4cb46e5035b64bc3aa0f8da2c5ebdce489",
            "0x000000000000000000000000709407b6bc572b7608524874228a756ca31a689f"
          ],
          "data": "0x0000000000000000000000000000000000000000000000000000000000000000ffffffffffffffffffffffffffffffffffffffffffffffffffffa50cef85c000000000000000000000000000000054f9899c3142d7caaa27a04a2fac5f986a48000000000000000000000000000000000000000000000000000000000000028d000000000000000000000000000000000000000000000000000000000009d1440000000000000000000000000000000000000000000000000000000000000bb8",
          "blockHash": "0xbf2a8523bb2b9473caf012642e2b0c188342aebf70424d10e605567ef6d88d98",
          "blockNumber": "0x987d1a",
          "blockTimestamp": "0x695db2e0",
          "transactionHash": "0x133bf98d6bfc3e5ef1b5477200ac936eb79015f91f6badb63fc1cd2e78d17c19",
          "transactionIndex": "0xcf",
          "logIndex": "0x6c",
          "removed": false
        },
        {
          "address": "0x5c13377f19b9aeb3cb00fcc8e58e9a2b43889540",
          "topics": [
            "0xcd9f4ccdc13709817c4447834a44bef5d62ffe25139e5c329d8debc5c177cc79",
            "0x6648efe854126eca977839455e095d4cb46e5035b64bc3aa0f8da2c5ebdce489"
          ],
          "data": "0x000000000000000000000000000000000000000000000000000000000000000000000000000000000000000000000000000000000000000000000045d964b8000000000000000000000000000000000000000000000000000000000000000bb800000000000000000000000000000000000000000000000000019b2ebbe7280000000000000000000000000000000000000000000000000012d28ba9fcdccbb8",
          "blockHash": "0xbf2a8523bb2b9473caf012642e2b0c188342aebf70424d10e605567ef6d88d98",
          "blockNumber": "0x987d1a",
          "blockTimestamp": "0x695db2e0",
          "transactionHash": "0x133bf98d6bfc3e5ef1b5477200ac936eb79015f91f6badb63fc1cd2e78d17c19",
          "transactionIndex": "0xcf",
          "logIndex": "0x6d",
          "removed": false
        },
        {
          "address": "0xfff9976782d46cc05630d1f6ebab18b2324d6b14",
          "topics": [
            "0xddf252ad1be2c89b69c2b068fc378daa952ba7f163c4a11628f55a4df523b3ef",
            "0x00000000000000000000000063f976191f9dd75bd5b0fd81320d37fbc0d74080",
            "0x00000000000000000000000076e9e1affde82bb4544ce95ea58ffc2f9d45061f"
          ],
          "data": "0x00000000000000000000000000000000000000000000000000005af3107a4000",
          "blockHash": "0xbf2a8523bb2b9473caf012642e2b0c188342aebf70424d10e605567ef6d88d98",
          "blockNumber": "0x987d1a",
          "blockTimestamp": "0x695db2e0",
          "transactionHash": "0x133bf98d6bfc3e5ef1b5477200ac936eb79015f91f6badb63fc1cd2e78d17c19",
          "transactionIndex": "0xcf",
          "logIndex": "0x6e",
          "removed": false
        }
      ],
      "logsBloom": "0x00001000000000000000000000000000002000000000000000000000000000000000000000000000000020000000000000000000040010000000000000001000000000000000000000000008000000000000000000000820000000000000010000000000000000000000004000000000000000000000000000000012000000000040000000000000000000000000010000000000000000000000000000000000000020400000040000000000000000000000000000000000000001000000000000000002000004000002000000000000000000000000000000008000000000000001020000000000004000020000050000000000000000000001000000000000",
      "type": "0x2",
      "transactionHash": "0x133bf98d6bfc3e5ef1b5477200ac936eb79015f91f6badb63fc1cd2e78d17c19",
      "transactionIndex": "0xcf",
      "blockHash": "0xbf2a8523bb2b9473caf012642e2b0c188342aebf70424d10e605567ef6d88d98",
      "blockNumber": "0x987d1a",
      "gasUsed": "0x1aa3b",
      "effectiveGasPrice": "0xf4240",
      "from": "0x63f976191f9dd75bd5b0fd81320d37fbc0d74080",
      "to": "0x709407b6bc572b7608524874228a756ca31a689f",
      "contractAddress": null
    },
    {
      "status": "0x1",
      "cumulativeGasUsed": "0xa0e30a",
      "logs": [
        {
          "address": "0x76e9e1affde82bb4544ce95ea58ffc2f9d45061f",
          "topics": [
            "0x40e9cecb9f5f1f1c5b9c97dec2917b7ee92e57ba5563708daca94dd84ad7112f",
            "0x6648efe854126eca977839455e095d4cb46e5035b64bc3aa0f8da2c5ebdce489",
            "0x000000000000000000000000709407b6bc572b7608524874228a756ca31a689f"
          ],
          "data": "0x0000000000000000000000000000000000000000000000000000000000000000ffffffffffffffffffffffffffffffffffffffffffffffffffffa50cef85c0000000000000000000000000000000551d160b2bfb19a761a0c3f7130dfd96101c000000000000000000000000000000000000000000000000000000000000028d000000000000000000000000000000000000000000000000000000000009d1650000000000000000000000000000000000000000000000000000000000000bb8",
          "blockHash": "0xbf2a8523bb2b9473caf012642e2b0c188342aebf70424d10e605567ef6d88d98",
          "blockNumber": "0x987d1a",
          "blockTimestamp": "0x695db2e0",
          "transactionHash": "0x7329a7912919301fdc6a2c24da53038d8b325713a703799fbb4b2644cff41430",
          "transactionIndex": "0xd0",
          "logIndex": "0x6f",
          "removed": false
        },
        {
          "address": "0x5c13377f19b9aeb3cb00fcc8e58e9a2b43889540",
          "topics": [
            "0xcd9f4ccdc13709817c4447834a44bef5d62ffe25139e5c329d8debc5c177cc79",
            "0x6648efe854126eca977839455e095d4cb46e5035b64bc3aa0f8da2c5ebdce489"
          ],
          "data": "0x000000000000000000000000000000000000000000000000000000000000000000000000000000000000000000000000000000000000000000000045d964b8000000000000000000000000000000000000000000000000000000000000000bb800000000000000000000000000000000000000000000000000019b74954be00000000000000000000000000000000000000000000000000012d5be3591290bb8",
          "blockHash": "0xbf2a8523bb2b9473caf012642e2b0c188342aebf70424d10e605567ef6d88d98",
          "blockNumber": "0x987d1a",
          "blockTimestamp": "0x695db2e0",
          "transactionHash": "0x7329a7912919301fdc6a2c24da53038d8b325713a703799fbb4b2644cff41430",
          "transactionIndex": "0xd0",
          "logIndex": "0x70",
          "removed": false
        },
        {
          "address": "0xfff9976782d46cc05630d1f6ebab18b2324d6b14",
          "topics": [
            "0xddf252ad1be2c89b69c2b068fc378daa952ba7f163c4a11628f55a4df523b3ef",
            "0x00000000000000000000000063f976191f9dd75bd5b0fd81320d37fbc0d74080",
            "0x00000000000000000000000076e9e1affde82bb4544ce95ea58ffc2f9d45061f"
          ],
          "data": "0x00000000000000000000000000000000000000000000000000005af3107a4000",
          "blockHash": "0xbf2a8523bb2b9473caf012642e2b0c188342aebf70424d10e605567ef6d88d98",
          "blockNumber": "0x987d1a",
          "blockTimestamp": "0x695db2e0",
          "transactionHash": "0x7329a7912919301fdc6a2c24da53038d8b325713a703799fbb4b2644cff41430",
          "transactionIndex": "0xd0",
          "logIndex": "0x71",
          "removed": false
        }
      ],
      "logsBloom": "0x00001000000000000000000000000000002000000000000000000000000000000000000000000000000020000000000000000000040010000000000000001000000000000000000000000008000000000000000000000820000000000000010000000000000000000000004000000000000000000000000000000012000000000040000000000000000000000000010000000000000000000000000000000000000020400000040000000000000000000000000000000000000001000000000000000002000004000002000000000000000000000000000000008000000000000001020000000000004000020000050000000000000000000001000000000000",
      "type": "0x2",
      "transactionHash": "0x7329a7912919301fdc6a2c24da53038d8b325713a703799fbb4b2644cff41430",
      "transactionIndex": "0xd0",
      "blockHash": "0xbf2a8523bb2b9473caf012642e2b0c188342aebf70424d10e605567ef6d88d98",
      "blockNumber": "0x987d1a",
      "gasUsed": "0x1aa7b",
      "effectiveGasPrice": "0xf4240",
      "from": "0x63f976191f9dd75bd5b0fd81320d37fbc0d74080",
      "to": "0x709407b6bc572b7608524874228a756ca31a689f",
      "contractAddress": null
    },
    {
      "status": "0x1",
      "cumulativeGasUsed": "0xa28d61",
      "logs": [
        {
          "address": "0x76e9e1affde82bb4544ce95ea58ffc2f9d45061f",
          "topics": [
            "0x40e9cecb9f5f1f1c5b9c97dec2917b7ee92e57ba5563708daca94dd84ad7112f",
            "0x6648efe854126eca977839455e095d4cb46e5035b64bc3aa0f8da2c5ebdce489",
            "0x000000000000000000000000709407b6bc572b7608524874228a756ca31a689f"
          ],
          "data": "0x0000000000000000000000000000000000000000000000000000000000000000ffffffffffffffffffffffffffffffffffffffffffffffffffffa50cef85c00000000000000000000000000000005540a27a26b35b841919e7a3f66f9b93b5f0000000000000000000000000000000000000000000000000000000000000028d000000000000000000000000000000000000000000000000000000000009d1860000000000000000000000000000000000000000000000000000000000000bb8",
          "blockHash": "0xbf2a8523bb2b9473caf012642e2b0c188342aebf70424d10e605567ef6d88d98",
          "blockNumber": "0x987d1a",
          "blockTimestamp": "0x695db2e0",
          "transactionHash": "0x8c734d4fe0dd71689c5d42bac191a12d5ef52a26293f4cae9286a1936ea16892",
          "transactionIndex": "0xd1",
          "logIndex": "0x72",
          "removed": false
        },
        {
          "address": "0x5c13377f19b9aeb3cb00fcc8e58e9a2b43889540",
          "topics": [
            "0xcd9f4ccdc13709817c4447834a44bef5d62ffe25139e5c329d8debc5c177cc79",
            "0x6648efe854126eca977839455e095d4cb46e5035b64bc3aa0f8da2c5ebdce489"
          ],
          "data": "0x000000000000000000000000000000000000000000000000000000000000000000000000000000000000000000000000000000000000000000000045d964b8000000000000000000000000000000000000000000000000000000000000000bb800000000000000000000000000000000000000000000000000019bba6eb0980000000000000000000000000000000000000000000000000012d8f0c125754bb8",
          "blockHash": "0xbf2a8523bb2b9473caf012642e2b0c188342aebf70424d10e605567ef6d88d98",
          "blockNumber": "0x987d1a",
          "blockTimestamp": "0x695db2e0",
          "transactionHash": "0x8c734d4fe0dd71689c5d42bac191a12d5ef52a26293f4cae9286a1936ea16892",
          "transactionIndex": "0xd1",
          "logIndex": "0x73",
          "removed": false
        },
        {
          "address": "0xfff9976782d46cc05630d1f6ebab18b2324d6b14",
          "topics": [
            "0xddf252ad1be2c89b69c2b068fc378daa952ba7f163c4a11628f55a4df523b3ef",
            "0x00000000000000000000000063f976191f9dd75bd5b0fd81320d37fbc0d74080",
            "0x00000000000000000000000076e9e1affde82bb4544ce95ea58ffc2f9d45061f"
          ],
          "data": "0x00000000000000000000000000000000000000000000000000005af3107a4000",
          "blockHash": "0xbf2a8523bb2b9473caf012642e2b0c188342aebf70424d10e605567ef6d88d98",
          "blockNumber": "0x987d1a",
          "blockTimestamp": "0x695db2e0",
          "transactionHash": "0x8c734d4fe0dd71689c5d42bac191a12d5ef52a26293f4cae9286a1936ea16892",
          "transactionIndex": "0xd1",
          "logIndex": "0x74",
          "removed": false
        }
      ],
      "logsBloom": "0x00001000000000000000000000000000002000000000000000000000000000000000000000000000000020000000000000000000040010000000000000001000000000000000000000000008000000000000000000000820000000000000010000000000000000000000004000000000000000000000000000000012000000000040000000000000000000000000010000000000000000000000000000000000000020400000040000000000000000000000000000000000000001000000000000000002000004000002000000000000000000000000000000008000000000000001020000000000004000020000050000000000000000000001000000000000",
      "type": "0x2",
      "transactionHash": "0x8c734d4fe0dd71689c5d42bac191a12d5ef52a26293f4cae9286a1936ea16892",
      "transactionIndex": "0xd1",
      "blockHash": "0xbf2a8523bb2b9473caf012642e2b0c188342aebf70424d10e605567ef6d88d98",
      "blockNumber": "0x987d1a",
      "gasUsed": "0x1aa57",
      "effectiveGasPrice": "0xf4240",
      "from": "0x63f976191f9dd75bd5b0fd81320d37fbc0d74080",
      "to": "0x709407b6bc572b7608524874228a756ca31a689f",
      "contractAddress": null
    },
    {
      "status": "0x1",
      "cumulativeGasUsed": "0xa437dc",
      "logs": [
        {
          "address": "0x76e9e1affde82bb4544ce95ea58ffc2f9d45061f",
          "topics": [
            "0x40e9cecb9f5f1f1c5b9c97dec2917b7ee92e57ba5563708daca94dd84ad7112f",
            "0x6648efe854126eca977839455e095d4cb46e5035b64bc3aa0f8da2c5ebdce489",
            "0x000000000000000000000000709407b6bc572b7608524874228a756ca31a689f"
          ],
          "data": "0x0000000000000000000000000000000000000000000000000000000000000000ffffffffffffffffffffffffffffffffffffffffffffffffffffa50cef85c000000000000000000000000000000055642ee9216b9d60d0930b50d9d139915bc4000000000000000000000000000000000000000000000000000000000000028d000000000000000000000000000000000000000000000000000000000009d1a60000000000000000000000000000000000000000000000000000000000000bb8",
          "blockHash": "0xbf2a8523bb2b9473caf012642e2b0c188342aebf70424d10e605567ef6d88d98",
          "blockNumber": "0x987d1a",
          "blockTimestamp": "0x695db2e0",
          "transactionHash": "0xd3fd6973b919c524e8dcdcc0155351d5fb373e6058f4b78fb56dd13527974eb1",
          "transactionIndex": "0xd2",
          "logIndex": "0x75",
          "removed": false
        },
        {
          "address": "0x5c13377f19b9aeb3cb00fcc8e58e9a2b43889540",
          "topics": [
            "0xcd9f4ccdc13709817c4447834a44bef5d62ffe25139e5c329d8debc5c177cc79",
            "0x6648efe854126eca977839455e095d4cb46e5035b64bc3aa0f8da2c5ebdce489"
          ],
          "data": "0x000000000000000000000000000000000000000000000000000000000000000000000000000000000000000000000000000000000000000000000045d964b8000000000000000000000000000000000000000000000000000000000000000bb800000000000000000000000000000000000000000000000000019c004815500000000000000000000000000000000000000000000000000012dc234cb9c18bb8",
          "blockHash": "0xbf2a8523bb2b9473caf012642e2b0c188342aebf70424d10e605567ef6d88d98",
          "blockNumber": "0x987d1a",
          "blockTimestamp": "0x695db2e0",
          "transactionHash": "0xd3fd6973b919c524e8dcdcc0155351d5fb373e6058f4b78fb56dd13527974eb1",
          "transactionIndex": "0xd2",
          "logIndex": "0x76",
          "removed": false
        },
        {
          "address": "0xfff9976782d46cc05630d1f6ebab18b2324d6b14",
          "topics": [
            "0xddf252ad1be2c89b69c2b068fc378daa952ba7f163c4a11628f55a4df523b3ef",
            "0x00000000000000000000000063f976191f9dd75bd5b0fd81320d37fbc0d74080",
            "0x00000000000000000000000076e9e1affde82bb4544ce95ea58ffc2f9d45061f"
          ],
          "data": "0x00000000000000000000000000000000000000000000000000005af3107a4000",
          "blockHash": "0xbf2a8523bb2b9473caf012642e2b0c188342aebf70424d10e605567ef6d88d98",
          "blockNumber": "0x987d1a",
          "blockTimestamp": "0x695db2e0",
          "transactionHash": "0xd3fd6973b919c524e8dcdcc0155351d5fb373e6058f4b78fb56dd13527974eb1",
          "transactionIndex": "0xd2",
          "logIndex": "0x77",
          "removed": false
        }
      ],
      "logsBloom": "0x00001000000000000000000000000000002000000000000000000000000000000000000000000000000020000000000000000000040010000000000000001000000000000000000000000008000000000000000000000820000000000000010000000000000000000000004000000000000000000000000000000012000000000040000000000000000000000000010000000000000000000000000000000000000020400000040000000000000000000000000000000000000001000000000000000002000004000002000000000000000000000000000000008000000000000001020000000000004000020000050000000000000000000001000000000000",
      "type": "0x2",
      "transactionHash": "0xd3fd6973b919c524e8dcdcc0155351d5fb373e6058f4b78fb56dd13527974eb1",
      "transactionIndex": "0xd2",
      "blockHash": "0xbf2a8523bb2b9473caf012642e2b0c188342aebf70424d10e605567ef6d88d98",
      "blockNumber": "0x987d1a",
      "gasUsed": "0x1aa7b",
      "effectiveGasPrice": "0xf4240",
      "from": "0x63f976191f9dd75bd5b0fd81320d37fbc0d74080",
      "to": "0x709407b6bc572b7608524874228a756ca31a689f",
      "contractAddress": null
    },
    {
      "status": "0x1",
      "cumulativeGasUsed": "0xaf5d50",
      "logs": [
        {
          "address": "0x76e9e1affde82bb4544ce95ea58ffc2f9d45061f",
          "topics": [
            "0x40e9cecb9f5f1f1c5b9c97dec2917b7ee92e57ba5563708daca94dd84ad7112f",
            "0x6648efe854126eca977839455e095d4cb46e5035b64bc3aa0f8da2c5ebdce489",
            "0x000000000000000000000000709407b6bc572b7608524874228a756ca31a689f"
          ],
          "data": "0x0000000000000000000000000000000000000000000000000000000000000000ffffffffffffffffffffffffffffffffffffffffffffffffffffa50cef85c00000000000000000000000000000005587bb581c23df3d880c2efdbd32d78f0198000000000000000000000000000000000000000000000000000000000000028d000000000000000000000000000000000000000000000000000000000009d1c70000000000000000000000000000000000000000000000000000000000000bb8",
          "blockHash": "0xbf2a8523bb2b9473caf012642e2b0c188342aebf70424d10e605567ef6d88d98",
          "blockNumber": "0x987d1a",
          "blockTimestamp": "0x695db2e0",
          "transactionHash": "0x03494414a68f845ede1e357dad0b2634edff23d7f563c4bf5e623a2d343f835a",
          "transactionIndex": "0xe2",
          "logIndex": "0x82",
          "removed": false
        },
        {
          "address": "0x5c13377f19b9aeb3cb00fcc8e58e9a2b43889540",
          "topics": [
            "0xcd9f4ccdc13709817c4447834a44bef5d62ffe25139e5c329d8debc5c177cc79",
            "0x6648efe854126eca977839455e095d4cb46e5035b64bc3aa0f8da2c5ebdce489"
          ],
          "data": "0x000000000000000000000000000000000000000000000000000000000000000000000000000000000000000000000000000000000000000000000045d964b8000000000000000000000000000000000000000000000000000000000000000bb800000000000000000000000000000000000000000000000000019c46217a080000000000000000000000000000000000000000000000000012df55d84e0dcbb8",
          "blockHash": "0xbf2a8523bb2b9473caf012642e2b0c188342aebf70424d10e605567ef6d88d98",
          "blockNumber": "0x987d1a",
          "blockTimestamp": "0x695db2e0",
          "transactionHash": "0x03494414a68f845ede1e357dad0b2634edff23d7f563c4bf5e623a2d343f835a",
          "transactionIndex": "0xe2",
          "logIndex": "0x83",
          "removed": false
        },
        {
          "address": "0xfff9976782d46cc05630d1f6ebab18b2324d6b14",
          "topics": [
            "0xddf252ad1be2c89b69c2b068fc378daa952ba7f163c4a11628f55a4df523b3ef",
            "0x00000000000000000000000063f976191f9dd75bd5b0fd81320d37fbc0d74080",
            "0x00000000000000000000000076e9e1affde82bb4544ce95ea58ffc2f9d45061f"
          ],
          "data": "0x00000000000000000000000000000000000000000000000000005af3107a4000",
          "blockHash": "0xbf2a8523bb2b9473caf012642e2b0c188342aebf70424d10e605567ef6d88d98",
          "blockNumber": "0x987d1a",
          "blockTimestamp": "0x695db2e0",
          "transactionHash": "0x03494414a68f845ede1e357dad0b2634edff23d7f563c4bf5e623a2d343f835a",
          "transactionIndex": "0xe2",
          "logIndex": "0x84",
          "removed": false
        }
      ],
      "logsBloom": "0x00001000000000000000000000000000002000000000000000000000000000000000000000000000000020000000000000000000040010000000000000001000000000000000000000000008000000000000000000000820000000000000010000000000000000000000004000000000000000000000000000000012000000000040000000000000000000000000010000000000000000000000000000000000000020400000040000000000000000000000000000000000000001000000000000000002000004000002000000000000000000000000000000008000000000000001020000000000004000020000050000000000000000000001000000000000",
      "type": "0x2",
      "transactionHash": "0x03494414a68f845ede1e357dad0b2634edff23d7f563c4bf5e623a2d343f835a",
      "transactionIndex": "0xe2",
      "blockHash": "0xbf2a8523bb2b9473caf012642e2b0c188342aebf70424d10e605567ef6d88d98",
      "blockNumber": "0x987d1a",
      "gasUsed": "0x1aa77",
      "effectiveGasPrice": "0xf4240",
      "from": "0x63f976191f9dd75bd5b0fd81320d37fbc0d74080",
      "to": "0x709407b6bc572b7608524874228a756ca31a689f",
      "contractAddress": null
    },
    {
      "status": "0x1",
      "cumulativeGasUsed": "0xb10413",
      "logs": [
        {
          "address": "0x76e9e1affde82bb4544ce95ea58ffc2f9d45061f",
          "topics": [
            "0x40e9cecb9f5f1f1c5b9c97dec2917b7ee92e57ba5563708daca94dd84ad7112f",
            "0x6648efe854126eca977839455e095d4cb46e5035b64bc3aa0f8da2c5ebdce489",
            "0x000000000000000000000000709407b6bc572b7608524874228a756ca31a689f"
          ],
          "data": "0x0000000000000000000000000000000000000000000000000000000000000000ffffffffffffffffffffffffffffffffffffffffffffffffffffa50cef85c000000000000000000000000000000055ab47c716dc211a3f8552aaa094758ca76c000000000000000000000000000000000000000000000000000000000000028d000000000000000000000000000000000000000000000000000000000009d1e70000000000000000000000000000000000000000000000000000000000000bb8",
          "blockHash": "0xbf2a8523bb2b9473caf012642e2b0c188342aebf70424d10e605567ef6d88d98",
          "blockNumber": "0x987d1a",
          "blockTimestamp": "0x695db2e0",
          "transactionHash": "0x64185f8abd619090cd8280d623d5435a3924d5cb015628775f87770b223449be",
          "transactionIndex": "0xe3",
          "logIndex": "0x85",
          "removed": false
        },
        {
          "address": "0x5c13377f19b9aeb3cb00fcc8e58e9a2b43889540",
          "topics": [
            "0xcd9f4ccdc13709817c4447834a44bef5d62ffe25139e5c329d8debc5c177cc79",
            "0x6648efe854126eca977839455e095d4cb46e5035b64bc3aa0f8da2c5ebdce489"
          ],
          "data": "0x000000000000000000000000000000000000000000000000000000000000000000000000000000000000000000000000000000000000000000000045d964b8000000000000000000000000000000000000000000000000000000000000000bb800000000000000000000000000000000000000000000000000019c8bfadec00000000000000000000000000000000000000000000000000012e28863e25a0bb8",
          "blockHash": "0xbf2a8523bb2b9473caf012642e2b0c188342aebf70424d10e605567ef6d88d98",
          "blockNumber": "0x987d1a",
          "blockTimestamp": "0x695db2e0",
          "transactionHash": "0x64185f8abd619090cd8280d623d5435a3924d5cb015628775f87770b223449be",
          "transactionIndex": "0xe3",
          "logIndex": "0x86",
          "removed": false
        },
        {
          "address": "0xfff9976782d46cc05630d1f6ebab18b2324d6b14",
          "topics": [
            "0xddf252ad1be2c89b69c2b068fc378daa952ba7f163c4a11628f55a4df523b3ef",
            "0x00000000000000000000000063f976191f9dd75bd5b0fd81320d37fbc0d74080",
            "0x00000000000000000000000076e9e1affde82bb4544ce95ea58ffc2f9d45061f"
          ],
          "data": "0x00000000000000000000000000000000000000000000000000005af3107a4000",
          "blockHash": "0xbf2a8523bb2b9473caf012642e2b0c188342aebf70424d10e605567ef6d88d98",
          "blockNumber": "0x987d1a",
          "blockTimestamp": "0x695db2e0",
          "transactionHash": "0x64185f8abd619090cd8280d623d5435a3924d5cb015628775f87770b223449be",
          "transactionIndex": "0xe3",
          "logIndex": "0x87",
          "removed": false
        }
      ],
      "logsBloom": "0x00001000000000000000000000000000002000000000000000000000000000000000000000000000000020000000000000000000040010000000000000001000000000000000000000000008000000000000000000000820000000000000010000000000000000000000004000000000000000000000000000000012000000000040000000000000000000000000010000000000000000000000000000000000000020400000040000000000000000000000000000000000000001000000000000000002000004000002000000000000000000000000000000008000000000000001020000000000004000020000050000000000000000000001000000000000",
      "type": "0x2",
      "transactionHash": "0x64185f8abd619090cd8280d623d5435a3924d5cb015628775f87770b223449be",
      "transactionIndex": "0xe3",
      "blockHash": "0xbf2a8523bb2b9473caf012642e2b0c188342aebf70424d10e605567ef6d88d98",
      "blockNumber": "0x987d1a",
      "gasUsed": "0x1a6c3",
      "effectiveGasPrice": "0xf4240",
      "from": "0x63f976191f9dd75bd5b0fd81320d37fbc0d74080",
      "to": "0x709407b6bc572b7608524874228a756ca31a689f",
      "contractAddress": null
    },
    {
      "status": "0x1",
      "cumulativeGasUsed": "0xb2aad6",
      "logs": [
        {
          "address": "0x76e9e1affde82bb4544ce95ea58ffc2f9d45061f",
          "topics": [
            "0x40e9cecb9f5f1f1c5b9c97dec2917b7ee92e57ba5563708daca94dd84ad7112f",
            "0x6648efe854126eca977839455e095d4cb46e5035b64bc3aa0f8da2c5ebdce489",
            "0x000000000000000000000000709407b6bc572b7608524874228a756ca31a689f"
          ],
          "data": "0x0000000000000000000000000000000000000000000000000000000000000000ffffffffffffffffffffffffffffffffffffffffffffffffffffa50cef85c000000000000000000000000000000055ced436119462f6f6fe765783f6138a4d40000000000000000000000000000000000000000000000000000000000000028d000000000000000000000000000000000000000000000000000000000009d2080000000000000000000000000000000000000000000000000000000000000bb8",
          "blockHash": "0xbf2a8523bb2b9473caf012642e2b0c188342aebf70424d10e605567ef6d88d98",
          "blockNumber": "0x987d1a",
          "blockTimestamp": "0x695db2e0",
          "transactionHash": "0x4f2424e5088da61ae693ce416de05ea49903bedd27c077cce28940b9a02226bf",
          "transactionIndex": "0xe4",
          "logIndex": "0x88",
          "removed": false
        },
        {
          "address": "0x5c13377f19b9aeb3cb00fcc8e58e9a2b43889540",
          "topics": [
            "0xcd9f4ccdc13709817c4447834a44bef5d62ffe25139e5c329d8debc5c177cc79",
            "0x6648efe854126eca977839455e095d4cb46e5035b64bc3aa0f8da2c5ebdce489"
          ],
          "data": "0x000000000000000000000000000000000000000000000000000000000000000000000000000000000000000000000000000000000000000000000045d964b8000000000000000000000000000000000000000000000000000000000000000bb800000000000000000000000000000000000000000000000000019cd1d443780000000000000000000000000000000000000000000000000012e5baef76a64bb8",
          "blockHash": "0xbf2a8523bb2b9473caf012642e2b0c188342aebf70424d10e605567ef6d88d98",
          "blockNumber": "0x987d1a",
          "blockTimestamp": "0x695db2e0",
          "transactionHash": "0x4f2424e5088da61ae693ce416de05ea49903bedd27c077cce28940b9a02226bf",
          "transactionIndex": "0xe4",
          "logIndex": "0x89",
          "removed": false
        },
        {
          "address": "0xfff9976782d46cc05630d1f6ebab18b2324d6b14",
          "topics": [
            "0xddf252ad1be2c89b69c2b068fc378daa952ba7f163c4a11628f55a4df523b3ef",
            "0x00000000000000000000000063f976191f9dd75bd5b0fd81320d37fbc0d74080",
            "0x00000000000000000000000076e9e1affde82bb4544ce95ea58ffc2f9d45061f"
          ],
          "data": "0x00000000000000000000000000000000000000000000000000005af3107a4000",
          "blockHash": "0xbf2a8523bb2b9473caf012642e2b0c188342aebf70424d10e605567ef6d88d98",
          "blockNumber": "0x987d1a",
          "blockTimestamp": "0x695db2e0",
          "transactionHash": "0x4f2424e5088da61ae693ce416de05ea49903bedd27c077cce28940b9a02226bf",
          "transactionIndex": "0xe4",
          "logIndex": "0x8a",
          "removed": false
        }
      ],
      "logsBloom": "0x00001000000000000000000000000000002000000000000000000000000000000000000000000000000020000000000000000000040010000000000000001000000000000000000000000008000000000000000000000820000000000000010000000000000000000000004000000000000000000000000000000012000000000040000000000000000000000000010000000000000000000000000000000000000020400000040000000000000000000000000000000000000001000000000000000002000004000002000000000000000000000000000000008000000000000001020000000000004000020000050000000000000000000001000000000000",
      "type": "0x2",
      "transactionHash": "0x4f2424e5088da61ae693ce416de05ea49903bedd27c077cce28940b9a02226bf",
      "transactionIndex": "0xe4",
      "blockHash": "0xbf2a8523bb2b9473caf012642e2b0c188342aebf70424d10e605567ef6d88d98",
      "blockNumber": "0x987d1a",
      "gasUsed": "0x1a6c3",
      "effectiveGasPrice": "0xf4240",
      "from": "0x63f976191f9dd75bd5b0fd81320d37fbc0d74080",
      "to": "0x709407b6bc572b7608524874228a756ca31a689f",
      "contractAddress": null
    },
    {
      "status": "0x1",
      "cumulativeGasUsed": "0x8b7626",
      "logs": [
        {
          "address": "0x76e9e1affde82bb4544ce95ea58ffc2f9d45061f",
          "topics": [
            "0x40e9cecb9f5f1f1c5b9c97dec2917b7ee92e57ba5563708daca94dd84ad7112f",
            "0x6648efe854126eca977839455e095d4cb46e5035b64bc3aa0f8da2c5ebdce489",
            "0x000000000000000000000000709407b6bc572b7608524874228a756ca31a689f"
          ],
          "data": "0x0000000000000000000000000000000000000000000000000000000000000000ffffffffffffffffffffffffffffffffffffffffffffffffffffa50cef85c000000000000000000000000000000055f260a50c4ca4d3ae779a046757b187f314000000000000000000000000000000000000000000000000000000000000028d000000000000000000000000000000000000000000000000000000000009d2280000000000000000000000000000000000000000000000000000000000000bb8",
          "blockHash": "0xf4d3a37c5dd60951a9d392e13196ecf0d9669b4011497e9407ebacaa7ee1092e",
          "blockNumber": "0x987d1c",
          "blockTimestamp": "0x695db2f8",
          "transactionHash": "0x43fbdea22b573129ec28bb75d80de84909f28df4fdaefb30fd7bea966f41df8d",
          "transactionIndex": "0x4b",
          "logIndex": "0x4c",
          "removed": false
        },
        {
          "address": "0x5c13377f19b9aeb3cb00fcc8e58e9a2b43889540",
          "topics": [
            "0xcd9f4ccdc13709817c4447834a44bef5d62ffe25139e5c329d8debc5c177cc79",
            "0x6648efe854126eca977839455e095d4cb46e5035b64bc3aa0f8da2c5ebdce489"
          ],
          "data": "0x000000000000000000000000000000000000000000000000000000000000000000000000000000000000000000000000000000000000000000000045d964b8000000000000000000000000000000000000000000000000000000000000000bb800000000000000000000000000000000000000000000000000019d17ada8300000000000000000000000000000000000000000000000000012e8ed7b0af28bb8",
          "blockHash": "0xf4d3a37c5dd60951a9d392e13196ecf0d9669b4011497e9407ebacaa7ee1092e",
          "blockNumber": "0x987d1c",
          "blockTimestamp": "0x695db2f8",
          "transactionHash": "0x43fbdea22b573129ec28bb75d80de84909f28df4fdaefb30fd7bea966f41df8d",
          "transactionIndex": "0x4b",
          "logIndex": "0x4d",
          "removed": false
        },
        {
          "address": "0xfff9976782d46cc05630d1f6ebab18b2324d6b14",
          "topics": [
            "0xddf252ad1be2c89b69c2b068fc378daa952ba7f163c4a11628f55a4df523b3ef",
            "0x00000000000000000000000063f976191f9dd75bd5b0fd81320d37fbc0d74080",
            "0x00000000000000000000000076e9e1affde82bb4544ce95ea58ffc2f9d45061f"
          ],
          "data": "0x00000000000000000000000000000000000000000000000000005af3107a4000",
          "blockHash": "0xf4d3a37c5dd60951a9d392e13196ecf0d9669b4011497e9407ebacaa7ee1092e",
          "blockNumber": "0x987d1c",
          "blockTimestamp": "0x695db2f8",
          "transactionHash": "0x43fbdea22b573129ec28bb75d80de84909f28df4fdaefb30fd7bea966f41df8d",
          "transactionIndex": "0x4b",
          "logIndex": "0x4e",
          "removed": false
        }
      ],
      "logsBloom": "0x00001000000000000000000000000000002000000000000000000000000000000000000000000000000020000000000000000000040010000000000000001000000000000000000000000008000000000000000000000820000000000000010000000000000000000000004000000000000000000000000000000012000000000040000000000000000000000000010000000000000000000000000000000000000020400000040000000000000000000000000000000000000001000000000000000002000004000002000000000000000000000000000000008000000000000001020000000000004000020000050000000000000000000001000000000000",
      "type": "0x2",
      "transactionHash": "0x43fbdea22b573129ec28bb75d80de84909f28df4fdaefb30fd7bea966f41df8d",
      "transactionIndex": "0x4b",
      "blockHash": "0xf4d3a37c5dd60951a9d392e13196ecf0d9669b4011497e9407ebacaa7ee1092e",
      "blockNumber": "0x987d1c",
      "gasUsed": "0x1aa3b",
      "effectiveGasPrice": "0xf4240",
      "from": "0x63f976191f9dd75bd5b0fd81320d37fbc0d74080",
      "to": "0x709407b6bc572b7608524874228a756ca31a689f",
      "contractAddress": null
    },
    {
      "status": "0x1",
      "cumulativeGasUsed": "0x8d2061",
      "logs": [
        {
          "address": "0x76e9e1affde82bb4544ce95ea58ffc2f9d45061f",
          "topics": [
            "0x40e9cecb9f5f1f1c5b9c97dec2917b7ee92e57ba5563708daca94dd84ad7112f",
            "0x6648efe854126eca977839455e095d4cb46e5035b64bc3aa0f8da2c5ebdce489",
            "0x000000000000000000000000709407b6bc572b7608524874228a756ca31a689f"
          ],
          "data": "0x0000000000000000000000000000000000000000000000000000000000000000ffffffffffffffffffffffffffffffffffffffffffffffffffffa50cef85c00000000000000000000000000000005615ed140704e6b065f0bdb14ab94f8598e8000000000000000000000000000000000000000000000000000000000000028d000000000000000000000000000000000000000000000000000000000009d2480000000000000000000000000000000000000000000000000000000000000bb8",
          "blockHash": "0xf4d3a37c5dd60951a9d392e13196ecf0d9669b4011497e9407ebacaa7ee1092e",
          "blockNumber": "0x987d1c",
          "blockTimestamp": "0x695db2f8",
          "transactionHash": "0x993cf6e2d610b3db81c8827d217593ec97ebc5c27237194a22fef674118af709",
          "transactionIndex": "0x4c",
          "logIndex": "0x4f",
          "removed": false
        },
        {
          "address": "0x5c13377f19b9aeb3cb00fcc8e58e9a2b43889540",
          "topics": [
            "0xcd9f4ccdc13709817c4447834a44bef5d62ffe25139e5c329d8debc5c177cc79",
            "0x6648efe854126eca977839455e095d4cb46e5035b64bc3aa0f8da2c5ebdce489"
          ],
          "data": "0x000000000000000000000000000000000000000000000000000000000000000000000000000000000000000000000000000000000000000000000045d964b8000000000000000000000000000000000000000000000000000000000000000bb800000000000000000000000000000000000000000000000000019d5d870ce80000000000000000000000000000000000000000000000000012ec20069f3ecbb8",
          "blockHash": "0xf4d3a37c5dd60951a9d392e13196ecf0d9669b4011497e9407ebacaa7ee1092e",
          "blockNumber": "0x987d1c",
          "blockTimestamp": "0x695db2f8",
          "transactionHash": "0x993cf6e2d610b3db81c8827d217593ec97ebc5c27237194a22fef674118af709",
          "transactionIndex": "0x4c",
          "logIndex": "0x50",
          "removed": false
        },
        {
          "address": "0xfff9976782d46cc05630d1f6ebab18b2324d6b14",
          "topics": [
            "0xddf252ad1be2c89b69c2b068fc378daa952ba7f163c4a11628f55a4df523b3ef",
            "0x00000000000000000000000063f976191f9dd75bd5b0fd81320d37fbc0d74080",
            "0x00000000000000000000000076e9e1affde82bb4544ce95ea58ffc2f9d45061f"
          ],
          "data": "0x00000000000000000000000000000000000000000000000000005af3107a4000",
          "blockHash": "0xf4d3a37c5dd60951a9d392e13196ecf0d9669b4011497e9407ebacaa7ee1092e",
          "blockNumber": "0x987d1c",
          "blockTimestamp": "0x695db2f8",
          "transactionHash": "0x993cf6e2d610b3db81c8827d217593ec97ebc5c27237194a22fef674118af709",
          "transactionIndex": "0x4c",
          "logIndex": "0x51",
          "removed": false
        }
      ],
      "logsBloom": "0x00001000000000000000000000000000002000000000000000000000000000000000000000000000000020000000000000000000040010000000000000001000000000000000000000000008000000000000000000000820000000000000010000000000000000000000004000000000000000000000000000000012000000000040000000000000000000000000010000000000000000000000000000000000000020400000040000000000000000000000000000000000000001000000000000000002000004000002000000000000000000000000000000008000000000000001020000000000004000020000050000000000000000000001000000000000",
      "type": "0x2",
      "transactionHash": "0x993cf6e2d610b3db81c8827d217593ec97ebc5c27237194a22fef674118af709",
      "transactionIndex": "0x4c",
      "blockHash": "0xf4d3a37c5dd60951a9d392e13196ecf0d9669b4011497e9407ebacaa7ee1092e",
      "blockNumber": "0x987d1c",
      "gasUsed": "0x1aa3b",
      "effectiveGasPrice": "0xf4240",
      "from": "0x63f976191f9dd75bd5b0fd81320d37fbc0d74080",
      "to": "0x709407b6bc572b7608524874228a756ca31a689f",
      "contractAddress": null
    },
    {
      "status": "0x1",
      "cumulativeGasUsed": "0x8ecab8",
      "logs": [
        {
          "address": "0x76e9e1affde82bb4544ce95ea58ffc2f9d45061f",
          "topics": [
            "0x40e9cecb9f5f1f1c5b9c97dec2917b7ee92e57ba5563708daca94dd84ad7112f",
            "0x6648efe854126eca977839455e095d4cb46e5035b64bc3aa0f8da2c5ebdce489",
            "0x000000000000000000000000709407b6bc572b7608524874228a756ca31a689f"
          ],
          "data": "0x0000000000000000000000000000000000000000000000000000000000000000ffffffffffffffffffffffffffffffffffffffffffffffffffffa50cef85c00000000000000000000000000000005639798301bd288d1d69e15e2e1aed833ebc000000000000000000000000000000000000000000000000000000000000028d000000000000000000000000000000000000000000000000000000000009d2690000000000000000000000000000000000000000000000000000000000000bb8",
          "blockHash": "0xf4d3a37c5dd60951a9d392e13196ecf0d9669b4011497e9407ebacaa7ee1092e",
          "blockNumber": "0x987d1c",
          "blockTimestamp": "0x695db2f8",
          "transactionHash": "0x130cda3ae278f653af734ba1b7af8b8b1f74536d240974c8ef42a591304dc09e",
          "transactionIndex": "0x4d",
          "logIndex": "0x52",
          "removed": false
        },
        {
          "address": "0x5c13377f19b9aeb3cb00fcc8e58e9a2b43889540",
          "topics": [
            "0xcd9f4ccdc13709817c4447834a44bef5d62ffe25139e5c329d8debc5c177cc79",
            "0x6648efe854126eca977839455e095d4cb46e5035b64bc3aa0f8da2c5ebdce489"
          ],
          "data": "0x000000000000000000000000000000000000000000000000000000000000000000000000000000000000000000000000000000000000000000000045d964b8000000000000000000000000000000000000000000000000000000000000000bb800000000000000000000000000000000000000000000000000019da36071a00000000000000000000000000000000000000000000000000012ef5292338b0bb8",
          "blockHash": "0xf4d3a37c5dd60951a9d392e13196ecf0d9669b4011497e9407ebacaa7ee1092e",
          "blockNumber": "0x987d1c",
          "blockTimestamp": "0x695db2f8",
          "transactionHash": "0x130cda3ae278f653af734ba1b7af8b8b1f74536d240974c8ef42a591304dc09e",
          "transactionIndex": "0x4d",
          "logIndex": "0x53",
          "removed": false
        },
        {
          "address": "0xfff9976782d46cc05630d1f6ebab18b2324d6b14",
          "topics": [
            "0xddf252ad1be2c89b69c2b068fc378daa952ba7f163c4a11628f55a4df523b3ef",
            "0x00000000000000000000000063f976191f9dd75bd5b0fd81320d37fbc0d74080",
            "0x00000000000000000000000076e9e1affde82bb4544ce95ea58ffc2f9d45061f"
          ],
          "data": "0x00000000000000000000000000000000000000000000000000005af3107a4000",
          "blockHash": "0xf4d3a37c5dd60951a9d392e13196ecf0d9669b4011497e9407ebacaa7ee1092e",
          "blockNumber": "0x987d1c",
          "blockTimestamp": "0x695db2f8",
          "transactionHash": "0x130cda3ae278f653af734ba1b7af8b8b1f74536d240974c8ef42a591304dc09e",
          "transactionIndex": "0x4d",
          "logIndex": "0x54",
          "removed": false
        }
      ],
      "logsBloom": "0x00001000000000000000000000000000002000000000000000000000000000000000000000000000000020000000000000000000040010000000000000001000000000000000000000000008000000000000000000000820000000000000010000000000000000000000004000000000000000000000000000000012000000000040000000000000000000000000010000000000000000000000000000000000000020400000040000000000000000000000000000000000000001000000000000000002000004000002000000000000000000000000000000008000000000000001020000000000004000020000050000000000000000000001000000000000",
      "type": "0x2",
      "transactionHash": "0x130cda3ae278f653af734ba1b7af8b8b1f74536d240974c8ef42a591304dc09e",
      "transactionIndex": "0x4d",
      "blockHash": "0xf4d3a37c5dd60951a9d392e13196ecf0d9669b4011497e9407ebacaa7ee1092e",
      "blockNumber": "0x987d1c",
      "gasUsed": "0x1aa57",
      "effectiveGasPrice": "0xf4240",
      "from": "0x63f976191f9dd75bd5b0fd81320d37fbc0d74080",
      "to": "0x709407b6bc572b7608524874228a756ca31a689f",
      "contractAddress": null
    },
    {
      "status": "0x1",
      "cumulativeGasUsed": "0x925cbd",
      "logs": [
        {
          "address": "0x76e9e1affde82bb4544ce95ea58ffc2f9d45061f",
          "topics": [
            "0x40e9cecb9f5f1f1c5b9c97dec2917b7ee92e57ba5563708daca94dd84ad7112f",
            "0x6648efe854126eca977839455e095d4cb46e5035b64bc3aa0f8da2c5ebdce489",
            "0x000000000000000000000000709407b6bc572b7608524874228a756ca31a689f"
          ],
          "data": "0x0000000000000000000000000000000000000000000000000000000000000000ffffffffffffffffffffffffffffffffffffffffffffffffffffa50cef85c0000000000000000000000000000000565d05f1fc756a69d4e3050b117c8b80e490000000000000000000000000000000000000000000000000000000000000028d000000000000000000000000000000000000000000000000000000000009d2890000000000000000000000000000000000000000000000000000000000000bb8",
          "blockHash": "0xf4d3a37c5dd60951a9d392e13196ecf0d9669b4011497e9407ebacaa7ee1092e",
          "blockNumber": "0x987d1c",
          "blockTimestamp": "0x695db2f8",
          "transactionHash": "0xc19dc57940b9bbf6ebeb89d76d53103fe716fd2580cc59c3c23948b948e100ea",
          "transactionIndex": "0x50",
          "logIndex": "0x57",
          "removed": false
        },
        {
          "address": "0x5c13377f19b9aeb3cb00fcc8e58e9a2b43889540",
          "topics": [
            "0xcd9f4ccdc13709817c4447834a44bef5d62ffe25139e5c329d8debc5c177cc79",
            "0x6648efe854126eca977839455e095d4cb46e5035b64bc3aa0f8da2c5ebdce489"
          ],
          "data": "0x000000000000000000000000000000000000000000000000000000000000000000000000000000000000000000000000000000000000000000000045d964b8000000000000000000000000000000000000000000000000000000000000000bb800000000000000000000000000000000000000000000000000019de939d6580000000000000000000000000000000000000000000000000012f2851dc7d74bb8",
          "blockHash": "0xf4d3a37c5dd60951a9d392e13196ecf0d9669b4011497e9407ebacaa7ee1092e",
          "blockNumber": "0x987d1c",
          "blockTimestamp": "0x695db2f8",
          "transactionHash": "0xc19dc57940b9bbf6ebeb89d76d53103fe716fd2580cc59c3c23948b948e100ea",
          "transactionIndex": "0x50",
          "logIndex": "0x58",
          "removed": false
        },
        {
          "address": "0xfff9976782d46cc05630d1f6ebab18b2324d6b14",
          "topics": [
            "0xddf252ad1be2c89b69c2b068fc378daa952ba7f163c4a11628f55a4df523b3ef",
            "0x00000000000000000000000063f976191f9dd75bd5b0fd81320d37fbc0d74080",
            "0x00000000000000000000000076e9e1affde82bb4544ce95ea58ffc2f9d45061f"
          ],
          "data": "0x00000000000000000000000000000000000000000000000000005af3107a4000",
          "blockHash": "0xf4d3a37c5dd60951a9d392e13196ecf0d9669b4011497e9407ebacaa7ee1092e",
          "blockNumber": "0x987d1c",
          "blockTimestamp": "0x695db2f8",
          "transactionHash": "0xc19dc57940b9bbf6ebeb89d76d53103fe716fd2580cc59c3c23948b948e100ea",
          "transactionIndex": "0x50",
          "logIndex": "0x59",
          "removed": false
        }
      ],
      "logsBloom": "0x00001000000000000000000000000000002000000000000000000000000000000000000000000000000020000000000000000000040010000000000000001000000000000000000000000008000000000000000000000820000000000000010000000000000000000000004000000000000000000000000000000012000000000040000000000000000000000000010000000000000000000000000000000000000020400000040000000000000000000000000000000000000001000000000000000002000004000002000000000000000000000000000000008000000000000001020000000000004000020000050000000000000000000001000000000000",
      "type": "0x2",
      "transactionHash": "0xc19dc57940b9bbf6ebeb89d76d53103fe716fd2580cc59c3c23948b948e100ea",
      "transactionIndex": "0x50",
      "blockHash": "0xf4d3a37c5dd60951a9d392e13196ecf0d9669b4011497e9407ebacaa7ee1092e",
      "blockNumber": "0x987d1c",
      "gasUsed": "0x1aa37",
      "effectiveGasPrice": "0xf4240",
      "from": "0x63f976191f9dd75bd5b0fd81320d37fbc0d74080",
      "to": "0x709407b6bc572b7608524874228a756ca31a689f",
      "contractAddress": null
    },
    {
      "status": "0x1",
      "cumulativeGasUsed": "0x940714",
      "logs": [
        {
          "address": "0x76e9e1affde82bb4544ce95ea58ffc2f9d45061f",
          "topics": [
            "0x40e9cecb9f5f1f1c5b9c97dec2917b7ee92e57ba5563708daca94dd84ad7112f",
            "0x6648efe854126eca977839455e095d4cb46e5035b64bc3aa0f8da2c5ebdce489",
            "0x000000000000000000000000709407b6bc572b7608524874228a756ca31a689f"
          ],
          "data": "0x0000000000000000000000000000000000000000000000000000000000000000ffffffffffffffffffffffffffffffffffffffffffffffffffffa50cef85c000000000000000000000000000000056809260f72dac468c5c28b7f4de297e8a64000000000000000000000000000000000000000000000000000000000000028d000000000000000000000000000000000000000000000000000000000009d2a90000000000000000000000000000000000000000000000000000000000000bb8",
          "blockHash": "0xf4d3a37c5dd60951a9d392e13196ecf0d9669b4011497e9407ebacaa7ee1092e",
          "blockNumber": "0x987d1c",
          "blockTimestamp": "0x695db2f8",
          "transactionHash": "0xd4323c34769a54ce72249bc3cde72031fdea8e4f2bcebe4e4d6fd2d9e1a0347d",
          "transactionIndex": "0x51",
          "logIndex": "0x5a",
          "removed": false
        },
        {
          "address": "0x5c13377f19b9aeb3cb00fcc8e58e9a2b43889540",
          "topics": [
            "0xcd9f4ccdc13709817c4447834a44bef5d62ffe25139e5c329d8debc5c177cc79",
            "0x6648efe854126eca977839455e095d4cb46e5035b64bc3aa0f8da2c5ebdce489"
          ],
          "data": "0x000000000000000000000000000000000000000000000000000000000000000000000000000000000000000000000000000000000000000000000045d964b8000000000000000000000000000000000000000000000000000000000000000bb800000000000000000000000000000000000000000000000000019e2f133b100000000000000000000000000000000000000000000000000012f5b7a95c238bb8",
          "blockHash": "0xf4d3a37c5dd60951a9d392e13196ecf0d9669b4011497e9407ebacaa7ee1092e",
          "blockNumber": "0x987d1c",
          "blockTimestamp": "0x695db2f8",
          "transactionHash": "0xd4323c34769a54ce72249bc3cde72031fdea8e4f2bcebe4e4d6fd2d9e1a0347d",
          "transactionIndex": "0x51",
          "logIndex": "0x5b",
          "removed": false
        },
        {
          "address": "0xfff9976782d46cc05630d1f6ebab18b2324d6b14",
          "topics": [
            "0xddf252ad1be2c89b69c2b068fc378daa952ba7f163c4a11628f55a4df523b3ef",
            "0x00000000000000000000000063f976191f9dd75bd5b0fd81320d37fbc0d74080",
            "0x00000000000000000000000076e9e1affde82bb4544ce95ea58ffc2f9d45061f"
          ],
          "data": "0x00000000000000000000000000000000000000000000000000005af3107a4000",
          "blockHash": "0xf4d3a37c5dd60951a9d392e13196ecf0d9669b4011497e9407ebacaa7ee1092e",
          "blockNumber": "0x987d1c",
          "blockTimestamp": "0x695db2f8",
          "transactionHash": "0xd4323c34769a54ce72249bc3cde72031fdea8e4f2bcebe4e4d6fd2d9e1a0347d",
          "transactionIndex": "0x51",
          "logIndex": "0x5c",
          "removed": false
        }
      ],
      "logsBloom": "0x00001000000000000000000000000000002000000000000000000000000000000000000000000000000020000000000000000000040010000000000000001000000000000000000000000008000000000000000000000820000000000000010000000000000000000000004000000000000000000000000000000012000000000040000000000000000000000000010000000000000000000000000000000000000020400000040000000000000000000000000000000000000001000000000000000002000004000002000000000000000000000000000000008000000000000001020000000000004000020000050000000000000000000001000000000000",
      "type": "0x2",
      "transactionHash": "0xd4323c34769a54ce72249bc3cde72031fdea8e4f2bcebe4e4d6fd2d9e1a0347d",
      "transactionIndex": "0x51",
      "blockHash": "0xf4d3a37c5dd60951a9d392e13196ecf0d9669b4011497e9407ebacaa7ee1092e",
      "blockNumber": "0x987d1c",
      "gasUsed": "0x1aa57",
      "effectiveGasPrice": "0xf4240",
      "from": "0x63f976191f9dd75bd5b0fd81320d37fbc0d74080",
      "to": "0x709407b6bc572b7608524874228a756ca31a689f",
      "contractAddress": null
    },
    {
      "status": "0x1",
      "cumulativeGasUsed": "0x95add7",
      "logs": [
        {
          "address": "0x76e9e1affde82bb4544ce95ea58ffc2f9d45061f",
          "topics": [
            "0x40e9cecb9f5f1f1c5b9c97dec2917b7ee92e57ba5563708daca94dd84ad7112f",
            "0x6648efe854126eca977839455e095d4cb46e5035b64bc3aa0f8da2c5ebdce489",
            "0x000000000000000000000000709407b6bc572b7608524874228a756ca31a689f"
          ],
          "data": "0x0000000000000000000000000000000000000000000000000000000000000000ffffffffffffffffffffffffffffffffffffffffffffffffffffa50cef85c000000000000000000000000000000056a41ecff1e5ee2343d54c64d83fc77c3038000000000000000000000000000000000000000000000000000000000000028d000000000000000000000000000000000000000000000000000000000009d2c90000000000000000000000000000000000000000000000000000000000000bb8",
          "blockHash": "0xf4d3a37c5dd60951a9d392e13196ecf0d9669b4011497e9407ebacaa7ee1092e",
          "blockNumber": "0x987d1c",
          "blockTimestamp": "0x695db2f8",
          "transactionHash": "0x81d85279b6112919365013d8312b909d76741e63f79def90e63ec61626ae7f71",
          "transactionIndex": "0x52",
          "logIndex": "0x5d",
          "removed": false
        },
        {
          "address": "0x5c13377f19b9aeb3cb00fcc8e58e9a2b43889540",
          "topics": [
            "0xcd9f4ccdc13709817c4447834a44bef5d62ffe25139e5c329d8debc5c177cc79",
            "0x6648efe854126eca977839455e095d4cb46e5035b64bc3aa0f8da2c5ebdce489"
          ],
          "data": "0x000000000000000000000000000000000000000000000000000000000000000000000000000000000000000000000000000000000000000000000045d964b8000000000000000000000000000000000000000000000000000000000000000bb800000000000000000000000000000000000000000000000000019e74ec9fc80000000000000000000000000000000000000000000000000012f8ea34f06fcbb8",
          "blockHash": "0xf4d3a37c5dd60951a9d392e13196ecf0d9669b4011497e9407ebacaa7ee1092e",
          "blockNumber": "0x987d1c",
          "blockTimestamp": "0x695db2f8",
          "transactionHash": "0x81d85279b6112919365013d8312b909d76741e63f79def90e63ec61626ae7f71",
          "transactionIndex": "0x52",
          "logIndex": "0x5e",
          "removed": false
        },
        {
          "address": "0xfff9976782d46cc05630d1f6ebab18b2324d6b14",
          "topics": [
            "0xddf252ad1be2c89b69c2b068fc378daa952ba7f163c4a11628f55a4df523b3ef",
            "0x00000000000000000000000063f976191f9dd75bd5b0fd81320d37fbc0d74080",
            "0x00000000000000000000000076e9e1affde82bb4544ce95ea58ffc2f9d45061f"
          ],
          "data": "0x00000000000000000000000000000000000000000000000000005af3107a4000",
          "blockHash": "0xf4d3a37c5dd60951a9d392e13196ecf0d9669b4011497e9407ebacaa7ee1092e",
          "blockNumber": "0x987d1c",
          "blockTimestamp": "0x695db2f8",
          "transactionHash": "0x81d85279b6112919365013d8312b909d76741e63f79def90e63ec61626ae7f71",
          "transactionIndex": "0x52",
          "logIndex": "0x5f",
          "removed": false
        }
      ],
      "logsBloom": "0x00001000000000000000000000000000002000000000000000000000000000000000000000000000000020000000000000000000040010000000000000001000000000000000000000000008000000000000000000000820000000000000010000000000000000000000004000000000000000000000000000000012000000000040000000000000000000000000010000000000000000000000000000000000000020400000040000000000000000000000000000000000000001000000000000000002000004000002000000000000000000000000000000008000000000000001020000000000004000020000050000000000000000000001000000000000",
      "type": "0x2",
      "transactionHash": "0x81d85279b6112919365013d8312b909d76741e63f79def90e63ec61626ae7f71",
      "transactionIndex": "0x52",
      "blockHash": "0xf4d3a37c5dd60951a9d392e13196ecf0d9669b4011497e9407ebacaa7ee1092e",
      "blockNumber": "0x987d1c",
      "gasUsed": "0x1a6c3",
      "effectiveGasPrice": "0xf4240",
      "from": "0x63f976191f9dd75bd5b0fd81320d37fbc0d74080",
      "to": "0x709407b6bc572b7608524874228a756ca31a689f",
      "contractAddress": null
    },
    {
      "status": "0x1",
      "cumulativeGasUsed": "0x975872",
      "logs": [
        {
          "address": "0x76e9e1affde82bb4544ce95ea58ffc2f9d45061f",
          "topics": [
            "0x40e9cecb9f5f1f1c5b9c97dec2917b7ee92e57ba5563708daca94dd84ad7112f",
            "0x6648efe854126eca977839455e095d4cb46e5035b64bc3aa0f8da2c5ebdce489",
            "0x000000000000000000000000709407b6bc572b7608524874228a756ca31a689f"
          ],
          "data": "0x0000000000000000000000000000000000000000000000000000000000000000ffffffffffffffffffffffffffffffffffffffffffffffffffffa50cef85c000000000000000000000000000000056c7ab3eec9e2ffffb4e7011bba16579d60c000000000000000000000000000000000000000000000000000000000000028d000000000000000000000000000000000000000000000000000000000009d2e90000000000000000000000000000000000000000000000000000000000000bb8",
          "blockHash": "0xf4d3a37c5dd60951a9d392e13196ecf0d9669b4011497e9407ebacaa7ee1092e",
          "blockNumber": "0x987d1c",
          "blockTimestamp": "0x695db2f8",
          "transactionHash": "0xf8365a6c2b54e90d0a89f4abe5638db0d819d6ab7d57841ecf2de262dcd2e635",
          "transactionIndex": "0x53",
          "logIndex": "0x60",
          "removed": false
        },
        {
          "address": "0x5c13377f19b9aeb3cb00fcc8e58e9a2b43889540",
          "topics": [
            "0xcd9f4ccdc13709817c4447834a44bef5d62ffe25139e5c329d8debc5c177cc79",
            "0x6648efe854126eca977839455e095d4cb46e5035b64bc3aa0f8da2c5ebdce489"
          ],
          "data": "0x000000000000000000000000000000000000000000000000000000000000000000000000000000000000000000000000000000000000000000000045d964b8000000000000000000000000000000000000000000000000000000000000000bb800000000000000000000000000000000000000000000000000019ebac604800000000000000000000000000000000000000000000000000012fc1cc084bc0bb8",
          "blockHash": "0xf4d3a37c5dd60951a9d392e13196ecf0d9669b4011497e9407ebacaa7ee1092e",
          "blockNumber": "0x987d1c",
          "blockTimestamp": "0x695db2f8",
          "transactionHash": "0xf8365a6c2b54e90d0a89f4abe5638db0d819d6ab7d57841ecf2de262dcd2e635",
          "transactionIndex": "0x53",
          "logIndex": "0x61",
          "removed": false
        },
        {
          "address": "0xfff9976782d46cc05630d1f6ebab18b2324d6b14",
          "topics": [
            "0xddf252ad1be2c89b69c2b068fc378daa952ba7f163c4a11628f55a4df523b3ef",
            "0x00000000000000000000000063f976191f9dd75bd5b0fd81320d37fbc0d74080",
            "0x00000000000000000000000076e9e1affde82bb4544ce95ea58ffc2f9d45061f"
          ],
          "data": "0x00000000000000000000000000000000000000000000000000005af3107a4000",
          "blockHash": "0xf4d3a37c5dd60951a9d392e13196ecf0d9669b4011497e9407ebacaa7ee1092e",
          "blockNumber": "0x987d1c",
          "blockTimestamp": "0x695db2f8",
          "transactionHash": "0xf8365a6c2b54e90d0a89f4abe5638db0d819d6ab7d57841ecf2de262dcd2e635",
          "transactionIndex": "0x53",
          "logIndex": "0x62",
          "removed": false
        }
      ],
      "logsBloom": "0x00001000000000000000000000000000002000000000000000000000000000000000000000000000000020000000000000000000040010000000000000001000000000000000000000000008000000000000000000000820000000000000010000000000000000000000004000000000000000000000000000000012000000000040000000000000000000000000010000000000000000000000000000000000000020400000040000000000000000000000000000000000000001000000000000000002000004000002000000000000000000000000000000008000000000000001020000000000004000020000050000000000000000000001000000000000",
      "type": "0x2",
      "transactionHash": "0xf8365a6c2b54e90d0a89f4abe5638db0d819d6ab7d57841ecf2de262dcd2e635",
      "transactionIndex": "0x53",
      "blockHash": "0xf4d3a37c5dd60951a9d392e13196ecf0d9669b4011497e9407ebacaa7ee1092e",
      "blockNumber": "0x987d1c",
      "gasUsed": "0x1aa9b",
      "effectiveGasPrice": "0xf4240",
      "from": "0x63f976191f9dd75bd5b0fd81320d37fbc0d74080",
      "to": "0x709407b6bc572b7608524874228a756ca31a689f",
      "contractAddress": null
    },
    {
      "status": "0x1",
      "cumulativeGasUsed": "0x9902cd",
      "logs": [
        {
          "address": "0x76e9e1affde82bb4544ce95ea58ffc2f9d45061f",
          "topics": [
            "0x40e9cecb9f5f1f1c5b9c97dec2917b7ee92e57ba5563708daca94dd84ad7112f",
            "0x6648efe854126eca977839455e095d4cb46e5035b64bc3aa0f8da2c5ebdce489",
            "0x000000000000000000000000709407b6bc572b7608524874228a756ca31a689f"
          ],
          "data": "0x0000000000000000000000000000000000000000000000000000000000000000ffffffffffffffffffffffffffffffffffffffffffffffffffffa50cef85c000000000000000000000000000000056eb37ade75671dcb2c793be9f0303777be0000000000000000000000000000000000000000000000000000000000000028d000000000000000000000000000000000000000000000000000000000009d3090000000000000000000000000000000000000000000000000000000000000bb8",
          "blockHash": "0xf4d3a37c5dd60951a9d392e13196ecf0d9669b4011497e9407ebacaa7ee1092e",
          "blockNumber": "0x987d1c",
          "blockTimestamp": "0x695db2f8",
          "transactionHash": "0xfdf8b2f65839a83354e6dfbb7bc00eb8a6367c650639390167889b7eaf3188e1",
          "transactionIndex": "0x54",
          "logIndex": "0x63",
          "removed": false
        },
        {
          "address": "0x5c13377f19b9aeb3cb00fcc8e58e9a2b43889540",
          "topics": [
            "0xcd9f4ccdc13709817c4447834a44bef5d62ffe25139e5c329d8debc5c177cc79",
            "0x6648efe854126eca977839455e095d4cb46e5035b64bc3aa0f8da2c5ebdce489"
          ],
          "data": "0x000000000000000000000000000000000000000000000000000000000000000000000000000000000000000000000000000000000000000000000045d964b8000000000000000000000000000000000000000000000000000000000000000bb800000000000000000000000000000000000000000000000000019f009f69380000000000000000000000000000000000000000000000000012ff4f4c19084bb8",
          "blockHash": "0xf4d3a37c5dd60951a9d392e13196ecf0d9669b4011497e9407ebacaa7ee1092e",
          "blockNumber": "0x987d1c",
          "blockTimestamp": "0x695db2f8",
          "transactionHash": "0xfdf8b2f65839a83354e6dfbb7bc00eb8a6367c650639390167889b7eaf3188e1",
          "transactionIndex": "0x54",
          "logIndex": "0x64",
          "removed": false
        },
        {
          "address": "0xfff9976782d46cc05630d1f6ebab18b2324d6b14",
          "topics": [
            "0xddf252ad1be2c89b69c2b068fc378daa952ba7f163c4a11628f55a4df523b3ef",
            "0x00000000000000000000000063f976191f9dd75bd5b0fd81320d37fbc0d74080",
            "0x00000000000000000000000076e9e1affde82bb4544ce95ea58ffc2f9d45061f"
          ],
          "data": "0x00000000000000000000000000000000000000000000000000005af3107a4000",
          "blockHash": "0xf4d3a37c5dd60951a9d392e13196ecf0d9669b4011497e9407ebacaa7ee1092e",
          "blockNumber": "0x987d1c",
          "blockTimestamp": "0x695db2f8",
          "transactionHash": "0xfdf8b2f65839a83354e6dfbb7bc00eb8a6367c650639390167889b7eaf3188e1",
          "transactionIndex": "0x54",
          "logIndex": "0x65",
          "removed": false
        }
      ],
      "logsBloom": "0x00001000000000000000000000000000002000000000000000000000000000000000000000000000000020000000000000000000040010000000000000001000000000000000000000000008000000000000000000000820000000000000010000000000000000000000004000000000000000000000000000000012000000000040000000000000000000000000010000000000000000000000000000000000000020400000040000000000000000000000000000000000000001000000000000000002000004000002000000000000000000000000000000008000000000000001020000000000004000020000050000000000000000000001000000000000",
      "type": "0x2",
      "transactionHash": "0xfdf8b2f65839a83354e6dfbb7bc00eb8a6367c650639390167889b7eaf3188e1",
      "transactionIndex": "0x54",
      "blockHash": "0xf4d3a37c5dd60951a9d392e13196ecf0d9669b4011497e9407ebacaa7ee1092e",
      "blockNumber": "0x987d1c",
      "gasUsed": "0x1aa5b",
      "effectiveGasPrice": "0xf4240",
      "from": "0x63f976191f9dd75bd5b0fd81320d37fbc0d74080",
      "to": "0x709407b6bc572b7608524874228a756ca31a689f",
      "contractAddress": null
    },
    {
      "status": "0x1",
      "cumulativeGasUsed": "0x9aad24",
      "logs": [
        {
          "address": "0x76e9e1affde82bb4544ce95ea58ffc2f9d45061f",
          "topics": [
            "0x40e9cecb9f5f1f1c5b9c97dec2917b7ee92e57ba5563708daca94dd84ad7112f",
            "0x6648efe854126eca977839455e095d4cb46e5035b64bc3aa0f8da2c5ebdce489",
            "0x000000000000000000000000709407b6bc572b7608524874228a756ca31a689f"
          ],
          "data": "0x0000000000000000000000000000000000000000000000000000000000000000ffffffffffffffffffffffffffffffffffffffffffffffffffffa50cef85c0000000000000000000000000000000570ec41ce20eb3b96a40b76b8264a17521b4000000000000000000000000000000000000000000000000000000000000028d000000000000000000000000000000000000000000000000000000000009d3290000000000000000000000000000000000000000000000000000000000000bb8",
          "blockHash": "0xf4d3a37c5dd60951a9d392e13196ecf0d9669b4011497e9407ebacaa7ee1092e",
          "blockNumber": "0x987d1c",
          "blockTimestamp": "0x695db2f8",
          "transactionHash": "0x46bd31284ae3dc4cfd67e4484774e4e4e91a8b64c1943ef30ba09819339d4172",
          "transactionIndex": "0x55",
          "logIndex": "0x66",
          "removed": false
        },
        {
          "address": "0x5c13377f19b9aeb3cb00fcc8e58e9a2b43889540",
          "topics": [
            "0xcd9f4ccdc13709817c4447834a44bef5d62ffe25139e5c329d8debc5c177cc79",
            "0x6648efe854126eca977839455e095d4cb46e5035b64bc3aa0f8da2c5ebdce489"
          ],
          "data": "0x000000000000000000000000000000000000000000000000000000000000000000000000000000000000000000000000000000000000000000000045d964b8000000000000000000000000000000000000000000000000000000000000000bb800000000000000000000000000000000000000000000000000019f4678cdf000000000000000000000000000000000000000000000000000130281d7ad548bb8",
          "blockHash": "0xf4d3a37c5dd60951a9d392e13196ecf0d9669b4011497e9407ebacaa7ee1092e",
          "blockNumber": "0x987d1c",
          "blockTimestamp": "0x695db2f8",
          "transactionHash": "0x46bd31284ae3dc4cfd67e4484774e4e4e91a8b64c1943ef30ba09819339d4172",
          "transactionIndex": "0x55",
          "logIndex": "0x67",
          "removed": false
        },
        {
          "address": "0xfff9976782d46cc05630d1f6ebab18b2324d6b14",
          "topics": [
            "0xddf252ad1be2c89b69c2b068fc378daa952ba7f163c4a11628f55a4df523b3ef",
            "0x00000000000000000000000063f976191f9dd75bd5b0fd81320d37fbc0d74080",
            "0x00000000000000000000000076e9e1affde82bb4544ce95ea58ffc2f9d45061f"
          ],
          "data": "0x00000000000000000000000000000000000000000000000000005af3107a4000",
          "blockHash": "0xf4d3a37c5dd60951a9d392e13196ecf0d9669b4011497e9407ebacaa7ee1092e",
          "blockNumber": "0x987d1c",
          "blockTimestamp": "0x695db2f8",
          "transactionHash": "0x46bd31284ae3dc4cfd67e4484774e4e4e91a8b64c1943ef30ba09819339d4172",
          "transactionIndex": "0x55",
          "logIndex": "0x68",
          "removed": false
        }
      ],
      "logsBloom": "0x00001000000000000000000000000000002000000000000000000000000000000000000000000000000020000000000000000000040010000000000000001000000000000000000000000008000000000000000000000820000000000000010000000000000000000000004000000000000000000000000000000012000000000040000000000000000000000000010000000000000000000000000000000000000020400000040000000000000000000000000000000000000001000000000000000002000004000002000000000000000000000000000000008000000000000001020000000000004000020000050000000000000000000001000000000000",
      "type": "0x2",
      "transactionHash": "0x46bd31284ae3dc4cfd67e4484774e4e4e91a8b64c1943ef30ba09819339d4172",
      "transactionIndex": "0x55",
      "blockHash": "0xf4d3a37c5dd60951a9d392e13196ecf0d9669b4011497e9407ebacaa7ee1092e",
      "blockNumber": "0x987d1c",
      "gasUsed": "0x1aa57",
      "effectiveGasPrice": "0xf4240",
      "from": "0x63f976191f9dd75bd5b0fd81320d37fbc0d74080",
      "to": "0x709407b6bc572b7608524874228a756ca31a689f",
      "contractAddress": null
    },
    {
      "status": "0x1",
      "cumulativeGasUsed": "0x9c577b",
      "logs": [
        {
          "address": "0x76e9e1affde82bb4544ce95ea58ffc2f9d45061f",
          "topics": [
            "0x40e9cecb9f5f1f1c5b9c97dec2917b7ee92e57ba5563708daca94dd84ad7112f",
            "0x6648efe854126eca977839455e095d4cb46e5035b64bc3aa0f8da2c5ebdce489",
            "0x000000000000000000000000709407b6bc572b7608524874228a756ca31a689f"
          ],
          "data": "0x0000000000000000000000000000000000000000000000000000000000000000ffffffffffffffffffffffffffffffffffffffffffffffffffffa50cef85c00000000000000000000000000000005732508bdcc6f59621b9db1865c63f72c788000000000000000000000000000000000000000000000000000000000000028d000000000000000000000000000000000000000000000000000000000009d3490000000000000000000000000000000000000000000000000000000000000bb8",
          "blockHash": "0xf4d3a37c5dd60951a9d392e13196ecf0d9669b4011497e9407ebacaa7ee1092e",
          "blockNumber": "0x987d1c",
          "blockTimestamp": "0x695db2f8",
          "transactionHash": "0x750002672603f95c96c1c779ecef19257e3285ddf654fea3b861f916d31cbe87",
          "transactionIndex": "0x56",
          "logIndex": "0x69",
          "removed": false
        },
        {
          "address": "0x5c13377f19b9aeb3cb00fcc8e58e9a2b43889540",
          "topics": [
            "0xcd9f4ccdc13709817c4447834a44bef5d62ffe25139e5c329d8debc5c177cc79",
            "0x6648efe854126eca977839455e095d4cb46e5035b64bc3aa0f8da2c5ebdce489"
          ],
          "data": "0x000000000000000000000000000000000000000000000000000000000000000000000000000000000000000000000000000000000000000000000045d964b8000000000000000000000000000000000000000000000000000000000000000bb800000000000000000000000000000000000000000000000000019f8c5232a8000000000000000000000000000000000000000000000000001305b46341a0cbb8",
          "blockHash": "0xf4d3a37c5dd60951a9d392e13196ecf0d9669b4011497e9407ebacaa7ee1092e",
          "blockNumber": "0x987d1c",
          "blockTimestamp": "0x695db2f8",
          "transactionHash": "0x750002672603f95c96c1c779ecef19257e3285ddf654fea3b861f916d31cbe87",
          "transactionIndex": "0x56",
          "logIndex": "0x6a",
          "removed": false
        },
        {
          "address": "0xfff9976782d46cc05630d1f6ebab18b2324d6b14",
          "topics": [
            "0xddf252ad1be2c89b69c2b068fc378daa952ba7f163c4a11628f55a4df523b3ef",
            "0x00000000000000000000000063f976191f9dd75bd5b0fd81320d37fbc0d74080",
            "0x00000000000000000000000076e9e1affde82bb4544ce95ea58ffc2f9d45061f"
          ],
          "data": "0x00000000000000000000000000000000000000000000000000005af3107a4000",
          "blockHash": "0xf4d3a37c5dd60951a9d392e13196ecf0d9669b4011497e9407ebacaa7ee1092e",
          "blockNumber": "0x987d1c",
          "blockTimestamp": "0x695db2f8",
          "transactionHash": "0x750002672603f95c96c1c779ecef19257e3285ddf654fea3b861f916d31cbe87",
          "transactionIndex": "0x56",
          "logIndex": "0x6b",
          "removed": false
        }
      ],
      "logsBloom": "0x00001000000000000000000000000000002000000000000000000000000000000000000000000000000020000000000000000000040010000000000000001000000000000000000000000008000000000000000000000820000000000000010000000000000000000000004000000000000000000000000000000012000000000040000000000000000000000000010000000000000000000000000000000000000020400000040000000000000000000000000000000000000001000000000000000002000004000002000000000000000000000000000000008000000000000001020000000000004000020000050000000000000000000001000000000000",
      "type": "0x2",
      "transactionHash": "0x750002672603f95c96c1c779ecef19257e3285ddf654fea3b861f916d31cbe87",
      "transactionIndex": "0x56",
      "blockHash": "0xf4d3a37c5dd60951a9d392e13196ecf0d9669b4011497e9407ebacaa7ee1092e",
      "blockNumber": "0x987d1c",
      "gasUsed": "0x1aa57",
      "effectiveGasPrice": "0xf4240",
      "from": "0x63f976191f9dd75bd5b0fd81320d37fbc0d74080",
      "to": "0x709407b6bc572b7608524874228a756ca31a689f",
      "contractAddress": null
    },
    {
      "status": "0x1",
      "cumulativeGasUsed": "0x9e01f2",
      "logs": [
        {
          "address": "0x76e9e1affde82bb4544ce95ea58ffc2f9d45061f",
          "topics": [
            "0x40e9cecb9f5f1f1c5b9c97dec2917b7ee92e57ba5563708daca94dd84ad7112f",
            "0x6648efe854126eca977839455e095d4cb46e5035b64bc3aa0f8da2c5ebdce489",
            "0x000000000000000000000000709407b6bc572b7608524874228a756ca31a689f"
          ],
          "data": "0x0000000000000000000000000000000000000000000000000000000000000000ffffffffffffffffffffffffffffffffffffffffffffffffffffa50cef85c00000000000000000000000000000005755dcfad77f3772d932fec54927dd706d5c000000000000000000000000000000000000000000000000000000000000028d000000000000000000000000000000000000000000000000000000000009d3690000000000000000000000000000000000000000000000000000000000000bb8",
          "blockHash": "0xf4d3a37c5dd60951a9d392e13196ecf0d9669b4011497e9407ebacaa7ee1092e",
          "blockNumber": "0x987d1c",
          "blockTimestamp": "0x695db2f8",
          "transactionHash": "0x8f532f36fceeaf8e439f49be5909f1af9a43b9455d7f2346cd7793b7c7af617f",
          "transactionIndex": "0x57",
          "logIndex": "0x6c",
          "removed": false
        },
        {
          "address": "0x5c13377f19b9aeb3cb00fcc8e58e9a2b43889540",
          "topics": [
            "0xcd9f4ccdc13709817c4447834a44bef5d62ffe25139e5c329d8debc5c177cc79",
            "0x6648efe854126eca977839455e095d4cb46e5035b64bc3aa0f8da2c5ebdce489"
          ],
          "data": "0x000000000000000000000000000000000000000000000000000000000000000000000000000000000000000000000000000000000000000000000045d964b8000000000000000000000000000000000000000000000000000000000000000bb800000000000000000000000000000000000000000000000000019fd22b9760000000000000000000000000000000000000000000000000001308e6eed5ed0bb8",
          "blockHash": "0xf4d3a37c5dd60951a9d392e13196ecf0d9669b4011497e9407ebacaa7ee1092e",
          "blockNumber": "0x987d1c",
          "blockTimestamp": "0x695db2f8",
          "transactionHash": "0x8f532f36fceeaf8e439f49be5909f1af9a43b9455d7f2346cd7793b7c7af617f",
          "transactionIndex": "0x57",
          "logIndex": "0x6d",
          "removed": false
        },
        {
          "address": "0xfff9976782d46cc05630d1f6ebab18b2324d6b14",
          "topics": [
            "0xddf252ad1be2c89b69c2b068fc378daa952ba7f163c4a11628f55a4df523b3ef",
            "0x00000000000000000000000063f976191f9dd75bd5b0fd81320d37fbc0d74080",
            "0x00000000000000000000000076e9e1affde82bb4544ce95ea58ffc2f9d45061f"
          ],
          "data": "0x00000000000000000000000000000000000000000000000000005af3107a4000",
          "blockHash": "0xf4d3a37c5dd60951a9d392e13196ecf0d9669b4011497e9407ebacaa7ee1092e",
          "blockNumber": "0x987d1c",
          "blockTimestamp": "0x695db2f8",
          "transactionHash": "0x8f532f36fceeaf8e439f49be5909f1af9a43b9455d7f2346cd7793b7c7af617f",
          "transactionIndex": "0x57",
          "logIndex": "0x6e",
          "removed": false
        }
      ],
      "logsBloom": "0x00001000000000000000000000000000002000000000000000000000000000000000000000000000000020000000000000000000040010000000000000001000000000000000000000000008000000000000000000000820000000000000010000000000000000000000004000000000000000000000000000000012000000000040000000000000000000000000010000000000000000000000000000000000000020400000040000000000000000000000000000000000000001000000000000000002000004000002000000000000000000000000000000008000000000000001020000000000004000020000050000000000000000000001000000000000",
      "type": "0x2",
      "transactionHash": "0x8f532f36fceeaf8e439f49be5909f1af9a43b9455d7f2346cd7793b7c7af617f",
      "transactionIndex": "0x57",
      "blockHash": "0xf4d3a37c5dd60951a9d392e13196ecf0d9669b4011497e9407ebacaa7ee1092e",
      "blockNumber": "0x987d1c",
      "gasUsed": "0x1aa77",
      "effectiveGasPrice": "0xf4240",
      "from": "0x63f976191f9dd75bd5b0fd81320d37fbc0d74080",
      "to": "0x709407b6bc572b7608524874228a756ca31a689f",
      "contractAddress": null
    },
    {
      "status": "0x1",
      "cumulativeGasUsed": "0x9fac4d",
      "logs": [
        {
          "address": "0x76e9e1affde82bb4544ce95ea58ffc2f9d45061f",
          "topics": [
            "0x40e9cecb9f5f1f1c5b9c97dec2917b7ee92e57ba5563708daca94dd84ad7112f",
            "0x6648efe854126eca977839455e095d4cb46e5035b64bc3aa0f8da2c5ebdce489",
            "0x000000000000000000000000709407b6bc572b7608524874228a756ca31a689f"
          ],
          "data": "0x0000000000000000000000000000000000000000000000000000000000000000ffffffffffffffffffffffffffffffffffffffffffffffffffffa50cef85c000000000000000000000000000000057796969d237794f90ac22722c897b6e1330000000000000000000000000000000000000000000000000000000000000028d000000000000000000000000000000000000000000000000000000000009d3880000000000000000000000000000000000000000000000000000000000000bb8",
          "blockHash": "0xf4d3a37c5dd60951a9d392e13196ecf0d9669b4011497e9407ebacaa7ee1092e",
          "blockNumber": "0x987d1c",
          "blockTimestamp": "0x695db2f8",
          "transactionHash": "0xbab39927fd7c7cbf9a498c51afb64674db473d791e87781ce1ec42a93a0e9212",
          "transactionIndex": "0x58",
          "logIndex": "0x6f",
          "removed": false
        },
        {
          "address": "0x5c13377f19b9aeb3cb00fcc8e58e9a2b43889540",
          "topics": [
            "0xcd9f4ccdc13709817c4447834a44bef5d62ffe25139e5c329d8debc5c177cc79",
            "0x6648efe854126eca977839455e095d4cb46e5035b64bc3aa0f8da2c5ebdce489"
          ],
          "data": "0x000000000000000000000000000000000000000000000000000000000000000000000000000000000000000000000000000000000000000000000045d964b8000000000000000000000000000000000000000000000000000000000000000bb80000000000000000000000000000000000000000000000000001a01804fc1800000000000000000000000000000000000000000000000000130c197a6a394bb8",
          "blockHash": "0xf4d3a37c5dd60951a9d392e13196ecf0d9669b4011497e9407ebacaa7ee1092e",
          "blockNumber": "0x987d1c",
          "blockTimestamp": "0x695db2f8",
          "transactionHash": "0xbab39927fd7c7cbf9a498c51afb64674db473d791e87781ce1ec42a93a0e9212",
          "transactionIndex": "0x58",
          "logIndex": "0x70",
          "removed": false
        },
        {
          "address": "0xfff9976782d46cc05630d1f6ebab18b2324d6b14",
          "topics": [
            "0xddf252ad1be2c89b69c2b068fc378daa952ba7f163c4a11628f55a4df523b3ef",
            "0x00000000000000000000000063f976191f9dd75bd5b0fd81320d37fbc0d74080",
            "0x00000000000000000000000076e9e1affde82bb4544ce95ea58ffc2f9d45061f"
          ],
          "data": "0x00000000000000000000000000000000000000000000000000005af3107a4000",
          "blockHash": "0xf4d3a37c5dd60951a9d392e13196ecf0d9669b4011497e9407ebacaa7ee1092e",
          "blockNumber": "0x987d1c",
          "blockTimestamp": "0x695db2f8",
          "transactionHash": "0xbab39927fd7c7cbf9a498c51afb64674db473d791e87781ce1ec42a93a0e9212",
          "transactionIndex": "0x58",
          "logIndex": "0x71",
          "removed": false
        }
      ],
      "logsBloom": "0x00001000000000000000000000000000002000000000000000000000000000000000000000000000000020000000000000000000040010000000000000001000000000000000000000000008000000000000000000000820000000000000010000000000000000000000004000000000000000000000000000000012000000000040000000000000000000000000010000000000000000000000000000000000000020400000040000000000000000000000000000000000000001000000000000000002000004000002000000000000000000000000000000008000000000000001020000000000004000020000050000000000000000000001000000000000",
      "type": "0x2",
      "transactionHash": "0xbab39927fd7c7cbf9a498c51afb64674db473d791e87781ce1ec42a93a0e9212",
      "transactionIndex": "0x58",
      "blockHash": "0xf4d3a37c5dd60951a9d392e13196ecf0d9669b4011497e9407ebacaa7ee1092e",
      "blockNumber": "0x987d1c",
      "gasUsed": "0x1aa5b",
      "effectiveGasPrice": "0xf4240",
      "from": "0x63f976191f9dd75bd5b0fd81320d37fbc0d74080",
      "to": "0x709407b6bc572b7608524874228a756ca31a689f",
      "contractAddress": null
    }
  ],
  "libraries": [],
  "pending": [],
  "returns": {},
  "timestamp": 1767748345519,
  "chain": 11155111,
  "commit": "93c8eb5"
}