{
  "transactions": [
    {
      "hash": "0x715f29ce3e71a8df4516aad98386d3a40d556497e3231836947d4336e03ea500",
      "transactionType": "CREATE",
      "contractName": "SwapHelper",
      "contractAddress": "0x0436b86c7e2c70af12728371c80563b29b2f3391",
      "function": null,
      "arguments": [
        "0x76E9E1AFFDe82bb4544cE95EA58fFc2f9D45061f"
      ],
      "transaction": {
        "from": "0x63f976191f9dd75bd5b0fd81320d37fbc0d74080",
        "gas": "0x118d81",
        "value": "0x0",
        "input": "0x60a034607457601f610f9f38819003918201601f19168301916001600160401b03831184841017607857808492602094604052833981010312607457516001600160a01b0381168103607457608052604051610f12908161008d82396080518181816103290152818161044d01526104e20152f35b5f80fd5b634e487b7160e01b5f52604160045260245ffdfe6080806040526004361015610012575f80fd5b5f3560e01c90816391dd73461461047157508063dc4c90d3146104035763f3cd914c1461003d575f80fd5b3461037a577ffffffffffffffffffffffffffffffffffffffffffffffffffffffffffffffffc3601610120811261037a5760a01361037a5760405161008181610a3e565b60043573ffffffffffffffffffffffffffffffffffffffff8116810361037a57815260243573ffffffffffffffffffffffffffffffffffffffff8116810361037a57602082015260443562ffffff8116810361037a5760408201526064358060020b810361037a57606082015260843573ffffffffffffffffffffffffffffffffffffffff8116810361037a57608082015260607fffffffffffffffffffffffffffffffffffffffffffffffffffffffffffffff5c36011261037a576040519061014a82610a5a565b60a435801515810361037a57825260c435602083015260e43573ffffffffffffffffffffffffffffffffffffffff8116810361037a5760408301526101043567ffffffffffffffff811161037a576102d45f926102a861030f956102936101ca73ffffffffffffffffffffffffffffffffffffffff963690600401610b12565b9161025b604051956101db876109f5565b3387526020870190815260408701928352606087019485526040519889976020808a01525116604088015251606087019073ffffffffffffffffffffffffffffffffffffffff6080809282815116855282602082015116602086015262ffffff6040820151166040860152606081015160020b6060860152015116910152565b518051151561010086015260208101516101208601526040015173ffffffffffffffffffffffffffffffffffffffff16610140850152565b516101406101608401526101808301906109b2565b037fffffffffffffffffffffffffffffffffffffffffffffffffffffffffffffffe08101835282610a76565b604051809381927f48c894910000000000000000000000000000000000000000000000000000000083526020600484015260248301906109b2565b03818373ffffffffffffffffffffffffffffffffffffffff7f0000000000000000000000000000000000000000000000000000000000000000165af19081156103f8575f9161037e575b506020815191818082019384920101031261037a5760209051604051908152f35b5f80fd5b90503d805f833e61038f8183610a76565b81019060208183031261037a5780519067ffffffffffffffff821161037a570181601f8201121561037a578051906103c682610ad8565b926103d46040519485610a76565b8284526020838301011161037a57815f9260208093018386015e830101525f610359565b6040513d5f823e3d90fd5b3461037a575f7ffffffffffffffffffffffffffffffffffffffffffffffffffffffffffffffffc36011261037a57602060405173ffffffffffffffffffffffffffffffffffffffff7f0000000000000000000000000000000000000000000000000000000000000000168152f35b3461037a5760207ffffffffffffffffffffffffffffffffffffffffffffffffffffffffffffffffc36011261037a576004359067ffffffffffffffff821161037a573660238301121561037a57816004013567ffffffffffffffff811161037a578201602481019236841161037a577f00000000000000000000000000000000000000000000000000000000000000009073ffffffffffffffffffffffffffffffffffffffff821693843303610956575060208184031261037a5760248101359067ffffffffffffffff821161037a5701936101408584031261037a576040519361055b856109f5565b61056760248701610ab7565b855260a07fffffffffffffffffffffffffffffffffffffffffffffffffffffffffffffffe0878603011261037a57604051936105a285610a3e565b6105ae60448801610ab7565b85526105bc60648801610ab7565b6020860152608487013562ffffff8116810361037a57604086015260a48701358060020b810361037a57606086015260c487013573ffffffffffffffffffffffffffffffffffffffff8116810361037a577fffffffffffffffffffffffffffffffffffffffffffffffffffffffffffffff1c8860609360249360808a015260208a019889520301011261037a576040519061065682610a5a565b60e4870135801515810361037a578252610104870135602083015261012487013573ffffffffffffffffffffffffffffffffffffffff8116810361037a576040830152604086019182526101448701359267ffffffffffffffff841161037a575f6106ce61075e9260246020976107929c0101610b12565b938460608a01526107a688519151956040519b8c97889687957ff3cd914c000000000000000000000000000000000000000000000000000000008752600487019073ffffffffffffffffffffffffffffffffffffffff6080809282815116855282602082015116602086015262ffffff6040820151166040860152606081015160020b6060860152015116910152565b8051151560a4860152602081015160c48601526040015173ffffffffffffffffffffffffffffffffffffffff1660e4850152565b6101206101048401526101248301906109b2565b03925af19283156103f8575f93610920575b61081994508360801d600f0b9184600f0b925f81126108dd575b5f8412610891575b5f811361084f575b505f831361081d575b858560405190602082015260208152610805604082610a76565b6040519182916020835260208301906109b2565b0390f35b73ffffffffffffffffffffffffffffffffffffffff806020610846965101511692511691610e71565b828080806107eb565b61088b9073ffffffffffffffffffffffffffffffffffffffff865151168373ffffffffffffffffffffffffffffffffffffffff86511691610e71565b866107e2565b6108d873ffffffffffffffffffffffffffffffffffffffff6020875101511673ffffffffffffffffffffffffffffffffffffffff855116846108d288610b67565b92610bd8565b6107da565b61091b73ffffffffffffffffffffffffffffffffffffffff8651511673ffffffffffffffffffffffffffffffffffffffff855116846108d285610b67565b6107d2565b92506020843d60201161094e575b8161093b60209383610a76565b8101031261037a576108199351926107b8565b3d915061092e565b807f08c379a0000000000000000000000000000000000000000000000000000000006064925260206004820152601960248201527f4f6e6c7920506f6f6c4d616e616765722063616e2063616c6c000000000000006044820152fd5b907fffffffffffffffffffffffffffffffffffffffffffffffffffffffffffffffe0601f602080948051918291828752018686015e5f8582860101520116010190565b6080810190811067ffffffffffffffff821117610a1157604052565b7f4e487b71000000000000000000000000000000000000000000000000000000005f52604160045260245ffd5b60a0810190811067ffffffffffffffff821117610a1157604052565b6060810190811067ffffffffffffffff821117610a1157604052565b90601f7fffffffffffffffffffffffffffffffffffffffffffffffffffffffffffffffe0910116810190811067ffffffffffffffff821117610a1157604052565b359073ffffffffffffffffffffffffffffffffffffffff8216820361037a57565b67ffffffffffffffff8111610a1157601f017fffffffffffffffffffffffffffffffffffffffffffffffffffffffffffffffe01660200190565b81601f8201121561037a57803590610b2982610ad8565b92610b376040519485610a76565b8284526020838301011161037a57815f926020809301838601378301015290565b9081602091031261037a575190565b7f80000000000000000000000000000000000000000000000000000000000000008114610b93575f0390565b7f4e487b71000000000000000000000000000000000000000000000000000000005f52601160045260245ffd5b9081602091031261037a5751801515810361037a5790565b90919073ffffffffffffffffffffffffffffffffffffffff1680610c7857505073ffffffffffffffffffffffffffffffffffffffff600460209260405194859384927f11da60b4000000000000000000000000000000000000000000000000000000008452165af180156103f857610c4d5750565b610c6e9060203d602011610c71575b610c668183610a76565b810190610b58565b50565b503d610c5c565b90929173ffffffffffffffffffffffffffffffffffffffff1691823b1561037a57604051937fa58411940000000000000000000000000000000000000000000000000000000085528260048601525a945f816024818389819bf180156103f857610e48575b5073ffffffffffffffffffffffffffffffffffffffff1684308214610dd4576020929160649160405195869485937f23b872dd000000000000000000000000000000000000000000000000000000008552600485015288602485015260448401525af18015610dc957916020918493610d9c575b505b6004604051809581937f11da60b40000000000000000000000000000000000000000000000000000000083525af1908115610d905750610c4d5750565b604051903d90823e3d90fd5b610dbb90833d8511610dc2575b610db38183610a76565b810190610bc0565b505f610d51565b503d610da9565b6040513d85823e3d90fd5b929050604460209260405194859384927fa9059cbb00000000000000000000000000000000000000000000000000000000845288600485015260248401525af18015610dc957916020918493610e2b575b50610d53565b610e4190833d8511610dc257610db38183610a76565b505f610e25565b610e559195505f90610a76565b5f9373ffffffffffffffffffffffffffffffffffffffff610cdd565b91929073ffffffffffffffffffffffffffffffffffffffff16803b1561037a575f928360649273ffffffffffffffffffffffffffffffffffffffff948560405198899788967f0b0d9c0900000000000000000000000000000000000000000000000000000000885216600487015216602485015260448401525af180156103f857610ef95750565b5f610f0391610a76565b56fea164736f6c634300081a000a00000000000000000000000076e9e1affde82bb4544ce95ea58ffc2f9d45061f",
        "nonce": "0x10e7",
        "chainId": "0xaa36a7"
      },
      "additionalContracts": [],
      "isFixedGasLimit": false
    },
    {
      "hash": "0xbc8fffe442aaea352424f3ea0989c1433ddc6a9bca92c10a03a5b13ec0c17dc5",
      "transactionType": "CALL",
      "contractName": null,
      "contractAddress": "0xfff9976782d46cc05630d1f6ebab18b2324d6b14",
      "function": "approve(address,uint256)",
      "arguments": [
        "0x0436b86c7e2c70AF12728371C80563B29B2f3391",
        "115792089237316195423570985008687907853269984665640564039457584007913129639935"
      ],
      "transaction": {
        "from": "0x63f976191f9dd75bd5b0fd81320d37fbc0d74080",
        "to": "0xfff9976782d46cc05630d1f6ebab18b2324d6b14",
        "gas": "0xfa27",
        "value": "0x0",
        "input": "0x095ea7b30000000000000000000000000436b86c7e2c70af12728371c80563b29b2f3391ffffffffffffffffffffffffffffffffffffffffffffffffffffffffffffffff",
        "nonce": "0x10e8",
        "chainId": "0xaa36a7"
      },
      "additionalContracts": [],
      "isFixedGasLimit": false
    },
    {
      "hash": "0x4b856cfec1705183d8137c7691401580de1601e4d22efd1d5bae15706260f50e",
      "transactionType": "CALL",
      "contractName": null,
      "contractAddress": "0x1c7d4b196cb0c7b01d743fbc6116a902379c7238",
      "function": "approve(address,uint256)",
      "arguments": [
        "0x0436b86c7e2c70AF12728371C80563B29B2f3391",
        "115792089237316195423570985008687907853269984665640564039457584007913129639935"
      ],
      "transaction": {
        "from": "0x63f976191f9dd75bd5b0fd81320d37fbc0d74080",
        "to": "0x1c7d4b196cb0c7b01d743fbc6116a902379c7238",
        "gas": "0x13eb1",
        "value": "0x0",
        "input": "0x095ea7b30000000000000000000000000436b86c7e2c70af12728371c80563b29b2f3391ffffffffffffffffffffffffffffffffffffffffffffffffffffffffffffffff",
        "nonce": "0x10e9",
        "chainId": "0xaa36a7"
      },
      "additionalContracts": [],
      "isFixedGasLimit": false
    },
    {
      "hash": "0x51c737bfa06bd3e9fbd2cabf8eed95d6a12e4f52cd043c8417deb48a8096d5d1",
      "transactionType": "CALL",
      "contractName": "SwapHelper",
      "contractAddress": "0x0436b86c7e2c70af12728371c80563b29b2f3391",
      "function": "swap((address,address,uint24,int24,address),(bool,int256,uint160),bytes)",
      "arguments": [
        "(0x1c7D4B196Cb0C7B01d743Fbc6116a902379C7238, 0xfFf9976782d46CC05630D1f6eBAb18b2324d6B14, 3000, 60, 0x5C13377F19B9AEB3CB00Fcc8E58e9A2B43889540)",
        "(false, -100000000000000, 1461446703485210103287273052203988822378723970341)",
        "0x"
      ],
      "transaction": {
        "from": "0x63f976191f9dd75bd5b0fd81320d37fbc0d74080",
        "to": "0x0436b86c7e2c70af12728371c80563b29b2f3391",
        "gas": "0x27016",
        "value": "0x0",
        "input": "0xf3cd914c0000000000000000000000001c7d4b196cb0c7b01d743fbc6116a902379c7238000000000000000000000000fff9976782d46cc05630d1f6ebab18b2324d6b140000000000000000000000000000000000000000000000000000000000000bb8000000000000000000000000000000000000000000000000000000000000003c0000000000000000000000005c13377f19b9aeb3cb00fcc8e58e9a2b438895400000000000000000000000000000000000000000000000000000000000000000ffffffffffffffffffffffffffffffffffffffffffffffffffffa50cef85c000000000000000000000000000fffd8963efd1fc6a506488495d951d5263988d2500000000000000000000000000000000000000000000000000000000000001200000000000000000000000000000000000000000000000000000000000000000",
        "nonce": "0x10ea",
        "chainId": "0xaa36a7"
      },
      "additionalContracts": [],
      "isFixedGasLimit": false
    },
    {
      "hash": "0x2e3833fcce2e52830f4040ca620ccc4b1f03946186b68131af6dfdb5b96831d1",
      "transactionType": "CALL",
      "contractName": "SwapHelper",
      "contractAddress": "0x0436b86c7e2c70af12728371c80563b29b2f3391",
      "function": "swap((address,address,uint24,int24,address),(bool,int256,uint160),bytes)",
      "arguments": [
        "(0x1c7D4B196Cb0C7B01d743Fbc6116a902379C7238, 0xfFf9976782d46CC05630D1f6eBAb18b2324d6B14, 3000, 60, 0x5C13377F19B9AEB3CB00Fcc8E58e9A2B43889540)",
        "(false, -100000000000000, 1461446703485210103287273052203988822378723970341)",
        "0x"
      ],
      "transaction": {
        "from": "0x63f976191f9dd75bd5b0fd81320d37fbc0d74080",
        "to": "0x0436b86c7e2c70af12728371c80563b29b2f3391",
        "gas": "0x24d64",
        "value": "0x0",
        "input": "0xf3cd914c0000000000000000000000001c7d4b196cb0c7b01d743fbc6116a902379c7238000000000000000000000000fff9976782d46cc05630d1f6ebab18b2324d6b140000000000000000000000000000000000000000000000000000000000000bb8000000000000000000000000000000000000000000000000000000000000003c0000000000000000000000005c13377f19b9aeb3cb00fcc8e58e9a2b438895400000000000000000000000000000000000000000000000000000000000000000ffffffffffffffffffffffffffffffffffffffffffffffffffffa50cef85c000000000000000000000000000fffd8963efd1fc6a506488495d951d5263988d2500000000000000000000000000000000000000000000000000000000000001200000000000000000000000000000000000000000000000000000000000000000",
        "nonce": "0x10eb",
        "chainId": "0xaa36a7"
      },
      "additionalContracts": [],
      "isFixedGasLimit": false
    },
    {
      "hash": "0x8ee38bfe0e222c2d7ecc9547927cb0e9f24ded0e9d914511e61455d69b3db63e",
      "transactionType": "CALL",
      "contractName": "SwapHelper",
      "contractAddress": "0x0436b86c7e2c70af12728371c80563b29b2f3391",
      "function": "swap((address,address,uint24,int24,address),(bool,int256,uint160),bytes)",
      "arguments": [
        "(0x1c7D4B196Cb0C7B01d743Fbc6116a902379C7238, 0xfFf9976782d46CC05630D1f6eBAb18b2324d6B14, 3000, 60, 0x5C13377F19B9AEB3CB00Fcc8E58e9A2B43889540)",
        "(false, -100000000000000, 1461446703485210103287273052203988822378723970341)",
        "0x"
      ],
      "transaction": {
        "from": "0x63f976191f9dd75bd5b0fd81320d37fbc0d74080",
        "to": "0x0436b86c7e2c70af12728371c80563b29b2f3391",
        "gas": "0x26fe7",
        "value": "0x0",
        "input": "0xf3cd914c0000000000000000000000001c7d4b196cb0c7b01d743fbc6116a902379c7238000000000000000000000000fff9976782d46cc05630d1f6ebab18b2324d6b140000000000000000000000000000000000000000000000000000000000000bb8000000000000000000000000000000000000000000000000000000000000003c0000000000000000000000005c13377f19b9aeb3cb00fcc8e58e9a2b438895400000000000000000000000000000000000000000000000000000000000000000ffffffffffffffffffffffffffffffffffffffffffffffffffffa50cef85c000000000000000000000000000fffd8963efd1fc6a506488495d951d5263988d2500000000000000000000000000000000000000000000000000000000000001200000000000000000000000000000000000000000000000000000000000000000",
        "nonce": "0x10ec",
        "chainId": "0xaa36a7"
      },
      "additionalContracts": [],
      "isFixedGasLimit": false
    },
    {
      "hash": "0xf6ee56ae9962a4097c36d6546b38a4ccf3f39ecc447b07e3b01c416a6a1b65c2",
      "transactionType": "CALL",
      "contractName": "SwapHelper",
      "contractAddress": "0x0436b86c7e2c70af12728371c80563b29b2f3391",
      "function": "swap((address,address,uint24,int24,address),(bool,int256,uint160),bytes)",
      "arguments": [
        "(0x1c7D4B196Cb0C7B01d743Fbc6116a902379C7238, 0xfFf9976782d46CC05630D1f6eBAb18b2324d6B14, 3000, 60, 0x5C13377F19B9AEB3CB00Fcc8E58e9A2B43889540)",
        "(false, -100000000000000, 1461446703485210103287273052203988822378723970341)",
        "0x"
      ],
      "transaction": {
        "from": "0x63f976191f9dd75bd5b0fd81320d37fbc0d74080",
        "to": "0x0436b86c7e2c70af12728371c80563b29b2f3391",
        "gas": "0x27044",
        "value": "0x0",
        "input": "0xf3cd914c0000000000000000000000001c7d4b196cb0c7b01d743fbc6116a902379c7238000000000000000000000000fff9976782d46cc05630d1f6ebab18b2324d6b140000000000000000000000000000000000000000000000000000000000000bb8000000000000000000000000000000000000000000000000000000000000003c0000000000000000000000005c13377f19b9aeb3cb00fcc8e58e9a2b438895400000000000000000000000000000000000000000000000000000000000000000ffffffffffffffffffffffffffffffffffffffffffffffffffffa50cef85c000000000000000000000000000fffd8963efd1fc6a506488495d951d5263988d2500000000000000000000000000000000000000000000000000000000000001200000000000000000000000000000000000000000000000000000000000000000",
        "nonce": "0x10ed",
        "chainId": "0xaa36a7"
      },
      "additionalContracts": [],
      "isFixedGasLimit": false
    },
    {
      "hash": "0xeb6036bea77cce734608a24583807df397f35217d71370928de9857e52bce676",
      "transactionType": "CALL",
      "contractName": "SwapHelper",
      "contractAddress": "0x0436b86c7e2c70af12728371c80563b29b2f3391",
      "function": "swap((address,address,uint24,int24,address),(bool,int256,uint160),bytes)",
      "arguments": [
        "(0x1c7D4B196Cb0C7B01d743Fbc6116a902379C7238, 0xfFf9976782d46CC05630D1f6eBAb18b2324d6B14, 3000, 60, 0x5C13377F19B9AEB3CB00Fcc8E58e9A2B43889540)",
        "(false, -100000000000000, 1461446703485210103287273052203988822378723970341)",
        "0x"
      ],
      "transaction": {
        "from": "0x63f976191f9dd75bd5b0fd81320d37fbc0d74080",
        "to": "0x0436b86c7e2c70af12728371c80563b29b2f3391",
        "gas": "0x24cdf",
        "value": "0x0",
        "input": "0xf3cd914c0000000000000000000000001c7d4b196cb0c7b01d743fbc6116a902379c7238000000000000000000000000fff9976782d46cc05630d1f6ebab18b2324d6b140000000000000000000000000000000000000000000000000000000000000bb8000000000000000000000000000000000000000000000000000000000000003c0000000000000000000000005c13377f19b9aeb3cb00fcc8e58e9a2b438895400000000000000000000000000000000000000000000000000000000000000000ffffffffffffffffffffffffffffffffffffffffffffffffffffa50cef85c000000000000000000000000000fffd8963efd1fc6a506488495d951d5263988d2500000000000000000000000000000000000000000000000000000000000001200000000000000000000000000000000000000000000000000000000000000000",
        "nonce": "0x10ee",
        "chainId": "0xaa36a7"
      },
      "additionalContracts": [],
      "isFixedGasLimit": false
    },
    {
      "hash": "0xc8f5624b66490c795812537c12b1bbe9cd1a2de79613d711d519f7b27515c215",
      "transactionType": "CALL",
      "contractName": "SwapHelper",
      "contractAddress": "0x0436b86c7e2c70af12728371c80563b29b2f3391",
      "function": "swap((address,address,uint24,int24,address),(bool,int256,uint160),bytes)",
      "arguments": [
        "(0x1c7D4B196Cb0C7B01d743Fbc6116a902379C7238, 0xfFf9976782d46CC05630D1f6eBAb18b2324d6B14, 3000, 60, 0x5C13377F19B9AEB3CB00Fcc8E58e9A2B43889540)",
        "(false, -100000000000000, 1461446703485210103287273052203988822378723970341)",
        "0x"
      ],
      "transaction": {
        "from": "0x63f976191f9dd75bd5b0fd81320d37fbc0d74080",
        "to": "0x0436b86c7e2c70af12728371c80563b29b2f3391",
        "gas": "0x24cdf",
        "value": "0x0",
        "input": "0xf3cd914c0000000000000000000000001c7d4b196cb0c7b01d743fbc6116a902379c7238000000000000000000000000fff9976782d46cc05630d1f6ebab18b2324d6b140000000000000000000000000000000000000000000000000000000000000bb8000000000000000000000000000000000000000000000000000000000000003c0000000000000000000000005c13377f19b9aeb3cb00fcc8e58e9a2b438895400000000000000000000000000000000000000000000000000000000000000000ffffffffffffffffffffffffffffffffffffffffffffffffffffa50cef85c000000000000000000000000000fffd8963efd1fc6a506488495d951d5263988d2500000000000000000000000000000000000000000000000000000000000001200000000000000000000000000000000000000000000000000000000000000000",
        "nonce": "0x10ef",
        "chainId": "0xaa36a7"
      },
      "additionalContracts": [],
      "isFixedGasLimit": false
    },
    {
      "hash": "0x38461028bf1f09d721764df1eb5f70a925a1229642bbf780f112b93bc4e5911e",
      "transactionType": "CALL",
      "contractName": "SwapHelper",
      "contractAddress": "0x0436b86c7e2c70af12728371c80563b29b2f3391",
      "function": "swap((address,address,uint24,int24,address),(bool,int256,uint160),bytes)",
      "arguments": [
        "(0x1c7D4B196Cb0C7B01d743Fbc6116a902379C7238, 0xfFf9976782d46CC05630D1f6eBAb18b2324d6B14, 3000, 60, 0x5C13377F19B9AEB3CB00Fcc8E58e9A2B43889540)",
        "(false, -100000000000000, 1461446703485210103287273052203988822378723970341)",
        "0x"
      ],
      "transaction": {
        "from": "0x63f976191f9dd75bd5b0fd81320d37fbc0d74080",
        "to": "0x0436b86c7e2c70af12728371c80563b29b2f3391",
        "gas": "0x26fe7",
        "value": "0x0",
        "input": "0xf3cd914c0000000000000000000000001c7d4b196cb0c7b01d743fbc6116a902379c7238000000000000000000000000fff9976782d46cc05630d1f6ebab18b2324d6b140000000000000000000000000000000000000000000000000000000000000bb8000000000000000000000000000000000000000000000000000000000000003c0000000000000000000000005c13377f19b9aeb3cb00fcc8e58e9a2b438895400000000000000000000000000000000000000000000000000000000000000000ffffffffffffffffffffffffffffffffffffffffffffffffffffa50cef85c000000000000000000000000000fffd8963efd1fc6a506488495d951d5263988d2500000000000000000000000000000000000000000000000000000000000001200000000000000000000000000000000000000000000000000000000000000000",
        "nonce": "0x10f0",
        "chainId": "0xaa36a7"
      },
      "additionalContracts": [],
      "isFixedGasLimit": false
    },
    {
      "hash": "0x2f90fccdb8e2d8e89261985d2862dcc7d78f03e87a64356269ddcf43a50f1f88",
      "transactionType": "CALL",
      "contractName": "SwapHelper",
      "contractAddress": "0x0436b86c7e2c70af12728371c80563b29b2f3391",
      "function": "swap((address,address,uint24,int24,address),(bool,int256,uint160),bytes)",
      "arguments": [
        "(0x1c7D4B196Cb0C7B01d743Fbc6116a902379C7238, 0xfFf9976782d46CC05630D1f6eBAb18b2324d6B14, 3000, 60, 0x5C13377F19B9AEB3CB00Fcc8E58e9A2B43889540)",
        "(false, -100000000000000, 1461446703485210103287273052203988822378723970341)",
        "0x"
      ],
      "transaction": {
        "from": "0x63f976191f9dd75bd5b0fd81320d37fbc0d74080",
        "to": "0x0436b86c7e2c70af12728371c80563b29b2f3391",
        "gas": "0x24d38",
        "value": "0x0",
        "input": "0xf3cd914c0000000000000000000000001c7d4b196cb0c7b01d743fbc6116a902379c7238000000000000000000000000fff9976782d46cc05630d1f6ebab18b2324d6b140000000000000000000000000000000000000000000000000000000000000bb8000000000000000000000000000000000000000000000000000000000000003c0000000000000000000000005c13377f19b9aeb3cb00fcc8e58e9a2b438895400000000000000000000000000000000000000000000000000000000000000000ffffffffffffffffffffffffffffffffffffffffffffffffffffa50cef85c000000000000000000000000000fffd8963efd1fc6a506488495d951d5263988d2500000000000000000000000000000000000000000000000000000000000001200000000000000000000000000000000000000000000000000000000000000000",
        "nonce": "0x10f1",
        "chainId": "0xaa36a7"
      },
      "additionalContracts": [],
      "isFixedGasLimit": false
    },
    {
      "hash": "0x507c556090f791b83100a2aef288634983fcb57d290726f779619948ab7c26fe",
      "transactionType": "CALL",
      "contractName": "SwapHelper",
      "contractAddress": "0x0436b86c7e2c70af12728371c80563b29b2f3391",
      "function": "swap((address,address,uint24,int24,address),(bool,int256,uint160),bytes)",
      "arguments": [
        "(0x1c7D4B196Cb0C7B01d743Fbc6116a902379C7238, 0xfFf9976782d46CC05630D1f6eBAb18b2324d6B14, 3000, 60, 0x5C13377F19B9AEB3CB00Fcc8E58e9A2B43889540)",
        "(false, -100000000000000, 1461446703485210103287273052203988822378723970341)",
        "0x"
      ],
      "transaction": {
        "from": "0x63f976191f9dd75bd5b0fd81320d37fbc0d74080",
        "to": "0x0436b86c7e2c70af12728371c80563b29b2f3391",
        "gas": "0x24d0c",
        "value": "0x0",
        "input": "0xf3cd914c0000000000000000000000001c7d4b196cb0c7b01d743fbc6116a902379c7238000000000000000000000000fff9976782d46cc05630d1f6ebab18b2324d6b140000000000000000000000000000000000000000000000000000000000000bb8000000000000000000000000000000000000000000000000000000000000003c0000000000000000000000005c13377f19b9aeb3cb00fcc8e58e9a2b438895400000000000000000000000000000000000000000000000000000000000000000ffffffffffffffffffffffffffffffffffffffffffffffffffffa50cef85c000000000000000000000000000fffd8963efd1fc6a506488495d951d5263988d2500000000000000000000000000000000000000000000000000000000000001200000000000000000000000000000000000000000000000000000000000000000",
        "nonce": "0x10f2",
        "chainId": "0xaa36a7"
      },
      "additionalContracts": [],
      "isFixedGasLimit": false
    },
    {
      "hash": "0x34a2757ef0eb90550daab05450926b3033ffb8bae5acb8b2d5aa561812ae67b0",
      "transactionType": "CALL",
      "contractName": "SwapHelper",
      "contractAddress": "0x0436b86c7e2c70af12728371c80563b29b2f3391",
      "function": "swap((address,address,uint24,int24,address),(bool,int256,uint160),bytes)",
      "arguments": [
        "(0x1c7D4B196Cb0C7B01d743Fbc6116a902379C7238, 0xfFf9976782d46CC05630D1f6eBAb18b2324d6B14, 3000, 60, 0x5C13377F19B9AEB3CB00Fcc8E58e9A2B43889540)",
        "(false, -100000000000000, 1461446703485210103287273052203988822378723970341)",
        "0x"
      ],
      "transaction": {
        "from": "0x63f976191f9dd75bd5b0fd81320d37fbc0d74080",
        "to": "0x0436b86c7e2c70af12728371c80563b29b2f3391",
        "gas": "0x26fb8",
        "value": "0x0",
        "input": "0xf3cd914c0000000000000000000000001c7d4b196cb0c7b01d743fbc6116a902379c7238000000000000000000000000fff9976782d46cc05630d1f6ebab18b2324d6b140000000000000000000000000000000000000000000000000000000000000bb8000000000000000000000000000000000000000000000000000000000000003c0000000000000000000000005c13377f19b9aeb3cb00fcc8e58e9a2b438895400000000000000000000000000000000000000000000000000000000000000000ffffffffffffffffffffffffffffffffffffffffffffffffffffa50cef85c000000000000000000000000000fffd8963efd1fc6a506488495d951d5263988d2500000000000000000000000000000000000000000000000000000000000001200000000000000000000000000000000000000000000000000000000000000000",
        "nonce": "0x10f3",
        "chainId": "0xaa36a7"
      },
      "additionalContracts": [],
      "isFixedGasLimit": false
    },
    {
      "hash": "0xd17862a71384e297f6bca366d6b3a3f0ba778d043d13c00bd7059ac738339bac",
      "transactionType": "CALL",
      "contractName": "SwapHelper",
      "contractAddress": "0x0436b86c7e2c70af12728371c80563b29b2f3391",
      "function": "swap((address,address,uint24,int24,address),(bool,int256,uint160),bytes)",
      "arguments": [
        "(0x1c7D4B196Cb0C7B01d743Fbc6116a902379C7238, 0xfFf9976782d46CC05630D1f6eBAb18b2324d6B14, 3000, 60, 0x5C13377F19B9AEB3CB00Fcc8E58e9A2B43889540)",
        "(false, -100000000000000, 1461446703485210103287273052203988822378723970341)",
        "0x"
      ],
      "transaction": {
        "from": "0x63f976191f9dd75bd5b0fd81320d37fbc0d74080",
        "to": "0x0436b86c7e2c70af12728371c80563b29b2f3391",
        "gas": "0x26a48",
        "value": "0x0",
        "input": "0xf3cd914c0000000000000000000000001c7d4b196cb0c7b01d743fbc6116a902379c7238000000000000000000000000fff9976782d46cc05630d1f6ebab18b2324d6b140000000000000000000000000000000000000000000000000000000000000bb8000000000000000000000000000000000000000000000000000000000000003c0000000000000000000000005c13377f19b9aeb3cb00fcc8e58e9a2b438895400000000000000000000000000000000000000000000000000000000000000000ffffffffffffffffffffffffffffffffffffffffffffffffffffa50cef85c000000000000000000000000000fffd8963efd1fc6a506488495d951d5263988d2500000000000000000000000000000000000000000000000000000000000001200000000000000000000000000000000000000000000000000000000000000000",
        "nonce": "0x10f4",
        "chainId": "0xaa36a7"
      },
      "additionalContracts": [],
      "isFixedGasLimit": false
    },
    {
      "hash": "0x30703a02ffd5163c6126f3f3d9d9006c488da0778bdb15baa9c4936027eef00a",
      "transactionType": "CALL",
      "contractName": "SwapHelper",
      "contractAddress": "0x0436b86c7e2c70af12728371c80563b29b2f3391",
      "function": "swap((address,address,uint24,int24,address),(bool,int256,uint160),bytes)",
      "arguments": [
        "(0x1c7D4B196Cb0C7B01d743Fbc6116a902379C7238, 0xfFf9976782d46CC05630D1f6eBAb18b2324d6B14, 3000, 60, 0x5C13377F19B9AEB3CB00Fcc8E58e9A2B43889540)",
        "(false, -100000000000000, 1461446703485210103287273052203988822378723970341)",
        "0x"
      ],
      "transaction": {
        "from": "0x63f976191f9dd75bd5b0fd81320d37fbc0d74080",
        "to": "0x0436b86c7e2c70af12728371c80563b29b2f3391",
        "gas": "0x24d90",
        "value": "0x0",
        "input": "0xf3cd914c0000000000000000000000001c7d4b196cb0c7b01d743fbc6116a902379c7238000000000000000000000000fff9976782d46cc05630d1f6ebab18b2324d6b140000000000000000000000000000000000000000000000000000000000000bb8000000000000000000000000000000000000000000000000000000000000003c0000000000000000000000005c13377f19b9aeb3cb00fcc8e58e9a2b438895400000000000000000000000000000000000000000000000000000000000000000ffffffffffffffffffffffffffffffffffffffffffffffffffffa50cef85c000000000000000000000000000fffd8963efd1fc6a506488495d951d5263988d2500000000000000000000000000000000000000000000000000000000000001200000000000000000000000000000000000000000000000000000000000000000",
        "nonce": "0x10f5",
        "chainId": "0xaa36a7"
      },
      "additionalContracts": [],
      "isFixedGasLimit": false
    },
    {
      "hash": "0x5ad8b0263f2e1b88e292b365293fffbd38120c72228ee54db6fb2be791326023",
      "transactionType": "CALL",
      "contractName": "SwapHelper",
      "contractAddress": "0x0436b86c7e2c70af12728371c80563b29b2f3391",
      "function": "swap((address,address,uint24,int24,address),(bool,int256,uint160),bytes)",
      "arguments": [
        "(0x1c7D4B196Cb0C7B01d743Fbc6116a902379C7238, 0xfFf9976782d46CC05630D1f6eBAb18b2324d6B14, 3000, 60, 0x5C13377F19B9AEB3CB00Fcc8E58e9A2B43889540)",
        "(false, -100000000000000, 1461446703485210103287273052203988822378723970341)",
        "0x"
      ],
      "transaction": {
        "from": "0x63f976191f9dd75bd5b0fd81320d37fbc0d74080",
        "to": "0x0436b86c7e2c70af12728371c80563b29b2f3391",
        "gas": "0x24d90",
        "value": "0x0",
        "input": "0xf3cd914c0000000000000000000000001c7d4b196cb0c7b01d743fbc6116a902379c7238000000000000000000000000fff9976782d46cc05630d1f6ebab18b2324d6b140000000000000000000000000000000000000000000000000000000000000bb8000000000000000000000000000000000000000000000000000000000000003c0000000000000000000000005c13377f19b9aeb3cb00fcc8e58e9a2b438895400000000000000000000000000000000000000000000000000000000000000000ffffffffffffffffffffffffffffffffffffffffffffffffffffa50cef85c000000000000000000000000000fffd8963efd1fc6a506488495d951d5263988d2500000000000000000000000000000000000000000000000000000000000001200000000000000000000000000000000000000000000000000000000000000000",
        "nonce": "0x10f6",
        "chainId": "0xaa36a7"
      },
      "additionalContracts": [],
      "isFixedGasLimit": false
    },
    {
      "hash": "0x9be1ba1c4740ba178edcc0cf95cae01bc506a688a12a153006ea1093f087b34b",
      "transactionType": "CALL",
      "contractName": "SwapHelper",
      "contractAddress": "0x0436b86c7e2c70af12728371c80563b29b2f3391",
      "function": "swap((address,address,uint24,int24,address),(bool,int256,uint160),bytes)",
      "arguments": [
        "(0x1c7D4B196Cb0C7B01d743Fbc6116a902379C7238, 0xfFf9976782d46CC05630D1f6eBAb18b2324d6B14, 3000, 60, 0x5C13377F19B9AEB3CB00Fcc8E58e9A2B43889540)",
        "(false, -100000000000000, 1461446703485210103287273052203988822378723970341)",
        "0x"
      ],
      "transaction": {
        "from": "0x63f976191f9dd75bd5b0fd81320d37fbc0d74080",
        "to": "0x0436b86c7e2c70af12728371c80563b29b2f3391",
        "gas": "0x24d0c",
        "value": "0x0",
        "input": "0xf3cd914c0000000000000000000000001c7d4b196cb0c7b01d743fbc6116a902379c7238000000000000000000000000fff9976782d46cc05630d1f6ebab18b2324d6b140000000000000000000000000000000000000000000000000000000000000bb8000000000000000000000000000000000000000000000000000000000000003c0000000000000000000000005c13377f19b9aeb3cb00fcc8e58e9a2b438895400000000000000000000000000000000000000000000000000000000000000000ffffffffffffffffffffffffffffffffffffffffffffffffffffa50cef85c000000000000000000000000000fffd8963efd1fc6a506488495d951d5263988d2500000000000000000000000000000000000000000000000000000000000001200000000000000000000000000000000000000000000000000000000000000000",
        "nonce": "0x10f7",
        "chainId": "0xaa36a7"
      },
      "additionalContracts": [],
      "isFixedGasLimit": false
    },
    {
      "hash": "0xd9218749cef982f194e5da59e40c59471305b9aa28386fd418eb6711151d5759",
      "transactionType": "CALL",
      "contractName": "SwapHelper",
      "contractAddress": "0x0436b86c7e2c70af12728371c80563b29b2f3391",
      "function": "swap((address,address,uint24,int24,address),(bool,int256,uint160),bytes)",
      "arguments": [
        "(0x1c7D4B196Cb0C7B01d743Fbc6116a902379C7238, 0xfFf9976782d46CC05630D1f6eBAb18b2324d6B14, 3000, 60, 0x5C13377F19B9AEB3CB00Fcc8E58e9A2B43889540)",
        "(false, -100000000000000, 1461446703485210103287273052203988822378723970341)",
        "0x"
      ],
      "transaction": {
        "from": "0x63f976191f9dd75bd5b0fd81320d37fbc0d74080",
        "to": "0x0436b86c7e2c70af12728371c80563b29b2f3391",
        "gas": "0x26fe7",
        "value": "0x0",
        "input": "0xf3cd914c0000000000000000000000001c7d4b196cb0c7b01d743fbc6116a902379c7238000000000000000000000000fff9976782d46cc05630d1f6ebab18b2324d6b140000000000000000000000000000000000000000000000000000000000000bb8000000000000000000000000000000000000000000000000000000000000003c0000000000000000000000005c13377f19b9aeb3cb00fcc8e58e9a2b438895400000000000000000000000000000000000000000000000000000000000000000ffffffffffffffffffffffffffffffffffffffffffffffffffffa50cef85c000000000000000000000000000fffd8963efd1fc6a506488495d951d5263988d2500000000000000000000000000000000000000000000000000000000000001200000000000000000000000000000000000000000000000000000000000000000",
        "nonce": "0x10f8",
        "chainId": "0xaa36a7"
      },
      "additionalContracts": [],
      "isFixedGasLimit": false
    },
    {
      "hash": "0x98d5aaeaac420d1debea5cc1bf101400014ab04e31f177751db5244d973e58fc",
      "transactionType": "CALL",
      "contractName": "SwapHelper",
      "contractAddress": "0x0436b86c7e2c70af12728371c80563b29b2f3391",
      "function": "swap((address,address,uint24,int24,address),(bool,int256,uint160),bytes)",
      "arguments": [
        "(0x1c7D4B196Cb0C7B01d743Fbc6116a902379C7238, 0xfFf9976782d46CC05630D1f6eBAb18b2324d6B14, 3000, 60, 0x5C13377F19B9AEB3CB00Fcc8E58e9A2B43889540)",
        "(false, -100000000000000, 1461446703485210103287273052203988822378723970341)",
        "0x"
      ],
      "transaction": {
        "from": "0x63f976191f9dd75bd5b0fd81320d37fbc0d74080",
        "to": "0x0436b86c7e2c70af12728371c80563b29b2f3391",
        "gas": "0x24d0c",
        "value": "0x0",
        "input": "0xf3cd914c0000000000000000000000001c7d4b196cb0c7b01d743fbc6116a902379c7238000000000000000000000000fff9976782d46cc05630d1f6ebab18b2324d6b140000000000000000000000000000000000000000000000000000000000000bb8000000000000000000000000000000000000000000000000000000000000003c0000000000000000000000005c13377f19b9aeb3cb00fcc8e58e9a2b438895400000000000000000000000000000000000000000000000000000000000000000ffffffffffffffffffffffffffffffffffffffffffffffffffffa50cef85c000000000000000000000000000fffd8963efd1fc6a506488495d951d5263988d2500000000000000000000000000000000000000000000000000000000000001200000000000000000000000000000000000000000000000000000000000000000",
        "nonce": "0x10f9",
        "chainId": "0xaa36a7"
      },
      "additionalContracts": [],
      "isFixedGasLimit": false
    },
    {
      "hash": "0x0012efd092e628f207f41c081a65a913041929f5a4cc9101b7726d40295cedcf",
      "transactionType": "CALL",
      "contractName": "SwapHelper",
      "contractAddress": "0x0436b86c7e2c70af12728371c80563b29b2f3391",
      "function": "swap((address,address,uint24,int24,address),(bool,int256,uint160),bytes)",
      "arguments": [
        "(0x1c7D4B196Cb0C7B01d743Fbc6116a902379C7238, 0xfFf9976782d46CC05630D1f6eBAb18b2324d6B14, 3000, 60, 0x5C13377F19B9AEB3CB00Fcc8E58e9A2B43889540)",
        "(false, -100000000000000, 1461446703485210103287273052203988822378723970341)",
        "0x"
      ],
      "transaction": {
        "from": "0x63f976191f9dd75bd5b0fd81320d37fbc0d74080",
        "to": "0x0436b86c7e2c70af12728371c80563b29b2f3391",
        "gas": "0x24d90",
        "value": "0x0",
        "input": "0xf3cd914c0000000000000000000000001c7d4b196cb0c7b01d743fbc6116a902379c7238000000000000000000000000fff9976782d46cc05630d1f6ebab18b2324d6b140000000000000000000000000000000000000000000000000000000000000bb8000000000000000000000000000000000000000000000000000000000000003c0000000000000000000000005c13377f19b9aeb3cb00fcc8e58e9a2b438895400000000000000000000000000000000000000000000000000000000000000000ffffffffffffffffffffffffffffffffffffffffffffffffffffa50cef85c000000000000000000000000000fffd8963efd1fc6a506488495d951d5263988d2500000000000000000000000000000000000000000000000000000000000001200000000000000000000000000000000000000000000000000000000000000000",
        "nonce": "0x10fa",
        "chainId": "0xaa36a7"
      },
      "additionalContracts": [],
      "isFixedGasLimit": false
    },
    {
      "hash": "0x63165cfc56d14a9d8ea5a8852726938546a8b6a8128a015c3344e634b73bab51",
      "transactionType": "CALL",
      "contractName": "SwapHelper",
      "contractAddress": "0x0436b86c7e2c70af12728371c80563b29b2f3391",
      "function": "swap((address,address,uint24,int24,address),(bool,int256,uint160),bytes)",
      "arguments": [
        "(0x1c7D4B196Cb0C7B01d743Fbc6116a902379C7238, 0xfFf9976782d46CC05630D1f6eBAb18b2324d6B14, 3000, 60, 0x5C13377F19B9AEB3CB00Fcc8E58e9A2B43889540)",
        "(false, -100000000000000, 1461446703485210103287273052203988822378723970341)",
        "0x"
      ],
      "transaction": {
        "from": "0x63f976191f9dd75bd5b0fd81320d37fbc0d74080",
        "to": "0x0436b86c7e2c70af12728371c80563b29b2f3391",
        "gas": "0x24d38",
        "value": "0x0",
        "input": "0xf3cd914c0000000000000000000000001c7d4b196cb0c7b01d743fbc6116a902379c7238000000000000000000000000fff9976782d46cc05630d1f6ebab18b2324d6b140000000000000000000000000000000000000000000000000000000000000bb8000000000000000000000000000000000000000000000000000000000000003c0000000000000000000000005c13377f19b9aeb3cb00fcc8e58e9a2b438895400000000000000000000000000000000000000000000000000000000000000000ffffffffffffffffffffffffffffffffffffffffffffffffffffa50cef85c000000000000000000000000000fffd8963efd1fc6a506488495d951d5263988d2500000000000000000000000000000000000000000000000000000000000001200000000000000000000000000000000000000000000000000000000000000000",
        "nonce": "0x10fb",
        "chainId": "0xaa36a7"
      },
      "additionalContracts": [],
      "isFixedGasLimit": false
    },
    {
      "hash": "0xc32fb1acef23622dca9cd7baca56177df247ff6aed83ae7dbfafa93195a01e26",
      "transactionType": "CALL",
      "contractName": "SwapHelper",
      "contractAddress": "0x0436b86c7e2c70af12728371c80563b29b2f3391",
      "function": "swap((address,address,uint24,int24,address),(bool,int256,uint160),bytes)",
      "arguments": [
        "(0x1c7D4B196Cb0C7B01d743Fbc6116a902379C7238, 0xfFf9976782d46CC05630D1f6eBAb18b2324d6B14, 3000, 60, 0x5C13377F19B9AEB3CB00Fcc8E58e9A2B43889540)",
        "(false, -100000000000000, 1461446703485210103287273052203988822378723970341)",
        "0x"
      ],
      "transaction": {
        "from": "0x63f976191f9dd75bd5b0fd81320d37fbc0d74080",
        "to": "0x0436b86c7e2c70af12728371c80563b29b2f3391",
        "gas": "0x26fe7",
        "value": "0x0",
        "input": "0xf3cd914c0000000000000000000000001c7d4b196cb0c7b01d743fbc6116a902379c7238000000000000000000000000fff9976782d46cc05630d1f6ebab18b2324d6b140000000000000000000000000000000000000000000000000000000000000bb8000000000000000000000000000000000000000000000000000000000000003c0000000000000000000000005c13377f19b9aeb3cb00fcc8e58e9a2b438895400000000000000000000000000000000000000000000000000000000000000000ffffffffffffffffffffffffffffffffffffffffffffffffffffa50cef85c000000000000000000000000000fffd8963efd1fc6a506488495d951d5263988d2500000000000000000000000000000000000000000000000000000000000001200000000000000000000000000000000000000000000000000000000000000000",
        "nonce": "0x10fc",
        "chainId": "0xaa36a7"
      },
      "additionalContracts": [],
      "isFixedGasLimit": false
    },
    {
      "hash": "0xe99a43febdbc610a779dbeb1884b77c28cfa4b95dbd3de7213450e89e361e4cf",
      "transactionType": "CALL",
      "contractName": "SwapHelper",
      "contractAddress": "0x0436b86c7e2c70af12728371c80563b29b2f3391",
      "function": "swap((address,address,uint24,int24,address),(bool,int256,uint160),bytes)",
      "arguments": [
        "(0x1c7D4B196Cb0C7B01d743Fbc6116a902379C7238, 0xfFf9976782d46CC05630D1f6eBAb18b2324d6B14, 3000, 60, 0x5C13377F19B9AEB3CB00Fcc8E58e9A2B43889540)",
        "(false, -100000000000000, 1461446703485210103287273052203988822378723970341)",
        "0x"
      ],
      "transaction": {
        "from": "0x63f976191f9dd75bd5b0fd81320d37fbc0d74080",
        "to": "0x0436b86c7e2c70af12728371c80563b29b2f3391",
        "gas": "0x26a48",
        "value": "0x0",
        "input": "0xf3cd914c0000000000000000000000001c7d4b196cb0c7b01d743fbc6116a902379c7238000000000000000000000000fff9976782d46cc05630d1f6ebab18b2324d6b140000000000000000000000000000000000000000000000000000000000000bb8000000000000000000000000000000000000000000000000000000000000003c0000000000000000000000005c13377f19b9aeb3cb00fcc8e58e9a2b438895400000000000000000000000000000000000000000000000000000000000000000ffffffffffffffffffffffffffffffffffffffffffffffffffffa50cef85c000000000000000000000000000fffd8963efd1fc6a506488495d951d5263988d2500000000000000000000000000000000000000000000000000000000000001200000000000000000000000000000000000000000000000000000000000000000",
        "nonce": "0x10fd",
        "chainId": "0xaa36a7"
      },
      "additionalContracts": [],
      "isFixedGasLimit": false
    },
    {
      "hash": "0xe556da907cbabda1e30b86f986385c2f35e39ffdd601627844cffcd8f2fe38c4",
      "transactionType": "CALL",
      "contractName": "SwapHelper",
      "contractAddress": "0x0436b86c7e2c70af12728371c80563b29b2f3391",
      "function": "swap((address,address,uint24,int24,address),(bool,int256,uint160),bytes)",
      "arguments": [
        "(0x1c7D4B196Cb0C7B01d743Fbc6116a902379C7238, 0xfFf9976782d46CC05630D1f6eBAb18b2324d6B14, 3000, 60, 0x5C13377F19B9AEB3CB00Fcc8E58e9A2B43889540)",
        "(false, -100000000000000, 1461446703485210103287273052203988822378723970341)",
        "0x"
      ],
      "transaction": {
        "from": "0x63f976191f9dd75bd5b0fd81320d37fbc0d74080",
        "to": "0x0436b86c7e2c70af12728371c80563b29b2f3391",
        "gas": "0x26fe7",
        "value": "0x0",
        "input": "0xf3cd914c0000000000000000000000001c7d4b196cb0c7b01d743fbc6116a902379c7238000000000000000000000000fff9976782d46cc05630d1f6ebab18b2324d6b140000000000000000000000000000000000000000000000000000000000000bb8000000000000000000000000000000000000000000000000000000000000003c0000000000000000000000005c13377f19b9aeb3cb00fcc8e58e9a2b438895400000000000000000000000000000000000000000000000000000000000000000ffffffffffffffffffffffffffffffffffffffffffffffffffffa50cef85c000000000000000000000000000fffd8963efd1fc6a506488495d951d5263988d2500000000000000000000000000000000000000000000000000000000000001200000000000000000000000000000000000000000000000000000000000000000",
        "nonce": "0x10fe",
        "chainId": "0xaa36a7"
      },
      "additionalContracts": [],
      "isFixedGasLimit": false
    },
    {
      "hash": "0x9ba2fa55bb1d0504707272fb1b8629db79669e9ba4985afebb02722b7b445fed",
      "transactionType": "CALL",
      "contractName": "SwapHelper",
      "contractAddress": "0x0436b86c7e2c70af12728371c80563b29b2f3391",
      "function": "swap((address,address,uint24,int24,address),(bool,int256,uint160),bytes)",
      "arguments": [
        "(0x1c7D4B196Cb0C7B01d743Fbc6116a902379C7238, 0xfFf9976782d46CC05630D1f6eBAb18b2324d6B14, 3000, 60, 0x5C13377F19B9AEB3CB00Fcc8E58e9A2B43889540)",
        "(false, -100000000000000, 1461446703485210103287273052203988822378723970341)",
        "0x"
      ],
      "transaction": {
        "from": "0x63f976191f9dd75bd5b0fd81320d37fbc0d74080",
        "to": "0x0436b86c7e2c70af12728371c80563b29b2f3391",
        "gas": "0x24dbc",
        "value": "0x0",
        "input": "0xf3cd914c0000000000000000000000001c7d4b196cb0c7b01d743fbc6116a902379c7238000000000000000000000000fff9976782d46cc05630d1f6ebab18b2324d6b140000000000000000000000000000000000000000000000000000000000000bb8000000000000000000000000000000000000000000000000000000000000003c0000000000000000000000005c13377f19b9aeb3cb00fcc8e58e9a2b438895400000000000000000000000000000000000000000000000000000000000000000ffffffffffffffffffffffffffffffffffffffffffffffffffffa50cef85c000000000000000000000000000fffd8963efd1fc6a506488495d951d5263988d2500000000000000000000000000000000000000000000000000000000000001200000000000000000000000000000000000000000000000000000000000000000",
        "nonce": "0x10ff",
        "chainId": "0xaa36a7"
      },
      "additionalContracts": [],
      "isFixedGasLimit": false
    },
    {
      "hash": "0x1174f3fd584913862a200639da88d287cbe990377a7736c6192a3c5331de1774",
      "transactionType": "CALL",
      "contractName": "SwapHelper",
      "contractAddress": "0x0436b86c7e2c70af12728371c80563b29b2f3391",
      "function": "swap((address,address,uint24,int24,address),(bool,int256,uint160),bytes)",
      "arguments": [
        "(0x1c7D4B196Cb0C7B01d743Fbc6116a902379C7238, 0xfFf9976782d46CC05630D1f6eBAb18b2324d6B14, 3000, 60, 0x5C13377F19B9AEB3CB00Fcc8E58e9A2B43889540)",
        "(false, -100000000000000, 1461446703485210103287273052203988822378723970341)",
        "0x"
      ],
      "transaction": {
        "from": "0x63f976191f9dd75bd5b0fd81320d37fbc0d74080",
        "to": "0x0436b86c7e2c70af12728371c80563b29b2f3391",
        "gas": "0x26fb8",
        "value": "0x0",
        "input": "0xf3cd914c0000000000000000000000001c7d4b196cb0c7b01d743fbc6116a902379c7238000000000000000000000000fff9976782d46cc05630d1f6ebab18b2324d6b140000000000000000000000000000000000000000000000000000000000000bb8000000000000000000000000000000000000000000000000000000000000003c0000000000000000000000005c13377f19b9aeb3cb00fcc8e58e9a2b438895400000000000000000000000000000000000000000000000000000000000000000ffffffffffffffffffffffffffffffffffffffffffffffffffffa50cef85c000000000000000000000000000fffd8963efd1fc6a506488495d951d5263988d2500000000000000000000000000000000000000000000000000000000000001200000000000000000000000000000000000000000000000000000000000000000",
        "nonce": "0x1100",
        "chainId": "0xaa36a7"
      },
      "additionalContracts": [],
      "isFixedGasLimit": false
    },
    {
      "hash": "0x8c2e93b2cc951bee2d509bacd9549e9e3cc56bfa69744902c803faf4647b05d3",
      "transactionType": "CALL",
      "contractName": "SwapHelper",
      "contractAddress": "0x0436b86c7e2c70af12728371c80563b29b2f3391",
      "function": "swap((address,address,uint24,int24,address),(bool,int256,uint160),bytes)",
      "arguments": [
        "(0x1c7D4B196Cb0C7B01d743Fbc6116a902379C7238, 0xfFf9976782d46CC05630D1f6eBAb18b2324d6B14, 3000, 60, 0x5C13377F19B9AEB3CB00Fcc8E58e9A2B43889540)",
        "(false, -100000000000000, 1461446703485210103287273052203988822378723970341)",
        "0x"
      ],
      "transaction": {
        "from": "0x63f976191f9dd75bd5b0fd81320d37fbc0d74080",
        "to": "0x0436b86c7e2c70af12728371c80563b29b2f3391",
        "gas": "0x26fe7",
        "value": "0x0",
        "input": "0xf3cd914c0000000000000000000000001c7d4b196cb0c7b01d743fbc6116a902379c7238000000000000000000000000fff9976782d46cc05630d1f6ebab18b2324d6b140000000000000000000000000000000000000000000000000000000000000bb8000000000000000000000000000000000000000000000000000000000000003c0000000000000000000000005c13377f19b9aeb3cb00fcc8e58e9a2b438895400000000000000000000000000000000000000000000000000000000000000000ffffffffffffffffffffffffffffffffffffffffffffffffffffa50cef85c000000000000000000000000000fffd8963efd1fc6a506488495d951d5263988d2500000000000000000000000000000000000000000000000000000000000001200000000000000000000000000000000000000000000000000000000000000000",
        "nonce": "0x1101",
        "chainId": "0xaa36a7"
      },
      "additionalContracts": [],
      "isFixedGasLimit": false
    },
    {
      "hash": "0x8c3515631f9ecb29144af1bb36ce22b5114e3929aae8f7c53d80ca7d5eaf131f",
      "transactionType": "CALL",
      "contractName": "SwapHelper",
      "contractAddress": "0x0436b86c7e2c70af12728371c80563b29b2f3391",
      "function": "swap((address,address,uint24,int24,address),(bool,int256,uint160),bytes)",
      "arguments": [
        "(0x1c7D4B196Cb0C7B01d743Fbc6116a902379C7238, 0xfFf9976782d46CC05630D1f6eBAb18b2324d6B14, 3000, 60, 0x5C13377F19B9AEB3CB00Fcc8E58e9A2B43889540)",
        "(false, -100000000000000, 1461446703485210103287273052203988822378723970341)",
        "0x"
      ],
      "transaction": {
        "from": "0x63f976191f9dd75bd5b0fd81320d37fbc0d74080",
        "to": "0x0436b86c7e2c70af12728371c80563b29b2f3391",
        "gas": "0x26fb8",
        "value": "0x0",
        "input": "0xf3cd914c0000000000000000000000001c7d4b196cb0c7b01d743fbc6116a902379c7238000000000000000000000000fff9976782d46cc05630d1f6ebab18b2324d6b140000000000000000000000000000000000000000000000000000000000000bb8000000000000000000000000000000000000000000000000000000000000003c0000000000000000000000005c13377f19b9aeb3cb00fcc8e58e9a2b438895400000000000000000000000000000000000000000000000000000000000000000ffffffffffffffffffffffffffffffffffffffffffffffffffffa50cef85c000000000000000000000000000fffd8963efd1fc6a506488495d951d5263988d2500000000000000000000000000000000000000000000000000000000000001200000000000000000000000000000000000000000000000000000000000000000",
        "nonce": "0x1102",
        "chainId": "0xaa36a7"
      },
      "additionalContracts": [],
      "isFixedGasLimit": false
    }
  ],
  "receipts": [
    {
      "status": "0x1",
      "cumulativeGasUsed": "0x38136c",
      "logs": [],
      "logsBloom": "0x00000000000000000000000000000000000000000000000000000000000000000000000000000000000000000000000000000000000000000000000000000000000000000000000000000000000000000000000000000000000000000000000000000000000000000000000000000000000000000000000000000000000000000000000000000000000000000000000000000000000000000000000000000000000000000000000000000000000000000000000000000000000000000000000000000000000000000000000000000000000000000000000000000000000000000000000000000000000000000000000000000000000000000000000000000000",
      "type": "0x2",
      "transactionHash": "0xbc8fffe442aaea352424f3ea0989c1433ddc6a9bca92c10a03a5b13ec0c17dc5",
      "transactionIndex": "0x1a",
      "blockHash": "0xac6b89b05ecd98ba85a06e4b2d48239ea7646fd0ef9ece065e735b94b4de84dd",
      "blockNumber": "0x987d2d",
      "gasUsed": "0xd808b",
      "effectiveGasPrice": "0xf4248",
      "from": "0x63f976191f9dd75bd5b0fd81320d37fbc0d74080",
      "to": null,
      "contractAddress": "0x0436b86c7e2c70af12728371c80563b29b2f3391"
    },
    {
      "status": "0x1",
      "cumulativeGasUsed": "0x948843",
      "logs": [
        {
          "address": "0xfff9976782d46cc05630d1f6ebab18b2324d6b14",
          "topics": [
            "0x8c5be1e5ebec7d5bd14f71427d1e84f3dd0314c0f7b2291e5b200ac8c7c3b925",
            "0x00000000000000000000000063f976191f9dd75bd5b0fd81320d37fbc0d74080",
            "0x0000000000000000000000000436b86c7e2c70af12728371c80563b29b2f3391"
          ],
          "data": "0xffffffffffffffffffffffffffffffffffffffffffffffffffffffffffffffff",
          "blockHash": "0xac6b89b05ecd98ba85a06e4b2d48239ea7646fd0ef9ece065e735b94b4de84dd",
          "blockNumber": "0x987d2d",
          "blockTimestamp": "0x695db3dc",
          "transactionHash": "0x715f29ce3e71a8df4516aad98386d3a40d556497e3231836947d4336e03ea500",
          "transactionIndex": "0x5b",
          "logIndex": "0x9f",
          "removed": false
        }
      ],
      "logsBloom": "0x00000000000000000000000000000001000000000000000000000000000000000000000000000000000000000000000000000000000010000000000000200000000000000000000000000000000000000000000000000000000000000000000000000000000000000000000000000000000000000000000000000000000000000040000000000000000000000000000000000000000000000000000000000000020020400000000000000000000000000000000000000000000000000000000000000000080000000002002000000000000000000000000000000000000000000010000000000000000000020000000000000000000000000000000000000000",
      "type": "0x2",
      "transactionHash": "0x715f29ce3e71a8df4516aad98386d3a40d556497e3231836947d4336e03ea500",
      "transactionIndex": "0x5b",
      "blockHash": "0xac6b89b05ecd98ba85a06e4b2d48239ea7646fd0ef9ece065e735b94b4de84dd",
      "blockNumber": "0x987d2d",
      "gasUsed": "0xb51c",
      "effectiveGasPrice": "0xf4248",
      "from": "0x63f976191f9dd75bd5b0fd81320d37fbc0d74080",
      "to": "0xfff9976782d46cc05630d1f6ebab18b2324d6b14",
      "contractAddress": null
    },
    {
      "status": "0x1",
      "cumulativeGasUsed": "0x95622c",
      "logs": [
        {
          "address": "0x1c7d4b196cb0c7b01d743fbc6116a902379c7238",
          "topics": [
            "0x8c5be1e5ebec7d5bd14f71427d1e84f3dd0314c0f7b2291e5b200ac8c7c3b925",
            "0x00000000000000000000000063f976191f9dd75bd5b0fd81320d37fbc0d74080",
            "0x0000000000000000000000000436b86c7e2c70af12728371c80563b29b2f3391"
          ],
          "data": "0xffffffffffffffffffffffffffffffffffffffffffffffffffffffffffffffff",
          "blockHash": "0xac6b89b05ecd98ba85a06e4b2d48239ea7646fd0ef9ece065e735b94b4de84dd",
          "blockNumber": "0x987d2d",
          "blockTimestamp": "0x695db3dc",
          "transactionHash": "0x2e3833fcce2e52830f4040ca620ccc4b1f03946186b68131af6dfdb5b96831d1",
          "transactionIndex": "0x5c",
          "logIndex": "0xa0",
          "removed": false
        }
      ],
      "logsBloom": "0x00000000000000000000000000000001000000000000000000000000000200000000000000000000000000000000000000000000000010000000000000200000000000000000000000000000000000000000000000000000000000000000000000000000000000000000000000000000000000000000000000000000000000000000000000100000000000000000000000000000000000000000000000000000020000400000000000000000000000000000000000000000000000000000000000000000080000000000002000000000000000000000000000000000000000000010000000000000000010020000000000000000000000000000000000000000",
      "type": "0x2",
      "transactionHash": "0x2e3833fcce2e52830f4040ca620ccc4b1f03946186b68131af6dfdb5b96831d1",
      "transactionIndex": "0x5c",
      "blockHash": "0xac6b89b05ecd98ba85a06e4b2d48239ea7646fd0ef9ece065e735b94b4de84dd",
      "blockNumber": "0x987d2d",
      "gasUsed": "0xd9e9",
      "effectiveGasPrice": "0xf4248",
      "from": "0x63f976191f9dd75bd5b0fd81320d37fbc0d74080",
      "to": "0x1c7d4b196cb0c7b01d743fbc6116a902379c7238",
      "contractAddress": null
    },
    {
      "status": "0x1",
      "cumulativeGasUsed": "0x970ce6",
      "logs": [
        {
          "address": "0x76e9e1affde82bb4544ce95ea58ffc2f9d45061f",
          "topics": [
            "0x40e9cecb9f5f1f1c5b9c97dec2917b7ee92e57ba5563708daca94dd84ad7112f",
            "0x6648efe854126eca977839455e095d4cb46e5035b64bc3aa0f8da2c5ebdce489",
            "0x0000000000000000000000000436b86c7e2c70af12728371c80563b29b2f3391"
          ],
          "data": "0x0000000000000000000000000000000000000000000000000000000000000000ffffffffffffffffffffffffffffffffffffffffffffffffffffa50cef85c00000000000000000000000000000005e8e6385c4ec97b41eb66853194791a2765e000000000000000000000000000000000000000000000000000000000000028d000000000000000000000000000000000000000000000000000000000009d99d0000000000000000000000000000000000000000000000000000000000000bb8",
          "blockHash": "0xac6b89b05ecd98ba85a06e4b2d48239ea7646fd0ef9ece065e735b94b4de84dd",
          "blockNumber": "0x987d2d",
          "blockTimestamp": "0x695db3dc",
          "transactionHash": "0x51c737bfa06bd3e9fbd2cabf8eed95d6a12e4f52cd043c8417deb48a8096d5d1",
          "transactionIndex": "0x5d",
          "logIndex": "0xa1",
          "removed": false
        },
        {
          "address": "0x5c13377f19b9aeb3cb00fcc8e58e9a2b43889540",
          "topics": [
            "0xcd9f4ccdc13709817c4447834a44bef5d62ffe25139e5c329d8debc5c177cc79",
            "0x6648efe854126eca977839455e095d4cb46e5035b64bc3aa0f8da2c5ebdce489"
          ],
          "data": "0x000000000000000000000000000000000000000000000000000000000000000000000000000000000000000000000000000000000000000000000045d964b8000000000000000000000000000000000000000000000000000000000000000bb80000000000000000000000000000000000000000000000000001ae02540cc00000000000000000000000000000000000000000000000000013af2b48f56a0bb8",
          "blockHash": "0xac6b89b05ecd98ba85a06e4b2d48239ea7646fd0ef9ece065e735b94b4de84dd",
          "blockNumber": "0x987d2d",
          "blockTimestamp": "0x695db3dc",
          "transactionHash": "0x51c737bfa06bd3e9fbd2cabf8eed95d6a12e4f52cd043c8417deb48a8096d5d1",
          "transactionIndex": "0x5d",
          "logIndex": "0xa2",
          "removed": false
        },
        {
          "address": "0xfff9976782d46cc05630d1f6ebab18b2324d6b14",
          "topics": [
            "0xddf252ad1be2c89b69c2b068fc378daa952ba7f163c4a11628f55a4df523b3ef",
            "0x00000000000000000000000063f976191f9dd75bd5b0fd81320d37fbc0d74080",
            "0x00000000000000000000000076e9e1affde82bb4544ce95ea58ffc2f9d45061f"
          ],
          "data": "0x00000000000000000000000000000000000000000000000000005af3107a4000",
          "blockHash": "0xac6b89b05ecd98ba85a06e4b2d48239ea7646fd0ef9ece065e735b94b4de84dd",
          "blockNumber": "0x987d2d",
          "blockTimestamp": "0x695db3dc",
          "transactionHash": "0x51c737bfa06bd3e9fbd2cabf8eed95d6a12e4f52cd043c8417deb48a8096d5d1",
          "transactionIndex": "0x5d",
          "logIndex": "0xa3",
          "removed": false
        }
      ],
      "logsBloom": "0x00001000000000000000000000000001002000000000000000000000000000000000000000000000000020000000000000000000040010000000000000001000000000000000000000000008000000000000000000000820000000000000010000000000000000000000004000000000000000000000000000000012000000000040000000000000000000000000010000000000000000000000000000000000000020400000040000000000000000000000000000000000000001000000000000000002080004000002002000000000000000000000000000008000000000000000000000000000004000020000050000000000000000000000000000000000",
      "type": "0x2",
      "transactionHash": "0x51c737bfa06bd3e9fbd2cabf8eed95d6a12e4f52cd043c8417deb48a8096d5d1",
      "transactionIndex": "0x5d",
      "blockHash": "0xac6b89b05ecd98ba85a06e4b2d48239ea7646fd0ef9ece065e735b94b4de84dd",
      "blockNumber": "0x987d2d",
      "gasUsed": "0x1aaba",
      "effectiveGasPrice": "0xf4248",
      "from": "0x63f976191f9dd75bd5b0fd81320d37fbc0d74080",
      "to": "0x0436b86c7e2c70af12728371c80563b29b2f3391",
      "contractAddress": null
    },
    {
      "status": "0x1",
      "cumulativeGasUsed": "0x98b79c",
      "logs": [
        {
          "address": "0x76e9e1affde82bb4544ce95ea58ffc2f9d45061f",
          "topics": [
            "0x40e9cecb9f5f1f1c5b9c97dec2917b7ee92e57ba5563708daca94dd84ad7112f",
            "0x6648efe854126eca977839455e095d4cb46e5035b64bc3aa0f8da2c5ebdce489",
            "0x0000000000000000000000000436b86c7e2c70af12728371c80563b29b2f3391"
          ],
          "data": "0x0000000000000000000000000000000000000000000000000000000000000000ffffffffffffffffffffffffffffffffffffffffffffffffffffa50cef85c00000000000000000000000000000005eb1eff4bfa4d990d62f8bfffca92fa01c32000000000000000000000000000000000000000000000000000000000000028d000000000000000000000000000000000000000000000000000000000009d9bb0000000000000000000000000000000000000000000000000000000000000bb8",
          "blockHash": "0xac6b89b05ecd98ba85a06e4b2d48239ea7646fd0ef9ece065e735b94b4de84dd",
          "blockNumber": "0x987d2d",
          "blockTimestamp": "0x695db3dc",
          "transactionHash": "0x4b856cfec1705183d8137c7691401580de1601e4d22efd1d5bae15706260f50e",
          "transactionIndex": "0x5e",
          "logIndex": "0xa4",
          "removed": false
        },
        {
          "address": "0x5c13377f19b9aeb3cb00fcc8e58e9a2b43889540",
          "topics": [
            "0xcd9f4ccdc13709817c4447834a44bef5d62ffe25139e5c329d8debc5c177cc79",
            "0x6648efe854126eca977839455e095d4cb46e5035b64bc3aa0f8da2c5ebdce489"
          ],
          "data": "0x000000000000000000000000000000000000000000000000000000000000000000000000000000000000000000000000000000000000000000000045d964b8000000000000000000000000000000000000000000000000000000000000000bb80000000000000000000000000000000000000000000000000001ae482d71780000000000000000000000000000000000000000000000000013b25dd489b64bb8",
          "blockHash": "0xac6b89b05ecd98ba85a06e4b2d48239ea7646fd0ef9ece065e735b94b4de84dd",
          "blockNumber": "0x987d2d",
          "blockTimestamp": "0x695db3dc",
          "transactionHash": "0x4b856cfec1705183d8137c7691401580de1601e4d22efd1d5bae15706260f50e",
          "transactionIndex": "0x5e",
          "logIndex": "0xa5",
          "removed": false
        },
        {
          "address": "0xfff9976782d46cc05630d1f6ebab18b2324d6b14",
          "topics": [
            "0xddf252ad1be2c89b69c2b068fc378daa952ba7f163c4a11628f55a4df523b3ef",
            "0x00000000000000000000000063f976191f9dd75bd5b0fd81320d37fbc0d74080",
            "0x00000000000000000000000076e9e1affde82bb4544ce95ea58ffc2f9d45061f"
          ],
          "data": "0x00000000000000000000000000000000000000000000000000005af3107a4000",
          "blockHash": "0xac6b89b05ecd98ba85a06e4b2d48239ea7646fd0ef9ece065e735b94b4de84dd",
          "blockNumber": "0x987d2d",
          "blockTimestamp": "0x695db3dc",
          "transactionHash": "0x4b856cfec1705183d8137c7691401580de1601e4d22efd1d5bae15706260f50e",
          "transactionIndex": "0x5e",
          "logIndex": "0xa6",
          "removed": false
        }
      ],
      "logsBloom": "0x00001000000000000000000000000001002000000000000000000000000000000000000000000000000020000000000000000000040010000000000000001000000000000000000000000008000000000000000000000820000000000000010000000000000000000000004000000000000000000000000000000012000000000040000000000000000000000000010000000000000000000000000000000000000020400000040000000000000000000000000000000000000001000000000000000002080004000002002000000000000000000000000000008000000000000000000000000000004000020000050000000000000000000000000000000000",
      "type": "0x2",
      "transactionHash": "0x4b856cfec1705183d8137c7691401580de1601e4d22efd1d5bae15706260f50e",
      "transactionIndex": "0x5e",
      "blockHash": "0xac6b89b05ecd98ba85a06e4b2d48239ea7646fd0ef9ece065e735b94b4de84dd",
      "blockNumber": "0x987d2d",
      "gasUsed": "0x1aab6",
      "effectiveGasPrice": "0xf4248",
      "from": "0x63f976191f9dd75bd5b0fd81320d37fbc0d74080",
      "to": "0x0436b86c7e2c70af12728371c80563b29b2f3391",
      "contractAddress": null
    },
    {
      "status": "0x1",
      "cumulativeGasUsed": "0x9a6236",
      "logs": [
        {
          "address": "0x76e9e1affde82bb4544ce95ea58ffc2f9d45061f",
          "topics": [
            "0x40e9cecb9f5f1f1c5b9c97dec2917b7ee92e57ba5563708daca94dd84ad7112f",
            "0x6648efe854126eca977839455e095d4cb46e5035b64bc3aa0f8da2c5ebdce489",
            "0x0000000000000000000000000436b86c7e2c70af12728371c80563b29b2f3391"
          ],
          "data": "0x0000000000000000000000000000000000000000000000000000000000000000ffffffffffffffffffffffffffffffffffffffffffffffffffffa50cef85c00000000000000000000000000000005ed57c63ba5d1b6d8da8aface00acd9dc206000000000000000000000000000000000000000000000000000000000000028d000000000000000000000000000000000000000000000000000000000009d9d80000000000000000000000000000000000000000000000000000000000000bb8",
          "blockHash": "0xac6b89b05ecd98ba85a06e4b2d48239ea7646fd0ef9ece065e735b94b4de84dd",
          "blockNumber": "0x987d2d",
          "blockTimestamp": "0x695db3dc",
          "transactionHash": "0x8ee38bfe0e222c2d7ecc9547927cb0e9f24ded0e9d914511e61455d69b3db63e",
          "transactionIndex": "0x5f",
          "logIndex": "0xa7",
          "removed": false
        },
        {
          "address": "0x5c13377f19b9aeb3cb00fcc8e58e9a2b43889540",
          "topics": [
            "0xcd9f4ccdc13709817c4447834a44bef5d62ffe25139e5c329d8debc5c177cc79",
            "0x6648efe854126eca977839455e095d4cb46e5035b64bc3aa0f8da2c5ebdce489"
          ],
          "data": "0x000000000000000000000000000000000000000000000000000000000000000000000000000000000000000000000000000000000000000000000045d964b8000000000000000000000000000000000000000000000000000000000000000bb80000000000000000000000000000000000000000000000000001ae8e06d6300000000000000000000000000000000000000000000000000013b590601e028bb8",
          "blockHash": "0xac6b89b05ecd98ba85a06e4b2d48239ea7646fd0ef9ece065e735b94b4de84dd",
          "blockNumber": "0x987d2d",
          "blockTimestamp": "0x695db3dc",
          "transactionHash": "0x8ee38bfe0e222c2d7ecc9547927cb0e9f24ded0e9d914511e61455d69b3db63e",
          "transactionIndex": "0x5f",
          "logIndex": "0xa8",
          "removed": false
        },
        {
          "address": "0xfff9976782d46cc05630d1f6ebab18b2324d6b14",
          "topics": [
            "0xddf252ad1be2c89b69c2b068fc378daa952ba7f163c4a11628f55a4df523b3ef",
            "0x00000000000000000000000063f976191f9dd75bd5b0fd81320d37fbc0d74080",
            "0x00000000000000000000000076e9e1affde82bb4544ce95ea58ffc2f9d45061f"
          ],
          "data": "0x00000000000000000000000000000000000000000000000000005af3107a4000",
          "blockHash": "0xac6b89b05ecd98ba85a06e4b2d48239ea7646fd0ef9ece065e735b94b4de84dd",
          "blockNumber": "0x987d2d",
          "blockTimestamp": "0x695db3dc",
          "transactionHash": "0x8ee38bfe0e222c2d7ecc9547927cb0e9f24ded0e9d914511e61455d69b3db63e",
          "transactionIndex": "0x5f",
          "logIndex": "0xa9",
          "removed": false
        }
      ],
      "logsBloom": "0x00001000000000000000000000000001002000000000000000000000000000000000000000000000000020000000000000000000040010000000000000001000000000000000000000000008000000000000000000000820000000000000010000000000000000000000004000000000000000000000000000000012000000000040000000000000000000000000010000000000000000000000000000000000000020400000040000000000000000000000000000000000000001000000000000000002080004000002002000000000000000000000000000008000000000000000000000000000004000020000050000000000000000000000000000000000",
      "type": "0x2",
      "transactionHash": "0x8ee38bfe0e222c2d7ecc9547927cb0e9f24ded0e9d914511e61455d69b3db63e",
      "transactionIndex": "0x5f",
      "blockHash": "0xac6b89b05ecd98ba85a06e4b2d48239ea7646fd0ef9ece065e735b94b4de84dd",
      "blockNumber": "0x987d2d",
      "gasUsed": "0x1aa9a",
      "effectiveGasPrice": "0xf4248",
      "from": "0x63f976191f9dd75bd5b0fd81320d37fbc0d74080",
      "to": "0x0436b86c7e2c70af12728371c80563b29b2f3391",
      "contractAddress": null
    },
    {
      "status": "0x1",
      "cumulativeGasUsed": "0x9c0d10",
      "logs": [
        {
          "address": "0x76e9e1affde82bb4544ce95ea58ffc2f9d45061f",
          "topics": [
            "0x40e9cecb9f5f1f1c5b9c97dec2917b7ee92e57ba5563708daca94dd84ad7112f",
            "0x6648efe854126eca977839455e095d4cb46e5035b64bc3aa0f8da2c5ebdce489",
            "0x0000000000000000000000000436b86c7e2c70af12728371c80563b29b2f3391"
          ],
          "data": "0x0000000000000000000000000000000000000000000000000000000000000000ffffffffffffffffffffffffffffffffffffffffffffffffffffa50cef85c00000000000000000000000000000005ef908d2b5155d4a4521d359c36c6b9b67da000000000000000000000000000000000000000000000000000000000000028d000000000000000000000000000000000000000000000000000000000009d9f50000000000000000000000000000000000000000000000000000000000000bb8",
          "blockHash": "0xac6b89b05ecd98ba85a06e4b2d48239ea7646fd0ef9ece065e735b94b4de84dd",
          "blockNumber": "0x987d2d",
          "blockTimestamp": "0x695db3dc",
          "transactionHash": "0xf6ee56ae9962a4097c36d6546b38a4ccf3f39ecc447b07e3b01c416a6a1b65c2",
          "transactionIndex": "0x60",
          "logIndex": "0xaa",
          "removed": false
        },
        {
          "address": "0x5c13377f19b9aeb3cb00fcc8e58e9a2b43889540",
          "topics": [
            "0xcd9f4ccdc13709817c4447834a44bef5d62ffe25139e5c329d8debc5c177cc79",
            "0x6648efe854126eca977839455e095d4cb46e5035b64bc3aa0f8da2c5ebdce489"
          ],
          "data": "0x000000000000000000000000000000000000000000000000000000000000000000000000000000000000000000000000000000000000000000000045d964b8000000000000000000000000000000000000000000000000000000000000000bb80000000000000000000000000000000000000000000000000001aed3e03ae80000000000000000000000000000000000000000000000000013b8c2ebb24ecbb8",
          "blockHash": "0xac6b89b05ecd98ba85a06e4b2d48239ea7646fd0ef9ece065e735b94b4de84dd",
          "blockNumber": "0x987d2d",
          "blockTimestamp": "0x695db3dc",
          "transactionHash": "0xf6ee56ae9962a4097c36d6546b38a4ccf3f39ecc447b07e3b01c416a6a1b65c2",
          "transactionIndex": "0x60",
          "logIndex": "0xab",
          "removed": false
        },
        {
          "address": "0xfff9976782d46cc05630d1f6ebab18b2324d6b14",
          "topics": [
            "0xddf252ad1be2c89b69c2b068fc378daa952ba7f163c4a11628f55a4df523b3ef",
            "0x00000000000000000000000063f976191f9dd75bd5b0fd81320d37fbc0d74080",
            "0x00000000000000000000000076e9e1affde82bb4544ce95ea58ffc2f9d45061f"
          ],
          "data": "0x00000000000000000000000000000000000000000000000000005af3107a4000",
          "blockHash": "0xac6b89b05ecd98ba85a06e4b2d48239ea7646fd0ef9ece065e735b94b4de84dd",
          "blockNumber": "0x987d2d",
          "blockTimestamp": "0x695db3dc",
          "transactionHash": "0xf6ee56ae9962a4097c36d6546b38a4ccf3f39ecc447b07e3b01c416a6a1b65c2",
          "transactionIndex": "0x60",
          "logIndex": "0xac",
          "removed": false
        }
      ],
      "logsBloom": "0x00001000000000000000000000000001002000000000000000000000000000000000000000000000000020000000000000000000040010000000000000001000000000000000000000000008000000000000000000000820000000000000010000000000000000000000004000000000000000000000000000000012000000000040000000000000000000000000010000000000000000000000000000000000000020400000040000000000000000000000000000000000000001000000000000000002080004000002002000000000000000000000000000008000000000000000000000000000004000020000050000000000000000000000000000000000",
      "type": "0x2",
      "transactionHash": "0xf6ee56ae9962a4097c36d6546b38a4ccf3f39ecc447b07e3b01c416a6a1b65c2",
      "transactionIndex": "0x60",
      "blockHash": "0xac6b89b05ecd98ba85a06e4b2d48239ea7646fd0ef9ece065e735b94b4de84dd",
      "blockNumber": "0x987d2d",
      "gasUsed": "0x1aada",
      "effectiveGasPrice": "0xf4248",
      "from": "0x63f976191f9dd75bd5b0fd81320d37fbc0d74080",
      "to": "0x0436b86c7e2c70af12728371c80563b29b2f3391",
      "contractAddress": null
    },
    {
      "status": "0x1",
      "cumulativeGasUsed": "0x9db766",
      "logs": [
        {
          "address": "0x76e9e1affde82bb4544ce95ea58ffc2f9d45061f",
          "topics": [
            "0x40e9cecb9f5f1f1c5b9c97dec2917b7ee92e57ba5563708daca94dd84ad7112f",
            "0x6648efe854126eca977839455e095d4cb46e5035b64bc3aa0f8da2c5ebdce489",
            "0x0000000000000000000000000436b86c7e2c70af12728371c80563b29b2f3391"
          ],
          "data": "0x0000000000000000000000000000000000000000000000000000000000000000ffffffffffffffffffffffffffffffffffffffffffffffffffffa50cef85c00000000000000000000000000000005f1c9541afcd9f26fc9af706a6ce09990dae000000000000000000000000000000000000000000000000000000000000028d000000000000000000000000000000000000000000000000000000000009da130000000000000000000000000000000000000000000000000000000000000bb8",
          "blockHash": "0xac6b89b05ecd98ba85a06e4b2d48239ea7646fd0ef9ece065e735b94b4de84dd",
          "blockNumber": "0x987d2d",
          "blockTimestamp": "0x695db3dc",
          "transactionHash": "0x98d5aaeaac420d1debea5cc1bf101400014ab04e31f177751db5244d973e58fc",
          "transactionIndex": "0x61",
          "logIndex": "0xad",
          "removed": false
        },
        {
          "address": "0x5c13377f19b9aeb3cb00fcc8e58e9a2b43889540",
          "topics": [
            "0xcd9f4ccdc13709817c4447834a44bef5d62ffe25139e5c329d8debc5c177cc79",
            "0x6648efe854126eca977839455e095d4cb46e5035b64bc3aa0f8da2c5ebdce489"
          ],
          "data": "0x000000000000000000000000000000000000000000000000000000000000000000000000000000000000000000000000000000000000000000000045d964b8000000000000000000000000000000000000000000000000000000000000000bb80000000000000000000000000000000000000000000000000001af19b99fa00000000000000000000000000000000000000000000000000013bbf577469b0bb8",
          "blockHash": "0xac6b89b05ecd98ba85a06e4b2d48239ea7646fd0ef9ece065e735b94b4de84dd",
          "blockNumber": "0x987d2d",
          "blockTimestamp": "0x695db3dc",
          "transactionHash": "0x98d5aaeaac420d1debea5cc1bf101400014ab04e31f177751db5244d973e58fc",
          "transactionIndex": "0x61",
          "logIndex": "0xae",
          "removed": false
        },
        {
          "address": "0xfff9976782d46cc05630d1f6ebab18b2324d6b14",
          "topics": [
            "0xddf252ad1be2c89b69c2b068fc378daa952ba7f163c4a11628f55a4df523b3ef",
            "0x00000000000000000000000063f976191f9dd75bd5b0fd81320d37fbc0d74080",
            "0x00000000000000000000000076e9e1affde82bb4544ce95ea58ffc2f9d45061f"
          ],
          "data": "0x00000000000000000000000000000000000000000000000000005af3107a4000",
          "blockHash": "0xac6b89b05ecd98ba85a06e4b2d48239ea7646fd0ef9ece065e735b94b4de84dd",
          "blockNumber": "0x987d2d",
          "blockTimestamp": "0x695db3dc",
          "transactionHash": "0x98d5aaeaac420d1debea5cc1bf101400014ab04e31f177751db5244d973e58fc",
          "transactionIndex": "0x61",
          "logIndex": "0xaf",
          "removed": false
        }
      ],
      "logsBloom": "0x00001000000000000000000000000001002000000000000000000000000000000000000000000000000020000000000000000000040010000000000000001000000000000000000000000008000000000000000000000820000000000000010000000000000000000000004000000000000000000000000000000012000000000040000000000000000000000000010000000000000000000000000000000000000020400000040000000000000000000000000000000000000001000000000000000002080004000002002000000000000000000000000000008000000000000000000000000000004000020000050000000000000000000000000000000000",
      "type": "0x2",
      "transactionHash": "0x98d5aaeaac420d1debea5cc1bf101400014ab04e31f177751db5244d973e58fc",
      "transactionIndex": "0x61",
      "blockHash": "0xac6b89b05ecd98ba85a06e4b2d48239ea7646fd0ef9ece065e735b94b4de84dd",
      "blockNumber": "0x987d2d",
      "gasUsed": "0x1aa56",
      "effectiveGasPrice": "0xf4248",
      "from": "0x63f976191f9dd75bd5b0fd81320d37fbc0d74080",
      "to": "0x0436b86c7e2c70af12728371c80563b29b2f3391",
      "contractAddress": null
    },
    {
      "status": "0x1",
      "cumulativeGasUsed": "0x9f61bc",
      "logs": [
        {
          "address": "0x76e9e1affde82bb4544ce95ea58ffc2f9d45061f",
          "topics": [
            "0x40e9cecb9f5f1f1c5b9c97dec2917b7ee92e57ba5563708daca94dd84ad7112f",
            "0x6648efe854126eca977839455e095d4cb46e5035b64bc3aa0f8da2c5ebdce489",
            "0x0000000000000000000000000436b86c7e2c70af12728371c80563b29b2f3391"
          ],
          "data": "0x0000000000000000000000000000000000000000000000000000000000000000ffffffffffffffffffffffffffffffffffffffffffffffffffffa50cef85c00000000000000000000000000000005f4021b0aa85e103b4141ab38a2fa796b382000000000000000000000000000000000000000000000000000000000000028d000000000000000000000000000000000000000000000000000000000009da300000000000000000000000000000000000000000000000000000000000000bb8",
          "blockHash": "0xac6b89b05ecd98ba85a06e4b2d48239ea7646fd0ef9ece065e735b94b4de84dd",
          "blockNumber": "0x987d2d",
          "blockTimestamp": "0x695db3dc",
          "transactionHash": "0x2f90fccdb8e2d8e89261985d2862dcc7d78f03e87a64356269ddcf43a50f1f88",
          "transactionIndex": "0x62",
          "logIndex": "0xb0",
          "removed": false
        },
        {
          "address": "0x5c13377f19b9aeb3cb00fcc8e58e9a2b43889540",
          "topics": [
            "0xcd9f4ccdc13709817c4447834a44bef5d62ffe25139e5c329d8debc5c177cc79",
            "0x6648efe854126eca977839455e095d4cb46e5035b64bc3aa0f8da2c5ebdce489"
          ],
          "data": "0x000000000000000000000000000000000000000000000000000000000000000000000000000000000000000000000000000000000000000000000045d964b8000000000000000000000000000000000000000000000000000000000000000bb80000000000000000000000000000000000000000000000000001af5f9304580000000000000000000000000000000000000000000000000013bf2802dae74bb8",
          "blockHash": "0xac6b89b05ecd98ba85a06e4b2d48239ea7646fd0ef9ece065e735b94b4de84dd",
          "blockNumber": "0x987d2d",
          "blockTimestamp": "0x695db3dc",
          "transactionHash": "0x2f90fccdb8e2d8e89261985d2862dcc7d78f03e87a64356269ddcf43a50f1f88",
          "transactionIndex": "0x62",
          "logIndex": "0xb1",
          "removed": false
        },
        {
          "address": "0xfff9976782d46cc05630d1f6ebab18b2324d6b14",
          "topics": [
            "0xddf252ad1be2c89b69c2b068fc378daa952ba7f163c4a11628f55a4df523b3ef",
            "0x00000000000000000000000063f976191f9dd75bd5b0fd81320d37fbc0d74080",
            "0x00000000000000000000000076e9e1affde82bb4544ce95ea58ffc2f9d45061f"
          ],
          "data": "0x00000000000000000000000000000000000000000000000000005af3107a4000",
          "blockHash": "0xac6b89b05ecd98ba85a06e4b2d48239ea7646fd0ef9ece065e735b94b4de84dd",
          "blockNumber": "0x987d2d",
          "blockTimestamp": "0x695db3dc",
          "transactionHash": "0x2f90fccdb8e2d8e89261985d2862dcc7d78f03e87a64356269ddcf43a50f1f88",
          "transactionIndex": "0x62",
          "logIndex": "0xb2",
          "removed": false
        }
      ],
      "logsBloom": "0x00001000000000000000000000000001002000000000000000000000000000000000000000000000000020000000000000000000040010000000000000001000000000000000000000000008000000000000000000000820000000000000010000000000000000000000004000000000000000000000000000000012000000000040000000000000000000000000010000000000000000000000000000000000000020400000040000000000000000000000000000000000000001000000000000000002080004000002002000000000000000000000000000008000000000000000000000000000004000020000050000000000000000000000000000000000",
      "type": "0x2",
      "transactionHash": "0x2f90fccdb8e2d8e89261985d2862dcc7d78f03e87a64356269ddcf43a50f1f88",
      "transactionIndex": "0x62",
      "blockHash": "0xac6b89b05ecd98ba85a06e4b2d48239ea7646fd0ef9ece065e735b94b4de84dd",
      "blockNumber": "0x987d2d",
      "gasUsed": "0x1aa56",
      "effectiveGasPrice": "0xf4248",
      "from": "0x63f976191f9dd75bd5b0fd81320d37fbc0d74080",
      "to": "0x0436b86c7e2c70af12728371c80563b29b2f3391",
      "contractAddress": null
    },
    {
      "status": "0x1",
      "cumulativeGasUsed": "0xa10c56",
      "logs": [
        {
          "address": "0x76e9e1affde82bb4544ce95ea58ffc2f9d45061f",
          "topics": [
            "0x40e9cecb9f5f1f1c5b9c97dec2917b7ee92e57ba5563708daca94dd84ad7112f",
            "0x6648efe854126eca977839455e095d4cb46e5035b64bc3aa0f8da2c5ebdce489",
            "0x0000000000000000000000000436b86c7e2c70af12728371c80563b29b2f3391"
          ],
          "data": "0x0000000000000000000000000000000000000000000000000000000000000000ffffffffffffffffffffffffffffffffffffffffffffffffffffa50cef85c00000000000000000000000000000005f63ae1fa53e22e06b8d3e606d9145945956000000000000000000000000000000000000000000000000000000000000028d000000000000000000000000000000000000000000000000000000000009da4d0000000000000000000000000000000000000000000000000000000000000bb8",
          "blockHash": "0xac6b89b05ecd98ba85a06e4b2d48239ea7646fd0ef9ece065e735b94b4de84dd",
          "blockNumber": "0x987d2d",
          "blockTimestamp": "0x695db3dc",
          "transactionHash": "0x9ba2fa55bb1d0504707272fb1b8629db79669e9ba4985afebb02722b7b445fed",
          "transactionIndex": "0x63",
          "logIndex": "0xb3",
          "removed": false
        },
        {
          "address": "0x5c13377f19b9aeb3cb00fcc8e58e9a2b43889540",
          "topics": [
            "0xcd9f4ccdc13709817c4447834a44bef5d62ffe25139e5c329d8debc5c177cc79",
            "0x6648efe854126eca977839455e095d4cb46e5035b64bc3aa0f8da2c5ebdce489"
          ],
          "data": "0x000000000000000000000000000000000000000000000000000000000000000000000000000000000000000000000000000000000000000000000045d964b8000000000000000000000000000000000000000000000000000000000000000bb80000000000000000000000000000000000000000000000000001afa56c69100000000000000000000000000000000000000000000000000013c25a8e6f338bb8",
          "blockHash": "0xac6b89b05ecd98ba85a06e4b2d48239ea7646fd0ef9ece065e735b94b4de84dd",
          "blockNumber": "0x987d2d",
          "blockTimestamp": "0x695db3dc",
          "transactionHash": "0x9ba2fa55bb1d0504707272fb1b8629db79669e9ba4985afebb02722b7b445fed",
          "transactionIndex": "0x63",
          "logIndex": "0xb4",
          "removed": false
        },
        {
          "address": "0xfff9976782d46cc05630d1f6ebab18b2324d6b14",
          "topics": [
            "0xddf252ad1be2c89b69c2b068fc378daa952ba7f163c4a11628f55a4df523b3ef",
            "0x00000000000000000000000063f976191f9dd75bd5b0fd81320d37fbc0d74080",
            "0x00000000000000000000000076e9e1affde82bb4544ce95ea58ffc2f9d45061f"
          ],
          "data": "0x00000000000000000000000000000000000000000000000000005af3107a4000",
          "blockHash": "0xac6b89b05ecd98ba85a06e4b2d48239ea7646fd0ef9ece065e735b94b4de84dd",
          "blockNumber": "0x987d2d",
          "blockTimestamp": "0x695db3dc",
          "transactionHash": "0x9ba2fa55bb1d0504707272fb1b8629db79669e9ba4985afebb02722b7b445fed",
          "transactionIndex": "0x63",
          "logIndex": "0xb5",
          "removed": false
        }
      ],
      "logsBloom": "0x00001000000000000000000000000001002000000000000000000000000000000000000000000000000020000000000000000000040010000000000000001000000000000000000000000008000000000000000000000820000000000000010000000000000000000000004000000000000000000000000000000012000000000040000000000000000000000000010000000000000000000000000000000000000020400000040000000000000000000000000000000000000001000000000000000002080004000002002000000000000000000000000000008000000000000000000000000000004000020000050000000000000000000000000000000000",
      "type": "0x2",
      "transactionHash": "0x9ba2fa55bb1d0504707272fb1b8629db79669e9ba4985afebb02722b7b445fed",
      "transactionIndex": "0x63",
      "blockHash": "0xac6b89b05ecd98ba85a06e4b2d48239ea7646fd0ef9ece065e735b94b4de84dd",
      "blockNumber": "0x987d2d",
      "gasUsed": "0x1aa9a",
      "effectiveGasPrice": "0xf4248",
      "from": "0x63f976191f9dd75bd5b0fd81320d37fbc0d74080",
      "to": "0x0436b86c7e2c70af12728371c80563b29b2f3391",
      "contractAddress": null
    },
    {
      "status": "0x1",
      "cumulativeGasUsed": "0xa2b6ec",
      "logs": [
        {
          "address": "0x76e9e1affde82bb4544ce95ea58ffc2f9d45061f",
          "topics": [
            "0x40e9cecb9f5f1f1c5b9c97dec2917b7ee92e57ba5563708daca94dd84ad7112f",
            "0x6648efe854126eca977839455e095d4cb46e5035b64bc3aa0f8da2c5ebdce489",
            "0x0000000000000000000000000436b86c7e2c70af12728371c80563b29b2f3391"
          ],
          "data": "0x0000000000000000000000000000000000000000000000000000000000000000ffffffffffffffffffffffffffffffffffffffffffffffffffffa50cef85c00000000000000000000000000000005f873a8e9ff664bd2306620d50f2e391ff2a000000000000000000000000000000000000000000000000000000000000028d000000000000000000000000000000000000000000000000000000000009da6a0000000000000000000000000000000000000000000000000000000000000bb8",
          "blockHash": "0xac6b89b05ecd98ba85a06e4b2d48239ea7646fd0ef9ece065e735b94b4de84dd",
          "blockNumber": "0x987d2d",
          "blockTimestamp": "0x695db3dc",
          "transactionHash": "0xeb6036bea77cce734608a24583807df397f35217d71370928de9857e52bce676",
          "transactionIndex": "0x64",
          "logIndex": "0xb6",
          "removed": false
        },
        {
          "address": "0x5c13377f19b9aeb3cb00fcc8e58e9a2b43889540",
          "topics": [
            "0xcd9f4ccdc13709817c4447834a44bef5d62ffe25139e5c329d8debc5c177cc79",
            "0x6648efe854126eca977839455e095d4cb46e5035b64bc3aa0f8da2c5ebdce489"
          ],
          "data": "0x000000000000000000000000000000000000000000000000000000000000000000000000000000000000000000000000000000000000000000000045d964b8000000000000000000000000000000000000000000000000000000000000000bb80000000000000000000000000000000000000000000000000001afeb45cdc80000000000000000000000000000000000000000000000000013c58d1a037fcbb8",
          "blockHash": "0xac6b89b05ecd98ba85a06e4b2d48239ea7646fd0ef9ece065e735b94b4de84dd",
          "blockNumber": "0x987d2d",
          "blockTimestamp": "0x695db3dc",
          "transactionHash": "0xeb6036bea77cce734608a24583807df397f35217d71370928de9857e52bce676",
          "transactionIndex": "0x64",
          "logIndex": "0xb7",
          "removed": false
        },
        {
          "address": "0xfff9976782d46cc05630d1f6ebab18b2324d6b14",
          "topics": [
            "0xddf252ad1be2c89b69c2b068fc378daa952ba7f163c4a11628f55a4df523b3ef",
            "0x00000000000000000000000063f976191f9dd75bd5b0fd81320d37fbc0d74080",
            "0x00000000000000000000000076e9e1affde82bb4544ce95ea58ffc2f9d45061f"
          ],
          "data": "0x00000000000000000000000000000000000000000000000000005af3107a4000",
          "blockHash": "0xac6b89b05ecd98ba85a06e4b2d48239ea7646fd0ef9ece065e735b94b4de84dd",
          "blockNumber": "0x987d2d",
          "blockTimestamp": "0x695db3dc",
          "transactionHash": "0xeb6036bea77cce734608a24583807df397f35217d71370928de9857e52bce676",
          "transactionIndex": "0x64",
          "logIndex": "0xb8",
          "removed": false
        }
      ],
      "logsBloom": "0x00001000000000000000000000000001002000000000000000000000000000000000000000000000000020000000000000000000040010000000000000001000000000000000000000000008000000000000000000000820000000000000010000000000000000000000004000000000000000000000000000000012000000000040000000000000000000000000010000000000000000000000000000000000000020400000040000000000000000000000000000000000000001000000000000000002080004000002002000000000000000000000000000008000000000000000000000000000004000020000050000000000000000000000000000000000",
      "type": "0x2",
      "transactionHash": "0xeb6036bea77cce734608a24583807df397f35217d71370928de9857e52bce676",
      "transactionIndex": "0x64",
      "blockHash": "0xac6b89b05ecd98ba85a06e4b2d48239ea7646fd0ef9ece065e735b94b4de84dd",
      "blockNumber": "0x987d2d",
      "gasUsed": "0x1aa96",
      "effectiveGasPrice": "0xf4248",
      "from": "0x63f976191f9dd75bd5b0fd81320d37fbc0d74080",
      "to": "0x0436b86c7e2c70af12728371c80563b29b2f3391",
      "contractAddress": null
    },
    {
      "status": "0x1",
      "cumulativeGasUsed": "0xa46162",
      "logs": [
        {
          "address": "0x76e9e1affde82bb4544ce95ea58ffc2f9d45061f",
          "topics": [
            "0x40e9cecb9f5f1f1c5b9c97dec2917b7ee92e57ba5563708daca94dd84ad7112f",
            "0x6648efe854126eca977839455e095d4cb46e5035b64bc3aa0f8da2c5ebdce489",
            "0x0000000000000000000000000436b86c7e2c70af12728371c80563b29b2f3391"
          ],
          "data": "0x0000000000000000000000000000000000000000000000000000000000000000ffffffffffffffffffffffffffffffffffffffffffffffffffffa50cef85c00000000000000000000000000000005faac6fd9aaea699da7f85ba3454818fa4fe000000000000000000000000000000000000000000000000000000000000028d000000000000000000000000000000000000000000000000000000000009da870000000000000000000000000000000000000000000000000000000000000bb8",
          "blockHash": "0xac6b89b05ecd98ba85a06e4b2d48239ea7646fd0ef9ece065e735b94b4de84dd",
          "blockNumber": "0x987d2d",
          "blockTimestamp": "0x695db3dc",
          "transactionHash": "0xd9218749cef982f194e5da59e40c59471305b9aa28386fd418eb6711151d5759",
          "transactionIndex": "0x65",
          "logIndex": "0xb9",
          "removed": false
        },
        {
          "address": "0x5c13377f19b9aeb3cb00fcc8e58e9a2b43889540",
          "topics": [
            "0xcd9f4ccdc13709817c4447834a44bef5d62ffe25139e5c329d8debc5c177cc79",
            "0x6648efe854126eca977839455e095d4cb46e5035b64bc3aa0f8da2c5ebdce489"
          ],
          "data": "0x000000000000000000000000000000000000000000000000000000000000000000000000000000000000000000000000000000000000000000000045d964b8000000000000000000000000000000000000000000000000000000000000000bb80000000000000000000000000000000000000000000000000001b0311f32800000000000000000000000000000000000000000000000000013c8bfa597cc0bb8",
          "blockHash": "0xac6b89b05ecd98ba85a06e4b2d48239ea7646fd0ef9ece065e735b94b4de84dd",
          "blockNumber": "0x987d2d",
          "blockTimestamp": "0x695db3dc",
          "transactionHash": "0xd9218749cef982f194e5da59e40c59471305b9aa28386fd418eb6711151d5759",
          "transactionIndex": "0x65",
          "logIndex": "0xba",
          "removed": false
        },
        {
          "address": "0xfff9976782d46cc05630d1f6ebab18b2324d6b14",
          "topics": [
            "0xddf252ad1be2c89b69c2b068fc378daa952ba7f163c4a11628f55a4df523b3ef",
            "0x00000000000000000000000063f976191f9dd75bd5b0fd81320d37fbc0d74080",
            "0x00000000000000000000000076e9e1affde82bb4544ce95ea58ffc2f9d45061f"
          ],
          "data": "0x00000000000000000000000000000000000000000000000000005af3107a4000",
          "blockHash": "0xac6b89b05ecd98ba85a06e4b2d48239ea7646fd0ef9ece065e735b94b4de84dd",
          "blockNumber": "0x987d2d",
          "blockTimestamp": "0x695db3dc",
          "transactionHash": "0xd9218749cef982f194e5da59e40c59471305b9aa28386fd418eb6711151d5759",
          "transactionIndex": "0x65",
          "logIndex": "0xbb",
          "removed": false
        }
      ],
      "logsBloom": "0x00001000000000000000000000000001002000000000000000000000000000000000000000000000000020000000000000000000040010000000000000001000000000000000000000000008000000000000000000000820000000000000010000000000000000000000004000000000000000000000000000000012000000000040000000000000000000000000010000000000000000000000000000000000000020400000040000000000000000000000000000000000000001000000000000000002080004000002002000000000000000000000000000008000000000000000000000000000004000020000050000000000000000000000000000000000",
      "type": "0x2",
      "transactionHash": "0xd9218749cef982f194e5da59e40c59471305b9aa28386fd418eb6711151d5759",
      "transactionIndex": "0x65",
      "blockHash": "0xac6b89b05ecd98ba85a06e4b2d48239ea7646fd0ef9ece065e735b94b4de84dd",
      "blockNumber": "0x987d2d",
      "gasUsed": "0x1aa76",
      "effectiveGasPrice": "0xf4248",
      "from": "0x63f976191f9dd75bd5b0fd81320d37fbc0d74080",
      "to": "0x0436b86c7e2c70af12728371c80563b29b2f3391",
      "contractAddress": null
    },
    {
      "status": "0x1",
      "cumulativeGasUsed": "0xa60bdc",
      "logs": [
        {
          "address": "0x76e9e1affde82bb4544ce95ea58ffc2f9d45061f",
          "topics": [
            "0x40e9cecb9f5f1f1c5b9c97dec2917b7ee92e57ba5563708daca94dd84ad7112f",
            "0x6648efe854126eca977839455e095d4cb46e5035b64bc3aa0f8da2c5ebdce489",
            "0x0000000000000000000000000436b86c7e2c70af12728371c80563b29b2f3391"
          ],
          "data": "0x0000000000000000000000000000000000000000000000000000000000000000ffffffffffffffffffffffffffffffffffffffffffffffffffffa50cef85c00000000000000000000000000000005fce536c9566e87691f8a96717b61f8d4ad2000000000000000000000000000000000000000000000000000000000000028d000000000000000000000000000000000000000000000000000000000009daa40000000000000000000000000000000000000000000000000000000000000bb8",
          "blockHash": "0xac6b89b05ecd98ba85a06e4b2d48239ea7646fd0ef9ece065e735b94b4de84dd",
          "blockNumber": "0x987d2d",
          "blockTimestamp": "0x695db3dc",
          "transactionHash": "0x9be1ba1c4740ba178edcc0cf95cae01bc506a688a12a153006ea1093f087b34b",
          "transactionIndex": "0x66",
          "logIndex": "0xbc",
          "removed": false
        },
        {
          "address": "0x5c13377f19b9aeb3cb00fcc8e58e9a2b43889540",
          "topics": [
            "0xcd9f4ccdc13709817c4447834a44bef5d62ffe25139e5c329d8debc5c177cc79",
            "0x6648efe854126eca977839455e095d4cb46e5035b64bc3aa0f8da2c5ebdce489"
          ],
          "data": "0x000000000000000000000000000000000000000000000000000000000000000000000000000000000000000000000000000000000000000000000045d964b8000000000000000000000000000000000000000000000000000000000000000bb80000000000000000000000000000000000000000000000000001b076f897380000000000000000000000000000000000000000000000000013cbf2312c184bb8",
          "blockHash": "0xac6b89b05ecd98ba85a06e4b2d48239ea7646fd0ef9ece065e735b94b4de84dd",
          "blockNumber": "0x987d2d",
          "blockTimestamp": "0x695db3dc",
          "transactionHash": "0x9be1ba1c4740ba178edcc0cf95cae01bc506a688a12a153006ea1093f087b34b",
          "transactionIndex": "0x66",
          "logIndex": "0xbd",
          "removed": false
        },
        {
          "address": "0xfff9976782d46cc05630d1f6ebab18b2324d6b14",
          "topics": [
            "0xddf252ad1be2c89b69c2b068fc378daa952ba7f163c4a11628f55a4df523b3ef",
            "0x00000000000000000000000063f976191f9dd75bd5b0fd81320d37fbc0d74080",
            "0x00000000000000000000000076e9e1affde82bb4544ce95ea58ffc2f9d45061f"
          ],
          "data": "0x00000000000000000000000000000000000000000000000000005af3107a4000",
          "blockHash": "0xac6b89b05ecd98ba85a06e4b2d48239ea7646fd0ef9ece065e735b94b4de84dd",
          "blockNumber": "0x987d2d",
          "blockTimestamp": "0x695db3dc",
          "transactionHash": "0x9be1ba1c4740ba178edcc0cf95cae01bc506a688a12a153006ea1093f087b34b",
          "transactionIndex": "0x66",
          "logIndex": "0xbe",
          "removed": false
        }
      ],
      "logsBloom": "0x00001000000000000000000000000001002000000000000000000000000000000000000000000000000020000000000000000000040010000000000000001000000000000000000000000008000000000000000000000820000000000000010000000000000000000000004000000000000000000000000000000012000000000040000000000000000000000000010000000000000000000000000000000000000020400000040000000000000000000000000000000000000001000000000000000002080004000002002000000000000000000000000000008000000000000000000000000000004000020000050000000000000000000000000000000000",
      "type": "0x2",
      "transactionHash": "0x9be1ba1c4740ba178edcc0cf95cae01bc506a688a12a153006ea1093f087b34b",
      "transactionIndex": "0x66",
      "blockHash": "0xac6b89b05ecd98ba85a06e4b2d48239ea7646fd0ef9ece065e735b94b4de84dd",
      "blockNumber": "0x987d2d",
      "gasUsed": "0x1aa7a",
      "effectiveGasPrice": "0xf4248",
      "from": "0x63f976191f9dd75bd5b0fd81320d37fbc0d74080",
      "to": "0x0436b86c7e2c70af12728371c80563b29b2f3391",
      "contractAddress": null
    },
    {
      "status": "0x1",
      "cumulativeGasUsed": "0xa7b29e",
      "logs": [
        {
          "address": "0x76e9e1affde82bb4544ce95ea58ffc2f9d45061f",
          "topics": [
            "0x40e9cecb9f5f1f1c5b9c97dec2917b7ee92e57ba5563708daca94dd84ad7112f",
            "0x6648efe854126eca977839455e095d4cb46e5035b64bc3aa0f8da2c5ebdce489",
            "0x0000000000000000000000000436b86c7e2c70af12728371c80563b29b2f3391"
          ],
          "data": "0x0000000000000000000000000000000000000000000000000000000000000000ffffffffffffffffffffffffffffffffffffffffffffffffffffa50cef85c00000000000000000000000000000005ff1dfdb901f2a534971cd13fb17bd8af0a6000000000000000000000000000000000000000000000000000000000000028d000000000000000000000000000000000000000000000000000000000009dac10000000000000000000000000000000000000000000000000000000000000bb8",
          "blockHash": "0xac6b89b05ecd98ba85a06e4b2d48239ea7646fd0ef9ece065e735b94b4de84dd",
          "blockNumber": "0x987d2d",
          "blockTimestamp": "0x695db3dc",
          "transactionHash": "0x8c3515631f9ecb29144af1bb36ce22b5114e3929aae8f7c53d80ca7d5eaf131f",
          "transactionIndex": "0x67",
          "logIndex": "0xbf",
          "removed": false
        },
        {
          "address": "0x5c13377f19b9aeb3cb00fcc8e58e9a2b43889540",
          "topics": [
            "0xcd9f4ccdc13709817c4447834a44bef5d62ffe25139e5c329d8debc5c177cc79",
            "0x6648efe854126eca977839455e095d4cb46e5035b64bc3aa0f8da2c5ebdce489"
          ],
          "data": "0x000000000000000000000000000000000000000000000000000000000000000000000000000000000000000000000000000000000000000000000045d964b8000000000000000000000000000000000000000000000000000000000000000bb80000000000000000000000000000000000000000000000000001b0bcd1fbf00000000000000000000000000000000000000000000000000013cf24bcc0648bb8",
          "blockHash": "0xac6b89b05ecd98ba85a06e4b2d48239ea7646fd0ef9ece065e735b94b4de84dd",
          "blockNumber": "0x987d2d",
          "blockTimestamp": "0x695db3dc",
          "transactionHash": "0x8c3515631f9ecb29144af1bb36ce22b5114e3929aae8f7c53d80ca7d5eaf131f",
          "transactionIndex": "0x67",
          "logIndex": "0xc0",
          "removed": false
        },
        {
          "address": "0xfff9976782d46cc05630d1f6ebab18b2324d6b14",
          "topics": [
            "0xddf252ad1be2c89b69c2b068fc378daa952ba7f163c4a11628f55a4df523b3ef",
            "0x00000000000000000000000063f976191f9dd75bd5b0fd81320d37fbc0d74080",
            "0x00000000000000000000000076e9e1affde82bb4544ce95ea58ffc2f9d45061f"
          ],
          "data": "0x00000000000000000000000000000000000000000000000000005af3107a4000",
          "blockHash": "0xac6b89b05ecd98ba85a06e4b2d48239ea7646fd0ef9ece065e735b94b4de84dd",
          "blockNumber": "0x987d2d",
          "blockTimestamp": "0x695db3dc",
          "transactionHash": "0x8c3515631f9ecb29144af1bb36ce22b5114e3929aae8f7c53d80ca7d5eaf131f",
          "transactionIndex": "0x67",
          "logIndex": "0xc1",
          "removed": false
        }
      ],
      "logsBloom": "0x00001000000000000000000000000001002000000000000000000000000000000000000000000000000020000000000000000000040010000000000000001000000000000000000000000008000000000000000000000820000000000000010000000000000000000000004000000000000000000000000000000012000000000040000000000000000000000000010000000000000000000000000000000000000020400000040000000000000000000000000000000000000001000000000000000002080004000002002000000000000000000000000000008000000000000000000000000000004000020000050000000000000000000000000000000000",
      "type": "0x2",
      "transactionHash": "0x8c3515631f9ecb29144af1bb36ce22b5114e3929aae8f7c53d80ca7d5eaf131f",
      "transactionIndex": "0x67",
      "blockHash": "0xac6b89b05ecd98ba85a06e4b2d48239ea7646fd0ef9ece065e735b94b4de84dd",
      "blockNumber": "0x987d2d",
      "gasUsed": "0x1a6c2",
      "effectiveGasPrice": "0xf4248",
      "from": "0x63f976191f9dd75bd5b0fd81320d37fbc0d74080",
      "to": "0x0436b86c7e2c70af12728371c80563b29b2f3391",
      "contractAddress": null
    },
    {
      "status": "0x1",
      "cumulativeGasUsed": "0xa95d74",
      "logs": [
        {
          "address": "0x76e9e1affde82bb4544ce95ea58ffc2f9d45061f",
          "topics": [
            "0x40e9cecb9f5f1f1c5b9c97dec2917b7ee92e57ba5563708daca94dd84ad7112f",
            "0x6648efe854126eca977839455e095d4cb46e5035b64bc3aa0f8da2c5ebdce489",
            "0x0000000000000000000000000436b86c7e2c70af12728371c80563b29b2f3391"
          ],
          "data": "0x0000000000000000000000000000000000000000000000000000000000000000ffffffffffffffffffffffffffffffffffffffffffffffffffffa50cef85c000000000000000000000000000000060156c4a8ad76c3000eaf0c0de795b88967a000000000000000000000000000000000000000000000000000000000000028d000000000000000000000000000000000000000000000000000000000009dade0000000000000000000000000000000000000000000000000000000000000bb8",
          "blockHash": "0xac6b89b05ecd98ba85a06e4b2d48239ea7646fd0ef9ece065e735b94b4de84dd",
          "blockNumber": "0x987d2d",
          "blockTimestamp": "0x695db3dc",
          "transactionHash": "0x8c2e93b2cc951bee2d509bacd9549e9e3cc56bfa69744902c803faf4647b05d3",
          "transactionIndex": "0x68",
          "logIndex": "0xc2",
          "removed": false
        },
        {
          "address": "0x5c13377f19b9aeb3cb00fcc8e58e9a2b43889540",
          "topics": [
            "0xcd9f4ccdc13709817c4447834a44bef5d62ffe25139e5c329d8debc5c177cc79",
            "0x6648efe854126eca977839455e095d4cb46e5035b64bc3aa0f8da2c5ebdce489"
          ],
          "data": "0x000000000000000000000000000000000000000000000000000000000000000000000000000000000000000000000000000000000000000000000045d964b8000000000000000000000000000000000000000000000000000000000000000bb80000000000000000000000000000000000000000000000000001b102ab60a80000000000000000000000000000000000000000000000000013d2574854b0cbb8",
          "blockHash": "0xac6b89b05ecd98ba85a06e4b2d48239ea7646fd0ef9ece065e735b94b4de84dd",
          "blockNumber": "0x987d2d",
          "blockTimestamp": "0x695db3dc",
          "transactionHash": "0x8c2e93b2cc951bee2d509bacd9549e9e3cc56bfa69744902c803faf4647b05d3",
          "transactionIndex": "0x68",
          "logIndex": "0xc3",
          "removed": false
        },
        {
          "address": "0xfff9976782d46cc05630d1f6ebab18b2324d6b14",
          "topics": [
            "0xddf252ad1be2c89b69c2b068fc378daa952ba7f163c4a11628f55a4df523b3ef",
            "0x00000000000000000000000063f976191f9dd75bd5b0fd81320d37fbc0d74080",
            "0x00000000000000000000000076e9e1affde82bb4544ce95ea58ffc2f9d45061f"
          ],
          "data": "0x00000000000000000000000000000000000000000000000000005af3107a4000",
          "blockHash": "0xac6b89b05ecd98ba85a06e4b2d48239ea7646fd0ef9ece065e735b94b4de84dd",
          "blockNumber": "0x987d2d",
          "blockTimestamp": "0x695db3dc",
          "transactionHash": "0x8c2e93b2cc951bee2d509bacd9549e9e3cc56bfa69744902c803faf4647b05d3",
          "transactionIndex": "0x68",
          "logIndex": "0xc4",
          "removed": false
        }
      ],
      "logsBloom": "0x00001000000000000000000000000001002000000000000000000000000000000000000000000000000020000000000000000000040010000000000000001000000000000000000000000008000000000000000000000820000000000000010000000000000000000000004000000000000000000000000000000012000000000040000000000000000000000000010000000000000000000000000000000000000020400000040000000000000000000000000000000000000001000000000000000002080004000002002000000000000000000000000000008000000000000000000000000000004000020000050000000000000000000000000000000000",
      "type": "0x2",
      "transactionHash": "0x8c2e93b2cc951bee2d509bacd9549e9e3cc56bfa69744902c803faf4647b05d3",
      "transactionIndex": "0x68",
      "blockHash": "0xac6b89b05ecd98ba85a06e4b2d48239ea7646fd0ef9ece065e735b94b4de84dd",
      "blockNumber": "0x987d2d",
      "gasUsed": "0x1aad6",
      "effectiveGasPrice": "0xf4248",
      "from": "0x63f976191f9dd75bd5b0fd81320d37fbc0d74080",
      "to": "0x0436b86c7e2c70af12728371c80563b29b2f3391",
      "contractAddress": null
    },
    {
      "status": "0x1",
      "cumulativeGasUsed": "0xab084a",
      "logs": [
        {
          "address": "0x76e9e1affde82bb4544ce95ea58ffc2f9d45061f",
          "topics": [
            "0x40e9cecb9f5f1f1c5b9c97dec2917b7ee92e57ba5563708daca94dd84ad7112f",
            "0x6648efe854126eca977839455e095d4cb46e5035b64bc3aa0f8da2c5ebdce489",
            "0x0000000000000000000000000436b86c7e2c70af12728371c80563b29b2f3391"
          ],
          "data": "0x0000000000000000000000000000000000000000000000000000000000000000ffffffffffffffffffffffffffffffffffffffffffffffffffffa50cef85c00000000000000000000000000000006038f8b9858fae0cb864146dc1daf9863c4e000000000000000000000000000000000000000000000000000000000000028d000000000000000000000000000000000000000000000000000000000009dafb0000000000000000000000000000000000000000000000000000000000000bb8",
          "blockHash": "0xac6b89b05ecd98ba85a06e4b2d48239ea7646fd0ef9ece065e735b94b4de84dd",
          "blockNumber": "0x987d2d",
          "blockTimestamp": "0x695db3dc",
          "transactionHash": "0xc32fb1acef23622dca9cd7baca56177df247ff6aed83ae7dbfafa93195a01e26",
          "transactionIndex": "0x69",
          "logIndex": "0xc5",
          "removed": false
        },
        {
          "address": "0x5c13377f19b9aeb3cb00fcc8e58e9a2b43889540",
          "topics": [
            "0xcd9f4ccdc13709817c4447834a44bef5d62ffe25139e5c329d8debc5c177cc79",
            "0x6648efe854126eca977839455e095d4cb46e5035b64bc3aa0f8da2c5ebdce489"
          ],
          "data": "0x000000000000000000000000000000000000000000000000000000000000000000000000000000000000000000000000000000000000000000000045d964b8000000000000000000000000000000000000000000000000000000000000000bb80000000000000000000000000000000000000000000000000001b14884c5600000000000000000000000000000000000000000000000000013d589d3e8fd0bb8",
          "blockHash": "0xac6b89b05ecd98ba85a06e4b2d48239ea7646fd0ef9ece065e735b94b4de84dd",
          "blockNumber": "0x987d2d",
          "blockTimestamp": "0x695db3dc",
          "transactionHash": "0xc32fb1acef23622dca9cd7baca56177df247ff6aed83ae7dbfafa93195a01e26",
          "transactionIndex": "0x69",
          "logIndex": "0xc6",
          "removed": false
        },
        {
          "address": "0xfff9976782d46cc05630d1f6ebab18b2324d6b14",
          "topics": [
            "0xddf252ad1be2c89b69c2b068fc378daa952ba7f163c4a11628f55a4df523b3ef",
            "0x00000000000000000000000063f976191f9dd75bd5b0fd81320d37fbc0d74080",
            "0x00000000000000000000000076e9e1affde82bb4544ce95ea58ffc2f9d45061f"
          ],
          "data": "0x00000000000000000000000000000000000000000000000000005af3107a4000",
          "blockHash": "0xac6b89b05ecd98ba85a06e4b2d48239ea7646fd0ef9ece065e735b94b4de84dd",
          "blockNumber": "0x987d2d",
          "blockTimestamp": "0x695db3dc",
          "transactionHash": "0xc32fb1acef23622dca9cd7baca56177df247ff6aed83ae7dbfafa93195a01e26",
          "transactionIndex": "0x69",
          "logIndex": "0xc7",
          "removed": false
        }
      ],
      "logsBloom": "0x00001000000000000000000000000001002000000000000000000000000000000000000000000000000020000000000000000000040010000000000000001000000000000000000000000008000000000000000000000820000000000000010000000000000000000000004000000000000000000000000000000012000000000040000000000000000000000000010000000000000000000000000000000000000020400000040000000000000000000000000000000000000001000000000000000002080004000002002000000000000000000000000000008000000000000000000000000000004000020000050000000000000000000000000000000000",
      "type": "0x2",
      "transactionHash": "0xc32fb1acef23622dca9cd7baca56177df247ff6aed83ae7dbfafa93195a01e26",
      "transactionIndex": "0x69",
      "blockHash": "0xac6b89b05ecd98ba85a06e4b2d48239ea7646fd0ef9ece065e735b94b4de84dd",
      "blockNumber": "0x987d2d",
      "gasUsed": "0x1aad6",
      "effectiveGasPrice": "0xf4248",
      "from": "0x63f976191f9dd75bd5b0fd81320d37fbc0d74080",
      "to": "0x0436b86c7e2c70af12728371c80563b29b2f3391",
      "contractAddress": null
    },
    {
      "status": "0x1",
      "cumulativeGasUsed": "0x395953",
      "logs": [
        {
          "address": "0x76e9e1affde82bb4544ce95ea58ffc2f9d45061f",
          "topics": [
            "0x40e9cecb9f5f1f1c5b9c97dec2917b7ee92e57ba5563708daca94dd84ad7112f",
            "0x6648efe854126eca977839455e095d4cb46e5035b64bc3aa0f8da2c5ebdce489",
            "0x0000000000000000000000000436b86c7e2c70af12728371c80563b29b2f3391"
          ],
          "data": "0x0000000000000000000000000000000000000000000000000000000000000000ffffffffffffffffffffffffffffffffffffffffffffffffffffa50cef85c0000000000000000000000000000000605c85288047efe96fdd381aa53c9783e222000000000000000000000000000000000000000000000000000000000000028d000000000000000000000000000000000000000000000000000000000009db180000000000000000000000000000000000000000000000000000000000000bb8",
          "blockHash": "0xc87eac2e9b6b86f691f81943e52acc9600e424b0506295754a2a00f60df57008",
          "blockNumber": "0x987d2e",
          "blockTimestamp": "0x695db3e8",
          "transactionHash": "0xc8f5624b66490c795812537c12b1bbe9cd1a2de79613d711d519f7b27515c215",
          "transactionIndex": "0x3b",
          "logIndex": "0x24",
          "removed": false
        },
        {
          "address": "0x5c13377f19b9aeb3cb00fcc8e58e9a2b43889540",
          "topics": [
            "0xcd9f4ccdc13709817c4447834a44bef5d62ffe25139e5c329d8debc5c177cc79",
            "0x6648efe854126eca977839455e095d4cb46e5035b64bc3aa0f8da2c5ebdce489"
          ],
          "data": "0x000000000000000000000000000000000000000000000000000000000000000000000000000000000000000000000000000000000000000000000045d964b8000000000000000000000000000000000000000000000000000000000000000bb80000000000000000000000000000000000000000000000000001b18e5e2a180000000000000000000000000000000000000000000000000013d8bc5f7d494bb8",
          "blockHash": "0xc87eac2e9b6b86f691f81943e52acc9600e424b0506295754a2a00f60df57008",
          "blockNumber": "0x987d2e",
          "blockTimestamp": "0x695db3e8",
          "transactionHash": "0xc8f5624b66490c795812537c12b1bbe9cd1a2de79613d711d519f7b27515c215",
          "transactionIndex": "0x3b",
          "logIndex": "0x25",
          "removed": false
        },
        {
          "address": "0xfff9976782d46cc05630d1f6ebab18b2324d6b14",
          "topics": [
            "0xddf252ad1be2c89b69c2b068fc378daa952ba7f163c4a11628f55a4df523b3ef",
            "0x00000000000000000000000063f976191f9dd75bd5b0fd81320d37fbc0d74080",
            "0x00000000000000000000000076e9e1affde82bb4544ce95ea58ffc2f9d45061f"
          ],
          "data": "0x00000000000000000000000000000000000000000000000000005af3107a4000",
          "blockHash": "0xc87eac2e9b6b86f691f81943e52acc9600e424b0506295754a2a00f60df57008",
          "blockNumber": "0x987d2e",
          "blockTimestamp": "0x695db3e8",
          "transactionHash": "0xc8f5624b66490c795812537c12b1bbe9cd1a2de79613d711d519f7b27515c215",
          "transactionIndex": "0x3b",
          "logIndex": "0x26",
          "removed": false
        }
      ],
      "logsBloom": "0x00001000000000000000000000000001002000000000000000000000000000000000000000000000000020000000000000000000040010000000000000001000000000000000000000000008000000000000000000000820000000000000010000000000000000000000004000000000000000000000000000000012000000000040000000000000000000000000010000000000000000000000000000000000000020400000040000000000000000000000000000000000000001000000000000000002080004000002002000000000000000000000000000008000000000000000000000000000004000020000050000000000000000000000000000000000",
      "type": "0x2",
      "transactionHash": "0xc8f5624b66490c795812537c12b1bbe9cd1a2de79613d711d519f7b27515c215",
      "transactionIndex": "0x3b",
      "blockHash": "0xc87eac2e9b6b86f691f81943e52acc9600e424b0506295754a2a00f60df57008",
      "blockNumber": "0x987d2e",
      "gasUsed": "0x1aa76",
      "effectiveGasPrice": "0xf4248",
      "from": "0x63f976191f9dd75bd5b0fd81320d37fbc0d74080",
      "to": "0x0436b86c7e2c70af12728371c80563b29b2f3391",
      "contractAddress": null
    },
    {
      "status": "0x1",
      "cumulativeGasUsed": "0x3b03ed",
      "logs": [
        {
          "address": "0x76e9e1affde82bb4544ce95ea58ffc2f9d45061f",
          "topics": [
            "0x40e9cecb9f5f1f1c5b9c97dec2917b7ee92e57ba5563708daca94dd84ad7112f",
            "0x6648efe854126eca977839455e095d4cb46e5035b64bc3aa0f8da2c5ebdce489",
            "0x0000000000000000000000000436b86c7e2c70af12728371c80563b29b2f3391"
          ],
          "data": "0x0000000000000000000000000000000000000000000000000000000000000000ffffffffffffffffffffffffffffffffffffffffffffffffffffa50cef85c0000000000000000000000000000000608011977b0031c627565bc7889e358187f6000000000000000000000000000000000000000000000000000000000000028d000000000000000000000000000000000000000000000000000000000009db340000000000000000000000000000000000000000000000000000000000000bb8",
          "blockHash": "0xc87eac2e9b6b86f691f81943e52acc9600e424b0506295754a2a00f60df57008",
          "blockNumber": "0x987d2e",
          "blockTimestamp": "0x695db3e8",
          "transactionHash": "0x34a2757ef0eb90550daab05450926b3033ffb8bae5acb8b2d5aa561812ae67b0",
          "transactionIndex": "0x3c",
          "logIndex": "0x27",
          "removed": false
        },
        {
          "address": "0x5c13377f19b9aeb3cb00fcc8e58e9a2b43889540",
          "topics": [
            "0xcd9f4ccdc13709817c4447834a44bef5d62ffe25139e5c329d8debc5c177cc79",
            "0x6648efe854126eca977839455e095d4cb46e5035b64bc3aa0f8da2c5ebdce489"
          ],
          "data": "0x000000000000000000000000000000000000000000000000000000000000000000000000000000000000000000000000000000000000000000000045d964b8000000000000000000000000000000000000000000000000000000000000000bb80000000000000000000000000000000000000000000000000001b1d4378ed00000000000000000000000000000000000000000000000000013dbeeeb11958bb8",
          "blockHash": "0xc87eac2e9b6b86f691f81943e52acc9600e424b0506295754a2a00f60df57008",
          "blockNumber": "0x987d2e",
          "blockTimestamp": "0x695db3e8",
          "transactionHash": "0x34a2757ef0eb90550daab05450926b3033ffb8bae5acb8b2d5aa561812ae67b0",
          "transactionIndex": "0x3c",
          "logIndex": "0x28",
          "removed": false
        },
        {
          "address": "0xfff9976782d46cc05630d1f6ebab18b2324d6b14",
          "topics": [
            "0xddf252ad1be2c89b69c2b068fc378daa952ba7f163c4a11628f55a4df523b3ef",
            "0x00000000000000000000000063f976191f9dd75bd5b0fd81320d37fbc0d74080",
            "0x00000000000000000000000076e9e1affde82bb4544ce95ea58ffc2f9d45061f"
          ],
          "data": "0x00000000000000000000000000000000000000000000000000005af3107a4000",
          "blockHash": "0xc87eac2e9b6b86f691f81943e52acc9600e424b0506295754a2a00f60df57008",
          "blockNumber": "0x987d2e",
          "blockTimestamp": "0x695db3e8",
          "transactionHash": "0x34a2757ef0eb90550daab05450926b3033ffb8bae5acb8b2d5aa561812ae67b0",
          "transactionIndex": "0x3c",
          "logIndex": "0x29",
          "removed": false
        }
      ],
      "logsBloom": "0x00001000000000000000000000000001002000000000000000000000000000000000000000000000000020000000000000000000040010000000000000001000000000000000000000000008000000000000000000000820000000000000010000000000000000000000004000000000000000000000000000000012000000000040000000000000000000000000010000000000000000000000000000000000000020400000040000000000000000000000000000000000000001000000000000000002080004000002002000000000000000000000000000008000000000000000000000000000004000020000050000000000000000000000000000000000",
      "type": "0x2",
      "transactionHash": "0x34a2757ef0eb90550daab05450926b3033ffb8bae5acb8b2d5aa561812ae67b0",
      "transactionIndex": "0x3c",
      "blockHash": "0xc87eac2e9b6b86f691f81943e52acc9600e424b0506295754a2a00f60df57008",
      "blockNumber": "0x987d2e",
      "gasUsed": "0x1aa9a",
      "effectiveGasPrice": "0xf4248",
      "from": "0x63f976191f9dd75bd5b0fd81320d37fbc0d74080",
      "to": "0x0436b86c7e2c70af12728371c80563b29b2f3391",
      "contractAddress": null
    },
    {
      "status": "0x1",
      "cumulativeGasUsed": "0x3cae63",
      "logs": [
        {
          "address": "0x76e9e1affde82bb4544ce95ea58ffc2f9d45061f",
          "topics": [
            "0x40e9cecb9f5f1f1c5b9c97dec2917b7ee92e57ba5563708daca94dd84ad7112f",
            "0x6648efe854126eca977839455e095d4cb46e5035b64bc3aa0f8da2c5ebdce489",
            "0x0000000000000000000000000436b86c7e2c70af12728371c80563b29b2f3391"
          ],
          "data": "0x0000000000000000000000000000000000000000000000000000000000000000ffffffffffffffffffffffffffffffffffffffffffffffffffffa50cef85c000000000000000000000000000000060a39e0675b873a2decf7f746bffd37f2dca000000000000000000000000000000000000000000000000000000000000028d000000000000000000000000000000000000000000000000000000000009db510000000000000000000000000000000000000000000000000000000000000bb8",
          "blockHash": "0xc87eac2e9b6b86f691f81943e52acc9600e424b0506295754a2a00f60df57008",
          "blockNumber": "0x987d2e",
          "blockTimestamp": "0x695db3e8",
          "transactionHash": "0xe556da907cbabda1e30b86f986385c2f35e39ffdd601627844cffcd8f2fe38c4",
          "transactionIndex": "0x3d",
          "logIndex": "0x2a",
          "removed": false
        },
        {
          "address": "0x5c13377f19b9aeb3cb00fcc8e58e9a2b43889540",
          "topics": [
            "0xcd9f4ccdc13709817c4447834a44bef5d62ffe25139e5c329d8debc5c177cc79",
            "0x6648efe854126eca977839455e095d4cb46e5035b64bc3aa0f8da2c5ebdce489"
          ],
          "data": "0x000000000000000000000000000000000000000000000000000000000000000000000000000000000000000000000000000000000000000000000045d964b8000000000000000000000000000000000000000000000000000000000000000bb80000000000000000000000000000000000000000000000000001b21a10f3880000000000000000000000000000000000000000000000000013df2176a5e1cbb8",
          "blockHash": "0xc87eac2e9b6b86f691f81943e52acc9600e424b0506295754a2a00f60df57008",
          "blockNumber": "0x987d2e",
          "blockTimestamp": "0x695db3e8",
          "transactionHash": "0xe556da907cbabda1e30b86f986385c2f35e39ffdd601627844cffcd8f2fe38c4",
          "transactionIndex": "0x3d",
          "logIndex": "0x2b",
          "removed": false
        },
        {
          "address": "0xfff9976782d46cc05630d1f6ebab18b2324d6b14",
          "topics": [
            "0xddf252ad1be2c89b69c2b068fc378daa952ba7f163c4a11628f55a4df523b3ef",
            "0x00000000000000000000000063f976191f9dd75bd5b0fd81320d37fbc0d74080",
            "0x00000000000000000000000076e9e1affde82bb4544ce95ea58ffc2f9d45061f"
          ],
          "data": "0x00000000000000000000000000000000000000000000000000005af3107a4000",
          "blockHash": "0xc87eac2e9b6b86f691f81943e52acc9600e424b0506295754a2a00f60df57008",
          "blockNumber": "0x987d2e",
          "blockTimestamp": "0x695db3e8",
          "transactionHash": "0xe556da907cbabda1e30b86f986385c2f35e39ffdd601627844cffcd8f2fe38c4",
          "transactionIndex": "0x3d",
          "logIndex": "0x2c",
          "removed": false
        }
      ],
      "logsBloom": "0x00001000000000000000000000000001002000000000000000000000000000000000000000000000000020000000000000000000040010000000000000001000000000000000000000000008000000000000000000000820000000000000010000000000000000000000004000000000000000000000000000000012000000000040000000000000000000000000010000000000000000000000000000000000000020400000040000000000000000000000000000000000000001000000000000000002080004000002002000000000000000000000000000008000000000000000000000000000004000020000050000000000000000000000000000000000",
      "type": "0x2",
      "transactionHash": "0xe556da907cbabda1e30b86f986385c2f35e39ffdd601627844cffcd8f2fe38c4",
      "transactionIndex": "0x3d",
      "blockHash": "0xc87eac2e9b6b86f691f81943e52acc9600e424b0506295754a2a00f60df57008",
      "blockNumber": "0x987d2e",
      "gasUsed": "0x1aa76",
      "effectiveGasPrice": "0xf4248",
      "from": "0x63f976191f9dd75bd5b0fd81320d37fbc0d74080",
      "to": "0x0436b86c7e2c70af12728371c80563b29b2f3391",
      "contractAddress": null
    },
    {
      "status": "0x1",
      "cumulativeGasUsed": "0x3e5939",
      "logs": [
        {
          "address": "0x76e9e1affde82bb4544ce95ea58ffc2f9d45061f",
          "topics": [
            "0x40e9cecb9f5f1f1c5b9c97dec2917b7ee92e57ba5563708daca94dd84ad7112f",
            "0x6648efe854126eca977839455e095d4cb46e5035b64bc3aa0f8da2c5ebdce489",
            "0x0000000000000000000000000436b86c7e2c70af12728371c80563b29b2f3391"
          ],
          "data": "0x0000000000000000000000000000000000000000000000000000000000000000ffffffffffffffffffffffffffffffffffffffffffffffffffffa50cef85c000000000000000000000000000000060c72a757070b57f9648a3214f61717cd39e000000000000000000000000000000000000000000000000000000000000028d000000000000000000000000000000000000000000000000000000000009db6e0000000000000000000000000000000000000000000000000000000000000bb8",
          "blockHash": "0xc87eac2e9b6b86f691f81943e52acc9600e424b0506295754a2a00f60df57008",
          "blockNumber": "0x987d2e",
          "blockTimestamp": "0x695db3e8",
          "transactionHash": "0xe99a43febdbc610a779dbeb1884b77c28cfa4b95dbd3de7213450e89e361e4cf",
          "transactionIndex": "0x3e",
          "logIndex": "0x2d",
          "removed": false
        },
        {
          "address": "0x5c13377f19b9aeb3cb00fcc8e58e9a2b43889540",
          "topics": [
            "0xcd9f4ccdc13709817c4447834a44bef5d62ffe25139e5c329d8debc5c177cc79",
            "0x6648efe854126eca977839455e095d4cb46e5035b64bc3aa0f8da2c5ebdce489"
          ],
          "data": "0x000000000000000000000000000000000000000000000000000000000000000000000000000000000000000000000000000000000000000000000045d964b8000000000000000000000000000000000000000000000000000000000000000bb80000000000000000000000000000000000000000000000000001b25fea58400000000000000000000000000000000000000000000000000013e254023a2e0bb8",
          "blockHash": "0xc87eac2e9b6b86f691f81943e52acc9600e424b0506295754a2a00f60df57008",
          "blockNumber": "0x987d2e",
          "blockTimestamp": "0x695db3e8",
          "transactionHash": "0xe99a43febdbc610a779dbeb1884b77c28cfa4b95dbd3de7213450e89e361e4cf",
          "transactionIndex": "0x3e",
          "logIndex": "0x2e",
          "removed": false
        },
        {
          "address": "0xfff9976782d46cc05630d1f6ebab18b2324d6b14",
          "topics": [
            "0xddf252ad1be2c89b69c2b068fc378daa952ba7f163c4a11628f55a4df523b3ef",
            "0x00000000000000000000000063f976191f9dd75bd5b0fd81320d37fbc0d74080",
            "0x00000000000000000000000076e9e1affde82bb4544ce95ea58ffc2f9d45061f"
          ],
          "data": "0x00000000000000000000000000000000000000000000000000005af3107a4000",
          "blockHash": "0xc87eac2e9b6b86f691f81943e52acc9600e424b0506295754a2a00f60df57008",
          "blockNumber": "0x987d2e",
          "blockTimestamp": "0x695db3e8",
          "transactionHash": "0xe99a43febdbc610a779dbeb1884b77c28cfa4b95dbd3de7213450e89e361e4cf",
          "transactionIndex": "0x3e",
          "logIndex": "0x2f",
          "removed": false
        }
      ],
      "logsBloom": "0x00001000000000000000000000000001002000000000000000000000000000000000000000000000000020000000000000000000040010000000000000001000000000000000000000000008000000000000000000000820000000000000010000000000000000000000004000000000000000000000000000000012000000000040000000000000000000000000010000000000000000000000000000000000000020400000040000000000000000000000000000000000000001000000000000000002080004000002002000000000000000000000000000008000000000000000000000000000004000020000050000000000000000000000000000000000",
      "type": "0x2",
      "transactionHash": "0xe99a43febdbc610a779dbeb1884b77c28cfa4b95dbd3de7213450e89e361e4cf",
      "transactionIndex": "0x3e",
      "blockHash": "0xc87eac2e9b6b86f691f81943e52acc9600e424b0506295754a2a00f60df57008",
      "blockNumber": "0x987d2e",
      "gasUsed": "0x1aad6",
      "effectiveGasPrice": "0xf4248",
      "from": "0x63f976191f9dd75bd5b0fd81320d37fbc0d74080",
      "to": "0x0436b86c7e2c70af12728371c80563b29b2f3391",
      "contractAddress": null
    },
    {
      "status": "0x1",
      "cumulativeGasUsed": "0x4003cf",
      "logs": [
        {
          "address": "0x76e9e1affde82bb4544ce95ea58ffc2f9d45061f",
          "topics": [
            "0x40e9cecb9f5f1f1c5b9c97dec2917b7ee92e57ba5563708daca94dd84ad7112f",
            "0x6648efe854126eca977839455e095d4cb46e5035b64bc3aa0f8da2c5ebdce489",
            "0x0000000000000000000000000436b86c7e2c70af12728371c80563b29b2f3391"
          ],
          "data": "0x0000000000000000000000000000000000000000000000000000000000000000ffffffffffffffffffffffffffffffffffffffffffffffffffffa50cef85c000000000000000000000000000000060eab6e46b28f75c4dc1c6ce32c30f7a7972000000000000000000000000000000000000000000000000000000000000028d000000000000000000000000000000000000000000000000000000000009db8b0000000000000000000000000000000000000000000000000000000000000bb8",
          "blockHash": "0xc87eac2e9b6b86f691f81943e52acc9600e424b0506295754a2a00f60df57008",
          "blockNumber": "0x987d2e",
          "blockTimestamp": "0x695db3e8",
          "transactionHash": "0x38461028bf1f09d721764df1eb5f70a925a1229642bbf780f112b93bc4e5911e",
          "transactionIndex": "0x3f",
          "logIndex": "0x30",
          "removed": false
        },
        {
          "address": "0x5c13377f19b9aeb3cb00fcc8e58e9a2b43889540",
          "topics": [
            "0xcd9f4ccdc13709817c4447834a44bef5d62ffe25139e5c329d8debc5c177cc79",
            "0x6648efe854126eca977839455e095d4cb46e5035b64bc3aa0f8da2c5ebdce489"
          ],
          "data": "0x000000000000000000000000000000000000000000000000000000000000000000000000000000000000000000000000000000000000000000000045d964b8000000000000000000000000000000000000000000000000000000000000000bb80000000000000000000000000000000000000000000000000001b2a5c3bcf80000000000000000000000000000000000000000000000000013e5868dce7a4bb8",
          "blockHash": "0xc87eac2e9b6b86f691f81943e52acc9600e424b0506295754a2a00f60df57008",
          "blockNumber": "0x987d2e",
          "blockTimestamp": "0x695db3e8",
          "transactionHash": "0x38461028bf1f09d721764df1eb5f70a925a1229642bbf780f112b93bc4e5911e",
          "transactionIndex": "0x3f",
          "logIndex": "0x31",
          "removed": false
        },
        {
          "address": "0xfff9976782d46cc05630d1f6ebab18b2324d6b14",
          "topics": [
            "0xddf252ad1be2c89b69c2b068fc378daa952ba7f163c4a11628f55a4df523b3ef",
            "0x00000000000000000000000063f976191f9dd75bd5b0fd81320d37fbc0d74080",
            "0x00000000000000000000000076e9e1affde82bb4544ce95ea58ffc2f9d45061f"
          ],
          "data": "0x00000000000000000000000000000000000000000000000000005af3107a4000",
          "blockHash": "0xc87eac2e9b6b86f691f81943e52acc9600e424b0506295754a2a00f60df57008",
          "blockNumber": "0x987d2e",
          "blockTimestamp": "0x695db3e8",
          "transactionHash": "0x38461028bf1f09d721764df1eb5f70a925a1229642bbf780f112b93bc4e5911e",
          "transactionIndex": "0x3f",
          "logIndex": "0x32",
          "removed": false
        }
      ],
      "logsBloom": "0x00001000000000000000000000000001002000000000000000000000000000000000000000000000000020000000000000000000040010000000000000001000000000000000000000000008000000000000000000000820000000000000010000000000000000000000004000000000000000000000000000000012000000000040000000000000000000000000010000000000000000000000000000000000000020400000040000000000000000000000000000000000000001000000000000000002080004000002002000000000000000000000000000008000000000000000000000000000004000020000050000000000000000000000000000000000",
      "type": "0x2",
      "transactionHash": "0x38461028bf1f09d721764df1eb5f70a925a1229642bbf780f112b93bc4e5911e",
      "transactionIndex": "0x3f",
      "blockHash": "0xc87eac2e9b6b86f691f81943e52acc9600e424b0506295754a2a00f60df57008",
      "blockNumber": "0x987d2e",
      "gasUsed": "0x1aa96",
      "effectiveGasPrice": "0xf4248",
      "from": "0x63f976191f9dd75bd5b0fd81320d37fbc0d74080",
      "to": "0x0436b86c7e2c70af12728371c80563b29b2f3391",
      "contractAddress": null
    },
    {
      "status": "0x1",
      "cumulativeGasUsed": "0x41ae69",
      "logs": [
        {
          "address": "0x76e9e1affde82bb4544ce95ea58ffc2f9d45061f",
          "topics": [
            "0x40e9cecb9f5f1f1c5b9c97dec2917b7ee92e57ba5563708daca94dd84ad7112f",
            "0x6648efe854126eca977839455e095d4cb46e5035b64bc3aa0f8da2c5ebdce489",
            "0x0000000000000000000000000436b86c7e2c70af12728371c80563b29b2f3391"
          ],
          "data": "0x0000000000000000000000000000000000000000000000000000000000000000ffffffffffffffffffffffffffffffffffffffffffffffffffffa50cef85c0000000000000000000000000000000610e435365e13939053aea7b1624ad781f46000000000000000000000000000000000000000000000000000000000000028d000000000000000000000000000000000000000000000000000000000009dba70000000000000000000000000000000000000000000000000000000000000bb8",
          "blockHash": "0xc87eac2e9b6b86f691f81943e52acc9600e424b0506295754a2a00f60df57008",
          "blockNumber": "0x987d2e",
          "blockTimestamp": "0x695db3e8",
          "transactionHash": "0x507c556090f791b83100a2aef288634983fcb57d290726f779619948ab7c26fe",
          "transactionIndex": "0x40",
          "logIndex": "0x33",
          "removed": false
        },
        {
          "address": "0x5c13377f19b9aeb3cb00fcc8e58e9a2b43889540",
          "topics": [
            "0xcd9f4ccdc13709817c4447834a44bef5d62ffe25139e5c329d8debc5c177cc79",
            "0x6648efe854126eca977839455e095d4cb46e5035b64bc3aa0f8da2c5ebdce489"
          ],
          "data": "0x000000000000000000000000000000000000000000000000000000000000000000000000000000000000000000000000000000000000000000000045d964b8000000000000000000000000000000000000000000000000000000000000000bb80000000000000000000000000000000000000000000000000001b2eb9d21b00000000000000000000000000000000000000000000000000013e8b91962c68bb8",
          "blockHash": "0xc87eac2e9b6b86f691f81943e52acc9600e424b0506295754a2a00f60df57008",
          "blockNumber": "0x987d2e",
          "blockTimestamp": "0x695db3e8",
          "transactionHash": "0x507c556090f791b83100a2aef288634983fcb57d290726f779619948ab7c26fe",
          "transactionIndex": "0x40",
          "logIndex": "0x34",
          "removed": false
        },
        {
          "address": "0xfff9976782d46cc05630d1f6ebab18b2324d6b14",
          "topics": [
            "0xddf252ad1be2c89b69c2b068fc378daa952ba7f163c4a11628f55a4df523b3ef",
            "0x00000000000000000000000063f976191f9dd75bd5b0fd81320d37fbc0d74080",
            "0x00000000000000000000000076e9e1affde82bb4544ce95ea58ffc2f9d45061f"
          ],
          "data": "0x00000000000000000000000000000000000000000000000000005af3107a4000",
          "blockHash": "0xc87eac2e9b6b86f691f81943e52acc9600e424b0506295754a2a00f60df57008",
          "blockNumber": "0x987d2e",
          "blockTimestamp": "0x695db3e8",
          "transactionHash": "0x507c556090f791b83100a2aef288634983fcb57d290726f779619948ab7c26fe",
          "transactionIndex": "0x40",
          "logIndex": "0x35",
          "removed": false
        }
      ],
      "logsBloom": "0x00001000000000000000000000000001002000000000000000000000000000000000000000000000000020000000000000000000040010000000000000001000000000000000000000000008000000000000000000000820000000000000010000000000000000000000004000000000000000000000000000000012000000000040000000000000000000000000010000000000000000000000000000000000000020400000040000000000000000000000000000000000000001000000000000000002080004000002002000000000000000000000000000008000000000000000000000000000004000020000050000000000000000000000000000000000",
      "type": "0x2",
      "transactionHash": "0x507c556090f791b83100a2aef288634983fcb57d290726f779619948ab7c26fe",
      "transactionIndex": "0x40",
      "blockHash": "0xc87eac2e9b6b86f691f81943e52acc9600e424b0506295754a2a00f60df57008",
      "blockNumber": "0x987d2e",
      "gasUsed": "0x1aa9a",
      "effectiveGasPrice": "0xf4248",
      "from": "0x63f976191f9dd75bd5b0fd81320d37fbc0d74080",
      "to": "0x0436b86c7e2c70af12728371c80563b29b2f3391",
      "contractAddress": null
    },
    {
      "status": "0x1",
      "cumulativeGasUsed": "0x43552b",
      "logs": [
        {
          "address": "0x76e9e1affde82bb4544ce95ea58ffc2f9d45061f",
          "topics": [
            "0x40e9cecb9f5f1f1c5b9c97dec2917b7ee92e57ba5563708daca94dd84ad7112f",
            "0x6648efe854126eca977839455e095d4cb46e5035b64bc3aa0f8da2c5ebdce489",
            "0x0000000000000000000000000436b86c7e2c70af12728371c80563b29b2f3391"
          ],
          "data": "0x0000000000000000000000000000000000000000000000000000000000000000ffffffffffffffffffffffffffffffffffffffffffffffffffffa50cef85c00000000000000000000000000000006131cfc260997b15bcb40e27f9864b75c51a000000000000000000000000000000000000000000000000000000000000028d000000000000000000000000000000000000000000000000000000000009dbc40000000000000000000000000000000000000000000000000000000000000bb8",
          "blockHash": "0xc87eac2e9b6b86f691f81943e52acc9600e424b0506295754a2a00f60df57008",
          "blockNumber": "0x987d2e",
          "blockTimestamp": "0x695db3e8",
          "transactionHash": "0x30703a02ffd5163c6126f3f3d9d9006c488da0778bdb15baa9c4936027eef00a",
          "transactionIndex": "0x41",
          "logIndex": "0x36",
          "removed": false
        },
        {
          "address": "0x5c13377f19b9aeb3cb00fcc8e58e9a2b43889540",
          "topics": [
            "0xcd9f4ccdc13709817c4447834a44bef5d62ffe25139e5c329d8debc5c177cc79",
            "0x6648efe854126eca977839455e095d4cb46e5035b64bc3aa0f8da2c5ebdce489"
          ],
          "data": "0x000000000000000000000000000000000000000000000000000000000000000000000000000000000000000000000000000000000000000000000045d964b8000000000000000000000000000000000000000000000000000000000000000bb80000000000000000000000000000000000000000000000000001b3317686680000000000000000000000000000000000000000000000000013ebeba4f712cbb8",
          "blockHash": "0xc87eac2e9b6b86f691f81943e52acc9600e424b0506295754a2a00f60df57008",
          "blockNumber": "0x987d2e",
          "blockTimestamp": "0x695db3e8",
          "transactionHash": "0x30703a02ffd5163c6126f3f3d9d9006c488da0778bdb15baa9c4936027eef00a",
          "transactionIndex": "0x41",
          "logIndex": "0x37",
          "removed": false
        },
        {
          "address": "0xfff9976782d46cc05630d1f6ebab18b2324d6b14",
          "topics": [
            "0xddf252ad1be2c89b69c2b068fc378daa952ba7f163c4a11628f55a4df523b3ef",
            "0x00000000000000000000000063f976191f9dd75bd5b0fd81320d37fbc0d74080",
            "0x00000000000000000000000076e9e1affde82bb4544ce95ea58ffc2f9d45061f"
          ],
          "data": "0x00000000000000000000000000000000000000000000000000005af3107a4000",
          "blockHash": "0xc87eac2e9b6b86f691f81943e52acc9600e424b0506295754a2a00f60df57008",
          "blockNumber": "0x987d2e",
          "blockTimestamp": "0x695db3e8",
          "transactionHash": "0x30703a02ffd5163c6126f3f3d9d9006c488da0778bdb15baa9c4936027eef00a",
          "transactionIndex": "0x41",
          "logIndex": "0x38",
          "removed": false
        }
      ],
      "logsBloom": "0x00001000000000000000000000000001002000000000000000000000000000000000000000000000000020000000000000000000040010000000000000001000000000000000000000000008000000000000000000000820000000000000010000000000000000000000004000000000000000000000000000000012000000000040000000000000000000000000010000000000000000000000000000000000000020400000040000000000000000000000000000000000000001000000000000000002080004000002002000000000000000000000000000008000000000000000000000000000004000020000050000000000000000000000000000000000",
      "type": "0x2",
      "transactionHash": "0x30703a02ffd5163c6126f3f3d9d9006c488da0778bdb15baa9c4936027eef00a",
      "transactionIndex": "0x41",
      "blockHash": "0xc87eac2e9b6b86f691f81943e52acc9600e424b0506295754a2a00f60df57008",
      "blockNumber": "0x987d2e",
      "gasUsed": "0x1a6c2",
      "effectiveGasPrice": "0xf4248",
      "from": "0x63f976191f9dd75bd5b0fd81320d37fbc0d74080",
      "to": "0x0436b86c7e2c70af12728371c80563b29b2f3391",
      "contractAddress": null
    },
    {
      "status": "0x1",
      "cumulativeGasUsed": "0x44ffc5",
      "logs": [
        {
          "address": "0x76e9e1affde82bb4544ce95ea58ffc2f9d45061f",
          "topics": [
            "0x40e9cecb9f5f1f1c5b9c97dec2917b7ee92e57ba5563708daca94dd84ad7112f",
            "0x6648efe854126eca977839455e095d4cb46e5035b64bc3aa0f8da2c5ebdce489",
            "0x0000000000000000000000000436b86c7e2c70af12728371c80563b29b2f3391"
          ],
          "data": "0x0000000000000000000000000000000000000000000000000000000000000000ffffffffffffffffffffffffffffffffffffffffffffffffffffa50cef85c000000000000000000000000000000061555c315b51bcf2742d31d4dce7e9736aee000000000000000000000000000000000000000000000000000000000000028d000000000000000000000000000000000000000000000000000000000009dbe00000000000000000000000000000000000000000000000000000000000000bb8",
          "blockHash": "0xc87eac2e9b6b86f691f81943e52acc9600e424b0506295754a2a00f60df57008",
          "blockNumber": "0x987d2e",
          "blockTimestamp": "0x695db3e8",
          "transactionHash": "0x5ad8b0263f2e1b88e292b365293fffbd38120c72228ee54db6fb2be791326023",
          "transactionIndex": "0x42",
          "logIndex": "0x39",
          "removed": false
        },
        {
          "address": "0x5c13377f19b9aeb3cb00fcc8e58e9a2b43889540",
          "topics": [
            "0xcd9f4ccdc13709817c4447834a44bef5d62ffe25139e5c329d8debc5c177cc79",
            "0x6648efe854126eca977839455e095d4cb46e5035b64bc3aa0f8da2c5ebdce489"
          ],
          "data": "0x000000000000000000000000000000000000000000000000000000000000000000000000000000000000000000000000000000000000000000000045d964b8000000000000000000000000000000000000000000000000000000000000000bb80000000000000000000000000000000000000000000000000001b3774feb200000000000000000000000000000000000000000000000000013ef1e308b5f0bb8",
          "blockHash": "0xc87eac2e9b6b86f691f81943e52acc9600e424b0506295754a2a00f60df57008",
          "blockNumber": "0x987d2e",
          "blockTimestamp": "0x695db3e8",
          "transactionHash": "0x5ad8b0263f2e1b88e292b365293fffbd38120c72228ee54db6fb2be791326023",
          "transactionIndex": "0x42",
          "logIndex": "0x3a",
          "removed": false
        },
        {
          "address": "0xfff9976782d46cc05630d1f6ebab18b2324d6b14",
          "topics": [
            "0xddf252ad1be2c89b69c2b068fc378daa952ba7f163c4a11628f55a4df523b3ef",
            "0x00000000000000000000000063f976191f9dd75bd5b0fd81320d37fbc0d74080",
            "0x00000000000000000000000076e9e1affde82bb4544ce95ea58ffc2f9d45061f"
          ],
          "data": "0x00000000000000000000000000000000000000000000000000005af3107a4000",
          "blockHash": "0xc87eac2e9b6b86f691f81943e52acc9600e424b0506295754a2a00f60df57008",
          "blockNumber": "0x987d2e",
          "blockTimestamp": "0x695db3e8",
          "transactionHash": "0x5ad8b0263f2e1b88e292b365293fffbd38120c72228ee54db6fb2be791326023",
          "transactionIndex": "0x42",
          "logIndex": "0x3b",
          "removed": false
        }
      ],
      "logsBloom": "0x00001000000000000000000000000001002000000000000000000000000000000000000000000000000020000000000000000000040010000000000000001000000000000000000000000008000000000000000000000820000000000000010000000000000000000000004000000000000000000000000000000012000000000040000000000000000000000000010000000000000000000000000000000000000020400000040000000000000000000000000000000000000001000000000000000002080004000002002000000000000000000000000000008000000000000000000000000000004000020000050000000000000000000000000000000000",
      "type": "0x2",
      "transactionHash": "0x5ad8b0263f2e1b88e292b365293fffbd38120c72228ee54db6fb2be791326023",
      "transactionIndex": "0x42",
      "blockHash": "0xc87eac2e9b6b86f691f81943e52acc9600e424b0506295754a2a00f60df57008",
      "blockNumber": "0x987d2e",
      "gasUsed": "0x1aa9a",
      "effectiveGasPrice": "0xf4248",
      "from": "0x63f976191f9dd75bd5b0fd81320d37fbc0d74080",
      "to": "0x0436b86c7e2c70af12728371c80563b29b2f3391",
      "contractAddress": null
    },
    {
      "status": "0x1",
      "cumulativeGasUsed": "0x46aabb",
      "logs": [
        {
          "address": "0x76e9e1affde82bb4544ce95ea58ffc2f9d45061f",
          "topics": [
            "0x40e9cecb9f5f1f1c5b9c97dec2917b7ee92e57ba5563708daca94dd84ad7112f",
            "0x6648efe854126eca977839455e095d4cb46e5035b64bc3aa0f8da2c5ebdce489",
            "0x0000000000000000000000000436b86c7e2c70af12728371c80563b29b2f3391"
          ],
          "data": "0x0000000000000000000000000000000000000000000000000000000000000000ffffffffffffffffffffffffffffffffffffffffffffffffffffa50cef85c00000000000000000000000000000006178e8a05609fecf2ba65581c049877110c2000000000000000000000000000000000000000000000000000000000000028d000000000000000000000000000000000000000000000000000000000009dbfd0000000000000000000000000000000000000000000000000000000000000bb8",
          "blockHash": "0xc87eac2e9b6b86f691f81943e52acc9600e424b0506295754a2a00f60df57008",
          "blockNumber": "0x987d2e",
          "blockTimestamp": "0x695db3e8",
          "transactionHash": "0x0012efd092e628f207f41c081a65a913041929f5a4cc9101b7726d40295cedcf",
          "transactionIndex": "0x43",
          "logIndex": "0x3c",
          "removed": false
        },
        {
          "address": "0x5c13377f19b9aeb3cb00fcc8e58e9a2b43889540",
          "topics": [
            "0xcd9f4ccdc13709817c4447834a44bef5d62ffe25139e5c329d8debc5c177cc79",
            "0x6648efe854126eca977839455e095d4cb46e5035b64bc3aa0f8da2c5ebdce489"
          ],
          "data": "0x000000000000000000000000000000000000000000000000000000000000000000000000000000000000000000000000000000000000000000000045d964b8000000000000000000000000000000000000000000000000000000000000000bb80000000000000000000000000000000000000000000000000001b3bd294fd80000000000000000000000000000000000000000000000000013f250bc1fab4bb8",
          "blockHash": "0xc87eac2e9b6b86f691f81943e52acc9600e424b0506295754a2a00f60df57008",
          "blockNumber": "0x987d2e",
          "blockTimestamp": "0x695db3e8",
          "transactionHash": "0x0012efd092e628f207f41c081a65a913041929f5a4cc9101b7726d40295cedcf",
          "transactionIndex": "0x43",
          "logIndex": "0x3d",
          "removed": false
        },
        {
          "address": "0xfff9976782d46cc05630d1f6ebab18b2324d6b14",
          "topics": [
            "0xddf252ad1be2c89b69c2b068fc378daa952ba7f163c4a11628f55a4df523b3ef",
            "0x00000000000000000000000063f976191f9dd75bd5b0fd81320d37fbc0d74080",
            "0x00000000000000000000000076e9e1affde82bb4544ce95ea58ffc2f9d45061f"
          ],
          "data": "0x00000000000000000000000000000000000000000000000000005af3107a4000",
          "blockHash": "0xc87eac2e9b6b86f691f81943e52acc9600e424b0506295754a2a00f60df57008",
          "blockNumber": "0x987d2e",
          "blockTimestamp": "0x695db3e8",
          "transactionHash": "0x0012efd092e628f207f41c081a65a913041929f5a4cc9101b7726d40295cedcf",
          "transactionIndex": "0x43",
          "logIndex": "0x3e",
          "removed": false
        }
      ],
      "logsBloom": "0x00001000000000000000000000000001002000000000000000000000000000000000000000000000000020000000000000000000040010000000000000001000000000000000000000000008000000000000000000000820000000000000010000000000000000000000004000000000000000000000000000000012000000000040000000000000000000000000010000000000000000000000000000000000000020400000040000000000000000000000000000000000000001000000000000000002080004000002002000000000000000000000000000008000000000000000000000000000004000020000050000000000000000000000000000000000",
      "type": "0x2",
      "transactionHash": "0x0012efd092e628f207f41c081a65a913041929f5a4cc9101b7726d40295cedcf",
      "transactionIndex": "0x43",
      "blockHash": "0xc87eac2e9b6b86f691f81943e52acc9600e424b0506295754a2a00f60df57008",
      "blockNumber": "0x987d2e",
      "gasUsed": "0x1aaf6",
      "effectiveGasPrice": "0xf4248",
      "from": "0x63f976191f9dd75bd5b0fd81320d37fbc0d74080",
      "to": "0x0436b86c7e2c70af12728371c80563b29b2f3391",
      "contractAddress": null
    },
    {
      "status": "0x1",
      "cumulativeGasUsed": "0x485535",
      "logs": [
        {
          "address": "0x76e9e1affde82bb4544ce95ea58ffc2f9d45061f",
          "topics": [
            "0x40e9cecb9f5f1f1c5b9c97dec2917b7ee92e57ba5563708daca94dd84ad7112f",
            "0x6648efe854126eca977839455e095d4cb46e5035b64bc3aa0f8da2c5ebdce489",
            "0x0000000000000000000000000436b86c7e2c70af12728371c80563b29b2f3391"
          ],
          "data": "0x0000000000000000000000000000000000000000000000000000000000000000ffffffffffffffffffffffffffffffffffffffffffffffffffffa50cef85c0000000000000000000000000000000619c750f50c240abe31f792ea3ab256eb696000000000000000000000000000000000000000000000000000000000000028d000000000000000000000000000000000000000000000000000000000009dc190000000000000000000000000000000000000000000000000000000000000bb8",
          "blockHash": "0xc87eac2e9b6b86f691f81943e52acc9600e424b0506295754a2a00f60df57008",
          "blockNumber": "0x987d2e",
          "blockTimestamp": "0x695db3e8",
          "transactionHash": "0x63165cfc56d14a9d8ea5a8852726938546a8b6a8128a015c3344e634b73bab51",
          "transactionIndex": "0x44",
          "logIndex": "0x3f",
          "removed": false
        },
        {
          "address": "0x5c13377f19b9aeb3cb00fcc8e58e9a2b43889540",
          "topics": [
            "0xcd9f4ccdc13709817c4447834a44bef5d62ffe25139e5c329d8debc5c177cc79",
            "0x6648efe854126eca977839455e095d4cb46e5035b64bc3aa0f8da2c5ebdce489"
          ],
          "data": "0x000000000000000000000000000000000000000000000000000000000000000000000000000000000000000000000000000000000000000000000045d964b8000000000000000000000000000000000000000000000000000000000000000bb80000000000000000000000000000000000000000000000000001b40302b4900000000000000000000000000000000000000000000000000013f58347b3f78bb8",
          "blockHash": "0xc87eac2e9b6b86f691f81943e52acc9600e424b0506295754a2a00f60df57008",
          "blockNumber": "0x987d2e",
          "blockTimestamp": "0x695db3e8",
          "transactionHash": "0x63165cfc56d14a9d8ea5a8852726938546a8b6a8128a015c3344e634b73bab51",
          "transactionIndex": "0x44",
          "logIndex": "0x40",
          "removed": false
        },
        {
          "address": "0xfff9976782d46cc05630d1f6ebab18b2324d6b14",
          "topics": [
            "0xddf252ad1be2c89b69c2b068fc378daa952ba7f163c4a11628f55a4df523b3ef",
            "0x00000000000000000000000063f976191f9dd75bd5b0fd81320d37fbc0d74080",
            "0x00000000000000000000000076e9e1affde82bb4544ce95ea58ffc2f9d45061f"
          ],
          "data": "0x00000000000000000000000000000000000000000000000000005af3107a4000",
          "blockHash": "0xc87eac2e9b6b86f691f81943e52acc9600e424b0506295754a2a00f60df57008",
          "blockNumber": "0x987d2e",
          "blockTimestamp": "0x695db3e8",
          "transactionHash": "0x63165cfc56d14a9d8ea5a8852726938546a8b6a8128a015c3344e634b73bab51",
          "transactionIndex": "0x44",
          "logIndex": "0x41",
          "removed": false
        }
      ],
      "logsBloom": "0x00001000000000000000000000000001002000000000000000000000000000000000000000000000000020000000000000000000040010000000000000001000000000000000000000000008000000000000000000000820000000000000010000000000000000000000004000000000000000000000000000000012000000000040000000000000000000000000010000000000000000000000000000000000000020400000040000000000000000000000000000000000000001000000000000000002080004000002002000000000000000000000000000008000000000000000000000000000004000020000050000000000000000000000000000000000",
      "type": "0x2",
      "transactionHash": "0x63165cfc56d14a9d8ea5a8852726938546a8b6a8128a015c3344e634b73bab51",
      "transactionIndex": "0x44",
      "blockHash": "0xc87eac2e9b6b86f691f81943e52acc9600e424b0506295754a2a00f60df57008",
      "blockNumber": "0x987d2e",
      "gasUsed": "0x1aa7a",
      "effectiveGasPrice": "0xf4248",
      "from": "0x63f976191f9dd75bd5b0fd81320d37fbc0d74080",
      "to": "0x0436b86c7e2c70af12728371c80563b29b2f3391",
      "contractAddress": null
    },
    {
      "status": "0x1",
      "cumulativeGasUsed": "0x49ffcf",
      "logs": [
        {
          "address": "0x76e9e1affde82bb4544ce95ea58ffc2f9d45061f",
          "topics": [
            "0x40e9cecb9f5f1f1c5b9c97dec2917b7ee92e57ba5563708daca94dd84ad7112f",
            "0x6648efe854126eca977839455e095d4cb46e5035b64bc3aa0f8da2c5ebdce489",
            "0x0000000000000000000000000436b86c7e2c70af12728371c80563b29b2f3391"
          ],
          "data": "0x0000000000000000000000000000000000000000000000000000000000000000ffffffffffffffffffffffffffffffffffffffffffffffffffffa50cef85c000000000000000000000000000000061c0017e4b7a82889a989cdb870cc36c5c6a000000000000000000000000000000000000000000000000000000000000028d000000000000000000000000000000000000000000000000000000000009dc360000000000000000000000000000000000000000000000000000000000000bb8",
          "blockHash": "0xc87eac2e9b6b86f691f81943e52acc9600e424b0506295754a2a00f60df57008",
          "blockNumber": "0x987d2e",
          "blockTimestamp": "0x695db3e8",
          "transactionHash": "0x1174f3fd584913862a200639da88d287cbe990377a7736c6192a3c5331de1774",
          "transactionIndex": "0x45",
          "logIndex": "0x42",
          "removed": false
        },
        {
          "address": "0x5c13377f19b9aeb3cb00fcc8e58e9a2b43889540",
          "topics": [
            "0xcd9f4ccdc13709817c4447834a44bef5d62ffe25139e5c329d8debc5c177cc79",
            "0x6648efe854126eca977839455e095d4cb46e5035b64bc3aa0f8da2c5ebdce489"
          ],
          "data": "0x000000000000000000000000000000000000000000000000000000000000000000000000000000000000000000000000000000000000000000000045d964b8000000000000000000000000000000000000000000000000000000000000000bb80000000000000000000000000000000000000000000000000001b448dc19480000000000000000000000000000000000000000000000000013f8b5d34843cbb8",
          "blockHash": "0xc87eac2e9b6b86f691f81943e52acc9600e424b0506295754a2a00f60df57008",
          "blockNumber": "0x987d2e",
          "blockTimestamp": "0x695db3e8",
          "transactionHash": "0x1174f3fd584913862a200639da88d287cbe990377a7736c6192a3c5331de1774",
          "transactionIndex": "0x45",
          "logIndex": "0x43",
          "removed": false
        },
        {
          "address": "0xfff9976782d46cc05630d1f6ebab18b2324d6b14",
          "topics": [
            "0xddf252ad1be2c89b69c2b068fc378daa952ba7f163c4a11628f55a4df523b3ef",
            "0x00000000000000000000000063f976191f9dd75bd5b0fd81320d37fbc0d74080",
            "0x00000000000000000000000076e9e1affde82bb4544ce95ea58ffc2f9d45061f"
          ],
          "data": "0x00000000000000000000000000000000000000000000000000005af3107a4000",
          "blockHash": "0xc87eac2e9b6b86f691f81943e52acc9600e424b0506295754a2a00f60df57008",
          "blockNumber": "0x987d2e",
          "blockTimestamp": "0x695db3e8",
          "transactionHash": "0x1174f3fd584913862a200639da88d287cbe990377a7736c6192a3c5331de1774",
          "transactionIndex": "0x45",
          "logIndex": "0x44",
          "removed": false
        }
      ],
      "logsBloom": "0x00001000000000000000000000000001002000000000000000000000000000000000000000000000000020000000000000000000040010000000000000001000000000000000000000000008000000000000000000000820000000000000010000000000000000000000004000000000000000000000000000000012000000000040000000000000000000000000010000000000000000000000000000000000000020400000040000000000000000000000000000000000000001000000000000000002080004000002002000000000000000000000000000008000000000000000000000000000004000020000050000000000000000000000000000000000",
      "type": "0x2",
      "transactionHash": "0x1174f3fd584913862a200639da88d287cbe990377a7736c6192a3c5331de1774",
      "transactionIndex": "0x45",
      "blockHash": "0xc87eac2e9b6b86f691f81943e52acc9600e424b0506295754a2a00f60df57008",
      "blockNumber": "0x987d2e",
      "gasUsed": "0x1aa9a",
      "effectiveGasPrice": "0xf4248",
      "from": "0x63f976191f9dd75bd5b0fd81320d37fbc0d74080",
      "to": "0x0436b86c7e2c70af12728371c80563b29b2f3391",
      "contractAddress": null
    },
    {
      "status": "0x1",
      "cumulativeGasUsed": "0x4baa49",
      "logs": [
        {
          "address": "0x76e9e1affde82bb4544ce95ea58ffc2f9d45061f",
          "topics": [
            "0x40e9cecb9f5f1f1c5b9c97dec2917b7ee92e57ba5563708daca94dd84ad7112f",
            "0x6648efe854126eca977839455e095d4cb46e5035b64bc3aa0f8da2c5ebdce489",
            "0x0000000000000000000000000436b86c7e2c70af12728371c80563b29b2f3391"
          ],
          "data": "0x0000000000000000000000000000000000000000000000000000000000000000ffffffffffffffffffffffffffffffffffffffffffffffffffffa50cef85c000000000000000000000000000000061e38ded4632c4655211c0886a6e616a023e000000000000000000000000000000000000000000000000000000000000028d000000000000000000000000000000000000000000000000000000000009dc520000000000000000000000000000000000000000000000000000000000000bb8",
          "blockHash": "0xc87eac2e9b6b86f691f81943e52acc9600e424b0506295754a2a00f60df57008",
          "blockNumber": "0x987d2e",
          "blockTimestamp": "0x695db3e8",
          "transactionHash": "0xd17862a71384e297f6bca366d6b3a3f0ba778d043d13c00bd7059ac738339bac",
          "transactionIndex": "0x46",
          "logIndex": "0x45",
          "removed": false
        },
        {
          "address": "0x5c13377f19b9aeb3cb00fcc8e58e9a2b43889540",
          "topics": [
            "0xcd9f4ccdc13709817c4447834a44bef5d62ffe25139e5c329d8debc5c177cc79",
            "0x6648efe854126eca977839455e095d4cb46e5035b64bc3aa0f8da2c5ebdce489"
          ],
          "data": "0x000000000000000000000000000000000000000000000000000000000000000000000000000000000000000000000000000000000000000000000045d964b8000000000000000000000000000000000000000000000000000000000000000bb80000000000000000000000000000000000000000000000000001b48eb57e000000000000000000000000000000000000000000000000000013fbe85edc900bb8",
          "blockHash": "0xc87eac2e9b6b86f691f81943e52acc9600e424b0506295754a2a00f60df57008",
          "blockNumber": "0x987d2e",
          "blockTimestamp": "0x695db3e8",
          "transactionHash": "0xd17862a71384e297f6bca366d6b3a3f0ba778d043d13c00bd7059ac738339bac",
          "transactionIndex": "0x46",
          "logIndex": "0x46",
          "removed": false
        },
        {
          "address": "0xfff9976782d46cc05630d1f6ebab18b2324d6b14",
          "topics": [
            "0xddf252ad1be2c89b69c2b068fc378daa952ba7f163c4a11628f55a4df523b3ef",
            "0x00000000000000000000000063f976191f9dd75bd5b0fd81320d37fbc0d74080",
            "0x00000000000000000000000076e9e1affde82bb4544ce95ea58ffc2f9d45061f"
          ],
          "data": "0x00000000000000000000000000000000000000000000000000005af3107a4000",
          "blockHash": "0xc87eac2e9b6b86f691f81943e52acc9600e424b0506295754a2a00f60df57008",
          "blockNumber": "0x987d2e",
          "blockTimestamp": "0x695db3e8",
          "transactionHash": "0xd17862a71384e297f6bca366d6b3a3f0ba778d043d13c00bd7059ac738339bac",
          "transactionIndex": "0x46",
          "logIndex": "0x47",
          "removed": false
        }
      ],
      "logsBloom": "0x00001000000000000000000000000001002000000000000000000000000000000000000000000000000020000000000000000000040010000000000000001000000000000000000000000008000000000000000000000820000000000000010000000000000000000000004000000000000000000000000000000012000000000040000000000000000000000000010000000000000000000000000000000000000020400000040000000000000000000000000000000000000001000000000000000002080004000002002000000000000000000000000000008000000000000000000000000000004000020000050000000000000000000000000000000000",
      "type": "0x2",
      "transactionHash": "0xd17862a71384e297f6bca366d6b3a3f0ba778d043d13c00bd7059ac738339bac",
      "transactionIndex": "0x46",
      "blockHash": "0xc87eac2e9b6b86f691f81943e52acc9600e424b0506295754a2a00f60df57008",
      "blockNumber": "0x987d2e",
      "gasUsed": "0x1aa7a",
      "effectiveGasPrice": "0xf4248",
      "from": "0x63f976191f9dd75bd5b0fd81320d37fbc0d74080",
      "to": "0x0436b86c7e2c70af12728371c80563b29b2f3391",
      "contractAddress": null
    }
  ],
  "libraries": [],
  "pending": [],
  "returns": {},
  "timestamp": 1767748585408,
  "chain": 11155111,
  "commit": "93c8eb5"
}