{
  "transactions": [
    {
      "hash": "0xeb9f3559c93cb68314116ad16ed18abbbaa47460e3ba2b15049b3b8bd86341fb",
      "transactionType": "CREATE",
      "contractName": "SwapHelper",
      "contractAddress": "0x0beba864b688e45d997a4f33a21c6674cbdf7336",
      "function": null,
      "arguments": [
        "0x76E9E1AFFDe82bb4544cE95EA58fFc2f9D45061f"
      ],
      "transaction": {
        "from": "0x63f976191f9dd75bd5b0fd81320d37fbc0d74080",
        "gas": "0x118d81",
        "value": "0x0",
        "input": "0x60a034607457601f610f9f38819003918201601f19168301916001600160401b03831184841017607857808492602094604052833981010312607457516001600160a01b0381168103607457608052604051610f12908161008d82396080518181816103290152818161044d01526104e20152f35b5f80fd5b634e487b7160e01b5f52604160045260245ffdfe6080806040526004361015610012575f80fd5b5f3560e01c90816391dd73461461047157508063dc4c90d3146104035763f3cd914c1461003d575f80fd5b3461037a577ffffffffffffffffffffffffffffffffffffffffffffffffffffffffffffffffc3601610120811261037a5760a01361037a5760405161008181610a3e565b60043573ffffffffffffffffffffffffffffffffffffffff8116810361037a57815260243573ffffffffffffffffffffffffffffffffffffffff8116810361037a57602082015260443562ffffff8116810361037a5760408201526064358060020b810361037a57606082015260843573ffffffffffffffffffffffffffffffffffffffff8116810361037a57608082015260607fffffffffffffffffffffffffffffffffffffffffffffffffffffffffffffff5c36011261037a576040519061014a82610a5a565b60a435801515810361037a57825260c435602083015260e43573ffffffffffffffffffffffffffffffffffffffff8116810361037a5760408301526101043567ffffffffffffffff811161037a576102d45f926102a861030f956102936101ca73ffffffffffffffffffffffffffffffffffffffff963690600401610b12565b9161025b604051956101db876109f5565b3387526020870190815260408701928352606087019485526040519889976020808a01525116604088015251606087019073ffffffffffffffffffffffffffffffffffffffff6080809282815116855282602082015116602086015262ffffff6040820151166040860152606081015160020b6060860152015116910152565b518051151561010086015260208101516101208601526040015173ffffffffffffffffffffffffffffffffffffffff16610140850152565b516101406101608401526101808301906109b2565b037fffffffffffffffffffffffffffffffffffffffffffffffffffffffffffffffe08101835282610a76565b604051809381927f48c894910000000000000000000000000000000000000000000000000000000083526020600484015260248301906109b2565b03818373ffffffffffffffffffffffffffffffffffffffff7f0000000000000000000000000000000000000000000000000000000000000000165af19081156103f8575f9161037e575b506020815191818082019384920101031261037a5760209051604051908152f35b5f80fd5b90503d805f833e61038f8183610a76565b81019060208183031261037a5780519067ffffffffffffffff821161037a570181601f8201121561037a578051906103c682610ad8565b926103d46040519485610a76565b8284526020838301011161037a57815f9260208093018386015e830101525f610359565b6040513d5f823e3d90fd5b3461037a575f7ffffffffffffffffffffffffffffffffffffffffffffffffffffffffffffffffc36011261037a57602060405173ffffffffffffffffffffffffffffffffffffffff7f0000000000000000000000000000000000000000000000000000000000000000168152f35b3461037a5760207ffffffffffffffffffffffffffffffffffffffffffffffffffffffffffffffffc36011261037a576004359067ffffffffffffffff821161037a573660238301121561037a57816004013567ffffffffffffffff811161037a578201602481019236841161037a577f00000000000000000000000000000000000000000000000000000000000000009073ffffffffffffffffffffffffffffffffffffffff821693843303610956575060208184031261037a5760248101359067ffffffffffffffff821161037a5701936101408584031261037a576040519361055b856109f5565b61056760248701610ab7565b855260a07fffffffffffffffffffffffffffffffffffffffffffffffffffffffffffffffe0878603011261037a57604051936105a285610a3e565b6105ae60448801610ab7565b85526105bc60648801610ab7565b6020860152608487013562ffffff8116810361037a57604086015260a48701358060020b810361037a57606086015260c487013573ffffffffffffffffffffffffffffffffffffffff8116810361037a577fffffffffffffffffffffffffffffffffffffffffffffffffffffffffffffff1c8860609360249360808a015260208a019889520301011261037a576040519061065682610a5a565b60e4870135801515810361037a578252610104870135602083015261012487013573ffffffffffffffffffffffffffffffffffffffff8116810361037a576040830152604086019182526101448701359267ffffffffffffffff841161037a575f6106ce61075e9260246020976107929c0101610b12565b938460608a01526107a688519151956040519b8c97889687957ff3cd914c000000000000000000000000000000000000000000000000000000008752600487019073ffffffffffffffffffffffffffffffffffffffff6080809282815116855282602082015116602086015262ffffff6040820151166040860152606081015160020b6060860152015116910152565b8051151560a4860152602081015160c48601526040015173ffffffffffffffffffffffffffffffffffffffff1660e4850152565b6101206101048401526101248301906109b2565b03925af19283156103f8575f93610920575b61081994508360801d600f0b9184600f0b925f81126108dd575b5f8412610891575b5f811361084f575b505f831361081d575b858560405190602082015260208152610805604082610a76565b6040519182916020835260208301906109b2565b0390f35b73ffffffffffffffffffffffffffffffffffffffff806020610846965101511692511691610e71565b828080806107eb565b61088b9073ffffffffffffffffffffffffffffffffffffffff865151168373ffffffffffffffffffffffffffffffffffffffff86511691610e71565b866107e2565b6108d873ffffffffffffffffffffffffffffffffffffffff6020875101511673ffffffffffffffffffffffffffffffffffffffff855116846108d288610b67565b92610bd8565b6107da565b61091b73ffffffffffffffffffffffffffffffffffffffff8651511673ffffffffffffffffffffffffffffffffffffffff855116846108d285610b67565b6107d2565b92506020843d60201161094e575b8161093b60209383610a76565b8101031261037a576108199351926107b8565b3d915061092e565b807f08c379a0000000000000000000000000000000000000000000000000000000006064925260206004820152601960248201527f4f6e6c7920506f6f6c4d616e616765722063616e2063616c6c000000000000006044820152fd5b907fffffffffffffffffffffffffffffffffffffffffffffffffffffffffffffffe0601f602080948051918291828752018686015e5f8582860101520116010190565b6080810190811067ffffffffffffffff821117610a1157604052565b7f4e487b71000000000000000000000000000000000000000000000000000000005f52604160045260245ffd5b60a0810190811067ffffffffffffffff821117610a1157604052565b6060810190811067ffffffffffffffff821117610a1157604052565b90601f7fffffffffffffffffffffffffffffffffffffffffffffffffffffffffffffffe0910116810190811067ffffffffffffffff821117610a1157604052565b359073ffffffffffffffffffffffffffffffffffffffff8216820361037a57565b67ffffffffffffffff8111610a1157601f017fffffffffffffffffffffffffffffffffffffffffffffffffffffffffffffffe01660200190565b81601f8201121561037a57803590610b2982610ad8565b92610b376040519485610a76565b8284526020838301011161037a57815f926020809301838601378301015290565b9081602091031261037a575190565b7f80000000000000000000000000000000000000000000000000000000000000008114610b93575f0390565b7f4e487b71000000000000000000000000000000000000000000000000000000005f52601160045260245ffd5b9081602091031261037a5751801515810361037a5790565b90919073ffffffffffffffffffffffffffffffffffffffff1680610c7857505073ffffffffffffffffffffffffffffffffffffffff600460209260405194859384927f11da60b4000000000000000000000000000000000000000000000000000000008452165af180156103f857610c4d5750565b610c6e9060203d602011610c71575b610c668183610a76565b810190610b58565b50565b503d610c5c565b90929173ffffffffffffffffffffffffffffffffffffffff1691823b1561037a57604051937fa58411940000000000000000000000000000000000000000000000000000000085528260048601525a945f816024818389819bf180156103f857610e48575b5073ffffffffffffffffffffffffffffffffffffffff1684308214610dd4576020929160649160405195869485937f23b872dd000000000000000000000000000000000000000000000000000000008552600485015288602485015260448401525af18015610dc957916020918493610d9c575b505b6004604051809581937f11da60b40000000000000000000000000000000000000000000000000000000083525af1908115610d905750610c4d5750565b604051903d90823e3d90fd5b610dbb90833d8511610dc2575b610db38183610a76565b810190610bc0565b505f610d51565b503d610da9565b6040513d85823e3d90fd5b929050604460209260405194859384927fa9059cbb00000000000000000000000000000000000000000000000000000000845288600485015260248401525af18015610dc957916020918493610e2b575b50610d53565b610e4190833d8511610dc257610db38183610a76565b505f610e25565b610e559195505f90610a76565b5f9373ffffffffffffffffffffffffffffffffffffffff610cdd565b91929073ffffffffffffffffffffffffffffffffffffffff16803b1561037a575f928360649273ffffffffffffffffffffffffffffffffffffffff948560405198899788967f0b0d9c0900000000000000000000000000000000000000000000000000000000885216600487015216602485015260448401525af180156103f857610ef95750565b5f610f0391610a76565b56fea164736f6c634300081a000a00000000000000000000000076e9e1affde82bb4544ce95ea58ffc2f9d45061f",
        "nonce": "0xf4a",
        "chainId": "0xaa36a7"
      },
      "additionalContracts": [],
      "isFixedGasLimit": false
    },
    {
      "hash": "0x22865afb4c9e1e0341ce4ba9e4ef378d026f9952e72e83430a96c4ebc07876eb",
      "transactionType": "CALL",
      "contractName": null,
      "contractAddress": "0xfff9976782d46cc05630d1f6ebab18b2324d6b14",
      "function": "approve(address,uint256)",
      "arguments": [
        "0x0beba864B688e45D997a4f33A21c6674CBDF7336",
        "115792089237316195423570985008687907853269984665640564039457584007913129639935"
      ],
      "transaction": {
        "from": "0x63f976191f9dd75bd5b0fd81320d37fbc0d74080",
        "to": "0xfff9976782d46cc05630d1f6ebab18b2324d6b14",
        "gas": "0xfa27",
        "value": "0x0",
        "input": "0x095ea7b30000000000000000000000000beba864b688e45d997a4f33a21c6674cbdf7336ffffffffffffffffffffffffffffffffffffffffffffffffffffffffffffffff",
        "nonce": "0xf4b",
        "chainId": "0xaa36a7"
      },
      "additionalContracts": [],
      "isFixedGasLimit": false
    },
    {
      "hash": "0xf5af340b7248c284994633896dd10a0509566cc34172eb67e6d2b6b921290d74",
      "transactionType": "CALL",
      "contractName": null,
      "contractAddress": "0x1c7d4b196cb0c7b01d743fbc6116a902379c7238",
      "function": "approve(address,uint256)",
      "arguments": [
        "0x0beba864B688e45D997a4f33A21c6674CBDF7336",
        "115792089237316195423570985008687907853269984665640564039457584007913129639935"
      ],
      "transaction": {
        "from": "0x63f976191f9dd75bd5b0fd81320d37fbc0d74080",
        "to": "0x1c7d4b196cb0c7b01d743fbc6116a902379c7238",
        "gas": "0x13eb1",
        "value": "0x0",
        "input": "0x095ea7b30000000000000000000000000beba864b688e45d997a4f33a21c6674cbdf7336ffffffffffffffffffffffffffffffffffffffffffffffffffffffffffffffff",
        "nonce": "0xf4c",
        "chainId": "0xaa36a7"
      },
      "additionalContracts": [],
      "isFixedGasLimit": false
    },
    {
      "hash": "0x85adcf1cd9e7b22fa3dca05a0c4590e97df557d7193d3c6f0f057596bccf659e",
      "transactionType": "CALL",
      "contractName": "SwapHelper",
      "contractAddress": "0x0beba864b688e45d997a4f33a21c6674cbdf7336",
      "function": "swap((address,address,uint24,int24,address),(bool,int256,uint160),bytes)",
      "arguments": [
        "(0x1c7D4B196Cb0C7B01d743Fbc6116a902379C7238, 0xfFf9976782d46CC05630D1f6eBAb18b2324d6B14, 3000, 60, 0x5C13377F19B9AEB3CB00Fcc8E58e9A2B43889540)",
        "(false, -1000000000000000, 1461446703485210103287273052203988822378723970341)",
        "0x"
      ],
      "transaction": {
        "from": "0x63f976191f9dd75bd5b0fd81320d37fbc0d74080",
        "to": "0x0beba864b688e45d997a4f33a21c6674cbdf7336",
        "gas": "0x26eab",
        "value": "0x0",
        "input": "0xf3cd914c0000000000000000000000001c7d4b196cb0c7b01d743fbc6116a902379c7238000000000000000000000000fff9976782d46cc05630d1f6ebab18b2324d6b140000000000000000000000000000000000000000000000000000000000000bb8000000000000000000000000000000000000000000000000000000000000003c0000000000000000000000005c13377f19b9aeb3cb00fcc8e58e9a2b438895400000000000000000000000000000000000000000000000000000000000000000fffffffffffffffffffffffffffffffffffffffffffffffffffc72815b398000000000000000000000000000fffd8963efd1fc6a506488495d951d5263988d2500000000000000000000000000000000000000000000000000000000000001200000000000000000000000000000000000000000000000000000000000000000",
        "nonce": "0xf4d",
        "chainId": "0xaa36a7"
      },
      "additionalContracts": [],
      "isFixedGasLimit": false
    },
    {
      "hash": "0x641628091de053d83fc1fa3ad3eaf0749999a7f1bcac0d687e6d2ea16fe71646",
      "transactionType": "CALL",
      "contractName": "SwapHelper",
      "contractAddress": "0x0beba864b688e45d997a4f33a21c6674cbdf7336",
      "function": "swap((address,address,uint24,int24,address),(bool,int256,uint160),bytes)",
      "arguments": [
        "(0x1c7D4B196Cb0C7B01d743Fbc6116a902379C7238, 0xfFf9976782d46CC05630D1f6eBAb18b2324d6B14, 3000, 60, 0x5C13377F19B9AEB3CB00Fcc8E58e9A2B43889540)",
        "(false, -1000000000000000, 1461446703485210103287273052203988822378723970341)",
        "0x"
      ],
      "transaction": {
        "from": "0x63f976191f9dd75bd5b0fd81320d37fbc0d74080",
        "to": "0x0beba864b688e45d997a4f33a21c6674cbdf7336",
        "gas": "0x246c9",
        "value": "0x0",
        "input": "0xf3cd914c0000000000000000000000001c7d4b196cb0c7b01d743fbc6116a902379c7238000000000000000000000000fff9976782d46cc05630d1f6ebab18b2324d6b140000000000000000000000000000000000000000000000000000000000000bb8000000000000000000000000000000000000000000000000000000000000003c0000000000000000000000005c13377f19b9aeb3cb00fcc8e58e9a2b438895400000000000000000000000000000000000000000000000000000000000000000fffffffffffffffffffffffffffffffffffffffffffffffffffc72815b398000000000000000000000000000fffd8963efd1fc6a506488495d951d5263988d2500000000000000000000000000000000000000000000000000000000000001200000000000000000000000000000000000000000000000000000000000000000",
        "nonce": "0xf4e",
        "chainId": "0xaa36a7"
      },
      "additionalContracts": [],
      "isFixedGasLimit": false
    },
    {
      "hash": "0x3070623fb21b94ca12678fef59679082b46bd09cb89257efa87fe2402f2777c6",
      "transactionType": "CALL",
      "contractName": "SwapHelper",
      "contractAddress": "0x0beba864b688e45d997a4f33a21c6674cbdf7336",
      "function": "swap((address,address,uint24,int24,address),(bool,int256,uint160),bytes)",
      "arguments": [
        "(0x1c7D4B196Cb0C7B01d743Fbc6116a902379C7238, 0xfFf9976782d46CC05630D1f6eBAb18b2324d6B14, 3000, 60, 0x5C13377F19B9AEB3CB00Fcc8E58e9A2B43889540)",
        "(false, -1000000000000000, 1461446703485210103287273052203988822378723970341)",
        "0x"
      ],
      "transaction": {
        "from": "0x63f976191f9dd75bd5b0fd81320d37fbc0d74080",
        "to": "0x0beba864b688e45d997a4f33a21c6674cbdf7336",
        "gas": "0x26eda",
        "value": "0x0",
        "input": "0xf3cd914c0000000000000000000000001c7d4b196cb0c7b01d743fbc6116a902379c7238000000000000000000000000fff9976782d46cc05630d1f6ebab18b2324d6b140000000000000000000000000000000000000000000000000000000000000bb8000000000000000000000000000000000000000000000000000000000000003c0000000000000000000000005c13377f19b9aeb3cb00fcc8e58e9a2b438895400000000000000000000000000000000000000000000000000000000000000000fffffffffffffffffffffffffffffffffffffffffffffffffffc72815b398000000000000000000000000000fffd8963efd1fc6a506488495d951d5263988d2500000000000000000000000000000000000000000000000000000000000001200000000000000000000000000000000000000000000000000000000000000000",
        "nonce": "0xf4f",
        "chainId": "0xaa36a7"
      },
      "additionalContracts": [],
      "isFixedGasLimit": false
    },
    {
      "hash": "0xb7adb90ba88247309a36a0159f182ea868efd94e61b0139a1915657fb14cc608",
      "transactionType": "CALL",
      "contractName": "SwapHelper",
      "contractAddress": "0x0beba864b688e45d997a4f33a21c6674cbdf7336",
      "function": "swap((address,address,uint24,int24,address),(bool,int256,uint160),bytes)",
      "arguments": [
        "(0x1c7D4B196Cb0C7B01d743Fbc6116a902379C7238, 0xfFf9976782d46CC05630D1f6eBAb18b2324d6B14, 3000, 60, 0x5C13377F19B9AEB3CB00Fcc8E58e9A2B43889540)",
        "(false, -1000000000000000, 1461446703485210103287273052203988822378723970341)",
        "0x"
      ],
      "transaction": {
        "from": "0x63f976191f9dd75bd5b0fd81320d37fbc0d74080",
        "to": "0x0beba864b688e45d997a4f33a21c6674cbdf7336",
        "gas": "0x26eda",
        "value": "0x0",
        "input": "0xf3cd914c0000000000000000000000001c7d4b196cb0c7b01d743fbc6116a902379c7238000000000000000000000000fff9976782d46cc05630d1f6ebab18b2324d6b140000000000000000000000000000000000000000000000000000000000000bb8000000000000000000000000000000000000000000000000000000000000003c0000000000000000000000005c13377f19b9aeb3cb00fcc8e58e9a2b438895400000000000000000000000000000000000000000000000000000000000000000fffffffffffffffffffffffffffffffffffffffffffffffffffc72815b398000000000000000000000000000fffd8963efd1fc6a506488495d951d5263988d2500000000000000000000000000000000000000000000000000000000000001200000000000000000000000000000000000000000000000000000000000000000",
        "nonce": "0xf50",
        "chainId": "0xaa36a7"
      },
      "additionalContracts": [],
      "isFixedGasLimit": false
    },
    {
      "hash": "0xf88c969f0438587a789bdde2a0a45fb0bfd2bb1ab0e087df5549de90c3562a5e",
      "transactionType": "CALL",
      "contractName": "SwapHelper",
      "contractAddress": "0x0beba864b688e45d997a4f33a21c6674cbdf7336",
      "function": "swap((address,address,uint24,int24,address),(bool,int256,uint160),bytes)",
      "arguments": [
        "(0x1c7D4B196Cb0C7B01d743Fbc6116a902379C7238, 0xfFf9976782d46CC05630D1f6eBAb18b2324d6B14, 3000, 60, 0x5C13377F19B9AEB3CB00Fcc8E58e9A2B43889540)",
        "(false, -1000000000000000, 1461446703485210103287273052203988822378723970341)",
        "0x"
      ],
      "transaction": {
        "from": "0x63f976191f9dd75bd5b0fd81320d37fbc0d74080",
        "to": "0x0beba864b688e45d997a4f33a21c6674cbdf7336",
        "gas": "0x24b94",
        "value": "0x0",
        "input": "0xf3cd914c0000000000000000000000001c7d4b196cb0c7b01d743fbc6116a902379c7238000000000000000000000000fff9976782d46cc05630d1f6ebab18b2324d6b140000000000000000000000000000000000000000000000000000000000000bb8000000000000000000000000000000000000000000000000000000000000003c0000000000000000000000005c13377f19b9aeb3cb00fcc8e58e9a2b438895400000000000000000000000000000000000000000000000000000000000000000fffffffffffffffffffffffffffffffffffffffffffffffffffc72815b398000000000000000000000000000fffd8963efd1fc6a506488495d951d5263988d2500000000000000000000000000000000000000000000000000000000000001200000000000000000000000000000000000000000000000000000000000000000",
        "nonce": "0xf51",
        "chainId": "0xaa36a7"
      },
      "additionalContracts": [],
      "isFixedGasLimit": false
    },
    {
      "hash": "0x2992c4060ac29c6de3d9533c7ff0d6f57f524dd95253a1cc201eeee4e91af471",
      "transactionType": "CALL",
      "contractName": "SwapHelper",
      "contractAddress": "0x0beba864b688e45d997a4f33a21c6674cbdf7336",
      "function": "swap((address,address,uint24,int24,address),(bool,int256,uint160),bytes)",
      "arguments": [
        "(0x1c7D4B196Cb0C7B01d743Fbc6116a902379C7238, 0xfFf9976782d46CC05630D1f6eBAb18b2324d6B14, 3000, 60, 0x5C13377F19B9AEB3CB00Fcc8E58e9A2B43889540)",
        "(false, -1000000000000000, 1461446703485210103287273052203988822378723970341)",
        "0x"
      ],
      "transaction": {
        "from": "0x63f976191f9dd75bd5b0fd81320d37fbc0d74080",
        "to": "0x0beba864b688e45d997a4f33a21c6674cbdf7336",
        "gas": "0x26e1f",
        "value": "0x0",
        "input": "0xf3cd914c0000000000000000000000001c7d4b196cb0c7b01d743fbc6116a902379c7238000000000000000000000000fff9976782d46cc05630d1f6ebab18b2324d6b140000000000000000000000000000000000000000000000000000000000000bb8000000000000000000000000000000000000000000000000000000000000003c0000000000000000000000005c13377f19b9aeb3cb00fcc8e58e9a2b438895400000000000000000000000000000000000000000000000000000000000000000fffffffffffffffffffffffffffffffffffffffffffffffffffc72815b398000000000000000000000000000fffd8963efd1fc6a506488495d951d5263988d2500000000000000000000000000000000000000000000000000000000000001200000000000000000000000000000000000000000000000000000000000000000",
        "nonce": "0xf52",
        "chainId": "0xaa36a7"
      },
      "additionalContracts": [],
      "isFixedGasLimit": false
    },
    {
      "hash": "0x905901f87d37e675c3f392c71ddd6a64bb67ee0d308fc0c87d406dc67604ae44",
      "transactionType": "CALL",
      "contractName": "SwapHelper",
      "contractAddress": "0x0beba864b688e45d997a4f33a21c6674cbdf7336",
      "function": "swap((address,address,uint24,int24,address),(bool,int256,uint160),bytes)",
      "arguments": [
        "(0x1c7D4B196Cb0C7B01d743Fbc6116a902379C7238, 0xfFf9976782d46CC05630D1f6eBAb18b2324d6B14, 3000, 60, 0x5C13377F19B9AEB3CB00Fcc8E58e9A2B43889540)",
        "(false, -1000000000000000, 1461446703485210103287273052203988822378723970341)",
        "0x"
      ],
      "transaction": {
        "from": "0x63f976191f9dd75bd5b0fd81320d37fbc0d74080",
        "to": "0x0beba864b688e45d997a4f33a21c6674cbdf7336",
        "gas": "0x24bec",
        "value": "0x0",
        "input": "0xf3cd914c0000000000000000000000001c7d4b196cb0c7b01d743fbc6116a902379c7238000000000000000000000000fff9976782d46cc05630d1f6ebab18b2324d6b140000000000000000000000000000000000000000000000000000000000000bb8000000000000000000000000000000000000000000000000000000000000003c0000000000000000000000005c13377f19b9aeb3cb00fcc8e58e9a2b438895400000000000000000000000000000000000000000000000000000000000000000fffffffffffffffffffffffffffffffffffffffffffffffffffc72815b398000000000000000000000000000fffd8963efd1fc6a506488495d951d5263988d2500000000000000000000000000000000000000000000000000000000000001200000000000000000000000000000000000000000000000000000000000000000",
        "nonce": "0xf53",
        "chainId": "0xaa36a7"
      },
      "additionalContracts": [],
      "isFixedGasLimit": false
    },
    {
      "hash": "0x2a56562e6140228d7312f75dd1d6f625092eb19e22e27e368bbeb8e50085e6ab",
      "transactionType": "CALL",
      "contractName": "SwapHelper",
      "contractAddress": "0x0beba864b688e45d997a4f33a21c6674cbdf7336",
      "function": "swap((address,address,uint24,int24,address),(bool,int256,uint160),bytes)",
      "arguments": [
        "(0x1c7D4B196Cb0C7B01d743Fbc6116a902379C7238, 0xfFf9976782d46CC05630D1f6eBAb18b2324d6B14, 3000, 60, 0x5C13377F19B9AEB3CB00Fcc8E58e9A2B43889540)",
        "(false, -1000000000000000, 1461446703485210103287273052203988822378723970341)",
        "0x"
      ],
      "transaction": {
        "from": "0x63f976191f9dd75bd5b0fd81320d37fbc0d74080",
        "to": "0x0beba864b688e45d997a4f33a21c6674cbdf7336",
        "gas": "0x26e4d",
        "value": "0x0",
        "input": "0xf3cd914c0000000000000000000000001c7d4b196cb0c7b01d743fbc6116a902379c7238000000000000000000000000fff9976782d46cc05630d1f6ebab18b2324d6b140000000000000000000000000000000000000000000000000000000000000bb8000000000000000000000000000000000000000000000000000000000000003c0000000000000000000000005c13377f19b9aeb3cb00fcc8e58e9a2b438895400000000000000000000000000000000000000000000000000000000000000000fffffffffffffffffffffffffffffffffffffffffffffffffffc72815b398000000000000000000000000000fffd8963efd1fc6a506488495d951d5263988d2500000000000000000000000000000000000000000000000000000000000001200000000000000000000000000000000000000000000000000000000000000000",
        "nonce": "0xf54",
        "chainId": "0xaa36a7"
      },
      "additionalContracts": [],
      "isFixedGasLimit": false
    },
    {
      "hash": "0xf7e745eb01dac7541ab9f9d6feb731cc90618d0bfd2058aa2d9d40cfa8553c33",
      "transactionType": "CALL",
      "contractName": "SwapHelper",
      "contractAddress": "0x0beba864b688e45d997a4f33a21c6674cbdf7336",
      "function": "swap((address,address,uint24,int24,address),(bool,int256,uint160),bytes)",
      "arguments": [
        "(0x1c7D4B196Cb0C7B01d743Fbc6116a902379C7238, 0xfFf9976782d46CC05630D1f6eBAb18b2324d6B14, 3000, 60, 0x5C13377F19B9AEB3CB00Fcc8E58e9A2B43889540)",
        "(false, -1000000000000000, 1461446703485210103287273052203988822378723970341)",
        "0x"
      ],
      "transaction": {
        "from": "0x63f976191f9dd75bd5b0fd81320d37fbc0d74080",
        "to": "0x0beba864b688e45d997a4f33a21c6674cbdf7336",
        "gas": "0x26e1f",
        "value": "0x0",
        "input": "0xf3cd914c0000000000000000000000001c7d4b196cb0c7b01d743fbc6116a902379c7238000000000000000000000000fff9976782d46cc05630d1f6ebab18b2324d6b140000000000000000000000000000000000000000000000000000000000000bb8000000000000000000000000000000000000000000000000000000000000003c0000000000000000000000005c13377f19b9aeb3cb00fcc8e58e9a2b438895400000000000000000000000000000000000000000000000000000000000000000fffffffffffffffffffffffffffffffffffffffffffffffffffc72815b398000000000000000000000000000fffd8963efd1fc6a506488495d951d5263988d2500000000000000000000000000000000000000000000000000000000000001200000000000000000000000000000000000000000000000000000000000000000",
        "nonce": "0xf55",
        "chainId": "0xaa36a7"
      },
      "additionalContracts": [],
      "isFixedGasLimit": false
    },
    {
      "hash": "0x7505dc7b26f2601f515ca7bc524d2f774c35599e2869ed82fa0abc681b2eb776",
      "transactionType": "CALL",
      "contractName": "SwapHelper",
      "contractAddress": "0x0beba864b688e45d997a4f33a21c6674cbdf7336",
      "function": "swap((address,address,uint24,int24,address),(bool,int256,uint160),bytes)",
      "arguments": [
        "(0x1c7D4B196Cb0C7B01d743Fbc6116a902379C7238, 0xfFf9976782d46CC05630D1f6eBAb18b2324d6B14, 3000, 60, 0x5C13377F19B9AEB3CB00Fcc8E58e9A2B43889540)",
        "(false, -1000000000000000, 1461446703485210103287273052203988822378723970341)",
        "0x"
      ],
      "transaction": {
        "from": "0x63f976191f9dd75bd5b0fd81320d37fbc0d74080",
        "to": "0x0beba864b688e45d997a4f33a21c6674cbdf7336",
        "gas": "0x26e7c",
        "value": "0x0",
        "input": "0xf3cd914c0000000000000000000000001c7d4b196cb0c7b01d743fbc6116a902379c7238000000000000000000000000fff9976782d46cc05630d1f6ebab18b2324d6b140000000000000000000000000000000000000000000000000000000000000bb8000000000000000000000000000000000000000000000000000000000000003c0000000000000000000000005c13377f19b9aeb3cb00fcc8e58e9a2b438895400000000000000000000000000000000000000000000000000000000000000000fffffffffffffffffffffffffffffffffffffffffffffffffffc72815b398000000000000000000000000000fffd8963efd1fc6a506488495d951d5263988d2500000000000000000000000000000000000000000000000000000000000001200000000000000000000000000000000000000000000000000000000000000000",
        "nonce": "0xf56",
        "chainId": "0xaa36a7"
      },
      "additionalContracts": [],
      "isFixedGasLimit": false
    },
    {
      "hash": "0xd19e6822a0a9f1aa99bbb5097bcd1a275102cb45285d2345605ff088f4661c35",
      "transactionType": "CALL",
      "contractName": "SwapHelper",
      "contractAddress": "0x0beba864b688e45d997a4f33a21c6674cbdf7336",
      "function": "swap((address,address,uint24,int24,address),(bool,int256,uint160),bytes)",
      "arguments": [
        "(0x1c7D4B196Cb0C7B01d743Fbc6116a902379C7238, 0xfFf9976782d46CC05630D1f6eBAb18b2324d6B14, 3000, 60, 0x5C13377F19B9AEB3CB00Fcc8E58e9A2B43889540)",
        "(false, -1000000000000000, 1461446703485210103287273052203988822378723970341)",
        "0x"
      ],
      "transaction": {
        "from": "0x63f976191f9dd75bd5b0fd81320d37fbc0d74080",
        "to": "0x0beba864b688e45d997a4f33a21c6674cbdf7336",
        "gas": "0x24b94",
        "value": "0x0",
        "input": "0xf3cd914c0000000000000000000000001c7d4b196cb0c7b01d743fbc6116a902379c7238000000000000000000000000fff9976782d46cc05630d1f6ebab18b2324d6b140000000000000000000000000000000000000000000000000000000000000bb8000000000000000000000000000000000000000000000000000000000000003c0000000000000000000000005c13377f19b9aeb3cb00fcc8e58e9a2b438895400000000000000000000000000000000000000000000000000000000000000000fffffffffffffffffffffffffffffffffffffffffffffffffffc72815b398000000000000000000000000000fffd8963efd1fc6a506488495d951d5263988d2500000000000000000000000000000000000000000000000000000000000001200000000000000000000000000000000000000000000000000000000000000000",
        "nonce": "0xf57",
        "chainId": "0xaa36a7"
      },
      "additionalContracts": [],
      "isFixedGasLimit": false
    },
    {
      "hash": "0xa1fb3c0572bb33b52d778707ff5e1d5278f04fdce1d64c94abc71bd485c346e9",
      "transactionType": "CALL",
      "contractName": "SwapHelper",
      "contractAddress": "0x0beba864b688e45d997a4f33a21c6674cbdf7336",
      "function": "swap((address,address,uint24,int24,address),(bool,int256,uint160),bytes)",
      "arguments": [
        "(0x1c7D4B196Cb0C7B01d743Fbc6116a902379C7238, 0xfFf9976782d46CC05630D1f6eBAb18b2324d6B14, 3000, 60, 0x5C13377F19B9AEB3CB00Fcc8E58e9A2B43889540)",
        "(false, -1000000000000000, 1461446703485210103287273052203988822378723970341)",
        "0x"
      ],
      "transaction": {
        "from": "0x63f976191f9dd75bd5b0fd81320d37fbc0d74080",
        "to": "0x0beba864b688e45d997a4f33a21c6674cbdf7336",
        "gas": "0x24b94",
        "value": "0x0",
        "input": "0xf3cd914c0000000000000000000000001c7d4b196cb0c7b01d743fbc6116a902379c7238000000000000000000000000fff9976782d46cc05630d1f6ebab18b2324d6b140000000000000000000000000000000000000000000000000000000000000bb8000000000000000000000000000000000000000000000000000000000000003c0000000000000000000000005c13377f19b9aeb3cb00fcc8e58e9a2b438895400000000000000000000000000000000000000000000000000000000000000000fffffffffffffffffffffffffffffffffffffffffffffffffffc72815b398000000000000000000000000000fffd8963efd1fc6a506488495d951d5263988d2500000000000000000000000000000000000000000000000000000000000001200000000000000000000000000000000000000000000000000000000000000000",
        "nonce": "0xf58",
        "chainId": "0xaa36a7"
      },
      "additionalContracts": [],
      "isFixedGasLimit": false
    },
    {
      "hash": "0xe34bbd38ce3f80e26938393eb4d342eb6cbe17bf9128cf53a73793db3c45e017",
      "transactionType": "CALL",
      "contractName": "SwapHelper",
      "contractAddress": "0x0beba864b688e45d997a4f33a21c6674cbdf7336",
      "function": "swap((address,address,uint24,int24,address),(bool,int256,uint160),bytes)",
      "arguments": [
        "(0x1c7D4B196Cb0C7B01d743Fbc6116a902379C7238, 0xfFf9976782d46CC05630D1f6eBAb18b2324d6B14, 3000, 60, 0x5C13377F19B9AEB3CB00Fcc8E58e9A2B43889540)",
        "(false, -1000000000000000, 1461446703485210103287273052203988822378723970341)",
        "0x"
      ],
      "transaction": {
        "from": "0x63f976191f9dd75bd5b0fd81320d37fbc0d74080",
        "to": "0x0beba864b688e45d997a4f33a21c6674cbdf7336",
        "gas": "0x26eda",
        "value": "0x0",
        "input": "0xf3cd914c0000000000000000000000001c7d4b196cb0c7b01d743fbc6116a902379c7238000000000000000000000000fff9976782d46cc05630d1f6ebab18b2324d6b140000000000000000000000000000000000000000000000000000000000000bb8000000000000000000000000000000000000000000000000000000000000003c0000000000000000000000005c13377f19b9aeb3cb00fcc8e58e9a2b438895400000000000000000000000000000000000000000000000000000000000000000fffffffffffffffffffffffffffffffffffffffffffffffffffc72815b398000000000000000000000000000fffd8963efd1fc6a506488495d951d5263988d2500000000000000000000000000000000000000000000000000000000000001200000000000000000000000000000000000000000000000000000000000000000",
        "nonce": "0xf59",
        "chainId": "0xaa36a7"
      },
      "additionalContracts": [],
      "isFixedGasLimit": false
    },
    {
      "hash": "0xd7dfb6588359bcce8bc227875555f471e92d80f2efab0852f1f8d33c7b2480fc",
      "transactionType": "CALL",
      "contractName": "SwapHelper",
      "contractAddress": "0x0beba864b688e45d997a4f33a21c6674cbdf7336",
      "function": "swap((address,address,uint24,int24,address),(bool,int256,uint160),bytes)",
      "arguments": [
        "(0x1c7D4B196Cb0C7B01d743Fbc6116a902379C7238, 0xfFf9976782d46CC05630D1f6eBAb18b2324d6B14, 3000, 60, 0x5C13377F19B9AEB3CB00Fcc8E58e9A2B43889540)",
        "(false, -1000000000000000, 1461446703485210103287273052203988822378723970341)",
        "0x"
      ],
      "transaction": {
        "from": "0x63f976191f9dd75bd5b0fd81320d37fbc0d74080",
        "to": "0x0beba864b688e45d997a4f33a21c6674cbdf7336",
        "gas": "0x26e4d",
        "value": "0x0",
        "input": "0xf3cd914c0000000000000000000000001c7d4b196cb0c7b01d743fbc6116a902379c7238000000000000000000000000fff9976782d46cc05630d1f6ebab18b2324d6b140000000000000000000000000000000000000000000000000000000000000bb8000000000000000000000000000000000000000000000000000000000000003c0000000000000000000000005c13377f19b9aeb3cb00fcc8e58e9a2b438895400000000000000000000000000000000000000000000000000000000000000000fffffffffffffffffffffffffffffffffffffffffffffffffffc72815b398000000000000000000000000000fffd8963efd1fc6a506488495d951d5263988d2500000000000000000000000000000000000000000000000000000000000001200000000000000000000000000000000000000000000000000000000000000000",
        "nonce": "0xf5a",
        "chainId": "0xaa36a7"
      },
      "additionalContracts": [],
      "isFixedGasLimit": false
    },
    {
      "hash": "0x24a21c831d8f7bb4996b5726a8f49ac73a2259df0943f57b6b55623e0685a8a9",
      "transactionType": "CALL",
      "contractName": "SwapHelper",
      "contractAddress": "0x0beba864b688e45d997a4f33a21c6674cbdf7336",
      "function": "swap((address,address,uint24,int24,address),(bool,int256,uint160),bytes)",
      "arguments": [
        "(0x1c7D4B196Cb0C7B01d743Fbc6116a902379C7238, 0xfFf9976782d46CC05630D1f6eBAb18b2324d6B14, 3000, 60, 0x5C13377F19B9AEB3CB00Fcc8E58e9A2B43889540)",
        "(false, -1000000000000000, 1461446703485210103287273052203988822378723970341)",
        "0x"
      ],
      "transaction": {
        "from": "0x63f976191f9dd75bd5b0fd81320d37fbc0d74080",
        "to": "0x0beba864b688e45d997a4f33a21c6674cbdf7336",
        "gas": "0x24b94",
        "value": "0x0",
        "input": "0xf3cd914c0000000000000000000000001c7d4b196cb0c7b01d743fbc6116a902379c7238000000000000000000000000fff9976782d46cc05630d1f6ebab18b2324d6b140000000000000000000000000000000000000000000000000000000000000bb8000000000000000000000000000000000000000000000000000000000000003c0000000000000000000000005c13377f19b9aeb3cb00fcc8e58e9a2b438895400000000000000000000000000000000000000000000000000000000000000000fffffffffffffffffffffffffffffffffffffffffffffffffffc72815b398000000000000000000000000000fffd8963efd1fc6a506488495d951d5263988d2500000000000000000000000000000000000000000000000000000000000001200000000000000000000000000000000000000000000000000000000000000000",
        "nonce": "0xf5b",
        "chainId": "0xaa36a7"
      },
      "additionalContracts": [],
      "isFixedGasLimit": false
    },
    {
      "hash": "0xb8f7c07c1c9e4a122e6101e7bc584bc5e319825db8451200832a1a0737e00f11",
      "transactionType": "CALL",
      "contractName": "SwapHelper",
      "contractAddress": "0x0beba864b688e45d997a4f33a21c6674cbdf7336",
      "function": "swap((address,address,uint24,int24,address),(bool,int256,uint160),bytes)",
      "arguments": [
        "(0x1c7D4B196Cb0C7B01d743Fbc6116a902379C7238, 0xfFf9976782d46CC05630D1f6eBAb18b2324d6B14, 3000, 60, 0x5C13377F19B9AEB3CB00Fcc8E58e9A2B43889540)",
        "(false, -1000000000000000, 1461446703485210103287273052203988822378723970341)",
        "0x"
      ],
      "transaction": {
        "from": "0x63f976191f9dd75bd5b0fd81320d37fbc0d74080",
        "to": "0x0beba864b688e45d997a4f33a21c6674cbdf7336",
        "gas": "0x24b94",
        "value": "0x0",
        "input": "0xf3cd914c0000000000000000000000001c7d4b196cb0c7b01d743fbc6116a902379c7238000000000000000000000000fff9976782d46cc05630d1f6ebab18b2324d6b140000000000000000000000000000000000000000000000000000000000000bb8000000000000000000000000000000000000000000000000000000000000003c0000000000000000000000005c13377f19b9aeb3cb00fcc8e58e9a2b438895400000000000000000000000000000000000000000000000000000000000000000fffffffffffffffffffffffffffffffffffffffffffffffffffc72815b398000000000000000000000000000fffd8963efd1fc6a506488495d951d5263988d2500000000000000000000000000000000000000000000000000000000000001200000000000000000000000000000000000000000000000000000000000000000",
        "nonce": "0xf5c",
        "chainId": "0xaa36a7"
      },
      "additionalContracts": [],
      "isFixedGasLimit": false
    },
    {
      "hash": "0x0d39452ac8ae78184f4dbb4cf4eb82af4bf0472f84be8234f93d1bf7fd15d35d",
      "transactionType": "CALL",
      "contractName": "SwapHelper",
      "contractAddress": "0x0beba864b688e45d997a4f33a21c6674cbdf7336",
      "function": "swap((address,address,uint24,int24,address),(bool,int256,uint160),bytes)",
      "arguments": [
        "(0x1c7D4B196Cb0C7B01d743Fbc6116a902379C7238, 0xfFf9976782d46CC05630D1f6eBAb18b2324d6B14, 3000, 60, 0x5C13377F19B9AEB3CB00Fcc8E58e9A2B43889540)",
        "(false, -1000000000000000, 1461446703485210103287273052203988822378723970341)",
        "0x"
      ],
      "transaction": {
        "from": "0x63f976191f9dd75bd5b0fd81320d37fbc0d74080",
        "to": "0x0beba864b688e45d997a4f33a21c6674cbdf7336",
        "gas": "0x246c9",
        "value": "0x0",
        "input": "0xf3cd914c0000000000000000000000001c7d4b196cb0c7b01d743fbc6116a902379c7238000000000000000000000000fff9976782d46cc05630d1f6ebab18b2324d6b140000000000000000000000000000000000000000000000000000000000000bb8000000000000000000000000000000000000000000000000000000000000003c0000000000000000000000005c13377f19b9aeb3cb00fcc8e58e9a2b438895400000000000000000000000000000000000000000000000000000000000000000fffffffffffffffffffffffffffffffffffffffffffffffffffc72815b398000000000000000000000000000fffd8963efd1fc6a506488495d951d5263988d2500000000000000000000000000000000000000000000000000000000000001200000000000000000000000000000000000000000000000000000000000000000",
        "nonce": "0xf5d",
        "chainId": "0xaa36a7"
      },
      "additionalContracts": [],
      "isFixedGasLimit": false
    },
    {
      "hash": "0xf024d848f5fccc29854464a5bef4a6856a85077b85dd249c579d03bc3015c7a4",
      "transactionType": "CALL",
      "contractName": "SwapHelper",
      "contractAddress": "0x0beba864b688e45d997a4f33a21c6674cbdf7336",
      "function": "swap((address,address,uint24,int24,address),(bool,int256,uint160),bytes)",
      "arguments": [
        "(0x1c7D4B196Cb0C7B01d743Fbc6116a902379C7238, 0xfFf9976782d46CC05630D1f6eBAb18b2324d6B14, 3000, 60, 0x5C13377F19B9AEB3CB00Fcc8E58e9A2B43889540)",
        "(false, -1000000000000000, 1461446703485210103287273052203988822378723970341)",
        "0x"
      ],
      "transaction": {
        "from": "0x63f976191f9dd75bd5b0fd81320d37fbc0d74080",
        "to": "0x0beba864b688e45d997a4f33a21c6674cbdf7336",
        "gas": "0x24bc0",
        "value": "0x0",
        "input": "0xf3cd914c0000000000000000000000001c7d4b196cb0c7b01d743fbc6116a902379c7238000000000000000000000000fff9976782d46cc05630d1f6ebab18b2324d6b140000000000000000000000000000000000000000000000000000000000000bb8000000000000000000000000000000000000000000000000000000000000003c0000000000000000000000005c13377f19b9aeb3cb00fcc8e58e9a2b438895400000000000000000000000000000000000000000000000000000000000000000fffffffffffffffffffffffffffffffffffffffffffffffffffc72815b398000000000000000000000000000fffd8963efd1fc6a506488495d951d5263988d2500000000000000000000000000000000000000000000000000000000000001200000000000000000000000000000000000000000000000000000000000000000",
        "nonce": "0xf5e",
        "chainId": "0xaa36a7"
      },
      "additionalContracts": [],
      "isFixedGasLimit": false
    },
    {
      "hash": "0x1d428ec850d4a43e944fa92e624d7b2d135ea06a4c56300b4b80880780cc27e6",
      "transactionType": "CALL",
      "contractName": "SwapHelper",
      "contractAddress": "0x0beba864b688e45d997a4f33a21c6674cbdf7336",
      "function": "swap((address,address,uint24,int24,address),(bool,int256,uint160),bytes)",
      "arguments": [
        "(0x1c7D4B196Cb0C7B01d743Fbc6116a902379C7238, 0xfFf9976782d46CC05630D1f6eBAb18b2324d6B14, 3000, 60, 0x5C13377F19B9AEB3CB00Fcc8E58e9A2B43889540)",
        "(false, -1000000000000000, 1461446703485210103287273052203988822378723970341)",
        "0x"
      ],
      "transaction": {
        "from": "0x63f976191f9dd75bd5b0fd81320d37fbc0d74080",
        "to": "0x0beba864b688e45d997a4f33a21c6674cbdf7336",
        "gas": "0x26e1f",
        "value": "0x0",
        "input": "0xf3cd914c0000000000000000000000001c7d4b196cb0c7b01d743fbc6116a902379c7238000000000000000000000000fff9976782d46cc05630d1f6ebab18b2324d6b140000000000000000000000000000000000000000000000000000000000000bb8000000000000000000000000000000000000000000000000000000000000003c0000000000000000000000005c13377f19b9aeb3cb00fcc8e58e9a2b438895400000000000000000000000000000000000000000000000000000000000000000fffffffffffffffffffffffffffffffffffffffffffffffffffc72815b398000000000000000000000000000fffd8963efd1fc6a506488495d951d5263988d2500000000000000000000000000000000000000000000000000000000000001200000000000000000000000000000000000000000000000000000000000000000",
        "nonce": "0xf5f",
        "chainId": "0xaa36a7"
      },
      "additionalContracts": [],
      "isFixedGasLimit": false
    },
    {
      "hash": "0x16645684a643963964bec542b4729df44f8321e92b49b3892c793a3edb30b755",
      "transactionType": "CALL",
      "contractName": "SwapHelper",
      "contractAddress": "0x0beba864b688e45d997a4f33a21c6674cbdf7336",
      "function": "swap((address,address,uint24,int24,address),(bool,int256,uint160),bytes)",
      "arguments": [
        "(0x1c7D4B196Cb0C7B01d743Fbc6116a902379C7238, 0xfFf9976782d46CC05630D1f6eBAb18b2324d6B14, 3000, 60, 0x5C13377F19B9AEB3CB00Fcc8E58e9A2B43889540)",
        "(false, -1000000000000000, 1461446703485210103287273052203988822378723970341)",
        "0x"
      ],
      "transaction": {
        "from": "0x63f976191f9dd75bd5b0fd81320d37fbc0d74080",
        "to": "0x0beba864b688e45d997a4f33a21c6674cbdf7336",
        "gas": "0x24b94",
        "value": "0x0",
        "input": "0xf3cd914c0000000000000000000000001c7d4b196cb0c7b01d743fbc6116a902379c7238000000000000000000000000fff9976782d46cc05630d1f6ebab18b2324d6b140000000000000000000000000000000000000000000000000000000000000bb8000000000000000000000000000000000000000000000000000000000000003c0000000000000000000000005c13377f19b9aeb3cb00fcc8e58e9a2b438895400000000000000000000000000000000000000000000000000000000000000000fffffffffffffffffffffffffffffffffffffffffffffffffffc72815b398000000000000000000000000000fffd8963efd1fc6a506488495d951d5263988d2500000000000000000000000000000000000000000000000000000000000001200000000000000000000000000000000000000000000000000000000000000000",
        "nonce": "0xf60",
        "chainId": "0xaa36a7"
      },
      "additionalContracts": [],
      "isFixedGasLimit": false
    },
    {
      "hash": "0xbb47a9b9f0a38da5ba999239c9ab1e416bf0893919c324adc866c957579e868c",
      "transactionType": "CALL",
      "contractName": "SwapHelper",
      "contractAddress": "0x0beba864b688e45d997a4f33a21c6674cbdf7336",
      "function": "swap((address,address,uint24,int24,address),(bool,int256,uint160),bytes)",
      "arguments": [
        "(0x1c7D4B196Cb0C7B01d743Fbc6116a902379C7238, 0xfFf9976782d46CC05630D1f6eBAb18b2324d6B14, 3000, 60, 0x5C13377F19B9AEB3CB00Fcc8E58e9A2B43889540)",
        "(false, -1000000000000000, 1461446703485210103287273052203988822378723970341)",
        "0x"
      ],
      "transaction": {
        "from": "0x63f976191f9dd75bd5b0fd81320d37fbc0d74080",
        "to": "0x0beba864b688e45d997a4f33a21c6674cbdf7336",
        "gas": "0x26f09",
        "value": "0x0",
        "input": "0xf3cd914c0000000000000000000000001c7d4b196cb0c7b01d743fbc6116a902379c7238000000000000000000000000fff9976782d46cc05630d1f6ebab18b2324d6b140000000000000000000000000000000000000000000000000000000000000bb8000000000000000000000000000000000000000000000000000000000000003c0000000000000000000000005c13377f19b9aeb3cb00fcc8e58e9a2b438895400000000000000000000000000000000000000000000000000000000000000000fffffffffffffffffffffffffffffffffffffffffffffffffffc72815b398000000000000000000000000000fffd8963efd1fc6a506488495d951d5263988d2500000000000000000000000000000000000000000000000000000000000001200000000000000000000000000000000000000000000000000000000000000000",
        "nonce": "0xf61",
        "chainId": "0xaa36a7"
      },
      "additionalContracts": [],
      "isFixedGasLimit": false
    },
    {
      "hash": "0x3a97001571a4370f1fb9e9623d0a837922a7da0fd54ff96926ce8be2efb2eae3",
      "transactionType": "CALL",
      "contractName": "SwapHelper",
      "contractAddress": "0x0beba864b688e45d997a4f33a21c6674cbdf7336",
      "function": "swap((address,address,uint24,int24,address),(bool,int256,uint160),bytes)",
      "arguments": [
        "(0x1c7D4B196Cb0C7B01d743Fbc6116a902379C7238, 0xfFf9976782d46CC05630D1f6eBAb18b2324d6B14, 3000, 60, 0x5C13377F19B9AEB3CB00Fcc8E58e9A2B43889540)",
        "(false, -1000000000000000, 1461446703485210103287273052203988822378723970341)",
        "0x"
      ],
      "transaction": {
        "from": "0x63f976191f9dd75bd5b0fd81320d37fbc0d74080",
        "to": "0x0beba864b688e45d997a4f33a21c6674cbdf7336",
        "gas": "0x24c45",
        "value": "0x0",
        "input": "0xf3cd914c0000000000000000000000001c7d4b196cb0c7b01d743fbc6116a902379c7238000000000000000000000000fff9976782d46cc05630d1f6ebab18b2324d6b140000000000000000000000000000000000000000000000000000000000000bb8000000000000000000000000000000000000000000000000000000000000003c0000000000000000000000005c13377f19b9aeb3cb00fcc8e58e9a2b438895400000000000000000000000000000000000000000000000000000000000000000fffffffffffffffffffffffffffffffffffffffffffffffffffc72815b398000000000000000000000000000fffd8963efd1fc6a506488495d951d5263988d2500000000000000000000000000000000000000000000000000000000000001200000000000000000000000000000000000000000000000000000000000000000",
        "nonce": "0xf62",
        "chainId": "0xaa36a7"
      },
      "additionalContracts": [],
      "isFixedGasLimit": false
    },
    {
      "hash": "0x03029c811211947b2621255957e98f523e656647ae8dd179a1ef8d83f8fe0acb",
      "transactionType": "CALL",
      "contractName": "SwapHelper",
      "contractAddress": "0x0beba864b688e45d997a4f33a21c6674cbdf7336",
      "function": "swap((address,address,uint24,int24,address),(bool,int256,uint160),bytes)",
      "arguments": [
        "(0x1c7D4B196Cb0C7B01d743Fbc6116a902379C7238, 0xfFf9976782d46CC05630D1f6eBAb18b2324d6B14, 3000, 60, 0x5C13377F19B9AEB3CB00Fcc8E58e9A2B43889540)",
        "(false, -1000000000000000, 1461446703485210103287273052203988822378723970341)",
        "0x"
      ],
      "transaction": {
        "from": "0x63f976191f9dd75bd5b0fd81320d37fbc0d74080",
        "to": "0x0beba864b688e45d997a4f33a21c6674cbdf7336",
        "gas": "0x24b94",
        "value": "0x0",
        "input": "0xf3cd914c0000000000000000000000001c7d4b196cb0c7b01d743fbc6116a902379c7238000000000000000000000000fff9976782d46cc05630d1f6ebab18b2324d6b140000000000000000000000000000000000000000000000000000000000000bb8000000000000000000000000000000000000000000000000000000000000003c0000000000000000000000005c13377f19b9aeb3cb00fcc8e58e9a2b438895400000000000000000000000000000000000000000000000000000000000000000fffffffffffffffffffffffffffffffffffffffffffffffffffc72815b398000000000000000000000000000fffd8963efd1fc6a506488495d951d5263988d2500000000000000000000000000000000000000000000000000000000000001200000000000000000000000000000000000000000000000000000000000000000",
        "nonce": "0xf63",
        "chainId": "0xaa36a7"
      },
      "additionalContracts": [],
      "isFixedGasLimit": false
    },
    {
      "hash": "0xa7f32386486bb6c0daf8b0ed2b00cff81e060340b22c4a3950465e3e9465fce4",
      "transactionType": "CALL",
      "contractName": "SwapHelper",
      "contractAddress": "0x0beba864b688e45d997a4f33a21c6674cbdf7336",
      "function": "swap((address,address,uint24,int24,address),(bool,int256,uint160),bytes)",
      "arguments": [
        "(0x1c7D4B196Cb0C7B01d743Fbc6116a902379C7238, 0xfFf9976782d46CC05630D1f6eBAb18b2324d6B14, 3000, 60, 0x5C13377F19B9AEB3CB00Fcc8E58e9A2B43889540)",
        "(false, -1000000000000000, 1461446703485210103287273052203988822378723970341)",
        "0x"
      ],
      "transaction": {
        "from": "0x63f976191f9dd75bd5b0fd81320d37fbc0d74080",
        "to": "0x0beba864b688e45d997a4f33a21c6674cbdf7336",
        "gas": "0x24b94",
        "value": "0x0",
        "input": "0xf3cd914c0000000000000000000000001c7d4b196cb0c7b01d743fbc6116a902379c7238000000000000000000000000fff9976782d46cc05630d1f6ebab18b2324d6b140000000000000000000000000000000000000000000000000000000000000bb8000000000000000000000000000000000000000000000000000000000000003c0000000000000000000000005c13377f19b9aeb3cb00fcc8e58e9a2b438895400000000000000000000000000000000000000000000000000000000000000000fffffffffffffffffffffffffffffffffffffffffffffffffffc72815b398000000000000000000000000000fffd8963efd1fc6a506488495d951d5263988d2500000000000000000000000000000000000000000000000000000000000001200000000000000000000000000000000000000000000000000000000000000000",
        "nonce": "0xf64",
        "chainId": "0xaa36a7"
      },
      "additionalContracts": [],
      "isFixedGasLimit": false
    },
    {
      "hash": "0xcb9663bc80b92606f1222cea821e2c3df631eaa1c77c801d00559de043f11c01",
      "transactionType": "CALL",
      "contractName": "SwapHelper",
      "contractAddress": "0x0beba864b688e45d997a4f33a21c6674cbdf7336",
      "function": "swap((address,address,uint24,int24,address),(bool,int256,uint160),bytes)",
      "arguments": [
        "(0x1c7D4B196Cb0C7B01d743Fbc6116a902379C7238, 0xfFf9976782d46CC05630D1f6eBAb18b2324d6B14, 3000, 60, 0x5C13377F19B9AEB3CB00Fcc8E58e9A2B43889540)",
        "(false, -1000000000000000, 1461446703485210103287273052203988822378723970341)",
        "0x"
      ],
      "transaction": {
        "from": "0x63f976191f9dd75bd5b0fd81320d37fbc0d74080",
        "to": "0x0beba864b688e45d997a4f33a21c6674cbdf7336",
        "gas": "0x24b94",
        "value": "0x0",
        "input": "0xf3cd914c0000000000000000000000001c7d4b196cb0c7b01d743fbc6116a902379c7238000000000000000000000000fff9976782d46cc05630d1f6ebab18b2324d6b140000000000000000000000000000000000000000000000000000000000000bb8000000000000000000000000000000000000000000000000000000000000003c0000000000000000000000005c13377f19b9aeb3cb00fcc8e58e9a2b438895400000000000000000000000000000000000000000000000000000000000000000fffffffffffffffffffffffffffffffffffffffffffffffffffc72815b398000000000000000000000000000fffd8963efd1fc6a506488495d951d5263988d2500000000000000000000000000000000000000000000000000000000000001200000000000000000000000000000000000000000000000000000000000000000",
        "nonce": "0xf65",
        "chainId": "0xaa36a7"
      },
      "additionalContracts": [],
      "isFixedGasLimit": false
    }
  ],
  "receipts": [
    {
      "status": "0x1",
      "cumulativeGasUsed": "0x215756e",
      "logs": [],
      "logsBloom": "0x00000000000000000000000000000000000000000000000000000000000000000000000000000000000000000000000000000000000000000000000000000000000000000000000000000000000000000000000000000000000000000000000000000000000000000000000000000000000000000000000000000000000000000000000000000000000000000000000000000000000000000000000000000000000000000000000000000000000000000000000000000000000000000000000000000000000000000000000000000000000000000000000000000000000000000000000000000000000000000000000000000000000000000000000000000000",
      "type": "0x2",
      "transactionHash": "0x85adcf1cd9e7b22fa3dca05a0c4590e97df557d7193d3c6f0f057596bccf659e",
      "transactionIndex": "0x62",
      "blockHash": "0xefe9ced95db51d6471480483e0616364d01f3a59703ca362aa49efc63a21e3cd",
      "blockNumber": "0x9877a3",
      "gasUsed": "0xd808b",
      "effectiveGasPrice": "0x9ec04",
      "from": "0x63f976191f9dd75bd5b0fd81320d37fbc0d74080",
      "to": null,
      "contractAddress": "0x0beba864b688e45d997a4f33a21c6674cbdf7336"
    },
    {
      "status": "0x1",
      "cumulativeGasUsed": "0x2162a8a",
      "logs": [
        {
          "address": "0xfff9976782d46cc05630d1f6ebab18b2324d6b14",
          "topics": [
            "0x8c5be1e5ebec7d5bd14f71427d1e84f3dd0314c0f7b2291e5b200ac8c7c3b925",
            "0x00000000000000000000000063f976191f9dd75bd5b0fd81320d37fbc0d74080",
            "0x0000000000000000000000000beba864b688e45d997a4f33a21c6674cbdf7336"
          ],
          "data": "0xffffffffffffffffffffffffffffffffffffffffffffffffffffffffffffffff",
          "blockHash": "0xefe9ced95db51d6471480483e0616364d01f3a59703ca362aa49efc63a21e3cd",
          "blockNumber": "0x9877a3",
          "blockTimestamp": "0x695d6768",
          "transactionHash": "0x22865afb4c9e1e0341ce4ba9e4ef378d026f9952e72e83430a96c4ebc07876eb",
          "transactionIndex": "0x63",
          "logIndex": "0x402",
          "removed": false
        }
      ],
      "logsBloom": "0x00000000000000000000000000000000000000000000000000000000000000000000000000000000000000000000000000000000000010000000000000200000000000010000000000000000000000000000000000000000000000000000000000000000000000000000000000000000000000000000000000000000000000000040000000000000000000000000000000000000000000000000000000000000020020400000000000000000000000000000000000000000000000000080000000000000000000000002000000000000000000000000000000000000800000000010000000000000000000020000000000000000000000000000000000000000",
      "type": "0x2",
      "transactionHash": "0x22865afb4c9e1e0341ce4ba9e4ef378d026f9952e72e83430a96c4ebc07876eb",
      "transactionIndex": "0x63",
      "blockHash": "0xefe9ced95db51d6471480483e0616364d01f3a59703ca362aa49efc63a21e3cd",
      "blockNumber": "0x9877a3",
      "gasUsed": "0xb51c",
      "effectiveGasPrice": "0x9ec04",
      "from": "0x63f976191f9dd75bd5b0fd81320d37fbc0d74080",
      "to": "0xfff9976782d46cc05630d1f6ebab18b2324d6b14",
      "contractAddress": null
    },
    {
      "status": "0x1",
      "cumulativeGasUsed": "0x2170473",
      "logs": [
        {
          "address": "0x1c7d4b196cb0c7b01d743fbc6116a902379c7238",
          "topics": [
            "0x8c5be1e5ebec7d5bd14f71427d1e84f3dd0314c0f7b2291e5b200ac8c7c3b925",
            "0x00000000000000000000000063f976191f9dd75bd5b0fd81320d37fbc0d74080",
            "0x0000000000000000000000000beba864b688e45d997a4f33a21c6674cbdf7336"
          ],
          "data": "0xffffffffffffffffffffffffffffffffffffffffffffffffffffffffffffffff",
          "blockHash": "0xefe9ced95db51d6471480483e0616364d01f3a59703ca362aa49efc63a21e3cd",
          "blockNumber": "0x9877a3",
          "blockTimestamp": "0x695d6768",
          "transactionHash": "0xf5af340b7248c284994633896dd10a0509566cc34172eb67e6d2b6b921290d74",
          "transactionIndex": "0x64",
          "logIndex": "0x403",
          "removed": false
        }
      ],
      "logsBloom": "0x00000000000000000000000000000000000000000000000000000000000200000000000000000000000000000000000000000000000010000000000000200000000000010000000000000000000000000000000000000000000000000000000000000000000000000000000000000000000000000000000000000000000000000000000000100000000000000000000000000000000000000000000000000000020000400000000000000000000000000000000000000000000000000080000000000000000000000000000000000000000000000000000000000000800000000010000000000000000010020000000000000000000000000000000000000000",
      "type": "0x2",
      "transactionHash": "0xf5af340b7248c284994633896dd10a0509566cc34172eb67e6d2b6b921290d74",
      "transactionIndex": "0x64",
      "blockHash": "0xefe9ced95db51d6471480483e0616364d01f3a59703ca362aa49efc63a21e3cd",
      "blockNumber": "0x9877a3",
      "gasUsed": "0xd9e9",
      "effectiveGasPrice": "0x9ec04",
      "from": "0x63f976191f9dd75bd5b0fd81320d37fbc0d74080",
      "to": "0x1c7d4b196cb0c7b01d743fbc6116a902379c7238",
      "contractAddress": null
    },
    {
      "status": "0x1",
      "cumulativeGasUsed": "0x218ae35",
      "logs": [
        {
          "address": "0x76e9e1affde82bb4544ce95ea58ffc2f9d45061f",
          "topics": [
            "0x40e9cecb9f5f1f1c5b9c97dec2917b7ee92e57ba5563708daca94dd84ad7112f",
            "0x6648efe854126eca977839455e095d4cb46e5035b64bc3aa0f8da2c5ebdce489",
            "0x0000000000000000000000000beba864b688e45d997a4f33a21c6674cbdf7336"
          ],
          "data": "0x0000000000000000000000000000000000000000000000000000000000000000fffffffffffffffffffffffffffffffffffffffffffffffffffc72815b3980000000000000000000000000000002055a383a0da74304d1ebca5d8a88c84d505b000000000000000000000000000000000000000000000000000000000000011c00000000000000000000000000000000000000000000000000000000000a5e660000000000000000000000000000000000000000000000000000000000000bb8",
          "blockHash": "0xefe9ced95db51d6471480483e0616364d01f3a59703ca362aa49efc63a21e3cd",
          "blockNumber": "0x9877a3",
          "blockTimestamp": "0x695d6768",
          "transactionHash": "0x641628091de053d83fc1fa3ad3eaf0749999a7f1bcac0d687e6d2ea16fe71646",
          "transactionIndex": "0x65",
          "logIndex": "0x404",
          "removed": false
        },
        {
          "address": "0x5c13377f19b9aeb3cb00fcc8e58e9a2b43889540",
          "topics": [
            "0xcd9f4ccdc13709817c4447834a44bef5d62ffe25139e5c329d8debc5c177cc79",
            "0x6648efe854126eca977839455e095d4cb46e5035b64bc3aa0f8da2c5ebdce489"
          ],
          "data": "0x0000000000000000000000000000000000000000000000000000000000000000000000000000000000000000000000000000000000000000000002ba7def3000000000000000000000000000000000000000000000000000000000000000000000000000000000000000000000000000000000000000000000008b2716a69000000000000000000000000000000000000000000000000000065eb2116fe78000",
          "blockHash": "0xefe9ced95db51d6471480483e0616364d01f3a59703ca362aa49efc63a21e3cd",
          "blockNumber": "0x9877a3",
          "blockTimestamp": "0x695d6768",
          "transactionHash": "0x641628091de053d83fc1fa3ad3eaf0749999a7f1bcac0d687e6d2ea16fe71646",
          "transactionIndex": "0x65",
          "logIndex": "0x405",
          "removed": false
        },
        {
          "address": "0xfff9976782d46cc05630d1f6ebab18b2324d6b14",
          "topics": [
            "0xddf252ad1be2c89b69c2b068fc378daa952ba7f163c4a11628f55a4df523b3ef",
            "0x00000000000000000000000063f976191f9dd75bd5b0fd81320d37fbc0d74080",
            "0x00000000000000000000000076e9e1affde82bb4544ce95ea58ffc2f9d45061f"
          ],
          "data": "0x00000000000000000000000000000000000000000000000000038d7ea4c68000",
          "blockHash": "0xefe9ced95db51d6471480483e0616364d01f3a59703ca362aa49efc63a21e3cd",
          "blockNumber": "0x9877a3",
          "blockTimestamp": "0x695d6768",
          "transactionHash": "0x641628091de053d83fc1fa3ad3eaf0749999a7f1bcac0d687e6d2ea16fe71646",
          "transactionIndex": "0x65",
          "logIndex": "0x406",
          "removed": false
        }
      ],
      "logsBloom": "0x00001000000000000000000000000000002000000000000000000000000000000000000000000000000020000000000000000000040010000000000000001000000000010000000000000008000000000000000000000820000000000000010000000000000000000000004000000000000000000000000000000012000000000040000000000000000000000000010000000000000000000000000000000000000020400000040000000000000000000000000000000000000001000080000000000002000004000002000000000000000000000000000000008000800000000000000000000000004000020000050000000000000000000000000000000000",
      "type": "0x2",
      "transactionHash": "0x641628091de053d83fc1fa3ad3eaf0749999a7f1bcac0d687e6d2ea16fe71646",
      "transactionIndex": "0x65",
      "blockHash": "0xefe9ced95db51d6471480483e0616364d01f3a59703ca362aa49efc63a21e3cd",
      "blockNumber": "0x9877a3",
      "gasUsed": "0x1a9c2",
      "effectiveGasPrice": "0x9ec04",
      "from": "0x63f976191f9dd75bd5b0fd81320d37fbc0d74080",
      "to": "0x0beba864b688e45d997a4f33a21c6674cbdf7336",
      "contractAddress": null
    },
    {
      "status": "0x1",
      "cumulativeGasUsed": "0x21a5423",
      "logs": [
        {
          "address": "0x76e9e1affde82bb4544ce95ea58ffc2f9d45061f",
          "topics": [
            "0x40e9cecb9f5f1f1c5b9c97dec2917b7ee92e57ba5563708daca94dd84ad7112f",
            "0x6648efe854126eca977839455e095d4cb46e5035b64bc3aa0f8da2c5ebdce489",
            "0x0000000000000000000000000beba864b688e45d997a4f33a21c6674cbdf7336"
          ],
          "data": "0x0000000000000000000000000000000000000000000000000000000000000000fffffffffffffffffffffffffffffffffffffffffffffffffffc72815b3980000000000000000000000000000002088b961c29e0f3b1e3f300732cc9af1004a3000000000000000000000000000000000000000000000000000000000000011c00000000000000000000000000000000000000000000000000000000000a5ee10000000000000000000000000000000000000000000000000000000000000bb8",
          "blockHash": "0xefe9ced95db51d6471480483e0616364d01f3a59703ca362aa49efc63a21e3cd",
          "blockNumber": "0x9877a3",
          "blockTimestamp": "0x695d6768",
          "transactionHash": "0xeb9f3559c93cb68314116ad16ed18abbbaa47460e3ba2b15049b3b8bd86341fb",
          "transactionIndex": "0x66",
          "logIndex": "0x407",
          "removed": false
        },
        {
          "address": "0x5c13377f19b9aeb3cb00fcc8e58e9a2b43889540",
          "topics": [
            "0xcd9f4ccdc13709817c4447834a44bef5d62ffe25139e5c329d8debc5c177cc79",
            "0x6648efe854126eca977839455e095d4cb46e5035b64bc3aa0f8da2c5ebdce489"
          ],
          "data": "0x0000000000000000000000000000000000000000000000000000000000000000000000000000000000000000000000000000000000000000000002ba7def3000000000000000000000000000000000000000000000000000000000000000000000000000000000000000000000000000000000000000000000008de19495c000000000000000000000000000000000000000000000000000067eab853ae20000",
          "blockHash": "0xefe9ced95db51d6471480483e0616364d01f3a59703ca362aa49efc63a21e3cd",
          "blockNumber": "0x9877a3",
          "blockTimestamp": "0x695d6768",
          "transactionHash": "0xeb9f3559c93cb68314116ad16ed18abbbaa47460e3ba2b15049b3b8bd86341fb",
          "transactionIndex": "0x66",
          "logIndex": "0x408",
          "removed": false
        },
        {
          "address": "0xfff9976782d46cc05630d1f6ebab18b2324d6b14",
          "topics": [
            "0xddf252ad1be2c89b69c2b068fc378daa952ba7f163c4a11628f55a4df523b3ef",
            "0x00000000000000000000000063f976191f9dd75bd5b0fd81320d37fbc0d74080",
            "0x00000000000000000000000076e9e1affde82bb4544ce95ea58ffc2f9d45061f"
          ],
          "data": "0x00000000000000000000000000000000000000000000000000038d7ea4c68000",
          "blockHash": "0xefe9ced95db51d6471480483e0616364d01f3a59703ca362aa49efc63a21e3cd",
          "blockNumber": "0x9877a3",
          "blockTimestamp": "0x695d6768",
          "transactionHash": "0xeb9f3559c93cb68314116ad16ed18abbbaa47460e3ba2b15049b3b8bd86341fb",
          "transactionIndex": "0x66",
          "logIndex": "0x409",
          "removed": false
        }
      ],
      "logsBloom": "0x00001000000000000000000000000000002000000000000000000000000000000000000000000000000020000000000000000000040010000000000000001000000000010000000000000008000000000000000000000820000000000000010000000000000000000000004000000000000000000000000000000012000000000040000000000000000000000000010000000000000000000000000000000000000020400000040000000000000000000000000000000000000001000080000000000002000004000002000000000000000000000000000000008000800000000000000000000000004000020000050000000000000000000000000000000000",
      "type": "0x2",
      "transactionHash": "0xeb9f3559c93cb68314116ad16ed18abbbaa47460e3ba2b15049b3b8bd86341fb",
      "transactionIndex": "0x66",
      "blockHash": "0xefe9ced95db51d6471480483e0616364d01f3a59703ca362aa49efc63a21e3cd",
      "blockNumber": "0x9877a3",
      "gasUsed": "0x1a5ee",
      "effectiveGasPrice": "0x9ec04",
      "from": "0x63f976191f9dd75bd5b0fd81320d37fbc0d74080",
      "to": "0x0beba864b688e45d997a4f33a21c6674cbdf7336",
      "contractAddress": null
    },
    {
      "status": "0x1",
      "cumulativeGasUsed": "0x21bfe05",
      "logs": [
        {
          "address": "0x76e9e1affde82bb4544ce95ea58ffc2f9d45061f",
          "topics": [
            "0x40e9cecb9f5f1f1c5b9c97dec2917b7ee92e57ba5563708daca94dd84ad7112f",
            "0x6648efe854126eca977839455e095d4cb46e5035b64bc3aa0f8da2c5ebdce489",
            "0x0000000000000000000000000beba864b688e45d997a4f33a21c6674cbdf7336"
          ],
          "data": "0x0000000000000000000000000000000000000000000000000000000000000000fffffffffffffffffffffffffffffffffffffffffffffffffffc72815b39800000000000000000000000000000020bbcf3fe461aa45ef5fa3688cf0a95d2b8eb000000000000000000000000000000000000000000000000000000000000011c00000000000000000000000000000000000000000000000000000000000a5f5b0000000000000000000000000000000000000000000000000000000000000bb8",
          "blockHash": "0xefe9ced95db51d6471480483e0616364d01f3a59703ca362aa49efc63a21e3cd",
          "blockNumber": "0x9877a3",
          "blockTimestamp": "0x695d6768",
          "transactionHash": "0x3070623fb21b94ca12678fef59679082b46bd09cb89257efa87fe2402f2777c6",
          "transactionIndex": "0x67",
          "logIndex": "0x40a",
          "removed": false
        },
        {
          "address": "0x5c13377f19b9aeb3cb00fcc8e58e9a2b43889540",
          "topics": [
            "0xcd9f4ccdc13709817c4447834a44bef5d62ffe25139e5c329d8debc5c177cc79",
            "0x6648efe854126eca977839455e095d4cb46e5035b64bc3aa0f8da2c5ebdce489"
          ],
          "data": "0x0000000000000000000000000000000000000000000000000000000000000000000000000000000000000000000000000000000000000000000002ba7def300000000000000000000000000000000000000000000000000000000000000000000000000000000000000000000000000000000000000000000000909c1284f000000000000000000000000000000000000000000000000000069ea4f905dc8000",
          "blockHash": "0xefe9ced95db51d6471480483e0616364d01f3a59703ca362aa49efc63a21e3cd",
          "blockNumber": "0x9877a3",
          "blockTimestamp": "0x695d6768",
          "transactionHash": "0x3070623fb21b94ca12678fef59679082b46bd09cb89257efa87fe2402f2777c6",
          "transactionIndex": "0x67",
          "logIndex": "0x40b",
          "removed": false
        },
        {
          "address": "0xfff9976782d46cc05630d1f6ebab18b2324d6b14",
          "topics": [
            "0xddf252ad1be2c89b69c2b068fc378daa952ba7f163c4a11628f55a4df523b3ef",
            "0x00000000000000000000000063f976191f9dd75bd5b0fd81320d37fbc0d74080",
            "0x00000000000000000000000076e9e1affde82bb4544ce95ea58ffc2f9d45061f"
          ],
          "data": "0x00000000000000000000000000000000000000000000000000038d7ea4c68000",
          "blockHash": "0xefe9ced95db51d6471480483e0616364d01f3a59703ca362aa49efc63a21e3cd",
          "blockNumber": "0x9877a3",
          "blockTimestamp": "0x695d6768",
          "transactionHash": "0x3070623fb21b94ca12678fef59679082b46bd09cb89257efa87fe2402f2777c6",
          "transactionIndex": "0x67",
          "logIndex": "0x40c",
          "removed": false
        }
      ],
      "logsBloom": "0x00001000000000000000000000000000002000000000000000000000000000000000000000000000000020000000000000000000040010000000000000001000000000010000000000000008000000000000000000000820000000000000010000000000000000000000004000000000000000000000000000000012000000000040000000000000000000000000010000000000000000000000000000000000000020400000040000000000000000000000000000000000000001000080000000000002000004000002000000000000000000000000000000008000800000000000000000000000004000020000050000000000000000000000000000000000",
      "type": "0x2",
      "transactionHash": "0x3070623fb21b94ca12678fef59679082b46bd09cb89257efa87fe2402f2777c6",
      "transactionIndex": "0x67",
      "blockHash": "0xefe9ced95db51d6471480483e0616364d01f3a59703ca362aa49efc63a21e3cd",
      "blockNumber": "0x9877a3",
      "gasUsed": "0x1a9e2",
      "effectiveGasPrice": "0x9ec04",
      "from": "0x63f976191f9dd75bd5b0fd81320d37fbc0d74080",
      "to": "0x0beba864b688e45d997a4f33a21c6674cbdf7336",
      "contractAddress": null
    },
    {
      "status": "0x1",
      "cumulativeGasUsed": "0x21da7e7",
      "logs": [
        {
          "address": "0x76e9e1affde82bb4544ce95ea58ffc2f9d45061f",
          "topics": [
            "0x40e9cecb9f5f1f1c5b9c97dec2917b7ee92e57ba5563708daca94dd84ad7112f",
            "0x6648efe854126eca977839455e095d4cb46e5035b64bc3aa0f8da2c5ebdce489",
            "0x0000000000000000000000000beba864b688e45d997a4f33a21c6674cbdf7336"
          ],
          "data": "0x0000000000000000000000000000000000000000000000000000000000000000fffffffffffffffffffffffffffffffffffffffffffffffffffc72815b39800000000000000000000000000000020eee51e06254550c08016c9e714b7c956d33000000000000000000000000000000000000000000000000000000000000011c00000000000000000000000000000000000000000000000000000000000a5fd50000000000000000000000000000000000000000000000000000000000000bb8",
          "blockHash": "0xefe9ced95db51d6471480483e0616364d01f3a59703ca362aa49efc63a21e3cd",
          "blockNumber": "0x9877a3",
          "blockTimestamp": "0x695d6768",
          "transactionHash": "0x905901f87d37e675c3f392c71ddd6a64bb67ee0d308fc0c87d406dc67604ae44",
          "transactionIndex": "0x68",
          "logIndex": "0x40d",
          "removed": false
        },
        {
          "address": "0x5c13377f19b9aeb3cb00fcc8e58e9a2b43889540",
          "topics": [
            "0xcd9f4ccdc13709817c4447834a44bef5d62ffe25139e5c329d8debc5c177cc79",
            "0x6648efe854126eca977839455e095d4cb46e5035b64bc3aa0f8da2c5ebdce489"
          ],
          "data": "0x0000000000000000000000000000000000000000000000000000000000000000000000000000000000000000000000000000000000000000000002ba7def30000000000000000000000000000000000000000000000000000000000000000000000000000000000000000000000000000000000000000000000093569074200000000000000000000000000000000000000000000000000006be9e6cd0d70000",
          "blockHash": "0xefe9ced95db51d6471480483e0616364d01f3a59703ca362aa49efc63a21e3cd",
          "blockNumber": "0x9877a3",
          "blockTimestamp": "0x695d6768",
          "transactionHash": "0x905901f87d37e675c3f392c71ddd6a64bb67ee0d308fc0c87d406dc67604ae44",
          "transactionIndex": "0x68",
          "logIndex": "0x40e",
          "removed": false
        },
        {
          "address": "0xfff9976782d46cc05630d1f6ebab18b2324d6b14",
          "topics": [
            "0xddf252ad1be2c89b69c2b068fc378daa952ba7f163c4a11628f55a4df523b3ef",
            "0x00000000000000000000000063f976191f9dd75bd5b0fd81320d37fbc0d74080",
            "0x00000000000000000000000076e9e1affde82bb4544ce95ea58ffc2f9d45061f"
          ],
          "data": "0x00000000000000000000000000000000000000000000000000038d7ea4c68000",
          "blockHash": "0xefe9ced95db51d6471480483e0616364d01f3a59703ca362aa49efc63a21e3cd",
          "blockNumber": "0x9877a3",
          "blockTimestamp": "0x695d6768",
          "transactionHash": "0x905901f87d37e675c3f392c71ddd6a64bb67ee0d308fc0c87d406dc67604ae44",
          "transactionIndex": "0x68",
          "logIndex": "0x40f",
          "removed": false
        }
      ],
      "logsBloom": "0x00001000000000000000000000000000002000000000000000000000000000000000000000000000000020000000000000000000040010000000000000001000000000010000000000000008000000000000000000000820000000000000010000000000000000000000004000000000000000000000000000000012000000000040000000000000000000000000010000000000000000000000000000000000000020400000040000000000000000000000000000000000000001000080000000000002000004000002000000000000000000000000000000008000800000000000000000000000004000020000050000000000000000000000000000000000",
      "type": "0x2",
      "transactionHash": "0x905901f87d37e675c3f392c71ddd6a64bb67ee0d308fc0c87d406dc67604ae44",
      "transactionIndex": "0x68",
      "blockHash": "0xefe9ced95db51d6471480483e0616364d01f3a59703ca362aa49efc63a21e3cd",
      "blockNumber": "0x9877a3",
      "gasUsed": "0x1a9e2",
      "effectiveGasPrice": "0x9ec04",
      "from": "0x63f976191f9dd75bd5b0fd81320d37fbc0d74080",
      "to": "0x0beba864b688e45d997a4f33a21c6674cbdf7336",
      "contractAddress": null
    },
    {
      "status": "0x1",
      "cumulativeGasUsed": "0x21f514d",
      "logs": [
        {
          "address": "0x76e9e1affde82bb4544ce95ea58ffc2f9d45061f",
          "topics": [
            "0x40e9cecb9f5f1f1c5b9c97dec2917b7ee92e57ba5563708daca94dd84ad7112f",
            "0x6648efe854126eca977839455e095d4cb46e5035b64bc3aa0f8da2c5ebdce489",
            "0x0000000000000000000000000beba864b688e45d997a4f33a21c6674cbdf7336"
          ],
          "data": "0x0000000000000000000000000000000000000000000000000000000000000000fffffffffffffffffffffffffffffffffffffffffffffffffffc72815b3980000000000000000000000000000002121fafc27e8e05b91a08a2b4138c6358217b000000000000000000000000000000000000000000000000000000000000011c00000000000000000000000000000000000000000000000000000000000a604d0000000000000000000000000000000000000000000000000000000000000bb8",
          "blockHash": "0xefe9ced95db51d6471480483e0616364d01f3a59703ca362aa49efc63a21e3cd",
          "blockNumber": "0x9877a3",
          "blockTimestamp": "0x695d6768",
          "transactionHash": "0xf88c969f0438587a789bdde2a0a45fb0bfd2bb1ab0e087df5549de90c3562a5e",
          "transactionIndex": "0x69",
          "logIndex": "0x410",
          "removed": false
        },
        {
          "address": "0x5c13377f19b9aeb3cb00fcc8e58e9a2b43889540",
          "topics": [
            "0xcd9f4ccdc13709817c4447834a44bef5d62ffe25139e5c329d8debc5c177cc79",
            "0x6648efe854126eca977839455e095d4cb46e5035b64bc3aa0f8da2c5ebdce489"
          ],
          "data": "0x0000000000000000000000000000000000000000000000000000000000000000000000000000000000000000000000000000000000000000000002ba7def30000000000000000000000000000000000000000000000000000000000000000000000000000000000000000000000000000000000000000000000096110e63500000000000000000000000000000000000000000000000000006de97e09bd18000",
          "blockHash": "0xefe9ced95db51d6471480483e0616364d01f3a59703ca362aa49efc63a21e3cd",
          "blockNumber": "0x9877a3",
          "blockTimestamp": "0x695d6768",
          "transactionHash": "0xf88c969f0438587a789bdde2a0a45fb0bfd2bb1ab0e087df5549de90c3562a5e",
          "transactionIndex": "0x69",
          "logIndex": "0x411",
          "removed": false
        },
        {
          "address": "0xfff9976782d46cc05630d1f6ebab18b2324d6b14",
          "topics": [
            "0xddf252ad1be2c89b69c2b068fc378daa952ba7f163c4a11628f55a4df523b3ef",
            "0x00000000000000000000000063f976191f9dd75bd5b0fd81320d37fbc0d74080",
            "0x00000000000000000000000076e9e1affde82bb4544ce95ea58ffc2f9d45061f"
          ],
          "data": "0x00000000000000000000000000000000000000000000000000038d7ea4c68000",
          "blockHash": "0xefe9ced95db51d6471480483e0616364d01f3a59703ca362aa49efc63a21e3cd",
          "blockNumber": "0x9877a3",
          "blockTimestamp": "0x695d6768",
          "transactionHash": "0xf88c969f0438587a789bdde2a0a45fb0bfd2bb1ab0e087df5549de90c3562a5e",
          "transactionIndex": "0x69",
          "logIndex": "0x412",
          "removed": false
        }
      ],
      "logsBloom": "0x00001000000000000000000000000000002000000000000000000000000000000000000000000000000020000000000000000000040010000000000000001000000000010000000000000008000000000000000000000820000000000000010000000000000000000000004000000000000000000000000000000012000000000040000000000000000000000000010000000000000000000000000000000000000020400000040000000000000000000000000000000000000001000080000000000002000004000002000000000000000000000000000000008000800000000000000000000000004000020000050000000000000000000000000000000000",
      "type": "0x2",
      "transactionHash": "0xf88c969f0438587a789bdde2a0a45fb0bfd2bb1ab0e087df5549de90c3562a5e",
      "transactionIndex": "0x69",
      "blockHash": "0xefe9ced95db51d6471480483e0616364d01f3a59703ca362aa49efc63a21e3cd",
      "blockNumber": "0x9877a3",
      "gasUsed": "0x1a966",
      "effectiveGasPrice": "0x9ec04",
      "from": "0x63f976191f9dd75bd5b0fd81320d37fbc0d74080",
      "to": "0x0beba864b688e45d997a4f33a21c6674cbdf7336",
      "contractAddress": null
    },
    {
      "status": "0x1",
      "cumulativeGasUsed": "0x220faaf",
      "logs": [
        {
          "address": "0x76e9e1affde82bb4544ce95ea58ffc2f9d45061f",
          "topics": [
            "0x40e9cecb9f5f1f1c5b9c97dec2917b7ee92e57ba5563708daca94dd84ad7112f",
            "0x6648efe854126eca977839455e095d4cb46e5035b64bc3aa0f8da2c5ebdce489",
            "0x0000000000000000000000000beba864b688e45d997a4f33a21c6674cbdf7336"
          ],
          "data": "0x0000000000000000000000000000000000000000000000000000000000000000fffffffffffffffffffffffffffffffffffffffffffffffffffc72815b398000000000000000000000000000000215510da49ac7b6662c0fd8c9b5cd4a1ad5c3000000000000000000000000000000000000000000000000000000000000011c00000000000000000000000000000000000000000000000000000000000a60c60000000000000000000000000000000000000000000000000000000000000bb8",
          "blockHash": "0xefe9ced95db51d6471480483e0616364d01f3a59703ca362aa49efc63a21e3cd",
          "blockNumber": "0x9877a3",
          "blockTimestamp": "0x695d6768",
          "transactionHash": "0xd7dfb6588359bcce8bc227875555f471e92d80f2efab0852f1f8d33c7b2480fc",
          "transactionIndex": "0x6a",
          "logIndex": "0x413",
          "removed": false
        },
        {
          "address": "0x5c13377f19b9aeb3cb00fcc8e58e9a2b43889540",
          "topics": [
            "0xcd9f4ccdc13709817c4447834a44bef5d62ffe25139e5c329d8debc5c177cc79",
            "0x6648efe854126eca977839455e095d4cb46e5035b64bc3aa0f8da2c5ebdce489"
          ],
          "data": "0x0000000000000000000000000000000000000000000000000000000000000000000000000000000000000000000000000000000000000000000002ba7def30000000000000000000000000000000000000000000000000000000000000000000000000000000000000000000000000000000000000000000000098cb8c52800000000000000000000000000000000000000000000000000006fe915466cc0000",
          "blockHash": "0xefe9ced95db51d6471480483e0616364d01f3a59703ca362aa49efc63a21e3cd",
          "blockNumber": "0x9877a3",
          "blockTimestamp": "0x695d6768",
          "transactionHash": "0xd7dfb6588359bcce8bc227875555f471e92d80f2efab0852f1f8d33c7b2480fc",
          "transactionIndex": "0x6a",
          "logIndex": "0x414",
          "removed": false
        },
        {
          "address": "0xfff9976782d46cc05630d1f6ebab18b2324d6b14",
          "topics": [
            "0xddf252ad1be2c89b69c2b068fc378daa952ba7f163c4a11628f55a4df523b3ef",
            "0x00000000000000000000000063f976191f9dd75bd5b0fd81320d37fbc0d74080",
            "0x00000000000000000000000076e9e1affde82bb4544ce95ea58ffc2f9d45061f"
          ],
          "data": "0x00000000000000000000000000000000000000000000000000038d7ea4c68000",
          "blockHash": "0xefe9ced95db51d6471480483e0616364d01f3a59703ca362aa49efc63a21e3cd",
          "blockNumber": "0x9877a3",
          "blockTimestamp": "0x695d6768",
          "transactionHash": "0xd7dfb6588359bcce8bc227875555f471e92d80f2efab0852f1f8d33c7b2480fc",
          "transactionIndex": "0x6a",
          "logIndex": "0x415",
          "removed": false
        }
      ],
      "logsBloom": "0x00001000000000000000000000000000002000000000000000000000000000000000000000000000000020000000000000000000040010000000000000001000000000010000000000000008000000000000000000000820000000000000010000000000000000000000004000000000000000000000000000000012000000000040000000000000000000000000010000000000000000000000000000000000000020400000040000000000000000000000000000000000000001000080000000000002000004000002000000000000000000000000000000008000800000000000000000000000004000020000050000000000000000000000000000000000",
      "type": "0x2",
      "transactionHash": "0xd7dfb6588359bcce8bc227875555f471e92d80f2efab0852f1f8d33c7b2480fc",
      "transactionIndex": "0x6a",
      "blockHash": "0xefe9ced95db51d6471480483e0616364d01f3a59703ca362aa49efc63a21e3cd",
      "blockNumber": "0x9877a3",
      "gasUsed": "0x1a962",
      "effectiveGasPrice": "0x9ec04",
      "from": "0x63f976191f9dd75bd5b0fd81320d37fbc0d74080",
      "to": "0x0beba864b688e45d997a4f33a21c6674cbdf7336",
      "contractAddress": null
    },
    {
      "status": "0x1",
      "cumulativeGasUsed": "0x222a455",
      "logs": [
        {
          "address": "0x76e9e1affde82bb4544ce95ea58ffc2f9d45061f",
          "topics": [
            "0x40e9cecb9f5f1f1c5b9c97dec2917b7ee92e57ba5563708daca94dd84ad7112f",
            "0x6648efe854126eca977839455e095d4cb46e5035b64bc3aa0f8da2c5ebdce489",
            "0x0000000000000000000000000beba864b688e45d997a4f33a21c6674cbdf7336"
          ],
          "data": "0x0000000000000000000000000000000000000000000000000000000000000000fffffffffffffffffffffffffffffffffffffffffffffffffffc72815b398000000000000000000000000000000218826b86b70167133e170edf580e30dd8a0b000000000000000000000000000000000000000000000000000000000000011c00000000000000000000000000000000000000000000000000000000000a613d0000000000000000000000000000000000000000000000000000000000000bb8",
          "blockHash": "0xefe9ced95db51d6471480483e0616364d01f3a59703ca362aa49efc63a21e3cd",
          "blockNumber": "0x9877a3",
          "blockTimestamp": "0x695d6768",
          "transactionHash": "0xb7adb90ba88247309a36a0159f182ea868efd94e61b0139a1915657fb14cc608",
          "transactionIndex": "0x6b",
          "logIndex": "0x416",
          "removed": false
        },
        {
          "address": "0x5c13377f19b9aeb3cb00fcc8e58e9a2b43889540",
          "topics": [
            "0xcd9f4ccdc13709817c4447834a44bef5d62ffe25139e5c329d8debc5c177cc79",
            "0x6648efe854126eca977839455e095d4cb46e5035b64bc3aa0f8da2c5ebdce489"
          ],
          "data": "0x0000000000000000000000000000000000000000000000000000000000000000000000000000000000000000000000000000000000000000000002ba7def3000000000000000000000000000000000000000000000000000000000000000000000000000000000000000000000000000000000000000000000009b860a41b000000000000000000000000000000000000000000000000000071e8ac831c68000",
          "blockHash": "0xefe9ced95db51d6471480483e0616364d01f3a59703ca362aa49efc63a21e3cd",
          "blockNumber": "0x9877a3",
          "blockTimestamp": "0x695d6768",
          "transactionHash": "0xb7adb90ba88247309a36a0159f182ea868efd94e61b0139a1915657fb14cc608",
          "transactionIndex": "0x6b",
          "logIndex": "0x417",
          "removed": false
        },
        {
          "address": "0xfff9976782d46cc05630d1f6ebab18b2324d6b14",
          "topics": [
            "0xddf252ad1be2c89b69c2b068fc378daa952ba7f163c4a11628f55a4df523b3ef",
            "0x00000000000000000000000063f976191f9dd75bd5b0fd81320d37fbc0d74080",
            "0x00000000000000000000000076e9e1affde82bb4544ce95ea58ffc2f9d45061f"
          ],
          "data": "0x00000000000000000000000000000000000000000000000000038d7ea4c68000",
          "blockHash": "0xefe9ced95db51d6471480483e0616364d01f3a59703ca362aa49efc63a21e3cd",
          "blockNumber": "0x9877a3",
          "blockTimestamp": "0x695d6768",
          "transactionHash": "0xb7adb90ba88247309a36a0159f182ea868efd94e61b0139a1915657fb14cc608",
          "transactionIndex": "0x6b",
          "logIndex": "0x418",
          "removed": false
        }
      ],
      "logsBloom": "0x00001000000000000000000000000000002000000000000000000000000000000000000000000000000020000000000000000000040010000000000000001000000000010000000000000008000000000000000000000820000000000000010000000000000000000000004000000000000000000000000000000012000000000040000000000000000000000000010000000000000000000000000000000000000020400000040000000000000000000000000000000000000001000080000000000002000004000002000000000000000000000000000000008000800000000000000000000000004000020000050000000000000000000000000000000000",
      "type": "0x2",
      "transactionHash": "0xb7adb90ba88247309a36a0159f182ea868efd94e61b0139a1915657fb14cc608",
      "transactionIndex": "0x6b",
      "blockHash": "0xefe9ced95db51d6471480483e0616364d01f3a59703ca362aa49efc63a21e3cd",
      "blockNumber": "0x9877a3",
      "gasUsed": "0x1a9a6",
      "effectiveGasPrice": "0x9ec04",
      "from": "0x63f976191f9dd75bd5b0fd81320d37fbc0d74080",
      "to": "0x0beba864b688e45d997a4f33a21c6674cbdf7336",
      "contractAddress": null
    },
    {
      "status": "0x1",
      "cumulativeGasUsed": "0x2244dd7",
      "logs": [
        {
          "address": "0x76e9e1affde82bb4544ce95ea58ffc2f9d45061f",
          "topics": [
            "0x40e9cecb9f5f1f1c5b9c97dec2917b7ee92e57ba5563708daca94dd84ad7112f",
            "0x6648efe854126eca977839455e095d4cb46e5035b64bc3aa0f8da2c5ebdce489",
            "0x0000000000000000000000000beba864b688e45d997a4f33a21c6674cbdf7336"
          ],
          "data": "0x0000000000000000000000000000000000000000000000000000000000000000fffffffffffffffffffffffffffffffffffffffffffffffffffc72815b39800000000000000000000000000000021bb3c968d33b17c0501e44f4fa4f17a03e53000000000000000000000000000000000000000000000000000000000000011c00000000000000000000000000000000000000000000000000000000000a61b40000000000000000000000000000000000000000000000000000000000000bb8",
          "blockHash": "0xefe9ced95db51d6471480483e0616364d01f3a59703ca362aa49efc63a21e3cd",
          "blockNumber": "0x9877a3",
          "blockTimestamp": "0x695d6768",
          "transactionHash": "0x7505dc7b26f2601f515ca7bc524d2f774c35599e2869ed82fa0abc681b2eb776",
          "transactionIndex": "0x6c",
          "logIndex": "0x419",
          "removed": false
        },
        {
          "address": "0x5c13377f19b9aeb3cb00fcc8e58e9a2b43889540",
          "topics": [
            "0xcd9f4ccdc13709817c4447834a44bef5d62ffe25139e5c329d8debc5c177cc79",
            "0x6648efe854126eca977839455e095d4cb46e5035b64bc3aa0f8da2c5ebdce489"
          ],
          "data": "0x0000000000000000000000000000000000000000000000000000000000000000000000000000000000000000000000000000000000000000000002ba7def3000000000000000000000000000000000000000000000000000000000000000000000000000000000000000000000000000000000000000000000009e408830e000000000000000000000000000000000000000000000000000073e843bfcc10000",
          "blockHash": "0xefe9ced95db51d6471480483e0616364d01f3a59703ca362aa49efc63a21e3cd",
          "blockNumber": "0x9877a3",
          "blockTimestamp": "0x695d6768",
          "transactionHash": "0x7505dc7b26f2601f515ca7bc524d2f774c35599e2869ed82fa0abc681b2eb776",
          "transactionIndex": "0x6c",
          "logIndex": "0x41a",
          "removed": false
        },
        {
          "address": "0xfff9976782d46cc05630d1f6ebab18b2324d6b14",
          "topics": [
            "0xddf252ad1be2c89b69c2b068fc378daa952ba7f163c4a11628f55a4df523b3ef",
            "0x00000000000000000000000063f976191f9dd75bd5b0fd81320d37fbc0d74080",
            "0x00000000000000000000000076e9e1affde82bb4544ce95ea58ffc2f9d45061f"
          ],
          "data": "0x00000000000000000000000000000000000000000000000000038d7ea4c68000",
          "blockHash": "0xefe9ced95db51d6471480483e0616364d01f3a59703ca362aa49efc63a21e3cd",
          "blockNumber": "0x9877a3",
          "blockTimestamp": "0x695d6768",
          "transactionHash": "0x7505dc7b26f2601f515ca7bc524d2f774c35599e2869ed82fa0abc681b2eb776",
          "transactionIndex": "0x6c",
          "logIndex": "0x41b",
          "removed": false
        }
      ],
      "logsBloom": "0x00001000000000000000000000000000002000000000000000000000000000000000000000000000000020000000000000000000040010000000000000001000000000010000000000000008000000000000000000000820000000000000010000000000000000000000004000000000000000000000000000000012000000000040000000000000000000000000010000000000000000000000000000000000000020400000040000000000000000000000000000000000000001000080000000000002000004000002000000000000000000000000000000008000800000000000000000000000004000020000050000000000000000000000000000000000",
      "type": "0x2",
      "transactionHash": "0x7505dc7b26f2601f515ca7bc524d2f774c35599e2869ed82fa0abc681b2eb776",
      "transactionIndex": "0x6c",
      "blockHash": "0xefe9ced95db51d6471480483e0616364d01f3a59703ca362aa49efc63a21e3cd",
      "blockNumber": "0x9877a3",
      "gasUsed": "0x1a982",
      "effectiveGasPrice": "0x9ec04",
      "from": "0x63f976191f9dd75bd5b0fd81320d37fbc0d74080",
      "to": "0x0beba864b688e45d997a4f33a21c6674cbdf7336",
      "contractAddress": null
    },
    {
      "status": "0x1",
      "cumulativeGasUsed": "0x225f739",
      "logs": [
        {
          "address": "0x76e9e1affde82bb4544ce95ea58ffc2f9d45061f",
          "topics": [
            "0x40e9cecb9f5f1f1c5b9c97dec2917b7ee92e57ba5563708daca94dd84ad7112f",
            "0x6648efe854126eca977839455e095d4cb46e5035b64bc3aa0f8da2c5ebdce489",
            "0x0000000000000000000000000beba864b688e45d997a4f33a21c6674cbdf7336"
          ],
          "data": "0x0000000000000000000000000000000000000000000000000000000000000000fffffffffffffffffffffffffffffffffffffffffffffffffffc72815b39800000000000000000000000000000021ee5274aef74c86d62257b0a9c8ffe62f29b000000000000000000000000000000000000000000000000000000000000011c00000000000000000000000000000000000000000000000000000000000a622a0000000000000000000000000000000000000000000000000000000000000bb8",
          "blockHash": "0xefe9ced95db51d6471480483e0616364d01f3a59703ca362aa49efc63a21e3cd",
          "blockNumber": "0x9877a3",
          "blockTimestamp": "0x695d6768",
          "transactionHash": "0x2992c4060ac29c6de3d9533c7ff0d6f57f524dd95253a1cc201eeee4e91af471",
          "transactionIndex": "0x6d",
          "logIndex": "0x41c",
          "removed": false
        },
        {
          "address": "0x5c13377f19b9aeb3cb00fcc8e58e9a2b43889540",
          "topics": [
            "0xcd9f4ccdc13709817c4447834a44bef5d62ffe25139e5c329d8debc5c177cc79",
            "0x6648efe854126eca977839455e095d4cb46e5035b64bc3aa0f8da2c5ebdce489"
          ],
          "data": "0x0000000000000000000000000000000000000000000000000000000000000000000000000000000000000000000000000000000000000000000002ba7def300000000000000000000000000000000000000000000000000000000000000000000000000000000000000000000000000000000000000000000000a0fb06201000000000000000000000000000000000000000000000000000075e7dafc7bb8000",
          "blockHash": "0xefe9ced95db51d6471480483e0616364d01f3a59703ca362aa49efc63a21e3cd",
          "blockNumber": "0x9877a3",
          "blockTimestamp": "0x695d6768",
          "transactionHash": "0x2992c4060ac29c6de3d9533c7ff0d6f57f524dd95253a1cc201eeee4e91af471",
          "transactionIndex": "0x6d",
          "logIndex": "0x41d",
          "removed": false
        },
        {
          "address": "0xfff9976782d46cc05630d1f6ebab18b2324d6b14",
          "topics": [
            "0xddf252ad1be2c89b69c2b068fc378daa952ba7f163c4a11628f55a4df523b3ef",
            "0x00000000000000000000000063f976191f9dd75bd5b0fd81320d37fbc0d74080",
            "0x00000000000000000000000076e9e1affde82bb4544ce95ea58ffc2f9d45061f"
          ],
          "data": "0x00000000000000000000000000000000000000000000000000038d7ea4c68000",
          "blockHash": "0xefe9ced95db51d6471480483e0616364d01f3a59703ca362aa49efc63a21e3cd",
          "blockNumber": "0x9877a3",
          "blockTimestamp": "0x695d6768",
          "transactionHash": "0x2992c4060ac29c6de3d9533c7ff0d6f57f524dd95253a1cc201eeee4e91af471",
          "transactionIndex": "0x6d",
          "logIndex": "0x41e",
          "removed": false
        }
      ],
      "logsBloom": "0x00001000000000000000000000000000002000000000000000000000000000000000000000000000000020000000000000000000040010000000000000001000000000010000000000000008000000000000000000000820000000000000010000000000000000000000004000000000000000000000000000000012000000000040000000000000000000000000010000000000000000000000000000000000000020400000040000000000000000000000000000000000000001000080000000000002000004000002000000000000000000000000000000008000800000000000000000000000004000020000050000000000000000000000000000000000",
      "type": "0x2",
      "transactionHash": "0x2992c4060ac29c6de3d9533c7ff0d6f57f524dd95253a1cc201eeee4e91af471",
      "transactionIndex": "0x6d",
      "blockHash": "0xefe9ced95db51d6471480483e0616364d01f3a59703ca362aa49efc63a21e3cd",
      "blockNumber": "0x9877a3",
      "gasUsed": "0x1a962",
      "effectiveGasPrice": "0x9ec04",
      "from": "0x63f976191f9dd75bd5b0fd81320d37fbc0d74080",
      "to": "0x0beba864b688e45d997a4f33a21c6674cbdf7336",
      "contractAddress": null
    },
    {
      "status": "0x1",
      "cumulativeGasUsed": "0x227a0db",
      "logs": [
        {
          "address": "0x76e9e1affde82bb4544ce95ea58ffc2f9d45061f",
          "topics": [
            "0x40e9cecb9f5f1f1c5b9c97dec2917b7ee92e57ba5563708daca94dd84ad7112f",
            "0x6648efe854126eca977839455e095d4cb46e5035b64bc3aa0f8da2c5ebdce489",
            "0x0000000000000000000000000beba864b688e45d997a4f33a21c6674cbdf7336"
          ],
          "data": "0x0000000000000000000000000000000000000000000000000000000000000000fffffffffffffffffffffffffffffffffffffffffffffffffffc72815b39800000000000000000000000000000022216852d0bae791a742cb1203ed0e525a6e3000000000000000000000000000000000000000000000000000000000000011c00000000000000000000000000000000000000000000000000000000000a629f0000000000000000000000000000000000000000000000000000000000000bb8",
          "blockHash": "0xefe9ced95db51d6471480483e0616364d01f3a59703ca362aa49efc63a21e3cd",
          "blockNumber": "0x9877a3",
          "blockTimestamp": "0x695d6768",
          "transactionHash": "0x1d428ec850d4a43e944fa92e624d7b2d135ea06a4c56300b4b80880780cc27e6",
          "transactionIndex": "0x6e",
          "logIndex": "0x41f",
          "removed": false
        },
        {
          "address": "0x5c13377f19b9aeb3cb00fcc8e58e9a2b43889540",
          "topics": [
            "0xcd9f4ccdc13709817c4447834a44bef5d62ffe25139e5c329d8debc5c177cc79",
            "0x6648efe854126eca977839455e095d4cb46e5035b64bc3aa0f8da2c5ebdce489"
          ],
          "data": "0x0000000000000000000000000000000000000000000000000000000000000000000000000000000000000000000000000000000000000000000002ba7def300000000000000000000000000000000000000000000000000000000000000000000000000000000000000000000000000000000000000000000000a3b5840f4000000000000000000000000000000000000000000000000000077e772392b60000",
          "blockHash": "0xefe9ced95db51d6471480483e0616364d01f3a59703ca362aa49efc63a21e3cd",
          "blockNumber": "0x9877a3",
          "blockTimestamp": "0x695d6768",
          "transactionHash": "0x1d428ec850d4a43e944fa92e624d7b2d135ea06a4c56300b4b80880780cc27e6",
          "transactionIndex": "0x6e",
          "logIndex": "0x420",
          "removed": false
        },
        {
          "address": "0xfff9976782d46cc05630d1f6ebab18b2324d6b14",
          "topics": [
            "0xddf252ad1be2c89b69c2b068fc378daa952ba7f163c4a11628f55a4df523b3ef",
            "0x00000000000000000000000063f976191f9dd75bd5b0fd81320d37fbc0d74080",
            "0x00000000000000000000000076e9e1affde82bb4544ce95ea58ffc2f9d45061f"
          ],
          "data": "0x00000000000000000000000000000000000000000000000000038d7ea4c68000",
          "blockHash": "0xefe9ced95db51d6471480483e0616364d01f3a59703ca362aa49efc63a21e3cd",
          "blockNumber": "0x9877a3",
          "blockTimestamp": "0x695d6768",
          "transactionHash": "0x1d428ec850d4a43e944fa92e624d7b2d135ea06a4c56300b4b80880780cc27e6",
          "transactionIndex": "0x6e",
          "logIndex": "0x421",
          "removed": false
        }
      ],
      "logsBloom": "0x00001000000000000000000000000000002000000000000000000000000000000000000000000000000020000000000000000000040010000000000000001000000000010000000000000008000000000000000000000820000000000000010000000000000000000000004000000000000000000000000000000012000000000040000000000000000000000000010000000000000000000000000000000000000020400000040000000000000000000000000000000000000001000080000000000002000004000002000000000000000000000000000000008000800000000000000000000000004000020000050000000000000000000000000000000000",
      "type": "0x2",
      "transactionHash": "0x1d428ec850d4a43e944fa92e624d7b2d135ea06a4c56300b4b80880780cc27e6",
      "transactionIndex": "0x6e",
      "blockHash": "0xefe9ced95db51d6471480483e0616364d01f3a59703ca362aa49efc63a21e3cd",
      "blockNumber": "0x9877a3",
      "gasUsed": "0x1a9a2",
      "effectiveGasPrice": "0x9ec04",
      "from": "0x63f976191f9dd75bd5b0fd81320d37fbc0d74080",
      "to": "0x0beba864b688e45d997a4f33a21c6674cbdf7336",
      "contractAddress": null
    },
    {
      "status": "0x1",
      "cumulativeGasUsed": "0x2294a41",
      "logs": [
        {
          "address": "0x76e9e1affde82bb4544ce95ea58ffc2f9d45061f",
          "topics": [
            "0x40e9cecb9f5f1f1c5b9c97dec2917b7ee92e57ba5563708daca94dd84ad7112f",
            "0x6648efe854126eca977839455e095d4cb46e5035b64bc3aa0f8da2c5ebdce489",
            "0x0000000000000000000000000beba864b688e45d997a4f33a21c6674cbdf7336"
          ],
          "data": "0x0000000000000000000000000000000000000000000000000000000000000000fffffffffffffffffffffffffffffffffffffffffffffffffffc72815b39800000000000000000000000000000022547e30f27e829c78633e735e111cbe85b2b000000000000000000000000000000000000000000000000000000000000011c00000000000000000000000000000000000000000000000000000000000a63130000000000000000000000000000000000000000000000000000000000000bb8",
          "blockHash": "0xefe9ced95db51d6471480483e0616364d01f3a59703ca362aa49efc63a21e3cd",
          "blockNumber": "0x9877a3",
          "blockTimestamp": "0x695d6768",
          "transactionHash": "0x16645684a643963964bec542b4729df44f8321e92b49b3892c793a3edb30b755",
          "transactionIndex": "0x6f",
          "logIndex": "0x422",
          "removed": false
        },
        {
          "address": "0x5c13377f19b9aeb3cb00fcc8e58e9a2b43889540",
          "topics": [
            "0xcd9f4ccdc13709817c4447834a44bef5d62ffe25139e5c329d8debc5c177cc79",
            "0x6648efe854126eca977839455e095d4cb46e5035b64bc3aa0f8da2c5ebdce489"
          ],
          "data": "0x0000000000000000000000000000000000000000000000000000000000000000000000000000000000000000000000000000000000000000000002ba7def300000000000000000000000000000000000000000000000000000000000000000000000000000000000000000000000000000000000000000000000a67001fe7000000000000000000000000000000000000000000000000000079e70975db08000",
          "blockHash": "0xefe9ced95db51d6471480483e0616364d01f3a59703ca362aa49efc63a21e3cd",
          "blockNumber": "0x9877a3",
          "blockTimestamp": "0x695d6768",
          "transactionHash": "0x16645684a643963964bec542b4729df44f8321e92b49b3892c793a3edb30b755",
          "transactionIndex": "0x6f",
          "logIndex": "0x423",
          "removed": false
        },
        {
          "address": "0xfff9976782d46cc05630d1f6ebab18b2324d6b14",
          "topics": [
            "0xddf252ad1be2c89b69c2b068fc378daa952ba7f163c4a11628f55a4df523b3ef",
            "0x00000000000000000000000063f976191f9dd75bd5b0fd81320d37fbc0d74080",
            "0x00000000000000000000000076e9e1affde82bb4544ce95ea58ffc2f9d45061f"
          ],
          "data": "0x00000000000000000000000000000000000000000000000000038d7ea4c68000",
          "blockHash": "0xefe9ced95db51d6471480483e0616364d01f3a59703ca362aa49efc63a21e3cd",
          "blockNumber": "0x9877a3",
          "blockTimestamp": "0x695d6768",
          "transactionHash": "0x16645684a643963964bec542b4729df44f8321e92b49b3892c793a3edb30b755",
          "transactionIndex": "0x6f",
          "logIndex": "0x424",
          "removed": false
        }
      ],
      "logsBloom": "0x00001000000000000000000000000000002000000000000000000000000000000000000000000000000020000000000000000000040010000000000000001000000000010000000000000008000000000000000000000820000000000000010000000000000000000000004000000000000000000000000000000012000000000040000000000000000000000000010000000000000000000000000000000000000020400000040000000000000000000000000000000000000001000080000000000002000004000002000000000000000000000000000000008000800000000000000000000000004000020000050000000000000000000000000000000000",
      "type": "0x2",
      "transactionHash": "0x16645684a643963964bec542b4729df44f8321e92b49b3892c793a3edb30b755",
      "transactionIndex": "0x6f",
      "blockHash": "0xefe9ced95db51d6471480483e0616364d01f3a59703ca362aa49efc63a21e3cd",
      "blockNumber": "0x9877a3",
      "gasUsed": "0x1a966",
      "effectiveGasPrice": "0x9ec04",
      "from": "0x63f976191f9dd75bd5b0fd81320d37fbc0d74080",
      "to": "0x0beba864b688e45d997a4f33a21c6674cbdf7336",
      "contractAddress": null
    },
    {
      "status": "0x1",
      "cumulativeGasUsed": "0x22af3a7",
      "logs": [
        {
          "address": "0x76e9e1affde82bb4544ce95ea58ffc2f9d45061f",
          "topics": [
            "0x40e9cecb9f5f1f1c5b9c97dec2917b7ee92e57ba5563708daca94dd84ad7112f",
            "0x6648efe854126eca977839455e095d4cb46e5035b64bc3aa0f8da2c5ebdce489",
            "0x0000000000000000000000000beba864b688e45d997a4f33a21c6674cbdf7336"
          ],
          "data": "0x0000000000000000000000000000000000000000000000000000000000000000fffffffffffffffffffffffffffffffffffffffffffffffffffc72815b3980000000000000000000000000000002287940f14421da74983b1d4b8352b2ab0f73000000000000000000000000000000000000000000000000000000000000011c00000000000000000000000000000000000000000000000000000000000a63870000000000000000000000000000000000000000000000000000000000000bb8",
          "blockHash": "0xefe9ced95db51d6471480483e0616364d01f3a59703ca362aa49efc63a21e3cd",
          "blockNumber": "0x9877a3",
          "blockTimestamp": "0x695d6768",
          "transactionHash": "0x2a56562e6140228d7312f75dd1d6f625092eb19e22e27e368bbeb8e50085e6ab",
          "transactionIndex": "0x70",
          "logIndex": "0x425",
          "removed": false
        },
        {
          "address": "0x5c13377f19b9aeb3cb00fcc8e58e9a2b43889540",
          "topics": [
            "0xcd9f4ccdc13709817c4447834a44bef5d62ffe25139e5c329d8debc5c177cc79",
            "0x6648efe854126eca977839455e095d4cb46e5035b64bc3aa0f8da2c5ebdce489"
          ],
          "data": "0x0000000000000000000000000000000000000000000000000000000000000000000000000000000000000000000000000000000000000000000002ba7def300000000000000000000000000000000000000000000000000000000000000000000000000000000000000000000000000000000000000000000000a92a7feda00000000000000000000000000000000000000000000000000007be6a0b28ab0000",
          "blockHash": "0xefe9ced95db51d6471480483e0616364d01f3a59703ca362aa49efc63a21e3cd",
          "blockNumber": "0x9877a3",
          "blockTimestamp": "0x695d6768",
          "transactionHash": "0x2a56562e6140228d7312f75dd1d6f625092eb19e22e27e368bbeb8e50085e6ab",
          "transactionIndex": "0x70",
          "logIndex": "0x426",
          "removed": false
        },
        {
          "address": "0xfff9976782d46cc05630d1f6ebab18b2324d6b14",
          "topics": [
            "0xddf252ad1be2c89b69c2b068fc378daa952ba7f163c4a11628f55a4df523b3ef",
            "0x00000000000000000000000063f976191f9dd75bd5b0fd81320d37fbc0d74080",
            "0x00000000000000000000000076e9e1affde82bb4544ce95ea58ffc2f9d45061f"
          ],
          "data": "0x00000000000000000000000000000000000000000000000000038d7ea4c68000",
          "blockHash": "0xefe9ced95db51d6471480483e0616364d01f3a59703ca362aa49efc63a21e3cd",
          "blockNumber": "0x9877a3",
          "blockTimestamp": "0x695d6768",
          "transactionHash": "0x2a56562e6140228d7312f75dd1d6f625092eb19e22e27e368bbeb8e50085e6ab",
          "transactionIndex": "0x70",
          "logIndex": "0x427",
          "removed": false
        }
      ],
      "logsBloom": "0x00001000000000000000000000000000002000000000000000000000000000000000000000000000000020000000000000000000040010000000000000001000000000010000000000000008000000000000000000000820000000000000010000000000000000000000004000000000000000000000000000000012000000000040000000000000000000000000010000000000000000000000000000000000000020400000040000000000000000000000000000000000000001000080000000000002000004000002000000000000000000000000000000008000800000000000000000000000004000020000050000000000000000000000000000000000",
      "type": "0x2",
      "transactionHash": "0x2a56562e6140228d7312f75dd1d6f625092eb19e22e27e368bbeb8e50085e6ab",
      "transactionIndex": "0x70",
      "blockHash": "0xefe9ced95db51d6471480483e0616364d01f3a59703ca362aa49efc63a21e3cd",
      "blockNumber": "0x9877a3",
      "gasUsed": "0x1a966",
      "effectiveGasPrice": "0x9ec04",
      "from": "0x63f976191f9dd75bd5b0fd81320d37fbc0d74080",
      "to": "0x0beba864b688e45d997a4f33a21c6674cbdf7336",
      "contractAddress": null
    },
    {
      "status": "0x1",
      "cumulativeGasUsed": "0x22c9d89",
      "logs": [
        {
          "address": "0x76e9e1affde82bb4544ce95ea58ffc2f9d45061f",
          "topics": [
            "0x40e9cecb9f5f1f1c5b9c97dec2917b7ee92e57ba5563708daca94dd84ad7112f",
            "0x6648efe854126eca977839455e095d4cb46e5035b64bc3aa0f8da2c5ebdce489",
            "0x0000000000000000000000000beba864b688e45d997a4f33a21c6674cbdf7336"
          ],
          "data": "0x0000000000000000000000000000000000000000000000000000000000000000fffffffffffffffffffffffffffffffffffffffffffffffffffc72815b39800000000000000000000000000000022baa9ed3605b8b21aa4253612593996dc3bb000000000000000000000000000000000000000000000000000000000000011c00000000000000000000000000000000000000000000000000000000000a63fb0000000000000000000000000000000000000000000000000000000000000bb8",
          "blockHash": "0xefe9ced95db51d6471480483e0616364d01f3a59703ca362aa49efc63a21e3cd",
          "blockNumber": "0x9877a3",
          "blockTimestamp": "0x695d6768",
          "transactionHash": "0xd19e6822a0a9f1aa99bbb5097bcd1a275102cb45285d2345605ff088f4661c35",
          "transactionIndex": "0x71",
          "logIndex": "0x428",
          "removed": false
        },
        {
          "address": "0x5c13377f19b9aeb3cb00fcc8e58e9a2b43889540",
          "topics": [
            "0xcd9f4ccdc13709817c4447834a44bef5d62ffe25139e5c329d8debc5c177cc79",
            "0x6648efe854126eca977839455e095d4cb46e5035b64bc3aa0f8da2c5ebdce489"
          ],
          "data": "0x0000000000000000000000000000000000000000000000000000000000000000000000000000000000000000000000000000000000000000000002ba7def300000000000000000000000000000000000000000000000000000000000000000000000000000000000000000000000000000000000000000000000abe4fddcd00000000000000000000000000000000000000000000000000007de637ef3a58000",
          "blockHash": "0xefe9ced95db51d6471480483e0616364d01f3a59703ca362aa49efc63a21e3cd",
          "blockNumber": "0x9877a3",
          "blockTimestamp": "0x695d6768",
          "transactionHash": "0xd19e6822a0a9f1aa99bbb5097bcd1a275102cb45285d2345605ff088f4661c35",
          "transactionIndex": "0x71",
          "logIndex": "0x429",
          "removed": false
        },
        {
          "address": "0xfff9976782d46cc05630d1f6ebab18b2324d6b14",
          "topics": [
            "0xddf252ad1be2c89b69c2b068fc378daa952ba7f163c4a11628f55a4df523b3ef",
            "0x00000000000000000000000063f976191f9dd75bd5b0fd81320d37fbc0d74080",
            "0x00000000000000000000000076e9e1affde82bb4544ce95ea58ffc2f9d45061f"
          ],
          "data": "0x00000000000000000000000000000000000000000000000000038d7ea4c68000",
          "blockHash": "0xefe9ced95db51d6471480483e0616364d01f3a59703ca362aa49efc63a21e3cd",
          "blockNumber": "0x9877a3",
          "blockTimestamp": "0x695d6768",
          "transactionHash": "0xd19e6822a0a9f1aa99bbb5097bcd1a275102cb45285d2345605ff088f4661c35",
          "transactionIndex": "0x71",
          "logIndex": "0x42a",
          "removed": false
        }
      ],
      "logsBloom": "0x00001000000000000000000000000000002000000000000000000000000000000000000000000000000020000000000000000000040010000000000000001000000000010000000000000008000000000000000000000820000000000000010000000000000000000000004000000000000000000000000000000012000000000040000000000000000000000000010000000000000000000000000000000000000020400000040000000000000000000000000000000000000001000080000000000002000004000002000000000000000000000000000000008000800000000000000000000000004000020000050000000000000000000000000000000000",
      "type": "0x2",
      "transactionHash": "0xd19e6822a0a9f1aa99bbb5097bcd1a275102cb45285d2345605ff088f4661c35",
      "transactionIndex": "0x71",
      "blockHash": "0xefe9ced95db51d6471480483e0616364d01f3a59703ca362aa49efc63a21e3cd",
      "blockNumber": "0x9877a3",
      "gasUsed": "0x1a9e2",
      "effectiveGasPrice": "0x9ec04",
      "from": "0x63f976191f9dd75bd5b0fd81320d37fbc0d74080",
      "to": "0x0beba864b688e45d997a4f33a21c6674cbdf7336",
      "contractAddress": null
    },
    {
      "status": "0x1",
      "cumulativeGasUsed": "0x22e470b",
      "logs": [
        {
          "address": "0x76e9e1affde82bb4544ce95ea58ffc2f9d45061f",
          "topics": [
            "0x40e9cecb9f5f1f1c5b9c97dec2917b7ee92e57ba5563708daca94dd84ad7112f",
            "0x6648efe854126eca977839455e095d4cb46e5035b64bc3aa0f8da2c5ebdce489",
            "0x0000000000000000000000000beba864b688e45d997a4f33a21c6674cbdf7336"
          ],
          "data": "0x0000000000000000000000000000000000000000000000000000000000000000fffffffffffffffffffffffffffffffffffffffffffffffffffc72815b39800000000000000000000000000000022edbfcb57c953bcebc498976c7d480307803000000000000000000000000000000000000000000000000000000000000011c00000000000000000000000000000000000000000000000000000000000a646d0000000000000000000000000000000000000000000000000000000000000bb8",
          "blockHash": "0xefe9ced95db51d6471480483e0616364d01f3a59703ca362aa49efc63a21e3cd",
          "blockNumber": "0x9877a3",
          "blockTimestamp": "0x695d6768",
          "transactionHash": "0xf7e745eb01dac7541ab9f9d6feb731cc90618d0bfd2058aa2d9d40cfa8553c33",
          "transactionIndex": "0x72",
          "logIndex": "0x42b",
          "removed": false
        },
        {
          "address": "0x5c13377f19b9aeb3cb00fcc8e58e9a2b43889540",
          "topics": [
            "0xcd9f4ccdc13709817c4447834a44bef5d62ffe25139e5c329d8debc5c177cc79",
            "0x6648efe854126eca977839455e095d4cb46e5035b64bc3aa0f8da2c5ebdce489"
          ],
          "data": "0x0000000000000000000000000000000000000000000000000000000000000000000000000000000000000000000000000000000000000000000002ba7def300000000000000000000000000000000000000000000000000000000000000000000000000000000000000000000000000000000000000000000000ae9f7bcc000000000000000000000000000000000000000000000000000007fe5cf2bea00000",
          "blockHash": "0xefe9ced95db51d6471480483e0616364d01f3a59703ca362aa49efc63a21e3cd",
          "blockNumber": "0x9877a3",
          "blockTimestamp": "0x695d6768",
          "transactionHash": "0xf7e745eb01dac7541ab9f9d6feb731cc90618d0bfd2058aa2d9d40cfa8553c33",
          "transactionIndex": "0x72",
          "logIndex": "0x42c",
          "removed": false
        },
        {
          "address": "0xfff9976782d46cc05630d1f6ebab18b2324d6b14",
          "topics": [
            "0xddf252ad1be2c89b69c2b068fc378daa952ba7f163c4a11628f55a4df523b3ef",
            "0x00000000000000000000000063f976191f9dd75bd5b0fd81320d37fbc0d74080",
            "0x00000000000000000000000076e9e1affde82bb4544ce95ea58ffc2f9d45061f"
          ],
          "data": "0x00000000000000000000000000000000000000000000000000038d7ea4c68000",
          "blockHash": "0xefe9ced95db51d6471480483e0616364d01f3a59703ca362aa49efc63a21e3cd",
          "blockNumber": "0x9877a3",
          "blockTimestamp": "0x695d6768",
          "transactionHash": "0xf7e745eb01dac7541ab9f9d6feb731cc90618d0bfd2058aa2d9d40cfa8553c33",
          "transactionIndex": "0x72",
          "logIndex": "0x42d",
          "removed": false
        }
      ],
      "logsBloom": "0x00001000000000000000000000000000002000000000000000000000000000000000000000000000000020000000000000000000040010000000000000001000000000010000000000000008000000000000000000000820000000000000010000000000000000000000004000000000000000000000000000000012000000000040000000000000000000000000010000000000000000000000000000000000000020400000040000000000000000000000000000000000000001000080000000000002000004000002000000000000000000000000000000008000800000000000000000000000004000020000050000000000000000000000000000000000",
      "type": "0x2",
      "transactionHash": "0xf7e745eb01dac7541ab9f9d6feb731cc90618d0bfd2058aa2d9d40cfa8553c33",
      "transactionIndex": "0x72",
      "blockHash": "0xefe9ced95db51d6471480483e0616364d01f3a59703ca362aa49efc63a21e3cd",
      "blockNumber": "0x9877a3",
      "gasUsed": "0x1a982",
      "effectiveGasPrice": "0x9ec04",
      "from": "0x63f976191f9dd75bd5b0fd81320d37fbc0d74080",
      "to": "0x0beba864b688e45d997a4f33a21c6674cbdf7336",
      "contractAddress": null
    },
    {
      "status": "0x1",
      "cumulativeGasUsed": "0x22ff071",
      "logs": [
        {
          "address": "0x76e9e1affde82bb4544ce95ea58ffc2f9d45061f",
          "topics": [
            "0x40e9cecb9f5f1f1c5b9c97dec2917b7ee92e57ba5563708daca94dd84ad7112f",
            "0x6648efe854126eca977839455e095d4cb46e5035b64bc3aa0f8da2c5ebdce489",
            "0x0000000000000000000000000beba864b688e45d997a4f33a21c6674cbdf7336"
          ],
          "data": "0x0000000000000000000000000000000000000000000000000000000000000000fffffffffffffffffffffffffffffffffffffffffffffffffffc72815b3980000000000000000000000000000002320d5a9798ceec7bce50bf8c6a1566f32c4b000000000000000000000000000000000000000000000000000000000000011c00000000000000000000000000000000000000000000000000000000000a64df0000000000000000000000000000000000000000000000000000000000000bb8",
          "blockHash": "0xefe9ced95db51d6471480483e0616364d01f3a59703ca362aa49efc63a21e3cd",
          "blockNumber": "0x9877a3",
          "blockTimestamp": "0x695d6768",
          "transactionHash": "0x03029c811211947b2621255957e98f523e656647ae8dd179a1ef8d83f8fe0acb",
          "transactionIndex": "0x73",
          "logIndex": "0x42e",
          "removed": false
        },
        {
          "address": "0x5c13377f19b9aeb3cb00fcc8e58e9a2b43889540",
          "topics": [
            "0xcd9f4ccdc13709817c4447834a44bef5d62ffe25139e5c329d8debc5c177cc79",
            "0x6648efe854126eca977839455e095d4cb46e5035b64bc3aa0f8da2c5ebdce489"
          ],
          "data": "0x0000000000000000000000000000000000000000000000000000000000000000000000000000000000000000000000000000000000000000000002ba7def300000000000000000000000000000000000000000000000000000000000000000000000000000000000000000000000000000000000000000000000b159f9bb3000000000000000000000000000000000000000000000000000081e5666899a8000",
          "blockHash": "0xefe9ced95db51d6471480483e0616364d01f3a59703ca362aa49efc63a21e3cd",
          "blockNumber": "0x9877a3",
          "blockTimestamp": "0x695d6768",
          "transactionHash": "0x03029c811211947b2621255957e98f523e656647ae8dd179a1ef8d83f8fe0acb",
          "transactionIndex": "0x73",
          "logIndex": "0x42f",
          "removed": false
        },
        {
          "address": "0xfff9976782d46cc05630d1f6ebab18b2324d6b14",
          "topics": [
            "0xddf252ad1be2c89b69c2b068fc378daa952ba7f163c4a11628f55a4df523b3ef",
            "0x00000000000000000000000063f976191f9dd75bd5b0fd81320d37fbc0d74080",
            "0x00000000000000000000000076e9e1affde82bb4544ce95ea58ffc2f9d45061f"
          ],
          "data": "0x00000000000000000000000000000000000000000000000000038d7ea4c68000",
          "blockHash": "0xefe9ced95db51d6471480483e0616364d01f3a59703ca362aa49efc63a21e3cd",
          "blockNumber": "0x9877a3",
          "blockTimestamp": "0x695d6768",
          "transactionHash": "0x03029c811211947b2621255957e98f523e656647ae8dd179a1ef8d83f8fe0acb",
          "transactionIndex": "0x73",
          "logIndex": "0x430",
          "removed": false
        }
      ],
      "logsBloom": "0x00001000000000000000000000000000002000000000000000000000000000000000000000000000000020000000000000000000040010000000000000001000000000010000000000000008000000000000000000000820000000000000010000000000000000000000004000000000000000000000000000000012000000000040000000000000000000000000010000000000000000000000000000000000000020400000040000000000000000000000000000000000000001000080000000000002000004000002000000000000000000000000000000008000800000000000000000000000004000020000050000000000000000000000000000000000",
      "type": "0x2",
      "transactionHash": "0x03029c811211947b2621255957e98f523e656647ae8dd179a1ef8d83f8fe0acb",
      "transactionIndex": "0x73",
      "blockHash": "0xefe9ced95db51d6471480483e0616364d01f3a59703ca362aa49efc63a21e3cd",
      "blockNumber": "0x9877a3",
      "gasUsed": "0x1a966",
      "effectiveGasPrice": "0x9ec04",
      "from": "0x63f976191f9dd75bd5b0fd81320d37fbc0d74080",
      "to": "0x0beba864b688e45d997a4f33a21c6674cbdf7336",
      "contractAddress": null
    },
    {
      "status": "0x1",
      "cumulativeGasUsed": "0x23199d7",
      "logs": [
        {
          "address": "0x76e9e1affde82bb4544ce95ea58ffc2f9d45061f",
          "topics": [
            "0x40e9cecb9f5f1f1c5b9c97dec2917b7ee92e57ba5563708daca94dd84ad7112f",
            "0x6648efe854126eca977839455e095d4cb46e5035b64bc3aa0f8da2c5ebdce489",
            "0x0000000000000000000000000beba864b688e45d997a4f33a21c6674cbdf7336"
          ],
          "data": "0x0000000000000000000000000000000000000000000000000000000000000000fffffffffffffffffffffffffffffffffffffffffffffffffffc72815b3980000000000000000000000000000002353eb879b5089d28e057f5a20c564db5e093000000000000000000000000000000000000000000000000000000000000011c00000000000000000000000000000000000000000000000000000000000a65500000000000000000000000000000000000000000000000000000000000000bb8",
          "blockHash": "0xefe9ced95db51d6471480483e0616364d01f3a59703ca362aa49efc63a21e3cd",
          "blockNumber": "0x9877a3",
          "blockTimestamp": "0x695d6768",
          "transactionHash": "0x0d39452ac8ae78184f4dbb4cf4eb82af4bf0472f84be8234f93d1bf7fd15d35d",
          "transactionIndex": "0x74",
          "logIndex": "0x431",
          "removed": false
        },
        {
          "address": "0x5c13377f19b9aeb3cb00fcc8e58e9a2b43889540",
          "topics": [
            "0xcd9f4ccdc13709817c4447834a44bef5d62ffe25139e5c329d8debc5c177cc79",
            "0x6648efe854126eca977839455e095d4cb46e5035b64bc3aa0f8da2c5ebdce489"
          ],
          "data": "0x0000000000000000000000000000000000000000000000000000000000000000000000000000000000000000000000000000000000000000000002ba7def300000000000000000000000000000000000000000000000000000000000000000000000000000000000000000000000000000000000000000000000b41477aa6000000000000000000000000000000000000000000000000000083e4fda54950000",
          "blockHash": "0xefe9ced95db51d6471480483e0616364d01f3a59703ca362aa49efc63a21e3cd",
          "blockNumber": "0x9877a3",
          "blockTimestamp": "0x695d6768",
          "transactionHash": "0x0d39452ac8ae78184f4dbb4cf4eb82af4bf0472f84be8234f93d1bf7fd15d35d",
          "transactionIndex": "0x74",
          "logIndex": "0x432",
          "removed": false
        },
        {
          "address": "0xfff9976782d46cc05630d1f6ebab18b2324d6b14",
          "topics": [
            "0xddf252ad1be2c89b69c2b068fc378daa952ba7f163c4a11628f55a4df523b3ef",
            "0x00000000000000000000000063f976191f9dd75bd5b0fd81320d37fbc0d74080",
            "0x00000000000000000000000076e9e1affde82bb4544ce95ea58ffc2f9d45061f"
          ],
          "data": "0x00000000000000000000000000000000000000000000000000038d7ea4c68000",
          "blockHash": "0xefe9ced95db51d6471480483e0616364d01f3a59703ca362aa49efc63a21e3cd",
          "blockNumber": "0x9877a3",
          "blockTimestamp": "0x695d6768",
          "transactionHash": "0x0d39452ac8ae78184f4dbb4cf4eb82af4bf0472f84be8234f93d1bf7fd15d35d",
          "transactionIndex": "0x74",
          "logIndex": "0x433",
          "removed": false
        }
      ],
      "logsBloom": "0x00001000000000000000000000000000002000000000000000000000000000000000000000000000000020000000000000000000040010000000000000001000000000010000000000000008000000000000000000000820000000000000010000000000000000000000004000000000000000000000000000000012000000000040000000000000000000000000010000000000000000000000000000000000000020400000040000000000000000000000000000000000000001000080000000000002000004000002000000000000000000000000000000008000800000000000000000000000004000020000050000000000000000000000000000000000",
      "type": "0x2",
      "transactionHash": "0x0d39452ac8ae78184f4dbb4cf4eb82af4bf0472f84be8234f93d1bf7fd15d35d",
      "transactionIndex": "0x74",
      "blockHash": "0xefe9ced95db51d6471480483e0616364d01f3a59703ca362aa49efc63a21e3cd",
      "blockNumber": "0x9877a3",
      "gasUsed": "0x1a966",
      "effectiveGasPrice": "0x9ec04",
      "from": "0x63f976191f9dd75bd5b0fd81320d37fbc0d74080",
      "to": "0x0beba864b688e45d997a4f33a21c6674cbdf7336",
      "contractAddress": null
    },
    {
      "status": "0x1",
      "cumulativeGasUsed": "0x2333fc5",
      "logs": [
        {
          "address": "0x76e9e1affde82bb4544ce95ea58ffc2f9d45061f",
          "topics": [
            "0x40e9cecb9f5f1f1c5b9c97dec2917b7ee92e57ba5563708daca94dd84ad7112f",
            "0x6648efe854126eca977839455e095d4cb46e5035b64bc3aa0f8da2c5ebdce489",
            "0x0000000000000000000000000beba864b688e45d997a4f33a21c6674cbdf7336"
          ],
          "data": "0x0000000000000000000000000000000000000000000000000000000000000000fffffffffffffffffffffffffffffffffffffffffffffffffffc72815b39800000000000000000000000000000023870165bd1424dd5f25f2bb7ae97347894db000000000000000000000000000000000000000000000000000000000000011c00000000000000000000000000000000000000000000000000000000000a65c10000000000000000000000000000000000000000000000000000000000000bb8",
          "blockHash": "0xefe9ced95db51d6471480483e0616364d01f3a59703ca362aa49efc63a21e3cd",
          "blockNumber": "0x9877a3",
          "blockTimestamp": "0x695d6768",
          "transactionHash": "0x24a21c831d8f7bb4996b5726a8f49ac73a2259df0943f57b6b55623e0685a8a9",
          "transactionIndex": "0x75",
          "logIndex": "0x434",
          "removed": false
        },
        {
          "address": "0x5c13377f19b9aeb3cb00fcc8e58e9a2b43889540",
          "topics": [
            "0xcd9f4ccdc13709817c4447834a44bef5d62ffe25139e5c329d8debc5c177cc79",
            "0x6648efe854126eca977839455e095d4cb46e5035b64bc3aa0f8da2c5ebdce489"
          ],
          "data": "0x0000000000000000000000000000000000000000000000000000000000000000000000000000000000000000000000000000000000000000000002ba7def300000000000000000000000000000000000000000000000000000000000000000000000000000000000000000000000000000000000000000000000b6cef5999000000000000000000000000000000000000000000000000000085e494e1f8f8000",
          "blockHash": "0xefe9ced95db51d6471480483e0616364d01f3a59703ca362aa49efc63a21e3cd",
          "blockNumber": "0x9877a3",
          "blockTimestamp": "0x695d6768",
          "transactionHash": "0x24a21c831d8f7bb4996b5726a8f49ac73a2259df0943f57b6b55623e0685a8a9",
          "transactionIndex": "0x75",
          "logIndex": "0x435",
          "removed": false
        },
        {
          "address": "0xfff9976782d46cc05630d1f6ebab18b2324d6b14",
          "topics": [
            "0xddf252ad1be2c89b69c2b068fc378daa952ba7f163c4a11628f55a4df523b3ef",
            "0x00000000000000000000000063f976191f9dd75bd5b0fd81320d37fbc0d74080",
            "0x00000000000000000000000076e9e1affde82bb4544ce95ea58ffc2f9d45061f"
          ],
          "data": "0x00000000000000000000000000000000000000000000000000038d7ea4c68000",
          "blockHash": "0xefe9ced95db51d6471480483e0616364d01f3a59703ca362aa49efc63a21e3cd",
          "blockNumber": "0x9877a3",
          "blockTimestamp": "0x695d6768",
          "transactionHash": "0x24a21c831d8f7bb4996b5726a8f49ac73a2259df0943f57b6b55623e0685a8a9",
          "transactionIndex": "0x75",
          "logIndex": "0x436",
          "removed": false
        }
      ],
      "logsBloom": "0x00001000000000000000000000000000002000000000000000000000000000000000000000000000000020000000000000000000040010000000000000001000000000010000000000000008000000000000000000000820000000000000010000000000000000000000004000000000000000000000000000000012000000000040000000000000000000000000010000000000000000000000000000000000000020400000040000000000000000000000000000000000000001000080000000000002000004000002000000000000000000000000000000008000800000000000000000000000004000020000050000000000000000000000000000000000",
      "type": "0x2",
      "transactionHash": "0x24a21c831d8f7bb4996b5726a8f49ac73a2259df0943f57b6b55623e0685a8a9",
      "transactionIndex": "0x75",
      "blockHash": "0xefe9ced95db51d6471480483e0616364d01f3a59703ca362aa49efc63a21e3cd",
      "blockNumber": "0x9877a3",
      "gasUsed": "0x1a5ee",
      "effectiveGasPrice": "0x9ec04",
      "from": "0x63f976191f9dd75bd5b0fd81320d37fbc0d74080",
      "to": "0x0beba864b688e45d997a4f33a21c6674cbdf7336",
      "contractAddress": null
    },
    {
      "status": "0x1",
      "cumulativeGasUsed": "0x234e94b",
      "logs": [
        {
          "address": "0x76e9e1affde82bb4544ce95ea58ffc2f9d45061f",
          "topics": [
            "0x40e9cecb9f5f1f1c5b9c97dec2917b7ee92e57ba5563708daca94dd84ad7112f",
            "0x6648efe854126eca977839455e095d4cb46e5035b64bc3aa0f8da2c5ebdce489",
            "0x0000000000000000000000000beba864b688e45d997a4f33a21c6674cbdf7336"
          ],
          "data": "0x0000000000000000000000000000000000000000000000000000000000000000fffffffffffffffffffffffffffffffffffffffffffffffffffc72815b39800000000000000000000000000000023ba1743ded7bfe83046661cd50d81b3b4923000000000000000000000000000000000000000000000000000000000000011c00000000000000000000000000000000000000000000000000000000000a66310000000000000000000000000000000000000000000000000000000000000bb8",
          "blockHash": "0xefe9ced95db51d6471480483e0616364d01f3a59703ca362aa49efc63a21e3cd",
          "blockNumber": "0x9877a3",
          "blockTimestamp": "0x695d6768",
          "transactionHash": "0xe34bbd38ce3f80e26938393eb4d342eb6cbe17bf9128cf53a73793db3c45e017",
          "transactionIndex": "0x76",
          "logIndex": "0x437",
          "removed": false
        },
        {
          "address": "0x5c13377f19b9aeb3cb00fcc8e58e9a2b43889540",
          "topics": [
            "0xcd9f4ccdc13709817c4447834a44bef5d62ffe25139e5c329d8debc5c177cc79",
            "0x6648efe854126eca977839455e095d4cb46e5035b64bc3aa0f8da2c5ebdce489"
          ],
          "data": "0x0000000000000000000000000000000000000000000000000000000000000000000000000000000000000000000000000000000000000000000002ba7def300000000000000000000000000000000000000000000000000000000000000000000000000000000000000000000000000000000000000000000000b9897388c000000000000000000000000000000000000000000000000000087e42c1ea8a0000",
          "blockHash": "0xefe9ced95db51d6471480483e0616364d01f3a59703ca362aa49efc63a21e3cd",
          "blockNumber": "0x9877a3",
          "blockTimestamp": "0x695d6768",
          "transactionHash": "0xe34bbd38ce3f80e26938393eb4d342eb6cbe17bf9128cf53a73793db3c45e017",
          "transactionIndex": "0x76",
          "logIndex": "0x438",
          "removed": false
        },
        {
          "address": "0xfff9976782d46cc05630d1f6ebab18b2324d6b14",
          "topics": [
            "0xddf252ad1be2c89b69c2b068fc378daa952ba7f163c4a11628f55a4df523b3ef",
            "0x00000000000000000000000063f976191f9dd75bd5b0fd81320d37fbc0d74080",
            "0x00000000000000000000000076e9e1affde82bb4544ce95ea58ffc2f9d45061f"
          ],
          "data": "0x00000000000000000000000000000000000000000000000000038d7ea4c68000",
          "blockHash": "0xefe9ced95db51d6471480483e0616364d01f3a59703ca362aa49efc63a21e3cd",
          "blockNumber": "0x9877a3",
          "blockTimestamp": "0x695d6768",
          "transactionHash": "0xe34bbd38ce3f80e26938393eb4d342eb6cbe17bf9128cf53a73793db3c45e017",
          "transactionIndex": "0x76",
          "logIndex": "0x439",
          "removed": false
        }
      ],
      "logsBloom": "0x00001000000000000000000000000000002000000000000000000000000000000000000000000000000020000000000000000000040010000000000000001000000000010000000000000008000000000000000000000820000000000000010000000000000000000000004000000000000000000000000000000012000000000040000000000000000000000000010000000000000000000000000000000000000020400000040000000000000000000000000000000000000001000080000000000002000004000002000000000000000000000000000000008000800000000000000000000000004000020000050000000000000000000000000000000000",
      "type": "0x2",
      "transactionHash": "0xe34bbd38ce3f80e26938393eb4d342eb6cbe17bf9128cf53a73793db3c45e017",
      "transactionIndex": "0x76",
      "blockHash": "0xefe9ced95db51d6471480483e0616364d01f3a59703ca362aa49efc63a21e3cd",
      "blockNumber": "0x9877a3",
      "gasUsed": "0x1a986",
      "effectiveGasPrice": "0x9ec04",
      "from": "0x63f976191f9dd75bd5b0fd81320d37fbc0d74080",
      "to": "0x0beba864b688e45d997a4f33a21c6674cbdf7336",
      "contractAddress": null
    },
    {
      "status": "0x1",
      "cumulativeGasUsed": "0x23692ad",
      "logs": [
        {
          "address": "0x76e9e1affde82bb4544ce95ea58ffc2f9d45061f",
          "topics": [
            "0x40e9cecb9f5f1f1c5b9c97dec2917b7ee92e57ba5563708daca94dd84ad7112f",
            "0x6648efe854126eca977839455e095d4cb46e5035b64bc3aa0f8da2c5ebdce489",
            "0x0000000000000000000000000beba864b688e45d997a4f33a21c6674cbdf7336"
          ],
          "data": "0x0000000000000000000000000000000000000000000000000000000000000000fffffffffffffffffffffffffffffffffffffffffffffffffffc72815b39800000000000000000000000000000023ed2d22009b5af30166d97e2f31901fdfd6b000000000000000000000000000000000000000000000000000000000000011c00000000000000000000000000000000000000000000000000000000000a66a10000000000000000000000000000000000000000000000000000000000000bb8",
          "blockHash": "0xefe9ced95db51d6471480483e0616364d01f3a59703ca362aa49efc63a21e3cd",
          "blockNumber": "0x9877a3",
          "blockTimestamp": "0x695d6768",
          "transactionHash": "0xb8f7c07c1c9e4a122e6101e7bc584bc5e319825db8451200832a1a0737e00f11",
          "transactionIndex": "0x77",
          "logIndex": "0x43a",
          "removed": false
        },
        {
          "address": "0x5c13377f19b9aeb3cb00fcc8e58e9a2b43889540",
          "topics": [
            "0xcd9f4ccdc13709817c4447834a44bef5d62ffe25139e5c329d8debc5c177cc79",
            "0x6648efe854126eca977839455e095d4cb46e5035b64bc3aa0f8da2c5ebdce489"
          ],
          "data": "0x0000000000000000000000000000000000000000000000000000000000000000000000000000000000000000000000000000000000000000000002ba7def300000000000000000000000000000000000000000000000000000000000000000000000000000000000000000000000000000000000000000000000bc43f177f000000000000000000000000000000000000000000000000000089e3c35b5848000",
          "blockHash": "0xefe9ced95db51d6471480483e0616364d01f3a59703ca362aa49efc63a21e3cd",
          "blockNumber": "0x9877a3",
          "blockTimestamp": "0x695d6768",
          "transactionHash": "0xb8f7c07c1c9e4a122e6101e7bc584bc5e319825db8451200832a1a0737e00f11",
          "transactionIndex": "0x77",
          "logIndex": "0x43b",
          "removed": false
        },
        {
          "address": "0xfff9976782d46cc05630d1f6ebab18b2324d6b14",
          "topics": [
            "0xddf252ad1be2c89b69c2b068fc378daa952ba7f163c4a11628f55a4df523b3ef",
            "0x00000000000000000000000063f976191f9dd75bd5b0fd81320d37fbc0d74080",
            "0x00000000000000000000000076e9e1affde82bb4544ce95ea58ffc2f9d45061f"
          ],
          "data": "0x00000000000000000000000000000000000000000000000000038d7ea4c68000",
          "blockHash": "0xefe9ced95db51d6471480483e0616364d01f3a59703ca362aa49efc63a21e3cd",
          "blockNumber": "0x9877a3",
          "blockTimestamp": "0x695d6768",
          "transactionHash": "0xb8f7c07c1c9e4a122e6101e7bc584bc5e319825db8451200832a1a0737e00f11",
          "transactionIndex": "0x77",
          "logIndex": "0x43c",
          "removed": false
        }
      ],
      "logsBloom": "0x00001000000000000000000000000000002000000000000000000000000000000000000000000000000020000000000000000000040010000000000000001000000000010000000000000008000000000000000000000820000000000000010000000000000000000000004000000000000000000000000000000012000000000040000000000000000000000000010000000000000000000000000000000000000020400000040000000000000000000000000000000000000001000080000000000002000004000002000000000000000000000000000000008000800000000000000000000000004000020000050000000000000000000000000000000000",
      "type": "0x2",
      "transactionHash": "0xb8f7c07c1c9e4a122e6101e7bc584bc5e319825db8451200832a1a0737e00f11",
      "transactionIndex": "0x77",
      "blockHash": "0xefe9ced95db51d6471480483e0616364d01f3a59703ca362aa49efc63a21e3cd",
      "blockNumber": "0x9877a3",
      "gasUsed": "0x1a962",
      "effectiveGasPrice": "0x9ec04",
      "from": "0x63f976191f9dd75bd5b0fd81320d37fbc0d74080",
      "to": "0x0beba864b688e45d997a4f33a21c6674cbdf7336",
      "contractAddress": null
    },
    {
      "status": "0x1",
      "cumulativeGasUsed": "0x2383c13",
      "logs": [
        {
          "address": "0x76e9e1affde82bb4544ce95ea58ffc2f9d45061f",
          "topics": [
            "0x40e9cecb9f5f1f1c5b9c97dec2917b7ee92e57ba5563708daca94dd84ad7112f",
            "0x6648efe854126eca977839455e095d4cb46e5035b64bc3aa0f8da2c5ebdce489",
            "0x0000000000000000000000000beba864b688e45d997a4f33a21c6674cbdf7336"
          ],
          "data": "0x0000000000000000000000000000000000000000000000000000000000000000fffffffffffffffffffffffffffffffffffffffffffffffffffc72815b39800000000000000000000000000000024204300225ef5fdd2874cdf89559e8c0b1b3000000000000000000000000000000000000000000000000000000000000011c00000000000000000000000000000000000000000000000000000000000a670f0000000000000000000000000000000000000000000000000000000000000bb8",
          "blockHash": "0xefe9ced95db51d6471480483e0616364d01f3a59703ca362aa49efc63a21e3cd",
          "blockNumber": "0x9877a3",
          "blockTimestamp": "0x695d6768",
          "transactionHash": "0x3a97001571a4370f1fb9e9623d0a837922a7da0fd54ff96926ce8be2efb2eae3",
          "transactionIndex": "0x78",
          "logIndex": "0x43d",
          "removed": false
        },
        {
          "address": "0x5c13377f19b9aeb3cb00fcc8e58e9a2b43889540",
          "topics": [
            "0xcd9f4ccdc13709817c4447834a44bef5d62ffe25139e5c329d8debc5c177cc79",
            "0x6648efe854126eca977839455e095d4cb46e5035b64bc3aa0f8da2c5ebdce489"
          ],
          "data": "0x0000000000000000000000000000000000000000000000000000000000000000000000000000000000000000000000000000000000000000000002ba7def300000000000000000000000000000000000000000000000000000000000000000000000000000000000000000000000000000000000000000000000befe6f67200000000000000000000000000000000000000000000000000008be35a9807f0000",
          "blockHash": "0xefe9ced95db51d6471480483e0616364d01f3a59703ca362aa49efc63a21e3cd",
          "blockNumber": "0x9877a3",
          "blockTimestamp": "0x695d6768",
          "transactionHash": "0x3a97001571a4370f1fb9e9623d0a837922a7da0fd54ff96926ce8be2efb2eae3",
          "transactionIndex": "0x78",
          "logIndex": "0x43e",
          "removed": false
        },
        {
          "address": "0xfff9976782d46cc05630d1f6ebab18b2324d6b14",
          "topics": [
            "0xddf252ad1be2c89b69c2b068fc378daa952ba7f163c4a11628f55a4df523b3ef",
            "0x00000000000000000000000063f976191f9dd75bd5b0fd81320d37fbc0d74080",
            "0x00000000000000000000000076e9e1affde82bb4544ce95ea58ffc2f9d45061f"
          ],
          "data": "0x00000000000000000000000000000000000000000000000000038d7ea4c68000",
          "blockHash": "0xefe9ced95db51d6471480483e0616364d01f3a59703ca362aa49efc63a21e3cd",
          "blockNumber": "0x9877a3",
          "blockTimestamp": "0x695d6768",
          "transactionHash": "0x3a97001571a4370f1fb9e9623d0a837922a7da0fd54ff96926ce8be2efb2eae3",
          "transactionIndex": "0x78",
          "logIndex": "0x43f",
          "removed": false
        }
      ],
      "logsBloom": "0x00001000000000000000000000000000002000000000000000000000000000000000000000000000000020000000000000000000040010000000000000001000000000010000000000000008000000000000000000000820000000000000010000000000000000000000004000000000000000000000000000000012000000000040000000000000000000000000010000000000000000000000000000000000000020400000040000000000000000000000000000000000000001000080000000000002000004000002000000000000000000000000000000008000800000000000000000000000004000020000050000000000000000000000000000000000",
      "type": "0x2",
      "transactionHash": "0x3a97001571a4370f1fb9e9623d0a837922a7da0fd54ff96926ce8be2efb2eae3",
      "transactionIndex": "0x78",
      "blockHash": "0xefe9ced95db51d6471480483e0616364d01f3a59703ca362aa49efc63a21e3cd",
      "blockNumber": "0x9877a3",
      "gasUsed": "0x1a966",
      "effectiveGasPrice": "0x9ec04",
      "from": "0x63f976191f9dd75bd5b0fd81320d37fbc0d74080",
      "to": "0x0beba864b688e45d997a4f33a21c6674cbdf7336",
      "contractAddress": null
    },
    {
      "status": "0x1",
      "cumulativeGasUsed": "0x239e615",
      "logs": [
        {
          "address": "0x76e9e1affde82bb4544ce95ea58ffc2f9d45061f",
          "topics": [
            "0x40e9cecb9f5f1f1c5b9c97dec2917b7ee92e57ba5563708daca94dd84ad7112f",
            "0x6648efe854126eca977839455e095d4cb46e5035b64bc3aa0f8da2c5ebdce489",
            "0x0000000000000000000000000beba864b688e45d997a4f33a21c6674cbdf7336"
          ],
          "data": "0x0000000000000000000000000000000000000000000000000000000000000000fffffffffffffffffffffffffffffffffffffffffffffffffffc72815b398000000000000000000000000000000245358de44229108a3a7c040e379acf8365fb000000000000000000000000000000000000000000000000000000000000011c00000000000000000000000000000000000000000000000000000000000a677e0000000000000000000000000000000000000000000000000000000000000bb8",
          "blockHash": "0xefe9ced95db51d6471480483e0616364d01f3a59703ca362aa49efc63a21e3cd",
          "blockNumber": "0x9877a3",
          "blockTimestamp": "0x695d6768",
          "transactionHash": "0xa7f32386486bb6c0daf8b0ed2b00cff81e060340b22c4a3950465e3e9465fce4",
          "transactionIndex": "0x79",
          "logIndex": "0x440",
          "removed": false
        },
        {
          "address": "0x5c13377f19b9aeb3cb00fcc8e58e9a2b43889540",
          "topics": [
            "0xcd9f4ccdc13709817c4447834a44bef5d62ffe25139e5c329d8debc5c177cc79",
            "0x6648efe854126eca977839455e095d4cb46e5035b64bc3aa0f8da2c5ebdce489"
          ],
          "data": "0x0000000000000000000000000000000000000000000000000000000000000000000000000000000000000000000000000000000000000000000002ba7def300000000000000000000000000000000000000000000000000000000000000000000000000000000000000000000000000000000000000000000000c1b8ed56500000000000000000000000000000000000000000000000000008de2f1d4b798000",
          "blockHash": "0xefe9ced95db51d6471480483e0616364d01f3a59703ca362aa49efc63a21e3cd",
          "blockNumber": "0x9877a3",
          "blockTimestamp": "0x695d6768",
          "transactionHash": "0xa7f32386486bb6c0daf8b0ed2b00cff81e060340b22c4a3950465e3e9465fce4",
          "transactionIndex": "0x79",
          "logIndex": "0x441",
          "removed": false
        },
        {
          "address": "0xfff9976782d46cc05630d1f6ebab18b2324d6b14",
          "topics": [
            "0xddf252ad1be2c89b69c2b068fc378daa952ba7f163c4a11628f55a4df523b3ef",
            "0x00000000000000000000000063f976191f9dd75bd5b0fd81320d37fbc0d74080",
            "0x00000000000000000000000076e9e1affde82bb4544ce95ea58ffc2f9d45061f"
          ],
          "data": "0x00000000000000000000000000000000000000000000000000038d7ea4c68000",
          "blockHash": "0xefe9ced95db51d6471480483e0616364d01f3a59703ca362aa49efc63a21e3cd",
          "blockNumber": "0x9877a3",
          "blockTimestamp": "0x695d6768",
          "transactionHash": "0xa7f32386486bb6c0daf8b0ed2b00cff81e060340b22c4a3950465e3e9465fce4",
          "transactionIndex": "0x79",
          "logIndex": "0x442",
          "removed": false
        }
      ],
      "logsBloom": "0x00001000000000000000000000000000002000000000000000000000000000000000000000000000000020000000000000000000040010000000000000001000000000010000000000000008000000000000000000000820000000000000010000000000000000000000004000000000000000000000000000000012000000000040000000000000000000000000010000000000000000000000000000000000000020400000040000000000000000000000000000000000000001000080000000000002000004000002000000000000000000000000000000008000800000000000000000000000004000020000050000000000000000000000000000000000",
      "type": "0x2",
      "transactionHash": "0xa7f32386486bb6c0daf8b0ed2b00cff81e060340b22c4a3950465e3e9465fce4",
      "transactionIndex": "0x79",
      "blockHash": "0xefe9ced95db51d6471480483e0616364d01f3a59703ca362aa49efc63a21e3cd",
      "blockNumber": "0x9877a3",
      "gasUsed": "0x1aa02",
      "effectiveGasPrice": "0x9ec04",
      "from": "0x63f976191f9dd75bd5b0fd81320d37fbc0d74080",
      "to": "0x0beba864b688e45d997a4f33a21c6674cbdf7336",
      "contractAddress": null
    },
    {
      "status": "0x1",
      "cumulativeGasUsed": "0x23b8ffb",
      "logs": [
        {
          "address": "0x76e9e1affde82bb4544ce95ea58ffc2f9d45061f",
          "topics": [
            "0x40e9cecb9f5f1f1c5b9c97dec2917b7ee92e57ba5563708daca94dd84ad7112f",
            "0x6648efe854126eca977839455e095d4cb46e5035b64bc3aa0f8da2c5ebdce489",
            "0x0000000000000000000000000beba864b688e45d997a4f33a21c6674cbdf7336"
          ],
          "data": "0x0000000000000000000000000000000000000000000000000000000000000000fffffffffffffffffffffffffffffffffffffffffffffffffffc72815b39800000000000000000000000000000024866ebc65e62c1374c833a23d9dbb6461a43000000000000000000000000000000000000000000000000000000000000011c00000000000000000000000000000000000000000000000000000000000a67eb0000000000000000000000000000000000000000000000000000000000000bb8",
          "blockHash": "0xefe9ced95db51d6471480483e0616364d01f3a59703ca362aa49efc63a21e3cd",
          "blockNumber": "0x9877a3",
          "blockTimestamp": "0x695d6768",
          "transactionHash": "0xa1fb3c0572bb33b52d778707ff5e1d5278f04fdce1d64c94abc71bd485c346e9",
          "transactionIndex": "0x7a",
          "logIndex": "0x443",
          "removed": false
        },
        {
          "address": "0x5c13377f19b9aeb3cb00fcc8e58e9a2b43889540",
          "topics": [
            "0xcd9f4ccdc13709817c4447834a44bef5d62ffe25139e5c329d8debc5c177cc79",
            "0x6648efe854126eca977839455e095d4cb46e5035b64bc3aa0f8da2c5ebdce489"
          ],
          "data": "0x0000000000000000000000000000000000000000000000000000000000000000000000000000000000000000000000000000000000000000000002ba7def300000000000000000000000000000000000000000000000000000000000000000000000000000000000000000000000000000000000000000000000c4736b45800000000000000000000000000000000000000000000000000008fe289116740000",
          "blockHash": "0xefe9ced95db51d6471480483e0616364d01f3a59703ca362aa49efc63a21e3cd",
          "blockNumber": "0x9877a3",
          "blockTimestamp": "0x695d6768",
          "transactionHash": "0xa1fb3c0572bb33b52d778707ff5e1d5278f04fdce1d64c94abc71bd485c346e9",
          "transactionIndex": "0x7a",
          "logIndex": "0x444",
          "removed": false
        },
        {
          "address": "0xfff9976782d46cc05630d1f6ebab18b2324d6b14",
          "topics": [
            "0xddf252ad1be2c89b69c2b068fc378daa952ba7f163c4a11628f55a4df523b3ef",
            "0x00000000000000000000000063f976191f9dd75bd5b0fd81320d37fbc0d74080",
            "0x00000000000000000000000076e9e1affde82bb4544ce95ea58ffc2f9d45061f"
          ],
          "data": "0x00000000000000000000000000000000000000000000000000038d7ea4c68000",
          "blockHash": "0xefe9ced95db51d6471480483e0616364d01f3a59703ca362aa49efc63a21e3cd",
          "blockNumber": "0x9877a3",
          "blockTimestamp": "0x695d6768",
          "transactionHash": "0xa1fb3c0572bb33b52d778707ff5e1d5278f04fdce1d64c94abc71bd485c346e9",
          "transactionIndex": "0x7a",
          "logIndex": "0x445",
          "removed": false
        }
      ],
      "logsBloom": "0x00001000000000000000000000000000002000000000000000000000000000000000000000000000000020000000000000000000040010000000000000001000000000010000000000000008000000000000000000000820000000000000010000000000000000000000004000000000000000000000000000000012000000000040000000000000000000000000010000000000000000000000000000000000000020400000040000000000000000000000000000000000000001000080000000000002000004000002000000000000000000000000000000008000800000000000000000000000004000020000050000000000000000000000000000000000",
      "type": "0x2",
      "transactionHash": "0xa1fb3c0572bb33b52d778707ff5e1d5278f04fdce1d64c94abc71bd485c346e9",
      "transactionIndex": "0x7a",
      "blockHash": "0xefe9ced95db51d6471480483e0616364d01f3a59703ca362aa49efc63a21e3cd",
      "blockNumber": "0x9877a3",
      "gasUsed": "0x1a9e6",
      "effectiveGasPrice": "0x9ec04",
      "from": "0x63f976191f9dd75bd5b0fd81320d37fbc0d74080",
      "to": "0x0beba864b688e45d997a4f33a21c6674cbdf7336",
      "contractAddress": null
    },
    {
      "status": "0x1",
      "cumulativeGasUsed": "0x23d3961",
      "logs": [
        {
          "address": "0x76e9e1affde82bb4544ce95ea58ffc2f9d45061f",
          "topics": [
            "0x40e9cecb9f5f1f1c5b9c97dec2917b7ee92e57ba5563708daca94dd84ad7112f",
            "0x6648efe854126eca977839455e095d4cb46e5035b64bc3aa0f8da2c5ebdce489",
            "0x0000000000000000000000000beba864b688e45d997a4f33a21c6674cbdf7336"
          ],
          "data": "0x0000000000000000000000000000000000000000000000000000000000000000fffffffffffffffffffffffffffffffffffffffffffffffffffc72815b39800000000000000000000000000000024b9849a87a9c71e45e8a70397c1c9d08ce8b000000000000000000000000000000000000000000000000000000000000011c00000000000000000000000000000000000000000000000000000000000a68580000000000000000000000000000000000000000000000000000000000000bb8",
          "blockHash": "0xefe9ced95db51d6471480483e0616364d01f3a59703ca362aa49efc63a21e3cd",
          "blockNumber": "0x9877a3",
          "blockTimestamp": "0x695d6768",
          "transactionHash": "0xf024d848f5fccc29854464a5bef4a6856a85077b85dd249c579d03bc3015c7a4",
          "transactionIndex": "0x7b",
          "logIndex": "0x446",
          "removed": false
        },
        {
          "address": "0x5c13377f19b9aeb3cb00fcc8e58e9a2b43889540",
          "topics": [
            "0xcd9f4ccdc13709817c4447834a44bef5d62ffe25139e5c329d8debc5c177cc79",
            "0x6648efe854126eca977839455e095d4cb46e5035b64bc3aa0f8da2c5ebdce489"
          ],
          "data": "0x0000000000000000000000000000000000000000000000000000000000000000000000000000000000000000000000000000000000000000000002ba7def300000000000000000000000000000000000000000000000000000000000000000000000000000000000000000000000000000000000000000000000c72de934b000000000000000000000000000000000000000000000000000091e2204e16e8000",
          "blockHash": "0xefe9ced95db51d6471480483e0616364d01f3a59703ca362aa49efc63a21e3cd",
          "blockNumber": "0x9877a3",
          "blockTimestamp": "0x695d6768",
          "transactionHash": "0xf024d848f5fccc29854464a5bef4a6856a85077b85dd249c579d03bc3015c7a4",
          "transactionIndex": "0x7b",
          "logIndex": "0x447",
          "removed": false
        },
        {
          "address": "0xfff9976782d46cc05630d1f6ebab18b2324d6b14",
          "topics": [
            "0xddf252ad1be2c89b69c2b068fc378daa952ba7f163c4a11628f55a4df523b3ef",
            "0x00000000000000000000000063f976191f9dd75bd5b0fd81320d37fbc0d74080",
            "0x00000000000000000000000076e9e1affde82bb4544ce95ea58ffc2f9d45061f"
          ],
          "data": "0x00000000000000000000000000000000000000000000000000038d7ea4c68000",
          "blockHash": "0xefe9ced95db51d6471480483e0616364d01f3a59703ca362aa49efc63a21e3cd",
          "blockNumber": "0x9877a3",
          "blockTimestamp": "0x695d6768",
          "transactionHash": "0xf024d848f5fccc29854464a5bef4a6856a85077b85dd249c579d03bc3015c7a4",
          "transactionIndex": "0x7b",
          "logIndex": "0x448",
          "removed": false
        }
      ],
      "logsBloom": "0x00001000000000000000000000000000002000000000000000000000000000000000000000000000000020000000000000000000040010000000000000001000000000010000000000000008000000000000000000000820000000000000010000000000000000000000004000000000000000000000000000000012000000000040000000000000000000000000010000000000000000000000000000000000000020400000040000000000000000000000000000000000000001000080000000000002000004000002000000000000000000000000000000008000800000000000000000000000004000020000050000000000000000000000000000000000",
      "type": "0x2",
      "transactionHash": "0xf024d848f5fccc29854464a5bef4a6856a85077b85dd249c579d03bc3015c7a4",
      "transactionIndex": "0x7b",
      "blockHash": "0xefe9ced95db51d6471480483e0616364d01f3a59703ca362aa49efc63a21e3cd",
      "blockNumber": "0x9877a3",
      "gasUsed": "0x1a966",
      "effectiveGasPrice": "0x9ec04",
      "from": "0x63f976191f9dd75bd5b0fd81320d37fbc0d74080",
      "to": "0x0beba864b688e45d997a4f33a21c6674cbdf7336",
      "contractAddress": null
    },
    {
      "status": "0x1",
      "cumulativeGasUsed": "0x23ee2c7",
      "logs": [
        {
          "address": "0x76e9e1affde82bb4544ce95ea58ffc2f9d45061f",
          "topics": [
            "0x40e9cecb9f5f1f1c5b9c97dec2917b7ee92e57ba5563708daca94dd84ad7112f",
            "0x6648efe854126eca977839455e095d4cb46e5035b64bc3aa0f8da2c5ebdce489",
            "0x0000000000000000000000000beba864b688e45d997a4f33a21c6674cbdf7336"
          ],
          "data": "0x0000000000000000000000000000000000000000000000000000000000000000fffffffffffffffffffffffffffffffffffffffffffffffffffc72815b39800000000000000000000000000000024ec9a78a96d622917091a64f1e5d83cb82d3000000000000000000000000000000000000000000000000000000000000011c00000000000000000000000000000000000000000000000000000000000a68c40000000000000000000000000000000000000000000000000000000000000bb8",
          "blockHash": "0xefe9ced95db51d6471480483e0616364d01f3a59703ca362aa49efc63a21e3cd",
          "blockNumber": "0x9877a3",
          "blockTimestamp": "0x695d6768",
          "transactionHash": "0xbb47a9b9f0a38da5ba999239c9ab1e416bf0893919c324adc866c957579e868c",
          "transactionIndex": "0x7c",
          "logIndex": "0x449",
          "removed": false
        },
        {
          "address": "0x5c13377f19b9aeb3cb00fcc8e58e9a2b43889540",
          "topics": [
            "0xcd9f4ccdc13709817c4447834a44bef5d62ffe25139e5c329d8debc5c177cc79",
            "0x6648efe854126eca977839455e095d4cb46e5035b64bc3aa0f8da2c5ebdce489"
          ],
          "data": "0x0000000000000000000000000000000000000000000000000000000000000000000000000000000000000000000000000000000000000000000002ba7def300000000000000000000000000000000000000000000000000000000000000000000000000000000000000000000000000000000000000000000000c9e86723e000000000000000000000000000000000000000000000000000093e1b78ac690000",
          "blockHash": "0xefe9ced95db51d6471480483e0616364d01f3a59703ca362aa49efc63a21e3cd",
          "blockNumber": "0x9877a3",
          "blockTimestamp": "0x695d6768",
          "transactionHash": "0xbb47a9b9f0a38da5ba999239c9ab1e416bf0893919c324adc866c957579e868c",
          "transactionIndex": "0x7c",
          "logIndex": "0x44a",
          "removed": false
        },
        {
          "address": "0xfff9976782d46cc05630d1f6ebab18b2324d6b14",
          "topics": [
            "0xddf252ad1be2c89b69c2b068fc378daa952ba7f163c4a11628f55a4df523b3ef",
            "0x00000000000000000000000063f976191f9dd75bd5b0fd81320d37fbc0d74080",
            "0x00000000000000000000000076e9e1affde82bb4544ce95ea58ffc2f9d45061f"
          ],
          "data": "0x00000000000000000000000000000000000000000000000000038d7ea4c68000",
          "blockHash": "0xefe9ced95db51d6471480483e0616364d01f3a59703ca362aa49efc63a21e3cd",
          "blockNumber": "0x9877a3",
          "blockTimestamp": "0x695d6768",
          "transactionHash": "0xbb47a9b9f0a38da5ba999239c9ab1e416bf0893919c324adc866c957579e868c",
          "transactionIndex": "0x7c",
          "logIndex": "0x44b",
          "removed": false
        }
      ],
      "logsBloom": "0x00001000000000000000000000000000002000000000000000000000000000000000000000000000000020000000000000000000040010000000000000001000000000010000000000000008000000000000000000000820000000000000010000000000000000000000004000000000000000000000000000000012000000000040000000000000000000000000010000000000000000000000000000000000000020400000040000000000000000000000000000000000000001000080000000000002000004000002000000000000000000000000000000008000800000000000000000000000004000020000050000000000000000000000000000000000",
      "type": "0x2",
      "transactionHash": "0xbb47a9b9f0a38da5ba999239c9ab1e416bf0893919c324adc866c957579e868c",
      "transactionIndex": "0x7c",
      "blockHash": "0xefe9ced95db51d6471480483e0616364d01f3a59703ca362aa49efc63a21e3cd",
      "blockNumber": "0x9877a3",
      "gasUsed": "0x1a966",
      "effectiveGasPrice": "0x9ec04",
      "from": "0x63f976191f9dd75bd5b0fd81320d37fbc0d74080",
      "to": "0x0beba864b688e45d997a4f33a21c6674cbdf7336",
      "contractAddress": null
    },
    {
      "status": "0x1",
      "cumulativeGasUsed": "0x2408c2d",
      "logs": [
        {
          "address": "0x76e9e1affde82bb4544ce95ea58ffc2f9d45061f",
          "topics": [
            "0x40e9cecb9f5f1f1c5b9c97dec2917b7ee92e57ba5563708daca94dd84ad7112f",
            "0x6648efe854126eca977839455e095d4cb46e5035b64bc3aa0f8da2c5ebdce489",
            "0x0000000000000000000000000beba864b688e45d997a4f33a21c6674cbdf7336"
          ],
          "data": "0x0000000000000000000000000000000000000000000000000000000000000000fffffffffffffffffffffffffffffffffffffffffffffffffffc72815b398000000000000000000000000000000251fb056cb30fd33e8298dc64c09e6a8e371b000000000000000000000000000000000000000000000000000000000000011c00000000000000000000000000000000000000000000000000000000000a69300000000000000000000000000000000000000000000000000000000000000bb8",
          "blockHash": "0xefe9ced95db51d6471480483e0616364d01f3a59703ca362aa49efc63a21e3cd",
          "blockNumber": "0x9877a3",
          "blockTimestamp": "0x695d6768",
          "transactionHash": "0xcb9663bc80b92606f1222cea821e2c3df631eaa1c77c801d00559de043f11c01",
          "transactionIndex": "0x7d",
          "logIndex": "0x44c",
          "removed": false
        },
        {
          "address": "0x5c13377f19b9aeb3cb00fcc8e58e9a2b43889540",
          "topics": [
            "0xcd9f4ccdc13709817c4447834a44bef5d62ffe25139e5c329d8debc5c177cc79",
            "0x6648efe854126eca977839455e095d4cb46e5035b64bc3aa0f8da2c5ebdce489"
          ],
          "data": "0x0000000000000000000000000000000000000000000000000000000000000000000000000000000000000000000000000000000000000000000002ba7def300000000000000000000000000000000000000000000000000000000000000000000000000000000000000000000000000000000000000000000000cca2e5131000000000000000000000000000000000000000000000000000095e14ec77638000",
          "blockHash": "0xefe9ced95db51d6471480483e0616364d01f3a59703ca362aa49efc63a21e3cd",
          "blockNumber": "0x9877a3",
          "blockTimestamp": "0x695d6768",
          "transactionHash": "0xcb9663bc80b92606f1222cea821e2c3df631eaa1c77c801d00559de043f11c01",
          "transactionIndex": "0x7d",
          "logIndex": "0x44d",
          "removed": false
        },
        {
          "address": "0xfff9976782d46cc05630d1f6ebab18b2324d6b14",
          "topics": [
            "0xddf252ad1be2c89b69c2b068fc378daa952ba7f163c4a11628f55a4df523b3ef",
            "0x00000000000000000000000063f976191f9dd75bd5b0fd81320d37fbc0d74080",
            "0x00000000000000000000000076e9e1affde82bb4544ce95ea58ffc2f9d45061f"
          ],
          "data": "0x00000000000000000000000000000000000000000000000000038d7ea4c68000",
          "blockHash": "0xefe9ced95db51d6471480483e0616364d01f3a59703ca362aa49efc63a21e3cd",
          "blockNumber": "0x9877a3",
          "blockTimestamp": "0x695d6768",
          "transactionHash": "0xcb9663bc80b92606f1222cea821e2c3df631eaa1c77c801d00559de043f11c01",
          "transactionIndex": "0x7d",
          "logIndex": "0x44e",
          "removed": false
        }
      ],
      "logsBloom": "0x00001000000000000000000000000000002000000000000000000000000000000000000000000000000020000000000000000000040010000000000000001000000000010000000000000008000000000000000000000820000000000000010000000000000000000000004000000000000000000000000000000012000000000040000000000000000000000000010000000000000000000000000000000000000020400000040000000000000000000000000000000000000001000080000000000002000004000002000000000000000000000000000000008000800000000000000000000000004000020000050000000000000000000000000000000000",
      "type": "0x2",
      "transactionHash": "0xcb9663bc80b92606f1222cea821e2c3df631eaa1c77c801d00559de043f11c01",
      "transactionIndex": "0x7d",
      "blockHash": "0xefe9ced95db51d6471480483e0616364d01f3a59703ca362aa49efc63a21e3cd",
      "blockNumber": "0x9877a3",
      "gasUsed": "0x1a966",
      "effectiveGasPrice": "0x9ec04",
      "from": "0x63f976191f9dd75bd5b0fd81320d37fbc0d74080",
      "to": "0x0beba864b688e45d997a4f33a21c6674cbdf7336",
      "contractAddress": null
    }
  ],
  "libraries": [],
  "pending": [],
  "returns": {},
  "timestamp": 1767729002172,
  "chain": 11155111,
  "commit": "6ee287b"
}