{
  "transactions": [
    {
      "hash": "0x54423b5c6d61736c891690fcffb19be6eb95c3cb33946f071273b102d5706479",
      "transactionType": "CREATE",
      "contractName": "SwapHelper",
      "contractAddress": "0xf9cab5fa57d2e5dab990aba00ef7947e53817b08",
      "function": null,
      "arguments": [
        "0x76E9E1AFFDe82bb4544cE95EA58fFc2f9D45061f"
      ],
      "transaction": {
        "from": "0x63f976191f9dd75bd5b0fd81320d37fbc0d74080",
        "gas": "0x118d81",
        "value": "0x0",
        "input": "0x60a034607457601f610f9f38819003918201601f19168301916001600160401b03831184841017607857808492602094604052833981010312607457516001600160a01b0381168103607457608052604051610f12908161008d82396080518181816103290152818161044d01526104e20152f35b5f80fd5b634e487b7160e01b5f52604160045260245ffdfe6080806040526004361015610012575f80fd5b5f3560e01c90816391dd73461461047157508063dc4c90d3146104035763f3cd914c1461003d575f80fd5b3461037a577ffffffffffffffffffffffffffffffffffffffffffffffffffffffffffffffffc3601610120811261037a5760a01361037a5760405161008181610a3e565b60043573ffffffffffffffffffffffffffffffffffffffff8116810361037a57815260243573ffffffffffffffffffffffffffffffffffffffff8116810361037a57602082015260443562ffffff8116810361037a5760408201526064358060020b810361037a57606082015260843573ffffffffffffffffffffffffffffffffffffffff8116810361037a57608082015260607fffffffffffffffffffffffffffffffffffffffffffffffffffffffffffffff5c36011261037a576040519061014a82610a5a565b60a435801515810361037a57825260c435602083015260e43573ffffffffffffffffffffffffffffffffffffffff8116810361037a5760408301526101043567ffffffffffffffff811161037a576102d45f926102a861030f956102936101ca73ffffffffffffffffffffffffffffffffffffffff963690600401610b12565b9161025b604051956101db876109f5565b3387526020870190815260408701928352606087019485526040519889976020808a01525116604088015251606087019073ffffffffffffffffffffffffffffffffffffffff6080809282815116855282602082015116602086015262ffffff6040820151166040860152606081015160020b6060860152015116910152565b518051151561010086015260208101516101208601526040015173ffffffffffffffffffffffffffffffffffffffff16610140850152565b516101406101608401526101808301906109b2565b037fffffffffffffffffffffffffffffffffffffffffffffffffffffffffffffffe08101835282610a76565b604051809381927f48c894910000000000000000000000000000000000000000000000000000000083526020600484015260248301906109b2565b03818373ffffffffffffffffffffffffffffffffffffffff7f0000000000000000000000000000000000000000000000000000000000000000165af19081156103f8575f9161037e575b506020815191818082019384920101031261037a5760209051604051908152f35b5f80fd5b90503d805f833e61038f8183610a76565b81019060208183031261037a5780519067ffffffffffffffff821161037a570181601f8201121561037a578051906103c682610ad8565b926103d46040519485610a76565b8284526020838301011161037a57815f9260208093018386015e830101525f610359565b6040513d5f823e3d90fd5b3461037a575f7ffffffffffffffffffffffffffffffffffffffffffffffffffffffffffffffffc36011261037a57602060405173ffffffffffffffffffffffffffffffffffffffff7f0000000000000000000000000000000000000000000000000000000000000000168152f35b3461037a5760207ffffffffffffffffffffffffffffffffffffffffffffffffffffffffffffffffc36011261037a576004359067ffffffffffffffff821161037a573660238301121561037a57816004013567ffffffffffffffff811161037a578201602481019236841161037a577f00000000000000000000000000000000000000000000000000000000000000009073ffffffffffffffffffffffffffffffffffffffff821693843303610956575060208184031261037a5760248101359067ffffffffffffffff821161037a5701936101408584031261037a576040519361055b856109f5565b61056760248701610ab7565b855260a07fffffffffffffffffffffffffffffffffffffffffffffffffffffffffffffffe0878603011261037a57604051936105a285610a3e565b6105ae60448801610ab7565b85526105bc60648801610ab7565b6020860152608487013562ffffff8116810361037a57604086015260a48701358060020b810361037a57606086015260c487013573ffffffffffffffffffffffffffffffffffffffff8116810361037a577fffffffffffffffffffffffffffffffffffffffffffffffffffffffffffffff1c8860609360249360808a015260208a019889520301011261037a576040519061065682610a5a565b60e4870135801515810361037a578252610104870135602083015261012487013573ffffffffffffffffffffffffffffffffffffffff8116810361037a576040830152604086019182526101448701359267ffffffffffffffff841161037a575f6106ce61075e9260246020976107929c0101610b12565b938460608a01526107a688519151956040519b8c97889687957ff3cd914c000000000000000000000000000000000000000000000000000000008752600487019073ffffffffffffffffffffffffffffffffffffffff6080809282815116855282602082015116602086015262ffffff6040820151166040860152606081015160020b6060860152015116910152565b8051151560a4860152602081015160c48601526040015173ffffffffffffffffffffffffffffffffffffffff1660e4850152565b6101206101048401526101248301906109b2565b03925af19283156103f8575f93610920575b61081994508360801d600f0b9184600f0b925f81126108dd575b5f8412610891575b5f811361084f575b505f831361081d575b858560405190602082015260208152610805604082610a76565b6040519182916020835260208301906109b2565b0390f35b73ffffffffffffffffffffffffffffffffffffffff806020610846965101511692511691610e71565b828080806107eb565b61088b9073ffffffffffffffffffffffffffffffffffffffff865151168373ffffffffffffffffffffffffffffffffffffffff86511691610e71565b866107e2565b6108d873ffffffffffffffffffffffffffffffffffffffff6020875101511673ffffffffffffffffffffffffffffffffffffffff855116846108d288610b67565b92610bd8565b6107da565b61091b73ffffffffffffffffffffffffffffffffffffffff8651511673ffffffffffffffffffffffffffffffffffffffff855116846108d285610b67565b6107d2565b92506020843d60201161094e575b8161093b60209383610a76565b8101031261037a576108199351926107b8565b3d915061092e565b807f08c379a0000000000000000000000000000000000000000000000000000000006064925260206004820152601960248201527f4f6e6c7920506f6f6c4d616e616765722063616e2063616c6c000000000000006044820152fd5b907fffffffffffffffffffffffffffffffffffffffffffffffffffffffffffffffe0601f602080948051918291828752018686015e5f8582860101520116010190565b6080810190811067ffffffffffffffff821117610a1157604052565b7f4e487b71000000000000000000000000000000000000000000000000000000005f52604160045260245ffd5b60a0810190811067ffffffffffffffff821117610a1157604052565b6060810190811067ffffffffffffffff821117610a1157604052565b90601f7fffffffffffffffffffffffffffffffffffffffffffffffffffffffffffffffe0910116810190811067ffffffffffffffff821117610a1157604052565b359073ffffffffffffffffffffffffffffffffffffffff8216820361037a57565b67ffffffffffffffff8111610a1157601f017fffffffffffffffffffffffffffffffffffffffffffffffffffffffffffffffe01660200190565b81601f8201121561037a57803590610b2982610ad8565b92610b376040519485610a76565b8284526020838301011161037a57815f926020809301838601378301015290565b9081602091031261037a575190565b7f80000000000000000000000000000000000000000000000000000000000000008114610b93575f0390565b7f4e487b71000000000000000000000000000000000000000000000000000000005f52601160045260245ffd5b9081602091031261037a5751801515810361037a5790565b90919073ffffffffffffffffffffffffffffffffffffffff1680610c7857505073ffffffffffffffffffffffffffffffffffffffff600460209260405194859384927f11da60b4000000000000000000000000000000000000000000000000000000008452165af180156103f857610c4d5750565b610c6e9060203d602011610c71575b610c668183610a76565b810190610b58565b50565b503d610c5c565b90929173ffffffffffffffffffffffffffffffffffffffff1691823b1561037a57604051937fa58411940000000000000000000000000000000000000000000000000000000085528260048601525a945f816024818389819bf180156103f857610e48575b5073ffffffffffffffffffffffffffffffffffffffff1684308214610dd4576020929160649160405195869485937f23b872dd000000000000000000000000000000000000000000000000000000008552600485015288602485015260448401525af18015610dc957916020918493610d9c575b505b6004604051809581937f11da60b40000000000000000000000000000000000000000000000000000000083525af1908115610d905750610c4d5750565b604051903d90823e3d90fd5b610dbb90833d8511610dc2575b610db38183610a76565b810190610bc0565b505f610d51565b503d610da9565b6040513d85823e3d90fd5b929050604460209260405194859384927fa9059cbb00000000000000000000000000000000000000000000000000000000845288600485015260248401525af18015610dc957916020918493610e2b575b50610d53565b610e4190833d8511610dc257610db38183610a76565b505f610e25565b610e559195505f90610a76565b5f9373ffffffffffffffffffffffffffffffffffffffff610cdd565b91929073ffffffffffffffffffffffffffffffffffffffff16803b1561037a575f928360649273ffffffffffffffffffffffffffffffffffffffff948560405198899788967f0b0d9c0900000000000000000000000000000000000000000000000000000000885216600487015216602485015260448401525af180156103f857610ef95750565b5f610f0391610a76565b56fea164736f6c634300081a000a00000000000000000000000076e9e1affde82bb4544ce95ea58ffc2f9d45061f",
        "nonce": "0x119d",
        "chainId": "0xaa36a7"
      },
      "additionalContracts": [],
      "isFixedGasLimit": false
    },
    {
      "hash": "0xd6e54cc9dea02d56120500c9a7836aecd6fc8c23ca5994968bd2244a111d8422",
      "transactionType": "CALL",
      "contractName": null,
      "contractAddress": "0xfff9976782d46cc05630d1f6ebab18b2324d6b14",
      "function": "approve(address,uint256)",
      "arguments": [
        "0xF9Cab5FA57D2E5daB990Aba00ef7947E53817B08",
        "115792089237316195423570985008687907853269984665640564039457584007913129639935"
      ],
      "transaction": {
        "from": "0x63f976191f9dd75bd5b0fd81320d37fbc0d74080",
        "to": "0xfff9976782d46cc05630d1f6ebab18b2324d6b14",
        "gas": "0xfa27",
        "value": "0x0",
        "input": "0x095ea7b3000000000000000000000000f9cab5fa57d2e5dab990aba00ef7947e53817b08ffffffffffffffffffffffffffffffffffffffffffffffffffffffffffffffff",
        "nonce": "0x119e",
        "chainId": "0xaa36a7"
      },
      "additionalContracts": [],
      "isFixedGasLimit": false
    },
    {
      "hash": "0x8d0abcb005a1d17aec0d4ec2cd48b88b66c90dbe548b9a187134e5aec9e0e308",
      "transactionType": "CALL",
      "contractName": null,
      "contractAddress": "0x1c7d4b196cb0c7b01d743fbc6116a902379c7238",
      "function": "approve(address,uint256)",
      "arguments": [
        "0xF9Cab5FA57D2E5daB990Aba00ef7947E53817B08",
        "115792089237316195423570985008687907853269984665640564039457584007913129639935"
      ],
      "transaction": {
        "from": "0x63f976191f9dd75bd5b0fd81320d37fbc0d74080",
        "to": "0x1c7d4b196cb0c7b01d743fbc6116a902379c7238",
        "gas": "0x13eb1",
        "value": "0x0",
        "input": "0x095ea7b3000000000000000000000000f9cab5fa57d2e5dab990aba00ef7947e53817b08ffffffffffffffffffffffffffffffffffffffffffffffffffffffffffffffff",
        "nonce": "0x119f",
        "chainId": "0xaa36a7"
      },
      "additionalContracts": [],
      "isFixedGasLimit": false
    },
    {
      "hash": "0x07539da2c45fa32a7131f5e8dea53a9cc8b8193980d76cbf2345537e958df869",
      "transactionType": "CALL",
      "contractName": "SwapHelper",
      "contractAddress": "0xf9cab5fa57d2e5dab990aba00ef7947e53817b08",
      "function": "swap((address,address,uint24,int24,address),(bool,int256,uint160),bytes)",
      "arguments": [
        "(0x1c7D4B196Cb0C7B01d743Fbc6116a902379C7238, 0xfFf9976782d46CC05630D1f6eBAb18b2324d6B14, 3000, 60, 0xfe8729ae15e8cD6196e691e6c7c7C913E8c4D540)",
        "(false, -5000000000000000, 1461446703485210103287273052203988822378723970341)",
        "0x"
      ],
      "transaction": {
        "from": "0x63f976191f9dd75bd5b0fd81320d37fbc0d74080",
        "to": "0xf9cab5fa57d2e5dab990aba00ef7947e53817b08",
        "gas": "0x24cd4",
        "value": "0x0",
        "input": "0xf3cd914c0000000000000000000000001c7d4b196cb0c7b01d743fbc6116a902379c7238000000000000000000000000fff9976782d46cc05630d1f6ebab18b2324d6b140000000000000000000000000000000000000000000000000000000000000bb8000000000000000000000000000000000000000000000000000000000000003c000000000000000000000000fe8729ae15e8cd6196e691e6c7c7c913e8c4d5400000000000000000000000000000000000000000000000000000000000000000ffffffffffffffffffffffffffffffffffffffffffffffffffee3c86c81f8000000000000000000000000000fffd8963efd1fc6a506488495d951d5263988d2500000000000000000000000000000000000000000000000000000000000001200000000000000000000000000000000000000000000000000000000000000000",
        "nonce": "0x11a0",
        "chainId": "0xaa36a7"
      },
      "additionalContracts": [],
      "isFixedGasLimit": false
    },
    {
      "hash": "0x6e835382eeb88743eba062bd7d94b2c86d7cea2a4ad9446935cebfe5aba39d7e",
      "transactionType": "CALL",
      "contractName": "SwapHelper",
      "contractAddress": "0xf9cab5fa57d2e5dab990aba00ef7947e53817b08",
      "function": "swap((address,address,uint24,int24,address),(bool,int256,uint160),bytes)",
      "arguments": [
        "(0x1c7D4B196Cb0C7B01d743Fbc6116a902379C7238, 0xfFf9976782d46CC05630D1f6eBAb18b2324d6B14, 3000, 60, 0xfe8729ae15e8cD6196e691e6c7c7C913E8c4D540)",
        "(false, -5000000000000000, 1461446703485210103287273052203988822378723970341)",
        "0x"
      ],
      "transaction": {
        "from": "0x63f976191f9dd75bd5b0fd81320d37fbc0d74080",
        "to": "0xf9cab5fa57d2e5dab990aba00ef7947e53817b08",
        "gas": "0x24c7b",
        "value": "0x0",
        "input": "0xf3cd914c0000000000000000000000001c7d4b196cb0c7b01d743fbc6116a902379c7238000000000000000000000000fff9976782d46cc05630d1f6ebab18b2324d6b140000000000000000000000000000000000000000000000000000000000000bb8000000000000000000000000000000000000000000000000000000000000003c000000000000000000000000fe8729ae15e8cd6196e691e6c7c7c913e8c4d5400000000000000000000000000000000000000000000000000000000000000000ffffffffffffffffffffffffffffffffffffffffffffffffffee3c86c81f8000000000000000000000000000fffd8963efd1fc6a506488495d951d5263988d2500000000000000000000000000000000000000000000000000000000000001200000000000000000000000000000000000000000000000000000000000000000",
        "nonce": "0x11a1",
        "chainId": "0xaa36a7"
      },
      "additionalContracts": [],
      "isFixedGasLimit": false
    },
    {
      "hash": "0x760b2ee96e2989782cebdc3ef2794be551952370679c2256db545adb328ee2fa",
      "transactionType": "CALL",
      "contractName": "SwapHelper",
      "contractAddress": "0xf9cab5fa57d2e5dab990aba00ef7947e53817b08",
      "function": "swap((address,address,uint24,int24,address),(bool,int256,uint160),bytes)",
      "arguments": [
        "(0x1c7D4B196Cb0C7B01d743Fbc6116a902379C7238, 0xfFf9976782d46CC05630D1f6eBAb18b2324d6B14, 3000, 60, 0xfe8729ae15e8cD6196e691e6c7c7C913E8c4D540)",
        "(false, -5000000000000000, 1461446703485210103287273052203988822378723970341)",
        "0x"
      ],
      "transaction": {
        "from": "0x63f976191f9dd75bd5b0fd81320d37fbc0d74080",
        "to": "0xf9cab5fa57d2e5dab990aba00ef7947e53817b08",
        "gas": "0x26f20",
        "value": "0x0",
        "input": "0xf3cd914c0000000000000000000000001c7d4b196cb0c7b01d743fbc6116a902379c7238000000000000000000000000fff9976782d46cc05630d1f6ebab18b2324d6b140000000000000000000000000000000000000000000000000000000000000bb8000000000000000000000000000000000000000000000000000000000000003c000000000000000000000000fe8729ae15e8cd6196e691e6c7c7c913e8c4d5400000000000000000000000000000000000000000000000000000000000000000ffffffffffffffffffffffffffffffffffffffffffffffffffee3c86c81f8000000000000000000000000000fffd8963efd1fc6a506488495d951d5263988d2500000000000000000000000000000000000000000000000000000000000001200000000000000000000000000000000000000000000000000000000000000000",
        "nonce": "0x11a2",
        "chainId": "0xaa36a7"
      },
      "additionalContracts": [],
      "isFixedGasLimit": false
    },
    {
      "hash": "0x9cf12a6406cca4f743e61f9b7f351fc507e95689c39167e4fec88805c0ca1cca",
      "transactionType": "CALL",
      "contractName": "SwapHelper",
      "contractAddress": "0xf9cab5fa57d2e5dab990aba00ef7947e53817b08",
      "function": "swap((address,address,uint24,int24,address),(bool,int256,uint160),bytes)",
      "arguments": [
        "(0x1c7D4B196Cb0C7B01d743Fbc6116a902379C7238, 0xfFf9976782d46CC05630D1f6eBAb18b2324d6B14, 3000, 60, 0xfe8729ae15e8cD6196e691e6c7c7C913E8c4D540)",
        "(false, -5000000000000000, 1461446703485210103287273052203988822378723970341)",
        "0x"
      ],
      "transaction": {
        "from": "0x63f976191f9dd75bd5b0fd81320d37fbc0d74080",
        "to": "0xf9cab5fa57d2e5dab990aba00ef7947e53817b08",
        "gas": "0x24bcb",
        "value": "0x0",
        "input": "0xf3cd914c0000000000000000000000001c7d4b196cb0c7b01d743fbc6116a902379c7238000000000000000000000000fff9976782d46cc05630d1f6ebab18b2324d6b140000000000000000000000000000000000000000000000000000000000000bb8000000000000000000000000000000000000000000000000000000000000003c000000000000000000000000fe8729ae15e8cd6196e691e6c7c7c913e8c4d5400000000000000000000000000000000000000000000000000000000000000000ffffffffffffffffffffffffffffffffffffffffffffffffffee3c86c81f8000000000000000000000000000fffd8963efd1fc6a506488495d951d5263988d2500000000000000000000000000000000000000000000000000000000000001200000000000000000000000000000000000000000000000000000000000000000",
        "nonce": "0x11a3",
        "chainId": "0xaa36a7"
      },
      "additionalContracts": [],
      "isFixedGasLimit": false
    },
    {
      "hash": "0xbc87be4061b971695ed71990d0353ed73928d2dd0bf1b24230d04ba8e565627b",
      "transactionType": "CALL",
      "contractName": "SwapHelper",
      "contractAddress": "0xf9cab5fa57d2e5dab990aba00ef7947e53817b08",
      "function": "swap((address,address,uint24,int24,address),(bool,int256,uint160),bytes)",
      "arguments": [
        "(0x1c7D4B196Cb0C7B01d743Fbc6116a902379C7238, 0xfFf9976782d46CC05630D1f6eBAb18b2324d6B14, 3000, 60, 0xfe8729ae15e8cD6196e691e6c7c7C913E8c4D540)",
        "(false, -5000000000000000, 1461446703485210103287273052203988822378723970341)",
        "0x"
      ],
      "transaction": {
        "from": "0x63f976191f9dd75bd5b0fd81320d37fbc0d74080",
        "to": "0xf9cab5fa57d2e5dab990aba00ef7947e53817b08",
        "gas": "0x269b0",
        "value": "0x0",
        "input": "0xf3cd914c0000000000000000000000001c7d4b196cb0c7b01d743fbc6116a902379c7238000000000000000000000000fff9976782d46cc05630d1f6ebab18b2324d6b140000000000000000000000000000000000000000000000000000000000000bb8000000000000000000000000000000000000000000000000000000000000003c000000000000000000000000fe8729ae15e8cd6196e691e6c7c7c913e8c4d5400000000000000000000000000000000000000000000000000000000000000000ffffffffffffffffffffffffffffffffffffffffffffffffffee3c86c81f8000000000000000000000000000fffd8963efd1fc6a506488495d951d5263988d2500000000000000000000000000000000000000000000000000000000000001200000000000000000000000000000000000000000000000000000000000000000",
        "nonce": "0x11a4",
        "chainId": "0xaa36a7"
      },
      "additionalContracts": [],
      "isFixedGasLimit": false
    },
    {
      "hash": "0xafac17fe8113665bce29fdce1570da109113f428200c941132e8e98e0ac8cdde",
      "transactionType": "CALL",
      "contractName": "SwapHelper",
      "contractAddress": "0xf9cab5fa57d2e5dab990aba00ef7947e53817b08",
      "function": "swap((address,address,uint24,int24,address),(bool,int256,uint160),bytes)",
      "arguments": [
        "(0x1c7D4B196Cb0C7B01d743Fbc6116a902379C7238, 0xfFf9976782d46CC05630D1f6eBAb18b2324d6B14, 3000, 60, 0xfe8729ae15e8cD6196e691e6c7c7C913E8c4D540)",
        "(false, -5000000000000000, 1461446703485210103287273052203988822378723970341)",
        "0x"
      ],
      "transaction": {
        "from": "0x63f976191f9dd75bd5b0fd81320d37fbc0d74080",
        "to": "0xf9cab5fa57d2e5dab990aba00ef7947e53817b08",
        "gas": "0x26e94",
        "value": "0x0",
        "input": "0xf3cd914c0000000000000000000000001c7d4b196cb0c7b01d743fbc6116a902379c7238000000000000000000000000fff9976782d46cc05630d1f6ebab18b2324d6b140000000000000000000000000000000000000000000000000000000000000bb8000000000000000000000000000000000000000000000000000000000000003c000000000000000000000000fe8729ae15e8cd6196e691e6c7c7c913e8c4d5400000000000000000000000000000000000000000000000000000000000000000ffffffffffffffffffffffffffffffffffffffffffffffffffee3c86c81f8000000000000000000000000000fffd8963efd1fc6a506488495d951d5263988d2500000000000000000000000000000000000000000000000000000000000001200000000000000000000000000000000000000000000000000000000000000000",
        "nonce": "0x11a5",
        "chainId": "0xaa36a7"
      },
      "additionalContracts": [],
      "isFixedGasLimit": false
    },
    {
      "hash": "0xb285322c37d464c65779bfb43e748a55bc34b23f0a087fe3d8a4bb15f8accc66",
      "transactionType": "CALL",
      "contractName": "SwapHelper",
      "contractAddress": "0xf9cab5fa57d2e5dab990aba00ef7947e53817b08",
      "function": "swap((address,address,uint24,int24,address),(bool,int256,uint160),bytes)",
      "arguments": [
        "(0x1c7D4B196Cb0C7B01d743Fbc6116a902379C7238, 0xfFf9976782d46CC05630D1f6eBAb18b2324d6B14, 3000, 60, 0xfe8729ae15e8cD6196e691e6c7c7C913E8c4D540)",
        "(false, -5000000000000000, 1461446703485210103287273052203988822378723970341)",
        "0x"
      ],
      "transaction": {
        "from": "0x63f976191f9dd75bd5b0fd81320d37fbc0d74080",
        "to": "0xf9cab5fa57d2e5dab990aba00ef7947e53817b08",
        "gas": "0x26f20",
        "value": "0x0",
        "input": "0xf3cd914c0000000000000000000000001c7d4b196cb0c7b01d743fbc6116a902379c7238000000000000000000000000fff9976782d46cc05630d1f6ebab18b2324d6b140000000000000000000000000000000000000000000000000000000000000bb8000000000000000000000000000000000000000000000000000000000000003c000000000000000000000000fe8729ae15e8cd6196e691e6c7c7c913e8c4d5400000000000000000000000000000000000000000000000000000000000000000ffffffffffffffffffffffffffffffffffffffffffffffffffee3c86c81f8000000000000000000000000000fffd8963efd1fc6a506488495d951d5263988d2500000000000000000000000000000000000000000000000000000000000001200000000000000000000000000000000000000000000000000000000000000000",
        "nonce": "0x11a6",
        "chainId": "0xaa36a7"
      },
      "additionalContracts": [],
      "isFixedGasLimit": false
    },
    {
      "hash": "0xd6c83be79a0744f413970dadc8fa70f63fc41a4128afdeeb5039bb6a7874a037",
      "transactionType": "CALL",
      "contractName": "SwapHelper",
      "contractAddress": "0xf9cab5fa57d2e5dab990aba00ef7947e53817b08",
      "function": "swap((address,address,uint24,int24,address),(bool,int256,uint160),bytes)",
      "arguments": [
        "(0x1c7D4B196Cb0C7B01d743Fbc6116a902379C7238, 0xfFf9976782d46CC05630D1f6eBAb18b2324d6B14, 3000, 60, 0xfe8729ae15e8cD6196e691e6c7c7C913E8c4D540)",
        "(false, -5000000000000000, 1461446703485210103287273052203988822378723970341)",
        "0x"
      ],
      "transaction": {
        "from": "0x63f976191f9dd75bd5b0fd81320d37fbc0d74080",
        "to": "0xf9cab5fa57d2e5dab990aba00ef7947e53817b08",
        "gas": "0x269b0",
        "value": "0x0",
        "input": "0xf3cd914c0000000000000000000000001c7d4b196cb0c7b01d743fbc6116a902379c7238000000000000000000000000fff9976782d46cc05630d1f6ebab18b2324d6b140000000000000000000000000000000000000000000000000000000000000bb8000000000000000000000000000000000000000000000000000000000000003c000000000000000000000000fe8729ae15e8cd6196e691e6c7c7c913e8c4d5400000000000000000000000000000000000000000000000000000000000000000ffffffffffffffffffffffffffffffffffffffffffffffffffee3c86c81f8000000000000000000000000000fffd8963efd1fc6a506488495d951d5263988d2500000000000000000000000000000000000000000000000000000000000001200000000000000000000000000000000000000000000000000000000000000000",
        "nonce": "0x11a7",
        "chainId": "0xaa36a7"
      },
      "additionalContracts": [],
      "isFixedGasLimit": false
    },
    {
      "hash": "0x0332923dc78caab39f60e64c401959329c8c4e5a19b2ebfa309b883b53f9d185",
      "transactionType": "CALL",
      "contractName": "SwapHelper",
      "contractAddress": "0xf9cab5fa57d2e5dab990aba00ef7947e53817b08",
      "function": "swap((address,address,uint24,int24,address),(bool,int256,uint160),bytes)",
      "arguments": [
        "(0x1c7D4B196Cb0C7B01d743Fbc6116a902379C7238, 0xfFf9976782d46CC05630D1f6eBAb18b2324d6B14, 3000, 60, 0xfe8729ae15e8cD6196e691e6c7c7C913E8c4D540)",
        "(false, -5000000000000000, 1461446703485210103287273052203988822378723970341)",
        "0x"
      ],
      "transaction": {
        "from": "0x63f976191f9dd75bd5b0fd81320d37fbc0d74080",
        "to": "0xf9cab5fa57d2e5dab990aba00ef7947e53817b08",
        "gas": "0x269b0",
        "value": "0x0",
        "input": "0xf3cd914c0000000000000000000000001c7d4b196cb0c7b01d743fbc6116a902379c7238000000000000000000000000fff9976782d46cc05630d1f6ebab18b2324d6b140000000000000000000000000000000000000000000000000000000000000bb8000000000000000000000000000000000000000000000000000000000000003c000000000000000000000000fe8729ae15e8cd6196e691e6c7c7c913e8c4d5400000000000000000000000000000000000000000000000000000000000000000ffffffffffffffffffffffffffffffffffffffffffffffffffee3c86c81f8000000000000000000000000000fffd8963efd1fc6a506488495d951d5263988d2500000000000000000000000000000000000000000000000000000000000001200000000000000000000000000000000000000000000000000000000000000000",
        "nonce": "0x11a8",
        "chainId": "0xaa36a7"
      },
      "additionalContracts": [],
      "isFixedGasLimit": false
    },
    {
      "hash": "0x3c8dbcc30250921a2696c07019afa75be8f1dded2ce06d444d65c0756d713c33",
      "transactionType": "CALL",
      "contractName": "SwapHelper",
      "contractAddress": "0xf9cab5fa57d2e5dab990aba00ef7947e53817b08",
      "function": "swap((address,address,uint24,int24,address),(bool,int256,uint160),bytes)",
      "arguments": [
        "(0x1c7D4B196Cb0C7B01d743Fbc6116a902379C7238, 0xfFf9976782d46CC05630D1f6eBAb18b2324d6B14, 3000, 60, 0xfe8729ae15e8cD6196e691e6c7c7C913E8c4D540)",
        "(false, -5000000000000000, 1461446703485210103287273052203988822378723970341)",
        "0x"
      ],
      "transaction": {
        "from": "0x63f976191f9dd75bd5b0fd81320d37fbc0d74080",
        "to": "0xf9cab5fa57d2e5dab990aba00ef7947e53817b08",
        "gas": "0x24c4f",
        "value": "0x0",
        "input": "0xf3cd914c0000000000000000000000001c7d4b196cb0c7b01d743fbc6116a902379c7238000000000000000000000000fff9976782d46cc05630d1f6ebab18b2324d6b140000000000000000000000000000000000000000000000000000000000000bb8000000000000000000000000000000000000000000000000000000000000003c000000000000000000000000fe8729ae15e8cd6196e691e6c7c7c913e8c4d5400000000000000000000000000000000000000000000000000000000000000000ffffffffffffffffffffffffffffffffffffffffffffffffffee3c86c81f8000000000000000000000000000fffd8963efd1fc6a506488495d951d5263988d2500000000000000000000000000000000000000000000000000000000000001200000000000000000000000000000000000000000000000000000000000000000",
        "nonce": "0x11a9",
        "chainId": "0xaa36a7"
      },
      "additionalContracts": [],
      "isFixedGasLimit": false
    },
    {
      "hash": "0x0d46691c13e710801151269ef03c622654b699ce8ccf23b88bcd1fc49690c861",
      "transactionType": "CALL",
      "contractName": "SwapHelper",
      "contractAddress": "0xf9cab5fa57d2e5dab990aba00ef7947e53817b08",
      "function": "swap((address,address,uint24,int24,address),(bool,int256,uint160),bytes)",
      "arguments": [
        "(0x1c7D4B196Cb0C7B01d743Fbc6116a902379C7238, 0xfFf9976782d46CC05630D1f6eBAb18b2324d6B14, 3000, 60, 0xfe8729ae15e8cD6196e691e6c7c7C913E8c4D540)",
        "(false, -5000000000000000, 1461446703485210103287273052203988822378723970341)",
        "0x"
      ],
      "transaction": {
        "from": "0x63f976191f9dd75bd5b0fd81320d37fbc0d74080",
        "to": "0xf9cab5fa57d2e5dab990aba00ef7947e53817b08",
        "gas": "0x24ca8",
        "value": "0x0",
        "input": "0xf3cd914c0000000000000000000000001c7d4b196cb0c7b01d743fbc6116a902379c7238000000000000000000000000fff9976782d46cc05630d1f6ebab18b2324d6b140000000000000000000000000000000000000000000000000000000000000bb8000000000000000000000000000000000000000000000000000000000000003c000000000000000000000000fe8729ae15e8cd6196e691e6c7c7c913e8c4d5400000000000000000000000000000000000000000000000000000000000000000ffffffffffffffffffffffffffffffffffffffffffffffffffee3c86c81f8000000000000000000000000000fffd8963efd1fc6a506488495d951d5263988d2500000000000000000000000000000000000000000000000000000000000001200000000000000000000000000000000000000000000000000000000000000000",
        "nonce": "0x11aa",
        "chainId": "0xaa36a7"
      },
      "additionalContracts": [],
      "isFixedGasLimit": false
    },
    {
      "hash": "0x97f0390976f1db9161b3f03869beafb898eee8121d74acd45e971cb622e4449a",
      "transactionType": "CALL",
      "contractName": "SwapHelper",
      "contractAddress": "0xf9cab5fa57d2e5dab990aba00ef7947e53817b08",
      "function": "swap((address,address,uint24,int24,address),(bool,int256,uint160),bytes)",
      "arguments": [
        "(0x1c7D4B196Cb0C7B01d743Fbc6116a902379C7238, 0xfFf9976782d46CC05630D1f6eBAb18b2324d6B14, 3000, 60, 0xfe8729ae15e8cD6196e691e6c7c7C913E8c4D540)",
        "(false, -5000000000000000, 1461446703485210103287273052203988822378723970341)",
        "0x"
      ],
      "transaction": {
        "from": "0x63f976191f9dd75bd5b0fd81320d37fbc0d74080",
        "to": "0xf9cab5fa57d2e5dab990aba00ef7947e53817b08",
        "gas": "0x269b0",
        "value": "0x0",
        "input": "0xf3cd914c0000000000000000000000001c7d4b196cb0c7b01d743fbc6116a902379c7238000000000000000000000000fff9976782d46cc05630d1f6ebab18b2324d6b140000000000000000000000000000000000000000000000000000000000000bb8000000000000000000000000000000000000000000000000000000000000003c000000000000000000000000fe8729ae15e8cd6196e691e6c7c7c913e8c4d5400000000000000000000000000000000000000000000000000000000000000000ffffffffffffffffffffffffffffffffffffffffffffffffffee3c86c81f8000000000000000000000000000fffd8963efd1fc6a506488495d951d5263988d2500000000000000000000000000000000000000000000000000000000000001200000000000000000000000000000000000000000000000000000000000000000",
        "nonce": "0x11ab",
        "chainId": "0xaa36a7"
      },
      "additionalContracts": [],
      "isFixedGasLimit": false
    },
    {
      "hash": "0x98095969c1e74f43b74ac4037b7b249617d41d2911f70c029f14bdba5717eea8",
      "transactionType": "CALL",
      "contractName": "SwapHelper",
      "contractAddress": "0xf9cab5fa57d2e5dab990aba00ef7947e53817b08",
      "function": "swap((address,address,uint24,int24,address),(bool,int256,uint160),bytes)",
      "arguments": [
        "(0x1c7D4B196Cb0C7B01d743Fbc6116a902379C7238, 0xfFf9976782d46CC05630D1f6eBAb18b2324d6B14, 3000, 60, 0xfe8729ae15e8cD6196e691e6c7c7C913E8c4D540)",
        "(false, -5000000000000000, 1461446703485210103287273052203988822378723970341)",
        "0x"
      ],
      "transaction": {
        "from": "0x63f976191f9dd75bd5b0fd81320d37fbc0d74080",
        "to": "0xf9cab5fa57d2e5dab990aba00ef7947e53817b08",
        "gas": "0x24c7b",
        "value": "0x0",
        "input": "0xf3cd914c0000000000000000000000001c7d4b196cb0c7b01d743fbc6116a902379c7238000000000000000000000000fff9976782d46cc05630d1f6ebab18b2324d6b140000000000000000000000000000000000000000000000000000000000000bb8000000000000000000000000000000000000000000000000000000000000003c000000000000000000000000fe8729ae15e8cd6196e691e6c7c7c913e8c4d5400000000000000000000000000000000000000000000000000000000000000000ffffffffffffffffffffffffffffffffffffffffffffffffffee3c86c81f8000000000000000000000000000fffd8963efd1fc6a506488495d951d5263988d2500000000000000000000000000000000000000000000000000000000000001200000000000000000000000000000000000000000000000000000000000000000",
        "nonce": "0x11ac",
        "chainId": "0xaa36a7"
      },
      "additionalContracts": [],
      "isFixedGasLimit": false
    },
    {
      "hash": "0xaba3a576259fe85f1636299ff2d65531544e806b03268b164a28875b598cc925",
      "transactionType": "CALL",
      "contractName": "SwapHelper",
      "contractAddress": "0xf9cab5fa57d2e5dab990aba00ef7947e53817b08",
      "function": "swap((address,address,uint24,int24,address),(bool,int256,uint160),bytes)",
      "arguments": [
        "(0x1c7D4B196Cb0C7B01d743Fbc6116a902379C7238, 0xfFf9976782d46CC05630D1f6eBAb18b2324d6B14, 3000, 60, 0xfe8729ae15e8cD6196e691e6c7c7C913E8c4D540)",
        "(false, -5000000000000000, 1461446703485210103287273052203988822378723970341)",
        "0x"
      ],
      "transaction": {
        "from": "0x63f976191f9dd75bd5b0fd81320d37fbc0d74080",
        "to": "0xf9cab5fa57d2e5dab990aba00ef7947e53817b08",
        "gas": "0x24c7b",
        "value": "0x0",
        "input": "0xf3cd914c0000000000000000000000001c7d4b196cb0c7b01d743fbc6116a902379c7238000000000000000000000000fff9976782d46cc05630d1f6ebab18b2324d6b140000000000000000000000000000000000000000000000000000000000000bb8000000000000000000000000000000000000000000000000000000000000003c000000000000000000000000fe8729ae15e8cd6196e691e6c7c7c913e8c4d5400000000000000000000000000000000000000000000000000000000000000000ffffffffffffffffffffffffffffffffffffffffffffffffffee3c86c81f8000000000000000000000000000fffd8963efd1fc6a506488495d951d5263988d2500000000000000000000000000000000000000000000000000000000000001200000000000000000000000000000000000000000000000000000000000000000",
        "nonce": "0x11ad",
        "chainId": "0xaa36a7"
      },
      "additionalContracts": [],
      "isFixedGasLimit": false
    },
    {
      "hash": "0x6ba9faa626727b54c842355d993ee8981d8d54153a94023c05445db5b0233025",
      "transactionType": "CALL",
      "contractName": "SwapHelper",
      "contractAddress": "0xf9cab5fa57d2e5dab990aba00ef7947e53817b08",
      "function": "swap((address,address,uint24,int24,address),(bool,int256,uint160),bytes)",
      "arguments": [
        "(0x1c7D4B196Cb0C7B01d743Fbc6116a902379C7238, 0xfFf9976782d46CC05630D1f6eBAb18b2324d6B14, 3000, 60, 0xfe8729ae15e8cD6196e691e6c7c7C913E8c4D540)",
        "(false, -5000000000000000, 1461446703485210103287273052203988822378723970341)",
        "0x"
      ],
      "transaction": {
        "from": "0x63f976191f9dd75bd5b0fd81320d37fbc0d74080",
        "to": "0xf9cab5fa57d2e5dab990aba00ef7947e53817b08",
        "gas": "0x24ca8",
        "value": "0x0",
        "input": "0xf3cd914c0000000000000000000000001c7d4b196cb0c7b01d743fbc6116a902379c7238000000000000000000000000fff9976782d46cc05630d1f6ebab18b2324d6b140000000000000000000000000000000000000000000000000000000000000bb8000000000000000000000000000000000000000000000000000000000000003c000000000000000000000000fe8729ae15e8cd6196e691e6c7c7c913e8c4d5400000000000000000000000000000000000000000000000000000000000000000ffffffffffffffffffffffffffffffffffffffffffffffffffee3c86c81f8000000000000000000000000000fffd8963efd1fc6a506488495d951d5263988d2500000000000000000000000000000000000000000000000000000000000001200000000000000000000000000000000000000000000000000000000000000000",
        "nonce": "0x11ae",
        "chainId": "0xaa36a7"
      },
      "additionalContracts": [],
      "isFixedGasLimit": false
    },
    {
      "hash": "0x0886ecf39088166a1387f277d74dbb95f29297874e8e95031a2d64cc0f807d29",
      "transactionType": "CALL",
      "contractName": "SwapHelper",
      "contractAddress": "0xf9cab5fa57d2e5dab990aba00ef7947e53817b08",
      "function": "swap((address,address,uint24,int24,address),(bool,int256,uint160),bytes)",
      "arguments": [
        "(0x1c7D4B196Cb0C7B01d743Fbc6116a902379C7238, 0xfFf9976782d46CC05630D1f6eBAb18b2324d6B14, 3000, 60, 0xfe8729ae15e8cD6196e691e6c7c7C913E8c4D540)",
        "(false, -5000000000000000, 1461446703485210103287273052203988822378723970341)",
        "0x"
      ],
      "transaction": {
        "from": "0x63f976191f9dd75bd5b0fd81320d37fbc0d74080",
        "to": "0xf9cab5fa57d2e5dab990aba00ef7947e53817b08",
        "gas": "0x24c7b",
        "value": "0x0",
        "input": "0xf3cd914c0000000000000000000000001c7d4b196cb0c7b01d743fbc6116a902379c7238000000000000000000000000fff9976782d46cc05630d1f6ebab18b2324d6b140000000000000000000000000000000000000000000000000000000000000bb8000000000000000000000000000000000000000000000000000000000000003c000000000000000000000000fe8729ae15e8cd6196e691e6c7c7c913e8c4d5400000000000000000000000000000000000000000000000000000000000000000ffffffffffffffffffffffffffffffffffffffffffffffffffee3c86c81f8000000000000000000000000000fffd8963efd1fc6a506488495d951d5263988d2500000000000000000000000000000000000000000000000000000000000001200000000000000000000000000000000000000000000000000000000000000000",
        "nonce": "0x11af",
        "chainId": "0xaa36a7"
      },
      "additionalContracts": [],
      "isFixedGasLimit": false
    },
    {
      "hash": "0xc185009439ee786e86b0843f0bb4b157507107d029ed4865da8e8b0018f11185",
      "transactionType": "CALL",
      "contractName": "SwapHelper",
      "contractAddress": "0xf9cab5fa57d2e5dab990aba00ef7947e53817b08",
      "function": "swap((address,address,uint24,int24,address),(bool,int256,uint160),bytes)",
      "arguments": [
        "(0x1c7D4B196Cb0C7B01d743Fbc6116a902379C7238, 0xfFf9976782d46CC05630D1f6eBAb18b2324d6B14, 3000, 60, 0xfe8729ae15e8cD6196e691e6c7c7C913E8c4D540)",
        "(false, -5000000000000000, 1461446703485210103287273052203988822378723970341)",
        "0x"
      ],
      "transaction": {
        "from": "0x63f976191f9dd75bd5b0fd81320d37fbc0d74080",
        "to": "0xf9cab5fa57d2e5dab990aba00ef7947e53817b08",
        "gas": "0x26f20",
        "value": "0x0",
        "input": "0xf3cd914c0000000000000000000000001c7d4b196cb0c7b01d743fbc6116a902379c7238000000000000000000000000fff9976782d46cc05630d1f6ebab18b2324d6b140000000000000000000000000000000000000000000000000000000000000bb8000000000000000000000000000000000000000000000000000000000000003c000000000000000000000000fe8729ae15e8cd6196e691e6c7c7c913e8c4d5400000000000000000000000000000000000000000000000000000000000000000ffffffffffffffffffffffffffffffffffffffffffffffffffee3c86c81f8000000000000000000000000000fffd8963efd1fc6a506488495d951d5263988d2500000000000000000000000000000000000000000000000000000000000001200000000000000000000000000000000000000000000000000000000000000000",
        "nonce": "0x11b0",
        "chainId": "0xaa36a7"
      },
      "additionalContracts": [],
      "isFixedGasLimit": false
    },
    {
      "hash": "0xf2e8ed639ced173222fee2eefd03000ba2650884a20004c7771f1fc148b12e6b",
      "transactionType": "CALL",
      "contractName": "SwapHelper",
      "contractAddress": "0xf9cab5fa57d2e5dab990aba00ef7947e53817b08",
      "function": "swap((address,address,uint24,int24,address),(bool,int256,uint160),bytes)",
      "arguments": [
        "(0x1c7D4B196Cb0C7B01d743Fbc6116a902379C7238, 0xfFf9976782d46CC05630D1f6eBAb18b2324d6B14, 3000, 60, 0xfe8729ae15e8cD6196e691e6c7c7C913E8c4D540)",
        "(false, -5000000000000000, 1461446703485210103287273052203988822378723970341)",
        "0x"
      ],
      "transaction": {
        "from": "0x63f976191f9dd75bd5b0fd81320d37fbc0d74080",
        "to": "0xf9cab5fa57d2e5dab990aba00ef7947e53817b08",
        "gas": "0x24c7b",
        "value": "0x0",
        "input": "0xf3cd914c0000000000000000000000001c7d4b196cb0c7b01d743fbc6116a902379c7238000000000000000000000000fff9976782d46cc05630d1f6ebab18b2324d6b140000000000000000000000000000000000000000000000000000000000000bb8000000000000000000000000000000000000000000000000000000000000003c000000000000000000000000fe8729ae15e8cd6196e691e6c7c7c913e8c4d5400000000000000000000000000000000000000000000000000000000000000000ffffffffffffffffffffffffffffffffffffffffffffffffffee3c86c81f8000000000000000000000000000fffd8963efd1fc6a506488495d951d5263988d2500000000000000000000000000000000000000000000000000000000000001200000000000000000000000000000000000000000000000000000000000000000",
        "nonce": "0x11b1",
        "chainId": "0xaa36a7"
      },
      "additionalContracts": [],
      "isFixedGasLimit": false
    },
    {
      "hash": "0x02f40a8eeb26187e92f9827cc9b9d94116aa3409962858518e4260dbd5438adc",
      "transactionType": "CALL",
      "contractName": "SwapHelper",
      "contractAddress": "0xf9cab5fa57d2e5dab990aba00ef7947e53817b08",
      "function": "swap((address,address,uint24,int24,address),(bool,int256,uint160),bytes)",
      "arguments": [
        "(0x1c7D4B196Cb0C7B01d743Fbc6116a902379C7238, 0xfFf9976782d46CC05630D1f6eBAb18b2324d6B14, 3000, 60, 0xfe8729ae15e8cD6196e691e6c7c7C913E8c4D540)",
        "(false, -5000000000000000, 1461446703485210103287273052203988822378723970341)",
        "0x"
      ],
      "transaction": {
        "from": "0x63f976191f9dd75bd5b0fd81320d37fbc0d74080",
        "to": "0xf9cab5fa57d2e5dab990aba00ef7947e53817b08",
        "gas": "0x24c7b",
        "value": "0x0",
        "input": "0xf3cd914c0000000000000000000000001c7d4b196cb0c7b01d743fbc6116a902379c7238000000000000000000000000fff9976782d46cc05630d1f6ebab18b2324d6b140000000000000000000000000000000000000000000000000000000000000bb8000000000000000000000000000000000000000000000000000000000000003c000000000000000000000000fe8729ae15e8cd6196e691e6c7c7c913e8c4d5400000000000000000000000000000000000000000000000000000000000000000ffffffffffffffffffffffffffffffffffffffffffffffffffee3c86c81f8000000000000000000000000000fffd8963efd1fc6a506488495d951d5263988d2500000000000000000000000000000000000000000000000000000000000001200000000000000000000000000000000000000000000000000000000000000000",
        "nonce": "0x11b2",
        "chainId": "0xaa36a7"
      },
      "additionalContracts": [],
      "isFixedGasLimit": false
    },
    {
      "hash": "0x84a7bed016928bda529acda3bd733e379e1dc1d9c681eeb0e6c1bdf4f2a91b2d",
      "transactionType": "CALL",
      "contractName": "SwapHelper",
      "contractAddress": "0xf9cab5fa57d2e5dab990aba00ef7947e53817b08",
      "function": "swap((address,address,uint24,int24,address),(bool,int256,uint160),bytes)",
      "arguments": [
        "(0x1c7D4B196Cb0C7B01d743Fbc6116a902379C7238, 0xfFf9976782d46CC05630D1f6eBAb18b2324d6B14, 3000, 60, 0xfe8729ae15e8cD6196e691e6c7c7C913E8c4D540)",
        "(false, -5000000000000000, 1461446703485210103287273052203988822378723970341)",
        "0x"
      ],
      "transaction": {
        "from": "0x63f976191f9dd75bd5b0fd81320d37fbc0d74080",
        "to": "0xf9cab5fa57d2e5dab990aba00ef7947e53817b08",
        "gas": "0x269b0",
        "value": "0x0",
        "input": "0xf3cd914c0000000000000000000000001c7d4b196cb0c7b01d743fbc6116a902379c7238000000000000000000000000fff9976782d46cc05630d1f6ebab18b2324d6b140000000000000000000000000000000000000000000000000000000000000bb8000000000000000000000000000000000000000000000000000000000000003c000000000000000000000000fe8729ae15e8cd6196e691e6c7c7c913e8c4d5400000000000000000000000000000000000000000000000000000000000000000ffffffffffffffffffffffffffffffffffffffffffffffffffee3c86c81f8000000000000000000000000000fffd8963efd1fc6a506488495d951d5263988d2500000000000000000000000000000000000000000000000000000000000001200000000000000000000000000000000000000000000000000000000000000000",
        "nonce": "0x11b3",
        "chainId": "0xaa36a7"
      },
      "additionalContracts": [],
      "isFixedGasLimit": false
    },
    {
      "hash": "0x67badc5b455e4442c3538c3f8d61b6dec4628b6e55a656736013a469efe7b84a",
      "transactionType": "CALL",
      "contractName": "SwapHelper",
      "contractAddress": "0xf9cab5fa57d2e5dab990aba00ef7947e53817b08",
      "function": "swap((address,address,uint24,int24,address),(bool,int256,uint160),bytes)",
      "arguments": [
        "(0x1c7D4B196Cb0C7B01d743Fbc6116a902379C7238, 0xfFf9976782d46CC05630D1f6eBAb18b2324d6B14, 3000, 60, 0xfe8729ae15e8cD6196e691e6c7c7C913E8c4D540)",
        "(false, -5000000000000000, 1461446703485210103287273052203988822378723970341)",
        "0x"
      ],
      "transaction": {
        "from": "0x63f976191f9dd75bd5b0fd81320d37fbc0d74080",
        "to": "0xf9cab5fa57d2e5dab990aba00ef7947e53817b08",
        "gas": "0x24c23",
        "value": "0x0",
        "input": "0xf3cd914c0000000000000000000000001c7d4b196cb0c7b01d743fbc6116a902379c7238000000000000000000000000fff9976782d46cc05630d1f6ebab18b2324d6b140000000000000000000000000000000000000000000000000000000000000bb8000000000000000000000000000000000000000000000000000000000000003c000000000000000000000000fe8729ae15e8cd6196e691e6c7c7c913e8c4d5400000000000000000000000000000000000000000000000000000000000000000ffffffffffffffffffffffffffffffffffffffffffffffffffee3c86c81f8000000000000000000000000000fffd8963efd1fc6a506488495d951d5263988d2500000000000000000000000000000000000000000000000000000000000001200000000000000000000000000000000000000000000000000000000000000000",
        "nonce": "0x11b4",
        "chainId": "0xaa36a7"
      },
      "additionalContracts": [],
      "isFixedGasLimit": false
    },
    {
      "hash": "0x12757578a475ecf11b77b1c15a46d88370878c47b948e1e4f8adcc9b912812ee",
      "transactionType": "CALL",
      "contractName": "SwapHelper",
      "contractAddress": "0xf9cab5fa57d2e5dab990aba00ef7947e53817b08",
      "function": "swap((address,address,uint24,int24,address),(bool,int256,uint160),bytes)",
      "arguments": [
        "(0x1c7D4B196Cb0C7B01d743Fbc6116a902379C7238, 0xfFf9976782d46CC05630D1f6eBAb18b2324d6B14, 3000, 60, 0xfe8729ae15e8cD6196e691e6c7c7C913E8c4D540)",
        "(false, -5000000000000000, 1461446703485210103287273052203988822378723970341)",
        "0x"
      ],
      "transaction": {
        "from": "0x63f976191f9dd75bd5b0fd81320d37fbc0d74080",
        "to": "0xf9cab5fa57d2e5dab990aba00ef7947e53817b08",
        "gas": "0x26f20",
        "value": "0x0",
        "input": "0xf3cd914c0000000000000000000000001c7d4b196cb0c7b01d743fbc6116a902379c7238000000000000000000000000fff9976782d46cc05630d1f6ebab18b2324d6b140000000000000000000000000000000000000000000000000000000000000bb8000000000000000000000000000000000000000000000000000000000000003c000000000000000000000000fe8729ae15e8cd6196e691e6c7c7c913e8c4d5400000000000000000000000000000000000000000000000000000000000000000ffffffffffffffffffffffffffffffffffffffffffffffffffee3c86c81f8000000000000000000000000000fffd8963efd1fc6a506488495d951d5263988d2500000000000000000000000000000000000000000000000000000000000001200000000000000000000000000000000000000000000000000000000000000000",
        "nonce": "0x11b5",
        "chainId": "0xaa36a7"
      },
      "additionalContracts": [],
      "isFixedGasLimit": false
    },
    {
      "hash": "0x8efc4631df5b16d28b93c13217a8cb4aa0b55488e19bae8503836b53f01e6e47",
      "transactionType": "CALL",
      "contractName": "SwapHelper",
      "contractAddress": "0xf9cab5fa57d2e5dab990aba00ef7947e53817b08",
      "function": "swap((address,address,uint24,int24,address),(bool,int256,uint160),bytes)",
      "arguments": [
        "(0x1c7D4B196Cb0C7B01d743Fbc6116a902379C7238, 0xfFf9976782d46CC05630D1f6eBAb18b2324d6B14, 3000, 60, 0xfe8729ae15e8cD6196e691e6c7c7C913E8c4D540)",
        "(false, -5000000000000000, 1461446703485210103287273052203988822378723970341)",
        "0x"
      ],
      "transaction": {
        "from": "0x63f976191f9dd75bd5b0fd81320d37fbc0d74080",
        "to": "0xf9cab5fa57d2e5dab990aba00ef7947e53817b08",
        "gas": "0x26ef1",
        "value": "0x0",
        "input": "0xf3cd914c0000000000000000000000001c7d4b196cb0c7b01d743fbc6116a902379c7238000000000000000000000000fff9976782d46cc05630d1f6ebab18b2324d6b140000000000000000000000000000000000000000000000000000000000000bb8000000000000000000000000000000000000000000000000000000000000003c000000000000000000000000fe8729ae15e8cd6196e691e6c7c7c913e8c4d5400000000000000000000000000000000000000000000000000000000000000000ffffffffffffffffffffffffffffffffffffffffffffffffffee3c86c81f8000000000000000000000000000fffd8963efd1fc6a506488495d951d5263988d2500000000000000000000000000000000000000000000000000000000000001200000000000000000000000000000000000000000000000000000000000000000",
        "nonce": "0x11b6",
        "chainId": "0xaa36a7"
      },
      "additionalContracts": [],
      "isFixedGasLimit": false
    },
    {
      "hash": "0x655730f50838facf2b19a44ce809197ab824264d3638bf3954ce9a545f411fe8",
      "transactionType": "CALL",
      "contractName": "SwapHelper",
      "contractAddress": "0xf9cab5fa57d2e5dab990aba00ef7947e53817b08",
      "function": "swap((address,address,uint24,int24,address),(bool,int256,uint160),bytes)",
      "arguments": [
        "(0x1c7D4B196Cb0C7B01d743Fbc6116a902379C7238, 0xfFf9976782d46CC05630D1f6eBAb18b2324d6B14, 3000, 60, 0xfe8729ae15e8cD6196e691e6c7c7C913E8c4D540)",
        "(false, -5000000000000000, 1461446703485210103287273052203988822378723970341)",
        "0x"
      ],
      "transaction": {
        "from": "0x63f976191f9dd75bd5b0fd81320d37fbc0d74080",
        "to": "0xf9cab5fa57d2e5dab990aba00ef7947e53817b08",
        "gas": "0x269b0",
        "value": "0x0",
        "input": "0xf3cd914c0000000000000000000000001c7d4b196cb0c7b01d743fbc6116a902379c7238000000000000000000000000fff9976782d46cc05630d1f6ebab18b2324d6b140000000000000000000000000000000000000000000000000000000000000bb8000000000000000000000000000000000000000000000000000000000000003c000000000000000000000000fe8729ae15e8cd6196e691e6c7c7c913e8c4d5400000000000000000000000000000000000000000000000000000000000000000ffffffffffffffffffffffffffffffffffffffffffffffffffee3c86c81f8000000000000000000000000000fffd8963efd1fc6a506488495d951d5263988d2500000000000000000000000000000000000000000000000000000000000001200000000000000000000000000000000000000000000000000000000000000000",
        "nonce": "0x11b7",
        "chainId": "0xaa36a7"
      },
      "additionalContracts": [],
      "isFixedGasLimit": false
    },
    {
      "hash": "0xf2b1f789a056904972c797c80ac9873467bb669c2c9ba2a2f3a34e543ff4fbfc",
      "transactionType": "CALL",
      "contractName": "SwapHelper",
      "contractAddress": "0xf9cab5fa57d2e5dab990aba00ef7947e53817b08",
      "function": "swap((address,address,uint24,int24,address),(bool,int256,uint160),bytes)",
      "arguments": [
        "(0x1c7D4B196Cb0C7B01d743Fbc6116a902379C7238, 0xfFf9976782d46CC05630D1f6eBAb18b2324d6B14, 3000, 60, 0xfe8729ae15e8cD6196e691e6c7c7C913E8c4D540)",
        "(false, -5000000000000000, 1461446703485210103287273052203988822378723970341)",
        "0x"
      ],
      "transaction": {
        "from": "0x63f976191f9dd75bd5b0fd81320d37fbc0d74080",
        "to": "0xf9cab5fa57d2e5dab990aba00ef7947e53817b08",
        "gas": "0x26ec2",
        "value": "0x0",
        "input": "0xf3cd914c0000000000000000000000001c7d4b196cb0c7b01d743fbc6116a902379c7238000000000000000000000000fff9976782d46cc05630d1f6ebab18b2324d6b140000000000000000000000000000000000000000000000000000000000000bb8000000000000000000000000000000000000000000000000000000000000003c000000000000000000000000fe8729ae15e8cd6196e691e6c7c7c913e8c4d5400000000000000000000000000000000000000000000000000000000000000000ffffffffffffffffffffffffffffffffffffffffffffffffffee3c86c81f8000000000000000000000000000fffd8963efd1fc6a506488495d951d5263988d2500000000000000000000000000000000000000000000000000000000000001200000000000000000000000000000000000000000000000000000000000000000",
        "nonce": "0x11b8",
        "chainId": "0xaa36a7"
      },
      "additionalContracts": [],
      "isFixedGasLimit": false
    },
    {
      "hash": "0xedb39ef83e550bf68ab54ff3915982087425ab5de2ed2079e5f3d69e512f8e99",
      "transactionType": "CALL",
      "contractName": "SwapHelper",
      "contractAddress": "0xf9cab5fa57d2e5dab990aba00ef7947e53817b08",
      "function": "swap((address,address,uint24,int24,address),(bool,int256,uint160),bytes)",
      "arguments": [
        "(0x1c7D4B196Cb0C7B01d743Fbc6116a902379C7238, 0xfFf9976782d46CC05630D1f6eBAb18b2324d6B14, 3000, 60, 0xfe8729ae15e8cD6196e691e6c7c7C913E8c4D540)",
        "(false, -5000000000000000, 1461446703485210103287273052203988822378723970341)",
        "0x"
      ],
      "transaction": {
        "from": "0x63f976191f9dd75bd5b0fd81320d37fbc0d74080",
        "to": "0xf9cab5fa57d2e5dab990aba00ef7947e53817b08",
        "gas": "0x26fac",
        "value": "0x0",
        "input": "0xf3cd914c0000000000000000000000001c7d4b196cb0c7b01d743fbc6116a902379c7238000000000000000000000000fff9976782d46cc05630d1f6ebab18b2324d6b140000000000000000000000000000000000000000000000000000000000000bb8000000000000000000000000000000000000000000000000000000000000003c000000000000000000000000fe8729ae15e8cd6196e691e6c7c7c913e8c4d5400000000000000000000000000000000000000000000000000000000000000000ffffffffffffffffffffffffffffffffffffffffffffffffffee3c86c81f8000000000000000000000000000fffd8963efd1fc6a506488495d951d5263988d2500000000000000000000000000000000000000000000000000000000000001200000000000000000000000000000000000000000000000000000000000000000",
        "nonce": "0x11b9",
        "chainId": "0xaa36a7"
      },
      "additionalContracts": [],
      "isFixedGasLimit": false
    },
    {
      "hash": "0x5b75fc54afebe7e667baaa9c1989553014ae6605b5ab404de1d8abe0dc0395a7",
      "transactionType": "CALL",
      "contractName": "SwapHelper",
      "contractAddress": "0xf9cab5fa57d2e5dab990aba00ef7947e53817b08",
      "function": "swap((address,address,uint24,int24,address),(bool,int256,uint160),bytes)",
      "arguments": [
        "(0x1c7D4B196Cb0C7B01d743Fbc6116a902379C7238, 0xfFf9976782d46CC05630D1f6eBAb18b2324d6B14, 3000, 60, 0xfe8729ae15e8cD6196e691e6c7c7C913E8c4D540)",
        "(false, -5000000000000000, 1461446703485210103287273052203988822378723970341)",
        "0x"
      ],
      "transaction": {
        "from": "0x63f976191f9dd75bd5b0fd81320d37fbc0d74080",
        "to": "0xf9cab5fa57d2e5dab990aba00ef7947e53817b08",
        "gas": "0x26f4f",
        "value": "0x0",
        "input": "0xf3cd914c0000000000000000000000001c7d4b196cb0c7b01d743fbc6116a902379c7238000000000000000000000000fff9976782d46cc05630d1f6ebab18b2324d6b140000000000000000000000000000000000000000000000000000000000000bb8000000000000000000000000000000000000000000000000000000000000003c000000000000000000000000fe8729ae15e8cd6196e691e6c7c7c913e8c4d5400000000000000000000000000000000000000000000000000000000000000000ffffffffffffffffffffffffffffffffffffffffffffffffffee3c86c81f8000000000000000000000000000fffd8963efd1fc6a506488495d951d5263988d2500000000000000000000000000000000000000000000000000000000000001200000000000000000000000000000000000000000000000000000000000000000",
        "nonce": "0x11ba",
        "chainId": "0xaa36a7"
      },
      "additionalContracts": [],
      "isFixedGasLimit": false
    },
    {
      "hash": "0x1af350a40faa8d33a6067e7d7fdef185e42e848c5b4fbb0e9b51a1d89f651097",
      "transactionType": "CALL",
      "contractName": "SwapHelper",
      "contractAddress": "0xf9cab5fa57d2e5dab990aba00ef7947e53817b08",
      "function": "swap((address,address,uint24,int24,address),(bool,int256,uint160),bytes)",
      "arguments": [
        "(0x1c7D4B196Cb0C7B01d743Fbc6116a902379C7238, 0xfFf9976782d46CC05630D1f6eBAb18b2324d6B14, 3000, 60, 0xfe8729ae15e8cD6196e691e6c7c7C913E8c4D540)",
        "(false, -5000000000000000, 1461446703485210103287273052203988822378723970341)",
        "0x"
      ],
      "transaction": {
        "from": "0x63f976191f9dd75bd5b0fd81320d37fbc0d74080",
        "to": "0xf9cab5fa57d2e5dab990aba00ef7947e53817b08",
        "gas": "0x24ca8",
        "value": "0x0",
        "input": "0xf3cd914c0000000000000000000000001c7d4b196cb0c7b01d743fbc6116a902379c7238000000000000000000000000fff9976782d46cc05630d1f6ebab18b2324d6b140000000000000000000000000000000000000000000000000000000000000bb8000000000000000000000000000000000000000000000000000000000000003c000000000000000000000000fe8729ae15e8cd6196e691e6c7c7c913e8c4d5400000000000000000000000000000000000000000000000000000000000000000ffffffffffffffffffffffffffffffffffffffffffffffffffee3c86c81f8000000000000000000000000000fffd8963efd1fc6a506488495d951d5263988d2500000000000000000000000000000000000000000000000000000000000001200000000000000000000000000000000000000000000000000000000000000000",
        "nonce": "0x11bb",
        "chainId": "0xaa36a7"
      },
      "additionalContracts": [],
      "isFixedGasLimit": false
    },
    {
      "hash": "0x1ce3102b75ef99c72d65e63c3fd16192066d2d6e5899c0b17d9c19ee98f42729",
      "transactionType": "CALL",
      "contractName": "SwapHelper",
      "contractAddress": "0xf9cab5fa57d2e5dab990aba00ef7947e53817b08",
      "function": "swap((address,address,uint24,int24,address),(bool,int256,uint160),bytes)",
      "arguments": [
        "(0x1c7D4B196Cb0C7B01d743Fbc6116a902379C7238, 0xfFf9976782d46CC05630D1f6eBAb18b2324d6B14, 3000, 60, 0xfe8729ae15e8cD6196e691e6c7c7C913E8c4D540)",
        "(false, -5000000000000000, 1461446703485210103287273052203988822378723970341)",
        "0x"
      ],
      "transaction": {
        "from": "0x63f976191f9dd75bd5b0fd81320d37fbc0d74080",
        "to": "0xf9cab5fa57d2e5dab990aba00ef7947e53817b08",
        "gas": "0x26f4f",
        "value": "0x0",
        "input": "0xf3cd914c0000000000000000000000001c7d4b196cb0c7b01d743fbc6116a902379c7238000000000000000000000000fff9976782d46cc05630d1f6ebab18b2324d6b140000000000000000000000000000000000000000000000000000000000000bb8000000000000000000000000000000000000000000000000000000000000003c000000000000000000000000fe8729ae15e8cd6196e691e6c7c7c913e8c4d5400000000000000000000000000000000000000000000000000000000000000000ffffffffffffffffffffffffffffffffffffffffffffffffffee3c86c81f8000000000000000000000000000fffd8963efd1fc6a506488495d951d5263988d2500000000000000000000000000000000000000000000000000000000000001200000000000000000000000000000000000000000000000000000000000000000",
        "nonce": "0x11bc",
        "chainId": "0xaa36a7"
      },
      "additionalContracts": [],
      "isFixedGasLimit": false
    }
  ],
  "receipts": [
    {
      "status": "0x1",
      "cumulativeGasUsed": "0xaa831c",
      "logs": [],
      "logsBloom": "0x00000000000000000000000000000000000000000000000000000000000000000000000000000000000000000000000000000000000000000000000000000000000000000000000000000000000000000000000000000000000000000000000000000000000000000000000000000000000000000000000000000000000000000000000000000000000000000000000000000000000000000000000000000000000000000000000000000000000000000000000000000000000000000000000000000000000000000000000000000000000000000000000000000000000000000000000000000000000000000000000000000000000000000000000000000000",
      "type": "0x2",
      "transactionHash": "0x9cf12a6406cca4f743e61f9b7f351fc507e95689c39167e4fec88805c0ca1cca",
      "transactionIndex": "0x5e",
      "blockHash": "0x2a1f6456baab8a99905ecd54db2361a27a22a78fc4ed950fe685a7f64a8c74e7",
      "blockNumber": "0x988ef6",
      "gasUsed": "0xd808b",
      "effectiveGasPrice": "0xfcc7a",
      "from": "0x63f976191f9dd75bd5b0fd81320d37fbc0d74080",
      "to": null,
      "contractAddress": "0xf9cab5fa57d2e5dab990aba00ef7947e53817b08"
    },
    {
      "status": "0x1",
      "cumulativeGasUsed": "0xad2638",
      "logs": [
        {
          "address": "0xfff9976782d46cc05630d1f6ebab18b2324d6b14",
          "topics": [
            "0x8c5be1e5ebec7d5bd14f71427d1e84f3dd0314c0f7b2291e5b200ac8c7c3b925",
            "0x00000000000000000000000063f976191f9dd75bd5b0fd81320d37fbc0d74080",
            "0x000000000000000000000000f9cab5fa57d2e5dab990aba00ef7947e53817b08"
          ],
          "data": "0xffffffffffffffffffffffffffffffffffffffffffffffffffffffffffffffff",
          "blockHash": "0x2a1f6456baab8a99905ecd54db2361a27a22a78fc4ed950fe685a7f64a8c74e7",
          "blockNumber": "0x988ef6",
          "blockTimestamp": "0x695ea778",
          "transactionHash": "0x97f0390976f1db9161b3f03869beafb898eee8121d74acd45e971cb622e4449a",
          "transactionIndex": "0x61",
          "logIndex": "0x83",
          "removed": false
        }
      ],
      "logsBloom": "0x00000000000000000000000000000000000000000000000000000000000000000000000000000000000000000000000000000000000010000000000000200000000000000000000000000000000000000000000000000000000000000000000000000000000000000000000000000000000000000000000000000000000000000040000000000000000000000000000000000000000000000000000000000000020020401000000000000000000000000000000000000000000000000000000000000000000400000002000000000000000000000000000000000000000000000010000000000000000000020000000000000000000000000000000000008000",
      "type": "0x2",
      "transactionHash": "0x97f0390976f1db9161b3f03869beafb898eee8121d74acd45e971cb622e4449a",
      "transactionIndex": "0x61",
      "blockHash": "0x2a1f6456baab8a99905ecd54db2361a27a22a78fc4ed950fe685a7f64a8c74e7",
      "blockNumber": "0x988ef6",
      "gasUsed": "0xb51c",
      "effectiveGasPrice": "0xfcc7a",
      "from": "0x63f976191f9dd75bd5b0fd81320d37fbc0d74080",
      "to": "0xfff9976782d46cc05630d1f6ebab18b2324d6b14",
      "contractAddress": null
    },
    {
      "status": "0x1",
      "cumulativeGasUsed": "0xc8348a",
      "logs": [
        {
          "address": "0x1c7d4b196cb0c7b01d743fbc6116a902379c7238",
          "topics": [
            "0x8c5be1e5ebec7d5bd14f71427d1e84f3dd0314c0f7b2291e5b200ac8c7c3b925",
            "0x00000000000000000000000063f976191f9dd75bd5b0fd81320d37fbc0d74080",
            "0x000000000000000000000000f9cab5fa57d2e5dab990aba00ef7947e53817b08"
          ],
          "data": "0xffffffffffffffffffffffffffffffffffffffffffffffffffffffffffffffff",
          "blockHash": "0x2a1f6456baab8a99905ecd54db2361a27a22a78fc4ed950fe685a7f64a8c74e7",
          "blockNumber": "0x988ef6",
          "blockTimestamp": "0x695ea778",
          "transactionHash": "0x0886ecf39088166a1387f277d74dbb95f29297874e8e95031a2d64cc0f807d29",
          "transactionIndex": "0x6f",
          "logIndex": "0x8e",
          "removed": false
        }
      ],
      "logsBloom": "0x00000000000000000000000000000000000000000000000000000000000200000000000000000000000000000000000000000000000010000000000000200000000000000000000000000000000000000000000000000000000000000000000000000000000000000000000000000000000000000000000000000000000000000000000000100000000000000000000000000000000000000000000000000000020000401000000000000000000000000000000000000000000000000000000000000000000400000000000000000000000000000000000000000000000000000010000000000000000010020000000000000000000000000000000000008000",
      "type": "0x2",
      "transactionHash": "0x0886ecf39088166a1387f277d74dbb95f29297874e8e95031a2d64cc0f807d29",
      "transactionIndex": "0x6f",
      "blockHash": "0x2a1f6456baab8a99905ecd54db2361a27a22a78fc4ed950fe685a7f64a8c74e7",
      "blockNumber": "0x988ef6",
      "gasUsed": "0xd9e9",
      "effectiveGasPrice": "0xfcc7a",
      "from": "0x63f976191f9dd75bd5b0fd81320d37fbc0d74080",
      "to": "0x1c7d4b196cb0c7b01d743fbc6116a902379c7238",
      "contractAddress": null
    },
    {
      "status": "0x1",
      "cumulativeGasUsed": "0xc9ded8",
      "logs": [
        {
          "address": "0x76e9e1affde82bb4544ce95ea58ffc2f9d45061f",
          "topics": [
            "0x40e9cecb9f5f1f1c5b9c97dec2917b7ee92e57ba5563708daca94dd84ad7112f",
            "0xce786b2f6023aa55bedfff2548e7e2b90b02f67afd457657b1894b60ae0b9a8f",
            "0x000000000000000000000000f9cab5fa57d2e5dab990aba00ef7947e53817b08"
          ],
          "data": "0x0000000000000000000000000000000000000000000000000000000000000000ffffffffffffffffffffffffffffffffffffffffffffffffffee3c86c81f800000000000000000000000000000179f2702456295fc80d4b3f7d297a78fa2107a000000000000000000000000000000000000000000000000000000000000006c00000000000000000000000000000000000000000000000000000000000b1e7d0000000000000000000000000000000000000000000000000000000000000bb8",
          "blockHash": "0x2a1f6456baab8a99905ecd54db2361a27a22a78fc4ed950fe685a7f64a8c74e7",
          "blockNumber": "0x988ef6",
          "blockTimestamp": "0x695ea778",
          "transactionHash": "0xbc87be4061b971695ed71990d0353ed73928d2dd0bf1b24230d04ba8e565627b",
          "transactionIndex": "0x70",
          "logIndex": "0x8f",
          "removed": false
        },
        {
          "address": "0xfe8729ae15e8cd6196e691e6c7c7c913e8c4d540",
          "topics": [
            "0xcd9f4ccdc13709817c4447834a44bef5d62ffe25139e5c329d8debc5c177cc79",
            "0xce786b2f6023aa55bedfff2548e7e2b90b02f67afd457657b1894b60ae0b9a8f"
          ],
          "data": "0x000000000000000000000000000000000000000000000000000000000000000000000000000000000000000000000000000000000000000000000da475abf00000000000000000000000000000000000000000000000000000000000000000000000000000000000000000000000000000000000000000000002b7c37140d0000000000000000000000000000000000000000000000000001fd97a572f858000",
          "blockHash": "0x2a1f6456baab8a99905ecd54db2361a27a22a78fc4ed950fe685a7f64a8c74e7",
          "blockNumber": "0x988ef6",
          "blockTimestamp": "0x695ea778",
          "transactionHash": "0xbc87be4061b971695ed71990d0353ed73928d2dd0bf1b24230d04ba8e565627b",
          "transactionIndex": "0x70",
          "logIndex": "0x90",
          "removed": false
        },
        {
          "address": "0xfff9976782d46cc05630d1f6ebab18b2324d6b14",
          "topics": [
            "0xddf252ad1be2c89b69c2b068fc378daa952ba7f163c4a11628f55a4df523b3ef",
            "0x00000000000000000000000063f976191f9dd75bd5b0fd81320d37fbc0d74080",
            "0x00000000000000000000000076e9e1affde82bb4544ce95ea58ffc2f9d45061f"
          ],
          "data": "0x0000000000000000000000000000000000000000000000000011c37937e08000",
          "blockHash": "0x2a1f6456baab8a99905ecd54db2361a27a22a78fc4ed950fe685a7f64a8c74e7",
          "blockNumber": "0x988ef6",
          "blockTimestamp": "0x695ea778",
          "transactionHash": "0xbc87be4061b971695ed71990d0353ed73928d2dd0bf1b24230d04ba8e565627b",
          "transactionIndex": "0x70",
          "logIndex": "0x91",
          "removed": false
        }
      ],
      "logsBloom": "0x00001000000000040000000000000000000000000000000000000010000000000000000000000000000000000000000000000000040010000000000000000000000000000000000000000008000000000000000000000820000000000000010000000000000000000000004000000000000000000000000000000016000000000040000000000000000000000000010000000000000800000000000000000000000020401000000000000000000000000000000000000004000001000000000000000002000404000002000000000000000000000000000000008000020000000000000000000000004000020000000000000000000000000000000000008000",
      "type": "0x2",
      "transactionHash": "0xbc87be4061b971695ed71990d0353ed73928d2dd0bf1b24230d04ba8e565627b",
      "transactionIndex": "0x70",
      "blockHash": "0x2a1f6456baab8a99905ecd54db2361a27a22a78fc4ed950fe685a7f64a8c74e7",
      "blockNumber": "0x988ef6",
      "gasUsed": "0x1aa4e",
      "effectiveGasPrice": "0xfcc7a",
      "from": "0x63f976191f9dd75bd5b0fd81320d37fbc0d74080",
      "to": "0xf9cab5fa57d2e5dab990aba00ef7947e53817b08",
      "contractAddress": null
    },
    {
      "status": "0x1",
      "cumulativeGasUsed": "0xcb88e6",
      "logs": [
        {
          "address": "0x76e9e1affde82bb4544ce95ea58ffc2f9d45061f",
          "topics": [
            "0x40e9cecb9f5f1f1c5b9c97dec2917b7ee92e57ba5563708daca94dd84ad7112f",
            "0xce786b2f6023aa55bedfff2548e7e2b90b02f67afd457657b1894b60ae0b9a8f",
            "0x000000000000000000000000f9cab5fa57d2e5dab990aba00ef7947e53817b08"
          ],
          "data": "0x0000000000000000000000000000000000000000000000000000000000000000ffffffffffffffffffffffffffffffffffffffffffffffffffee3c86c81f80000000000000000000000000000017c921de24afc564ccaec6ee575548bf0a5c54000000000000000000000000000000000000000000000000000000000000006c00000000000000000000000000000000000000000000000000000000000b1f070000000000000000000000000000000000000000000000000000000000000bb8",
          "blockHash": "0x2a1f6456baab8a99905ecd54db2361a27a22a78fc4ed950fe685a7f64a8c74e7",
          "blockNumber": "0x988ef6",
          "blockTimestamp": "0x695ea778",
          "transactionHash": "0x54423b5c6d61736c891690fcffb19be6eb95c3cb33946f071273b102d5706479",
          "transactionIndex": "0x71",
          "logIndex": "0x92",
          "removed": false
        },
        {
          "address": "0xfe8729ae15e8cd6196e691e6c7c7c913e8c4d540",
          "topics": [
            "0xcd9f4ccdc13709817c4447834a44bef5d62ffe25139e5c329d8debc5c177cc79",
            "0xce786b2f6023aa55bedfff2548e7e2b90b02f67afd457657b1894b60ae0b9a8f"
          ],
          "data": "0x000000000000000000000000000000000000000000000000000000000000000000000000000000000000000000000000000000000000000000000da475abf00000000000000000000000000000000000000000000000000000000000000000000000000000000000000000000000000000000000000000000002c567e6ecc0000000000000000000000000000000000000000000000000002079599a266a0000",
          "blockHash": "0x2a1f6456baab8a99905ecd54db2361a27a22a78fc4ed950fe685a7f64a8c74e7",
          "blockNumber": "0x988ef6",
          "blockTimestamp": "0x695ea778",
          "transactionHash": "0x54423b5c6d61736c891690fcffb19be6eb95c3cb33946f071273b102d5706479",
          "transactionIndex": "0x71",
          "logIndex": "0x93",
          "removed": false
        },
        {
          "address": "0xfff9976782d46cc05630d1f6ebab18b2324d6b14",
          "topics": [
            "0xddf252ad1be2c89b69c2b068fc378daa952ba7f163c4a11628f55a4df523b3ef",
            "0x00000000000000000000000063f976191f9dd75bd5b0fd81320d37fbc0d74080",
            "0x00000000000000000000000076e9e1affde82bb4544ce95ea58ffc2f9d45061f"
          ],
          "data": "0x0000000000000000000000000000000000000000000000000011c37937e08000",
          "blockHash": "0x2a1f6456baab8a99905ecd54db2361a27a22a78fc4ed950fe685a7f64a8c74e7",
          "blockNumber": "0x988ef6",
          "blockTimestamp": "0x695ea778",
          "transactionHash": "0x54423b5c6d61736c891690fcffb19be6eb95c3cb33946f071273b102d5706479",
          "transactionIndex": "0x71",
          "logIndex": "0x94",
          "removed": false
        }
      ],
      "logsBloom": "0x00001000000000040000000000000000000000000000000000000010000000000000000000000000000000000000000000000000040010000000000000000000000000000000000000000008000000000000000000000820000000000000010000000000000000000000004000000000000000000000000000000016000000000040000000000000000000000000010000000000000800000000000000000000000020401000000000000000000000000000000000000004000001000000000000000002000404000002000000000000000000000000000000008000020000000000000000000000004000020000000000000000000000000000000000008000",
      "type": "0x2",
      "transactionHash": "0x54423b5c6d61736c891690fcffb19be6eb95c3cb33946f071273b102d5706479",
      "transactionIndex": "0x71",
      "blockHash": "0x2a1f6456baab8a99905ecd54db2361a27a22a78fc4ed950fe685a7f64a8c74e7",
      "blockNumber": "0x988ef6",
      "gasUsed": "0x1aa0e",
      "effectiveGasPrice": "0xfcc7a",
      "from": "0x63f976191f9dd75bd5b0fd81320d37fbc0d74080",
      "to": "0xf9cab5fa57d2e5dab990aba00ef7947e53817b08",
      "contractAddress": null
    },
    {
      "status": "0x1",
      "cumulativeGasUsed": "0xcd32f8",
      "logs": [
        {
          "address": "0x76e9e1affde82bb4544ce95ea58ffc2f9d45061f",
          "topics": [
            "0x40e9cecb9f5f1f1c5b9c97dec2917b7ee92e57ba5563708daca94dd84ad7112f",
            "0xce786b2f6023aa55bedfff2548e7e2b90b02f67afd457657b1894b60ae0b9a8f",
            "0x000000000000000000000000f9cab5fa57d2e5dab990aba00ef7947e53817b08"
          ],
          "data": "0x0000000000000000000000000000000000000000000000000000000000000000ffffffffffffffffffffffffffffffffffffffffffffffffffee3c86c81f80000000000000000000000000000017f31cba03fcf4cd1888d9e4dc12e9ee72a82e000000000000000000000000000000000000000000000000000000000000006c00000000000000000000000000000000000000000000000000000000000b1f900000000000000000000000000000000000000000000000000000000000000bb8",
          "blockHash": "0x2a1f6456baab8a99905ecd54db2361a27a22a78fc4ed950fe685a7f64a8c74e7",
          "blockNumber": "0x988ef6",
          "blockTimestamp": "0x695ea778",
          "transactionHash": "0xd6e54cc9dea02d56120500c9a7836aecd6fc8c23ca5994968bd2244a111d8422",
          "transactionIndex": "0x72",
          "logIndex": "0x95",
          "removed": false
        },
        {
          "address": "0xfe8729ae15e8cd6196e691e6c7c7c913e8c4d540",
          "topics": [
            "0xcd9f4ccdc13709817c4447834a44bef5d62ffe25139e5c329d8debc5c177cc79",
            "0xce786b2f6023aa55bedfff2548e7e2b90b02f67afd457657b1894b60ae0b9a8f"
          ],
          "data": "0x000000000000000000000000000000000000000000000000000000000000000000000000000000000000000000000000000000000000000000000da475abf00000000000000000000000000000000000000000000000000000000000000000000000000000000000000000000000000000000000000000000002d30c5c98b000000000000000000000000000000000000000000000000000211938dd1d4e8000",
          "blockHash": "0x2a1f6456baab8a99905ecd54db2361a27a22a78fc4ed950fe685a7f64a8c74e7",
          "blockNumber": "0x988ef6",
          "blockTimestamp": "0x695ea778",
          "transactionHash": "0xd6e54cc9dea02d56120500c9a7836aecd6fc8c23ca5994968bd2244a111d8422",
          "transactionIndex": "0x72",
          "logIndex": "0x96",
          "removed": false
        },
        {
          "address": "0xfff9976782d46cc05630d1f6ebab18b2324d6b14",
          "topics": [
            "0xddf252ad1be2c89b69c2b068fc378daa952ba7f163c4a11628f55a4df523b3ef",
            "0x00000000000000000000000063f976191f9dd75bd5b0fd81320d37fbc0d74080",
            "0x00000000000000000000000076e9e1affde82bb4544ce95ea58ffc2f9d45061f"
          ],
          "data": "0x0000000000000000000000000000000000000000000000000011c37937e08000",
          "blockHash": "0x2a1f6456baab8a99905ecd54db2361a27a22a78fc4ed950fe685a7f64a8c74e7",
          "blockNumber": "0x988ef6",
          "blockTimestamp": "0x695ea778",
          "transactionHash": "0xd6e54cc9dea02d56120500c9a7836aecd6fc8c23ca5994968bd2244a111d8422",
          "transactionIndex": "0x72",
          "logIndex": "0x97",
          "removed": false
        }
      ],
      "logsBloom": "0x00001000000000040000000000000000000000000000000000000010000000000000000000000000000000000000000000000000040010000000000000000000000000000000000000000008000000000000000000000820000000000000010000000000000000000000004000000000000000000000000000000016000000000040000000000000000000000000010000000000000800000000000000000000000020401000000000000000000000000000000000000004000001000000000000000002000404000002000000000000000000000000000000008000020000000000000000000000004000020000000000000000000000000000000000008000",
      "type": "0x2",
      "transactionHash": "0xd6e54cc9dea02d56120500c9a7836aecd6fc8c23ca5994968bd2244a111d8422",
      "transactionIndex": "0x72",
      "blockHash": "0x2a1f6456baab8a99905ecd54db2361a27a22a78fc4ed950fe685a7f64a8c74e7",
      "blockNumber": "0x988ef6",
      "gasUsed": "0x1aa12",
      "effectiveGasPrice": "0xfcc7a",
      "from": "0x63f976191f9dd75bd5b0fd81320d37fbc0d74080",
      "to": "0xf9cab5fa57d2e5dab990aba00ef7947e53817b08",
      "contractAddress": null
    },
    {
      "status": "0x1",
      "cumulativeGasUsed": "0xcedc86",
      "logs": [
        {
          "address": "0x76e9e1affde82bb4544ce95ea58ffc2f9d45061f",
          "topics": [
            "0x40e9cecb9f5f1f1c5b9c97dec2917b7ee92e57ba5563708daca94dd84ad7112f",
            "0xce786b2f6023aa55bedfff2548e7e2b90b02f67afd457657b1894b60ae0b9a8f",
            "0x000000000000000000000000f9cab5fa57d2e5dab990aba00ef7947e53817b08"
          ],
          "data": "0x0000000000000000000000000000000000000000000000000000000000000000ffffffffffffffffffffffffffffffffffffffffffffffffffee3c86c81f800000000000000000000000000000181d1795e34a24356462ecdb60d08b1ddaf408000000000000000000000000000000000000000000000000000000000000006c00000000000000000000000000000000000000000000000000000000000b20190000000000000000000000000000000000000000000000000000000000000bb8",
          "blockHash": "0x2a1f6456baab8a99905ecd54db2361a27a22a78fc4ed950fe685a7f64a8c74e7",
          "blockNumber": "0x988ef6",
          "blockTimestamp": "0x695ea778",
          "transactionHash": "0x07539da2c45fa32a7131f5e8dea53a9cc8b8193980d76cbf2345537e958df869",
          "transactionIndex": "0x73",
          "logIndex": "0x98",
          "removed": false
        },
        {
          "address": "0xfe8729ae15e8cd6196e691e6c7c7c913e8c4d540",
          "topics": [
            "0xcd9f4ccdc13709817c4447834a44bef5d62ffe25139e5c329d8debc5c177cc79",
            "0xce786b2f6023aa55bedfff2548e7e2b90b02f67afd457657b1894b60ae0b9a8f"
          ],
          "data": "0x000000000000000000000000000000000000000000000000000000000000000000000000000000000000000000000000000000000000000000000da475abf00000000000000000000000000000000000000000000000000000000000000000000000000000000000000000000000000000000000000000000002e0b0d244a00000000000000000000000000000000000000000000000000021b9182014330000",
          "blockHash": "0x2a1f6456baab8a99905ecd54db2361a27a22a78fc4ed950fe685a7f64a8c74e7",
          "blockNumber": "0x988ef6",
          "blockTimestamp": "0x695ea778",
          "transactionHash": "0x07539da2c45fa32a7131f5e8dea53a9cc8b8193980d76cbf2345537e958df869",
          "transactionIndex": "0x73",
          "logIndex": "0x99",
          "removed": false
        },
        {
          "address": "0xfff9976782d46cc05630d1f6ebab18b2324d6b14",
          "topics": [
            "0xddf252ad1be2c89b69c2b068fc378daa952ba7f163c4a11628f55a4df523b3ef",
            "0x00000000000000000000000063f976191f9dd75bd5b0fd81320d37fbc0d74080",
            "0x00000000000000000000000076e9e1affde82bb4544ce95ea58ffc2f9d45061f"
          ],
          "data": "0x0000000000000000000000000000000000000000000000000011c37937e08000",
          "blockHash": "0x2a1f6456baab8a99905ecd54db2361a27a22a78fc4ed950fe685a7f64a8c74e7",
          "blockNumber": "0x988ef6",
          "blockTimestamp": "0x695ea778",
          "transactionHash": "0x07539da2c45fa32a7131f5e8dea53a9cc8b8193980d76cbf2345537e958df869",
          "transactionIndex": "0x73",
          "logIndex": "0x9a",
          "removed": false
        }
      ],
      "logsBloom": "0x00001000000000040000000000000000000000000000000000000010000000000000000000000000000000000000000000000000040010000000000000000000000000000000000000000008000000000000000000000820000000000000010000000000000000000000004000000000000000000000000000000016000000000040000000000000000000000000010000000000000800000000000000000000000020401000000000000000000000000000000000000004000001000000000000000002000404000002000000000000000000000000000000008000020000000000000000000000004000020000000000000000000000000000000000008000",
      "type": "0x2",
      "transactionHash": "0x07539da2c45fa32a7131f5e8dea53a9cc8b8193980d76cbf2345537e958df869",
      "transactionIndex": "0x73",
      "blockHash": "0x2a1f6456baab8a99905ecd54db2361a27a22a78fc4ed950fe685a7f64a8c74e7",
      "blockNumber": "0x988ef6",
      "gasUsed": "0x1a98e",
      "effectiveGasPrice": "0xfcc7a",
      "from": "0x63f976191f9dd75bd5b0fd81320d37fbc0d74080",
      "to": "0xf9cab5fa57d2e5dab990aba00ef7947e53817b08",
      "contractAddress": null
    },
    {
      "status": "0x1",
      "cumulativeGasUsed": "0xd082e0",
      "logs": [
        {
          "address": "0x76e9e1affde82bb4544ce95ea58ffc2f9d45061f",
          "topics": [
            "0x40e9cecb9f5f1f1c5b9c97dec2917b7ee92e57ba5563708daca94dd84ad7112f",
            "0xce786b2f6023aa55bedfff2548e7e2b90b02f67afd457657b1894b60ae0b9a8f",
            "0x000000000000000000000000f9cab5fa57d2e5dab990aba00ef7947e53817b08"
          ],
          "data": "0x0000000000000000000000000000000000000000000000000000000000000000ffffffffffffffffffffffffffffffffffffffffffffffffffee3c86c81f80000000000000000000000000000018471271c297539db03cffd1e58e2c4d433fe2000000000000000000000000000000000000000000000000000000000000006c00000000000000000000000000000000000000000000000000000000000b20a00000000000000000000000000000000000000000000000000000000000000bb8",
          "blockHash": "0x2a1f6456baab8a99905ecd54db2361a27a22a78fc4ed950fe685a7f64a8c74e7",
          "blockNumber": "0x988ef6",
          "blockTimestamp": "0x695ea778",
          "transactionHash": "0x98095969c1e74f43b74ac4037b7b249617d41d2911f70c029f14bdba5717eea8",
          "transactionIndex": "0x74",
          "logIndex": "0x9b",
          "removed": false
        },
        {
          "address": "0xfe8729ae15e8cd6196e691e6c7c7c913e8c4d540",
          "topics": [
            "0xcd9f4ccdc13709817c4447834a44bef5d62ffe25139e5c329d8debc5c177cc79",
            "0xce786b2f6023aa55bedfff2548e7e2b90b02f67afd457657b1894b60ae0b9a8f"
          ],
          "data": "0x000000000000000000000000000000000000000000000000000000000000000000000000000000000000000000000000000000000000000000000da475abf00000000000000000000000000000000000000000000000000000000000000000000000000000000000000000000000000000000000000000000002ee5547f090000000000000000000000000000000000000000000000000002258f7630b178000",
          "blockHash": "0x2a1f6456baab8a99905ecd54db2361a27a22a78fc4ed950fe685a7f64a8c74e7",
          "blockNumber": "0x988ef6",
          "blockTimestamp": "0x695ea778",
          "transactionHash": "0x98095969c1e74f43b74ac4037b7b249617d41d2911f70c029f14bdba5717eea8",
          "transactionIndex": "0x74",
          "logIndex": "0x9c",
          "removed": false
        },
        {
          "address": "0xfff9976782d46cc05630d1f6ebab18b2324d6b14",
          "topics": [
            "0xddf252ad1be2c89b69c2b068fc378daa952ba7f163c4a11628f55a4df523b3ef",
            "0x00000000000000000000000063f976191f9dd75bd5b0fd81320d37fbc0d74080",
            "0x00000000000000000000000076e9e1affde82bb4544ce95ea58ffc2f9d45061f"
          ],
          "data": "0x0000000000000000000000000000000000000000000000000011c37937e08000",
          "blockHash": "0x2a1f6456baab8a99905ecd54db2361a27a22a78fc4ed950fe685a7f64a8c74e7",
          "blockNumber": "0x988ef6",
          "blockTimestamp": "0x695ea778",
          "transactionHash": "0x98095969c1e74f43b74ac4037b7b249617d41d2911f70c029f14bdba5717eea8",
          "transactionIndex": "0x74",
          "logIndex": "0x9d",
          "removed": false
        }
      ],
      "logsBloom": "0x00001000000000040000000000000000000000000000000000000010000000000000000000000000000000000000000000000000040010000000000000000000000000000000000000000008000000000000000000000820000000000000010000000000000000000000004000000000000000000000000000000016000000000040000000000000000000000000010000000000000800000000000000000000000020401000000000000000000000000000000000000004000001000000000000000002000404000002000000000000000000000000000000008000020000000000000000000000004000020000000000000000000000000000000000008000",
      "type": "0x2",
      "transactionHash": "0x98095969c1e74f43b74ac4037b7b249617d41d2911f70c029f14bdba5717eea8",
      "transactionIndex": "0x74",
      "blockHash": "0x2a1f6456baab8a99905ecd54db2361a27a22a78fc4ed950fe685a7f64a8c74e7",
      "blockNumber": "0x988ef6",
      "gasUsed": "0x1a65a",
      "effectiveGasPrice": "0xfcc7a",
      "from": "0x63f976191f9dd75bd5b0fd81320d37fbc0d74080",
      "to": "0xf9cab5fa57d2e5dab990aba00ef7947e53817b08",
      "contractAddress": null
    },
    {
      "status": "0x1",
      "cumulativeGasUsed": "0x52e537",
      "logs": [
        {
          "address": "0x76e9e1affde82bb4544ce95ea58ffc2f9d45061f",
          "topics": [
            "0x40e9cecb9f5f1f1c5b9c97dec2917b7ee92e57ba5563708daca94dd84ad7112f",
            "0xce786b2f6023aa55bedfff2548e7e2b90b02f67afd457657b1894b60ae0b9a8f",
            "0x000000000000000000000000f9cab5fa57d2e5dab990aba00ef7947e53817b08"
          ],
          "data": "0x0000000000000000000000000000000000000000000000000000000000000000ffffffffffffffffffffffffffffffffffffffffffffffffffee3c86c81f80000000000000000000000000000018710d4da1e48305fc1712c86a4bcd7cab8bbc000000000000000000000000000000000000000000000000000000000000006c00000000000000000000000000000000000000000000000000000000000b21270000000000000000000000000000000000000000000000000000000000000bb8",
          "blockHash": "0x1573a24a8403c24d47b08ab0b0da8fb86918e2930fe3c5cdd627c9546ba8314a",
          "blockNumber": "0x988ef7",
          "blockTimestamp": "0x695ea784",
          "transactionHash": "0x6e835382eeb88743eba062bd7d94b2c86d7cea2a4ad9446935cebfe5aba39d7e",
          "transactionIndex": "0x39",
          "logIndex": "0x4c",
          "removed": false
        },
        {
          "address": "0xfe8729ae15e8cd6196e691e6c7c7c913e8c4d540",
          "topics": [
            "0xcd9f4ccdc13709817c4447834a44bef5d62ffe25139e5c329d8debc5c177cc79",
            "0xce786b2f6023aa55bedfff2548e7e2b90b02f67afd457657b1894b60ae0b9a8f"
          ],
          "data": "0x000000000000000000000000000000000000000000000000000000000000000000000000000000000000000000000000000000000000000000000da475abf00000000000000000000000000000000000000000000000000000000000000000000000000000000000000000000000000000000000000000000002fbf9bd9c800000000000000000000000000000000000000000000000000022f8d6a601fc0000",
          "blockHash": "0x1573a24a8403c24d47b08ab0b0da8fb86918e2930fe3c5cdd627c9546ba8314a",
          "blockNumber": "0x988ef7",
          "blockTimestamp": "0x695ea784",
          "transactionHash": "0x6e835382eeb88743eba062bd7d94b2c86d7cea2a4ad9446935cebfe5aba39d7e",
          "transactionIndex": "0x39",
          "logIndex": "0x4d",
          "removed": false
        },
        {
          "address": "0xfff9976782d46cc05630d1f6ebab18b2324d6b14",
          "topics": [
            "0xddf252ad1be2c89b69c2b068fc378daa952ba7f163c4a11628f55a4df523b3ef",
            "0x00000000000000000000000063f976191f9dd75bd5b0fd81320d37fbc0d74080",
            "0x00000000000000000000000076e9e1affde82bb4544ce95ea58ffc2f9d45061f"
          ],
          "data": "0x0000000000000000000000000000000000000000000000000011c37937e08000",
          "blockHash": "0x1573a24a8403c24d47b08ab0b0da8fb86918e2930fe3c5cdd627c9546ba8314a",
          "blockNumber": "0x988ef7",
          "blockTimestamp": "0x695ea784",
          "transactionHash": "0x6e835382eeb88743eba062bd7d94b2c86d7cea2a4ad9446935cebfe5aba39d7e",
          "transactionIndex": "0x39",
          "logIndex": "0x4e",
          "removed": false
        }
      ],
      "logsBloom": "0x00001000000000040000000000000000000000000000000000000010000000000000000000000000000000000000000000000000040010000000000000000000000000000000000000000008000000000000000000000820000000000000010000000000000000000000004000000000000000000000000000000016000000000040000000000000000000000000010000000000000800000000000000000000000020401000000000000000000000000000000000000004000001000000000000000002000404000002000000000000000000000000000000008000020000000000000000000000004000020000000000000000000000000000000000008000",
      "type": "0x2",
      "transactionHash": "0x6e835382eeb88743eba062bd7d94b2c86d7cea2a4ad9446935cebfe5aba39d7e",
      "transactionIndex": "0x39",
      "blockHash": "0x1573a24a8403c24d47b08ab0b0da8fb86918e2930fe3c5cdd627c9546ba8314a",
      "blockNumber": "0x988ef7",
      "gasUsed": "0x1a9b2",
      "effectiveGasPrice": "0xfd6c1",
      "from": "0x63f976191f9dd75bd5b0fd81320d37fbc0d74080",
      "to": "0xf9cab5fa57d2e5dab990aba00ef7947e53817b08",
      "contractAddress": null
    },
    {
      "status": "0x1",
      "cumulativeGasUsed": "0x548f49",
      "logs": [
        {
          "address": "0x76e9e1affde82bb4544ce95ea58ffc2f9d45061f",
          "topics": [
            "0x40e9cecb9f5f1f1c5b9c97dec2917b7ee92e57ba5563708daca94dd84ad7112f",
            "0xce786b2f6023aa55bedfff2548e7e2b90b02f67afd457657b1894b60ae0b9a8f",
            "0x000000000000000000000000f9cab5fa57d2e5dab990aba00ef7947e53817b08"
          ],
          "data": "0x0000000000000000000000000000000000000000000000000000000000000000ffffffffffffffffffffffffffffffffffffffffffffffffffee3c86c81f800000000000000000000000000000189b08298131b26e47f125beef096eac13d796000000000000000000000000000000000000000000000000000000000000006c00000000000000000000000000000000000000000000000000000000000b21ad0000000000000000000000000000000000000000000000000000000000000bb8",
          "blockHash": "0x1573a24a8403c24d47b08ab0b0da8fb86918e2930fe3c5cdd627c9546ba8314a",
          "blockNumber": "0x988ef7",
          "blockTimestamp": "0x695ea784",
          "transactionHash": "0xafac17fe8113665bce29fdce1570da109113f428200c941132e8e98e0ac8cdde",
          "transactionIndex": "0x3a",
          "logIndex": "0x4f",
          "removed": false
        },
        {
          "address": "0xfe8729ae15e8cd6196e691e6c7c7c913e8c4d540",
          "topics": [
            "0xcd9f4ccdc13709817c4447834a44bef5d62ffe25139e5c329d8debc5c177cc79",
            "0xce786b2f6023aa55bedfff2548e7e2b90b02f67afd457657b1894b60ae0b9a8f"
          ],
          "data": "0x000000000000000000000000000000000000000000000000000000000000000000000000000000000000000000000000000000000000000000000da475abf00000000000000000000000000000000000000000000000000000000000000000000000000000000000000000000000000000000000000000000003099e334870000000000000000000000000000000000000000000000000002398b5e8f8e08000",
          "blockHash": "0x1573a24a8403c24d47b08ab0b0da8fb86918e2930fe3c5cdd627c9546ba8314a",
          "blockNumber": "0x988ef7",
          "blockTimestamp": "0x695ea784",
          "transactionHash": "0xafac17fe8113665bce29fdce1570da109113f428200c941132e8e98e0ac8cdde",
          "transactionIndex": "0x3a",
          "logIndex": "0x50",
          "removed": false
        },
        {
          "address": "0xfff9976782d46cc05630d1f6ebab18b2324d6b14",
          "topics": [
            "0xddf252ad1be2c89b69c2b068fc378daa952ba7f163c4a11628f55a4df523b3ef",
            "0x00000000000000000000000063f976191f9dd75bd5b0fd81320d37fbc0d74080",
            "0x00000000000000000000000076e9e1affde82bb4544ce95ea58ffc2f9d45061f"
          ],
          "data": "0x0000000000000000000000000000000000000000000000000011c37937e08000",
          "blockHash": "0x1573a24a8403c24d47b08ab0b0da8fb86918e2930fe3c5cdd627c9546ba8314a",
          "blockNumber": "0x988ef7",
          "blockTimestamp": "0x695ea784",
          "transactionHash": "0xafac17fe8113665bce29fdce1570da109113f428200c941132e8e98e0ac8cdde",
          "transactionIndex": "0x3a",
          "logIndex": "0x51",
          "removed": false
        }
      ],
      "logsBloom": "0x00001000000000040000000000000000000000000000000000000010000000000000000000000000000000000000000000000000040010000000000000000000000000000000000000000008000000000000000000000820000000000000010000000000000000000000004000000000000000000000000000000016000000000040000000000000000000000000010000000000000800000000000000000000000020401000000000000000000000000000000000000004000001000000000000000002000404000002000000000000000000000000000000008000020000000000000000000000004000020000000000000000000000000000000000008000",
      "type": "0x2",
      "transactionHash": "0xafac17fe8113665bce29fdce1570da109113f428200c941132e8e98e0ac8cdde",
      "transactionIndex": "0x3a",
      "blockHash": "0x1573a24a8403c24d47b08ab0b0da8fb86918e2930fe3c5cdd627c9546ba8314a",
      "blockNumber": "0x988ef7",
      "gasUsed": "0x1aa12",
      "effectiveGasPrice": "0xfd6c1",
      "from": "0x63f976191f9dd75bd5b0fd81320d37fbc0d74080",
      "to": "0xf9cab5fa57d2e5dab990aba00ef7947e53817b08",
      "contractAddress": null
    },
    {
      "status": "0x1",
      "cumulativeGasUsed": "0x5635a3",
      "logs": [
        {
          "address": "0x76e9e1affde82bb4544ce95ea58ffc2f9d45061f",
          "topics": [
            "0x40e9cecb9f5f1f1c5b9c97dec2917b7ee92e57ba5563708daca94dd84ad7112f",
            "0xce786b2f6023aa55bedfff2548e7e2b90b02f67afd457657b1894b60ae0b9a8f",
            "0x000000000000000000000000f9cab5fa57d2e5dab990aba00ef7947e53817b08"
          ],
          "data": "0x0000000000000000000000000000000000000000000000000000000000000000ffffffffffffffffffffffffffffffffffffffffffffffffffee3c86c81f80000000000000000000000000000018c50305607ee1d693cb38b573c70fdb7c2370000000000000000000000000000000000000000000000000000000000000006c00000000000000000000000000000000000000000000000000000000000b22320000000000000000000000000000000000000000000000000000000000000bb8",
          "blockHash": "0x1573a24a8403c24d47b08ab0b0da8fb86918e2930fe3c5cdd627c9546ba8314a",
          "blockNumber": "0x988ef7",
          "blockTimestamp": "0x695ea784",
          "transactionHash": "0x6ba9faa626727b54c842355d993ee8981d8d54153a94023c05445db5b0233025",
          "transactionIndex": "0x3b",
          "logIndex": "0x52",
          "removed": false
        },
        {
          "address": "0xfe8729ae15e8cd6196e691e6c7c7c913e8c4d540",
          "topics": [
            "0xcd9f4ccdc13709817c4447834a44bef5d62ffe25139e5c329d8debc5c177cc79",
            "0xce786b2f6023aa55bedfff2548e7e2b90b02f67afd457657b1894b60ae0b9a8f"
          ],
          "data": "0x000000000000000000000000000000000000000000000000000000000000000000000000000000000000000000000000000000000000000000000da475abf000000000000000000000000000000000000000000000000000000000000000000000000000000000000000000000000000000000000000000000031742a8f460000000000000000000000000000000000000000000000000002438952befc50000",
          "blockHash": "0x1573a24a8403c24d47b08ab0b0da8fb86918e2930fe3c5cdd627c9546ba8314a",
          "blockNumber": "0x988ef7",
          "blockTimestamp": "0x695ea784",
          "transactionHash": "0x6ba9faa626727b54c842355d993ee8981d8d54153a94023c05445db5b0233025",
          "transactionIndex": "0x3b",
          "logIndex": "0x53",
          "removed": false
        },
        {
          "address": "0xfff9976782d46cc05630d1f6ebab18b2324d6b14",
          "topics": [
            "0xddf252ad1be2c89b69c2b068fc378daa952ba7f163c4a11628f55a4df523b3ef",
            "0x00000000000000000000000063f976191f9dd75bd5b0fd81320d37fbc0d74080",
            "0x00000000000000000000000076e9e1affde82bb4544ce95ea58ffc2f9d45061f"
          ],
          "data": "0x0000000000000000000000000000000000000000000000000011c37937e08000",
          "blockHash": "0x1573a24a8403c24d47b08ab0b0da8fb86918e2930fe3c5cdd627c9546ba8314a",
          "blockNumber": "0x988ef7",
          "blockTimestamp": "0x695ea784",
          "transactionHash": "0x6ba9faa626727b54c842355d993ee8981d8d54153a94023c05445db5b0233025",
          "transactionIndex": "0x3b",
          "logIndex": "0x54",
          "removed": false
        }
      ],
      "logsBloom": "0x00001000000000040000000000000000000000000000000000000010000000000000000000000000000000000000000000000000040010000000000000000000000000000000000000000008000000000000000000000820000000000000010000000000000000000000004000000000000000000000000000000016000000000040000000000000000000000000010000000000000800000000000000000000000020401000000000000000000000000000000000000004000001000000000000000002000404000002000000000000000000000000000000008000020000000000000000000000004000020000000000000000000000000000000000008000",
      "type": "0x2",
      "transactionHash": "0x6ba9faa626727b54c842355d993ee8981d8d54153a94023c05445db5b0233025",
      "transactionIndex": "0x3b",
      "blockHash": "0x1573a24a8403c24d47b08ab0b0da8fb86918e2930fe3c5cdd627c9546ba8314a",
      "blockNumber": "0x988ef7",
      "gasUsed": "0x1a65a",
      "effectiveGasPrice": "0xfd6c1",
      "from": "0x63f976191f9dd75bd5b0fd81320d37fbc0d74080",
      "to": "0xf9cab5fa57d2e5dab990aba00ef7947e53817b08",
      "contractAddress": null
    },
    {
      "status": "0x1",
      "cumulativeGasUsed": "0x57dbfd",
      "logs": [
        {
          "address": "0x76e9e1affde82bb4544ce95ea58ffc2f9d45061f",
          "topics": [
            "0x40e9cecb9f5f1f1c5b9c97dec2917b7ee92e57ba5563708daca94dd84ad7112f",
            "0xce786b2f6023aa55bedfff2548e7e2b90b02f67afd457657b1894b60ae0b9a8f",
            "0x000000000000000000000000f9cab5fa57d2e5dab990aba00ef7947e53817b08"
          ],
          "data": "0x0000000000000000000000000000000000000000000000000000000000000000ffffffffffffffffffffffffffffffffffffffffffffffffffee3c86c81f80000000000000000000000000000018eefde13fcc113edfa54babf884b10ae46f4a000000000000000000000000000000000000000000000000000000000000006c00000000000000000000000000000000000000000000000000000000000b22b60000000000000000000000000000000000000000000000000000000000000bb8",
          "blockHash": "0x1573a24a8403c24d47b08ab0b0da8fb86918e2930fe3c5cdd627c9546ba8314a",
          "blockNumber": "0x988ef7",
          "blockTimestamp": "0x695ea784",
          "transactionHash": "0xd6c83be79a0744f413970dadc8fa70f63fc41a4128afdeeb5039bb6a7874a037",
          "transactionIndex": "0x3c",
          "logIndex": "0x55",
          "removed": false
        },
        {
          "address": "0xfe8729ae15e8cd6196e691e6c7c7c913e8c4d540",
          "topics": [
            "0xcd9f4ccdc13709817c4447834a44bef5d62ffe25139e5c329d8debc5c177cc79",
            "0xce786b2f6023aa55bedfff2548e7e2b90b02f67afd457657b1894b60ae0b9a8f"
          ],
          "data": "0x000000000000000000000000000000000000000000000000000000000000000000000000000000000000000000000000000000000000000000000da475abf0000000000000000000000000000000000000000000000000000000000000000000000000000000000000000000000000000000000000000000000324e71ea0500000000000000000000000000000000000000000000000000024d8746ee6a98000",
          "blockHash": "0x1573a24a8403c24d47b08ab0b0da8fb86918e2930fe3c5cdd627c9546ba8314a",
          "blockNumber": "0x988ef7",
          "blockTimestamp": "0x695ea784",
          "transactionHash": "0xd6c83be79a0744f413970dadc8fa70f63fc41a4128afdeeb5039bb6a7874a037",
          "transactionIndex": "0x3c",
          "logIndex": "0x56",
          "removed": false
        },
        {
          "address": "0xfff9976782d46cc05630d1f6ebab18b2324d6b14",
          "topics": [
            "0xddf252ad1be2c89b69c2b068fc378daa952ba7f163c4a11628f55a4df523b3ef",
            "0x00000000000000000000000063f976191f9dd75bd5b0fd81320d37fbc0d74080",
            "0x00000000000000000000000076e9e1affde82bb4544ce95ea58ffc2f9d45061f"
          ],
          "data": "0x0000000000000000000000000000000000000000000000000011c37937e08000",
          "blockHash": "0x1573a24a8403c24d47b08ab0b0da8fb86918e2930fe3c5cdd627c9546ba8314a",
          "blockNumber": "0x988ef7",
          "blockTimestamp": "0x695ea784",
          "transactionHash": "0xd6c83be79a0744f413970dadc8fa70f63fc41a4128afdeeb5039bb6a7874a037",
          "transactionIndex": "0x3c",
          "logIndex": "0x57",
          "removed": false
        }
      ],
      "logsBloom": "0x00001000000000040000000000000000000000000000000000000010000000000000000000000000000000000000000000000000040010000000000000000000000000000000000000000008000000000000000000000820000000000000010000000000000000000000004000000000000000000000000000000016000000000040000000000000000000000000010000000000000800000000000000000000000020401000000000000000000000000000000000000004000001000000000000000002000404000002000000000000000000000000000000008000020000000000000000000000004000020000000000000000000000000000000000008000",
      "type": "0x2",
      "transactionHash": "0xd6c83be79a0744f413970dadc8fa70f63fc41a4128afdeeb5039bb6a7874a037",
      "transactionIndex": "0x3c",
      "blockHash": "0x1573a24a8403c24d47b08ab0b0da8fb86918e2930fe3c5cdd627c9546ba8314a",
      "blockNumber": "0x988ef7",
      "gasUsed": "0x1a65a",
      "effectiveGasPrice": "0xfd6c1",
      "from": "0x63f976191f9dd75bd5b0fd81320d37fbc0d74080",
      "to": "0xf9cab5fa57d2e5dab990aba00ef7947e53817b08",
      "contractAddress": null
    },
    {
      "status": "0x1",
      "cumulativeGasUsed": "0x5985eb",
      "logs": [
        {
          "address": "0x76e9e1affde82bb4544ce95ea58ffc2f9d45061f",
          "topics": [
            "0x40e9cecb9f5f1f1c5b9c97dec2917b7ee92e57ba5563708daca94dd84ad7112f",
            "0xce786b2f6023aa55bedfff2548e7e2b90b02f67afd457657b1894b60ae0b9a8f",
            "0x000000000000000000000000f9cab5fa57d2e5dab990aba00ef7947e53817b08"
          ],
          "data": "0x0000000000000000000000000000000000000000000000000000000000000000ffffffffffffffffffffffffffffffffffffffffffffffffffee3c86c81f8000000000000000000000000000001918f8bd1f1940a72b7f5ea27d42523a4cbb24000000000000000000000000000000000000000000000000000000000000006c00000000000000000000000000000000000000000000000000000000000b23390000000000000000000000000000000000000000000000000000000000000bb8",
          "blockHash": "0x1573a24a8403c24d47b08ab0b0da8fb86918e2930fe3c5cdd627c9546ba8314a",
          "blockNumber": "0x988ef7",
          "blockTimestamp": "0x695ea784",
          "transactionHash": "0x8d0abcb005a1d17aec0d4ec2cd48b88b66c90dbe548b9a187134e5aec9e0e308",
          "transactionIndex": "0x3d",
          "logIndex": "0x58",
          "removed": false
        },
        {
          "address": "0xfe8729ae15e8cd6196e691e6c7c7c913e8c4d540",
          "topics": [
            "0xcd9f4ccdc13709817c4447834a44bef5d62ffe25139e5c329d8debc5c177cc79",
            "0xce786b2f6023aa55bedfff2548e7e2b90b02f67afd457657b1894b60ae0b9a8f"
          ],
          "data": "0x000000000000000000000000000000000000000000000000000000000000000000000000000000000000000000000000000000000000000000000da475abf00000000000000000000000000000000000000000000000000000000000000000000000000000000000000000000000000000000000000000000003328b944c4000000000000000000000000000000000000000000000000000257853b1dd8e0000",
          "blockHash": "0x1573a24a8403c24d47b08ab0b0da8fb86918e2930fe3c5cdd627c9546ba8314a",
          "blockNumber": "0x988ef7",
          "blockTimestamp": "0x695ea784",
          "transactionHash": "0x8d0abcb005a1d17aec0d4ec2cd48b88b66c90dbe548b9a187134e5aec9e0e308",
          "transactionIndex": "0x3d",
          "logIndex": "0x59",
          "removed": false
        },
        {
          "address": "0xfff9976782d46cc05630d1f6ebab18b2324d6b14",
          "topics": [
            "0xddf252ad1be2c89b69c2b068fc378daa952ba7f163c4a11628f55a4df523b3ef",
            "0x00000000000000000000000063f976191f9dd75bd5b0fd81320d37fbc0d74080",
            "0x00000000000000000000000076e9e1affde82bb4544ce95ea58ffc2f9d45061f"
          ],
          "data": "0x0000000000000000000000000000000000000000000000000011c37937e08000",
          "blockHash": "0x1573a24a8403c24d47b08ab0b0da8fb86918e2930fe3c5cdd627c9546ba8314a",
          "blockNumber": "0x988ef7",
          "blockTimestamp": "0x695ea784",
          "transactionHash": "0x8d0abcb005a1d17aec0d4ec2cd48b88b66c90dbe548b9a187134e5aec9e0e308",
          "transactionIndex": "0x3d",
          "logIndex": "0x5a",
          "removed": false
        }
      ],
      "logsBloom": "0x00001000000000040000000000000000000000000000000000000010000000000000000000000000000000000000000000000000040010000000000000000000000000000000000000000008000000000000000000000820000000000000010000000000000000000000004000000000000000000000000000000016000000000040000000000000000000000000010000000000000800000000000000000000000020401000000000000000000000000000000000000004000001000000000000000002000404000002000000000000000000000000000000008000020000000000000000000000004000020000000000000000000000000000000000008000",
      "type": "0x2",
      "transactionHash": "0x8d0abcb005a1d17aec0d4ec2cd48b88b66c90dbe548b9a187134e5aec9e0e308",
      "transactionIndex": "0x3d",
      "blockHash": "0x1573a24a8403c24d47b08ab0b0da8fb86918e2930fe3c5cdd627c9546ba8314a",
      "blockNumber": "0x988ef7",
      "gasUsed": "0x1a9ee",
      "effectiveGasPrice": "0xfd6c1",
      "from": "0x63f976191f9dd75bd5b0fd81320d37fbc0d74080",
      "to": "0xf9cab5fa57d2e5dab990aba00ef7947e53817b08",
      "contractAddress": null
    },
    {
      "status": "0x1",
      "cumulativeGasUsed": "0x5b3019",
      "logs": [
        {
          "address": "0x76e9e1affde82bb4544ce95ea58ffc2f9d45061f",
          "topics": [
            "0x40e9cecb9f5f1f1c5b9c97dec2917b7ee92e57ba5563708daca94dd84ad7112f",
            "0xce786b2f6023aa55bedfff2548e7e2b90b02f67afd457657b1894b60ae0b9a8f",
            "0x000000000000000000000000f9cab5fa57d2e5dab990aba00ef7947e53817b08"
          ],
          "data": "0x0000000000000000000000000000000000000000000000000000000000000000ffffffffffffffffffffffffffffffffffffffffffffffffffee3c86c81f8000000000000000000000000000001942f398fe66700f7759719901fff369b506fe000000000000000000000000000000000000000000000000000000000000006c00000000000000000000000000000000000000000000000000000000000b23bb0000000000000000000000000000000000000000000000000000000000000bb8",
          "blockHash": "0x1573a24a8403c24d47b08ab0b0da8fb86918e2930fe3c5cdd627c9546ba8314a",
          "blockNumber": "0x988ef7",
          "blockTimestamp": "0x695ea784",
          "transactionHash": "0x0332923dc78caab39f60e64c401959329c8c4e5a19b2ebfa309b883b53f9d185",
          "transactionIndex": "0x3e",
          "logIndex": "0x5b",
          "removed": false
        },
        {
          "address": "0xfe8729ae15e8cd6196e691e6c7c7c913e8c4d540",
          "topics": [
            "0xcd9f4ccdc13709817c4447834a44bef5d62ffe25139e5c329d8debc5c177cc79",
            "0xce786b2f6023aa55bedfff2548e7e2b90b02f67afd457657b1894b60ae0b9a8f"
          ],
          "data": "0x000000000000000000000000000000000000000000000000000000000000000000000000000000000000000000000000000000000000000000000da475abf00000000000000000000000000000000000000000000000000000000000000000000000000000000000000000000000000000000000000000000003403009f83000000000000000000000000000000000000000000000000000261832f4d4728000",
          "blockHash": "0x1573a24a8403c24d47b08ab0b0da8fb86918e2930fe3c5cdd627c9546ba8314a",
          "blockNumber": "0x988ef7",
          "blockTimestamp": "0x695ea784",
          "transactionHash": "0x0332923dc78caab39f60e64c401959329c8c4e5a19b2ebfa309b883b53f9d185",
          "transactionIndex": "0x3e",
          "logIndex": "0x5c",
          "removed": false
        },
        {
          "address": "0xfff9976782d46cc05630d1f6ebab18b2324d6b14",
          "topics": [
            "0xddf252ad1be2c89b69c2b068fc378daa952ba7f163c4a11628f55a4df523b3ef",
            "0x00000000000000000000000063f976191f9dd75bd5b0fd81320d37fbc0d74080",
            "0x00000000000000000000000076e9e1affde82bb4544ce95ea58ffc2f9d45061f"
          ],
          "data": "0x0000000000000000000000000000000000000000000000000011c37937e08000",
          "blockHash": "0x1573a24a8403c24d47b08ab0b0da8fb86918e2930fe3c5cdd627c9546ba8314a",
          "blockNumber": "0x988ef7",
          "blockTimestamp": "0x695ea784",
          "transactionHash": "0x0332923dc78caab39f60e64c401959329c8c4e5a19b2ebfa309b883b53f9d185",
          "transactionIndex": "0x3e",
          "logIndex": "0x5d",
          "removed": false
        }
      ],
      "logsBloom": "0x00001000000000040000000000000000000000000000000000000010000000000000000000000000000000000000000000000000040010000000000000000000000000000000000000000008000000000000000000000820000000000000010000000000000000000000004000000000000000000000000000000016000000000040000000000000000000000000010000000000000800000000000000000000000020401000000000000000000000000000000000000004000001000000000000000002000404000002000000000000000000000000000000008000020000000000000000000000004000020000000000000000000000000000000000008000",
      "type": "0x2",
      "transactionHash": "0x0332923dc78caab39f60e64c401959329c8c4e5a19b2ebfa309b883b53f9d185",
      "transactionIndex": "0x3e",
      "blockHash": "0x1573a24a8403c24d47b08ab0b0da8fb86918e2930fe3c5cdd627c9546ba8314a",
      "blockNumber": "0x988ef7",
      "gasUsed": "0x1aa2e",
      "effectiveGasPrice": "0xfd6c1",
      "from": "0x63f976191f9dd75bd5b0fd81320d37fbc0d74080",
      "to": "0xf9cab5fa57d2e5dab990aba00ef7947e53817b08",
      "contractAddress": null
    },
    {
      "status": "0x1",
      "cumulativeGasUsed": "0x5cd673",
      "logs": [
        {
          "address": "0x76e9e1affde82bb4544ce95ea58ffc2f9d45061f",
          "topics": [
            "0x40e9cecb9f5f1f1c5b9c97dec2917b7ee92e57ba5563708daca94dd84ad7112f",
            "0xce786b2f6023aa55bedfff2548e7e2b90b02f67afd457657b1894b60ae0b9a8f",
            "0x000000000000000000000000f9cab5fa57d2e5dab990aba00ef7947e53817b08"
          ],
          "data": "0x0000000000000000000000000000000000000000000000000000000000000000ffffffffffffffffffffffffffffffffffffffffffffffffffee3c86c81f800000000000000000000000000000196cee74ddb39f77c333848f86bd94991d52d8000000000000000000000000000000000000000000000000000000000000006c00000000000000000000000000000000000000000000000000000000000b243c0000000000000000000000000000000000000000000000000000000000000bb8",
          "blockHash": "0x1573a24a8403c24d47b08ab0b0da8fb86918e2930fe3c5cdd627c9546ba8314a",
          "blockNumber": "0x988ef7",
          "blockTimestamp": "0x695ea784",
          "transactionHash": "0x760b2ee96e2989782cebdc3ef2794be551952370679c2256db545adb328ee2fa",
          "transactionIndex": "0x3f",
          "logIndex": "0x5e",
          "removed": false
        },
        {
          "address": "0xfe8729ae15e8cd6196e691e6c7c7c913e8c4d540",
          "topics": [
            "0xcd9f4ccdc13709817c4447834a44bef5d62ffe25139e5c329d8debc5c177cc79",
            "0xce786b2f6023aa55bedfff2548e7e2b90b02f67afd457657b1894b60ae0b9a8f"
          ],
          "data": "0x000000000000000000000000000000000000000000000000000000000000000000000000000000000000000000000000000000000000000000000da475abf000000000000000000000000000000000000000000000000000000000000000000000000000000000000000000000000000000000000000000000034dd47fa4200000000000000000000000000000000000000000000000000026b81237cb570000",
          "blockHash": "0x1573a24a8403c24d47b08ab0b0da8fb86918e2930fe3c5cdd627c9546ba8314a",
          "blockNumber": "0x988ef7",
          "blockTimestamp": "0x695ea784",
          "transactionHash": "0x760b2ee96e2989782cebdc3ef2794be551952370679c2256db545adb328ee2fa",
          "transactionIndex": "0x3f",
          "logIndex": "0x5f",
          "removed": false
        },
        {
          "address": "0xfff9976782d46cc05630d1f6ebab18b2324d6b14",
          "topics": [
            "0xddf252ad1be2c89b69c2b068fc378daa952ba7f163c4a11628f55a4df523b3ef",
            "0x00000000000000000000000063f976191f9dd75bd5b0fd81320d37fbc0d74080",
            "0x00000000000000000000000076e9e1affde82bb4544ce95ea58ffc2f9d45061f"
          ],
          "data": "0x0000000000000000000000000000000000000000000000000011c37937e08000",
          "blockHash": "0x1573a24a8403c24d47b08ab0b0da8fb86918e2930fe3c5cdd627c9546ba8314a",
          "blockNumber": "0x988ef7",
          "blockTimestamp": "0x695ea784",
          "transactionHash": "0x760b2ee96e2989782cebdc3ef2794be551952370679c2256db545adb328ee2fa",
          "transactionIndex": "0x3f",
          "logIndex": "0x60",
          "removed": false
        }
      ],
      "logsBloom": "0x00001000000000040000000000000000000000000000000000000010000000000000000000000000000000000000000000000000040010000000000000000000000000000000000000000008000000000000000000000820000000000000010000000000000000000000004000000000000000000000000000000016000000000040000000000000000000000000010000000000000800000000000000000000000020401000000000000000000000000000000000000004000001000000000000000002000404000002000000000000000000000000000000008000020000000000000000000000004000020000000000000000000000000000000000008000",
      "type": "0x2",
      "transactionHash": "0x760b2ee96e2989782cebdc3ef2794be551952370679c2256db545adb328ee2fa",
      "transactionIndex": "0x3f",
      "blockHash": "0x1573a24a8403c24d47b08ab0b0da8fb86918e2930fe3c5cdd627c9546ba8314a",
      "blockNumber": "0x988ef7",
      "gasUsed": "0x1a65a",
      "effectiveGasPrice": "0xfd6c1",
      "from": "0x63f976191f9dd75bd5b0fd81320d37fbc0d74080",
      "to": "0xf9cab5fa57d2e5dab990aba00ef7947e53817b08",
      "contractAddress": null
    },
    {
      "status": "0x1",
      "cumulativeGasUsed": "0x5e8081",
      "logs": [
        {
          "address": "0x76e9e1affde82bb4544ce95ea58ffc2f9d45061f",
          "topics": [
            "0x40e9cecb9f5f1f1c5b9c97dec2917b7ee92e57ba5563708daca94dd84ad7112f",
            "0xce786b2f6023aa55bedfff2548e7e2b90b02f67afd457657b1894b60ae0b9a8f",
            "0x000000000000000000000000f9cab5fa57d2e5dab990aba00ef7947e53817b08"
          ],
          "data": "0x0000000000000000000000000000000000000000000000000000000000000000ffffffffffffffffffffffffffffffffffffffffffffffffffee3c86c81f8000000000000000000000000000001996e950bd00cee00f0d97860b7b35c8859eb2000000000000000000000000000000000000000000000000000000000000006c00000000000000000000000000000000000000000000000000000000000b24bd0000000000000000000000000000000000000000000000000000000000000bb8",
          "blockHash": "0x1573a24a8403c24d47b08ab0b0da8fb86918e2930fe3c5cdd627c9546ba8314a",
          "blockNumber": "0x988ef7",
          "blockTimestamp": "0x695ea784",
          "transactionHash": "0xb285322c37d464c65779bfb43e748a55bc34b23f0a087fe3d8a4bb15f8accc66",
          "transactionIndex": "0x40",
          "logIndex": "0x61",
          "removed": false
        },
        {
          "address": "0xfe8729ae15e8cd6196e691e6c7c7c913e8c4d540",
          "topics": [
            "0xcd9f4ccdc13709817c4447834a44bef5d62ffe25139e5c329d8debc5c177cc79",
            "0xce786b2f6023aa55bedfff2548e7e2b90b02f67afd457657b1894b60ae0b9a8f"
          ],
          "data": "0x000000000000000000000000000000000000000000000000000000000000000000000000000000000000000000000000000000000000000000000da475abf000000000000000000000000000000000000000000000000000000000000000000000000000000000000000000000000000000000000000000000035b78f55010000000000000000000000000000000000000000000000000002757f17ac23b8000",
          "blockHash": "0x1573a24a8403c24d47b08ab0b0da8fb86918e2930fe3c5cdd627c9546ba8314a",
          "blockNumber": "0x988ef7",
          "blockTimestamp": "0x695ea784",
          "transactionHash": "0xb285322c37d464c65779bfb43e748a55bc34b23f0a087fe3d8a4bb15f8accc66",
          "transactionIndex": "0x40",
          "logIndex": "0x62",
          "removed": false
        },
        {
          "address": "0xfff9976782d46cc05630d1f6ebab18b2324d6b14",
          "topics": [
            "0xddf252ad1be2c89b69c2b068fc378daa952ba7f163c4a11628f55a4df523b3ef",
            "0x00000000000000000000000063f976191f9dd75bd5b0fd81320d37fbc0d74080",
            "0x00000000000000000000000076e9e1affde82bb4544ce95ea58ffc2f9d45061f"
          ],
          "data": "0x0000000000000000000000000000000000000000000000000011c37937e08000",
          "blockHash": "0x1573a24a8403c24d47b08ab0b0da8fb86918e2930fe3c5cdd627c9546ba8314a",
          "blockNumber": "0x988ef7",
          "blockTimestamp": "0x695ea784",
          "transactionHash": "0xb285322c37d464c65779bfb43e748a55bc34b23f0a087fe3d8a4bb15f8accc66",
          "transactionIndex": "0x40",
          "logIndex": "0x63",
          "removed": false
        }
      ],
      "logsBloom": "0x00001000000000040000000000000000000000000000000000000010000000000000000000000000000000000000000000000000040010000000000000000000000000000000000000000008000000000000000000000820000000000000010000000000000000000000004000000000000000000000000000000016000000000040000000000000000000000000010000000000000800000000000000000000000020401000000000000000000000000000000000000004000001000000000000000002000404000002000000000000000000000000000000008000020000000000000000000000004000020000000000000000000000000000000000008000",
      "type": "0x2",
      "transactionHash": "0xb285322c37d464c65779bfb43e748a55bc34b23f0a087fe3d8a4bb15f8accc66",
      "transactionIndex": "0x40",
      "blockHash": "0x1573a24a8403c24d47b08ab0b0da8fb86918e2930fe3c5cdd627c9546ba8314a",
      "blockNumber": "0x988ef7",
      "gasUsed": "0x1aa0e",
      "effectiveGasPrice": "0xfd6c1",
      "from": "0x63f976191f9dd75bd5b0fd81320d37fbc0d74080",
      "to": "0xf9cab5fa57d2e5dab990aba00ef7947e53817b08",
      "contractAddress": null
    },
    {
      "status": "0x1",
      "cumulativeGasUsed": "0x62a257",
      "logs": [
        {
          "address": "0x76e9e1affde82bb4544ce95ea58ffc2f9d45061f",
          "topics": [
            "0x40e9cecb9f5f1f1c5b9c97dec2917b7ee92e57ba5563708daca94dd84ad7112f",
            "0xce786b2f6023aa55bedfff2548e7e2b90b02f67afd457657b1894b60ae0b9a8f",
            "0x000000000000000000000000f9cab5fa57d2e5dab990aba00ef7947e53817b08"
          ],
          "data": "0x0000000000000000000000000000000000000000000000000000000000000000ffffffffffffffffffffffffffffffffffffffffffffffffffee3c86c81f80000000000000000000000000000019c0e42c9c4dfe485ae7aa7c9038d6f7edea8c000000000000000000000000000000000000000000000000000000000000006c00000000000000000000000000000000000000000000000000000000000b253d0000000000000000000000000000000000000000000000000000000000000bb8",
          "blockHash": "0x1573a24a8403c24d47b08ab0b0da8fb86918e2930fe3c5cdd627c9546ba8314a",
          "blockNumber": "0x988ef7",
          "blockTimestamp": "0x695ea784",
          "transactionHash": "0xc185009439ee786e86b0843f0bb4b157507107d029ed4865da8e8b0018f11185",
          "transactionIndex": "0x42",
          "logIndex": "0x6b",
          "removed": false
        },
        {
          "address": "0xfe8729ae15e8cd6196e691e6c7c7c913e8c4d540",
          "topics": [
            "0xcd9f4ccdc13709817c4447834a44bef5d62ffe25139e5c329d8debc5c177cc79",
            "0xce786b2f6023aa55bedfff2548e7e2b90b02f67afd457657b1894b60ae0b9a8f"
          ],
          "data": "0x000000000000000000000000000000000000000000000000000000000000000000000000000000000000000000000000000000000000000000000da475abf00000000000000000000000000000000000000000000000000000000000000000000000000000000000000000000000000000000000000000000003691d6afc000000000000000000000000000000000000000000000000000027f7d0bdb9200000",
          "blockHash": "0x1573a24a8403c24d47b08ab0b0da8fb86918e2930fe3c5cdd627c9546ba8314a",
          "blockNumber": "0x988ef7",
          "blockTimestamp": "0x695ea784",
          "transactionHash": "0xc185009439ee786e86b0843f0bb4b157507107d029ed4865da8e8b0018f11185",
          "transactionIndex": "0x42",
          "logIndex": "0x6c",
          "removed": false
        },
        {
          "address": "0xfff9976782d46cc05630d1f6ebab18b2324d6b14",
          "topics": [
            "0xddf252ad1be2c89b69c2b068fc378daa952ba7f163c4a11628f55a4df523b3ef",
            "0x00000000000000000000000063f976191f9dd75bd5b0fd81320d37fbc0d74080",
            "0x00000000000000000000000076e9e1affde82bb4544ce95ea58ffc2f9d45061f"
          ],
          "data": "0x0000000000000000000000000000000000000000000000000011c37937e08000",
          "blockHash": "0x1573a24a8403c24d47b08ab0b0da8fb86918e2930fe3c5cdd627c9546ba8314a",
          "blockNumber": "0x988ef7",
          "blockTimestamp": "0x695ea784",
          "transactionHash": "0xc185009439ee786e86b0843f0bb4b157507107d029ed4865da8e8b0018f11185",
          "transactionIndex": "0x42",
          "logIndex": "0x6d",
          "removed": false
        }
      ],
      "logsBloom": "0x00001000000000040000000000000000000000000000000000000010000000000000000000000000000000000000000000000000040010000000000000000000000000000000000000000008000000000000000000000820000000000000010000000000000000000000004000000000000000000000000000000016000000000040000000000000000000000000010000000000000800000000000000000000000020401000000000000000000000000000000000000004000001000000000000000002000404000002000000000000000000000000000000008000020000000000000000000000004000020000000000000000000000000000000000008000",
      "type": "0x2",
      "transactionHash": "0xc185009439ee786e86b0843f0bb4b157507107d029ed4865da8e8b0018f11185",
      "transactionIndex": "0x42",
      "blockHash": "0x1573a24a8403c24d47b08ab0b0da8fb86918e2930fe3c5cdd627c9546ba8314a",
      "blockNumber": "0x988ef7",
      "gasUsed": "0x1aa0e",
      "effectiveGasPrice": "0xfd6c1",
      "from": "0x63f976191f9dd75bd5b0fd81320d37fbc0d74080",
      "to": "0xf9cab5fa57d2e5dab990aba00ef7947e53817b08",
      "contractAddress": null
    },
    {
      "status": "0x1",
      "cumulativeGasUsed": "0x644c85",
      "logs": [
        {
          "address": "0x76e9e1affde82bb4544ce95ea58ffc2f9d45061f",
          "topics": [
            "0x40e9cecb9f5f1f1c5b9c97dec2917b7ee92e57ba5563708daca94dd84ad7112f",
            "0xce786b2f6023aa55bedfff2548e7e2b90b02f67afd457657b1894b60ae0b9a8f",
            "0x000000000000000000000000f9cab5fa57d2e5dab990aba00ef7947e53817b08"
          ],
          "data": "0x0000000000000000000000000000000000000000000000000000000000000000ffffffffffffffffffffffffffffffffffffffffffffffffffee3c86c81f80000000000000000000000000000019eadf087b9b2db0a6c1bd7314f67827563666000000000000000000000000000000000000000000000000000000000000006c00000000000000000000000000000000000000000000000000000000000b25bc0000000000000000000000000000000000000000000000000000000000000bb8",
          "blockHash": "0x1573a24a8403c24d47b08ab0b0da8fb86918e2930fe3c5cdd627c9546ba8314a",
          "blockNumber": "0x988ef7",
          "blockTimestamp": "0x695ea784",
          "transactionHash": "0x0d46691c13e710801151269ef03c622654b699ce8ccf23b88bcd1fc49690c861",
          "transactionIndex": "0x43",
          "logIndex": "0x6e",
          "removed": false
        },
        {
          "address": "0xfe8729ae15e8cd6196e691e6c7c7c913e8c4d540",
          "topics": [
            "0xcd9f4ccdc13709817c4447834a44bef5d62ffe25139e5c329d8debc5c177cc79",
            "0xce786b2f6023aa55bedfff2548e7e2b90b02f67afd457657b1894b60ae0b9a8f"
          ],
          "data": "0x000000000000000000000000000000000000000000000000000000000000000000000000000000000000000000000000000000000000000000000da475abf0000000000000000000000000000000000000000000000000000000000000000000000000000000000000000000000000000000000000000000000376c1e0a7f0000000000000000000000000000000000000000000000000002897b000b0048000",
          "blockHash": "0x1573a24a8403c24d47b08ab0b0da8fb86918e2930fe3c5cdd627c9546ba8314a",
          "blockNumber": "0x988ef7",
          "blockTimestamp": "0x695ea784",
          "transactionHash": "0x0d46691c13e710801151269ef03c622654b699ce8ccf23b88bcd1fc49690c861",
          "transactionIndex": "0x43",
          "logIndex": "0x6f",
          "removed": false
        },
        {
          "address": "0xfff9976782d46cc05630d1f6ebab18b2324d6b14",
          "topics": [
            "0xddf252ad1be2c89b69c2b068fc378daa952ba7f163c4a11628f55a4df523b3ef",
            "0x00000000000000000000000063f976191f9dd75bd5b0fd81320d37fbc0d74080",
            "0x00000000000000000000000076e9e1affde82bb4544ce95ea58ffc2f9d45061f"
          ],
          "data": "0x0000000000000000000000000000000000000000000000000011c37937e08000",
          "blockHash": "0x1573a24a8403c24d47b08ab0b0da8fb86918e2930fe3c5cdd627c9546ba8314a",
          "blockNumber": "0x988ef7",
          "blockTimestamp": "0x695ea784",
          "transactionHash": "0x0d46691c13e710801151269ef03c622654b699ce8ccf23b88bcd1fc49690c861",
          "transactionIndex": "0x43",
          "logIndex": "0x70",
          "removed": false
        }
      ],
      "logsBloom": "0x00001000000000040000000000000000000000000000000000000010000000000000000000000000000000000000000000000000040010000000000000000000000000000000000000000008000000000000000000000820000000000000010000000000000000000000004000000000000000000000000000000016000000000040000000000000000000000000010000000000000800000000000000000000000020401000000000000000000000000000000000000004000001000000000000000002000404000002000000000000000000000000000000008000020000000000000000000000004000020000000000000000000000000000000000008000",
      "type": "0x2",
      "transactionHash": "0x0d46691c13e710801151269ef03c622654b699ce8ccf23b88bcd1fc49690c861",
      "transactionIndex": "0x43",
      "blockHash": "0x1573a24a8403c24d47b08ab0b0da8fb86918e2930fe3c5cdd627c9546ba8314a",
      "blockNumber": "0x988ef7",
      "gasUsed": "0x1aa2e",
      "effectiveGasPrice": "0xfd6c1",
      "from": "0x63f976191f9dd75bd5b0fd81320d37fbc0d74080",
      "to": "0xf9cab5fa57d2e5dab990aba00ef7947e53817b08",
      "contractAddress": null
    },
    {
      "status": "0x1",
      "cumulativeGasUsed": "0x65f693",
      "logs": [
        {
          "address": "0x76e9e1affde82bb4544ce95ea58ffc2f9d45061f",
          "topics": [
            "0x40e9cecb9f5f1f1c5b9c97dec2917b7ee92e57ba5563708daca94dd84ad7112f",
            "0xce786b2f6023aa55bedfff2548e7e2b90b02f67afd457657b1894b60ae0b9a8f",
            "0x000000000000000000000000f9cab5fa57d2e5dab990aba00ef7947e53817b08"
          ],
          "data": "0x0000000000000000000000000000000000000000000000000000000000000000ffffffffffffffffffffffffffffffffffffffffffffffffffee3c86c81f8000000000000000000000000000001a14d9e45ae85d18f29bd06999b41956be8240000000000000000000000000000000000000000000000000000000000000006c00000000000000000000000000000000000000000000000000000000000b263a0000000000000000000000000000000000000000000000000000000000000bb8",
          "blockHash": "0x1573a24a8403c24d47b08ab0b0da8fb86918e2930fe3c5cdd627c9546ba8314a",
          "blockNumber": "0x988ef7",
          "blockTimestamp": "0x695ea784",
          "transactionHash": "0x3c8dbcc30250921a2696c07019afa75be8f1dded2ce06d444d65c0756d713c33",
          "transactionIndex": "0x44",
          "logIndex": "0x71",
          "removed": false
        },
        {
          "address": "0xfe8729ae15e8cd6196e691e6c7c7c913e8c4d540",
          "topics": [
            "0xcd9f4ccdc13709817c4447834a44bef5d62ffe25139e5c329d8debc5c177cc79",
            "0xce786b2f6023aa55bedfff2548e7e2b90b02f67afd457657b1894b60ae0b9a8f"
          ],
          "data": "0x000000000000000000000000000000000000000000000000000000000000000000000000000000000000000000000000000000000000000000000da475abf0000000000000000000000000000000000000000000000000000000000000000000000000000000000000000000000000000000000000000000000384665653e00000000000000000000000000000000000000000000000000029378f43a6e90000",
          "blockHash": "0x1573a24a8403c24d47b08ab0b0da8fb86918e2930fe3c5cdd627c9546ba8314a",
          "blockNumber": "0x988ef7",
          "blockTimestamp": "0x695ea784",
          "transactionHash": "0x3c8dbcc30250921a2696c07019afa75be8f1dded2ce06d444d65c0756d713c33",
          "transactionIndex": "0x44",
          "logIndex": "0x72",
          "removed": false
        },
        {
          "address": "0xfff9976782d46cc05630d1f6ebab18b2324d6b14",
          "topics": [
            "0xddf252ad1be2c89b69c2b068fc378daa952ba7f163c4a11628f55a4df523b3ef",
            "0x00000000000000000000000063f976191f9dd75bd5b0fd81320d37fbc0d74080",
            "0x00000000000000000000000076e9e1affde82bb4544ce95ea58ffc2f9d45061f"
          ],
          "data": "0x0000000000000000000000000000000000000000000000000011c37937e08000",
          "blockHash": "0x1573a24a8403c24d47b08ab0b0da8fb86918e2930fe3c5cdd627c9546ba8314a",
          "blockNumber": "0x988ef7",
          "blockTimestamp": "0x695ea784",
          "transactionHash": "0x3c8dbcc30250921a2696c07019afa75be8f1dded2ce06d444d65c0756d713c33",
          "transactionIndex": "0x44",
          "logIndex": "0x73",
          "removed": false
        }
      ],
      "logsBloom": "0x00001000000000040000000000000000000000000000000000000010000000000000000000000000000000000000000000000000040010000000000000000000000000000000000000000008000000000000000000000820000000000000010000000000000000000000004000000000000000000000000000000016000000000040000000000000000000000000010000000000000800000000000000000000000020401000000000000000000000000000000000000004000001000000000000000002000404000002000000000000000000000000000000008000020000000000000000000000004000020000000000000000000000000000000000008000",
      "type": "0x2",
      "transactionHash": "0x3c8dbcc30250921a2696c07019afa75be8f1dded2ce06d444d65c0756d713c33",
      "transactionIndex": "0x44",
      "blockHash": "0x1573a24a8403c24d47b08ab0b0da8fb86918e2930fe3c5cdd627c9546ba8314a",
      "blockNumber": "0x988ef7",
      "gasUsed": "0x1aa0e",
      "effectiveGasPrice": "0xfd6c1",
      "from": "0x63f976191f9dd75bd5b0fd81320d37fbc0d74080",
      "to": "0xf9cab5fa57d2e5dab990aba00ef7947e53817b08",
      "contractAddress": null
    },
    {
      "status": "0x1",
      "cumulativeGasUsed": "0x67a0a5",
      "logs": [
        {
          "address": "0x76e9e1affde82bb4544ce95ea58ffc2f9d45061f",
          "topics": [
            "0x40e9cecb9f5f1f1c5b9c97dec2917b7ee92e57ba5563708daca94dd84ad7112f",
            "0xce786b2f6023aa55bedfff2548e7e2b90b02f67afd457657b1894b60ae0b9a8f",
            "0x000000000000000000000000f9cab5fa57d2e5dab990aba00ef7947e53817b08"
          ],
          "data": "0x0000000000000000000000000000000000000000000000000000000000000000ffffffffffffffffffffffffffffffffffffffffffffffffffee3c86c81f8000000000000000000000000000001a3ed4c03a358c813e75e3601e71ba8626ce1a000000000000000000000000000000000000000000000000000000000000006c00000000000000000000000000000000000000000000000000000000000b26b70000000000000000000000000000000000000000000000000000000000000bb8",
          "blockHash": "0x1573a24a8403c24d47b08ab0b0da8fb86918e2930fe3c5cdd627c9546ba8314a",
          "blockNumber": "0x988ef7",
          "blockTimestamp": "0x695ea784",
          "transactionHash": "0xaba3a576259fe85f1636299ff2d65531544e806b03268b164a28875b598cc925",
          "transactionIndex": "0x45",
          "logIndex": "0x74",
          "removed": false
        },
        {
          "address": "0xfe8729ae15e8cd6196e691e6c7c7c913e8c4d540",
          "topics": [
            "0xcd9f4ccdc13709817c4447834a44bef5d62ffe25139e5c329d8debc5c177cc79",
            "0xce786b2f6023aa55bedfff2548e7e2b90b02f67afd457657b1894b60ae0b9a8f"
          ],
          "data": "0x000000000000000000000000000000000000000000000000000000000000000000000000000000000000000000000000000000000000000000000da475abf00000000000000000000000000000000000000000000000000000000000000000000000000000000000000000000000000000000000000000000003920acbffd00000000000000000000000000000000000000000000000000029d76e869dcd8000",
          "blockHash": "0x1573a24a8403c24d47b08ab0b0da8fb86918e2930fe3c5cdd627c9546ba8314a",
          "blockNumber": "0x988ef7",
          "blockTimestamp": "0x695ea784",
          "transactionHash": "0xaba3a576259fe85f1636299ff2d65531544e806b03268b164a28875b598cc925",
          "transactionIndex": "0x45",
          "logIndex": "0x75",
          "removed": false
        },
        {
          "address": "0xfff9976782d46cc05630d1f6ebab18b2324d6b14",
          "topics": [
            "0xddf252ad1be2c89b69c2b068fc378daa952ba7f163c4a11628f55a4df523b3ef",
            "0x00000000000000000000000063f976191f9dd75bd5b0fd81320d37fbc0d74080",
            "0x00000000000000000000000076e9e1affde82bb4544ce95ea58ffc2f9d45061f"
          ],
          "data": "0x0000000000000000000000000000000000000000000000000011c37937e08000",
          "blockHash": "0x1573a24a8403c24d47b08ab0b0da8fb86918e2930fe3c5cdd627c9546ba8314a",
          "blockNumber": "0x988ef7",
          "blockTimestamp": "0x695ea784",
          "transactionHash": "0xaba3a576259fe85f1636299ff2d65531544e806b03268b164a28875b598cc925",
          "transactionIndex": "0x45",
          "logIndex": "0x76",
          "removed": false
        }
      ],
      "logsBloom": "0x00001000000000040000000000000000000000000000000000000010000000000000000000000000000000000000000000000000040010000000000000000000000000000000000000000008000000000000000000000820000000000000010000000000000000000000004000000000000000000000000000000016000000000040000000000000000000000000010000000000000800000000000000000000000020401000000000000000000000000000000000000004000001000000000000000002000404000002000000000000000000000000000000008000020000000000000000000000004000020000000000000000000000000000000000008000",
      "type": "0x2",
      "transactionHash": "0xaba3a576259fe85f1636299ff2d65531544e806b03268b164a28875b598cc925",
      "transactionIndex": "0x45",
      "blockHash": "0x1573a24a8403c24d47b08ab0b0da8fb86918e2930fe3c5cdd627c9546ba8314a",
      "blockNumber": "0x988ef7",
      "gasUsed": "0x1aa12",
      "effectiveGasPrice": "0xfd6c1",
      "from": "0x63f976191f9dd75bd5b0fd81320d37fbc0d74080",
      "to": "0xf9cab5fa57d2e5dab990aba00ef7947e53817b08",
      "contractAddress": null
    },
    {
      "status": "0x1",
      "cumulativeGasUsed": "0x694ab3",
      "logs": [
        {
          "address": "0x76e9e1affde82bb4544ce95ea58ffc2f9d45061f",
          "topics": [
            "0x40e9cecb9f5f1f1c5b9c97dec2917b7ee92e57ba5563708daca94dd84ad7112f",
            "0xce786b2f6023aa55bedfff2548e7e2b90b02f67afd457657b1894b60ae0b9a8f",
            "0x000000000000000000000000f9cab5fa57d2e5dab990aba00ef7947e53817b08"
          ],
          "data": "0x0000000000000000000000000000000000000000000000000000000000000000ffffffffffffffffffffffffffffffffffffffffffffffffffee3c86c81f8000000000000000000000000000001a68cf9c1982bbe98a4ff656a32f5bb58f19f4000000000000000000000000000000000000000000000000000000000000006c00000000000000000000000000000000000000000000000000000000000b27340000000000000000000000000000000000000000000000000000000000000bb8",
          "blockHash": "0x1573a24a8403c24d47b08ab0b0da8fb86918e2930fe3c5cdd627c9546ba8314a",
          "blockNumber": "0x988ef7",
          "blockTimestamp": "0x695ea784",
          "transactionHash": "0x8efc4631df5b16d28b93c13217a8cb4aa0b55488e19bae8503836b53f01e6e47",
          "transactionIndex": "0x46",
          "logIndex": "0x77",
          "removed": false
        },
        {
          "address": "0xfe8729ae15e8cd6196e691e6c7c7c913e8c4d540",
          "topics": [
            "0xcd9f4ccdc13709817c4447834a44bef5d62ffe25139e5c329d8debc5c177cc79",
            "0xce786b2f6023aa55bedfff2548e7e2b90b02f67afd457657b1894b60ae0b9a8f"
          ],
          "data": "0x000000000000000000000000000000000000000000000000000000000000000000000000000000000000000000000000000000000000000000000da475abf000000000000000000000000000000000000000000000000000000000000000000000000000000000000000000000000000000000000000000000039faf41abc0000000000000000000000000000000000000000000000000002a774dc994b20000",
          "blockHash": "0x1573a24a8403c24d47b08ab0b0da8fb86918e2930fe3c5cdd627c9546ba8314a",
          "blockNumber": "0x988ef7",
          "blockTimestamp": "0x695ea784",
          "transactionHash": "0x8efc4631df5b16d28b93c13217a8cb4aa0b55488e19bae8503836b53f01e6e47",
          "transactionIndex": "0x46",
          "logIndex": "0x78",
          "removed": false
        },
        {
          "address": "0xfff9976782d46cc05630d1f6ebab18b2324d6b14",
          "topics": [
            "0xddf252ad1be2c89b69c2b068fc378daa952ba7f163c4a11628f55a4df523b3ef",
            "0x00000000000000000000000063f976191f9dd75bd5b0fd81320d37fbc0d74080",
            "0x00000000000000000000000076e9e1affde82bb4544ce95ea58ffc2f9d45061f"
          ],
          "data": "0x0000000000000000000000000000000000000000000000000011c37937e08000",
          "blockHash": "0x1573a24a8403c24d47b08ab0b0da8fb86918e2930fe3c5cdd627c9546ba8314a",
          "blockNumber": "0x988ef7",
          "blockTimestamp": "0x695ea784",
          "transactionHash": "0x8efc4631df5b16d28b93c13217a8cb4aa0b55488e19bae8503836b53f01e6e47",
          "transactionIndex": "0x46",
          "logIndex": "0x79",
          "removed": false
        }
      ],
      "logsBloom": "0x00001000000000040000000000000000000000000000000000000010000000000000000000000000000000000000000000000000040010000000000000000000000000000000000000000008000000000000000000000820000000000000010000000000000000000000004000000000000000000000000000000016000000000040000000000000000000000000010000000000000800000000000000000000000020401000000000000000000000000000000000000004000001000000000000000002000404000002000000000000000000000000000000008000020000000000000000000000004000020000000000000000000000000000000000008000",
      "type": "0x2",
      "transactionHash": "0x8efc4631df5b16d28b93c13217a8cb4aa0b55488e19bae8503836b53f01e6e47",
      "transactionIndex": "0x46",
      "blockHash": "0x1573a24a8403c24d47b08ab0b0da8fb86918e2930fe3c5cdd627c9546ba8314a",
      "blockNumber": "0x988ef7",
      "gasUsed": "0x1aa0e",
      "effectiveGasPrice": "0xfd6c1",
      "from": "0x63f976191f9dd75bd5b0fd81320d37fbc0d74080",
      "to": "0xf9cab5fa57d2e5dab990aba00ef7947e53817b08",
      "contractAddress": null
    },
    {
      "status": "0x1",
      "cumulativeGasUsed": "0x6af4c1",
      "logs": [
        {
          "address": "0x76e9e1affde82bb4544ce95ea58ffc2f9d45061f",
          "topics": [
            "0x40e9cecb9f5f1f1c5b9c97dec2917b7ee92e57ba5563708daca94dd84ad7112f",
            "0xce786b2f6023aa55bedfff2548e7e2b90b02f67afd457657b1894b60ae0b9a8f",
            "0x000000000000000000000000f9cab5fa57d2e5dab990aba00ef7947e53817b08"
          ],
          "data": "0x0000000000000000000000000000000000000000000000000000000000000000ffffffffffffffffffffffffffffffffffffffffffffffffffee3c86c81f8000000000000000000000000000001a92ca77f8cfeb51d62a094d27ecfce4f765ce000000000000000000000000000000000000000000000000000000000000006c00000000000000000000000000000000000000000000000000000000000b27b00000000000000000000000000000000000000000000000000000000000000bb8",
          "blockHash": "0x1573a24a8403c24d47b08ab0b0da8fb86918e2930fe3c5cdd627c9546ba8314a",
          "blockNumber": "0x988ef7",
          "blockTimestamp": "0x695ea784",
          "transactionHash": "0x655730f50838facf2b19a44ce809197ab824264d3638bf3954ce9a545f411fe8",
          "transactionIndex": "0x47",
          "logIndex": "0x7a",
          "removed": false
        },
        {
          "address": "0xfe8729ae15e8cd6196e691e6c7c7c913e8c4d540",
          "topics": [
            "0xcd9f4ccdc13709817c4447834a44bef5d62ffe25139e5c329d8debc5c177cc79",
            "0xce786b2f6023aa55bedfff2548e7e2b90b02f67afd457657b1894b60ae0b9a8f"
          ],
          "data": "0x000000000000000000000000000000000000000000000000000000000000000000000000000000000000000000000000000000000000000000000da475abf00000000000000000000000000000000000000000000000000000000000000000000000000000000000000000000000000000000000000000000003ad53b757b0000000000000000000000000000000000000000000000000002b172d0c8b968000",
          "blockHash": "0x1573a24a8403c24d47b08ab0b0da8fb86918e2930fe3c5cdd627c9546ba8314a",
          "blockNumber": "0x988ef7",
          "blockTimestamp": "0x695ea784",
          "transactionHash": "0x655730f50838facf2b19a44ce809197ab824264d3638bf3954ce9a545f411fe8",
          "transactionIndex": "0x47",
          "logIndex": "0x7b",
          "removed": false
        },
        {
          "address": "0xfff9976782d46cc05630d1f6ebab18b2324d6b14",
          "topics": [
            "0xddf252ad1be2c89b69c2b068fc378daa952ba7f163c4a11628f55a4df523b3ef",
            "0x00000000000000000000000063f976191f9dd75bd5b0fd81320d37fbc0d74080",
            "0x00000000000000000000000076e9e1affde82bb4544ce95ea58ffc2f9d45061f"
          ],
          "data": "0x0000000000000000000000000000000000000000000000000011c37937e08000",
          "blockHash": "0x1573a24a8403c24d47b08ab0b0da8fb86918e2930fe3c5cdd627c9546ba8314a",
          "blockNumber": "0x988ef7",
          "blockTimestamp": "0x695ea784",
          "transactionHash": "0x655730f50838facf2b19a44ce809197ab824264d3638bf3954ce9a545f411fe8",
          "transactionIndex": "0x47",
          "logIndex": "0x7c",
          "removed": false
        }
      ],
      "logsBloom": "0x00001000000000040000000000000000000000000000000000000010000000000000000000000000000000000000000000000000040010000000000000000000000000000000000000000008000000000000000000000820000000000000010000000000000000000000004000000000000000000000000000000016000000000040000000000000000000000000010000000000000800000000000000000000000020401000000000000000000000000000000000000004000001000000000000000002000404000002000000000000000000000000000000008000020000000000000000000000004000020000000000000000000000000000000000008000",
      "type": "0x2",
      "transactionHash": "0x655730f50838facf2b19a44ce809197ab824264d3638bf3954ce9a545f411fe8",
      "transactionIndex": "0x47",
      "blockHash": "0x1573a24a8403c24d47b08ab0b0da8fb86918e2930fe3c5cdd627c9546ba8314a",
      "blockNumber": "0x988ef7",
      "gasUsed": "0x1aa0e",
      "effectiveGasPrice": "0xfd6c1",
      "from": "0x63f976191f9dd75bd5b0fd81320d37fbc0d74080",
      "to": "0xf9cab5fa57d2e5dab990aba00ef7947e53817b08",
      "contractAddress": null
    },
    {
      "status": "0x1",
      "cumulativeGasUsed": "0x6c9b1b",
      "logs": [
        {
          "address": "0x76e9e1affde82bb4544ce95ea58ffc2f9d45061f",
          "topics": [
            "0x40e9cecb9f5f1f1c5b9c97dec2917b7ee92e57ba5563708daca94dd84ad7112f",
            "0xce786b2f6023aa55bedfff2548e7e2b90b02f67afd457657b1894b60ae0b9a8f",
            "0x000000000000000000000000f9cab5fa57d2e5dab990aba00ef7947e53817b08"
          ],
          "data": "0x0000000000000000000000000000000000000000000000000000000000000000ffffffffffffffffffffffffffffffffffffffffffffffffffee3c86c81f8000000000000000000000000000001abcc553d81d1aba22041c43acaa9e145fb1a8000000000000000000000000000000000000000000000000000000000000006c00000000000000000000000000000000000000000000000000000000000b282b0000000000000000000000000000000000000000000000000000000000000bb8",
          "blockHash": "0x1573a24a8403c24d47b08ab0b0da8fb86918e2930fe3c5cdd627c9546ba8314a",
          "blockNumber": "0x988ef7",
          "blockTimestamp": "0x695ea784",
          "transactionHash": "0x67badc5b455e4442c3538c3f8d61b6dec4628b6e55a656736013a469efe7b84a",
          "transactionIndex": "0x48",
          "logIndex": "0x7d",
          "removed": false
        },
        {
          "address": "0xfe8729ae15e8cd6196e691e6c7c7c913e8c4d540",
          "topics": [
            "0xcd9f4ccdc13709817c4447834a44bef5d62ffe25139e5c329d8debc5c177cc79",
            "0xce786b2f6023aa55bedfff2548e7e2b90b02f67afd457657b1894b60ae0b9a8f"
          ],
          "data": "0x000000000000000000000000000000000000000000000000000000000000000000000000000000000000000000000000000000000000000000000da475abf00000000000000000000000000000000000000000000000000000000000000000000000000000000000000000000000000000000000000000000003baf82d03a0000000000000000000000000000000000000000000000000002bb70c4f827b0000",
          "blockHash": "0x1573a24a8403c24d47b08ab0b0da8fb86918e2930fe3c5cdd627c9546ba8314a",
          "blockNumber": "0x988ef7",
          "blockTimestamp": "0x695ea784",
          "transactionHash": "0x67badc5b455e4442c3538c3f8d61b6dec4628b6e55a656736013a469efe7b84a",
          "transactionIndex": "0x48",
          "logIndex": "0x7e",
          "removed": false
        },
        {
          "address": "0xfff9976782d46cc05630d1f6ebab18b2324d6b14",
          "topics": [
            "0xddf252ad1be2c89b69c2b068fc378daa952ba7f163c4a11628f55a4df523b3ef",
            "0x00000000000000000000000063f976191f9dd75bd5b0fd81320d37fbc0d74080",
            "0x00000000000000000000000076e9e1affde82bb4544ce95ea58ffc2f9d45061f"
          ],
          "data": "0x0000000000000000000000000000000000000000000000000011c37937e08000",
          "blockHash": "0x1573a24a8403c24d47b08ab0b0da8fb86918e2930fe3c5cdd627c9546ba8314a",
          "blockNumber": "0x988ef7",
          "blockTimestamp": "0x695ea784",
          "transactionHash": "0x67badc5b455e4442c3538c3f8d61b6dec4628b6e55a656736013a469efe7b84a",
          "transactionIndex": "0x48",
          "logIndex": "0x7f",
          "removed": false
        }
      ],
      "logsBloom": "0x00001000000000040000000000000000000000000000000000000010000000000000000000000000000000000000000000000000040010000000000000000000000000000000000000000008000000000000000000000820000000000000010000000000000000000000004000000000000000000000000000000016000000000040000000000000000000000000010000000000000800000000000000000000000020401000000000000000000000000000000000000004000001000000000000000002000404000002000000000000000000000000000000008000020000000000000000000000004000020000000000000000000000000000000000008000",
      "type": "0x2",
      "transactionHash": "0x67badc5b455e4442c3538c3f8d61b6dec4628b6e55a656736013a469efe7b84a",
      "transactionIndex": "0x48",
      "blockHash": "0x1573a24a8403c24d47b08ab0b0da8fb86918e2930fe3c5cdd627c9546ba8314a",
      "blockNumber": "0x988ef7",
      "gasUsed": "0x1a65a",
      "effectiveGasPrice": "0xfd6c1",
      "from": "0x63f976191f9dd75bd5b0fd81320d37fbc0d74080",
      "to": "0xf9cab5fa57d2e5dab990aba00ef7947e53817b08",
      "contractAddress": null
    },
    {
      "status": "0x1",
      "cumulativeGasUsed": "0x6e44e9",
      "logs": [
        {
          "address": "0x76e9e1affde82bb4544ce95ea58ffc2f9d45061f",
          "topics": [
            "0x40e9cecb9f5f1f1c5b9c97dec2917b7ee92e57ba5563708daca94dd84ad7112f",
            "0xce786b2f6023aa55bedfff2548e7e2b90b02f67afd457657b1894b60ae0b9a8f",
            "0x000000000000000000000000f9cab5fa57d2e5dab990aba00ef7947e53817b08"
          ],
          "data": "0x0000000000000000000000000000000000000000000000000000000000000000ffffffffffffffffffffffffffffffffffffffffffffffffffee3c86c81f8000000000000000000000000000001ae6c02fb76a4a226dde2f3a31683f43c7fd82000000000000000000000000000000000000000000000000000000000000006c00000000000000000000000000000000000000000000000000000000000b28a50000000000000000000000000000000000000000000000000000000000000bb8",
          "blockHash": "0x1573a24a8403c24d47b08ab0b0da8fb86918e2930fe3c5cdd627c9546ba8314a",
          "blockNumber": "0x988ef7",
          "blockTimestamp": "0x695ea784",
          "transactionHash": "0xf2e8ed639ced173222fee2eefd03000ba2650884a20004c7771f1fc148b12e6b",
          "transactionIndex": "0x49",
          "logIndex": "0x80",
          "removed": false
        },
        {
          "address": "0xfe8729ae15e8cd6196e691e6c7c7c913e8c4d540",
          "topics": [
            "0xcd9f4ccdc13709817c4447834a44bef5d62ffe25139e5c329d8debc5c177cc79",
            "0xce786b2f6023aa55bedfff2548e7e2b90b02f67afd457657b1894b60ae0b9a8f"
          ],
          "data": "0x000000000000000000000000000000000000000000000000000000000000000000000000000000000000000000000000000000000000000000000da475abf00000000000000000000000000000000000000000000000000000000000000000000000000000000000000000000000000000000000000000000003c89ca2af90000000000000000000000000000000000000000000000000002c56eb92795f8000",
          "blockHash": "0x1573a24a8403c24d47b08ab0b0da8fb86918e2930fe3c5cdd627c9546ba8314a",
          "blockNumber": "0x988ef7",
          "blockTimestamp": "0x695ea784",
          "transactionHash": "0xf2e8ed639ced173222fee2eefd03000ba2650884a20004c7771f1fc148b12e6b",
          "transactionIndex": "0x49",
          "logIndex": "0x81",
          "removed": false
        },
        {
          "address": "0xfff9976782d46cc05630d1f6ebab18b2324d6b14",
          "topics": [
            "0xddf252ad1be2c89b69c2b068fc378daa952ba7f163c4a11628f55a4df523b3ef",
            "0x00000000000000000000000063f976191f9dd75bd5b0fd81320d37fbc0d74080",
            "0x00000000000000000000000076e9e1affde82bb4544ce95ea58ffc2f9d45061f"
          ],
          "data": "0x0000000000000000000000000000000000000000000000000011c37937e08000",
          "blockHash": "0x1573a24a8403c24d47b08ab0b0da8fb86918e2930fe3c5cdd627c9546ba8314a",
          "blockNumber": "0x988ef7",
          "blockTimestamp": "0x695ea784",
          "transactionHash": "0xf2e8ed639ced173222fee2eefd03000ba2650884a20004c7771f1fc148b12e6b",
          "transactionIndex": "0x49",
          "logIndex": "0x82",
          "removed": false
        }
      ],
      "logsBloom": "0x00001000000000040000000000000000000000000000000000000010000000000000000000000000000000000000000000000000040010000000000000000000000000000000000000000008000000000000000000000820000000000000010000000000000000000000004000000000000000000000000000000016000000000040000000000000000000000000010000000000000800000000000000000000000020401000000000000000000000000000000000000004000001000000000000000002000404000002000000000000000000000000000000008000020000000000000000000000004000020000000000000000000000000000000000008000",
      "type": "0x2",
      "transactionHash": "0xf2e8ed639ced173222fee2eefd03000ba2650884a20004c7771f1fc148b12e6b",
      "transactionIndex": "0x49",
      "blockHash": "0x1573a24a8403c24d47b08ab0b0da8fb86918e2930fe3c5cdd627c9546ba8314a",
      "blockNumber": "0x988ef7",
      "gasUsed": "0x1a9ce",
      "effectiveGasPrice": "0xfd6c1",
      "from": "0x63f976191f9dd75bd5b0fd81320d37fbc0d74080",
      "to": "0xf9cab5fa57d2e5dab990aba00ef7947e53817b08",
      "contractAddress": null
    },
    {
      "status": "0x1",
      "cumulativeGasUsed": "0xd986a0",
      "logs": [
        {
          "address": "0x76e9e1affde82bb4544ce95ea58ffc2f9d45061f",
          "topics": [
            "0x40e9cecb9f5f1f1c5b9c97dec2917b7ee92e57ba5563708daca94dd84ad7112f",
            "0xce786b2f6023aa55bedfff2548e7e2b90b02f67afd457657b1894b60ae0b9a8f",
            "0x000000000000000000000000f9cab5fa57d2e5dab990aba00ef7947e53817b08"
          ],
          "data": "0x0000000000000000000000000000000000000000000000000000000000000000ffffffffffffffffffffffffffffffffffffffffffffffffffee3c86c81f8000000000000000000000000000001b10bb0b96b7798ab9b84230b625e07330495c000000000000000000000000000000000000000000000000000000000000006c00000000000000000000000000000000000000000000000000000000000b291e0000000000000000000000000000000000000000000000000000000000000bb8",
          "blockHash": "0x08cb6b1d10ebf9d12ecda078063ab68dc0e094438f27843ee0a9c69fc006c091",
          "blockNumber": "0x988ef8",
          "blockTimestamp": "0x695ea790",
          "transactionHash": "0x84a7bed016928bda529acda3bd733e379e1dc1d9c681eeb0e6c1bdf4f2a91b2d",
          "transactionIndex": "0x40",
          "logIndex": "0x59",
          "removed": false
        },
        {
          "address": "0xfe8729ae15e8cd6196e691e6c7c7c913e8c4d540",
          "topics": [
            "0xcd9f4ccdc13709817c4447834a44bef5d62ffe25139e5c329d8debc5c177cc79",
            "0xce786b2f6023aa55bedfff2548e7e2b90b02f67afd457657b1894b60ae0b9a8f"
          ],
          "data": "0x000000000000000000000000000000000000000000000000000000000000000000000000000000000000000000000000000000000000000000000da475abf00000000000000000000000000000000000000000000000000000000000000000000000000000000000000000000000000000000000000000000003d641185b80000000000000000000000000000000000000000000000000002cf6cad570440000",
          "blockHash": "0x08cb6b1d10ebf9d12ecda078063ab68dc0e094438f27843ee0a9c69fc006c091",
          "blockNumber": "0x988ef8",
          "blockTimestamp": "0x695ea790",
          "transactionHash": "0x84a7bed016928bda529acda3bd733e379e1dc1d9c681eeb0e6c1bdf4f2a91b2d",
          "transactionIndex": "0x40",
          "logIndex": "0x5a",
          "removed": false
        },
        {
          "address": "0xfff9976782d46cc05630d1f6ebab18b2324d6b14",
          "topics": [
            "0xddf252ad1be2c89b69c2b068fc378daa952ba7f163c4a11628f55a4df523b3ef",
            "0x00000000000000000000000063f976191f9dd75bd5b0fd81320d37fbc0d74080",
            "0x00000000000000000000000076e9e1affde82bb4544ce95ea58ffc2f9d45061f"
          ],
          "data": "0x0000000000000000000000000000000000000000000000000011c37937e08000",
          "blockHash": "0x08cb6b1d10ebf9d12ecda078063ab68dc0e094438f27843ee0a9c69fc006c091",
          "blockNumber": "0x988ef8",
          "blockTimestamp": "0x695ea790",
          "transactionHash": "0x84a7bed016928bda529acda3bd733e379e1dc1d9c681eeb0e6c1bdf4f2a91b2d",
          "transactionIndex": "0x40",
          "logIndex": "0x5b",
          "removed": false
        }
      ],
      "logsBloom": "0x00001000000000040000000000000000000000000000000000000010000000000000000000000000000000000000000000000000040010000000000000000000000000000000000000000008000000000000000000000820000000000000010000000000000000000000004000000000000000000000000000000016000000000040000000000000000000000000010000000000000800000000000000000000000020401000000000000000000000000000000000000004000001000000000000000002000404000002000000000000000000000000000000008000020000000000000000000000004000020000000000000000000000000000000000008000",
      "type": "0x2",
      "transactionHash": "0x84a7bed016928bda529acda3bd733e379e1dc1d9c681eeb0e6c1bdf4f2a91b2d",
      "transactionIndex": "0x40",
      "blockHash": "0x08cb6b1d10ebf9d12ecda078063ab68dc0e094438f27843ee0a9c69fc006c091",
      "blockNumber": "0x988ef8",
      "gasUsed": "0x1aa12",
      "effectiveGasPrice": "0xfc902",
      "from": "0x63f976191f9dd75bd5b0fd81320d37fbc0d74080",
      "to": "0xf9cab5fa57d2e5dab990aba00ef7947e53817b08",
      "contractAddress": null
    },
    {
      "status": "0x1",
      "cumulativeGasUsed": "0xdb3092",
      "logs": [
        {
          "address": "0x76e9e1affde82bb4544ce95ea58ffc2f9d45061f",
          "topics": [
            "0x40e9cecb9f5f1f1c5b9c97dec2917b7ee92e57ba5563708daca94dd84ad7112f",
            "0xce786b2f6023aa55bedfff2548e7e2b90b02f67afd457657b1894b60ae0b9a8f",
            "0x000000000000000000000000f9cab5fa57d2e5dab990aba00ef7947e53817b08"
          ],
          "data": "0x0000000000000000000000000000000000000000000000000000000000000000ffffffffffffffffffffffffffffffffffffffffffffffffffee3c86c81f8000000000000000000000000000001b3ab5e77604a8f3059255273ae381a2989536000000000000000000000000000000000000000000000000000000000000006c00000000000000000000000000000000000000000000000000000000000b29970000000000000000000000000000000000000000000000000000000000000bb8",
          "blockHash": "0x08cb6b1d10ebf9d12ecda078063ab68dc0e094438f27843ee0a9c69fc006c091",
          "blockNumber": "0x988ef8",
          "blockTimestamp": "0x695ea790",
          "transactionHash": "0x1af350a40faa8d33a6067e7d7fdef185e42e848c5b4fbb0e9b51a1d89f651097",
          "transactionIndex": "0x41",
          "logIndex": "0x5c",
          "removed": false
        },
        {
          "address": "0xfe8729ae15e8cd6196e691e6c7c7c913e8c4d540",
          "topics": [
            "0xcd9f4ccdc13709817c4447834a44bef5d62ffe25139e5c329d8debc5c177cc79",
            "0xce786b2f6023aa55bedfff2548e7e2b90b02f67afd457657b1894b60ae0b9a8f"
          ],
          "data": "0x000000000000000000000000000000000000000000000000000000000000000000000000000000000000000000000000000000000000000000000da475abf00000000000000000000000000000000000000000000000000000000000000000000000000000000000000000000000000000000000000000000003e3e58e0770000000000000000000000000000000000000000000000000002d96aa1867288000",
          "blockHash": "0x08cb6b1d10ebf9d12ecda078063ab68dc0e094438f27843ee0a9c69fc006c091",
          "blockNumber": "0x988ef8",
          "blockTimestamp": "0x695ea790",
          "transactionHash": "0x1af350a40faa8d33a6067e7d7fdef185e42e848c5b4fbb0e9b51a1d89f651097",
          "transactionIndex": "0x41",
          "logIndex": "0x5d",
          "removed": false
        },
        {
          "address": "0xfff9976782d46cc05630d1f6ebab18b2324d6b14",
          "topics": [
            "0xddf252ad1be2c89b69c2b068fc378daa952ba7f163c4a11628f55a4df523b3ef",
            "0x00000000000000000000000063f976191f9dd75bd5b0fd81320d37fbc0d74080",
            "0x00000000000000000000000076e9e1affde82bb4544ce95ea58ffc2f9d45061f"
          ],
          "data": "0x0000000000000000000000000000000000000000000000000011c37937e08000",
          "blockHash": "0x08cb6b1d10ebf9d12ecda078063ab68dc0e094438f27843ee0a9c69fc006c091",
          "blockNumber": "0x988ef8",
          "blockTimestamp": "0x695ea790",
          "transactionHash": "0x1af350a40faa8d33a6067e7d7fdef185e42e848c5b4fbb0e9b51a1d89f651097",
          "transactionIndex": "0x41",
          "logIndex": "0x5e",
          "removed": false
        }
      ],
      "logsBloom": "0x00001000000000040000000000000000000000000000000000000010000000000000000000000000000000000000000000000000040010000000000000000000000000000000000000000008000000000000000000000820000000000000010000000000000000000000004000000000000000000000000000000016000000000040000000000000000000000000010000000000000800000000000000000000000020401000000000000000000000000000000000000004000001000000000000000002000404000002000000000000000000000000000000008000020000000000000000000000004000020000000000000000000000000000000000008000",
      "type": "0x2",
      "transactionHash": "0x1af350a40faa8d33a6067e7d7fdef185e42e848c5b4fbb0e9b51a1d89f651097",
      "transactionIndex": "0x41",
      "blockHash": "0x08cb6b1d10ebf9d12ecda078063ab68dc0e094438f27843ee0a9c69fc006c091",
      "blockNumber": "0x988ef8",
      "gasUsed": "0x1a9f2",
      "effectiveGasPrice": "0xfc902",
      "from": "0x63f976191f9dd75bd5b0fd81320d37fbc0d74080",
      "to": "0xf9cab5fa57d2e5dab990aba00ef7947e53817b08",
      "contractAddress": null
    },
    {
      "status": "0x1",
      "cumulativeGasUsed": "0xdcd6ec",
      "logs": [
        {
          "address": "0x76e9e1affde82bb4544ce95ea58ffc2f9d45061f",
          "topics": [
            "0x40e9cecb9f5f1f1c5b9c97dec2917b7ee92e57ba5563708daca94dd84ad7112f",
            "0xce786b2f6023aa55bedfff2548e7e2b90b02f67afd457657b1894b60ae0b9a8f",
            "0x000000000000000000000000f9cab5fa57d2e5dab990aba00ef7947e53817b08"
          ],
          "data": "0x0000000000000000000000000000000000000000000000000000000000000000ffffffffffffffffffffffffffffffffffffffffffffffffffee3c86c81f8000000000000000000000000000001b64b0c35551d85b516c681dbfa122d200e110000000000000000000000000000000000000000000000000000000000000006c00000000000000000000000000000000000000000000000000000000000b2a0f0000000000000000000000000000000000000000000000000000000000000bb8",
          "blockHash": "0x08cb6b1d10ebf9d12ecda078063ab68dc0e094438f27843ee0a9c69fc006c091",
          "blockNumber": "0x988ef8",
          "blockTimestamp": "0x695ea790",
          "transactionHash": "0xf2b1f789a056904972c797c80ac9873467bb669c2c9ba2a2f3a34e543ff4fbfc",
          "transactionIndex": "0x42",
          "logIndex": "0x5f",
          "removed": false
        },
        {
          "address": "0xfe8729ae15e8cd6196e691e6c7c7c913e8c4d540",
          "topics": [
            "0xcd9f4ccdc13709817c4447834a44bef5d62ffe25139e5c329d8debc5c177cc79",
            "0xce786b2f6023aa55bedfff2548e7e2b90b02f67afd457657b1894b60ae0b9a8f"
          ],
          "data": "0x000000000000000000000000000000000000000000000000000000000000000000000000000000000000000000000000000000000000000000000da475abf00000000000000000000000000000000000000000000000000000000000000000000000000000000000000000000000000000000000000000000003f18a03b360000000000000000000000000000000000000000000000000002e36895b5e0d0000",
          "blockHash": "0x08cb6b1d10ebf9d12ecda078063ab68dc0e094438f27843ee0a9c69fc006c091",
          "blockNumber": "0x988ef8",
          "blockTimestamp": "0x695ea790",
          "transactionHash": "0xf2b1f789a056904972c797c80ac9873467bb669c2c9ba2a2f3a34e543ff4fbfc",
          "transactionIndex": "0x42",
          "logIndex": "0x60",
          "removed": false
        },
        {
          "address": "0xfff9976782d46cc05630d1f6ebab18b2324d6b14",
          "topics": [
            "0xddf252ad1be2c89b69c2b068fc378daa952ba7f163c4a11628f55a4df523b3ef",
            "0x00000000000000000000000063f976191f9dd75bd5b0fd81320d37fbc0d74080",
            "0x00000000000000000000000076e9e1affde82bb4544ce95ea58ffc2f9d45061f"
          ],
          "data": "0x0000000000000000000000000000000000000000000000000011c37937e08000",
          "blockHash": "0x08cb6b1d10ebf9d12ecda078063ab68dc0e094438f27843ee0a9c69fc006c091",
          "blockNumber": "0x988ef8",
          "blockTimestamp": "0x695ea790",
          "transactionHash": "0xf2b1f789a056904972c797c80ac9873467bb669c2c9ba2a2f3a34e543ff4fbfc",
          "transactionIndex": "0x42",
          "logIndex": "0x61",
          "removed": false
        }
      ],
      "logsBloom": "0x00001000000000040000000000000000000000000000000000000010000000000000000000000000000000000000000000000000040010000000000000000000000000000000000000000008000000000000000000000820000000000000010000000000000000000000004000000000000000000000000000000016000000000040000000000000000000000000010000000000000800000000000000000000000020401000000000000000000000000000000000000004000001000000000000000002000404000002000000000000000000000000000000008000020000000000000000000000004000020000000000000000000000000000000000008000",
      "type": "0x2",
      "transactionHash": "0xf2b1f789a056904972c797c80ac9873467bb669c2c9ba2a2f3a34e543ff4fbfc",
      "transactionIndex": "0x42",
      "blockHash": "0x08cb6b1d10ebf9d12ecda078063ab68dc0e094438f27843ee0a9c69fc006c091",
      "blockNumber": "0x988ef8",
      "gasUsed": "0x1a65a",
      "effectiveGasPrice": "0xfc902",
      "from": "0x63f976191f9dd75bd5b0fd81320d37fbc0d74080",
      "to": "0xf9cab5fa57d2e5dab990aba00ef7947e53817b08",
      "contractAddress": null
    },
    {
      "status": "0x1",
      "cumulativeGasUsed": "0xde80be",
      "logs": [
        {
          "address": "0x76e9e1affde82bb4544ce95ea58ffc2f9d45061f",
          "topics": [
            "0x40e9cecb9f5f1f1c5b9c97dec2917b7ee92e57ba5563708daca94dd84ad7112f",
            "0xce786b2f6023aa55bedfff2548e7e2b90b02f67afd457657b1894b60ae0b9a8f",
            "0x000000000000000000000000f9cab5fa57d2e5dab990aba00ef7947e53817b08"
          ],
          "data": "0x0000000000000000000000000000000000000000000000000000000000000000ffffffffffffffffffffffffffffffffffffffffffffffffffee3c86c81f8000000000000000000000000000001b8eab9f349f07c39d467b14445ec401692cea000000000000000000000000000000000000000000000000000000000000006c00000000000000000000000000000000000000000000000000000000000b2a870000000000000000000000000000000000000000000000000000000000000bb8",
          "blockHash": "0x08cb6b1d10ebf9d12ecda078063ab68dc0e094438f27843ee0a9c69fc006c091",
          "blockNumber": "0x988ef8",
          "blockTimestamp": "0x695ea790",
          "transactionHash": "0x02f40a8eeb26187e92f9827cc9b9d94116aa3409962858518e4260dbd5438adc",
          "transactionIndex": "0x43",
          "logIndex": "0x62",
          "removed": false
        },
        {
          "address": "0xfe8729ae15e8cd6196e691e6c7c7c913e8c4d540",
          "topics": [
            "0xcd9f4ccdc13709817c4447834a44bef5d62ffe25139e5c329d8debc5c177cc79",
            "0xce786b2f6023aa55bedfff2548e7e2b90b02f67afd457657b1894b60ae0b9a8f"
          ],
          "data": "0x000000000000000000000000000000000000000000000000000000000000000000000000000000000000000000000000000000000000000000000da475abf00000000000000000000000000000000000000000000000000000000000000000000000000000000000000000000000000000000000000000000003ff2e795f50000000000000000000000000000000000000000000000000002ed6689e54f18000",
          "blockHash": "0x08cb6b1d10ebf9d12ecda078063ab68dc0e094438f27843ee0a9c69fc006c091",
          "blockNumber": "0x988ef8",
          "blockTimestamp": "0x695ea790",
          "transactionHash": "0x02f40a8eeb26187e92f9827cc9b9d94116aa3409962858518e4260dbd5438adc",
          "transactionIndex": "0x43",
          "logIndex": "0x63",
          "removed": false
        },
        {
          "address": "0xfff9976782d46cc05630d1f6ebab18b2324d6b14",
          "topics": [
            "0xddf252ad1be2c89b69c2b068fc378daa952ba7f163c4a11628f55a4df523b3ef",
            "0x00000000000000000000000063f976191f9dd75bd5b0fd81320d37fbc0d74080",
            "0x00000000000000000000000076e9e1affde82bb4544ce95ea58ffc2f9d45061f"
          ],
          "data": "0x0000000000000000000000000000000000000000000000000011c37937e08000",
          "blockHash": "0x08cb6b1d10ebf9d12ecda078063ab68dc0e094438f27843ee0a9c69fc006c091",
          "blockNumber": "0x988ef8",
          "blockTimestamp": "0x695ea790",
          "transactionHash": "0x02f40a8eeb26187e92f9827cc9b9d94116aa3409962858518e4260dbd5438adc",
          "transactionIndex": "0x43",
          "logIndex": "0x64",
          "removed": false
        }
      ],
      "logsBloom": "0x00001000000000040000000000000000000000000000000000000010000000000000000000000000000000000000000000000000040010000000000000000000000000000000000000000008000000000000000000000820000000000000010000000000000000000000004000000000000000000000000000000016000000000040000000000000000000000000010000000000000800000000000000000000000020401000000000000000000000000000000000000004000001000000000000000002000404000002000000000000000000000000000000008000020000000000000000000000004000020000000000000000000000000000000000008000",
      "type": "0x2",
      "transactionHash": "0x02f40a8eeb26187e92f9827cc9b9d94116aa3409962858518e4260dbd5438adc",
      "transactionIndex": "0x43",
      "blockHash": "0x08cb6b1d10ebf9d12ecda078063ab68dc0e094438f27843ee0a9c69fc006c091",
      "blockNumber": "0x988ef8",
      "gasUsed": "0x1a9d2",
      "effectiveGasPrice": "0xfc902",
      "from": "0x63f976191f9dd75bd5b0fd81320d37fbc0d74080",
      "to": "0xf9cab5fa57d2e5dab990aba00ef7947e53817b08",
      "contractAddress": null
    },
    {
      "status": "0x1",
      "cumulativeGasUsed": "0xe02b30",
      "logs": [
        {
          "address": "0x76e9e1affde82bb4544ce95ea58ffc2f9d45061f",
          "topics": [
            "0x40e9cecb9f5f1f1c5b9c97dec2917b7ee92e57ba5563708daca94dd84ad7112f",
            "0xce786b2f6023aa55bedfff2548e7e2b90b02f67afd457657b1894b60ae0b9a8f",
            "0x000000000000000000000000f9cab5fa57d2e5dab990aba00ef7947e53817b08"
          ],
          "data": "0x0000000000000000000000000000000000000000000000000000000000000000ffffffffffffffffffffffffffffffffffffffffffffffffffee3c86c81f8000000000000000000000000000001bb8a67b13ec372be9208e0ac91c6530d178c4000000000000000000000000000000000000000000000000000000000000006c00000000000000000000000000000000000000000000000000000000000b2afd0000000000000000000000000000000000000000000000000000000000000bb8",
          "blockHash": "0x08cb6b1d10ebf9d12ecda078063ab68dc0e094438f27843ee0a9c69fc006c091",
          "blockNumber": "0x988ef8",
          "blockTimestamp": "0x695ea790",
          "transactionHash": "0xedb39ef83e550bf68ab54ff3915982087425ab5de2ed2079e5f3d69e512f8e99",
          "transactionIndex": "0x44",
          "logIndex": "0x65",
          "removed": false
        },
        {
          "address": "0xfe8729ae15e8cd6196e691e6c7c7c913e8c4d540",
          "topics": [
            "0xcd9f4ccdc13709817c4447834a44bef5d62ffe25139e5c329d8debc5c177cc79",
            "0xce786b2f6023aa55bedfff2548e7e2b90b02f67afd457657b1894b60ae0b9a8f"
          ],
          "data": "0x000000000000000000000000000000000000000000000000000000000000000000000000000000000000000000000000000000000000000000000da475abf000000000000000000000000000000000000000000000000000000000000000000000000000000000000000000000000000000000000000000000040cd2ef0b40000000000000000000000000000000000000000000000000002f7647e14bd60000",
          "blockHash": "0x08cb6b1d10ebf9d12ecda078063ab68dc0e094438f27843ee0a9c69fc006c091",
          "blockNumber": "0x988ef8",
          "blockTimestamp": "0x695ea790",
          "transactionHash": "0xedb39ef83e550bf68ab54ff3915982087425ab5de2ed2079e5f3d69e512f8e99",
          "transactionIndex": "0x44",
          "logIndex": "0x66",
          "removed": false
        },
        {
          "address": "0xfff9976782d46cc05630d1f6ebab18b2324d6b14",
          "topics": [
            "0xddf252ad1be2c89b69c2b068fc378daa952ba7f163c4a11628f55a4df523b3ef",
            "0x00000000000000000000000063f976191f9dd75bd5b0fd81320d37fbc0d74080",
            "0x00000000000000000000000076e9e1affde82bb4544ce95ea58ffc2f9d45061f"
          ],
          "data": "0x0000000000000000000000000000000000000000000000000011c37937e08000",
          "blockHash": "0x08cb6b1d10ebf9d12ecda078063ab68dc0e094438f27843ee0a9c69fc006c091",
          "blockNumber": "0x988ef8",
          "blockTimestamp": "0x695ea790",
          "transactionHash": "0xedb39ef83e550bf68ab54ff3915982087425ab5de2ed2079e5f3d69e512f8e99",
          "transactionIndex": "0x44",
          "logIndex": "0x67",
          "removed": false
        }
      ],
      "logsBloom": "0x00001000000000040000000000000000000000000000000000000010000000000000000000000000000000000000000000000000040010000000000000000000000000000000000000000008000000000000000000000820000000000000010000000000000000000000004000000000000000000000000000000016000000000040000000000000000000000000010000000000000800000000000000000000000020401000000000000000000000000000000000000004000001000000000000000002000404000002000000000000000000000000000000008000020000000000000000000000004000020000000000000000000000000000000000008000",
      "type": "0x2",
      "transactionHash": "0xedb39ef83e550bf68ab54ff3915982087425ab5de2ed2079e5f3d69e512f8e99",
      "transactionIndex": "0x44",
      "blockHash": "0x08cb6b1d10ebf9d12ecda078063ab68dc0e094438f27843ee0a9c69fc006c091",
      "blockNumber": "0x988ef8",
      "gasUsed": "0x1aa72",
      "effectiveGasPrice": "0xfc902",
      "from": "0x63f976191f9dd75bd5b0fd81320d37fbc0d74080",
      "to": "0xf9cab5fa57d2e5dab990aba00ef7947e53817b08",
      "contractAddress": null
    },
    {
      "status": "0x1",
      "cumulativeGasUsed": "0xe1d562",
      "logs": [
        {
          "address": "0x76e9e1affde82bb4544ce95ea58ffc2f9d45061f",
          "topics": [
            "0x40e9cecb9f5f1f1c5b9c97dec2917b7ee92e57ba5563708daca94dd84ad7112f",
            "0xce786b2f6023aa55bedfff2548e7e2b90b02f67afd457657b1894b60ae0b9a8f",
            "0x000000000000000000000000f9cab5fa57d2e5dab990aba00ef7947e53817b08"
          ],
          "data": "0x0000000000000000000000000000000000000000000000000000000000000000ffffffffffffffffffffffffffffffffffffffffffffffffffee3c86c81f8000000000000000000000000000001be2a156f339669434faa1014dda066039c49e000000000000000000000000000000000000000000000000000000000000006c00000000000000000000000000000000000000000000000000000000000b2b730000000000000000000000000000000000000000000000000000000000000bb8",
          "blockHash": "0x08cb6b1d10ebf9d12ecda078063ab68dc0e094438f27843ee0a9c69fc006c091",
          "blockNumber": "0x988ef8",
          "blockTimestamp": "0x695ea790",
          "transactionHash": "0x5b75fc54afebe7e667baaa9c1989553014ae6605b5ab404de1d8abe0dc0395a7",
          "transactionIndex": "0x45",
          "logIndex": "0x68",
          "removed": false
        },
        {
          "address": "0xfe8729ae15e8cd6196e691e6c7c7c913e8c4d540",
          "topics": [
            "0xcd9f4ccdc13709817c4447834a44bef5d62ffe25139e5c329d8debc5c177cc79",
            "0xce786b2f6023aa55bedfff2548e7e2b90b02f67afd457657b1894b60ae0b9a8f"
          ],
          "data": "0x000000000000000000000000000000000000000000000000000000000000000000000000000000000000000000000000000000000000000000000da475abf000000000000000000000000000000000000000000000000000000000000000000000000000000000000000000000000000000000000000000000041a7764b730000000000000000000000000000000000000000000000000003016272442ba8000",
          "blockHash": "0x08cb6b1d10ebf9d12ecda078063ab68dc0e094438f27843ee0a9c69fc006c091",
          "blockNumber": "0x988ef8",
          "blockTimestamp": "0x695ea790",
          "transactionHash": "0x5b75fc54afebe7e667baaa9c1989553014ae6605b5ab404de1d8abe0dc0395a7",
          "transactionIndex": "0x45",
          "logIndex": "0x69",
          "removed": false
        },
        {
          "address": "0xfff9976782d46cc05630d1f6ebab18b2324d6b14",
          "topics": [
            "0xddf252ad1be2c89b69c2b068fc378daa952ba7f163c4a11628f55a4df523b3ef",
            "0x00000000000000000000000063f976191f9dd75bd5b0fd81320d37fbc0d74080",
            "0x00000000000000000000000076e9e1affde82bb4544ce95ea58ffc2f9d45061f"
          ],
          "data": "0x0000000000000000000000000000000000000000000000000011c37937e08000",
          "blockHash": "0x08cb6b1d10ebf9d12ecda078063ab68dc0e094438f27843ee0a9c69fc006c091",
          "blockNumber": "0x988ef8",
          "blockTimestamp": "0x695ea790",
          "transactionHash": "0x5b75fc54afebe7e667baaa9c1989553014ae6605b5ab404de1d8abe0dc0395a7",
          "transactionIndex": "0x45",
          "logIndex": "0x6a",
          "removed": false
        }
      ],
      "logsBloom": "0x00001000000000040000000000000000000000000000000000000010000000000000000000000000000000000000000000000000040010000000000000000000000000000000000000000008000000000000000000000820000000000000010000000000000000000000004000000000000000000000000000000016000000000040000000000000000000000000010000000000000800000000000000000000000020401000000000000000000000000000000000000004000001000000000000000002000404000002000000000000000000000000000000008000020000000000000000000000004000020000000000000000000000000000000000008000",
      "type": "0x2",
      "transactionHash": "0x5b75fc54afebe7e667baaa9c1989553014ae6605b5ab404de1d8abe0dc0395a7",
      "transactionIndex": "0x45",
      "blockHash": "0x08cb6b1d10ebf9d12ecda078063ab68dc0e094438f27843ee0a9c69fc006c091",
      "blockNumber": "0x988ef8",
      "gasUsed": "0x1aa32",
      "effectiveGasPrice": "0xfc902",
      "from": "0x63f976191f9dd75bd5b0fd81320d37fbc0d74080",
      "to": "0xf9cab5fa57d2e5dab990aba00ef7947e53817b08",
      "contractAddress": null
    },
    {
      "status": "0x1",
      "cumulativeGasUsed": "0xe37f90",
      "logs": [
        {
          "address": "0x76e9e1affde82bb4544ce95ea58ffc2f9d45061f",
          "topics": [
            "0x40e9cecb9f5f1f1c5b9c97dec2917b7ee92e57ba5563708daca94dd84ad7112f",
            "0xce786b2f6023aa55bedfff2548e7e2b90b02f67afd457657b1894b60ae0b9a8f",
            "0x000000000000000000000000f9cab5fa57d2e5dab990aba00ef7947e53817b08"
          ],
          "data": "0x0000000000000000000000000000000000000000000000000000000000000000ffffffffffffffffffffffffffffffffffffffffffffffffffee3c86c81f8000000000000000000000000000001c0c9c32d28695fc80d4b3f7d297a78fa21078000000000000000000000000000000000000000000000000000000000000006c00000000000000000000000000000000000000000000000000000000000b2be90000000000000000000000000000000000000000000000000000000000000bb8",
          "blockHash": "0x08cb6b1d10ebf9d12ecda078063ab68dc0e094438f27843ee0a9c69fc006c091",
          "blockNumber": "0x988ef8",
          "blockTimestamp": "0x695ea790",
          "transactionHash": "0x12757578a475ecf11b77b1c15a46d88370878c47b948e1e4f8adcc9b912812ee",
          "transactionIndex": "0x46",
          "logIndex": "0x6b",
          "removed": false
        },
        {
          "address": "0xfe8729ae15e8cd6196e691e6c7c7c913e8c4d540",
          "topics": [
            "0xcd9f4ccdc13709817c4447834a44bef5d62ffe25139e5c329d8debc5c177cc79",
            "0xce786b2f6023aa55bedfff2548e7e2b90b02f67afd457657b1894b60ae0b9a8f"
          ],
          "data": "0x000000000000000000000000000000000000000000000000000000000000000000000000000000000000000000000000000000000000000000000da475abf00000000000000000000000000000000000000000000000000000000000000000000000000000000000000000000000000000000000000000000004281bda63200000000000000000000000000000000000000000000000000030b60667399f0000",
          "blockHash": "0x08cb6b1d10ebf9d12ecda078063ab68dc0e094438f27843ee0a9c69fc006c091",
          "blockNumber": "0x988ef8",
          "blockTimestamp": "0x695ea790",
          "transactionHash": "0x12757578a475ecf11b77b1c15a46d88370878c47b948e1e4f8adcc9b912812ee",
          "transactionIndex": "0x46",
          "logIndex": "0x6c",
          "removed": false
        },
        {
          "address": "0xfff9976782d46cc05630d1f6ebab18b2324d6b14",
          "topics": [
            "0xddf252ad1be2c89b69c2b068fc378daa952ba7f163c4a11628f55a4df523b3ef",
            "0x00000000000000000000000063f976191f9dd75bd5b0fd81320d37fbc0d74080",
            "0x00000000000000000000000076e9e1affde82bb4544ce95ea58ffc2f9d45061f"
          ],
          "data": "0x0000000000000000000000000000000000000000000000000011c37937e08000",
          "blockHash": "0x08cb6b1d10ebf9d12ecda078063ab68dc0e094438f27843ee0a9c69fc006c091",
          "blockNumber": "0x988ef8",
          "blockTimestamp": "0x695ea790",
          "transactionHash": "0x12757578a475ecf11b77b1c15a46d88370878c47b948e1e4f8adcc9b912812ee",
          "transactionIndex": "0x46",
          "logIndex": "0x6d",
          "removed": false
        }
      ],
      "logsBloom": "0x00001000000000040000000000000000000000000000000000000010000000000000000000000000000000000000000000000000040010000000000000000000000000000000000000000008000000000000000000000820000000000000010000000000000000000000004000000000000000000000000000000016000000000040000000000000000000000000010000000000000800000000000000000000000020401000000000000000000000000000000000000004000001000000000000000002000404000002000000000000000000000000000000008000020000000000000000000000004000020000000000000000000000000000000000008000",
      "type": "0x2",
      "transactionHash": "0x12757578a475ecf11b77b1c15a46d88370878c47b948e1e4f8adcc9b912812ee",
      "transactionIndex": "0x46",
      "blockHash": "0x08cb6b1d10ebf9d12ecda078063ab68dc0e094438f27843ee0a9c69fc006c091",
      "blockNumber": "0x988ef8",
      "gasUsed": "0x1aa2e",
      "effectiveGasPrice": "0xfc902",
      "from": "0x63f976191f9dd75bd5b0fd81320d37fbc0d74080",
      "to": "0xf9cab5fa57d2e5dab990aba00ef7947e53817b08",
      "contractAddress": null
    },
    {
      "status": "0x1",
      "cumulativeGasUsed": "0xe529c2",
      "logs": [
        {
          "address": "0x76e9e1affde82bb4544ce95ea58ffc2f9d45061f",
          "topics": [
            "0x40e9cecb9f5f1f1c5b9c97dec2917b7ee92e57ba5563708daca94dd84ad7112f",
            "0xce786b2f6023aa55bedfff2548e7e2b90b02f67afd457657b1894b60ae0b9a8f",
            "0x000000000000000000000000f9cab5fa57d2e5dab990aba00ef7947e53817b08"
          ],
          "data": "0x0000000000000000000000000000000000000000000000000000000000000000ffffffffffffffffffffffffffffffffffffffffffffffffffee3c86c81f8000000000000000000000000000001c36970eb1d3c564ccaec6ee575548bf0a5c52000000000000000000000000000000000000000000000000000000000000006c00000000000000000000000000000000000000000000000000000000000b2c5d0000000000000000000000000000000000000000000000000000000000000bb8",
          "blockHash": "0x08cb6b1d10ebf9d12ecda078063ab68dc0e094438f27843ee0a9c69fc006c091",
          "blockNumber": "0x988ef8",
          "blockTimestamp": "0x695ea790",
          "transactionHash": "0x1ce3102b75ef99c72d65e63c3fd16192066d2d6e5899c0b17d9c19ee98f42729",
          "transactionIndex": "0x47",
          "logIndex": "0x6e",
          "removed": false
        },
        {
          "address": "0xfe8729ae15e8cd6196e691e6c7c7c913e8c4d540",
          "topics": [
            "0xcd9f4ccdc13709817c4447834a44bef5d62ffe25139e5c329d8debc5c177cc79",
            "0xce786b2f6023aa55bedfff2548e7e2b90b02f67afd457657b1894b60ae0b9a8f"
          ],
          "data": "0x000000000000000000000000000000000000000000000000000000000000000000000000000000000000000000000000000000000000000000000da475abf0000000000000000000000000000000000000000000000000000000000000000000000000000000000000000000000000000000000000000000000435c0500f10000000000000000000000000000000000000000000000000003155e5aa30838000",
          "blockHash": "0x08cb6b1d10ebf9d12ecda078063ab68dc0e094438f27843ee0a9c69fc006c091",
          "blockNumber": "0x988ef8",
          "blockTimestamp": "0x695ea790",
          "transactionHash": "0x1ce3102b75ef99c72d65e63c3fd16192066d2d6e5899c0b17d9c19ee98f42729",
          "transactionIndex": "0x47",
          "logIndex": "0x6f",
          "removed": false
        },
        {
          "address": "0xfff9976782d46cc05630d1f6ebab18b2324d6b14",
          "topics": [
            "0xddf252ad1be2c89b69c2b068fc378daa952ba7f163c4a11628f55a4df523b3ef",
            "0x00000000000000000000000063f976191f9dd75bd5b0fd81320d37fbc0d74080",
            "0x00000000000000000000000076e9e1affde82bb4544ce95ea58ffc2f9d45061f"
          ],
          "data": "0x0000000000000000000000000000000000000000000000000011c37937e08000",
          "blockHash": "0x08cb6b1d10ebf9d12ecda078063ab68dc0e094438f27843ee0a9c69fc006c091",
          "blockNumber": "0x988ef8",
          "blockTimestamp": "0x695ea790",
          "transactionHash": "0x1ce3102b75ef99c72d65e63c3fd16192066d2d6e5899c0b17d9c19ee98f42729",
          "transactionIndex": "0x47",
          "logIndex": "0x70",
          "removed": false
        }
      ],
      "logsBloom": "0x00001000000000040000000000000000000000000000000000000010000000000000000000000000000000000000000000000000040010000000000000000000000000000000000000000008000000000000000000000820000000000000010000000000000000000000004000000000000000000000000000000016000000000040000000000000000000000000010000000000000800000000000000000000000020401000000000000000000000000000000000000004000001000000000000000002000404000002000000000000000000000000000000008000020000000000000000000000004000020000000000000000000000000000000000008000",
      "type": "0x2",
      "transactionHash": "0x1ce3102b75ef99c72d65e63c3fd16192066d2d6e5899c0b17d9c19ee98f42729",
      "transactionIndex": "0x47",
      "blockHash": "0x08cb6b1d10ebf9d12ecda078063ab68dc0e094438f27843ee0a9c69fc006c091",
      "blockNumber": "0x988ef8",
      "gasUsed": "0x1aa32",
      "effectiveGasPrice": "0xfc902",
      "from": "0x63f976191f9dd75bd5b0fd81320d37fbc0d74080",
      "to": "0xf9cab5fa57d2e5dab990aba00ef7947e53817b08",
      "contractAddress": null
    }
  ],
  "libraries": [],
  "pending": [],
  "returns": {},
  "timestamp": 1767810961752,
  "chain": 11155111,
  "commit": "cd7c969"
}