{
  "transactions": [
    {
      "hash": "0x89b17b099549ae6f51e3c904ead075756e81212c6b3a6da30e17797ac53d906b",
      "transactionType": "CALL",
      "contractName": null,
      "contractAddress": "0xc77ae1fae9bb15fdd1ea96897a12ec074fa65250",
      "function": "initialize((address,address,uint24,int24,address),uint160)",
      "arguments": [
        "(0x1c7D4B196Cb0C7B01d743Fbc6116a902379C7238, 0xfFf9976782d46CC05630D1f6eBAb18b2324d6B14, 3000, 60, 0x5D2221e062d9577Ceec30661A6803a5A67D6D540)",
        "79228162514264337593543950336"
      ],
      "transaction": {
        "from": "0x63f976191f9dd75bd5b0fd81320d37fbc0d74080",
        "to": "0xc77ae1fae9bb15fdd1ea96897a12ec074fa65250",
        "gas": "0x1c18a",
        "value": "0x0",
        "input": "0x6276cbbe0000000000000000000000001c7d4b196cb0c7b01d743fbc6116a902379c7238000000000000000000000000fff9976782d46cc05630d1f6ebab18b2324d6b140000000000000000000000000000000000000000000000000000000000000bb8000000000000000000000000000000000000000000000000000000000000003c0000000000000000000000005d2221e062d9577ceec30661a6803a5a67d6d5400000000000000000000000000000000000000001000000000000000000000000",
        "nonce": "0x102",
        "chainId": "0xaa36a7"
      },
      "additionalContracts": [],
      "isFixedGasLimit": false
    },
    {
      "hash": "0x0776676f7ff4c8766db236590626eda6049383fe14430167495bcf14beeb578a",
      "transactionType": "CREATE",
      "contractName": "LiquidityHelper",
      "contractAddress": "0x5d505cdcce9cc5fc777831d64b8f98aa4fed7861",
      "function": null,
      "arguments": [
        "0xc77aE1faE9BB15fDD1Ea96897A12Ec074FA65250"
      ],
      "transaction": {
        "from": "0x63f976191f9dd75bd5b0fd81320d37fbc0d74080",
        "gas": "0x100e46",
        "value": "0x0",
        "input": "0x60a034607357601f610e4338819003918201601f19168301916001600160401b03831184841017607757808492602094604052833981010312607357516001600160a01b0381168103607357608052604051610db7908161008c8239608051818181608f0152818161012801526108f40152f35b5f80fd5b634e487b7160e01b5f52604160045260245ffdfe60806040526004361015610011575f80fd5b5f3560e01c80635a874382146104ef5780635e94883c146104ef57806391dd7346146100b75763dc4c90d314610045575f80fd5b346100b3575f7ffffffffffffffffffffffffffffffffffffffffffffffffffffffffffffffffc3601126100b357602060405173ffffffffffffffffffffffffffffffffffffffff7f0000000000000000000000000000000000000000000000000000000000000000168152f35b5f80fd5b346100b35760207ffffffffffffffffffffffffffffffffffffffffffffffffffffffffffffffffc3601126100b35760043567ffffffffffffffff81116100b357366023820112156100b357806004013567ffffffffffffffff81116100b35781019060248201903682116100b3577f000000000000000000000000000000000000000000000000000000000000000073ffffffffffffffffffffffffffffffffffffffff811691823303610491576020818603126100b357602481013567ffffffffffffffff81116100b357019361016090859003126100b3576040519261019f846104f4565b6101ab6024860161057e565b84526101ba81604487016105ad565b92602085019384526101cf8260e48801610645565b90604086019182526101648701359267ffffffffffffffff84116100b3575f6102056102949260246040976102c29c01016106c9565b938460608a01526102d6885191519587519b8c97889687957f5a6bcfda000000000000000000000000000000000000000000000000000000008752600487019073ffffffffffffffffffffffffffffffffffffffff6080809282815116855282602082015116602086015262ffffff6040820151166040860152606081015160020b6060860152015116910152565b8051600290810b60a48701526020820151900b60c4860152604081015160e486015260600151610104850152565b6101406101248401526101448301906109ba565b03925af1928315610486575f93610450575b61034994508360801d600f0b9184600f0b925f811261040d575b5f84126103c1575b5f811361037f575b505f831361034d575b85856040519060208201526020815261033560408261053d565b6040519182916020835260208301906109ba565b0390f35b73ffffffffffffffffffffffffffffffffffffffff806020610376965101511692511691610d16565b8280808061031b565b6103bb9073ffffffffffffffffffffffffffffffffffffffff865151168373ffffffffffffffffffffffffffffffffffffffff86511691610d16565b86610312565b61040873ffffffffffffffffffffffffffffffffffffffff6020875101511673ffffffffffffffffffffffffffffffffffffffff85511684610402886109fd565b92610a7d565b61030a565b61044b73ffffffffffffffffffffffffffffffffffffffff8651511673ffffffffffffffffffffffffffffffffffffffff85511684610402856109fd565b610302565b92506040843d60401161047e575b8161046b6040938361053d565b810103126100b3576103499351926102e8565b3d915061045e565b6040513d5f823e3d90fd5b60646040517f08c379a000000000000000000000000000000000000000000000000000000000815260206004820152601960248201527f4f6e6c7920506f6f6c4d616e616765722063616e2063616c6c000000000000006044820152fd5b61070f565b6080810190811067ffffffffffffffff82111761051057604052565b7f4e487b71000000000000000000000000000000000000000000000000000000005f52604160045260245ffd5b90601f7fffffffffffffffffffffffffffffffffffffffffffffffffffffffffffffffe0910116810190811067ffffffffffffffff82111761051057604052565b359073ffffffffffffffffffffffffffffffffffffffff821682036100b357565b35908160020b82036100b357565b91908260a09103126100b35760405160a0810181811067ffffffffffffffff8211176105105760405280926105e18161057e565b82526105ef6020820161057e565b602083015260408101359062ffffff821682036100b357608091604084015261061a6060820161059f565b606084015201359073ffffffffffffffffffffffffffffffffffffffff821682036100b35760800152565b91908260809103126100b35760405161065d816104f4565b606080829461066b8161059f565b84526106796020820161059f565b6020850152604081013560408501520135910152565b67ffffffffffffffff811161051057601f017fffffffffffffffffffffffffffffffffffffffffffffffffffffffffffffffe01660200190565b81601f820112156100b3578035906106e08261068f565b926106ee604051948561053d565b828452602083830101116100b357815f926020809301838601378301015290565b346100b3576101407ffffffffffffffffffffffffffffffffffffffffffffffffffffffffffffffffc3601126100b35761074a3660046105ad565b6107553660a4610645565b906101243567ffffffffffffffff81116100b35761089f5f926108736108da9561085e61079b73ffffffffffffffffffffffffffffffffffffffff9636906004016106c9565b9161082c604051956107ac876104f4565b3387526020870190815260408701928352606087019485526040519889976020808a01525116604088015251606087019073ffffffffffffffffffffffffffffffffffffffff6080809282815116855282602082015116602086015262ffffff6040820151166040860152606081015160020b6060860152015116910152565b518051600290810b6101008701526020820151900b610120860152604081015161014086015260600151610160850152565b516101606101808401526101a08301906109ba565b037fffffffffffffffffffffffffffffffffffffffffffffffffffffffffffffffe0810183528261053d565b604051809381927f48c894910000000000000000000000000000000000000000000000000000000083526020600484015260248301906109ba565b03818373ffffffffffffffffffffffffffffffffffffffff7f0000000000000000000000000000000000000000000000000000000000000000165af1908115610486575f91610940575b506020818051810103126100b357602080910151604051908152f35b90503d805f833e610951818361053d565b8101906020818303126100b35780519067ffffffffffffffff82116100b3570181601f820112156100b3578051906109888261068f565b92610996604051948561053d565b828452602083830101116100b357815f9260208093018386015e830101525f610924565b907fffffffffffffffffffffffffffffffffffffffffffffffffffffffffffffffe0601f602080948051918291828752018686015e5f8582860101520116010190565b7f80000000000000000000000000000000000000000000000000000000000000008114610a29575f0390565b7f4e487b71000000000000000000000000000000000000000000000000000000005f52601160045260245ffd5b908160209103126100b3575180151581036100b35790565b908160209103126100b3575190565b90919073ffffffffffffffffffffffffffffffffffffffff1680610b1d57505073ffffffffffffffffffffffffffffffffffffffff600460209260405194859384927f11da60b4000000000000000000000000000000000000000000000000000000008452165af1801561048657610af25750565b610b139060203d602011610b16575b610b0b818361053d565b810190610a6e565b50565b503d610b01565b90929173ffffffffffffffffffffffffffffffffffffffff1691823b156100b357604051937fa58411940000000000000000000000000000000000000000000000000000000085528260048601525a945f816024818389819bf1801561048657610ced575b5073ffffffffffffffffffffffffffffffffffffffff1684308214610c79576020929160649160405195869485937f23b872dd000000000000000000000000000000000000000000000000000000008552600485015288602485015260448401525af18015610c6e57916020918493610c41575b505b6004604051809581937f11da60b40000000000000000000000000000000000000000000000000000000083525af1908115610c355750610af25750565b604051903d90823e3d90fd5b610c6090833d8511610c67575b610c58818361053d565b810190610a56565b505f610bf6565b503d610c4e565b6040513d85823e3d90fd5b929050604460209260405194859384927fa9059cbb00000000000000000000000000000000000000000000000000000000845288600485015260248401525af18015610c6e57916020918493610cd0575b50610bf8565b610ce690833d8511610c6757610c58818361053d565b505f610cca565b610cfa9195505f9061053d565b5f9373ffffffffffffffffffffffffffffffffffffffff610b82565b91929073ffffffffffffffffffffffffffffffffffffffff16803b156100b3575f928360649273ffffffffffffffffffffffffffffffffffffffff948560405198899788967f0b0d9c0900000000000000000000000000000000000000000000000000000000885216600487015216602485015260448401525af1801561048657610d9e5750565b5f610da89161053d565b56fea164736f6c634300081a000a000000000000000000000000c77ae1fae9bb15fdd1ea96897a12ec074fa65250",
        "nonce": "0x103",
        "chainId": "0xaa36a7"
      },
      "additionalContracts": [],
      "isFixedGasLimit": false
    },
    {
      "hash": "0x760b12bc9a6c875e70ed2a1de9369b55142a551fa4d989831b6b0841fa48909c",
      "transactionType": "CALL",
      "contractName": null,
      "contractAddress": "0x1c7d4b196cb0c7b01d743fbc6116a902379c7238",
      "function": "approve(address,uint256)",
      "arguments": [
        "0x5D505CdCcE9cc5FC777831D64b8f98AA4Fed7861",
        "115792089237316195423570985008687907853269984665640564039457584007913129639935"
      ],
      "transaction": {
        "from": "0x63f976191f9dd75bd5b0fd81320d37fbc0d74080",
        "to": "0x1c7d4b196cb0c7b01d743fbc6116a902379c7238",
        "gas": "0x13eb1",
        "value": "0x0",
        "input": "0x095ea7b30000000000000000000000005d505cdcce9cc5fc777831d64b8f98aa4fed7861ffffffffffffffffffffffffffffffffffffffffffffffffffffffffffffffff",
        "nonce": "0x104",
        "chainId": "0xaa36a7"
      },
      "additionalContracts": [],
      "isFixedGasLimit": false
    },
    {
      "hash": "0x32975854f04640ba84db79e0036815fb258d3a1bd96cacf8981eb9bb66dae50e",
      "transactionType": "CALL",
      "contractName": null,
      "contractAddress": "0xfff9976782d46cc05630d1f6ebab18b2324d6b14",
      "function": "approve(address,uint256)",
      "arguments": [
        "0x5D505CdCcE9cc5FC777831D64b8f98AA4Fed7861",
        "115792089237316195423570985008687907853269984665640564039457584007913129639935"
      ],
      "transaction": {
        "from": "0x63f976191f9dd75bd5b0fd81320d37fbc0d74080",
        "to": "0xfff9976782d46cc05630d1f6ebab18b2324d6b14",
        "gas": "0xfa27",
        "value": "0x0",
        "input": "0x095ea7b30000000000000000000000005d505cdcce9cc5fc777831d64b8f98aa4fed7861ffffffffffffffffffffffffffffffffffffffffffffffffffffffffffffffff",
        "nonce": "0x105",
        "chainId": "0xaa36a7"
      },
      "additionalContracts": [],
      "isFixedGasLimit": false
    },
    {
      "hash": null,
      "transactionType": "CALL",
      "contractName": "LiquidityHelper",
      "contractAddress": "0x5d505cdcce9cc5fc777831d64b8f98aa4fed7861",
      "function": "addLiquidity((address,address,uint24,int24,address),(int24,int24,int256,bytes32),bytes)",
      "arguments": [
        "(0x1c7D4B196Cb0C7B01d743Fbc6116a902379C7238, 0xfFf9976782d46CC05630D1f6eBAb18b2324d6B14, 3000, 60, 0x5D2221e062d9577Ceec30661A6803a5A67D6D540)",
        "(-9480, 9480, 10326726, 0x0000000000000000000000000000000000000000000000000000000000000000)",
        "0x"
      ],
      "transaction": {
        "from": "0x63f976191f9dd75bd5b0fd81320d37fbc0d74080",
        "to": "0x5d505cdcce9cc5fc777831d64b8f98aa4fed7861",
        "gas": "0x68b7c",
        "value": "0x0",
        "input": "0x5a8743820000000000000000000000001c7d4b196cb0c7b01d743fbc6116a902379c7238000000000000000000000000fff9976782d46cc05630d1f6ebab18b2324d6b140000000000000000000000000000000000000000000000000000000000000bb8000000000000000000000000000000000000000000000000000000000000003c0000000000000000000000005d2221e062d9577ceec30661a6803a5a67d6d540ffffffffffffffffffffffffffffffffffffffffffffffffffffffffffffdaf8000000000000000000000000000000000000000000000000000000000000250800000000000000000000000000000000000000000000000000000000009d92c6000000000000000000000000000000000000000000000000000000000000000000000000000000000000000000000000000000000000000000000000000001400000000000000000000000000000000000000000000000000000000000000000",
        "nonce": "0x106",
        "chainId": "0xaa36a7"
      },
      "additionalContracts": [],
      "isFixedGasLimit": false
    }
  ],
  "receipts": [],
  "libraries": [],
  "pending": [
    "0x89b17b099549ae6f51e3c904ead075756e81212c6b3a6da30e17797ac53d906b",
    "0x0776676f7ff4c8766db236590626eda6049383fe14430167495bcf14beeb578a",
    "0x760b12bc9a6c875e70ed2a1de9369b55142a551fa4d989831b6b0841fa48909c",
    "0x32975854f04640ba84db79e0036815fb258d3a1bd96cacf8981eb9bb66dae50e"
  ],
  "returns": {},
  "timestamp": 1767551381058,
  "chain": 11155111,
  "commit": "85a9738"
}