{
  "transactions": [
    {
      "hash": "0x539238b61705fb098e08faf5998f64bcb92f5d2ea6353a1927785a78d174a65f",
      "transactionType": "CALL",
      "contractName": null,
      "contractAddress": "0x76e9e1affde82bb4544ce95ea58ffc2f9d45061f",
      "function": "initialize((address,address,uint24,int24,address),uint160)",
      "arguments": [
        "(0x1c7D4B196Cb0C7B01d743Fbc6116a902379C7238, 0xfFf9976782d46CC05630D1f6eBAb18b2324d6B14, 10000, 60, 0xC5fB60De90960712B938dC19a7DC8a904d039540)",
        "340275971719517849884124397208085282957798792"
      ],
      "transaction": {
        "from": "0x63f976191f9dd75bd5b0fd81320d37fbc0d74080",
        "to": "0x76e9e1affde82bb4544ce95ea58ffc2f9d45061f",
        "gas": "0x1abdf",
        "value": "0x0",
        "input": "0x6276cbbe0000000000000000000000001c7d4b196cb0c7b01d743fbc6116a902379c7238000000000000000000000000fff9976782d46cc05630d1f6ebab18b2324d6b140000000000000000000000000000000000000000000000000000000000002710000000000000000000000000000000000000000000000000000000000000003c000000000000000000000000c5fb60de90960712b938dc19a7dc8a904d039540000000000000000000000000000f422d34c9022439a2ba7376e9ebcf6543ad88",
        "nonce": "0xde2",
        "chainId": "0xaa36a7"
      },
      "additionalContracts": [],
      "isFixedGasLimit": false
    },
    {
      "hash": "0x4921517ccee04e3c8ad4b40d7c74df97b987c41f6936e71df81a7533170659d3",
      "transactionType": "CALL",
      "contractName": null,
      "contractAddress": "0xc5fb60de90960712b938dc19a7dc8a904d039540",
      "function": "setPoolConfig((address,address,uint24,int24,address),bool)",
      "arguments": [
        "(0x1c7D4B196Cb0C7B01d743Fbc6116a902379C7238, 0xfFf9976782d46CC05630D1f6eBAb18b2324d6B14, 10000, 60, 0xC5fB60De90960712B938dC19a7DC8a904d039540)",
        "true"
      ],
      "transaction": {
        "from": "0x63f976191f9dd75bd5b0fd81320d37fbc0d74080",
        "to": "0xc5fb60de90960712b938dc19a7dc8a904d039540",
        "gas": "0xa724",
        "value": "0x0",
        "input": "0x08e9b5ac0000000000000000000000001c7d4b196cb0c7b01d743fbc6116a902379c7238000000000000000000000000fff9976782d46cc05630d1f6ebab18b2324d6b140000000000000000000000000000000000000000000000000000000000002710000000000000000000000000000000000000000000000000000000000000003c000000000000000000000000c5fb60de90960712b938dc19a7dc8a904d0395400000000000000000000000000000000000000000000000000000000000000001",
        "nonce": "0xde3",
        "chainId": "0xaa36a7"
      },
      "additionalContracts": [],
      "isFixedGasLimit": false
    },
    {
      "hash": "0x7f6106c71693a9f29b86983e5ec7902a7f4c4e6c61d03250780a3c08277c5a7e",
      "transactionType": "CALL",
      "contractName": null,
      "contractAddress": "0xc5fb60de90960712b938dc19a7dc8a904d039540",
      "function": "setTokenPricesUSD((address,address,uint24,int24,address),uint256,uint256)",
      "arguments": [
        "(0x1c7D4B196Cb0C7B01d743Fbc6116a902379C7238, 0xfFf9976782d46CC05630D1f6eBAb18b2324d6B14, 10000, 60, 0xC5fB60De90960712B938dC19a7DC8a904d039540)",
        "1000000000000000000",
        "3000000000000000000000"
      ],
      "transaction": {
        "from": "0x63f976191f9dd75bd5b0fd81320d37fbc0d74080",
        "to": "0xc5fb60de90960712b938dc19a7dc8a904d039540",
        "gas": "0x19eb7",
        "value": "0x0",
        "input": "0xadc8ee270000000000000000000000001c7d4b196cb0c7b01d743fbc6116a902379c7238000000000000000000000000fff9976782d46cc05630d1f6ebab18b2324d6b140000000000000000000000000000000000000000000000000000000000002710000000000000000000000000000000000000000000000000000000000000003c000000000000000000000000c5fb60de90960712b938dc19a7dc8a904d0395400000000000000000000000000000000000000000000000000de0b6b3a76400000000000000000000000000000000000000000000000000a2a15d09519be00000",
        "nonce": "0xde4",
        "chainId": "0xaa36a7"
      },
      "additionalContracts": [],
      "isFixedGasLimit": false
    },
    {
      "hash": "0x9fcb1b16af448cd070179fda394e622e73761aaf98d5c0723a188301759f47d5",
      "transactionType": "CALL",
      "contractName": null,
      "contractAddress": "0xc5fb60de90960712b938dc19a7dc8a904d039540",
      "function": "setPoolTickRange((address,address,uint24,int24,address),int24,int24)",
      "arguments": [
        "(0x1c7D4B196Cb0C7B01d743Fbc6116a902379C7238, 0xfFf9976782d46CC05630D1f6eBAb18b2324d6B14, 10000, 60, 0xC5fB60De90960712B938dC19a7DC8a904d039540)",
        "-887220",
        "887220"
      ],
      "transaction": {
        "from": "0x63f976191f9dd75bd5b0fd81320d37fbc0d74080",
        "to": "0xc5fb60de90960712b938dc19a7dc8a904d039540",
        "gas": "0x18660",
        "value": "0x0",
        "input": "0x3cede4f60000000000000000000000001c7d4b196cb0c7b01d743fbc6116a902379c7238000000000000000000000000fff9976782d46cc05630d1f6ebab18b2324d6b140000000000000000000000000000000000000000000000000000000000002710000000000000000000000000000000000000000000000000000000000000003c000000000000000000000000c5fb60de90960712b938dc19a7dc8a904d039540fffffffffffffffffffffffffffffffffffffffffffffffffffffffffff2764c00000000000000000000000000000000000000000000000000000000000d89b4",
        "nonce": "0xde5",
        "chainId": "0xaa36a7"
      },
      "additionalContracts": [],
      "isFixedGasLimit": false
    }
  ],
  "receipts": [
    {
      "status": "0x1",
      "cumulativeGasUsed": "0x37e00e",
      "logs": [
        {
          "address": "0x76e9e1affde82bb4544ce95ea58ffc2f9d45061f",
          "topics": [
            "0xdd466e674ea557f56295e2d0218a125ea4b4f0f6f3307b95f85e6110838d6438",
            "0x85678d8b2e722cda15edd202a0c3f679cb7b0fb885097664b790feba4098a768",
            "0x0000000000000000000000001c7d4b196cb0c7b01d743fbc6116a902379c7238",
            "0x000000000000000000000000fff9976782d46cc05630d1f6ebab18b2324d6b14"
          ],
          "data": "0x0000000000000000000000000000000000000000000000000000000000002710000000000000000000000000000000000000000000000000000000000000003c000000000000000000000000c5fb60de90960712b938dc19a7dc8a904d039540000000000000000000000000000f422d34c9022439a2ba7376e9ebcf6543ad8800000000000000000000000000000000000000000000000000000000000afc58",
          "blockHash": "0x6666bdc170f9148117f266b4a2150d239bf5fac16d69259503b122d1c3b6e9f9",
          "blockNumber": "0x9873df",
          "blockTimestamp": "0x695d3378",
          "transactionHash": "0x9fcb1b16af448cd070179fda394e622e73761aaf98d5c0723a188301759f47d5",
          "transactionIndex": "0x28",
          "logIndex": "0x20",
          "removed": false
        }
      ],
      "logsBloom": "0x00000000001000000000000000000000000000000000000000000000000000000000000000000000000000000000000000000800000004000000000000000000100000000000000020000000000000000000000000000800000000000000010000000000000000000000000000000000000000000000000000000000000000000000000000000008000000000000010000000001000000000000000000200000000000000000000000000000000000000000008000000000000000000000000000000002000000000000000001000000000000000000000000000000000010000000000000000000000000000000000000000000000000000000000000000000",
      "type": "0x2",
      "transactionHash": "0x9fcb1b16af448cd070179fda394e622e73761aaf98d5c0723a188301759f47d5",
      "transactionIndex": "0x28",
      "blockHash": "0x6666bdc170f9148117f266b4a2150d239bf5fac16d69259503b122d1c3b6e9f9",
      "blockNumber": "0x9873df",
      "gasUsed": "0x135c6",
      "effectiveGasPrice": "0x997598",
      "from": "0x63f976191f9dd75bd5b0fd81320d37fbc0d74080",
      "to": "0x76e9e1affde82bb4544ce95ea58ffc2f9d45061f",
      "contractAddress": null
    },
    {
      "status": "0x1",
      "cumulativeGasUsed": "0x385257",
      "logs": [
        {
          "address": "0xc5fb60de90960712b938dc19a7dc8a904d039540",
          "topics": [
            "0x5ccbffa18a4422a6c0cc78bdaa34b188e2dba24e3ba9b1655454922136fb8937",
            "0x85678d8b2e722cda15edd202a0c3f679cb7b0fb885097664b790feba4098a768"
          ],
          "data": "0x0000000000000000000000000000000000000000000000000000000000000001",
          "blockHash": "0x6666bdc170f9148117f266b4a2150d239bf5fac16d69259503b122d1c3b6e9f9",
          "blockNumber": "0x9873df",
          "blockTimestamp": "0x695d3378",
          "transactionHash": "0x7f6106c71693a9f29b86983e5ec7902a7f4c4e6c61d03250780a3c08277c5a7e",
          "transactionIndex": "0x29",
          "logIndex": "0x21",
          "removed": false
        }
      ],
      "logsBloom": "0x00000000000000000000000000000000000000000000000000000000000000000000000000000000000000040000000000001000000000000000000000002000000000000000000020000000000000000000000000000000000000000000000000000000000000000000000000000000000000000000000000000000000000000000000000000000000000000000000004000000000000000000000000000000000000000000000000000000000000000000000000000000000000000000000000000002000000000000000000000000000000000000000000000000008010000000000000000000000000000000000000002000000000000000000000000000",
      "type": "0x2",
      "transactionHash": "0x7f6106c71693a9f29b86983e5ec7902a7f4c4e6c61d03250780a3c08277c5a7e",
      "transactionIndex": "0x29",
      "blockHash": "0x6666bdc170f9148117f266b4a2150d239bf5fac16d69259503b122d1c3b6e9f9",
      "blockNumber": "0x9873df",
      "gasUsed": "0x7249",
      "effectiveGasPrice": "0x997598",
      "from": "0x63f976191f9dd75bd5b0fd81320d37fbc0d74080",
      "to": "0xc5fb60de90960712b938dc19a7dc8a904d039540",
      "contractAddress": null
    },
    {
      "status": "0x1",
      "cumulativeGasUsed": "0x396de8",
      "logs": [
        {
          "address": "0xc5fb60de90960712b938dc19a7dc8a904d039540",
          "topics": [
            "0x882c9eca713e887423b67acd3e18dc6d775c83c403e3a6d5811fea016ca5152b",
            "0x85678d8b2e722cda15edd202a0c3f679cb7b0fb885097664b790feba4098a768"
          ],
          "data": "0x0000000000000000000000000000000000000000000000000de0b6b3a76400000000000000000000000000000000000000000000000000a2a15d09519be00000",
          "blockHash": "0x6666bdc170f9148117f266b4a2150d239bf5fac16d69259503b122d1c3b6e9f9",
          "blockNumber": "0x9873df",
          "blockTimestamp": "0x695d3378",
          "transactionHash": "0x539238b61705fb098e08faf5998f64bcb92f5d2ea6353a1927785a78d174a65f",
          "transactionIndex": "0x2a",
          "logIndex": "0x22",
          "removed": false
        }
      ],
      "logsBloom": "0x00000000000000000000000000000000000000000000000000000000000000000000000000000000000000040000000000000000000000000000000000000000000000000000000020000000000000400000000000000000000000000000000000000000000000000000000000000000008000000000000000000000000000000000000000000000000000000000000000000000000000000000000000000000000000000000000000000000000000000000000000000000000000000000000000000002000000000000000000000000000000000000000000000000008010000000000000000000000001000000000000002000000000000000000000000000",
      "type": "0x2",
      "transactionHash": "0x539238b61705fb098e08faf5998f64bcb92f5d2ea6353a1927785a78d174a65f",
      "transactionIndex": "0x2a",
      "blockHash": "0x6666bdc170f9148117f266b4a2150d239bf5fac16d69259503b122d1c3b6e9f9",
      "blockNumber": "0x9873df",
      "gasUsed": "0x11b91",
      "effectiveGasPrice": "0x997598",
      "from": "0x63f976191f9dd75bd5b0fd81320d37fbc0d74080",
      "to": "0xc5fb60de90960712b938dc19a7dc8a904d039540",
      "contractAddress": null
    },
    {
      "status": "0x1",
      "cumulativeGasUsed": "0x3a8888",
      "logs": [
        {
          "address": "0xc5fb60de90960712b938dc19a7dc8a904d039540",
          "topics": [
            "0xb3235f358edd480fca4ed0cc727f602efc55a46eea248086850b0493c9f39072",
            "0x85678d8b2e722cda15edd202a0c3f679cb7b0fb885097664b790feba4098a768"
          ],
          "data": "0xfffffffffffffffffffffffffffffffffffffffffffffffffffffffffff2764c00000000000000000000000000000000000000000000000000000000000d89b4",
          "blockHash": "0x6666bdc170f9148117f266b4a2150d239bf5fac16d69259503b122d1c3b6e9f9",
          "blockNumber": "0x9873df",
          "blockTimestamp": "0x695d3378",
          "transactionHash": "0x4921517ccee04e3c8ad4b40d7c74df97b987c41f6936e71df81a7533170659d3",
          "transactionIndex": "0x2b",
          "logIndex": "0x23",
          "removed": false
        }
      ],
      "logsBloom": "0x00000000000000000000000000000000000000000000000000000000000000000000000000000000000000040000000000000000000000000000000000000000000000000000000020000000000000000000000000000000000000000000000000000000000000000000000000000000000000020000000000000000000000000000000000000000000000000000000000000000000000000000000000000000000000000800000000000000000000000000000000000000000000000000000000000002000000000000000000000000000000000000001000000000008010000000000000000000000000000000000000002000000000000000000000000000",
      "type": "0x2",
      "transactionHash": "0x4921517ccee04e3c8ad4b40d7c74df97b987c41f6936e71df81a7533170659d3",
      "transactionIndex": "0x2b",
      "blockHash": "0x6666bdc170f9148117f266b4a2150d239bf5fac16d69259503b122d1c3b6e9f9",
      "blockNumber": "0x9873df",
      "gasUsed": "0x11aa0",
      "effectiveGasPrice": "0x997598",
      "from": "0x63f976191f9dd75bd5b0fd81320d37fbc0d74080",
      "to": "0xc5fb60de90960712b938dc19a7dc8a904d039540",
      "contractAddress": null
    }
  ],
  "libraries": [],
  "pending": [],
  "returns": {},
  "timestamp": 1767715705742,
  "chain": 11155111,
  "commit": "736cb0a"
}