{
  "transactions": [
    {
      "hash": "0x7fe42ce4b0824db6d48efc0cf1df4759a34c4e6cf3aa38f4ec3a79d663afe946",
      "transactionType": "CALL",
      "contractName": null,
      "contractAddress": "0x76e9e1affde82bb4544ce95ea58ffc2f9d45061f",
      "function": "initialize((address,address,uint24,int24,address),uint160)",
      "arguments": [
        "(0x1c7D4B196Cb0C7B01d743Fbc6116a902379C7238, 0xfFf9976782d46CC05630D1f6eBAb18b2324d6B14, 5000, 60, 0x6A087B9340925E1c66273FAE8F7527c8754F1540)",
        "340275971719517849884124397208085282957798792"
      ],
      "transaction": {
        "from": "0x63f976191f9dd75bd5b0fd81320d37fbc0d74080",
        "to": "0x76e9e1affde82bb4544ce95ea58ffc2f9d45061f",
        "gas": "0x1c4ca",
        "value": "0x0",
        "input": "0x6276cbbe0000000000000000000000001c7d4b196cb0c7b01d743fbc6116a902379c7238000000000000000000000000fff9976782d46cc05630d1f6ebab18b2324d6b140000000000000000000000000000000000000000000000000000000000001388000000000000000000000000000000000000000000000000000000000000003c0000000000000000000000006a087b9340925e1c66273fae8f7527c8754f1540000000000000000000000000000f422d34c9022439a2ba7376e9ebcf6543ad88",
        "nonce": "0xdb3",
        "chainId": "0xaa36a7"
      },
      "additionalContracts": [],
      "isFixedGasLimit": false
    },
    {
      "hash": "0x3202937d77f65c21ead25209c6cb9e6fa0329202c33da7374815f314a06ea6b7",
      "transactionType": "CALL",
      "contractName": null,
      "contractAddress": "0x6a087b9340925e1c66273fae8f7527c8754f1540",
      "function": "setPoolConfig((address,address,uint24,int24,address),bool)",
      "arguments": [
        "(0x1c7D4B196Cb0C7B01d743Fbc6116a902379C7238, 0xfFf9976782d46CC05630D1f6eBAb18b2324d6B14, 5000, 60, 0x6A087B9340925E1c66273FAE8F7527c8754F1540)",
        "true"
      ],
      "transaction": {
        "from": "0x63f976191f9dd75bd5b0fd81320d37fbc0d74080",
        "to": "0x6a087b9340925e1c66273fae8f7527c8754f1540",
        "gas": "0xa724",
        "value": "0x0",
        "input": "0x08e9b5ac0000000000000000000000001c7d4b196cb0c7b01d743fbc6116a902379c7238000000000000000000000000fff9976782d46cc05630d1f6ebab18b2324d6b140000000000000000000000000000000000000000000000000000000000001388000000000000000000000000000000000000000000000000000000000000003c0000000000000000000000006a087b9340925e1c66273fae8f7527c8754f15400000000000000000000000000000000000000000000000000000000000000001",
        "nonce": "0xdb4",
        "chainId": "0xaa36a7"
      },
      "additionalContracts": [],
      "isFixedGasLimit": false
    },
    {
      "hash": "0x17cc274255f67cb816943545e02b4dfd708b0800c4b2548cdaac42d53d868933",
      "transactionType": "CALL",
      "contractName": null,
      "contractAddress": "0x6a087b9340925e1c66273fae8f7527c8754f1540",
      "function": "setTokenPricesUSD((address,address,uint24,int24,address),uint256,uint256)",
      "arguments": [
        "(0x1c7D4B196Cb0C7B01d743Fbc6116a902379C7238, 0xfFf9976782d46CC05630D1f6eBAb18b2324d6B14, 5000, 60, 0x6A087B9340925E1c66273FAE8F7527c8754F1540)",
        "1000000000000000000",
        "3000000000000000000000"
      ],
      "transaction": {
        "from": "0x63f976191f9dd75bd5b0fd81320d37fbc0d74080",
        "to": "0x6a087b9340925e1c66273fae8f7527c8754f1540",
        "gas": "0x1876f",
        "value": "0x0",
        "input": "0xadc8ee270000000000000000000000001c7d4b196cb0c7b01d743fbc6116a902379c7238000000000000000000000000fff9976782d46cc05630d1f6ebab18b2324d6b140000000000000000000000000000000000000000000000000000000000001388000000000000000000000000000000000000000000000000000000000000003c0000000000000000000000006a087b9340925e1c66273fae8f7527c8754f15400000000000000000000000000000000000000000000000000de0b6b3a76400000000000000000000000000000000000000000000000000a2a15d09519be00000",
        "nonce": "0xdb5",
        "chainId": "0xaa36a7"
      },
      "additionalContracts": [],
      "isFixedGasLimit": false
    },
    {
      "hash": "0xd872ee601b434d0eb0194275f9bf5e67189a2e2401862cad351029eeabc22f05",
      "transactionType": "CALL",
      "contractName": null,
      "contractAddress": "0x6a087b9340925e1c66273fae8f7527c8754f1540",
      "function": "setPoolTickRange((address,address,uint24,int24,address),int24,int24)",
      "arguments": [
        "(0x1c7D4B196Cb0C7B01d743Fbc6116a902379C7238, 0xfFf9976782d46CC05630D1f6eBAb18b2324d6B14, 5000, 60, 0x6A087B9340925E1c66273FAE8F7527c8754F1540)",
        "-887220",
        "887220"
      ],
      "transaction": {
        "from": "0x63f976191f9dd75bd5b0fd81320d37fbc0d74080",
        "to": "0x6a087b9340925e1c66273fae8f7527c8754f1540",
        "gas": "0x19d36",
        "value": "0x0",
        "input": "0x3cede4f60000000000000000000000001c7d4b196cb0c7b01d743fbc6116a902379c7238000000000000000000000000fff9976782d46cc05630d1f6ebab18b2324d6b140000000000000000000000000000000000000000000000000000000000001388000000000000000000000000000000000000000000000000000000000000003c0000000000000000000000006a087b9340925e1c66273fae8f7527c8754f1540fffffffffffffffffffffffffffffffffffffffffffffffffffffffffff2764c00000000000000000000000000000000000000000000000000000000000d89b4",
        "nonce": "0xdb6",
        "chainId": "0xaa36a7"
      },
      "additionalContracts": [],
      "isFixedGasLimit": false
    }
  ],
  "receipts": [
    {
      "status": "0x1",
      "cumulativeGasUsed": "0x72adee",
      "logs": [
        {
          "address": "0x76e9e1affde82bb4544ce95ea58ffc2f9d45061f",
          "topics": [
            "0xdd466e674ea557f56295e2d0218a125ea4b4f0f6f3307b95f85e6110838d6438",
            "0x33675a0516ba5149ed7e90938f2c7feb2fdcdf4e5475bd05cc37e5be14df6bce",
            "0x0000000000000000000000001c7d4b196cb0c7b01d743fbc6116a902379c7238",
            "0x000000000000000000000000fff9976782d46cc05630d1f6ebab18b2324d6b14"
          ],
          "data": "0x0000000000000000000000000000000000000000000000000000000000001388000000000000000000000000000000000000000000000000000000000000003c0000000000000000000000006a087b9340925e1c66273fae8f7527c8754f1540000000000000000000000000000f422d34c9022439a2ba7376e9ebcf6543ad8800000000000000000000000000000000000000000000000000000000000afc58",
          "blockHash": "0xd8ed072b595efab96b5b7b474177c32c3618b42fabe3ca21bee3d3439084d45c",
          "blockNumber": "0x987278",
          "blockTimestamp": "0x695d20a0",
          "transactionHash": "0x7fe42ce4b0824db6d48efc0cf1df4759a34c4e6cf3aa38f4ec3a79d663afe946",
          "transactionIndex": "0x32",
          "logIndex": "0x25",
          "removed": false
        }
      ],
      "logsBloom": "0x00000000001000000000000000000000000000000000000000000000000000000000000000000000000100000000000000000800000004000000000000000000100000000000000000000000000000000000000000000800000000000000010000000000000000000000000000000000000000000000000000000002000000000000000000000008000000000000010000000001000000000000000000200000000000000000000000000000000000000000008000000000000000000000000000100000000000000000000001000000000000000000000000000000000000000000000000000000000000000000000000000000000000000000000000000000",
      "type": "0x2",
      "transactionHash": "0x7fe42ce4b0824db6d48efc0cf1df4759a34c4e6cf3aa38f4ec3a79d663afe946",
      "transactionIndex": "0x32",
      "blockHash": "0xd8ed072b595efab96b5b7b474177c32c3618b42fabe3ca21bee3d3439084d45c",
      "blockNumber": "0x987278",
      "gasUsed": "0x1359a",
      "effectiveGasPrice": "0x740a70",
      "from": "0x63f976191f9dd75bd5b0fd81320d37fbc0d74080",
      "to": "0x76e9e1affde82bb4544ce95ea58ffc2f9d45061f",
      "contractAddress": null
    },
    {
      "status": "0x1",
      "cumulativeGasUsed": "0x16439d",
      "logs": [
        {
          "address": "0x6a087b9340925e1c66273fae8f7527c8754f1540",
          "topics": [
            "0x5ccbffa18a4422a6c0cc78bdaa34b188e2dba24e3ba9b1655454922136fb8937",
            "0x33675a0516ba5149ed7e90938f2c7feb2fdcdf4e5475bd05cc37e5be14df6bce"
          ],
          "data": "0x0000000000000000000000000000000000000000000000000000000000000001",
          "blockHash": "0x10a26c7b7640ee50245ee38c6f9327dd25bce6eacefac6667ff328aacd24540d",
          "blockNumber": "0x987279",
          "blockTimestamp": "0x695d20ac",
          "transactionHash": "0x3202937d77f65c21ead25209c6cb9e6fa0329202c33da7374815f314a06ea6b7",
          "transactionIndex": "0x16",
          "logIndex": "0xb",
          "removed": false
        }
      ],
      "logsBloom": "0x00000000000000000000000000000000000000000000000000000000000000000000000000000000000100000000000000001000000000000000000000002000000000000000000000000000000000000000000000000000000000000000000000000000000000000000000000000000000000000000004000000002000000000000000000000000000000000000000004000000000000000000000000000000000000000000000000000000000000000000000000000000000000020000000000100000000000000000000000000000000000800000000000000000000000000000000000000000000000000000000000000000000000000000000000000000",
      "type": "0x2",
      "transactionHash": "0x3202937d77f65c21ead25209c6cb9e6fa0329202c33da7374815f314a06ea6b7",
      "transactionIndex": "0x16",
      "blockHash": "0x10a26c7b7640ee50245ee38c6f9327dd25bce6eacefac6667ff328aacd24540d",
      "blockNumber": "0x987279",
      "gasUsed": "0x7249",
      "effectiveGasPrice": "0x73f4e2",
      "from": "0x63f976191f9dd75bd5b0fd81320d37fbc0d74080",
      "to": "0x6a087b9340925e1c66273fae8f7527c8754f1540",
      "contractAddress": null
    },
    {
      "status": "0x1",
      "cumulativeGasUsed": "0x17bb1c8",
      "logs": [
        {
          "address": "0x6a087b9340925e1c66273fae8f7527c8754f1540",
          "topics": [
            "0x882c9eca713e887423b67acd3e18dc6d775c83c403e3a6d5811fea016ca5152b",
            "0x33675a0516ba5149ed7e90938f2c7feb2fdcdf4e5475bd05cc37e5be14df6bce"
          ],
          "data": "0x0000000000000000000000000000000000000000000000000de0b6b3a76400000000000000000000000000000000000000000000000000a2a15d09519be00000",
          "blockHash": "0x8f88f9fb218af768132d9b635d0b8aced578ed7406edd6bba0dc15563a39eb12",
          "blockNumber": "0x98727a",
          "blockTimestamp": "0x695d20b8",
          "transactionHash": "0x17cc274255f67cb816943545e02b4dfd708b0800c4b2548cdaac42d53d868933",
          "transactionIndex": "0x23",
          "logIndex": "0x142",
          "removed": false
        }
      ],
      "logsBloom": "0x00000000000000000000000000000000000000000000000000000000000000000000000000000000000100000000000000000000000000000000000000000000000000000000000000000000000000400000000000000000000000000000000000000000000000000000000000000000008000000000004000000002000000000000000000000000000000000000000000000000000000000000000000000000000000000000000000000000000000000000000000000000000000020000000000100000000000000000000000000000000000800000000000000000000000000000000000000000000001000000000000000000000000000000000000000000",
      "type": "0x2",
      "transactionHash": "0x17cc274255f67cb816943545e02b4dfd708b0800c4b2548cdaac42d53d868933",
      "transactionIndex": "0x23",
      "blockHash": "0x8f88f9fb218af768132d9b635d0b8aced578ed7406edd6bba0dc15563a39eb12",
      "blockNumber": "0x98727a",
      "gasUsed": "0x11b65",
      "effectiveGasPrice": "0x73d494",
      "from": "0x63f976191f9dd75bd5b0fd81320d37fbc0d74080",
      "to": "0x6a087b9340925e1c66273fae8f7527c8754f1540",
      "contractAddress": null
    },
    {
      "status": "0x1",
      "cumulativeGasUsed": "0xd02421",
      "logs": [
        {
          "address": "0x6a087b9340925e1c66273fae8f7527c8754f1540",
          "topics": [
            "0xb3235f358edd480fca4ed0cc727f602efc55a46eea248086850b0493c9f39072",
            "0x33675a0516ba5149ed7e90938f2c7feb2fdcdf4e5475bd05cc37e5be14df6bce"
          ],
          "data": "0xfffffffffffffffffffffffffffffffffffffffffffffffffffffffffff2764c00000000000000000000000000000000000000000000000000000000000d89b4",
          "blockHash": "0x5efebe0811172aecb59f86a8d1f5c75b04febd7db1dac899668b20b011cc7323",
          "blockNumber": "0x98727b",
          "blockTimestamp": "0x695d20c4",
          "transactionHash": "0xd872ee601b434d0eb0194275f9bf5e67189a2e2401862cad351029eeabc22f05",
          "transactionIndex": "0x1b",
          "logIndex": "0xaa",
          "removed": false
        }
      ],
      "logsBloom": "0x00000000000000000000000000000000000000000000000000000000000000000000000000000000000100000000000000000000000000000000000000000000000000000000000000000000000000000000000000000000000000000000000000000000000000000000000000000000000000020000004000000002000000000000000000000000000000000000000000000000000000000000000000000000000000000800000000000000000000000000000000000000000000020000000000100000000000000000000000000000000000800000001000000000000000000000000000000000000000000000000000000000000000000000000000000000",
      "type": "0x2",
      "transactionHash": "0xd872ee601b434d0eb0194275f9bf5e67189a2e2401862cad351029eeabc22f05",
      "transactionIndex": "0x1b",
      "blockHash": "0x5efebe0811172aecb59f86a8d1f5c75b04febd7db1dac899668b20b011cc7323",
      "blockNumber": "0x98727b",
      "gasUsed": "0x11a8a",
      "effectiveGasPrice": "0x73d4cc",
      "from": "0x63f976191f9dd75bd5b0fd81320d37fbc0d74080",
      "to": "0x6a087b9340925e1c66273fae8f7527c8754f1540",
      "contractAddress": null
    }
  ],
  "libraries": [],
  "pending": [],
  "returns": {},
  "timestamp": 1767710917819,
  "chain": 11155111,
  "commit": "7902c05"
}