{
  "transactions": [
    {
      "hash": "0x550461bdc88b1fee2be0b22b1be21ba70dcad7baa5a9a0f0e5852f659fa5eeec",
      "transactionType": "CALL",
      "contractName": null,
      "contractAddress": "0x76e9e1affde82bb4544ce95ea58ffc2f9d45061f",
      "function": "initialize((address,address,uint24,int24,address),uint160)",
      "arguments": [
        "(0x1c7D4B196Cb0C7B01d743Fbc6116a902379C7238, 0xfFf9976782d46CC05630D1f6eBAb18b2324d6B14, 10000, 60, 0x6A087B9340925E1c66273FAE8F7527c8754F1540)",
        "340275971719517849884124397208085282957798792"
      ],
      "transaction": {
        "from": "0x63f976191f9dd75bd5b0fd81320d37fbc0d74080",
        "to": "0x76e9e1affde82bb4544ce95ea58ffc2f9d45061f",
        "gas": "0x1c4ca",
        "value": "0x0",
        "input": "0x6276cbbe0000000000000000000000001c7d4b196cb0c7b01d743fbc6116a902379c7238000000000000000000000000fff9976782d46cc05630d1f6ebab18b2324d6b140000000000000000000000000000000000000000000000000000000000002710000000000000000000000000000000000000000000000000000000000000003c0000000000000000000000006a087b9340925e1c66273fae8f7527c8754f1540000000000000000000000000000f422d34c9022439a2ba7376e9ebcf6543ad88",
        "nonce": "0xddd",
        "chainId": "0xaa36a7"
      },
      "additionalContracts": [],
      "isFixedGasLimit": false
    },
    {
      "hash": "0xa41438945a9228e130ab907981a69234939f47d6e3a46c2c835882db648dfbb1",
      "transactionType": "CALL",
      "contractName": null,
      "contractAddress": "0x6a087b9340925e1c66273fae8f7527c8754f1540",
      "function": "setPoolConfig((address,address,uint24,int24,address),bool)",
      "arguments": [
        "(0x1c7D4B196Cb0C7B01d743Fbc6116a902379C7238, 0xfFf9976782d46CC05630D1f6eBAb18b2324d6B14, 10000, 60, 0x6A087B9340925E1c66273FAE8F7527c8754F1540)",
        "true"
      ],
      "transaction": {
        "from": "0x63f976191f9dd75bd5b0fd81320d37fbc0d74080",
        "to": "0x6a087b9340925e1c66273fae8f7527c8754f1540",
        "gas": "0xa724",
        "value": "0x0",
        "input": "0x08e9b5ac0000000000000000000000001c7d4b196cb0c7b01d743fbc6116a902379c7238000000000000000000000000fff9976782d46cc05630d1f6ebab18b2324d6b140000000000000000000000000000000000000000000000000000000000002710000000000000000000000000000000000000000000000000000000000000003c0000000000000000000000006a087b9340925e1c66273fae8f7527c8754f15400000000000000000000000000000000000000000000000000000000000000001",
        "nonce": "0xdde",
        "chainId": "0xaa36a7"
      },
      "additionalContracts": [],
      "isFixedGasLimit": false
    },
    {
      "hash": "0xa5c19dbaddee34f31c395c6b50fa33b09b52488c435f101be081c3c9a87c9fe7",
      "transactionType": "CALL",
      "contractName": null,
      "contractAddress": "0x6a087b9340925e1c66273fae8f7527c8754f1540",
      "function": "setTokenPricesUSD((address,address,uint24,int24,address),uint256,uint256)",
      "arguments": [
        "(0x1c7D4B196Cb0C7B01d743Fbc6116a902379C7238, 0xfFf9976782d46CC05630D1f6eBAb18b2324d6B14, 10000, 60, 0x6A087B9340925E1c66273FAE8F7527c8754F1540)",
        "1000000000000000000",
        "3000000000000000000000"
      ],
      "transaction": {
        "from": "0x63f976191f9dd75bd5b0fd81320d37fbc0d74080",
        "to": "0x6a087b9340925e1c66273fae8f7527c8754f1540",
        "gas": "0x1876f",
        "value": "0x0",
        "input": "0xadc8ee270000000000000000000000001c7d4b196cb0c7b01d743fbc6116a902379c7238000000000000000000000000fff9976782d46cc05630d1f6ebab18b2324d6b140000000000000000000000000000000000000000000000000000000000002710000000000000000000000000000000000000000000000000000000000000003c0000000000000000000000006a087b9340925e1c66273fae8f7527c8754f15400000000000000000000000000000000000000000000000000de0b6b3a76400000000000000000000000000000000000000000000000000a2a15d09519be00000",
        "nonce": "0xddf",
        "chainId": "0xaa36a7"
      },
      "additionalContracts": [],
      "isFixedGasLimit": false
    },
    {
      "hash": "0xfc508c012edf6a3fb9c96d1e90a2689ce447f87cf8ce0e5c9d7288312cbe5b5e",
      "transactionType": "CALL",
      "contractName": null,
      "contractAddress": "0x6a087b9340925e1c66273fae8f7527c8754f1540",
      "function": "setPoolTickRange((address,address,uint24,int24,address),int24,int24)",
      "arguments": [
        "(0x1c7D4B196Cb0C7B01d743Fbc6116a902379C7238, 0xfFf9976782d46CC05630D1f6eBAb18b2324d6B14, 10000, 60, 0x6A087B9340925E1c66273FAE8F7527c8754F1540)",
        "-887220",
        "887220"
      ],
      "transaction": {
        "from": "0x63f976191f9dd75bd5b0fd81320d37fbc0d74080",
        "to": "0x6a087b9340925e1c66273fae8f7527c8754f1540",
        "gas": "0x19d36",
        "value": "0x0",
        "input": "0x3cede4f60000000000000000000000001c7d4b196cb0c7b01d743fbc6116a902379c7238000000000000000000000000fff9976782d46cc05630d1f6ebab18b2324d6b140000000000000000000000000000000000000000000000000000000000002710000000000000000000000000000000000000000000000000000000000000003c0000000000000000000000006a087b9340925e1c66273fae8f7527c8754f1540fffffffffffffffffffffffffffffffffffffffffffffffffffffffffff2764c00000000000000000000000000000000000000000000000000000000000d89b4",
        "nonce": "0xde0",
        "chainId": "0xaa36a7"
      },
      "additionalContracts": [],
      "isFixedGasLimit": false
    }
  ],
  "receipts": [
    {
      "status": "0x1",
      "cumulativeGasUsed": "0x4e4e15",
      "logs": [
        {
          "address": "0x76e9e1affde82bb4544ce95ea58ffc2f9d45061f",
          "topics": [
            "0xdd466e674ea557f56295e2d0218a125ea4b4f0f6f3307b95f85e6110838d6438",
            "0x2b0d6a52748960855bbcf1372b7eff3d79fd42b44ab4dda18ca798525444da68",
            "0x0000000000000000000000001c7d4b196cb0c7b01d743fbc6116a902379c7238",
            "0x000000000000000000000000fff9976782d46cc05630d1f6ebab18b2324d6b14"
          ],
          "data": "0x0000000000000000000000000000000000000000000000000000000000002710000000000000000000000000000000000000000000000000000000000000003c0000000000000000000000006a087b9340925e1c66273fae8f7527c8754f1540000000000000000000000000000f422d34c9022439a2ba7376e9ebcf6543ad8800000000000000000000000000000000000000000000000000000000000afc58",
          "blockHash": "0xb1ab8d1737415a63a6607f2a7f1e3f5cf8bcf7b8a8a5e4c391cf93b13bea0570",
          "blockNumber": "0x98739a",
          "blockTimestamp": "0x695d3000",
          "transactionHash": "0x550461bdc88b1fee2be0b22b1be21ba70dcad7baa5a9a0f0e5852f659fa5eeec",
          "transactionIndex": "0x3a",
          "logIndex": "0x39",
          "removed": false
        }
      ],
      "logsBloom": "0x00000000001000000000000000000000000000000000000000000000000000000000000000000000000000000000000000000800000004000000000000000000100000000000000000000000000000000000000000000800000000000000010000000000000000000000000000000000000000000000000000000000000000000000000000000008000000000000010000000001000000000000000000200000000000000000000000000000000000000000008000000000000000000000000000000000000800000000000001000000000000000000000000008000000000000000000000000000000000000000000000000000000000000000000400000000",
      "type": "0x2",
      "transactionHash": "0x550461bdc88b1fee2be0b22b1be21ba70dcad7baa5a9a0f0e5852f659fa5eeec",
      "transactionIndex": "0x3a",
      "blockHash": "0xb1ab8d1737415a63a6607f2a7f1e3f5cf8bcf7b8a8a5e4c391cf93b13bea0570",
      "blockNumber": "0x98739a",
      "gasUsed": "0x1359a",
      "effectiveGasPrice": "0x9ac4d6",
      "from": "0x63f976191f9dd75bd5b0fd81320d37fbc0d74080",
      "to": "0x76e9e1affde82bb4544ce95ea58ffc2f9d45061f",
      "contractAddress": null
    },
    {
      "status": "0x1",
      "cumulativeGasUsed": "0xa39925",
      "logs": [
        {
          "address": "0x6a087b9340925e1c66273fae8f7527c8754f1540",
          "topics": [
            "0x5ccbffa18a4422a6c0cc78bdaa34b188e2dba24e3ba9b1655454922136fb8937",
            "0x2b0d6a52748960855bbcf1372b7eff3d79fd42b44ab4dda18ca798525444da68"
          ],
          "data": "0x0000000000000000000000000000000000000000000000000000000000000001",
          "blockHash": "0x850dc0453da007af5ce3815b1e9c7ec65314e00365230e82f44d7785de1c96fd",
          "blockNumber": "0x98739b",
          "blockTimestamp": "0x695d300c",
          "transactionHash": "0xa41438945a9228e130ab907981a69234939f47d6e3a46c2c835882db648dfbb1",
          "transactionIndex": "0x43",
          "logIndex": "0x43",
          "removed": false
        }
      ],
      "logsBloom": "0x00000000000000000000000000000000000000000000000000000000000000000000000000000000000000000000000000001000000000000000000000002000000000000000000000000000000000000000000000000000000000000000000000000000000000000000000000000000000000000000004000000000000000000000000000000000000000000000000004000000000000000000000000000000000000000000000000000000000000000000000000000000000000020000000000000000000800000000000000000000000000800000000000008000000000000000000000000000000000000000000000000000000000000000000400000000",
      "type": "0x2",
      "transactionHash": "0xa41438945a9228e130ab907981a69234939f47d6e3a46c2c835882db648dfbb1",
      "transactionIndex": "0x43",
      "blockHash": "0x850dc0453da007af5ce3815b1e9c7ec65314e00365230e82f44d7785de1c96fd",
      "blockNumber": "0x98739b",
      "gasUsed": "0x7249",
      "effectiveGasPrice": "0x9a9010",
      "from": "0x63f976191f9dd75bd5b0fd81320d37fbc0d74080",
      "to": "0x6a087b9340925e1c66273fae8f7527c8754f1540",
      "contractAddress": null
    },
    {
      "status": "0x1",
      "cumulativeGasUsed": "0x9b5907",
      "logs": [
        {
          "address": "0x6a087b9340925e1c66273fae8f7527c8754f1540",
          "topics": [
            "0x882c9eca713e887423b67acd3e18dc6d775c83c403e3a6d5811fea016ca5152b",
            "0x2b0d6a52748960855bbcf1372b7eff3d79fd42b44ab4dda18ca798525444da68"
          ],
          "data": "0x0000000000000000000000000000000000000000000000000de0b6b3a76400000000000000000000000000000000000000000000000000a2a15d09519be00000",
          "blockHash": "0x8635ca94bd9e0ccf152698b5e9ae5899279d97b1f2fcbfe0bd8087c9ef2865b3",
          "blockNumber": "0x98739c",
          "blockTimestamp": "0x695d3024",
          "transactionHash": "0xa5c19dbaddee34f31c395c6b50fa33b09b52488c435f101be081c3c9a87c9fe7",
          "transactionIndex": "0x47",
          "logIndex": "0x59",
          "removed": false
        }
      ],
      "logsBloom": "0x00000000000000000000000000000000000000000000000000000000000000000000000000000000000000000000000000000000000000000000000000000000000000000000000000000000000000400000000000000000000000000000000000000000000000000000000000000000008000000000004000000000000000000000000000000000000000000000000000000000000000000000000000000000000000000000000000000000000000000000000000000000000000020000000000000000000800000000000000000000000000800000000000008000000000000000000000000000000001000000000000000000000000000000000400000000",
      "type": "0x2",
      "transactionHash": "0xa5c19dbaddee34f31c395c6b50fa33b09b52488c435f101be081c3c9a87c9fe7",
      "transactionIndex": "0x47",
      "blockHash": "0x8635ca94bd9e0ccf152698b5e9ae5899279d97b1f2fcbfe0bd8087c9ef2865b3",
      "blockNumber": "0x98739c",
      "gasUsed": "0x11b65",
      "effectiveGasPrice": "0x9a7921",
      "from": "0x63f976191f9dd75bd5b0fd81320d37fbc0d74080",
      "to": "0x6a087b9340925e1c66273fae8f7527c8754f1540",
      "contractAddress": null
    },
    {
      "status": "0x1",
      "cumulativeGasUsed": "0xec8700",
      "logs": [
        {
          "address": "0x6a087b9340925e1c66273fae8f7527c8754f1540",
          "topics": [
            "0xb3235f358edd480fca4ed0cc727f602efc55a46eea248086850b0493c9f39072",
            "0x2b0d6a52748960855bbcf1372b7eff3d79fd42b44ab4dda18ca798525444da68"
          ],
          "data": "0xfffffffffffffffffffffffffffffffffffffffffffffffffffffffffff2764c00000000000000000000000000000000000000000000000000000000000d89b4",
          "blockHash": "0xea084bd0ba51707974fecc3e1b9d86ec2876b30da0604b301d850559d0de5af4",
          "blockNumber": "0x98739d",
          "blockTimestamp": "0x695d3030",
          "transactionHash": "0xfc508c012edf6a3fb9c96d1e90a2689ce447f87cf8ce0e5c9d7288312cbe5b5e",
          "transactionIndex": "0x1e",
          "logIndex": "0xd7",
          "removed": false
        }
      ],
      "logsBloom": "0x00000000000000000000000000000000000000000000000000000000000000000000000000000000000000000000000000000000000000000000000000000000000000000000000000000000000000000000000000000000000000000000000000000000000000000000000000000000000000020000004000000000000000000000000000000000000000000000000000000000000000000000000000000000000000000800000000000000000000000000000000000000000000020000000000000000000800000000000000000000000000800000001000008000000000000000000000000000000000000000000000000000000000000000000400000000",
      "type": "0x2",
      "transactionHash": "0xfc508c012edf6a3fb9c96d1e90a2689ce447f87cf8ce0e5c9d7288312cbe5b5e",
      "transactionIndex": "0x1e",
      "blockHash": "0xea084bd0ba51707974fecc3e1b9d86ec2876b30da0604b301d850559d0de5af4",
      "blockNumber": "0x98739d",
      "gasUsed": "0x11a8a",
      "effectiveGasPrice": "0x9a9f8b",
      "from": "0x63f976191f9dd75bd5b0fd81320d37fbc0d74080",
      "to": "0x6a087b9340925e1c66273fae8f7527c8754f1540",
      "contractAddress": null
    }
  ],
  "libraries": [],
  "pending": [],
  "returns": {},
  "timestamp": 1767714866107,
  "chain": 11155111,
  "commit": "7902c05"
}