{
  "transactions": [
    {
      "hash": "0x8f7745254cb33abde2026654c3cd0e4571bda92f5057160b87a5e7d7d6a78a24",
      "transactionType": "CALL",
      "contractName": null,
      "contractAddress": "0x6a087b9340925e1c66273fae8f7527c8754f1540",
      "function": "setPoolConfig((address,address,uint24,int24,address),bool)",
      "arguments": [
        "(0x1c7D4B196Cb0C7B01d743Fbc6116a902379C7238, 0xfFf9976782d46CC05630D1f6eBAb18b2324d6B14, 5000, 60, 0x6A087B9340925E1c66273FAE8F7527c8754F1540)",
        "true"
      ],
      "transaction": {
        "from": "0x63f976191f9dd75bd5b0fd81320d37fbc0d74080",
        "to": "0x6a087b9340925e1c66273fae8f7527c8754f1540",
        "gas": "0xa724",
        "value": "0x0",
        "input": "0x08e9b5ac0000000000000000000000001c7d4b196cb0c7b01d743fbc6116a902379c7238000000000000000000000000fff9976782d46cc05630d1f6ebab18b2324d6b140000000000000000000000000000000000000000000000000000000000001388000000000000000000000000000000000000000000000000000000000000003c0000000000000000000000006a087b9340925e1c66273fae8f7527c8754f15400000000000000000000000000000000000000000000000000000000000000001",
        "nonce": "0xdcd",
        "chainId": "0xaa36a7"
      },
      "additionalContracts": [],
      "isFixedGasLimit": false
    },
    {
      "hash": "0x66f77909937bd8ff6837c3eaa847ab30cc102c856fb540840fb1bf46ef9724d5",
      "transactionType": "CALL",
      "contractName": null,
      "contractAddress": "0x6a087b9340925e1c66273fae8f7527c8754f1540",
      "function": "setTokenPricesUSD((address,address,uint24,int24,address),uint256,uint256)",
      "arguments": [
        "(0x1c7D4B196Cb0C7B01d743Fbc6116a902379C7238, 0xfFf9976782d46CC05630D1f6eBAb18b2324d6B14, 5000, 60, 0x6A087B9340925E1c66273FAE8F7527c8754F1540)",
        "1000000000000000000",
        "3000000000000000000000"
      ],
      "transaction": {
        "from": "0x63f976191f9dd75bd5b0fd81320d37fbc0d74080",
        "to": "0x6a087b9340925e1c66273fae8f7527c8754f1540",
        "gas": "0xb0b1",
        "value": "0x0",
        "input": "0xadc8ee270000000000000000000000001c7d4b196cb0c7b01d743fbc6116a902379c7238000000000000000000000000fff9976782d46cc05630d1f6ebab18b2324d6b140000000000000000000000000000000000000000000000000000000000001388000000000000000000000000000000000000000000000000000000000000003c0000000000000000000000006a087b9340925e1c66273fae8f7527c8754f15400000000000000000000000000000000000000000000000000de0b6b3a76400000000000000000000000000000000000000000000000000a2a15d09519be00000",
        "nonce": "0xdce",
        "chainId": "0xaa36a7"
      },
      "additionalContracts": [],
      "isFixedGasLimit": false
    },
    {
      "hash": "0x4f1c3515e1daf0ceb5ae7aec2d8eb38031c65896af29059e14297c78afe30e8e",
      "transactionType": "CALL",
      "contractName": null,
      "contractAddress": "0x6a087b9340925e1c66273fae8f7527c8754f1540",
      "function": "setPoolTickRange((address,address,uint24,int24,address),int24,int24)",
      "arguments": [
        "(0x1c7D4B196Cb0C7B01d743Fbc6116a902379C7238, 0xfFf9976782d46CC05630D1f6eBAb18b2324d6B14, 5000, 60, 0x6A087B9340925E1c66273FAE8F7527c8754F1540)",
        "-887220",
        "887220"
      ],
      "transaction": {
        "from": "0x63f976191f9dd75bd5b0fd81320d37fbc0d74080",
        "to": "0x6a087b9340925e1c66273fae8f7527c8754f1540",
        "gas": "0xb9d6",
        "value": "0x0",
        "input": "0x3cede4f60000000000000000000000001c7d4b196cb0c7b01d743fbc6116a902379c7238000000000000000000000000fff9976782d46cc05630d1f6ebab18b2324d6b140000000000000000000000000000000000000000000000000000000000001388000000000000000000000000000000000000000000000000000000000000003c0000000000000000000000006a087b9340925e1c66273fae8f7527c8754f1540fffffffffffffffffffffffffffffffffffffffffffffffffffffffffff2764c00000000000000000000000000000000000000000000000000000000000d89b4",
        "nonce": "0xdcf",
        "chainId": "0xaa36a7"
      },
      "additionalContracts": [],
      "isFixedGasLimit": false
    }
  ],
  "receipts": [
    {
      "status": "0x1",
      "cumulativeGasUsed": "0x2f0c510",
      "logs": [
        {
          "address": "0x6a087b9340925e1c66273fae8f7527c8754f1540",
          "topics": [
            "0x5ccbffa18a4422a6c0cc78bdaa34b188e2dba24e3ba9b1655454922136fb8937",
            "0x33675a0516ba5149ed7e90938f2c7feb2fdcdf4e5475bd05cc37e5be14df6bce"
          ],
          "data": "0x0000000000000000000000000000000000000000000000000000000000000001",
          "blockHash": "0xb18255162c91024096168a1126428d29daa4959f517693686990e0914ca4aed3",
          "blockNumber": "0x98737d",
          "blockTimestamp": "0x695d2e68",
          "transactionHash": "0x8f7745254cb33abde2026654c3cd0e4571bda92f5057160b87a5e7d7d6a78a24",
          "transactionIndex": "0x36",
          "logIndex": "0x208",
          "removed": false
        }
      ],
      "logsBloom": "0x00000000000000000000000000000000000000000000000000000000000000000000000000000000000100000000000000001000000000000000000000002000000000000000000000000000000000000000000000000000000000000000000000000000000000000000000000000000000000000000004000000002000000000000000000000000000000000000000004000000000000000000000000000000000000000000000000000000000000000000000000000000000000020000000000100000000000000000000000000000000000800000000000000000000000000000000000000000000000000000000000000000000000000000000000000000",
      "type": "0x2",
      "transactionHash": "0x8f7745254cb33abde2026654c3cd0e4571bda92f5057160b87a5e7d7d6a78a24",
      "transactionIndex": "0x36",
      "blockHash": "0xb18255162c91024096168a1126428d29daa4959f517693686990e0914ca4aed3",
      "blockNumber": "0x98737d",
      "gasUsed": "0x7249",
      "effectiveGasPrice": "0x998112",
      "from": "0x63f976191f9dd75bd5b0fd81320d37fbc0d74080",
      "to": "0x6a087b9340925e1c66273fae8f7527c8754f1540",
      "contractAddress": null
    },
    {
      "status": "0x1",
      "cumulativeGasUsed": "0x308d795",
      "logs": [
        {
          "address": "0x6a087b9340925e1c66273fae8f7527c8754f1540",
          "topics": [
            "0x882c9eca713e887423b67acd3e18dc6d775c83c403e3a6d5811fea016ca5152b",
            "0x33675a0516ba5149ed7e90938f2c7feb2fdcdf4e5475bd05cc37e5be14df6bce"
          ],
          "data": "0x0000000000000000000000000000000000000000000000000de0b6b3a76400000000000000000000000000000000000000000000000000a2a15d09519be00000",
          "blockHash": "0xbf833c397a0189bfafecc8028c6d14f8cdac0925a047d99469f7f12033024313",
          "blockNumber": "0x98737e",
          "blockTimestamp": "0x695d2e74",
          "transactionHash": "0x66f77909937bd8ff6837c3eaa847ab30cc102c856fb540840fb1bf46ef9724d5",
          "transactionIndex": "0x39",
          "logIndex": "0x175",
          "removed": false
        }
      ],
      "logsBloom": "0x00000000000000000000000000000000000000000000000000000000000000000000000000000000000100000000000000000000000000000000000000000000000000000000000000000000000000400000000000000000000000000000000000000000000000000000000000000000008000000000004000000002000000000000000000000000000000000000000000000000000000000000000000000000000000000000000000000000000000000000000000000000000000020000000000100000000000000000000000000000000000800000000000000000000000000000000000000000000001000000000000000000000000000000000000000000",
      "type": "0x2",
      "transactionHash": "0x66f77909937bd8ff6837c3eaa847ab30cc102c856fb540840fb1bf46ef9724d5",
      "transactionIndex": "0x39",
      "blockHash": "0xbf833c397a0189bfafecc8028c6d14f8cdac0925a047d99469f7f12033024313",
      "blockNumber": "0x98737e",
      "gasUsed": "0x7fed",
      "effectiveGasPrice": "0x999e1d",
      "from": "0x63f976191f9dd75bd5b0fd81320d37fbc0d74080",
      "to": "0x6a087b9340925e1c66273fae8f7527c8754f1540",
      "contractAddress": null
    },
    {
      "status": "0x1",
      "cumulativeGasUsed": "0x1a7122c",
      "logs": [
        {
          "address": "0x6a087b9340925e1c66273fae8f7527c8754f1540",
          "topics": [
            "0xb3235f358edd480fca4ed0cc727f602efc55a46eea248086850b0493c9f39072",
            "0x33675a0516ba5149ed7e90938f2c7feb2fdcdf4e5475bd05cc37e5be14df6bce"
          ],
          "data": "0xfffffffffffffffffffffffffffffffffffffffffffffffffffffffffff2764c00000000000000000000000000000000000000000000000000000000000d89b4",
          "blockHash": "0x4dc9b42b1bb0e2df591b7305cf43fa6a8e48623ca31c259873a18b37e7ad6c02",
          "blockNumber": "0x98737f",
          "blockTimestamp": "0x695d2e80",
          "transactionHash": "0x4f1c3515e1daf0ceb5ae7aec2d8eb38031c65896af29059e14297c78afe30e8e",
          "transactionIndex": "0x30",
          "logIndex": "0x160",
          "removed": false
        }
      ],
      "logsBloom": "0x00000000000000000000000000000000000000000000000000000000000000000000000000000000000100000000000000000000000000000000000000000000000000000000000000000000000000000000000000000000000000000000000000000000000000000000000000000000000000020000004000000002000000000000000000000000000000000000000000000000000000000000000000000000000000000800000000000000000000000000000000000000000000020000000000100000000000000000000000000000000000800000001000000000000000000000000000000000000000000000000000000000000000000000000000000000",
      "type": "0x2",
      "transactionHash": "0x4f1c3515e1daf0ceb5ae7aec2d8eb38031c65896af29059e14297c78afe30e8e",
      "transactionIndex": "0x30",
      "blockHash": "0x4dc9b42b1bb0e2df591b7305cf43fa6a8e48623ca31c259873a18b37e7ad6c02",
      "blockNumber": "0x98737f",
      "gasUsed": "0x7f12",
      "effectiveGasPrice": "0x99b77c",
      "from": "0x63f976191f9dd75bd5b0fd81320d37fbc0d74080",
      "to": "0x6a087b9340925e1c66273fae8f7527c8754f1540",
      "contractAddress": null
    }
  ],
  "libraries": [],
  "pending": [],
  "returns": {},
  "timestamp": 1767714432980,
  "chain": 11155111,
  "commit": "7902c05"
}