{
  "transactions": [
    {
      "hash": "0x487a44913b769706ef07c31c53d99f142236a3d8a06189013476a2e5de774882",
      "transactionType": "CALL",
      "contractName": null,
      "contractAddress": "0x7bc9ddcbe9f25a249ac4c07a6d86616e78e45540",
      "function": "checkAndCompound((address,address,uint24,int24,address))",
      "arguments": [
        "(0x1c7D4B196Cb0C7B01d743Fbc6116a902379C7238, 0xfFf9976782d46CC05630D1f6eBAb18b2324d6B14, 3000, 60, 0x7BC9dDcbE9F25A249Ac4c07a6d86616E78E45540)"
      ],
      "transaction": {
        "from": "0x63f976191f9dd75bd5b0fd81320d37fbc0d74080",
        "to": "0x7bc9ddcbe9f25a249ac4c07a6d86616e78e45540",
        "gas": "0x10768",
        "value": "0x0",
        "input": "0x6d973b6e0000000000000000000000001c7d4b196cb0c7b01d743fbc6116a902379c7238000000000000000000000000fff9976782d46cc05630d1f6ebab18b2324d6b140000000000000000000000000000000000000000000000000000000000000bb8000000000000000000000000000000000000000000000000000000000000003c0000000000000000000000007bc9ddcbe9f25a249ac4c07a6d86616e78e45540",
        "nonce": "0x14",
        "chainId": "0xaa36a7"
      },
      "additionalContracts": [],
      "isFixedGasLimit": false
    }
  ],
  "receipts": [
    {
      "status": "0x1",
      "cumulativeGasUsed": "0x8754ef",
      "logs": [],
      "logsBloom": "0x00000000000000000000000000000000000000000000000000000000000000000000000000000000000000000000000000000000000000000000000000000000000000000000000000000000000000000000000000000000000000000000000000000000000000000000000000000000000000000000000000000000000000000000000000000000000000000000000000000000000000000000000000000000000000000000000000000000000000000000000000000000000000000000000000000000000000000000000000000000000000000000000000000000000000000000000000000000000000000000000000000000000000000000000000000000",
      "type": "0x2",
      "transactionHash": "0x487a44913b769706ef07c31c53d99f142236a3d8a06189013476a2e5de774882",
      "transactionIndex": "0x4f",
      "blockHash": "0xce1e4d9d184100d7d1b40fdd4cde1b306ab3db352b199a67561adc8a826941bb",
      "blockNumber": "0x97774c",
      "gasUsed": "0xbed1",
      "effectiveGasPrice": "0xfb85e",
      "from": "0x63f976191f9dd75bd5b0fd81320d37fbc0d74080",
      "to": "0x7bc9ddcbe9f25a249ac4c07a6d86616e78e45540",
      "contractAddress": null
    }
  ],
  "libraries": [],
  "pending": [],
  "returns": {},
  "timestamp": 1766858928817,
  "chain": 11155111,
  "commit": "90ffcf9"
}