{
  "transactions": [
    {
      "hash": "0x42ed63c9954e2bf3cc1875f70ddc4099c072905cb86d6a96f465625e17636f63",
      "transactionType": "CALL",
      "contractName": null,
      "contractAddress": "0xc77ae1fae9bb15fdd1ea96897a12ec074fa65250",
      "function": "initialize((address,address,uint24,int24,address),uint160)",
      "arguments": [
        "(0x1c7D4B196Cb0C7B01d743Fbc6116a902379C7238, 0xfFf9976782d46CC05630D1f6eBAb18b2324d6B14, 3000, 60, 0x53eF0B5c6C380Aa2d1044167B7d0Ad5859475540)",
        "79228162514264337593543950336"
      ],
      "transaction": {
        "from": "0x63f976191f9dd75bd5b0fd81320d37fbc0d74080",
        "to": "0xc77ae1fae9bb15fdd1ea96897a12ec074fa65250",
        "gas": "0x1c18a",
        "value": "0x0",
        "input": "0x6276cbbe0000000000000000000000001c7d4b196cb0c7b01d743fbc6116a902379c7238000000000000000000000000fff9976782d46cc05630d1f6ebab18b2324d6b140000000000000000000000000000000000000000000000000000000000000bb8000000000000000000000000000000000000000000000000000000000000003c00000000000000000000000053ef0b5c6c380aa2d1044167b7d0ad58594755400000000000000000000000000000000000000001000000000000000000000000",
        "nonce": "0x10d",
        "chainId": "0xaa36a7"
      },
      "additionalContracts": [],
      "isFixedGasLimit": false
    },
    {
      "hash": "0x60eb4a95b06b0af01423b70a300b923fdd2e7bc3d41a8dce862f33a57635c2ea",
      "transactionType": "CALL",
      "contractName": null,
      "contractAddress": "0x53ef0b5c6c380aa2d1044167b7d0ad5859475540",
      "function": "setPoolConfig((address,address,uint24,int24,address),bool)",
      "arguments": [
        "(0x1c7D4B196Cb0C7B01d743Fbc6116a902379C7238, 0xfFf9976782d46CC05630D1f6eBAb18b2324d6B14, 3000, 60, 0x53eF0B5c6C380Aa2d1044167B7d0Ad5859475540)",
        "true"
      ],
      "transaction": {
        "from": "0x63f976191f9dd75bd5b0fd81320d37fbc0d74080",
        "to": "0x53ef0b5c6c380aa2d1044167b7d0ad5859475540",
        "gas": "0xa724",
        "value": "0x0",
        "input": "0x08e9b5ac0000000000000000000000001c7d4b196cb0c7b01d743fbc6116a902379c7238000000000000000000000000fff9976782d46cc05630d1f6ebab18b2324d6b140000000000000000000000000000000000000000000000000000000000000bb8000000000000000000000000000000000000000000000000000000000000003c00000000000000000000000053ef0b5c6c380aa2d1044167b7d0ad58594755400000000000000000000000000000000000000000000000000000000000000001",
        "nonce": "0x10e",
        "chainId": "0xaa36a7"
      },
      "additionalContracts": [],
      "isFixedGasLimit": false
    },
    {
      "hash": "0x8584c18dc6f23ef997d4e7dd3ea2e92792fb11a5502d6394463c7161ac2524a6",
      "transactionType": "CALL",
      "contractName": null,
      "contractAddress": "0x53ef0b5c6c380aa2d1044167b7d0ad5859475540",
      "function": "setPoolTickRange((address,address,uint24,int24,address),int24,int24)",
      "arguments": [
        "(0x1c7D4B196Cb0C7B01d743Fbc6116a902379C7238, 0xfFf9976782d46CC05630D1f6eBAb18b2324d6B14, 3000, 60, 0x53eF0B5c6C380Aa2d1044167B7d0Ad5859475540)",
        "-900",
        "900"
      ],
      "transaction": {
        "from": "0x63f976191f9dd75bd5b0fd81320d37fbc0d74080",
        "to": "0x53ef0b5c6c380aa2d1044167b7d0ad5859475540",
        "gas": "0x1868c",
        "value": "0x0",
        "input": "0x3cede4f60000000000000000000000001c7d4b196cb0c7b01d743fbc6116a902379c7238000000000000000000000000fff9976782d46cc05630d1f6ebab18b2324d6b140000000000000000000000000000000000000000000000000000000000000bb8000000000000000000000000000000000000000000000000000000000000003c00000000000000000000000053ef0b5c6c380aa2d1044167b7d0ad5859475540fffffffffffffffffffffffffffffffffffffffffffffffffffffffffffffc7c0000000000000000000000000000000000000000000000000000000000000384",
        "nonce": "0x10f",
        "chainId": "0xaa36a7"
      },
      "additionalContracts": [],
      "isFixedGasLimit": false
    },
    {
      "hash": "0x443e9983d636545acb26883e47a78841cefbaab2e1d9585039b058a269fa0e2c",
      "transactionType": "CALL",
      "contractName": null,
      "contractAddress": "0x53ef0b5c6c380aa2d1044167b7d0ad5859475540",
      "function": "setTokenPricesUSD((address,address,uint24,int24,address),uint256,uint256)",
      "arguments": [
        "(0x1c7D4B196Cb0C7B01d743Fbc6116a902379C7238, 0xfFf9976782d46CC05630D1f6eBAb18b2324d6B14, 3000, 60, 0x53eF0B5c6C380Aa2d1044167B7d0Ad5859475540)",
        "1000000",
        "3000000000000000000000"
      ],
      "transaction": {
        "from": "0x63f976191f9dd75bd5b0fd81320d37fbc0d74080",
        "to": "0x53ef0b5c6c380aa2d1044167b7d0ad5859475540",
        "gas": "0x19e21",
        "value": "0x0",
        "input": "0xadc8ee270000000000000000000000001c7d4b196cb0c7b01d743fbc6116a902379c7238000000000000000000000000fff9976782d46cc05630d1f6ebab18b2324d6b140000000000000000000000000000000000000000000000000000000000000bb8000000000000000000000000000000000000000000000000000000000000003c00000000000000000000000053ef0b5c6c380aa2d1044167b7d0ad585947554000000000000000000000000000000000000000000000000000000000000f42400000000000000000000000000000000000000000000000a2a15d09519be00000",
        "nonce": "0x110",
        "chainId": "0xaa36a7"
      },
      "additionalContracts": [],
      "isFixedGasLimit": false
    }
  ],
  "receipts": [
    {
      "status": "0x1",
      "cumulativeGasUsed": "0x760e7d",
      "logs": [
        {
          "address": "0xc77ae1fae9bb15fdd1ea96897a12ec074fa65250",
          "topics": [
            "0xdd466e674ea557f56295e2d0218a125ea4b4f0f6f3307b95f85e6110838d6438",
            "0xb8360821d10d1a2dd0fe76d9e2672332fb330db4f6ccaccf5ad3ee3a113f17d3",
            "0x0000000000000000000000001c7d4b196cb0c7b01d743fbc6116a902379c7238",
            "0x000000000000000000000000fff9976782d46cc05630d1f6ebab18b2324d6b14"
          ],
          "data": "0x0000000000000000000000000000000000000000000000000000000000000bb8000000000000000000000000000000000000000000000000000000000000003c00000000000000000000000053ef0b5c6c380aa2d1044167b7d0ad585947554000000000000000000000000000000000000000010000000000000000000000000000000000000000000000000000000000000000000000000000000000000000",
          "blockHash": "0x0bee249ce1d9e6c5b701ab655bc09b7077517d23beebb9d6bca09a2b88949edf",
          "blockNumber": "0x98458a",
          "blockTimestamp": "0x695ab940",
          "transactionHash": "0x42ed63c9954e2bf3cc1875f70ddc4099c072905cb86d6a96f465625e17636f63",
          "transactionIndex": "0x43",
          "logIndex": "0x4b",
          "removed": false
        }
      ],
      "logsBloom": "0x00000000001000000000000000000000000000000000000000000000000000000000000000000000000000000000000000000800000004000000000000000000100000000000000000020000000000000000008000000000000000000000000000000000000000000000000000000000000000000000000000000000000000000000000000000008000000400000000000000001000000000000000000200000000000000000000000004000000000000000008000000000000000000000000000000000000000000000000001000000000400000000000000000000000000000000000000000000000000100000000000000000000000000000000000000000",
      "type": "0x2",
      "transactionHash": "0x42ed63c9954e2bf3cc1875f70ddc4099c072905cb86d6a96f465625e17636f63",
      "transactionIndex": "0x43",
      "blockHash": "0x0bee249ce1d9e6c5b701ab655bc09b7077517d23beebb9d6bca09a2b88949edf",
      "blockNumber": "0x98458a",
      "gasUsed": "0x13361",
      "effectiveGasPrice": "0xfca78",
      "from": "0x63f976191f9dd75bd5b0fd81320d37fbc0d74080",
      "to": "0xc77ae1fae9bb15fdd1ea96897a12ec074fa65250",
      "contractAddress": null
    },
    {
      "status": "0x1",
      "cumulativeGasUsed": "0x7680c6",
      "logs": [
        {
          "address": "0x53ef0b5c6c380aa2d1044167b7d0ad5859475540",
          "topics": [
            "0x5ccbffa18a4422a6c0cc78bdaa34b188e2dba24e3ba9b1655454922136fb8937",
            "0xb8360821d10d1a2dd0fe76d9e2672332fb330db4f6ccaccf5ad3ee3a113f17d3"
          ],
          "data": "0x0000000000000000000000000000000000000000000000000000000000000001",
          "blockHash": "0x0bee249ce1d9e6c5b701ab655bc09b7077517d23beebb9d6bca09a2b88949edf",
          "blockNumber": "0x98458a",
          "blockTimestamp": "0x695ab940",
          "transactionHash": "0x8584c18dc6f23ef997d4e7dd3ea2e92792fb11a5502d6394463c7161ac2524a6",
          "transactionIndex": "0x44",
          "logIndex": "0x4c",
          "removed": false
        }
      ],
      "logsBloom": "0x00000010000000000000000000000000000000000000000000000000000000000000000000000000000000000000000000001000000000000000000000002000000000000000000000020000000000000000000000000000000000000000000000000000000000000000000000000000000000000000000000000000000000000000000000000000000000000000000004000000000000000000000000000000000000000000000000000000000000000000000000000000000000000000100000000000000000000000000000000000000400000000000000000000000000000000000000000000000000100000000000000040000000000000000000000000",
      "type": "0x2",
      "transactionHash": "0x8584c18dc6f23ef997d4e7dd3ea2e92792fb11a5502d6394463c7161ac2524a6",
      "transactionIndex": "0x44",
      "blockHash": "0x0bee249ce1d9e6c5b701ab655bc09b7077517d23beebb9d6bca09a2b88949edf",
      "blockNumber": "0x98458a",
      "gasUsed": "0x7249",
      "effectiveGasPrice": "0xfca78",
      "from": "0x63f976191f9dd75bd5b0fd81320d37fbc0d74080",
      "to": "0x53ef0b5c6c380aa2d1044167b7d0ad5859475540",
      "contractAddress": null
    },
    {
      "status": "0x1",
      "cumulativeGasUsed": "0x779b86",
      "logs": [
        {
          "address": "0x53ef0b5c6c380aa2d1044167b7d0ad5859475540",
          "topics": [
            "0xb3235f358edd480fca4ed0cc727f602efc55a46eea248086850b0493c9f39072",
            "0xb8360821d10d1a2dd0fe76d9e2672332fb330db4f6ccaccf5ad3ee3a113f17d3"
          ],
          "data": "0xfffffffffffffffffffffffffffffffffffffffffffffffffffffffffffffc7c0000000000000000000000000000000000000000000000000000000000000384",
          "blockHash": "0x0bee249ce1d9e6c5b701ab655bc09b7077517d23beebb9d6bca09a2b88949edf",
          "blockNumber": "0x98458a",
          "blockTimestamp": "0x695ab940",
          "transactionHash": "0x443e9983d636545acb26883e47a78841cefbaab2e1d9585039b058a269fa0e2c",
          "transactionIndex": "0x45",
          "logIndex": "0x4d",
          "removed": false
        }
      ],
      "logsBloom": "0x00000010000000000000000000000000000000000000000000000000000000000000000000000000000000000000000000000000000000000000000000000000000000000000000000020000000000000000000000000000000000000000000000000000000000000000000000000000000000020000000000000000000000000000000000000000000000000000000000000000000000000000000000000000000000000800000000000000000000000000000000000000000000000000100000000000000000000000000000000000000400000000001000000000000000000000000000000000000000100000000000000040000000000000000000000000",
      "type": "0x2",
      "transactionHash": "0x443e9983d636545acb26883e47a78841cefbaab2e1d9585039b058a269fa0e2c",
      "transactionIndex": "0x45",
      "blockHash": "0x0bee249ce1d9e6c5b701ab655bc09b7077517d23beebb9d6bca09a2b88949edf",
      "blockNumber": "0x98458a",
      "gasUsed": "0x11ac0",
      "effectiveGasPrice": "0xfca78",
      "from": "0x63f976191f9dd75bd5b0fd81320d37fbc0d74080",
      "to": "0x53ef0b5c6c380aa2d1044167b7d0ad5859475540",
      "contractAddress": null
    },
    {
      "status": "0x1",
      "cumulativeGasUsed": "0x78b6b1",
      "logs": [
        {
          "address": "0x53ef0b5c6c380aa2d1044167b7d0ad5859475540",
          "topics": [
            "0x882c9eca713e887423b67acd3e18dc6d775c83c403e3a6d5811fea016ca5152b",
            "0xb8360821d10d1a2dd0fe76d9e2672332fb330db4f6ccaccf5ad3ee3a113f17d3"
          ],
          "data": "0x00000000000000000000000000000000000000000000000000000000000f42400000000000000000000000000000000000000000000000a2a15d09519be00000",
          "blockHash": "0x0bee249ce1d9e6c5b701ab655bc09b7077517d23beebb9d6bca09a2b88949edf",
          "blockNumber": "0x98458a",
          "blockTimestamp": "0x695ab940",
          "transactionHash": "0x60eb4a95b06b0af01423b70a300b923fdd2e7bc3d41a8dce862f33a57635c2ea",
          "transactionIndex": "0x46",
          "logIndex": "0x4e",
          "removed": false
        }
      ],
      "logsBloom": "0x00000010000000000000000000000000000000000000000000000000000000000000000000000000000000000000000000000000000000000000000000000000000000000000000000020000000000400000000000000000000000000000000000000000000000000000000000000000008000000000000000000000000000000000000000000000000000000000000000000000000000000000000000000000000000000000000000000000000000000000000000000000000000000000100000000000000000000000000000000000000400000000000000000000000000000000000000000000000001100000000000000040000000000000000000000000",
      "type": "0x2",
      "transactionHash": "0x60eb4a95b06b0af01423b70a300b923fdd2e7bc3d41a8dce862f33a57635c2ea",
      "transactionIndex": "0x46",
      "blockHash": "0x0bee249ce1d9e6c5b701ab655bc09b7077517d23beebb9d6bca09a2b88949edf",
      "blockNumber": "0x98458a",
      "gasUsed": "0x11b2b",
      "effectiveGasPrice": "0xfca78",
      "from": "0x63f976191f9dd75bd5b0fd81320d37fbc0d74080",
      "to": "0x53ef0b5c6c380aa2d1044167b7d0ad5859475540",
      "contractAddress": null
    }
  ],
  "libraries": [],
  "pending": [],
  "returns": {},
  "timestamp": 1767553345027,
  "chain": 11155111,
  "commit": "85a9738"
}