{
  "transactions": [
    {
      "hash": "0xaf8094da529389bbc552c38ddf107fa416adabb9451420afdd292dff68dcad06",
      "transactionType": "CALL",
      "contractName": null,
      "contractAddress": "0xeaf32b3657427a3796928035d6b2dbb28c355540",
      "function": "setPoolTickRange((address,address,uint24,int24,address),int24,int24)",
      "arguments": [
        "(0x1c7D4B196Cb0C7B01d743Fbc6116a902379C7238, 0xfFf9976782d46CC05630D1f6eBAb18b2324d6B14, 3000, 60, 0xEaF32b3657427a3796928035d6B2DBb28C355540)",
        "-887220",
        "887220"
      ],
      "transaction": {
        "from": "0x63f976191f9dd75bd5b0fd81320d37fbc0d74080",
        "to": "0xeaf32b3657427a3796928035d6b2dbb28c355540",
        "gas": "0xcdd8",
        "value": "0x0",
        "input": "0x3cede4f60000000000000000000000001c7d4b196cb0c7b01d743fbc6116a902379c7238000000000000000000000000fff9976782d46cc05630d1f6ebab18b2324d6b140000000000000000000000000000000000000000000000000000000000000bb8000000000000000000000000000000000000000000000000000000000000003c000000000000000000000000eaf32b3657427a3796928035d6b2dbb28c355540fffffffffffffffffffffffffffffffffffffffffffffffffffffffffff2764c00000000000000000000000000000000000000000000000000000000000d89b4",
        "nonce": "0x91",
        "chainId": "0xaa36a7"
      },
      "additionalContracts": [],
      "isFixedGasLimit": false
    }
  ],
  "receipts": [
    {
      "status": "0x1",
      "cumulativeGasUsed": "0x1967cbe",
      "logs": [
        {
          "address": "0xeaf32b3657427a3796928035d6b2dbb28c355540",
          "topics": [
            "0xb3235f358edd480fca4ed0cc727f602efc55a46eea248086850b0493c9f39072",
            "0x2b1b07dc2271486c8d5d31d927ee536709c8f03063a039c791e9aa0e4dc5d0ba"
          ],
          "data": "0xfffffffffffffffffffffffffffffffffffffffffffffffffffffffffff2764c00000000000000000000000000000000000000000000000000000000000d89b4",
          "blockHash": "0xd0d8f62a348ea11f12b82fe8c5d8f8c23f3bc1b40b644e784becd2bcba915472",
          "blockNumber": "0x977fc5",
          "blockTimestamp": "0x69508d28",
          "transactionHash": "0xaf8094da529389bbc552c38ddf107fa416adabb9451420afdd292dff68dcad06",
          "transactionIndex": "0x6b",
          "logIndex": "0x379",
          "removed": false
        }
      ],
      "logsBloom": "0x00800000000000000000000000000000000010000000000000200000000000000000000000000000000000000000000000000000000000000000000000000000000000000000000000000000000000000000000000000000000000000000000000000000000000000000000000000000000000020000000000000000000000000000000000000000800000000000000000000000000000000000002000000000000000000800000000000000000000000000000000000000000000000000000000000000000000000000000000000000000000000000001000000000000000000001000000000000000000000000000000000000000000000000000000000000",
      "type": "0x2",
      "transactionHash": "0xaf8094da529389bbc552c38ddf107fa416adabb9451420afdd292dff68dcad06",
      "transactionIndex": "0x6b",
      "blockHash": "0xd0d8f62a348ea11f12b82fe8c5d8f8c23f3bc1b40b644e784becd2bcba915472",
      "blockNumber": "0x977fc5",
      "gasUsed": "0x9508",
      "effectiveGasPrice": "0x163ade",
      "from": "0x63f976191f9dd75bd5b0fd81320d37fbc0d74080",
      "to": "0xeaf32b3657427a3796928035d6b2dbb28c355540",
      "contractAddress": null
    }
  ],
  "libraries": [],
  "pending": [],
  "returns": {},
  "timestamp": 1766886696832,
  "chain": 11155111,
  "commit": "85a9738"
}