{
  "transactions": [
    {
      "hash": "0x123d7702b02abe4070e78c41c9cb48bdf7db2eb8ce091c2b837edfb0654a456f",
      "transactionType": "CALL",
      "contractName": null,
      "contractAddress": "0x76e9e1affde82bb4544ce95ea58ffc2f9d45061f",
      "function": "initialize((address,address,uint24,int24,address),uint160)",
      "arguments": [
        "(0x1c7D4B196Cb0C7B01d743Fbc6116a902379C7238, 0xfFf9976782d46CC05630D1f6eBAb18b2324d6B14, 3000, 60, 0xC5fB60De90960712B938dC19a7DC8a904d039540)",
        "340275971719517849884124397208085282957798792"
      ],
      "transaction": {
        "from": "0x63f976191f9dd75bd5b0fd81320d37fbc0d74080",
        "to": "0x76e9e1affde82bb4544ce95ea58ffc2f9d45061f",
        "gas": "0x1abdf",
        "value": "0x0",
        "input": "0x6276cbbe0000000000000000000000001c7d4b196cb0c7b01d743fbc6116a902379c7238000000000000000000000000fff9976782d46cc05630d1f6ebab18b2324d6b140000000000000000000000000000000000000000000000000000000000000bb8000000000000000000000000000000000000000000000000000000000000003c000000000000000000000000c5fb60de90960712b938dc19a7dc8a904d039540000000000000000000000000000f422d34c9022439a2ba7376e9ebcf6543ad88",
        "nonce": "0xdf7",
        "chainId": "0xaa36a7"
      },
      "additionalContracts": [],
      "isFixedGasLimit": false
    },
    {
      "hash": "0xce9716325f244934be542ac40144f026a63442a3ae9357163a242151ef60099f",
      "transactionType": "CALL",
      "contractName": null,
      "contractAddress": "0xc5fb60de90960712b938dc19a7dc8a904d039540",
      "function": "setPoolConfig((address,address,uint24,int24,address),bool)",
      "arguments": [
        "(0x1c7D4B196Cb0C7B01d743Fbc6116a902379C7238, 0xfFf9976782d46CC05630D1f6eBAb18b2324d6B14, 3000, 60, 0xC5fB60De90960712B938dC19a7DC8a904d039540)",
        "true"
      ],
      "transaction": {
        "from": "0x63f976191f9dd75bd5b0fd81320d37fbc0d74080",
        "to": "0xc5fb60de90960712b938dc19a7dc8a904d039540",
        "gas": "0xa724",
        "value": "0x0",
        "input": "0x08e9b5ac0000000000000000000000001c7d4b196cb0c7b01d743fbc6116a902379c7238000000000000000000000000fff9976782d46cc05630d1f6ebab18b2324d6b140000000000000000000000000000000000000000000000000000000000000bb8000000000000000000000000000000000000000000000000000000000000003c000000000000000000000000c5fb60de90960712b938dc19a7dc8a904d0395400000000000000000000000000000000000000000000000000000000000000001",
        "nonce": "0xdf8",
        "chainId": "0xaa36a7"
      },
      "additionalContracts": [],
      "isFixedGasLimit": false
    },
    {
      "hash": "0xd2d48829bca620d9c72ed9e0f941085a2b9fd2cc4155892bafdcc480f129ab46",
      "transactionType": "CALL",
      "contractName": null,
      "contractAddress": "0xc5fb60de90960712b938dc19a7dc8a904d039540",
      "function": "setTokenPricesUSD((address,address,uint24,int24,address),uint256,uint256)",
      "arguments": [
        "(0x1c7D4B196Cb0C7B01d743Fbc6116a902379C7238, 0xfFf9976782d46CC05630D1f6eBAb18b2324d6B14, 3000, 60, 0xC5fB60De90960712B938dC19a7DC8a904d039540)",
        "1000000000000000000",
        "3000000000000000000000"
      ],
      "transaction": {
        "from": "0x63f976191f9dd75bd5b0fd81320d37fbc0d74080",
        "to": "0xc5fb60de90960712b938dc19a7dc8a904d039540",
        "gas": "0x19eb7",
        "value": "0x0",
        "input": "0xadc8ee270000000000000000000000001c7d4b196cb0c7b01d743fbc6116a902379c7238000000000000000000000000fff9976782d46cc05630d1f6ebab18b2324d6b140000000000000000000000000000000000000000000000000000000000000bb8000000000000000000000000000000000000000000000000000000000000003c000000000000000000000000c5fb60de90960712b938dc19a7dc8a904d0395400000000000000000000000000000000000000000000000000de0b6b3a76400000000000000000000000000000000000000000000000000a2a15d09519be00000",
        "nonce": "0xdf9",
        "chainId": "0xaa36a7"
      },
      "additionalContracts": [],
      "isFixedGasLimit": false
    },
    {
      "hash": "0x1ebc79ef244eacf3c07983bbd3be74fa56f83c79e80f35f2e3d6bd51300672cf",
      "transactionType": "CALL",
      "contractName": null,
      "contractAddress": "0xc5fb60de90960712b938dc19a7dc8a904d039540",
      "function": "setPoolTickRange((address,address,uint24,int24,address),int24,int24)",
      "arguments": [
        "(0x1c7D4B196Cb0C7B01d743Fbc6116a902379C7238, 0xfFf9976782d46CC05630D1f6eBAb18b2324d6B14, 3000, 60, 0xC5fB60De90960712B938dC19a7DC8a904d039540)",
        "-887220",
        "887220"
      ],
      "transaction": {
        "from": "0x63f976191f9dd75bd5b0fd81320d37fbc0d74080",
        "to": "0xc5fb60de90960712b938dc19a7dc8a904d039540",
        "gas": "0x18660",
        "value": "0x0",
        "input": "0x3cede4f60000000000000000000000001c7d4b196cb0c7b01d743fbc6116a902379c7238000000000000000000000000fff9976782d46cc05630d1f6ebab18b2324d6b140000000000000000000000000000000000000000000000000000000000000bb8000000000000000000000000000000000000000000000000000000000000003c000000000000000000000000c5fb60de90960712b938dc19a7dc8a904d039540fffffffffffffffffffffffffffffffffffffffffffffffffffffffffff2764c00000000000000000000000000000000000000000000000000000000000d89b4",
        "nonce": "0xdfa",
        "chainId": "0xaa36a7"
      },
      "additionalContracts": [],
      "isFixedGasLimit": false
    }
  ],
  "receipts": [
    {
      "status": "0x1",
      "cumulativeGasUsed": "0x814307",
      "logs": [
        {
          "address": "0x76e9e1affde82bb4544ce95ea58ffc2f9d45061f",
          "topics": [
            "0xdd466e674ea557f56295e2d0218a125ea4b4f0f6f3307b95f85e6110838d6438",
            "0xc6dd5a3d7384ff97515ee981285684484b76e083ae1580aa0e6454907db65559",
            "0x0000000000000000000000001c7d4b196cb0c7b01d743fbc6116a902379c7238",
            "0x000000000000000000000000fff9976782d46cc05630d1f6ebab18b2324d6b14"
          ],
          "data": "0x0000000000000000000000000000000000000000000000000000000000000bb8000000000000000000000000000000000000000000000000000000000000003c000000000000000000000000c5fb60de90960712b938dc19a7dc8a904d039540000000000000000000000000000f422d34c9022439a2ba7376e9ebcf6543ad8800000000000000000000000000000000000000000000000000000000000afc58",
          "blockHash": "0x71d7cff6d3828fe08816c7721405ac196b74a4b8d2f61b11c1bcf20b1215ce42",
          "blockNumber": "0x9874ef",
          "blockTimestamp": "0x695d420c",
          "transactionHash": "0x1ebc79ef244eacf3c07983bbd3be74fa56f83c79e80f35f2e3d6bd51300672cf",
          "transactionIndex": "0x5c",
          "logIndex": "0x6e",
          "removed": false
        }
      ],
      "logsBloom": "0x00000000001000000000000000000000000000000000000001000000000000000000000000000000000000000000000000000800000004000000000000000000100004000000000000000000000000000000000000000800000000000000010000000000000000000000000000000000000000008000000000000000000000000000000000000008000000000000010000000001000000000000000000200000000000000000000000000000000000000000008000000000000000000000000000000000000000000000000001000000000000000000000000000000000000000000000000000000000000000000000000000000000000000000000000000000",
      "type": "0x2",
      "transactionHash": "0x1ebc79ef244eacf3c07983bbd3be74fa56f83c79e80f35f2e3d6bd51300672cf",
      "transactionIndex": "0x5c",
      "blockHash": "0x71d7cff6d3828fe08816c7721405ac196b74a4b8d2f61b11c1bcf20b1215ce42",
      "blockNumber": "0x9874ef",
      "gasUsed": "0x135c6",
      "effectiveGasPrice": "0xabc7",
      "from": "0x63f976191f9dd75bd5b0fd81320d37fbc0d74080",
      "to": "0x76e9e1affde82bb4544ce95ea58ffc2f9d45061f",
      "contractAddress": null
    },
    {
      "status": "0x1",
      "cumulativeGasUsed": "0x81b550",
      "logs": [
        {
          "address": "0xc5fb60de90960712b938dc19a7dc8a904d039540",
          "topics": [
            "0x5ccbffa18a4422a6c0cc78bdaa34b188e2dba24e3ba9b1655454922136fb8937",
            "0xc6dd5a3d7384ff97515ee981285684484b76e083ae1580aa0e6454907db65559"
          ],
          "data": "0x0000000000000000000000000000000000000000000000000000000000000001",
          "blockHash": "0x71d7cff6d3828fe08816c7721405ac196b74a4b8d2f61b11c1bcf20b1215ce42",
          "blockNumber": "0x9874ef",
          "blockTimestamp": "0x695d420c",
          "transactionHash": "0xce9716325f244934be542ac40144f026a63442a3ae9357163a242151ef60099f",
          "transactionIndex": "0x5d",
          "logIndex": "0x6f",
          "removed": false
        }
      ],
      "logsBloom": "0x00000000000000000000000000000000000000000000000001000000000000000000000000000000000000040000000000001000000000000000000000002000000004000000000000000000000000000000000000000000000000000000000000000000000000000000000000000000000000008000000000000000000000000000000000000000000000000000000004000000000000000000000000000000000000000000000000000000000000000000000000000000000000000000000000000000000000000000000000000000000000000000000000000000008000000000000000000000000000000000000000002000000000000000000000000000",
      "type": "0x2",
      "transactionHash": "0xce9716325f244934be542ac40144f026a63442a3ae9357163a242151ef60099f",
      "transactionIndex": "0x5d",
      "blockHash": "0x71d7cff6d3828fe08816c7721405ac196b74a4b8d2f61b11c1bcf20b1215ce42",
      "blockNumber": "0x9874ef",
      "gasUsed": "0x7249",
      "effectiveGasPrice": "0xabc7",
      "from": "0x63f976191f9dd75bd5b0fd81320d37fbc0d74080",
      "to": "0xc5fb60de90960712b938dc19a7dc8a904d039540",
      "contractAddress": null
    },
    {
      "status": "0x1",
      "cumulativeGasUsed": "0x82d0e1",
      "logs": [
        {
          "address": "0xc5fb60de90960712b938dc19a7dc8a904d039540",
          "topics": [
            "0x882c9eca713e887423b67acd3e18dc6d775c83c403e3a6d5811fea016ca5152b",
            "0xc6dd5a3d7384ff97515ee981285684484b76e083ae1580aa0e6454907db65559"
          ],
          "data": "0x0000000000000000000000000000000000000000000000000de0b6b3a76400000000000000000000000000000000000000000000000000a2a15d09519be00000",
          "blockHash": "0x71d7cff6d3828fe08816c7721405ac196b74a4b8d2f61b11c1bcf20b1215ce42",
          "blockNumber": "0x9874ef",
          "blockTimestamp": "0x695d420c",
          "transactionHash": "0x123d7702b02abe4070e78c41c9cb48bdf7db2eb8ce091c2b837edfb0654a456f",
          "transactionIndex": "0x5e",
          "logIndex": "0x70",
          "removed": false
        }
      ],
      "logsBloom": "0x00000000000000000000000000000000000000000000000001000000000000000000000000000000000000040000000000000000000000000000000000000000000004000000000000000000000000400000000000000000000000000000000000000000000000000000000000000000008000008000000000000000000000000000000000000000000000000000000000000000000000000000000000000000000000000000000000000000000000000000000000000000000000000000000000000000000000000000000000000000000000000000000000000000008000000000000000000000000001000000000000002000000000000000000000000000",
      "type": "0x2",
      "transactionHash": "0x123d7702b02abe4070e78c41c9cb48bdf7db2eb8ce091c2b837edfb0654a456f",
      "transactionIndex": "0x5e",
      "blockHash": "0x71d7cff6d3828fe08816c7721405ac196b74a4b8d2f61b11c1bcf20b1215ce42",
      "blockNumber": "0x9874ef",
      "gasUsed": "0x11b91",
      "effectiveGasPrice": "0xabc7",
      "from": "0x63f976191f9dd75bd5b0fd81320d37fbc0d74080",
      "to": "0xc5fb60de90960712b938dc19a7dc8a904d039540",
      "contractAddress": null
    },
    {
      "status": "0x1",
      "cumulativeGasUsed": "0x83eb81",
      "logs": [
        {
          "address": "0xc5fb60de90960712b938dc19a7dc8a904d039540",
          "topics": [
            "0xb3235f358edd480fca4ed0cc727f602efc55a46eea248086850b0493c9f39072",
            "0xc6dd5a3d7384ff97515ee981285684484b76e083ae1580aa0e6454907db65559"
          ],
          "data": "0xfffffffffffffffffffffffffffffffffffffffffffffffffffffffffff2764c00000000000000000000000000000000000000000000000000000000000d89b4",
          "blockHash": "0x71d7cff6d3828fe08816c7721405ac196b74a4b8d2f61b11c1bcf20b1215ce42",
          "blockNumber": "0x9874ef",
          "blockTimestamp": "0x695d420c",
          "transactionHash": "0xd2d48829bca620d9c72ed9e0f941085a2b9fd2cc4155892bafdcc480f129ab46",
          "transactionIndex": "0x5f",
          "logIndex": "0x71",
          "removed": false
        }
      ],
      "logsBloom": "0x00000000000000000000000000000000000000000000000001000000000000000000000000000000000000040000000000000000000000000000000000000000000004000000000000000000000000000000000000000000000000000000000000000000000000000000000000000000000000028000000000000000000000000000000000000000000000000000000000000000000000000000000000000000000000000800000000000000000000000000000000000000000000000000000000000000000000000000000000000000000000000000001000000000008000000000000000000000000000000000000000002000000000000000000000000000",
      "type": "0x2",
      "transactionHash": "0xd2d48829bca620d9c72ed9e0f941085a2b9fd2cc4155892bafdcc480f129ab46",
      "transactionIndex": "0x5f",
      "blockHash": "0x71d7cff6d3828fe08816c7721405ac196b74a4b8d2f61b11c1bcf20b1215ce42",
      "blockNumber": "0x9874ef",
      "gasUsed": "0x11aa0",
      "effectiveGasPrice": "0xabc7",
      "from": "0x63f976191f9dd75bd5b0fd81320d37fbc0d74080",
      "to": "0xc5fb60de90960712b938dc19a7dc8a904d039540",
      "contractAddress": null
    }
  ],
  "libraries": [],
  "pending": [],
  "returns": {},
  "timestamp": 1767719437074,
  "chain": 11155111,
  "commit": "7e25353"
}