{
  "transactions": [
    {
      "hash": "0x907f59534137149af5f2a271971a1b817059c18b1f5db5151223c983e3d18bdc",
      "transactionType": "CALL",
      "contractName": null,
      "contractAddress": "0x6a087b9340925e1c66273fae8f7527c8754f1540",
      "function": "setPoolConfig((address,address,uint24,int24,address),bool)",
      "arguments": [
        "(0x1c7D4B196Cb0C7B01d743Fbc6116a902379C7238, 0xfFf9976782d46CC05630D1f6eBAb18b2324d6B14, 3000, 60, 0x6A087B9340925E1c66273FAE8F7527c8754F1540)",
        "true"
      ],
      "transaction": {
        "from": "0x63f976191f9dd75bd5b0fd81320d37fbc0d74080",
        "to": "0x6a087b9340925e1c66273fae8f7527c8754f1540",
        "gas": "0xa724",
        "value": "0x0",
        "input": "0x08e9b5ac0000000000000000000000001c7d4b196cb0c7b01d743fbc6116a902379c7238000000000000000000000000fff9976782d46cc05630d1f6ebab18b2324d6b140000000000000000000000000000000000000000000000000000000000000bb8000000000000000000000000000000000000000000000000000000000000003c0000000000000000000000006a087b9340925e1c66273fae8f7527c8754f15400000000000000000000000000000000000000000000000000000000000000001",
        "nonce": "0xdaa",
        "chainId": "0xaa36a7"
      },
      "additionalContracts": [],
      "isFixedGasLimit": false
    },
    {
      "hash": "0x5f5ef31207c034aad21d69af0f0544bbd6ab6800984443acd8bd43309920853c",
      "transactionType": "CALL",
      "contractName": null,
      "contractAddress": "0x6a087b9340925e1c66273fae8f7527c8754f1540",
      "function": "setTokenPricesUSD((address,address,uint24,int24,address),uint256,uint256)",
      "arguments": [
        "(0x1c7D4B196Cb0C7B01d743Fbc6116a902379C7238, 0xfFf9976782d46CC05630D1f6eBAb18b2324d6B14, 3000, 60, 0x6A087B9340925E1c66273FAE8F7527c8754F1540)",
        "1000000000000000000",
        "3000000000000000000000"
      ],
      "transaction": {
        "from": "0x63f976191f9dd75bd5b0fd81320d37fbc0d74080",
        "to": "0x6a087b9340925e1c66273fae8f7527c8754f1540",
        "gas": "0xb0b1",
        "value": "0x0",
        "input": "0xadc8ee270000000000000000000000001c7d4b196cb0c7b01d743fbc6116a902379c7238000000000000000000000000fff9976782d46cc05630d1f6ebab18b2324d6b140000000000000000000000000000000000000000000000000000000000000bb8000000000000000000000000000000000000000000000000000000000000003c0000000000000000000000006a087b9340925e1c66273fae8f7527c8754f15400000000000000000000000000000000000000000000000000de0b6b3a76400000000000000000000000000000000000000000000000000a2a15d09519be00000",
        "nonce": "0xdab",
        "chainId": "0xaa36a7"
      },
      "additionalContracts": [],
      "isFixedGasLimit": false
    },
    {
      "hash": "0xece00e7155a01ad82c1d432387bd6d8b4860039c7a7d15b3fef49d585d12c18b",
      "transactionType": "CALL",
      "contractName": null,
      "contractAddress": "0x6a087b9340925e1c66273fae8f7527c8754f1540",
      "function": "setPoolTickRange((address,address,uint24,int24,address),int24,int24)",
      "arguments": [
        "(0x1c7D4B196Cb0C7B01d743Fbc6116a902379C7238, 0xfFf9976782d46CC05630D1f6eBAb18b2324d6B14, 3000, 60, 0x6A087B9340925E1c66273FAE8F7527c8754F1540)",
        "-887220",
        "887220"
      ],
      "transaction": {
        "from": "0x63f976191f9dd75bd5b0fd81320d37fbc0d74080",
        "to": "0x6a087b9340925e1c66273fae8f7527c8754f1540",
        "gas": "0xb9d6",
        "value": "0x0",
        "input": "0x3cede4f60000000000000000000000001c7d4b196cb0c7b01d743fbc6116a902379c7238000000000000000000000000fff9976782d46cc05630d1f6ebab18b2324d6b140000000000000000000000000000000000000000000000000000000000000bb8000000000000000000000000000000000000000000000000000000000000003c0000000000000000000000006a087b9340925e1c66273fae8f7527c8754f1540fffffffffffffffffffffffffffffffffffffffffffffffffffffffffff2764c00000000000000000000000000000000000000000000000000000000000d89b4",
        "nonce": "0xdac",
        "chainId": "0xaa36a7"
      },
      "additionalContracts": [],
      "isFixedGasLimit": false
    }
  ],
  "receipts": [
    {
      "status": "0x1",
      "cumulativeGasUsed": "0x3189b79",
      "logs": [
        {
          "address": "0x6a087b9340925e1c66273fae8f7527c8754f1540",
          "topics": [
            "0x5ccbffa18a4422a6c0cc78bdaa34b188e2dba24e3ba9b1655454922136fb8937",
            "0xd58729fc13ee7d293fc30f8f84c2cc79455586e3950bd0c05ea5723ad86f906f"
          ],
          "data": "0x0000000000000000000000000000000000000000000000000000000000000001",
          "blockHash": "0x09a93c7376e9a84fdeeafe769113feb3692504d92bde60937362227cfcfaaf52",
          "blockNumber": "0x98725e",
          "blockTimestamp": "0x695d1f50",
          "transactionHash": "0x907f59534137149af5f2a271971a1b817059c18b1f5db5151223c983e3d18bdc",
          "transactionIndex": "0x27",
          "logIndex": "0x272",
          "removed": false
        }
      ],
      "logsBloom": "0x00000000000000000000000000000000000000000000000000000000000020000000000000000000000000000000000000001000000000000000000000002000000000000000000000000000000000000000000000000000000000000000000000000000000000000020000000000000000000000000004000000000000000000000000000000000000000000000000004000000000000000000000000000000000000000000000000000000000000000000000000000000000000020000000000000000000000080000000000000000000000800000000000000000000000000000000000000000000000000000000000000000000000000000000000000000",
      "type": "0x2",
      "transactionHash": "0x907f59534137149af5f2a271971a1b817059c18b1f5db5151223c983e3d18bdc",
      "transactionIndex": "0x27",
      "blockHash": "0x09a93c7376e9a84fdeeafe769113feb3692504d92bde60937362227cfcfaaf52",
      "blockNumber": "0x98725e",
      "gasUsed": "0x7249",
      "effectiveGasPrice": "0x999074",
      "from": "0x63f976191f9dd75bd5b0fd81320d37fbc0d74080",
      "to": "0x6a087b9340925e1c66273fae8f7527c8754f1540",
      "contractAddress": null
    },
    {
      "status": "0x1",
      "cumulativeGasUsed": "0x2d692b9",
      "logs": [
        {
          "address": "0x6a087b9340925e1c66273fae8f7527c8754f1540",
          "topics": [
            "0x882c9eca713e887423b67acd3e18dc6d775c83c403e3a6d5811fea016ca5152b",
            "0xd58729fc13ee7d293fc30f8f84c2cc79455586e3950bd0c05ea5723ad86f906f"
          ],
          "data": "0x0000000000000000000000000000000000000000000000000de0b6b3a76400000000000000000000000000000000000000000000000000a2a15d09519be00000",
          "blockHash": "0xfa8cbaf398c0a413f43ad01f008ea66695e684fdd04a4d611543168751421470",
          "blockNumber": "0x98725f",
          "blockTimestamp": "0x695d1f5c",
          "transactionHash": "0x5f5ef31207c034aad21d69af0f0544bbd6ab6800984443acd8bd43309920853c",
          "transactionIndex": "0x14",
          "logIndex": "0x260",
          "removed": false
        }
      ],
      "logsBloom": "0x00000000000000000000000000000000000000000000000000000000000020000000000000000000000000000000000000000000000000000000000000000000000000000000000000000000000000400000000000000000000000000000000000000000000000000020000000000000008000000000004000000000000000000000000000000000000000000000000000000000000000000000000000000000000000000000000000000000000000000000000000000000000000020000000000000000000000080000000000000000000000800000000000000000000000000000000000000000000001000000000000000000000000000000000000000000",
      "type": "0x2",
      "transactionHash": "0x5f5ef31207c034aad21d69af0f0544bbd6ab6800984443acd8bd43309920853c",
      "transactionIndex": "0x14",
      "blockHash": "0xfa8cbaf398c0a413f43ad01f008ea66695e684fdd04a4d611543168751421470",
      "blockNumber": "0x98725f",
      "gasUsed": "0x7fed",
      "effectiveGasPrice": "0x99ab9d",
      "from": "0x63f976191f9dd75bd5b0fd81320d37fbc0d74080",
      "to": "0x6a087b9340925e1c66273fae8f7527c8754f1540",
      "contractAddress": null
    },
    {
      "status": "0x1",
      "cumulativeGasUsed": "0x2f73d55",
      "logs": [
        {
          "address": "0x6a087b9340925e1c66273fae8f7527c8754f1540",
          "topics": [
            "0xb3235f358edd480fca4ed0cc727f602efc55a46eea248086850b0493c9f39072",
            "0xd58729fc13ee7d293fc30f8f84c2cc79455586e3950bd0c05ea5723ad86f906f"
          ],
          "data": "0xfffffffffffffffffffffffffffffffffffffffffffffffffffffffffff2764c00000000000000000000000000000000000000000000000000000000000d89b4",
          "blockHash": "0xa5fdeb53a981b91ca863d434b38bc13eb80dc6ddc1d260b40770a7a78e71714f",
          "blockNumber": "0x987260",
          "blockTimestamp": "0x695d1f68",
          "transactionHash": "0xece00e7155a01ad82c1d432387bd6d8b4860039c7a7d15b3fef49d585d12c18b",
          "transactionIndex": "0x2e",
          "logIndex": "0x279",
          "removed": false
        }
      ],
      "logsBloom": "0x00000000000000000000000000000000000000000000000000000000000020000000000000000000000000000000000000000000000000000000000000000000000000000000000000000000000000000000000000000000000000000000000000000000000000000020000000000000000000020000004000000000000000000000000000000000000000000000000000000000000000000000000000000000000000000800000000000000000000000000000000000000000000020000000000000000000000080000000000000000000000800000001000000000000000000000000000000000000000000000000000000000000000000000000000000000",
      "type": "0x2",
      "transactionHash": "0xece00e7155a01ad82c1d432387bd6d8b4860039c7a7d15b3fef49d585d12c18b",
      "transactionIndex": "0x2e",
      "blockHash": "0xa5fdeb53a981b91ca863d434b38bc13eb80dc6ddc1d260b40770a7a78e71714f",
      "blockNumber": "0x987260",
      "gasUsed": "0x7f12",
      "effectiveGasPrice": "0x99c274",
      "from": "0x63f976191f9dd75bd5b0fd81320d37fbc0d74080",
      "to": "0x6a087b9340925e1c66273fae8f7527c8754f1540",
      "contractAddress": null
    }
  ],
  "libraries": [],
  "pending": [],
  "returns": {},
  "timestamp": 1767710569193,
  "chain": 11155111,
  "commit": "7902c05"
}