{
  "transactions": [
    {
      "hash": "0x24ffa025f5e8633451985ddf50b886c6c2bf5fad733ee300f880013f523c1cab",
      "transactionType": "CALL",
      "contractName": null,
      "contractAddress": "0x5c13377f19b9aeb3cb00fcc8e58e9a2b43889540",
      "function": "setPoolConfig((address,address,uint24,int24,address),bool)",
      "arguments": [
        "(0x1c7D4B196Cb0C7B01d743Fbc6116a902379C7238, 0xfFf9976782d46CC05630D1f6eBAb18b2324d6B14, 3000, 60, 0x5C13377F19B9AEB3CB00Fcc8E58e9A2B43889540)",
        "true"
      ],
      "transaction": {
        "from": "0x63f976191f9dd75bd5b0fd81320d37fbc0d74080",
        "to": "0x5c13377f19b9aeb3cb00fcc8e58e9a2b43889540",
        "gas": "0x9dc9",
        "value": "0x0",
        "input": "0x08e9b5ac0000000000000000000000001c7d4b196cb0c7b01d743fbc6116a902379c7238000000000000000000000000fff9976782d46cc05630d1f6ebab18b2324d6b140000000000000000000000000000000000000000000000000000000000000bb8000000000000000000000000000000000000000000000000000000000000003c0000000000000000000000005c13377f19b9aeb3cb00fcc8e58e9a2b438895400000000000000000000000000000000000000000000000000000000000000001",
        "nonce": "0x1108",
        "chainId": "0xaa36a7"
      },
      "additionalContracts": [],
      "isFixedGasLimit": false
    },
    {
      "hash": "0x6ad881a029048007566807b6c2b388fc7dc07146b48691766c12bbd1671279b4",
      "transactionType": "CALL",
      "contractName": null,
      "contractAddress": "0x5c13377f19b9aeb3cb00fcc8e58e9a2b43889540",
      "function": "setTokenPricesUSD((address,address,uint24,int24,address),uint256,uint256)",
      "arguments": [
        "(0x1c7D4B196Cb0C7B01d743Fbc6116a902379C7238, 0xfFf9976782d46CC05630D1f6eBAb18b2324d6B14, 3000, 60, 0x5C13377F19B9AEB3CB00Fcc8E58e9A2B43889540)",
        "1000000000000000000",
        "3000000000000000000000"
      ],
      "transaction": {
        "from": "0x63f976191f9dd75bd5b0fd81320d37fbc0d74080",
        "to": "0x5c13377f19b9aeb3cb00fcc8e58e9a2b43889540",
        "gas": "0xbb65",
        "value": "0x0",
        "input": "0xadc8ee270000000000000000000000001c7d4b196cb0c7b01d743fbc6116a902379c7238000000000000000000000000fff9976782d46cc05630d1f6ebab18b2324d6b140000000000000000000000000000000000000000000000000000000000000bb8000000000000000000000000000000000000000000000000000000000000003c0000000000000000000000005c13377f19b9aeb3cb00fcc8e58e9a2b438895400000000000000000000000000000000000000000000000000de0b6b3a76400000000000000000000000000000000000000000000000000a2a15d09519be00000",
        "nonce": "0x1109",
        "chainId": "0xaa36a7"
      },
      "additionalContracts": [],
      "isFixedGasLimit": false
    },
    {
      "hash": "0x5f4b8fdbcd30ad4c1137df9665f4524129582967a14768b319d2a023db7e0cce",
      "transactionType": "CALL",
      "contractName": null,
      "contractAddress": "0x5c13377f19b9aeb3cb00fcc8e58e9a2b43889540",
      "function": "setPoolTickRange((address,address,uint24,int24,address),int24,int24)",
      "arguments": [
        "(0x1c7D4B196Cb0C7B01d743Fbc6116a902379C7238, 0xfFf9976782d46CC05630D1f6eBAb18b2324d6B14, 3000, 60, 0x5C13377F19B9AEB3CB00Fcc8E58e9A2B43889540)",
        "-887220",
        "887220"
      ],
      "transaction": {
        "from": "0x63f976191f9dd75bd5b0fd81320d37fbc0d74080",
        "to": "0x5c13377f19b9aeb3cb00fcc8e58e9a2b43889540",
        "gas": "0xcdc7",
        "value": "0x0",
        "input": "0x3cede4f60000000000000000000000001c7d4b196cb0c7b01d743fbc6116a902379c7238000000000000000000000000fff9976782d46cc05630d1f6ebab18b2324d6b140000000000000000000000000000000000000000000000000000000000000bb8000000000000000000000000000000000000000000000000000000000000003c0000000000000000000000005c13377f19b9aeb3cb00fcc8e58e9a2b43889540fffffffffffffffffffffffffffffffffffffffffffffffffffffffffff2764c00000000000000000000000000000000000000000000000000000000000d89b4",
        "nonce": "0x110a",
        "chainId": "0xaa36a7"
      },
      "additionalContracts": [],
      "isFixedGasLimit": false
    }
  ],
  "receipts": [
    {
      "status": "0x1",
      "cumulativeGasUsed": "0x4d4777",
      "logs": [
        {
          "address": "0x5c13377f19b9aeb3cb00fcc8e58e9a2b43889540",
          "topics": [
            "0x5ccbffa18a4422a6c0cc78bdaa34b188e2dba24e3ba9b1655454922136fb8937",
            "0x6648efe854126eca977839455e095d4cb46e5035b64bc3aa0f8da2c5ebdce489"
          ],
          "data": "0x0000000000000000000000000000000000000000000000000000000000000001",
          "blockHash": "0x79e03332cd5444f3a7d851a5536727221a6386829dd3a283710b5ae4459295d0",
          "blockNumber": "0x987d52",
          "blockTimestamp": "0x695db5e0",
          "transactionHash": "0x24ffa025f5e8633451985ddf50b886c6c2bf5fad733ee300f880013f523c1cab",
          "transactionIndex": "0x34",
          "logIndex": "0x3b",
          "removed": false
        }
      ],
      "logsBloom": "0x00000000000000000000000000000000002000000000000000000000000000000000000000000000000020000000000000001000000000000000000000003000000000000000000000000000000000000000000000000000000000000000000000000000000000000000000000000000000000000000000000000000000000000000000000000000000000000000000004000000000000000000000000000000000000000000040000000000000000000000000000000000000000000000000000000000000000000000000000000000000000000000000000000000000000000000000000000000000000000000050000000000000000000000000000000000",
      "type": "0x2",
      "transactionHash": "0x24ffa025f5e8633451985ddf50b886c6c2bf5fad733ee300f880013f523c1cab",
      "transactionIndex": "0x34",
      "blockHash": "0x79e03332cd5444f3a7d851a5536727221a6386829dd3a283710b5ae4459295d0",
      "blockNumber": "0x987d52",
      "gasUsed": "0x723d",
      "effectiveGasPrice": "0xf4248",
      "from": "0x63f976191f9dd75bd5b0fd81320d37fbc0d74080",
      "to": "0x5c13377f19b9aeb3cb00fcc8e58e9a2b43889540",
      "contractAddress": null
    },
    {
      "status": "0x1",
      "cumulativeGasUsed": "0x4dc79a",
      "logs": [
        {
          "address": "0x5c13377f19b9aeb3cb00fcc8e58e9a2b43889540",
          "topics": [
            "0x882c9eca713e887423b67acd3e18dc6d775c83c403e3a6d5811fea016ca5152b",
            "0x6648efe854126eca977839455e095d4cb46e5035b64bc3aa0f8da2c5ebdce489"
          ],
          "data": "0x0000000000000000000000000000000000000000000000000de0b6b3a76400000000000000000000000000000000000000000000000000a2a15d09519be00000",
          "blockHash": "0x79e03332cd5444f3a7d851a5536727221a6386829dd3a283710b5ae4459295d0",
          "blockNumber": "0x987d52",
          "blockTimestamp": "0x695db5e0",
          "transactionHash": "0x6ad881a029048007566807b6c2b388fc7dc07146b48691766c12bbd1671279b4",
          "transactionIndex": "0x35",
          "logIndex": "0x3c",
          "removed": false
        }
      ],
      "logsBloom": "0x00000000000000000000000000000000002000000000000000000000000000000000000000000000000020000000000000000000000000000000000000001000000000000000000000000000000000400000000000000000000000000000000000000000000000000000000000000000008000000000000000000000000000000000000000000000000000000000000000000000000000000000000000000000000000000000040000000000000000000000000000000000000000000000000000000000000000000000000000000000000000000000000000000000000000000000000000000000000001000000050000000000000000000000000000000000",
      "type": "0x2",
      "transactionHash": "0x6ad881a029048007566807b6c2b388fc7dc07146b48691766c12bbd1671279b4",
      "transactionIndex": "0x35",
      "blockHash": "0x79e03332cd5444f3a7d851a5536727221a6386829dd3a283710b5ae4459295d0",
      "blockNumber": "0x987d52",
      "gasUsed": "0x8023",
      "effectiveGasPrice": "0xf4248",
      "from": "0x63f976191f9dd75bd5b0fd81320d37fbc0d74080",
      "to": "0x5c13377f19b9aeb3cb00fcc8e58e9a2b43889540",
      "contractAddress": null
    },
    {
      "status": "0x1",
      "cumulativeGasUsed": "0x4e5c96",
      "logs": [
        {
          "address": "0x5c13377f19b9aeb3cb00fcc8e58e9a2b43889540",
          "topics": [
            "0xb3235f358edd480fca4ed0cc727f602efc55a46eea248086850b0493c9f39072",
            "0x6648efe854126eca977839455e095d4cb46e5035b64bc3aa0f8da2c5ebdce489"
          ],
          "data": "0xfffffffffffffffffffffffffffffffffffffffffffffffffffffffffff2764c00000000000000000000000000000000000000000000000000000000000d89b4",
          "blockHash": "0x79e03332cd5444f3a7d851a5536727221a6386829dd3a283710b5ae4459295d0",
          "blockNumber": "0x987d52",
          "blockTimestamp": "0x695db5e0",
          "transactionHash": "0x5f4b8fdbcd30ad4c1137df9665f4524129582967a14768b319d2a023db7e0cce",
          "transactionIndex": "0x36",
          "logIndex": "0x3d",
          "removed": false
        }
      ],
      "logsBloom": "0x00000000000000000000000000000000002000000000000000000000000000000000000000000000000020000000000000000000000000000000000000001000000000000000000000000000000000000000000000000000000000000000000000000000000000000000000000000000000000020000000000000000000000000000000000000000000000000000000000000000000000000000000000000000000000000800040000000000000000000000000000000000000000000000000000000000000000000000000000000000000000000000001000000000000000000000000000000000000000000000050000000000000000000000000000000000",
      "type": "0x2",
      "transactionHash": "0x5f4b8fdbcd30ad4c1137df9665f4524129582967a14768b319d2a023db7e0cce",
      "transactionIndex": "0x36",
      "blockHash": "0x79e03332cd5444f3a7d851a5536727221a6386829dd3a283710b5ae4459295d0",
      "blockNumber": "0x987d52",
      "gasUsed": "0x94fc",
      "effectiveGasPrice": "0xf4248",
      "from": "0x63f976191f9dd75bd5b0fd81320d37fbc0d74080",
      "to": "0x5c13377f19b9aeb3cb00fcc8e58e9a2b43889540",
      "contractAddress": null
    }
  ],
  "libraries": [],
  "pending": [],
  "returns": {},
  "timestamp": 1767749090117,
  "chain": 11155111,
  "commit": "ebd80ce"
}