{
  "transactions": [
    {
      "hash": "0x85087315154b138a1bcd2d3a20599953e0d4b38a6c7096dbec78b17c18e08575",
      "transactionType": "CALL",
      "contractName": null,
      "contractAddress": "0x76e9e1affde82bb4544ce95ea58ffc2f9d45061f",
      "function": "initialize((address,address,uint24,int24,address),uint160)",
      "arguments": [
        "(0x1c7D4B196Cb0C7B01d743Fbc6116a902379C7238, 0xfFf9976782d46CC05630D1f6eBAb18b2324d6B14, 3000, 60, 0xfe8729ae15e8cD6196e691e6c7c7C913E8c4D540)",
        "340275971719517849884124397208085282957798792"
      ],
      "transaction": {
        "from": "0x63f976191f9dd75bd5b0fd81320d37fbc0d74080",
        "to": "0x76e9e1affde82bb4544ce95ea58ffc2f9d45061f",
        "gas": "0x1bad0",
        "value": "0x0",
        "input": "0x6276cbbe0000000000000000000000001c7d4b196cb0c7b01d743fbc6116a902379c7238000000000000000000000000fff9976782d46cc05630d1f6ebab18b2324d6b140000000000000000000000000000000000000000000000000000000000000bb8000000000000000000000000000000000000000000000000000000000000003c000000000000000000000000fe8729ae15e8cd6196e691e6c7c7c913e8c4d540000000000000000000000000000f422d34c9022439a2ba7376e9ebcf6543ad88",
        "nonce": "0x1144",
        "chainId": "0xaa36a7"
      },
      "additionalContracts": [],
      "isFixedGasLimit": false
    },
    {
      "hash": "0xba3d8c2f19653dad2a627c0b7c9414bc9eef8b8082685c185abb1cc675b374f0",
      "transactionType": "CALL",
      "contractName": null,
      "contractAddress": "0xfe8729ae15e8cd6196e691e6c7c7c913e8c4d540",
      "function": "setPoolConfig((address,address,uint24,int24,address),bool)",
      "arguments": [
        "(0x1c7D4B196Cb0C7B01d743Fbc6116a902379C7238, 0xfFf9976782d46CC05630D1f6eBAb18b2324d6B14, 3000, 60, 0xfe8729ae15e8cD6196e691e6c7c7C913E8c4D540)",
        "true"
      ],
      "transaction": {
        "from": "0x63f976191f9dd75bd5b0fd81320d37fbc0d74080",
        "to": "0xfe8729ae15e8cd6196e691e6c7c7c913e8c4d540",
        "gas": "0xa724",
        "value": "0x0",
        "input": "0x08e9b5ac0000000000000000000000001c7d4b196cb0c7b01d743fbc6116a902379c7238000000000000000000000000fff9976782d46cc05630d1f6ebab18b2324d6b140000000000000000000000000000000000000000000000000000000000000bb8000000000000000000000000000000000000000000000000000000000000003c000000000000000000000000fe8729ae15e8cd6196e691e6c7c7c913e8c4d5400000000000000000000000000000000000000000000000000000000000000001",
        "nonce": "0x1145",
        "chainId": "0xaa36a7"
      },
      "additionalContracts": [],
      "isFixedGasLimit": false
    },
    {
      "hash": "0x81a6619700238ad07678d79e816ff8dfcaa459549917e70bd5527774eee9f659",
      "transactionType": "CALL",
      "contractName": null,
      "contractAddress": "0xfe8729ae15e8cd6196e691e6c7c7c913e8c4d540",
      "function": "setTokenPricesUSD((address,address,uint24,int24,address),uint256,uint256)",
      "arguments": [
        "(0x1c7D4B196Cb0C7B01d743Fbc6116a902379C7238, 0xfFf9976782d46CC05630D1f6eBAb18b2324d6B14, 3000, 60, 0xfe8729ae15e8cD6196e691e6c7c7C913E8c4D540)",
        "1000000000000000000",
        "3000000000000000000000"
      ],
      "transaction": {
        "from": "0x63f976191f9dd75bd5b0fd81320d37fbc0d74080",
        "to": "0xfe8729ae15e8cd6196e691e6c7c7c913e8c4d540",
        "gas": "0x187ca",
        "value": "0x0",
        "input": "0xadc8ee270000000000000000000000001c7d4b196cb0c7b01d743fbc6116a902379c7238000000000000000000000000fff9976782d46cc05630d1f6ebab18b2324d6b140000000000000000000000000000000000000000000000000000000000000bb8000000000000000000000000000000000000000000000000000000000000003c000000000000000000000000fe8729ae15e8cd6196e691e6c7c7c913e8c4d5400000000000000000000000000000000000000000000000000de0b6b3a76400000000000000000000000000000000000000000000000000a2a15d09519be00000",
        "nonce": "0x1146",
        "chainId": "0xaa36a7"
      },
      "additionalContracts": [],
      "isFixedGasLimit": false
    },
    {
      "hash": "0x7daa49b9541c6def9e560534f7cd874a740b94067f2e03e7eeff573c1aed8a62",
      "transactionType": "CALL",
      "contractName": null,
      "contractAddress": "0xfe8729ae15e8cd6196e691e6c7c7c913e8c4d540",
      "function": "setPoolTickRange((address,address,uint24,int24,address),int24,int24)",
      "arguments": [
        "(0x1c7D4B196Cb0C7B01d743Fbc6116a902379C7238, 0xfFf9976782d46CC05630D1f6eBAb18b2324d6B14, 3000, 60, 0xfe8729ae15e8cD6196e691e6c7c7C913E8c4D540)",
        "-887220",
        "887220"
      ],
      "transaction": {
        "from": "0x63f976191f9dd75bd5b0fd81320d37fbc0d74080",
        "to": "0xfe8729ae15e8cd6196e691e6c7c7c913e8c4d540",
        "gas": "0x18660",
        "value": "0x0",
        "input": "0x3cede4f60000000000000000000000001c7d4b196cb0c7b01d743fbc6116a902379c7238000000000000000000000000fff9976782d46cc05630d1f6ebab18b2324d6b140000000000000000000000000000000000000000000000000000000000000bb8000000000000000000000000000000000000000000000000000000000000003c000000000000000000000000fe8729ae15e8cd6196e691e6c7c7c913e8c4d540fffffffffffffffffffffffffffffffffffffffffffffffffffffffffff2764c00000000000000000000000000000000000000000000000000000000000d89b4",
        "nonce": "0x1147",
        "chainId": "0xaa36a7"
      },
      "additionalContracts": [],
      "isFixedGasLimit": false
    }
  ],
  "receipts": [
    {
      "status": "0x1",
      "cumulativeGasUsed": "0x493909",
      "logs": [
        {
          "address": "0x76e9e1affde82bb4544ce95ea58ffc2f9d45061f",
          "topics": [
            "0xdd466e674ea557f56295e2d0218a125ea4b4f0f6f3307b95f85e6110838d6438",
            "0xce786b2f6023aa55bedfff2548e7e2b90b02f67afd457657b1894b60ae0b9a8f",
            "0x0000000000000000000000001c7d4b196cb0c7b01d743fbc6116a902379c7238",
            "0x000000000000000000000000fff9976782d46cc05630d1f6ebab18b2324d6b14"
          ],
          "data": "0x0000000000000000000000000000000000000000000000000000000000000bb8000000000000000000000000000000000000000000000000000000000000003c000000000000000000000000fe8729ae15e8cd6196e691e6c7c7c913e8c4d540000000000000000000000000000f422d34c9022439a2ba7376e9ebcf6543ad8800000000000000000000000000000000000000000000000000000000000afc58",
          "blockHash": "0x5af3be31dedaf0e5710a9dd57833e3f459f484913fbfcfacec2dc0499c6a1d4b",
          "blockNumber": "0x987d65",
          "blockTimestamp": "0x695db6f4",
          "transactionHash": "0xba3d8c2f19653dad2a627c0b7c9414bc9eef8b8082685c185abb1cc675b374f0",
          "transactionIndex": "0x3a",
          "logIndex": "0x42",
          "removed": false
        },
        {
          "address": "0xfe8729ae15e8cd6196e691e6c7c7c913e8c4d540",
          "topics": [
            "0x6ac674f30169c8971ca5194a725ecdc224f5fcf8b0cb24dcff9707bf0b25c363",
            "0xce786b2f6023aa55bedfff2548e7e2b90b02f67afd457657b1894b60ae0b9a8f"
          ],
          "data": "0x0000000000000000000000001c7d4b196cb0c7b01d743fbc6116a902379c7238000000000000000000000000fff9976782d46cc05630d1f6ebab18b2324d6b140000000000000000000000000000000000000000000000000000000000000bb8000000000000000000000000000000000000000000000000000000000000003c000000000000000000000000fe8729ae15e8cd6196e691e6c7c7c913e8c4d540",
          "blockHash": "0x5af3be31dedaf0e5710a9dd57833e3f459f484913fbfcfacec2dc0499c6a1d4b",
          "blockNumber": "0x987d65",
          "blockTimestamp": "0x695db6f4",
          "transactionHash": "0xba3d8c2f19653dad2a627c0b7c9414bc9eef8b8082685c185abb1cc675b374f0",
          "transactionIndex": "0x3a",
          "logIndex": "0x43",
          "removed": false
        }
      ],
      "logsBloom": "0x00000000001000040000000000000000000000000000000000000010000000000000000000000000000000000000000000000800000004000000000000000000100000000000000000000000000000010000000000000800000000000000010000000000000000000000000000000000000000000000000000000004000000000004000000000008000000000000010000000001000800000000000000200000000000000200000000000000000000000000008000000004000000000000000000000000000000000000000001000000000000000000000000000000020000000000000000000000000000000000000000000000000000000000000000000000",
      "type": "0x2",
      "transactionHash": "0xba3d8c2f19653dad2a627c0b7c9414bc9eef8b8082685c185abb1cc675b374f0",
      "transactionIndex": "0x3a",
      "blockHash": "0x5af3be31dedaf0e5710a9dd57833e3f459f484913fbfcfacec2dc0499c6a1d4b",
      "blockNumber": "0x987d65",
      "gasUsed": "0x14097",
      "effectiveGasPrice": "0xf4248",
      "from": "0x63f976191f9dd75bd5b0fd81320d37fbc0d74080",
      "to": "0x76e9e1affde82bb4544ce95ea58ffc2f9d45061f",
      "contractAddress": null
    },
    {
      "status": "0x1",
      "cumulativeGasUsed": "0x49ab52",
      "logs": [
        {
          "address": "0xfe8729ae15e8cd6196e691e6c7c7c913e8c4d540",
          "topics": [
            "0x5ccbffa18a4422a6c0cc78bdaa34b188e2dba24e3ba9b1655454922136fb8937",
            "0xce786b2f6023aa55bedfff2548e7e2b90b02f67afd457657b1894b60ae0b9a8f"
          ],
          "data": "0x0000000000000000000000000000000000000000000000000000000000000001",
          "blockHash": "0x5af3be31dedaf0e5710a9dd57833e3f459f484913fbfcfacec2dc0499c6a1d4b",
          "blockNumber": "0x987d65",
          "blockTimestamp": "0x695db6f4",
          "transactionHash": "0x85087315154b138a1bcd2d3a20599953e0d4b38a6c7096dbec78b17c18e08575",
          "transactionIndex": "0x3b",
          "logIndex": "0x44",
          "removed": false
        }
      ],
      "logsBloom": "0x00000000000000040000000000000000000000000000000000000010000000000000000000000000000000000000000000001000000000000000000000002000000000000000000000000000000000000000000000000000000000000000000000000000000000000000000000000000000000000000000000000004000000000000000000000000000000000000000004000000000800000000000000000000000000000000000000000000000000000000000000000004000000000000000000000000000000000000000000000000000000000000000000000000020000000000000000000000000000000000000000000000000000000000000000000000",
      "type": "0x2",
      "transactionHash": "0x85087315154b138a1bcd2d3a20599953e0d4b38a6c7096dbec78b17c18e08575",
      "transactionIndex": "0x3b",
      "blockHash": "0x5af3be31dedaf0e5710a9dd57833e3f459f484913fbfcfacec2dc0499c6a1d4b",
      "blockNumber": "0x987d65",
      "gasUsed": "0x7249",
      "effectiveGasPrice": "0xf4248",
      "from": "0x63f976191f9dd75bd5b0fd81320d37fbc0d74080",
      "to": "0xfe8729ae15e8cd6196e691e6c7c7c913e8c4d540",
      "contractAddress": null
    },
    {
      "status": "0x1",
      "cumulativeGasUsed": "0x4ac6f9",
      "logs": [
        {
          "address": "0xfe8729ae15e8cd6196e691e6c7c7c913e8c4d540",
          "topics": [
            "0x882c9eca713e887423b67acd3e18dc6d775c83c403e3a6d5811fea016ca5152b",
            "0xce786b2f6023aa55bedfff2548e7e2b90b02f67afd457657b1894b60ae0b9a8f"
          ],
          "data": "0x0000000000000000000000000000000000000000000000000de0b6b3a76400000000000000000000000000000000000000000000000000a2a15d09519be00000",
          "blockHash": "0x5af3be31dedaf0e5710a9dd57833e3f459f484913fbfcfacec2dc0499c6a1d4b",
          "blockNumber": "0x987d65",
          "blockTimestamp": "0x695db6f4",
          "transactionHash": "0x7daa49b9541c6def9e560534f7cd874a740b94067f2e03e7eeff573c1aed8a62",
          "transactionIndex": "0x3c",
          "logIndex": "0x45",
          "removed": false
        }
      ],
      "logsBloom": "0x00000000000000040000000000000000000000000000000000000010000000000000000000000000000000000000000000000000000000000000000000000000000000000000000000000000000000400000000000000000000000000000000000000000000000000000000000000000008000000000000000000004000000000000000000000000000000000000000000000000000800000000000000000000000000000000000000000000000000000000000000000004000000000000000000000000000000000000000000000000000000000000000000000000020000000000000000000000000001000000000000000000000000000000000000000000",
      "type": "0x2",
      "transactionHash": "0x7daa49b9541c6def9e560534f7cd874a740b94067f2e03e7eeff573c1aed8a62",
      "transactionIndex": "0x3c",
      "blockHash": "0x5af3be31dedaf0e5710a9dd57833e3f459f484913fbfcfacec2dc0499c6a1d4b",
      "blockNumber": "0x987d65",
      "gasUsed": "0x11ba7",
      "effectiveGasPrice": "0xf4248",
      "from": "0x63f976191f9dd75bd5b0fd81320d37fbc0d74080",
      "to": "0xfe8729ae15e8cd6196e691e6c7c7c913e8c4d540",
      "contractAddress": null
    },
    {
      "status": "0x1",
      "cumulativeGasUsed": "0x4be199",
      "logs": [
        {
          "address": "0xfe8729ae15e8cd6196e691e6c7c7c913e8c4d540",
          "topics": [
            "0xb3235f358edd480fca4ed0cc727f602efc55a46eea248086850b0493c9f39072",
            "0xce786b2f6023aa55bedfff2548e7e2b90b02f67afd457657b1894b60ae0b9a8f"
          ],
          "data": "0xfffffffffffffffffffffffffffffffffffffffffffffffffffffffffff2764c00000000000000000000000000000000000000000000000000000000000d89b4",
          "blockHash": "0x5af3be31dedaf0e5710a9dd57833e3f459f484913fbfcfacec2dc0499c6a1d4b",
          "blockNumber": "0x987d65",
          "blockTimestamp": "0x695db6f4",
          "transactionHash": "0x81a6619700238ad07678d79e816ff8dfcaa459549917e70bd5527774eee9f659",
          "transactionIndex": "0x3d",
          "logIndex": "0x46",
          "removed": false
        }
      ],
      "logsBloom": "0x00000000000000040000000000000000000000000000000000000010000000000000000000000000000000000000000000000000000000000000000000000000000000000000000000000000000000000000000000000000000000000000000000000000000000000000000000000000000000020000000000000004000000000000000000000000000000000000000000000000000800000000000000000000000000000800000000000000000000000000000000000004000000000000000000000000000000000000000000000000000000000000001000000000020000000000000000000000000000000000000000000000000000000000000000000000",
      "type": "0x2",
      "transactionHash": "0x81a6619700238ad07678d79e816ff8dfcaa459549917e70bd5527774eee9f659",
      "transactionIndex": "0x3d",
      "blockHash": "0x5af3be31dedaf0e5710a9dd57833e3f459f484913fbfcfacec2dc0499c6a1d4b",
      "blockNumber": "0x987d65",
      "gasUsed": "0x11aa0",
      "effectiveGasPrice": "0xf4248",
      "from": "0x63f976191f9dd75bd5b0fd81320d37fbc0d74080",
      "to": "0xfe8729ae15e8cd6196e691e6c7c7c913e8c4d540",
      "contractAddress": null
    }
  ],
  "libraries": [],
  "pending": [],
  "returns": {},
  "timestamp": 1767749364877,
  "chain": 11155111,
  "commit": "ebd80ce"
}