{
  "transactions": [
    {
      "hash": "0x40c0962a482d10710e62e1e5387e6abd72168881bfe16d302c520a7c73773ce0",
      "transactionType": "CALL",
      "contractName": null,
      "contractAddress": "0x76e9e1affde82bb4544ce95ea58ffc2f9d45061f",
      "function": "initialize((address,address,uint24,int24,address),uint160)",
      "arguments": [
        "(0x1c7D4B196Cb0C7B01d743Fbc6116a902379C7238, 0xfFf9976782d46CC05630D1f6eBAb18b2324d6B14, 3000, 60, 0x5C13377F19B9AEB3CB00Fcc8E58e9A2B43889540)",
        "340275971719517849884124397208085282957798792"
      ],
      "transaction": {
        "from": "0x63f976191f9dd75bd5b0fd81320d37fbc0d74080",
        "to": "0x76e9e1affde82bb4544ce95ea58ffc2f9d45061f",
        "gas": "0x1d4ca",
        "value": "0x0",
        "input": "0x6276cbbe0000000000000000000000001c7d4b196cb0c7b01d743fbc6116a902379c7238000000000000000000000000fff9976782d46cc05630d1f6ebab18b2324d6b140000000000000000000000000000000000000000000000000000000000000bb8000000000000000000000000000000000000000000000000000000000000003c0000000000000000000000005c13377f19b9aeb3cb00fcc8e58e9a2b43889540000000000000000000000000000f422d34c9022439a2ba7376e9ebcf6543ad88",
        "nonce": "0xe70",
        "chainId": "0xaa36a7"
      },
      "additionalContracts": [],
      "isFixedGasLimit": false
    },
    {
      "hash": "0x7083c2991de65eca62d9465f853d2c4cd02e16e63b3d137e4f28cb0c28079b0f",
      "transactionType": "CALL",
      "contractName": null,
      "contractAddress": "0x5c13377f19b9aeb3cb00fcc8e58e9a2b43889540",
      "function": "setPoolConfig((address,address,uint24,int24,address),bool)",
      "arguments": [
        "(0x1c7D4B196Cb0C7B01d743Fbc6116a902379C7238, 0xfFf9976782d46CC05630D1f6eBAb18b2324d6B14, 3000, 60, 0x5C13377F19B9AEB3CB00Fcc8E58e9A2B43889540)",
        "true"
      ],
      "transaction": {
        "from": "0x63f976191f9dd75bd5b0fd81320d37fbc0d74080",
        "to": "0x5c13377f19b9aeb3cb00fcc8e58e9a2b43889540",
        "gas": "0x9dc9",
        "value": "0x0",
        "input": "0x08e9b5ac0000000000000000000000001c7d4b196cb0c7b01d743fbc6116a902379c7238000000000000000000000000fff9976782d46cc05630d1f6ebab18b2324d6b140000000000000000000000000000000000000000000000000000000000000bb8000000000000000000000000000000000000000000000000000000000000003c0000000000000000000000005c13377f19b9aeb3cb00fcc8e58e9a2b438895400000000000000000000000000000000000000000000000000000000000000001",
        "nonce": "0xe71",
        "chainId": "0xaa36a7"
      },
      "additionalContracts": [],
      "isFixedGasLimit": false
    },
    {
      "hash": "0xf8a53394eca9311dffd4639aa21c86ba30d7a0b93d910cc38ced72b4913880e1",
      "transactionType": "CALL",
      "contractName": null,
      "contractAddress": "0x5c13377f19b9aeb3cb00fcc8e58e9a2b43889540",
      "function": "setTokenPricesUSD((address,address,uint24,int24,address),uint256,uint256)",
      "arguments": [
        "(0x1c7D4B196Cb0C7B01d743Fbc6116a902379C7238, 0xfFf9976782d46CC05630D1f6eBAb18b2324d6B14, 3000, 60, 0x5C13377F19B9AEB3CB00Fcc8E58e9A2B43889540)",
        "1000000000000000000",
        "3000000000000000000000"
      ],
      "transaction": {
        "from": "0x63f976191f9dd75bd5b0fd81320d37fbc0d74080",
        "to": "0x5c13377f19b9aeb3cb00fcc8e58e9a2b43889540",
        "gas": "0x19ec5",
        "value": "0x0",
        "input": "0xadc8ee270000000000000000000000001c7d4b196cb0c7b01d743fbc6116a902379c7238000000000000000000000000fff9976782d46cc05630d1f6ebab18b2324d6b140000000000000000000000000000000000000000000000000000000000000bb8000000000000000000000000000000000000000000000000000000000000003c0000000000000000000000005c13377f19b9aeb3cb00fcc8e58e9a2b438895400000000000000000000000000000000000000000000000000de0b6b3a76400000000000000000000000000000000000000000000000000a2a15d09519be00000",
        "nonce": "0xe72",
        "chainId": "0xaa36a7"
      },
      "additionalContracts": [],
      "isFixedGasLimit": false
    },
    {
      "hash": "0xaa8fcf739e9e26dc9455ffcc9f2a140c0de06f4ce7ddba2babca15fba1fb294f",
      "transactionType": "CALL",
      "contractName": null,
      "contractAddress": "0x5c13377f19b9aeb3cb00fcc8e58e9a2b43889540",
      "function": "setPoolTickRange((address,address,uint24,int24,address),int24,int24)",
      "arguments": [
        "(0x1c7D4B196Cb0C7B01d743Fbc6116a902379C7238, 0xfFf9976782d46CC05630D1f6eBAb18b2324d6B14, 3000, 60, 0x5C13377F19B9AEB3CB00Fcc8E58e9A2B43889540)",
        "-887220",
        "887220"
      ],
      "transaction": {
        "from": "0x63f976191f9dd75bd5b0fd81320d37fbc0d74080",
        "to": "0x5c13377f19b9aeb3cb00fcc8e58e9a2b43889540",
        "gas": "0x1864f",
        "value": "0x0",
        "input": "0x3cede4f60000000000000000000000001c7d4b196cb0c7b01d743fbc6116a902379c7238000000000000000000000000fff9976782d46cc05630d1f6ebab18b2324d6b140000000000000000000000000000000000000000000000000000000000000bb8000000000000000000000000000000000000000000000000000000000000003c0000000000000000000000005c13377f19b9aeb3cb00fcc8e58e9a2b43889540fffffffffffffffffffffffffffffffffffffffffffffffffffffffffff2764c00000000000000000000000000000000000000000000000000000000000d89b4",
        "nonce": "0xe73",
        "chainId": "0xaa36a7"
      },
      "additionalContracts": [],
      "isFixedGasLimit": false
    }
  ],
  "receipts": [
    {
      "status": "0x1",
      "cumulativeGasUsed": "0x66a0d5",
      "logs": [
        {
          "address": "0x76e9e1affde82bb4544ce95ea58ffc2f9d45061f",
          "topics": [
            "0xdd466e674ea557f56295e2d0218a125ea4b4f0f6f3307b95f85e6110838d6438",
            "0x6648efe854126eca977839455e095d4cb46e5035b64bc3aa0f8da2c5ebdce489",
            "0x0000000000000000000000001c7d4b196cb0c7b01d743fbc6116a902379c7238",
            "0x000000000000000000000000fff9976782d46cc05630d1f6ebab18b2324d6b14"
          ],
          "data": "0x0000000000000000000000000000000000000000000000000000000000000bb8000000000000000000000000000000000000000000000000000000000000003c0000000000000000000000005c13377f19b9aeb3cb00fcc8e58e9a2b43889540000000000000000000000000000f422d34c9022439a2ba7376e9ebcf6543ad8800000000000000000000000000000000000000000000000000000000000afc58",
          "blockHash": "0xafcac71b5e42d16aae378e79f7dcc675a2808a71af9182282b7363a230bc1d3f",
          "blockNumber": "0x987649",
          "blockTimestamp": "0x695d5478",
          "transactionHash": "0x40c0962a482d10710e62e1e5387e6abd72168881bfe16d302c520a7c73773ce0",
          "transactionIndex": "0x41",
          "logIndex": "0x5e",
          "removed": false
        },
        {
          "address": "0x5c13377f19b9aeb3cb00fcc8e58e9a2b43889540",
          "topics": [
            "0x6ac674f30169c8971ca5194a725ecdc224f5fcf8b0cb24dcff9707bf0b25c363",
            "0x6648efe854126eca977839455e095d4cb46e5035b64bc3aa0f8da2c5ebdce489"
          ],
          "data": "0x0000000000000000000000001c7d4b196cb0c7b01d743fbc6116a902379c7238000000000000000000000000fff9976782d46cc05630d1f6ebab18b2324d6b140000000000000000000000000000000000000000000000000000000000000bb8000000000000000000000000000000000000000000000000000000000000003c0000000000000000000000005c13377f19b9aeb3cb00fcc8e58e9a2b43889540",
          "blockHash": "0xafcac71b5e42d16aae378e79f7dcc675a2808a71af9182282b7363a230bc1d3f",
          "blockNumber": "0x987649",
          "blockTimestamp": "0x695d5478",
          "transactionHash": "0x40c0962a482d10710e62e1e5387e6abd72168881bfe16d302c520a7c73773ce0",
          "transactionIndex": "0x41",
          "logIndex": "0x5f",
          "removed": false
        }
      ],
      "logsBloom": "0x00000000001000000000000000000000002000000000000000000000000000000000000000000000000020000000000000000800000004000000000000001000100000000000000000000000000000010000000000000800000000000000010000000000000000000000000000000000000000000000000000000000000000000004000000000008000000000000010000000001000000000000000000200000000000000200040000000000000000000000008000000000000000000000000000000000000000000000000001000000000000000000000000000000000000000000000000000000000000000000050000000000000000000000000000000000",
      "type": "0x2",
      "transactionHash": "0x40c0962a482d10710e62e1e5387e6abd72168881bfe16d302c520a7c73773ce0",
      "transactionIndex": "0x41",
      "blockHash": "0xafcac71b5e42d16aae378e79f7dcc675a2808a71af9182282b7363a230bc1d3f",
      "blockNumber": "0x987649",
      "gasUsed": "0x1408b",
      "effectiveGasPrice": "0xf43f3",
      "from": "0x63f976191f9dd75bd5b0fd81320d37fbc0d74080",
      "to": "0x76e9e1affde82bb4544ce95ea58ffc2f9d45061f",
      "contractAddress": null
    },
    {
      "status": "0x1",
      "cumulativeGasUsed": "0x671312",
      "logs": [
        {
          "address": "0x5c13377f19b9aeb3cb00fcc8e58e9a2b43889540",
          "topics": [
            "0x5ccbffa18a4422a6c0cc78bdaa34b188e2dba24e3ba9b1655454922136fb8937",
            "0x6648efe854126eca977839455e095d4cb46e5035b64bc3aa0f8da2c5ebdce489"
          ],
          "data": "0x0000000000000000000000000000000000000000000000000000000000000001",
          "blockHash": "0xafcac71b5e42d16aae378e79f7dcc675a2808a71af9182282b7363a230bc1d3f",
          "blockNumber": "0x987649",
          "blockTimestamp": "0x695d5478",
          "transactionHash": "0x7083c2991de65eca62d9465f853d2c4cd02e16e63b3d137e4f28cb0c28079b0f",
          "transactionIndex": "0x42",
          "logIndex": "0x60",
          "removed": false
        }
      ],
      "logsBloom": "0x00000000000000000000000000000000002000000000000000000000000000000000000000000000000020000000000000001000000000000000000000003000000000000000000000000000000000000000000000000000000000000000000000000000000000000000000000000000000000000000000000000000000000000000000000000000000000000000000004000000000000000000000000000000000000000000040000000000000000000000000000000000000000000000000000000000000000000000000000000000000000000000000000000000000000000000000000000000000000000000050000000000000000000000000000000000",
      "type": "0x2",
      "transactionHash": "0x7083c2991de65eca62d9465f853d2c4cd02e16e63b3d137e4f28cb0c28079b0f",
      "transactionIndex": "0x42",
      "blockHash": "0xafcac71b5e42d16aae378e79f7dcc675a2808a71af9182282b7363a230bc1d3f",
      "blockNumber": "0x987649",
      "gasUsed": "0x723d",
      "effectiveGasPrice": "0xf43f3",
      "from": "0x63f976191f9dd75bd5b0fd81320d37fbc0d74080",
      "to": "0x5c13377f19b9aeb3cb00fcc8e58e9a2b43889540",
      "contractAddress": null
    },
    {
      "status": "0x1",
      "cumulativeGasUsed": "0x682ead",
      "logs": [
        {
          "address": "0x5c13377f19b9aeb3cb00fcc8e58e9a2b43889540",
          "topics": [
            "0x882c9eca713e887423b67acd3e18dc6d775c83c403e3a6d5811fea016ca5152b",
            "0x6648efe854126eca977839455e095d4cb46e5035b64bc3aa0f8da2c5ebdce489"
          ],
          "data": "0x0000000000000000000000000000000000000000000000000de0b6b3a76400000000000000000000000000000000000000000000000000a2a15d09519be00000",
          "blockHash": "0xafcac71b5e42d16aae378e79f7dcc675a2808a71af9182282b7363a230bc1d3f",
          "blockNumber": "0x987649",
          "blockTimestamp": "0x695d5478",
          "transactionHash": "0xf8a53394eca9311dffd4639aa21c86ba30d7a0b93d910cc38ced72b4913880e1",
          "transactionIndex": "0x43",
          "logIndex": "0x61",
          "removed": false
        }
      ],
      "logsBloom": "0x00000000000000000000000000000000002000000000000000000000000000000000000000000000000020000000000000000000000000000000000000001000000000000000000000000000000000400000000000000000000000000000000000000000000000000000000000000000008000000000000000000000000000000000000000000000000000000000000000000000000000000000000000000000000000000000040000000000000000000000000000000000000000000000000000000000000000000000000000000000000000000000000000000000000000000000000000000000000001000000050000000000000000000000000000000000",
      "type": "0x2",
      "transactionHash": "0xf8a53394eca9311dffd4639aa21c86ba30d7a0b93d910cc38ced72b4913880e1",
      "transactionIndex": "0x43",
      "blockHash": "0xafcac71b5e42d16aae378e79f7dcc675a2808a71af9182282b7363a230bc1d3f",
      "blockNumber": "0x987649",
      "gasUsed": "0x11b9b",
      "effectiveGasPrice": "0xf43f3",
      "from": "0x63f976191f9dd75bd5b0fd81320d37fbc0d74080",
      "to": "0x5c13377f19b9aeb3cb00fcc8e58e9a2b43889540",
      "contractAddress": null
    },
    {
      "status": "0x1",
      "cumulativeGasUsed": "0x694941",
      "logs": [
        {
          "address": "0x5c13377f19b9aeb3cb00fcc8e58e9a2b43889540",
          "topics": [
            "0xb3235f358edd480fca4ed0cc727f602efc55a46eea248086850b0493c9f39072",
            "0x6648efe854126eca977839455e095d4cb46e5035b64bc3aa0f8da2c5ebdce489"
          ],
          "data": "0xfffffffffffffffffffffffffffffffffffffffffffffffffffffffffff2764c00000000000000000000000000000000000000000000000000000000000d89b4",
          "blockHash": "0xafcac71b5e42d16aae378e79f7dcc675a2808a71af9182282b7363a230bc1d3f",
          "blockNumber": "0x987649",
          "blockTimestamp": "0x695d5478",
          "transactionHash": "0xaa8fcf739e9e26dc9455ffcc9f2a140c0de06f4ce7ddba2babca15fba1fb294f",
          "transactionIndex": "0x44",
          "logIndex": "0x62",
          "removed": false
        }
      ],
      "logsBloom": "0x00000000000000000000000000000000002000000000000000000000000000000000000000000000000020000000000000000000000000000000000000001000000000000000000000000000000000000000000000000000000000000000000000000000000000000000000000000000000000020000000000000000000000000000000000000000000000000000000000000000000000000000000000000000000000000800040000000000000000000000000000000000000000000000000000000000000000000000000000000000000000000000001000000000000000000000000000000000000000000000050000000000000000000000000000000000",
      "type": "0x2",
      "transactionHash": "0xaa8fcf739e9e26dc9455ffcc9f2a140c0de06f4ce7ddba2babca15fba1fb294f",
      "transactionIndex": "0x44",
      "blockHash": "0xafcac71b5e42d16aae378e79f7dcc675a2808a71af9182282b7363a230bc1d3f",
      "blockNumber": "0x987649",
      "gasUsed": "0x11a94",
      "effectiveGasPrice": "0xf43f3",
      "from": "0x63f976191f9dd75bd5b0fd81320d37fbc0d74080",
      "to": "0x5c13377f19b9aeb3cb00fcc8e58e9a2b43889540",
      "contractAddress": null
    }
  ],
  "libraries": [],
  "pending": [],
  "returns": {},
  "timestamp": 1767724153553,
  "chain": 11155111,
  "commit": "7e25353"
}