{
  "transactions": [
    {
      "hash": "0x7fb2d8a02b95aca1e8d9cb120371de4c8fa496426337f0f778acc1af5c3ac069",
      "transactionType": "CALL",
      "contractName": null,
      "contractAddress": "0x6a087b9340925e1c66273fae8f7527c8754f1540",
      "function": "setPoolConfig((address,address,uint24,int24,address),bool)",
      "arguments": [
        "(0x1c7D4B196Cb0C7B01d743Fbc6116a902379C7238, 0xfFf9976782d46CC05630D1f6eBAb18b2324d6B14, 3000, 60, 0x6A087B9340925E1c66273FAE8F7527c8754F1540)",
        "true"
      ],
      "transaction": {
        "from": "0x63f976191f9dd75bd5b0fd81320d37fbc0d74080",
        "to": "0x6a087b9340925e1c66273fae8f7527c8754f1540",
        "gas": "0xa724",
        "value": "0x0",
        "input": "0x08e9b5ac0000000000000000000000001c7d4b196cb0c7b01d743fbc6116a902379c7238000000000000000000000000fff9976782d46cc05630d1f6ebab18b2324d6b140000000000000000000000000000000000000000000000000000000000000bb8000000000000000000000000000000000000000000000000000000000000003c0000000000000000000000006a087b9340925e1c66273fae8f7527c8754f15400000000000000000000000000000000000000000000000000000000000000001",
        "nonce": "0xdad",
        "chainId": "0xaa36a7"
      },
      "additionalContracts": [],
      "isFixedGasLimit": false
    },
    {
      "hash": "0x19e4148a1a9a62e9dd5d551a1e47c0ce4ea3cbceb44f8a705877fa76b56d640b",
      "transactionType": "CALL",
      "contractName": null,
      "contractAddress": "0x6a087b9340925e1c66273fae8f7527c8754f1540",
      "function": "setTokenPricesUSD((address,address,uint24,int24,address),uint256,uint256)",
      "arguments": [
        "(0x1c7D4B196Cb0C7B01d743Fbc6116a902379C7238, 0xfFf9976782d46CC05630D1f6eBAb18b2324d6B14, 3000, 60, 0x6A087B9340925E1c66273FAE8F7527c8754F1540)",
        "1000000000000000000",
        "3000000000000000000000"
      ],
      "transaction": {
        "from": "0x63f976191f9dd75bd5b0fd81320d37fbc0d74080",
        "to": "0x6a087b9340925e1c66273fae8f7527c8754f1540",
        "gas": "0xb0b1",
        "value": "0x0",
        "input": "0xadc8ee270000000000000000000000001c7d4b196cb0c7b01d743fbc6116a902379c7238000000000000000000000000fff9976782d46cc05630d1f6ebab18b2324d6b140000000000000000000000000000000000000000000000000000000000000bb8000000000000000000000000000000000000000000000000000000000000003c0000000000000000000000006a087b9340925e1c66273fae8f7527c8754f15400000000000000000000000000000000000000000000000000de0b6b3a76400000000000000000000000000000000000000000000000000a2a15d09519be00000",
        "nonce": "0xdae",
        "chainId": "0xaa36a7"
      },
      "additionalContracts": [],
      "isFixedGasLimit": false
    },
    {
      "hash": "0x86bee2a1f5fd6ac3677416d672e9e6a8858668e880c60df82072a55da3dd0468",
      "transactionType": "CALL",
      "contractName": null,
      "contractAddress": "0x6a087b9340925e1c66273fae8f7527c8754f1540",
      "function": "setPoolTickRange((address,address,uint24,int24,address),int24,int24)",
      "arguments": [
        "(0x1c7D4B196Cb0C7B01d743Fbc6116a902379C7238, 0xfFf9976782d46CC05630D1f6eBAb18b2324d6B14, 3000, 60, 0x6A087B9340925E1c66273FAE8F7527c8754F1540)",
        "-887220",
        "887220"
      ],
      "transaction": {
        "from": "0x63f976191f9dd75bd5b0fd81320d37fbc0d74080",
        "to": "0x6a087b9340925e1c66273fae8f7527c8754f1540",
        "gas": "0xb9d6",
        "value": "0x0",
        "input": "0x3cede4f60000000000000000000000001c7d4b196cb0c7b01d743fbc6116a902379c7238000000000000000000000000fff9976782d46cc05630d1f6ebab18b2324d6b140000000000000000000000000000000000000000000000000000000000000bb8000000000000000000000000000000000000000000000000000000000000003c0000000000000000000000006a087b9340925e1c66273fae8f7527c8754f1540fffffffffffffffffffffffffffffffffffffffffffffffffffffffffff2764c00000000000000000000000000000000000000000000000000000000000d89b4",
        "nonce": "0xdaf",
        "chainId": "0xaa36a7"
      },
      "additionalContracts": [],
      "isFixedGasLimit": false
    }
  ],
  "receipts": [
    {
      "status": "0x1",
      "cumulativeGasUsed": "0x4908fe",
      "logs": [
        {
          "address": "0x6a087b9340925e1c66273fae8f7527c8754f1540",
          "topics": [
            "0x5ccbffa18a4422a6c0cc78bdaa34b188e2dba24e3ba9b1655454922136fb8937",
            "0xd58729fc13ee7d293fc30f8f84c2cc79455586e3950bd0c05ea5723ad86f906f"
          ],
          "data": "0x0000000000000000000000000000000000000000000000000000000000000001",
          "blockHash": "0xd0438cb34873be3e795459af89e92028f30eb97c590165bb7d7ce0453c57572a",
          "blockNumber": "0x987267",
          "blockTimestamp": "0x695d1fbc",
          "transactionHash": "0x7fb2d8a02b95aca1e8d9cb120371de4c8fa496426337f0f778acc1af5c3ac069",
          "transactionIndex": "0x2b",
          "logIndex": "0x30",
          "removed": false
        }
      ],
      "logsBloom": "0x00000000000000000000000000000000000000000000000000000000000020000000000000000000000000000000000000001000000000000000000000002000000000000000000000000000000000000000000000000000000000000000000000000000000000000020000000000000000000000000004000000000000000000000000000000000000000000000000004000000000000000000000000000000000000000000000000000000000000000000000000000000000000020000000000000000000000080000000000000000000000800000000000000000000000000000000000000000000000000000000000000000000000000000000000000000",
      "type": "0x2",
      "transactionHash": "0x7fb2d8a02b95aca1e8d9cb120371de4c8fa496426337f0f778acc1af5c3ac069",
      "transactionIndex": "0x2b",
      "blockHash": "0xd0438cb34873be3e795459af89e92028f30eb97c590165bb7d7ce0453c57572a",
      "blockNumber": "0x987267",
      "gasUsed": "0x7249",
      "effectiveGasPrice": "0x4d6613",
      "from": "0x63f976191f9dd75bd5b0fd81320d37fbc0d74080",
      "to": "0x6a087b9340925e1c66273fae8f7527c8754f1540",
      "contractAddress": null
    },
    {
      "status": "0x1",
      "cumulativeGasUsed": "0x31b9510",
      "logs": [
        {
          "address": "0x6a087b9340925e1c66273fae8f7527c8754f1540",
          "topics": [
            "0x882c9eca713e887423b67acd3e18dc6d775c83c403e3a6d5811fea016ca5152b",
            "0xd58729fc13ee7d293fc30f8f84c2cc79455586e3950bd0c05ea5723ad86f906f"
          ],
          "data": "0x0000000000000000000000000000000000000000000000000de0b6b3a76400000000000000000000000000000000000000000000000000a2a15d09519be00000",
          "blockHash": "0xca79af3c87cb811c626b2f01109420492561a06be804b85a3a94a9a5dcd6887b",
          "blockNumber": "0x987268",
          "blockTimestamp": "0x695d1fd4",
          "transactionHash": "0x19e4148a1a9a62e9dd5d551a1e47c0ce4ea3cbceb44f8a705877fa76b56d640b",
          "transactionIndex": "0x37",
          "logIndex": "0x282",
          "removed": false
        }
      ],
      "logsBloom": "0x00000000000000000000000000000000000000000000000000000000000020000000000000000000000000000000000000000000000000000000000000000000000000000000000000000000000000400000000000000000000000000000000000000000000000000020000000000000008000000000004000000000000000000000000000000000000000000000000000000000000000000000000000000000000000000000000000000000000000000000000000000000000000020000000000000000000000080000000000000000000000800000000000000000000000000000000000000000000001000000000000000000000000000000000000000000",
      "type": "0x2",
      "transactionHash": "0x19e4148a1a9a62e9dd5d551a1e47c0ce4ea3cbceb44f8a705877fa76b56d640b",
      "transactionIndex": "0x37",
      "blockHash": "0xca79af3c87cb811c626b2f01109420492561a06be804b85a3a94a9a5dcd6887b",
      "blockNumber": "0x987268",
      "gasUsed": "0x7fed",
      "effectiveGasPrice": "0x4d4ce4",
      "from": "0x63f976191f9dd75bd5b0fd81320d37fbc0d74080",
      "to": "0x6a087b9340925e1c66273fae8f7527c8754f1540",
      "contractAddress": null
    },
    {
      "status": "0x1",
      "cumulativeGasUsed": "0x2f92bb7",
      "logs": [
        {
          "address": "0x6a087b9340925e1c66273fae8f7527c8754f1540",
          "topics": [
            "0xb3235f358edd480fca4ed0cc727f602efc55a46eea248086850b0493c9f39072",
            "0xd58729fc13ee7d293fc30f8f84c2cc79455586e3950bd0c05ea5723ad86f906f"
          ],
          "data": "0xfffffffffffffffffffffffffffffffffffffffffffffffffffffffffff2764c00000000000000000000000000000000000000000000000000000000000d89b4",
          "blockHash": "0xd816d333a5ef15a9f8bfa08d3c0d6bd98ae84100e171781af06fe76020dc92db",
          "blockNumber": "0x987269",
          "blockTimestamp": "0x695d1fe0",
          "transactionHash": "0x86bee2a1f5fd6ac3677416d672e9e6a8858668e880c60df82072a55da3dd0468",
          "transactionIndex": "0x22",
          "logIndex": "0x278",
          "removed": false
        }
      ],
      "logsBloom": "0x00000000000000000000000000000000000000000000000000000000000020000000000000000000000000000000000000000000000000000000000000000000000000000000000000000000000000000000000000000000000000000000000000000000000000000020000000000000000000020000004000000000000000000000000000000000000000000000000000000000000000000000000000000000000000000800000000000000000000000000000000000000000000020000000000000000000000080000000000000000000000800000001000000000000000000000000000000000000000000000000000000000000000000000000000000000",
      "type": "0x2",
      "transactionHash": "0x86bee2a1f5fd6ac3677416d672e9e6a8858668e880c60df82072a55da3dd0468",
      "transactionIndex": "0x22",
      "blockHash": "0xd816d333a5ef15a9f8bfa08d3c0d6bd98ae84100e171781af06fe76020dc92db",
      "blockNumber": "0x987269",
      "gasUsed": "0x7f12",
      "effectiveGasPrice": "0x4d6d15",
      "from": "0x63f976191f9dd75bd5b0fd81320d37fbc0d74080",
      "to": "0x6a087b9340925e1c66273fae8f7527c8754f1540",
      "contractAddress": null
    }
  ],
  "libraries": [],
  "pending": [],
  "returns": {},
  "timestamp": 1767710690027,
  "chain": 11155111,
  "commit": "7902c05"
}