{
  "transactions": [
    {
      "hash": "0xa3a8f0f30422ea30fd48e6539b86c4408e87fa398afe283beeb9bf5ba0ef3547",
      "transactionType": "CREATE",
      "contractName": "SwapHelper",
      "contractAddress": "0x12ba30f9ebb4f8aa09ea49893cfd592d4fd86ef5",
      "function": null,
      "arguments": [
        "0x76E9E1AFFDe82bb4544cE95EA58fFc2f9D45061f"
      ],
      "transaction": {
        "from": "0x63f976191f9dd75bd5b0fd81320d37fbc0d74080",
        "gas": "0x118d81",
        "value": "0x0",
        "input": "0x60a034607457601f610f9f38819003918201601f19168301916001600160401b03831184841017607857808492602094604052833981010312607457516001600160a01b0381168103607457608052604051610f12908161008d82396080518181816103290152818161044d01526104e20152f35b5f80fd5b634e487b7160e01b5f52604160045260245ffdfe6080806040526004361015610012575f80fd5b5f3560e01c90816391dd73461461047157508063dc4c90d3146104035763f3cd914c1461003d575f80fd5b3461037a577ffffffffffffffffffffffffffffffffffffffffffffffffffffffffffffffffc3601610120811261037a5760a01361037a5760405161008181610a3e565b60043573ffffffffffffffffffffffffffffffffffffffff8116810361037a57815260243573ffffffffffffffffffffffffffffffffffffffff8116810361037a57602082015260443562ffffff8116810361037a5760408201526064358060020b810361037a57606082015260843573ffffffffffffffffffffffffffffffffffffffff8116810361037a57608082015260607fffffffffffffffffffffffffffffffffffffffffffffffffffffffffffffff5c36011261037a576040519061014a82610a5a565b60a435801515810361037a57825260c435602083015260e43573ffffffffffffffffffffffffffffffffffffffff8116810361037a5760408301526101043567ffffffffffffffff811161037a576102d45f926102a861030f956102936101ca73ffffffffffffffffffffffffffffffffffffffff963690600401610b12565b9161025b604051956101db876109f5565b3387526020870190815260408701928352606087019485526040519889976020808a01525116604088015251606087019073ffffffffffffffffffffffffffffffffffffffff6080809282815116855282602082015116602086015262ffffff6040820151166040860152606081015160020b6060860152015116910152565b518051151561010086015260208101516101208601526040015173ffffffffffffffffffffffffffffffffffffffff16610140850152565b516101406101608401526101808301906109b2565b037fffffffffffffffffffffffffffffffffffffffffffffffffffffffffffffffe08101835282610a76565b604051809381927f48c894910000000000000000000000000000000000000000000000000000000083526020600484015260248301906109b2565b03818373ffffffffffffffffffffffffffffffffffffffff7f0000000000000000000000000000000000000000000000000000000000000000165af19081156103f8575f9161037e575b506020815191818082019384920101031261037a5760209051604051908152f35b5f80fd5b90503d805f833e61038f8183610a76565b81019060208183031261037a5780519067ffffffffffffffff821161037a570181601f8201121561037a578051906103c682610ad8565b926103d46040519485610a76565b8284526020838301011161037a57815f9260208093018386015e830101525f610359565b6040513d5f823e3d90fd5b3461037a575f7ffffffffffffffffffffffffffffffffffffffffffffffffffffffffffffffffc36011261037a57602060405173ffffffffffffffffffffffffffffffffffffffff7f0000000000000000000000000000000000000000000000000000000000000000168152f35b3461037a5760207ffffffffffffffffffffffffffffffffffffffffffffffffffffffffffffffffc36011261037a576004359067ffffffffffffffff821161037a573660238301121561037a57816004013567ffffffffffffffff811161037a578201602481019236841161037a577f00000000000000000000000000000000000000000000000000000000000000009073ffffffffffffffffffffffffffffffffffffffff821693843303610956575060208184031261037a5760248101359067ffffffffffffffff821161037a5701936101408584031261037a576040519361055b856109f5565b61056760248701610ab7565b855260a07fffffffffffffffffffffffffffffffffffffffffffffffffffffffffffffffe0878603011261037a57604051936105a285610a3e565b6105ae60448801610ab7565b85526105bc60648801610ab7565b6020860152608487013562ffffff8116810361037a57604086015260a48701358060020b810361037a57606086015260c487013573ffffffffffffffffffffffffffffffffffffffff8116810361037a577fffffffffffffffffffffffffffffffffffffffffffffffffffffffffffffff1c8860609360249360808a015260208a019889520301011261037a576040519061065682610a5a565b60e4870135801515810361037a578252610104870135602083015261012487013573ffffffffffffffffffffffffffffffffffffffff8116810361037a576040830152604086019182526101448701359267ffffffffffffffff841161037a575f6106ce61075e9260246020976107929c0101610b12565b938460608a01526107a688519151956040519b8c97889687957ff3cd914c000000000000000000000000000000000000000000000000000000008752600487019073ffffffffffffffffffffffffffffffffffffffff6080809282815116855282602082015116602086015262ffffff6040820151166040860152606081015160020b6060860152015116910152565b8051151560a4860152602081015160c48601526040015173ffffffffffffffffffffffffffffffffffffffff1660e4850152565b6101206101048401526101248301906109b2565b03925af19283156103f8575f93610920575b61081994508360801d600f0b9184600f0b925f81126108dd575b5f8412610891575b5f811361084f575b505f831361081d575b858560405190602082015260208152610805604082610a76565b6040519182916020835260208301906109b2565b0390f35b73ffffffffffffffffffffffffffffffffffffffff806020610846965101511692511691610e71565b828080806107eb565b61088b9073ffffffffffffffffffffffffffffffffffffffff865151168373ffffffffffffffffffffffffffffffffffffffff86511691610e71565b866107e2565b6108d873ffffffffffffffffffffffffffffffffffffffff6020875101511673ffffffffffffffffffffffffffffffffffffffff855116846108d288610b67565b92610bd8565b6107da565b61091b73ffffffffffffffffffffffffffffffffffffffff8651511673ffffffffffffffffffffffffffffffffffffffff855116846108d285610b67565b6107d2565b92506020843d60201161094e575b8161093b60209383610a76565b8101031261037a576108199351926107b8565b3d915061092e565b807f08c379a0000000000000000000000000000000000000000000000000000000006064925260206004820152601960248201527f4f6e6c7920506f6f6c4d616e616765722063616e2063616c6c000000000000006044820152fd5b907fffffffffffffffffffffffffffffffffffffffffffffffffffffffffffffffe0601f602080948051918291828752018686015e5f8582860101520116010190565b6080810190811067ffffffffffffffff821117610a1157604052565b7f4e487b71000000000000000000000000000000000000000000000000000000005f52604160045260245ffd5b60a0810190811067ffffffffffffffff821117610a1157604052565b6060810190811067ffffffffffffffff821117610a1157604052565b90601f7fffffffffffffffffffffffffffffffffffffffffffffffffffffffffffffffe0910116810190811067ffffffffffffffff821117610a1157604052565b359073ffffffffffffffffffffffffffffffffffffffff8216820361037a57565b67ffffffffffffffff8111610a1157601f017fffffffffffffffffffffffffffffffffffffffffffffffffffffffffffffffe01660200190565b81601f8201121561037a57803590610b2982610ad8565b92610b376040519485610a76565b8284526020838301011161037a57815f926020809301838601378301015290565b9081602091031261037a575190565b7f80000000000000000000000000000000000000000000000000000000000000008114610b93575f0390565b7f4e487b71000000000000000000000000000000000000000000000000000000005f52601160045260245ffd5b9081602091031261037a5751801515810361037a5790565b90919073ffffffffffffffffffffffffffffffffffffffff1680610c7857505073ffffffffffffffffffffffffffffffffffffffff600460209260405194859384927f11da60b4000000000000000000000000000000000000000000000000000000008452165af180156103f857610c4d5750565b610c6e9060203d602011610c71575b610c668183610a76565b810190610b58565b50565b503d610c5c565b90929173ffffffffffffffffffffffffffffffffffffffff1691823b1561037a57604051937fa58411940000000000000000000000000000000000000000000000000000000085528260048601525a945f816024818389819bf180156103f857610e48575b5073ffffffffffffffffffffffffffffffffffffffff1684308214610dd4576020929160649160405195869485937f23b872dd000000000000000000000000000000000000000000000000000000008552600485015288602485015260448401525af18015610dc957916020918493610d9c575b505b6004604051809581937f11da60b40000000000000000000000000000000000000000000000000000000083525af1908115610d905750610c4d5750565b604051903d90823e3d90fd5b610dbb90833d8511610dc2575b610db38183610a76565b810190610bc0565b505f610d51565b503d610da9565b6040513d85823e3d90fd5b929050604460209260405194859384927fa9059cbb00000000000000000000000000000000000000000000000000000000845288600485015260248401525af18015610dc957916020918493610e2b575b50610d53565b610e4190833d8511610dc257610db38183610a76565b505f610e25565b610e559195505f90610a76565b5f9373ffffffffffffffffffffffffffffffffffffffff610cdd565b91929073ffffffffffffffffffffffffffffffffffffffff16803b1561037a575f928360649273ffffffffffffffffffffffffffffffffffffffff948560405198899788967f0b0d9c0900000000000000000000000000000000000000000000000000000000885216600487015216602485015260448401525af180156103f857610ef95750565b5f610f0391610a76565b56fea164736f6c634300081a000a00000000000000000000000076e9e1affde82bb4544ce95ea58ffc2f9d45061f",
        "nonce": "0xe68",
        "chainId": "0xaa36a7"
      },
      "additionalContracts": [],
      "isFixedGasLimit": false
    },
    {
      "hash": "0xba30cc6628810d50871e7eea5f3f649257369d3d4fdb8e58e7efcba7e2ad84b4",
      "transactionType": "CALL",
      "contractName": null,
      "contractAddress": "0xfff9976782d46cc05630d1f6ebab18b2324d6b14",
      "function": "approve(address,uint256)",
      "arguments": [
        "0x12BA30f9eBb4F8aa09ea49893cfD592d4Fd86Ef5",
        "115792089237316195423570985008687907853269984665640564039457584007913129639935"
      ],
      "transaction": {
        "from": "0x63f976191f9dd75bd5b0fd81320d37fbc0d74080",
        "to": "0xfff9976782d46cc05630d1f6ebab18b2324d6b14",
        "gas": "0xfa27",
        "value": "0x0",
        "input": "0x095ea7b300000000000000000000000012ba30f9ebb4f8aa09ea49893cfd592d4fd86ef5ffffffffffffffffffffffffffffffffffffffffffffffffffffffffffffffff",
        "nonce": "0xe69",
        "chainId": "0xaa36a7"
      },
      "additionalContracts": [],
      "isFixedGasLimit": false
    },
    {
      "hash": "0x5f4bf3be01ca57d399c73e243d4fd361a57aeb9f8bee31abffac2c95c14913ed",
      "transactionType": "CALL",
      "contractName": "SwapHelper",
      "contractAddress": "0x12ba30f9ebb4f8aa09ea49893cfd592d4fd86ef5",
      "function": "swap((address,address,uint24,int24,address),(bool,int256,uint160),bytes)",
      "arguments": [
        "(0x1c7D4B196Cb0C7B01d743Fbc6116a902379C7238, 0xfFf9976782d46CC05630D1f6eBAb18b2324d6B14, 3000, 60, 0xC5fB60De90960712B938dC19a7DC8a904d039540)",
        "(false, -1000000000000000, 1461446703485210103287273052203988822378723970341)",
        "0x"
      ],
      "transaction": {
        "from": "0x63f976191f9dd75bd5b0fd81320d37fbc0d74080",
        "to": "0x12ba30f9ebb4f8aa09ea49893cfd592d4fd86ef5",
        "gas": "0xf7515",
        "value": "0x0",
        "input": "0xf3cd914c0000000000000000000000001c7d4b196cb0c7b01d743fbc6116a902379c7238000000000000000000000000fff9976782d46cc05630d1f6ebab18b2324d6b140000000000000000000000000000000000000000000000000000000000000bb8000000000000000000000000000000000000000000000000000000000000003c000000000000000000000000c5fb60de90960712b938dc19a7dc8a904d0395400000000000000000000000000000000000000000000000000000000000000000fffffffffffffffffffffffffffffffffffffffffffffffffffc72815b398000000000000000000000000000fffd8963efd1fc6a506488495d951d5263988d2500000000000000000000000000000000000000000000000000000000000001200000000000000000000000000000000000000000000000000000000000000000",
        "nonce": "0xe6a",
        "chainId": "0xaa36a7"
      },
      "additionalContracts": [],
      "isFixedGasLimit": false
    }
  ],
  "receipts": [
    {
      "status": "0x1",
      "cumulativeGasUsed": "0xa68fba",
      "logs": [],
      "logsBloom": "0x00000000000000000000000000000000000000000000000000000000000000000000000000000000000000000000000000000000000000000000000000000000000000000000000000000000000000000000000000000000000000000000000000000000000000000000000000000000000000000000000000000000000000000000000000000000000000000000000000000000000000000000000000000000000000000000000000000000000000000000000000000000000000000000000000000000000000000000000000000000000000000000000000000000000000000000000000000000000000000000000000000000000000000000000000000000",
      "type": "0x2",
      "transactionHash": "0x5f4bf3be01ca57d399c73e243d4fd361a57aeb9f8bee31abffac2c95c14913ed",
      "transactionIndex": "0x6c",
      "blockHash": "0x02d363191aaf546f1ed229b5706e4d1793311021e7c48dd171bf5508eb3a8b20",
      "blockNumber": "0x9875f1",
      "gasUsed": "0xd808b",
      "effectiveGasPrice": "0x81292",
      "from": "0x63f976191f9dd75bd5b0fd81320d37fbc0d74080",
      "to": null,
      "contractAddress": "0x12ba30f9ebb4f8aa09ea49893cfd592d4fd86ef5"
    },
    {
      "status": "0x1",
      "cumulativeGasUsed": "0xa744d6",
      "logs": [
        {
          "address": "0xfff9976782d46cc05630d1f6ebab18b2324d6b14",
          "topics": [
            "0x8c5be1e5ebec7d5bd14f71427d1e84f3dd0314c0f7b2291e5b200ac8c7c3b925",
            "0x00000000000000000000000063f976191f9dd75bd5b0fd81320d37fbc0d74080",
            "0x00000000000000000000000012ba30f9ebb4f8aa09ea49893cfd592d4fd86ef5"
          ],
          "data": "0xffffffffffffffffffffffffffffffffffffffffffffffffffffffffffffffff",
          "blockHash": "0x02d363191aaf546f1ed229b5706e4d1793311021e7c48dd171bf5508eb3a8b20",
          "blockNumber": "0x9875f1",
          "blockTimestamp": "0x695d4fc8",
          "transactionHash": "0xa3a8f0f30422ea30fd48e6539b86c4408e87fa398afe283beeb9bf5ba0ef3547",
          "transactionIndex": "0x6d",
          "logIndex": "0x63",
          "removed": false
        }
      ],
      "logsBloom": "0x00000000000000400000000000000000000000000000000000000000000000000000000000000000000000000000000000000000000010000000000000200000080000000000000000000000000000000000000000000000000000000000000000000000000000000000000000000000000000000000000000000000000000000040000000000000000000000000000000000000000000000000000000000000020020400000000000000000000000000000000000000000000000000000000000000000000000000002000000000000000000000000000000000000000000010010000000000000000000020000000000000000000000000000000000000000",
      "type": "0x2",
      "transactionHash": "0xa3a8f0f30422ea30fd48e6539b86c4408e87fa398afe283beeb9bf5ba0ef3547",
      "transactionIndex": "0x6d",
      "blockHash": "0x02d363191aaf546f1ed229b5706e4d1793311021e7c48dd171bf5508eb3a8b20",
      "blockNumber": "0x9875f1",
      "gasUsed": "0xb51c",
      "effectiveGasPrice": "0x81292",
      "from": "0x63f976191f9dd75bd5b0fd81320d37fbc0d74080",
      "to": "0xfff9976782d46cc05630d1f6ebab18b2324d6b14",
      "contractAddress": null
    },
    {
      "status": "0x1",
      "cumulativeGasUsed": "0xb1d689",
      "logs": [
        {
          "address": "0x76e9e1affde82bb4544ce95ea58ffc2f9d45061f",
          "topics": [
            "0x40e9cecb9f5f1f1c5b9c97dec2917b7ee92e57ba5563708daca94dd84ad7112f",
            "0xc6dd5a3d7384ff97515ee981285684484b76e083ae1580aa0e6454907db65559",
            "0x00000000000000000000000012ba30f9ebb4f8aa09ea49893cfd592d4fd86ef5"
          ],
          "data": "0x0000000000000000000000000000000000000000000000000000000000000000fffffffffffffffffffffffffffffffffffffffffffffffffffc72815b3980000000000000000000000000000000c6033f31881e2f46378c8bfcd23906932d0700000000000000000000000000000000000000000000000000000000000000f500000000000000000000000000000000000000000000000000000000000a135d0000000000000000000000000000000000000000000000000000000000000bb8",
          "blockHash": "0x02d363191aaf546f1ed229b5706e4d1793311021e7c48dd171bf5508eb3a8b20",
          "blockNumber": "0x9875f1",
          "blockTimestamp": "0x695d4fc8",
          "transactionHash": "0xba30cc6628810d50871e7eea5f3f649257369d3d4fdb8e58e7efcba7e2ad84b4",
          "transactionIndex": "0x6e",
          "logIndex": "0x64",
          "removed": false
        },
        {
          "address": "0xc5fb60de90960712b938dc19a7dc8a904d039540",
          "topics": [
            "0xcd9f4ccdc13709817c4447834a44bef5d62ffe25139e5c329d8debc5c177cc79",
            "0xc6dd5a3d7384ff97515ee981285684484b76e083ae1580aa0e6454907db65559"
          ],
          "data": "0x0000000000000000000000000000000000000000000000000000000000000000000000000000000000000000000000000000000000000000000002ba7def3000000000000000000000000000000000000000000000000000000000000000d2f00000000000000000000000000000000000000000000000000000311cdad16000000000000000000000000000000000000000000000000000023f8a24459dd2f0",
          "blockHash": "0x02d363191aaf546f1ed229b5706e4d1793311021e7c48dd171bf5508eb3a8b20",
          "blockNumber": "0x9875f1",
          "blockTimestamp": "0x695d4fc8",
          "transactionHash": "0xba30cc6628810d50871e7eea5f3f649257369d3d4fdb8e58e7efcba7e2ad84b4",
          "transactionIndex": "0x6e",
          "logIndex": "0x65",
          "removed": false
        },
        {
          "address": "0xfff9976782d46cc05630d1f6ebab18b2324d6b14",
          "topics": [
            "0xddf252ad1be2c89b69c2b068fc378daa952ba7f163c4a11628f55a4df523b3ef",
            "0x00000000000000000000000063f976191f9dd75bd5b0fd81320d37fbc0d74080",
            "0x00000000000000000000000076e9e1affde82bb4544ce95ea58ffc2f9d45061f"
          ],
          "data": "0x00000000000000000000000000000000000000000000000000038d7ea4c68000",
          "blockHash": "0x02d363191aaf546f1ed229b5706e4d1793311021e7c48dd171bf5508eb3a8b20",
          "blockNumber": "0x9875f1",
          "blockTimestamp": "0x695d4fc8",
          "transactionHash": "0xba30cc6628810d50871e7eea5f3f649257369d3d4fdb8e58e7efcba7e2ad84b4",
          "transactionIndex": "0x6e",
          "logIndex": "0x66",
          "removed": false
        }
      ],
      "logsBloom": "0x00001000000000400000000000000000000000000000000001000000000000000000000000000000000000040000000000000000040010000000000000000000080004000000000000000008000000000000000000000820000000000000010000000000000000000000004000000000000000008000000000000012000000000040000000000000000000000000010000000000000000000000000000000000000020400000000000000000000000000000000000000000000001000000000000000002000004000002000000000000000000000000000000008000008000010000000000000000004000020000000000002000000000000000000000000000",
      "type": "0x2",
      "transactionHash": "0xba30cc6628810d50871e7eea5f3f649257369d3d4fdb8e58e7efcba7e2ad84b4",
      "transactionIndex": "0x6e",
      "blockHash": "0x02d363191aaf546f1ed229b5706e4d1793311021e7c48dd171bf5508eb3a8b20",
      "blockNumber": "0x9875f1",
      "gasUsed": "0xa91b3",
      "effectiveGasPrice": "0x81292",
      "from": "0x63f976191f9dd75bd5b0fd81320d37fbc0d74080",
      "to": "0x12ba30f9ebb4f8aa09ea49893cfd592d4fd86ef5",
      "contractAddress": null
    }
  ],
  "libraries": [],
  "pending": [],
  "returns": {},
  "timestamp": 1767722953407,
  "chain": 11155111,
  "commit": "7e25353"
}