{
  "transactions": [
    {
      "hash": "0xf4767b06e947f1a2b231256e19bf393e0911543c096c957e1799a7e40d7b1a6d",
      "transactionType": "CREATE",
      "contractName": "SwapHelper",
      "contractAddress": "0x32da127c61fd7d638e63e74c0ddf0fd1a05f60b4",
      "function": null,
      "arguments": [
        "0xc77aE1faE9BB15fDD1Ea96897A12Ec074FA65250"
      ],
      "transaction": {
        "from": "0x63f976191f9dd75bd5b0fd81320d37fbc0d74080",
        "gas": "0x118d81",
        "value": "0x0",
        "input": "0x60a034607457601f610f9f38819003918201601f19168301916001600160401b03831184841017607857808492602094604052833981010312607457516001600160a01b0381168103607457608052604051610f12908161008d82396080518181816103290152818161044d01526104e20152f35b5f80fd5b634e487b7160e01b5f52604160045260245ffdfe6080806040526004361015610012575f80fd5b5f3560e01c90816391dd73461461047157508063dc4c90d3146104035763f3cd914c1461003d575f80fd5b3461037a577ffffffffffffffffffffffffffffffffffffffffffffffffffffffffffffffffc3601610120811261037a5760a01361037a5760405161008181610a3e565b60043573ffffffffffffffffffffffffffffffffffffffff8116810361037a57815260243573ffffffffffffffffffffffffffffffffffffffff8116810361037a57602082015260443562ffffff8116810361037a5760408201526064358060020b810361037a57606082015260843573ffffffffffffffffffffffffffffffffffffffff8116810361037a57608082015260607fffffffffffffffffffffffffffffffffffffffffffffffffffffffffffffff5c36011261037a576040519061014a82610a5a565b60a435801515810361037a57825260c435602083015260e43573ffffffffffffffffffffffffffffffffffffffff8116810361037a5760408301526101043567ffffffffffffffff811161037a576102d45f926102a861030f956102936101ca73ffffffffffffffffffffffffffffffffffffffff963690600401610b12565b9161025b604051956101db876109f5565b3387526020870190815260408701928352606087019485526040519889976020808a01525116604088015251606087019073ffffffffffffffffffffffffffffffffffffffff6080809282815116855282602082015116602086015262ffffff6040820151166040860152606081015160020b6060860152015116910152565b518051151561010086015260208101516101208601526040015173ffffffffffffffffffffffffffffffffffffffff16610140850152565b516101406101608401526101808301906109b2565b037fffffffffffffffffffffffffffffffffffffffffffffffffffffffffffffffe08101835282610a76565b604051809381927f48c894910000000000000000000000000000000000000000000000000000000083526020600484015260248301906109b2565b03818373ffffffffffffffffffffffffffffffffffffffff7f0000000000000000000000000000000000000000000000000000000000000000165af19081156103f8575f9161037e575b506020815191818082019384920101031261037a5760209051604051908152f35b5f80fd5b90503d805f833e61038f8183610a76565b81019060208183031261037a5780519067ffffffffffffffff821161037a570181601f8201121561037a578051906103c682610ad8565b926103d46040519485610a76565b8284526020838301011161037a57815f9260208093018386015e830101525f610359565b6040513d5f823e3d90fd5b3461037a575f7ffffffffffffffffffffffffffffffffffffffffffffffffffffffffffffffffc36011261037a57602060405173ffffffffffffffffffffffffffffffffffffffff7f0000000000000000000000000000000000000000000000000000000000000000168152f35b3461037a5760207ffffffffffffffffffffffffffffffffffffffffffffffffffffffffffffffffc36011261037a576004359067ffffffffffffffff821161037a573660238301121561037a57816004013567ffffffffffffffff811161037a578201602481019236841161037a577f00000000000000000000000000000000000000000000000000000000000000009073ffffffffffffffffffffffffffffffffffffffff821693843303610956575060208184031261037a5760248101359067ffffffffffffffff821161037a5701936101408584031261037a576040519361055b856109f5565b61056760248701610ab7565b855260a07fffffffffffffffffffffffffffffffffffffffffffffffffffffffffffffffe0878603011261037a57604051936105a285610a3e565b6105ae60448801610ab7565b85526105bc60648801610ab7565b6020860152608487013562ffffff8116810361037a57604086015260a48701358060020b810361037a57606086015260c487013573ffffffffffffffffffffffffffffffffffffffff8116810361037a577fffffffffffffffffffffffffffffffffffffffffffffffffffffffffffffff1c8860609360249360808a015260208a019889520301011261037a576040519061065682610a5a565b60e4870135801515810361037a578252610104870135602083015261012487013573ffffffffffffffffffffffffffffffffffffffff8116810361037a576040830152604086019182526101448701359267ffffffffffffffff841161037a575f6106ce61075e9260246020976107929c0101610b12565b938460608a01526107a688519151956040519b8c97889687957ff3cd914c000000000000000000000000000000000000000000000000000000008752600487019073ffffffffffffffffffffffffffffffffffffffff6080809282815116855282602082015116602086015262ffffff6040820151166040860152606081015160020b6060860152015116910152565b8051151560a4860152602081015160c48601526040015173ffffffffffffffffffffffffffffffffffffffff1660e4850152565b6101206101048401526101248301906109b2565b03925af19283156103f8575f93610920575b61081994508360801d600f0b9184600f0b925f81126108dd575b5f8412610891575b5f811361084f575b505f831361081d575b858560405190602082015260208152610805604082610a76565b6040519182916020835260208301906109b2565b0390f35b73ffffffffffffffffffffffffffffffffffffffff806020610846965101511692511691610e71565b828080806107eb565b61088b9073ffffffffffffffffffffffffffffffffffffffff865151168373ffffffffffffffffffffffffffffffffffffffff86511691610e71565b866107e2565b6108d873ffffffffffffffffffffffffffffffffffffffff6020875101511673ffffffffffffffffffffffffffffffffffffffff855116846108d288610b67565b92610bd8565b6107da565b61091b73ffffffffffffffffffffffffffffffffffffffff8651511673ffffffffffffffffffffffffffffffffffffffff855116846108d285610b67565b6107d2565b92506020843d60201161094e575b8161093b60209383610a76565b8101031261037a576108199351926107b8565b3d915061092e565b807f08c379a0000000000000000000000000000000000000000000000000000000006064925260206004820152601960248201527f4f6e6c7920506f6f6c4d616e616765722063616e2063616c6c000000000000006044820152fd5b907fffffffffffffffffffffffffffffffffffffffffffffffffffffffffffffffe0601f602080948051918291828752018686015e5f8582860101520116010190565b6080810190811067ffffffffffffffff821117610a1157604052565b7f4e487b71000000000000000000000000000000000000000000000000000000005f52604160045260245ffd5b60a0810190811067ffffffffffffffff821117610a1157604052565b6060810190811067ffffffffffffffff821117610a1157604052565b90601f7fffffffffffffffffffffffffffffffffffffffffffffffffffffffffffffffe0910116810190811067ffffffffffffffff821117610a1157604052565b359073ffffffffffffffffffffffffffffffffffffffff8216820361037a57565b67ffffffffffffffff8111610a1157601f017fffffffffffffffffffffffffffffffffffffffffffffffffffffffffffffffe01660200190565b81601f8201121561037a57803590610b2982610ad8565b92610b376040519485610a76565b8284526020838301011161037a57815f926020809301838601378301015290565b9081602091031261037a575190565b7f80000000000000000000000000000000000000000000000000000000000000008114610b93575f0390565b7f4e487b71000000000000000000000000000000000000000000000000000000005f52601160045260245ffd5b9081602091031261037a5751801515810361037a5790565b90919073ffffffffffffffffffffffffffffffffffffffff1680610c7857505073ffffffffffffffffffffffffffffffffffffffff600460209260405194859384927f11da60b4000000000000000000000000000000000000000000000000000000008452165af180156103f857610c4d5750565b610c6e9060203d602011610c71575b610c668183610a76565b810190610b58565b50565b503d610c5c565b90929173ffffffffffffffffffffffffffffffffffffffff1691823b1561037a57604051937fa58411940000000000000000000000000000000000000000000000000000000085528260048601525a945f816024818389819bf180156103f857610e48575b5073ffffffffffffffffffffffffffffffffffffffff1684308214610dd4576020929160649160405195869485937f23b872dd000000000000000000000000000000000000000000000000000000008552600485015288602485015260448401525af18015610dc957916020918493610d9c575b505b6004604051809581937f11da60b40000000000000000000000000000000000000000000000000000000083525af1908115610d905750610c4d5750565b604051903d90823e3d90fd5b610dbb90833d8511610dc2575b610db38183610a76565b810190610bc0565b505f610d51565b503d610da9565b6040513d85823e3d90fd5b929050604460209260405194859384927fa9059cbb00000000000000000000000000000000000000000000000000000000845288600485015260248401525af18015610dc957916020918493610e2b575b50610d53565b610e4190833d8511610dc257610db38183610a76565b505f610e25565b610e559195505f90610a76565b5f9373ffffffffffffffffffffffffffffffffffffffff610cdd565b91929073ffffffffffffffffffffffffffffffffffffffff16803b1561037a575f928360649273ffffffffffffffffffffffffffffffffffffffff948560405198899788967f0b0d9c0900000000000000000000000000000000000000000000000000000000885216600487015216602485015260448401525af180156103f857610ef95750565b5f610f0391610a76565b56fea164736f6c634300081a000a000000000000000000000000c77ae1fae9bb15fdd1ea96897a12ec074fa65250",
        "nonce": "0x22",
        "chainId": "0xaa36a7"
      },
      "additionalContracts": [],
      "isFixedGasLimit": false
    },
    {
      "hash": "0xf38d33d8a1f8518534680971b319b950ccdee1fec7e6b70be7624c56e267c96a",
      "transactionType": "CALL",
      "contractName": null,
      "contractAddress": "0xfff9976782d46cc05630d1f6ebab18b2324d6b14",
      "function": "approve(address,uint256)",
      "arguments": [
        "0x32da127C61fd7D638e63e74c0dDF0FD1A05F60b4",
        "115792089237316195423570985008687907853269984665640564039457584007913129639935"
      ],
      "transaction": {
        "from": "0x63f976191f9dd75bd5b0fd81320d37fbc0d74080",
        "to": "0xfff9976782d46cc05630d1f6ebab18b2324d6b14",
        "gas": "0xfa27",
        "value": "0x0",
        "input": "0x095ea7b300000000000000000000000032da127c61fd7d638e63e74c0ddf0fd1a05f60b4ffffffffffffffffffffffffffffffffffffffffffffffffffffffffffffffff",
        "nonce": "0x23",
        "chainId": "0xaa36a7"
      },
      "additionalContracts": [],
      "isFixedGasLimit": false
    },
    {
      "hash": "0x88bf4fe03d4ea4499e5e4cd6f1bb45c309866cd3a4a6fa795469c0de3a96f85a",
      "transactionType": "CALL",
      "contractName": "SwapHelper",
      "contractAddress": "0x32da127c61fd7d638e63e74c0ddf0fd1a05f60b4",
      "function": "swap((address,address,uint24,int24,address),(bool,int256,uint160),bytes)",
      "arguments": [
        "(0x1c7D4B196Cb0C7B01d743Fbc6116a902379C7238, 0xfFf9976782d46CC05630D1f6eBAb18b2324d6B14, 3000, 60, 0x01308892b21f3E6fB6fF8e13a29D775e991D5540)",
        "(false, -1000000000000000, 1461446703485210103287273052203988822378723970341)",
        "0x"
      ],
      "transaction": {
        "from": "0x63f976191f9dd75bd5b0fd81320d37fbc0d74080",
        "to": "0x32da127c61fd7d638e63e74c0ddf0fd1a05f60b4",
        "gas": "0x24058",
        "value": "0x0",
        "input": "0xf3cd914c0000000000000000000000001c7d4b196cb0c7b01d743fbc6116a902379c7238000000000000000000000000fff9976782d46cc05630d1f6ebab18b2324d6b140000000000000000000000000000000000000000000000000000000000000bb8000000000000000000000000000000000000000000000000000000000000003c00000000000000000000000001308892b21f3e6fb6ff8e13a29d775e991d55400000000000000000000000000000000000000000000000000000000000000000fffffffffffffffffffffffffffffffffffffffffffffffffffc72815b398000000000000000000000000000fffd8963efd1fc6a506488495d951d5263988d2500000000000000000000000000000000000000000000000000000000000001200000000000000000000000000000000000000000000000000000000000000000",
        "nonce": "0x24",
        "chainId": "0xaa36a7"
      },
      "additionalContracts": [],
      "isFixedGasLimit": false
    }
  ],
  "receipts": [
    {
      "status": "0x1",
      "cumulativeGasUsed": "0xb7459b",
      "logs": [],
      "logsBloom": "0x00000000000000000000000000000000000000000000000000000000000000000000000000000000000000000000000000000000000000000000000000000000000000000000000000000000000000000000000000000000000000000000000000000000000000000000000000000000000000000000000000000000000000000000000000000000000000000000000000000000000000000000000000000000000000000000000000000000000000000000000000000000000000000000000000000000000000000000000000000000000000000000000000000000000000000000000000000000000000000000000000000000000000000000000000000000",
      "type": "0x2",
      "transactionHash": "0x88bf4fe03d4ea4499e5e4cd6f1bb45c309866cd3a4a6fa795469c0de3a96f85a",
      "transactionIndex": "0x17",
      "blockHash": "0xb7444be9b6e366117e88eead831f1dd31cc66fc7badbef7e4068e0d7319a229b",
      "blockNumber": "0x977cab",
      "gasUsed": "0xd808b",
      "effectiveGasPrice": "0x1171e2",
      "from": "0x63f976191f9dd75bd5b0fd81320d37fbc0d74080",
      "to": null,
      "contractAddress": "0x32da127c61fd7d638e63e74c0ddf0fd1a05f60b4"
    },
    {
      "status": "0x1",
      "cumulativeGasUsed": "0x126ef4f",
      "logs": [
        {
          "address": "0xfff9976782d46cc05630d1f6ebab18b2324d6b14",
          "topics": [
            "0x8c5be1e5ebec7d5bd14f71427d1e84f3dd0314c0f7b2291e5b200ac8c7c3b925",
            "0x00000000000000000000000063f976191f9dd75bd5b0fd81320d37fbc0d74080",
            "0x00000000000000000000000032da127c61fd7d638e63e74c0ddf0fd1a05f60b4"
          ],
          "data": "0xffffffffffffffffffffffffffffffffffffffffffffffffffffffffffffffff",
          "blockHash": "0xb7444be9b6e366117e88eead831f1dd31cc66fc7badbef7e4068e0d7319a229b",
          "blockNumber": "0x977cab",
          "blockTimestamp": "0x6950655c",
          "transactionHash": "0xf4767b06e947f1a2b231256e19bf393e0911543c096c957e1799a7e40d7b1a6d",
          "transactionIndex": "0x54",
          "logIndex": "0x196",
          "removed": false
        }
      ],
      "logsBloom": "0x00000000000000000000000000000000000000000000000000000000000000000000000000000000000000000000000000000000000010000000000010200000000000000000000000000000000000000000000000000000000000000000000000000000000000000000000000000000000000000000000000000000000000000040000000000000000000000000000000000000000000000000000000000000020020400000000000000000000000000000000000000000000000000000000000000000000000000003000000000000000000000000000000000000000000000010000000000000000000020000000000000000000000000000000000000000",
      "type": "0x2",
      "transactionHash": "0xf4767b06e947f1a2b231256e19bf393e0911543c096c957e1799a7e40d7b1a6d",
      "transactionIndex": "0x54",
      "blockHash": "0xb7444be9b6e366117e88eead831f1dd31cc66fc7badbef7e4068e0d7319a229b",
      "blockNumber": "0x977cab",
      "gasUsed": "0xb51c",
      "effectiveGasPrice": "0x1171e2",
      "from": "0x63f976191f9dd75bd5b0fd81320d37fbc0d74080",
      "to": "0xfff9976782d46cc05630d1f6ebab18b2324d6b14",
      "contractAddress": null
    },
    {
      "status": "0x1",
      "cumulativeGasUsed": "0x1289093",
      "logs": [
        {
          "address": "0xc77ae1fae9bb15fdd1ea96897a12ec074fa65250",
          "topics": [
            "0x40e9cecb9f5f1f1c5b9c97dec2917b7ee92e57ba5563708daca94dd84ad7112f",
            "0x3e787f8e105d15f0defa18c11b59ad8649262980b0a7f97fce2543ec171ee142",
            "0x00000000000000000000000032da127c61fd7d638e63e74c0ddf0fd1a05f60b4"
          ],
          "data": "0x0000000000000000000000000000000000000000000000000000000000000000fffffffffffffffffffffffffffffffffffffffffffffffffffc72815b3980000000000000000000000000000000000076da0680fffe160d8406c612fb1cfbda00000000000000000000000000000000000000000000000000000000000f424000000000000000000000000000000000000000000000000000000000000689010000000000000000000000000000000000000000000000000000000000000bb8",
          "blockHash": "0xb7444be9b6e366117e88eead831f1dd31cc66fc7badbef7e4068e0d7319a229b",
          "blockNumber": "0x977cab",
          "blockTimestamp": "0x6950655c",
          "transactionHash": "0xf38d33d8a1f8518534680971b319b950ccdee1fec7e6b70be7624c56e267c96a",
          "transactionIndex": "0x55",
          "logIndex": "0x197",
          "removed": false
        },
        {
          "address": "0xfff9976782d46cc05630d1f6ebab18b2324d6b14",
          "topics": [
            "0xddf252ad1be2c89b69c2b068fc378daa952ba7f163c4a11628f55a4df523b3ef",
            "0x00000000000000000000000063f976191f9dd75bd5b0fd81320d37fbc0d74080",
            "0x000000000000000000000000c77ae1fae9bb15fdd1ea96897a12ec074fa65250"
          ],
          "data": "0x00000000000000000000000000000000000000000000000000038d7ea4c68000",
          "blockHash": "0xb7444be9b6e366117e88eead831f1dd31cc66fc7badbef7e4068e0d7319a229b",
          "blockNumber": "0x977cab",
          "blockTimestamp": "0x6950655c",
          "transactionHash": "0xf38d33d8a1f8518534680971b319b950ccdee1fec7e6b70be7624c56e267c96a",
          "transactionIndex": "0x55",
          "logIndex": "0x198",
          "removed": false
        }
      ],
      "logsBloom": "0x00000000040000000000000000000000000000000000000000000000000000000000000000000000000000000000000000000000040010000000000010200000200000000000000000000008001000100000008000000020000000000000000000000000000000000000000000000000000000000000000000000010000000000040000000000000000000400000000000000000000000000000000000000000000020400000000000004000000000000000000000000000000000000000000000000002000000000003000000000000000000000000000000000000000000000000000000000000004000060000000000000000000000000000000000000400",
      "type": "0x2",
      "transactionHash": "0xf38d33d8a1f8518534680971b319b950ccdee1fec7e6b70be7624c56e267c96a",
      "transactionIndex": "0x55",
      "blockHash": "0xb7444be9b6e366117e88eead831f1dd31cc66fc7badbef7e4068e0d7319a229b",
      "blockNumber": "0x977cab",
      "gasUsed": "0x1a144",
      "effectiveGasPrice": "0x1171e2",
      "from": "0x63f976191f9dd75bd5b0fd81320d37fbc0d74080",
      "to": "0x32da127c61fd7d638e63e74c0ddf0fd1a05f60b4",
      "contractAddress": null
    }
  ],
  "libraries": [],
  "pending": [],
  "returns": {},
  "timestamp": 1766876509477,
  "chain": 11155111,
  "commit": "c0a531b"
}