{
  "transactions": [
    {
      "hash": "0x8451d2db2d5d11271e1abf5ca0863e30055d323e4b7fc7f0e33ec5b74a70dff9",
      "transactionType": "CALL",
      "contractName": null,
      "contractAddress": "0xfff9976782d46cc05630d1f6ebab18b2324d6b14",
      "function": "withdraw(uint256)",
      "arguments": [
        "5190786010912033"
      ],
      "transaction": {
        "from": "0x63f976191f9dd75bd5b0fd81320d37fbc0d74080",
        "to": "0xfff9976782d46cc05630d1f6ebab18b2324d6b14",
        "gas": "0xa41c",
        "value": "0x0",
        "input": "0x2e1a7d4d000000000000000000000000000000000000000000000000001270fe0c491521",
        "nonce": "0x103",
        "chainId": "0xaa36a7"
      },
      "additionalContracts": [],
      "isFixedGasLimit": false
    }
  ],
  "receipts": [
    {
      "status": "0x1",
      "cumulativeGasUsed": "0x76888b",
      "logs": [
        {
          "address": "0xfff9976782d46cc05630d1f6ebab18b2324d6b14",
          "topics": [
            "0x7fcf532c15f0a6db0bd6d0e038bea71d30d808c7d98cb3bf7268a95bf5081b65",
            "0x00000000000000000000000063f976191f9dd75bd5b0fd81320d37fbc0d74080"
          ],
          "data": "0x000000000000000000000000000000000000000000000000001270fe0c491521",
          "blockHash": "0x832cd4c768d3af8952ef8236166edb6941a10a877e433770076ab6d88d589854",
          "blockNumber": "0x984542",
          "blockTimestamp": "0x695ab550",
          "transactionHash": "0x8451d2db2d5d11271e1abf5ca0863e30055d323e4b7fc7f0e33ec5b74a70dff9",
          "transactionIndex": "0x32",
          "logIndex": "0x6d",
          "removed": false
        }
      ],
      "logsBloom": "0x00000000000000000000000000000000000000000000000000000000000000000000000000000000000000000000000000000000000010000000000000000000000000000000000000000000000000000000000000400000000000000000000000000000000000000000000000000000000000000000040000000000000000000040000000000000000000000000000000000000000000000000000000000000000020400000000000000000000000000000000000000000000000000000000000000000000000000002000000000000000000000000000000000002000000000000000000000000000000020000000000000000000000000000000000000000",
      "type": "0x2",
      "transactionHash": "0x8451d2db2d5d11271e1abf5ca0863e30055d323e4b7fc7f0e33ec5b74a70dff9",
      "transactionIndex": "0x32",
      "blockHash": "0x832cd4c768d3af8952ef8236166edb6941a10a877e433770076ab6d88d589854",
      "blockNumber": "0x984542",
      "gasUsed": "0x76d0",
      "effectiveGasPrice": "0x106741",
      "from": "0x63f976191f9dd75bd5b0fd81320d37fbc0d74080",
      "to": "0xfff9976782d46cc05630d1f6ebab18b2324d6b14",
      "contractAddress": null
    }
  ],
  "libraries": [],
  "pending": [],
  "returns": {},
  "timestamp": 1767552336838,
  "chain": 11155111,
  "commit": "85a9738"
}