{
  "transactions": [
    {
      "hash": "0xb93acd9bde6dec8898920bd5d26a23f433f825b66d43ef74906829fb2163c969",
      "transactionType": "CALL",
      "contractName": null,
      "contractAddress": "0xc77ae1fae9bb15fdd1ea96897a12ec074fa65250",
      "function": "initialize((address,address,uint24,int24,address),uint160)",
      "arguments": [
        "(0x1c7D4B196Cb0C7B01d743Fbc6116a902379C7238, 0xfFf9976782d46CC05630D1f6eBAb18b2324d6B14, 3000, 60, 0xEaF32b3657427a3796928035d6B2DBb28C355540)",
        "79228162514264337593543950336"
      ],
      "transaction": {
        "from": "0x63f976191f9dd75bd5b0fd81320d37fbc0d74080",
        "to": "0xc77ae1fae9bb15fdd1ea96897a12ec074fa65250",
        "gas": "0x1a854",
        "value": "0x0",
        "input": "0x6276cbbe0000000000000000000000001c7d4b196cb0c7b01d743fbc6116a902379c7238000000000000000000000000fff9976782d46cc05630d1f6ebab18b2324d6b140000000000000000000000000000000000000000000000000000000000000bb8000000000000000000000000000000000000000000000000000000000000003c000000000000000000000000eaf32b3657427a3796928035d6b2dbb28c3555400000000000000000000000000000000000000001000000000000000000000000",
        "nonce": "0x34",
        "chainId": "0xaa36a7"
      },
      "additionalContracts": [],
      "isFixedGasLimit": false
    }
  ],
  "receipts": [
    {
      "status": "0x1",
      "cumulativeGasUsed": "0xac7a2f",
      "logs": [
        {
          "address": "0xc77ae1fae9bb15fdd1ea96897a12ec074fa65250",
          "topics": [
            "0xdd466e674ea557f56295e2d0218a125ea4b4f0f6f3307b95f85e6110838d6438",
            "0x2b1b07dc2271486c8d5d31d927ee536709c8f03063a039c791e9aa0e4dc5d0ba",
            "0x0000000000000000000000001c7d4b196cb0c7b01d743fbc6116a902379c7238",
            "0x000000000000000000000000fff9976782d46cc05630d1f6ebab18b2324d6b14"
          ],
          "data": "0x0000000000000000000000000000000000000000000000000000000000000bb8000000000000000000000000000000000000000000000000000000000000003c000000000000000000000000eaf32b3657427a3796928035d6b2dbb28c35554000000000000000000000000000000000000000010000000000000000000000000000000000000000000000000000000000000000000000000000000000000000",
          "blockHash": "0x9b5b6216b39323f852d51073d9a4a8692c57807858d985ff0b3f595ada1af39a",
          "blockNumber": "0x977f1b",
          "blockTimestamp": "0x6950850c",
          "transactionHash": "0xb93acd9bde6dec8898920bd5d26a23f433f825b66d43ef74906829fb2163c969",
          "transactionIndex": "0x40",
          "logIndex": "0x165",
          "removed": false
        }
      ],
      "logsBloom": "0x00000000001000000000000000000000000000000000000000200000000000000000000000000000000000000000000000000800000004000000000000000000100000000000000000000000000000000000008000000000000000000000000000000000000000000000000000000000000000000000000000000000000000000000000000000008000000400000000000000001000000000000002000200000000000000000000000004000000000000000008000000000000000000000000000000000000000000000000001000000000000000000000000000000000000000001000000000000000000000000000000000000000000000000000000000000",
      "type": "0x2",
      "transactionHash": "0xb93acd9bde6dec8898920bd5d26a23f433f825b66d43ef74906829fb2163c969",
      "transactionIndex": "0x40",
      "blockHash": "0x9b5b6216b39323f852d51073d9a4a8692c57807858d985ff0b3f595ada1af39a",
      "blockNumber": "0x977f1b",
      "gasUsed": "0x13335",
      "effectiveGasPrice": "0x13d892",
      "from": "0x63f976191f9dd75bd5b0fd81320d37fbc0d74080",
      "to": "0xc77ae1fae9bb15fdd1ea96897a12ec074fa65250",
      "contractAddress": null
    }
  ],
  "libraries": [],
  "pending": [],
  "returns": {},
  "timestamp": 1766884621349,
  "chain": 11155111,
  "commit": "85a9738"
}