{
  "transactions": [
    {
      "hash": "0xe881cbb8229a3302f621e27c49a404d9611a83c34aeaedf7cca26843359ebd26",
      "transactionType": "CALL",
      "contractName": null,
      "contractAddress": "0xc77ae1fae9bb15fdd1ea96897a12ec074fa65250",
      "function": "initialize((address,address,uint24,int24,address),uint160)",
      "arguments": [
        "(0x1c7D4B196Cb0C7B01d743Fbc6116a902379C7238, 0xfFf9976782d46CC05630D1f6eBAb18b2324d6B14, 3000, 60, 0xAc739f2F5c72C80a4491cf273308C3D94F00D540)",
        "79228162514264337593543950336"
      ],
      "transaction": {
        "from": "0x63f976191f9dd75bd5b0fd81320d37fbc0d74080",
        "to": "0xc77ae1fae9bb15fdd1ea96897a12ec074fa65250",
        "gas": "0x1c138",
        "value": "0x0",
        "input": "0x6276cbbe0000000000000000000000001c7d4b196cb0c7b01d743fbc6116a902379c7238000000000000000000000000fff9976782d46cc05630d1f6ebab18b2324d6b140000000000000000000000000000000000000000000000000000000000000bb8000000000000000000000000000000000000000000000000000000000000003c000000000000000000000000ac739f2f5c72c80a4491cf273308c3d94f00d5400000000000000000000000000000000000000001000000000000000000000000",
        "nonce": "0x93",
        "chainId": "0xaa36a7"
      },
      "additionalContracts": [],
      "isFixedGasLimit": false
    }
  ],
  "receipts": [
    {
      "status": "0x1",
      "cumulativeGasUsed": "0x1017b4b",
      "logs": [
        {
          "address": "0xc77ae1fae9bb15fdd1ea96897a12ec074fa65250",
          "topics": [
            "0xdd466e674ea557f56295e2d0218a125ea4b4f0f6f3307b95f85e6110838d6438",
            "0x654245e83aa2a8b86fc390e45cb0565c2150f8ed606ea40f36d678228dbf2745",
            "0x0000000000000000000000001c7d4b196cb0c7b01d743fbc6116a902379c7238",
            "0x000000000000000000000000fff9976782d46cc05630d1f6ebab18b2324d6b14"
          ],
          "data": "0x0000000000000000000000000000000000000000000000000000000000000bb8000000000000000000000000000000000000000000000000000000000000003c000000000000000000000000ac739f2f5c72c80a4491cf273308c3d94f00d54000000000000000000000000000000000000000010000000000000000000000000000000000000000000000000000000000000000000000000000000000000000",
          "blockHash": "0x3935ff2b7abe118cf57b094af045a6b2dd82948bfe58b60c8da11ba7b90759b2",
          "blockNumber": "0x97a8d4",
          "blockTimestamp": "0x695298d8",
          "transactionHash": "0xe881cbb8229a3302f621e27c49a404d9611a83c34aeaedf7cca26843359ebd26",
          "transactionIndex": "0x66",
          "logIndex": "0x1ab",
          "removed": false
        }
      ],
      "logsBloom": "0x00000001001000000000000000000040000000000000000000000000000000000000000000000000000000000000000000000800000004000000000000000000100000000000000000000000000000080000008000000000000000000000000000000000000000000000000000000000000000000000000000000000000000000000000000000008000000400000000000000001000000000000000000200000000000000000000000004000000000000000008000000000000000000000000000000000000000000000000001000000000000000000000000000000000000000000000000000000000000000000000000000000000000000000000000000000",
      "type": "0x2",
      "transactionHash": "0xe881cbb8229a3302f621e27c49a404d9611a83c34aeaedf7cca26843359ebd26",
      "transactionIndex": "0x66",
      "blockHash": "0x3935ff2b7abe118cf57b094af045a6b2dd82948bfe58b60c8da11ba7b90759b2",
      "blockNumber": "0x97a8d4",
      "gasUsed": "0x13329",
      "effectiveGasPrice": "0x11e825",
      "from": "0x63f976191f9dd75bd5b0fd81320d37fbc0d74080",
      "to": "0xc77ae1fae9bb15fdd1ea96897a12ec074fa65250",
      "contractAddress": null
    }
  ],
  "libraries": [],
  "pending": [],
  "returns": {},
  "timestamp": 1767020762832,
  "chain": 11155111,
  "commit": "85a9738"
}