{
  "transactions": [
    {
      "hash": "0xf93db622b8a160218eca8cc05af5ac4d15604abeae554cb85161c8eabc9697de",
      "transactionType": "CALL",
      "contractName": null,
      "contractAddress": "0xc77ae1fae9bb15fdd1ea96897a12ec074fa65250",
      "function": "initialize((address,address,uint24,int24,address),uint160)",
      "arguments": [
        "(0x1c7D4B196Cb0C7B01d743Fbc6116a902379C7238, 0xfFf9976782d46CC05630D1f6eBAb18b2324d6B14, 3000, 60, 0x7BC9dDcbE9F25A249Ac4c07a6d86616E78E45540)",
        "79228162514264337593543950336"
      ],
      "transaction": {
        "from": "0x63f976191f9dd75bd5b0fd81320d37fbc0d74080",
        "to": "0xc77ae1fae9bb15fdd1ea96897a12ec074fa65250",
        "gas": "0x13a83",
        "value": "0x0",
        "input": "0x6276cbbe0000000000000000000000001c7d4b196cb0c7b01d743fbc6116a902379c7238000000000000000000000000fff9976782d46cc05630d1f6ebab18b2324d6b140000000000000000000000000000000000000000000000000000000000000bb8000000000000000000000000000000000000000000000000000000000000003c0000000000000000000000007bc9ddcbe9f25a249ac4c07a6d86616e78e455400000000000000000000000000000000000000001000000000000000000000000",
        "nonce": "0x6",
        "chainId": "0xaa36a7"
      },
      "additionalContracts": [],
      "isFixedGasLimit": false
    }
  ],
  "receipts": [
    {
      "status": "0x1",
      "cumulativeGasUsed": "0x9ad45a",
      "logs": [
        {
          "address": "0xc77ae1fae9bb15fdd1ea96897a12ec074fa65250",
          "topics": [
            "0xdd466e674ea557f56295e2d0218a125ea4b4f0f6f3307b95f85e6110838d6438",
            "0x0046450f30aabd4bbadd8a5d6ea7757aa0e0f9416d1026664c81e1cfb7bb2a4d",
            "0x0000000000000000000000001c7d4b196cb0c7b01d743fbc6116a902379c7238",
            "0x000000000000000000000000fff9976782d46cc05630d1f6ebab18b2324d6b14"
          ],
          "data": "0x0000000000000000000000000000000000000000000000000000000000000bb8000000000000000000000000000000000000000000000000000000000000003c0000000000000000000000007bc9ddcbe9f25a249ac4c07a6d86616e78e4554000000000000000000000000000000000000000010000000000000000000000000000000000000000000000000000000000000000000000000000000000000000",
          "blockHash": "0xbecd5087d84d88c961c32f3511465dc9e4ff1d6d503ac3b7c72f781c3b91d4c1",
          "blockNumber": "0x977647",
          "blockTimestamp": "0x695013b4",
          "transactionHash": "0xf93db622b8a160218eca8cc05af5ac4d15604abeae554cb85161c8eabc9697de",
          "transactionIndex": "0x2b",
          "logIndex": "0x54",
          "removed": false
        }
      ],
      "logsBloom": "0x00000000001000000000000000000000000000000000000000000000000000000000000000000000000000000000000000000800000004000000000000000000100000000000000080000000000000000000008000000000000000000000000000000000000000000000000000000000000000000000000000000000000000000000000000000008000000400000000000000001000000000000000000200000000000000000000000004000000000000000008000000000000000000000000000000000000000000000000001000000000000000000000000000000080000000000000000000000000000200000000000000000000000000000000000000000",
      "type": "0x2",
      "transactionHash": "0xf93db622b8a160218eca8cc05af5ac4d15604abeae554cb85161c8eabc9697de",
      "transactionIndex": "0x2b",
      "blockHash": "0xbecd5087d84d88c961c32f3511465dc9e4ff1d6d503ac3b7c72f781c3b91d4c1",
      "blockNumber": "0x977647",
      "gasUsed": "0xe3b4",
      "effectiveGasPrice": "0x15f6c17",
      "from": "0x63f976191f9dd75bd5b0fd81320d37fbc0d74080",
      "to": "0xc77ae1fae9bb15fdd1ea96897a12ec074fa65250",
      "contractAddress": null
    }
  ],
  "libraries": [],
  "pending": [],
  "returns": {},
  "timestamp": 1766855605735,
  "chain": 11155111,
  "commit": "90ffcf9"
}