{
  "transactions": [
    {
      "hash": "0x8bed5622d5b30e41f1d934c7c7d30f788795a17d62e604128ccd76f6f4862094",
      "transactionType": "CALL",
      "contractName": null,
      "contractAddress": "0xc77ae1fae9bb15fdd1ea96897a12ec074fa65250",
      "function": "initialize((address,address,uint24,int24,address),uint160)",
      "arguments": [
        "(0x1c7D4B196Cb0C7B01d743Fbc6116a902379C7238, 0xfFf9976782d46CC05630D1f6eBAb18b2324d6B14, 3000, 60, 0x01308892b21f3E6fB6fF8e13a29D775e991D5540)",
        "79228162514264337593543950336"
      ],
      "transaction": {
        "from": "0x63f976191f9dd75bd5b0fd81320d37fbc0d74080",
        "to": "0xc77ae1fae9bb15fdd1ea96897a12ec074fa65250",
        "gas": "0x1a854",
        "value": "0x0",
        "input": "0x6276cbbe0000000000000000000000001c7d4b196cb0c7b01d743fbc6116a902379c7238000000000000000000000000fff9976782d46cc05630d1f6ebab18b2324d6b140000000000000000000000000000000000000000000000000000000000000bb8000000000000000000000000000000000000000000000000000000000000003c00000000000000000000000001308892b21f3e6fb6ff8e13a29d775e991d55400000000000000000000000000000000000000001000000000000000000000000",
        "nonce": "0x17",
        "chainId": "0xaa36a7"
      },
      "additionalContracts": [],
      "isFixedGasLimit": false
    }
  ],
  "receipts": [
    {
      "status": "0x1",
      "cumulativeGasUsed": "0x881fca",
      "logs": [
        {
          "address": "0xc77ae1fae9bb15fdd1ea96897a12ec074fa65250",
          "topics": [
            "0xdd466e674ea557f56295e2d0218a125ea4b4f0f6f3307b95f85e6110838d6438",
            "0x3e787f8e105d15f0defa18c11b59ad8649262980b0a7f97fce2543ec171ee142",
            "0x0000000000000000000000001c7d4b196cb0c7b01d743fbc6116a902379c7238",
            "0x000000000000000000000000fff9976782d46cc05630d1f6ebab18b2324d6b14"
          ],
          "data": "0x0000000000000000000000000000000000000000000000000000000000000bb8000000000000000000000000000000000000000000000000000000000000003c00000000000000000000000001308892b21f3e6fb6ff8e13a29d775e991d554000000000000000000000000000000000000000010000000000000000000000000000000000000000000000000000000000000000000000000000000000000000",
          "blockHash": "0x5a7776581cafb98298b56623d7ff2107cd7f1fe31768083e7f6f37d6ca29a7ab",
          "blockNumber": "0x977c8c",
          "blockTimestamp": "0x695063b8",
          "transactionHash": "0x8bed5622d5b30e41f1d934c7c7d30f788795a17d62e604128ccd76f6f4862094",
          "transactionIndex": "0x36",
          "logIndex": "0x12a",
          "removed": false
        }
      ],
      "logsBloom": "0x00000000001000000000000000000000000000000000000000000000000000000000000000000000000000000000000000000800000004000000000000000000300000000000000000000000001000100000008000000000000000000000000000000000000000000000000000000000000000000000000000000000000000000000000000000008000000400000000000000001000000000000000000200000000000000000000000004000000000000000008000000000000000000000000000000000000000000000000001000000000000000000000000000000000000000000000000000000000000000000000000000000000000000000000000000000",
      "type": "0x2",
      "transactionHash": "0x8bed5622d5b30e41f1d934c7c7d30f788795a17d62e604128ccd76f6f4862094",
      "transactionIndex": "0x36",
      "blockHash": "0x5a7776581cafb98298b56623d7ff2107cd7f1fe31768083e7f6f37d6ca29a7ab",
      "blockNumber": "0x977c8c",
      "gasUsed": "0x13335",
      "effectiveGasPrice": "0x18cbb1",
      "from": "0x63f976191f9dd75bd5b0fd81320d37fbc0d74080",
      "to": "0xc77ae1fae9bb15fdd1ea96897a12ec074fa65250",
      "contractAddress": null
    }
  ],
  "libraries": [],
  "pending": [],
  "returns": {},
  "timestamp": 1766876088681,
  "chain": 11155111,
  "commit": "c0a531b"
}