{
  "transactions": [
    {
      "hash": "0xe81a8a5e51c8c3e142fb255a02fc08079b2bb994b1c5a3c2b1ac547ba1dd1a53",
      "transactionType": "CREATE",
      "contractName": "CompoundHelper",
      "contractAddress": "0xfc1dde031037c4b505379996fe2670ef7aaf2d30",
      "function": null,
      "arguments": [
        "0x76E9E1AFFDe82bb4544cE95EA58fFc2f9D45061f",
        "0x5C13377F19B9AEB3CB00Fcc8E58e9A2B43889540"
      ],
      "transaction": {
        "from": "0x63f976191f9dd75bd5b0fd81320d37fbc0d74080",
        "gas": "0x15ef23",
        "value": "0x0",
        "input": "0x60e0346100d757601f61140b38819003918201601f19168301916001600160401b038311848410176100db5780849260409485528339810103126100d7578051906001600160a01b03821682036100d75760200151906001600160a01b03821682036100d75760805260a0523360c05260405161131b90816100f08239608051818181609b015281816101a00152610a4b015260a0518181816104f3015281816107cb0152610af2015260c05181818161010d015281816104200152818161045d01528181610639015281816106a901526109470152f35b5f80fd5b634e487b7160e01b5f52604160045260245ffdfe60806040526004361015610011575f80fd5b5f803560e01c80631cd62537146107ef5780637f5a7c7b1461078057806391dd734614610131578063d5f39488146100c25763dc4c90d314610051575f80fd5b346100bf57807ffffffffffffffffffffffffffffffffffffffffffffffffffffffffffffffffc3601126100bf57602060405173ffffffffffffffffffffffffffffffffffffffff7f0000000000000000000000000000000000000000000000000000000000000000168152f35b80fd5b50346100bf57807ffffffffffffffffffffffffffffffffffffffffffffffffffffffffffffffffc3601126100bf57602060405173ffffffffffffffffffffffffffffffffffffffff7f0000000000000000000000000000000000000000000000000000000000000000168152f35b50346100bf5760207ffffffffffffffffffffffffffffffffffffffffffffffffffffffffffffffffc3601126100bf5760043567ffffffffffffffff81116105fb57366023820112156105fb57806004013567ffffffffffffffff811161071a57810136602482011161071a577f00000000000000000000000000000000000000000000000000000000000000009073ffffffffffffffffffffffffffffffffffffffff8216908133036107225784916101608583031261071a57604051916101f983610ead565b60a08682031261060a576040519061021082610ec9565b61021c60248801610f26565b825261022a60448801610f26565b6020830152606487013562ffffff8116810361071e57604083015261025160848801610f47565b606083015260a48701359173ffffffffffffffffffffffffffffffffffffffff8316830361071e578760249282608095867fffffffffffffffffffffffffffffffffffffffffffffffffffffffffffffff3c95015287520301011261071a57610396610164604092818451986102c68a610ead565b6102d260c48201610f47565b8a526102e060e48201610f47565b60208b0152610104810135868b015261012481013560608b01528960208801526101448101358688015201356060860152858551916103c486519a8b9687957f5a6bcfda000000000000000000000000000000000000000000000000000000008752600487019073ffffffffffffffffffffffffffffffffffffffff6080809282815116855282602082015116602086015262ffffff6040820151166040860152606081015160020b6060860152015116910152565b8051600290810b60a48701526020820151900b60c4860152604081015160e486015260600151610104850152565b610140610124840152816101448401525af192831561070f57829483946106d4575b508460801d600f0b85600f0b908481125f1461067b576104459073ffffffffffffffffffffffffffffffffffffffff8551511690860390847f000000000000000000000000000000000000000000000000000000000000000091611080565b8381121561061e5782516020015161049892918503917f00000000000000000000000000000000000000000000000000000000000000009173ffffffffffffffffffffffffffffffffffffffff16611080565b8260801d8281600f0b135f14610616576fffffffffffffffffffffffffffffffff16925b8281600f0b135f1461060e576fffffffffffffffffffffffffffffffff16905b73ffffffffffffffffffffffffffffffffffffffff7f0000000000000000000000000000000000000000000000000000000000000000169051813b1561060a578360e4926105a39460405197889687957fa22092e7000000000000000000000000000000000000000000000000000000008752600487019073ffffffffffffffffffffffffffffffffffffffff6080809282815116855282602082015116602086015262ffffff6040820151166040860152606081015160020b6060860152015116910152565b60a485015260c48401525af180156105ff576105e6575b6105e282604051906020820152602081526105d6604082610ee5565b60405191829182610f55565b0390f35b6105f1838092610ee5565b6105fb57816105ba565b5080fd5b6040513d85823e3d90fd5b8380fd5b5081906104dc565b5081926104bc565b83811361062d575b5050610498565b825160200151610674927f00000000000000000000000000000000000000000000000000000000000000009173ffffffffffffffffffffffffffffffffffffffff16610fc5565b5f80610626565b848113610689575b50610445565b6106ce9073ffffffffffffffffffffffffffffffffffffffff85515116847f000000000000000000000000000000000000000000000000000000000000000091610fc5565b5f610683565b945092506040843d604011610707575b816106f160409383610ee5565b810103126105fb5760208451940151925f6103e6565b3d91506106e4565b6040513d84823e3d90fd5b8280fd5b8580fd5b60646040517f08c379a000000000000000000000000000000000000000000000000000000000815260206004820152601960248201527f4f6e6c7920506f6f6c4d616e616765722063616e2063616c6c000000000000006044820152fd5b50346100bf57807ffffffffffffffffffffffffffffffffffffffffffffffffffffffffffffffffc3601126100bf57602060405173ffffffffffffffffffffffffffffffffffffffff7f0000000000000000000000000000000000000000000000000000000000000000168152f35b34610ca7577ffffffffffffffffffffffffffffffffffffffffffffffffffffffffffffffffc36016101608112610ca75760a013610ca75760405161083381610ec9565b60043573ffffffffffffffffffffffffffffffffffffffff81168103610ca757815260243573ffffffffffffffffffffffffffffffffffffffff81168103610ca7576020820190815260443562ffffff81168103610ca75760408301526064358060020b8103610ca757606083015260843573ffffffffffffffffffffffffffffffffffffffff81168103610ca757608083015260807fffffffffffffffffffffffffffffffffffffffffffffffffffffffffffffff5c360112610ca757604051916108fe83610ead565b60a4358060020b8103610ca757835260c4358060020b8103610ca757602084015260e435604084015261010435606084015273ffffffffffffffffffffffffffffffffffffffff7f0000000000000000000000000000000000000000000000000000000000000000163303610e4f5760405161097981610ead565b81815260208101938452606060408201916101243583520190610144358252610a26604051956109f6602088018673ffffffffffffffffffffffffffffffffffffffff6080809282815116855282602082015116602086015262ffffff6040820151166040860152606081015160020b6060860152015116910152565b518051600290810b60c08901526020820151900b60e0880152604081015161010088015260600151610120870152565b51610140850152516101608401526101608352610a4561018084610ee5565b610a9e5f7f000000000000000000000000000000000000000000000000000000000000000094604051809381927f48c8949100000000000000000000000000000000000000000000000000000000835260048301610f55565b03818373ffffffffffffffffffffffffffffffffffffffff89165af1908115610c9c575f91610d7a575b50602081805181010312610ca757602001519173ffffffffffffffffffffffffffffffffffffffff7f000000000000000000000000000000000000000000000000000000000000000016936040517fca7ce2bf000000000000000000000000000000000000000000000000000000008152602081600481895afa908115610c9c575f91610d5b575b50604051907f541e63a80000000000000000000000000000000000000000000000000000000082526020826004818a5afa918215610c9c575f92610d18575b506fffffffffffffffffffffffffffffffff16801580158091610cfd575b610bbd575b602087604051908152f35b916fffffffffffffffffffffffffffffffff918893610cd4575b50169182610cab575b509150503b15610ca757610c7160a45f928360405196879485937f701f4f57000000000000000000000000000000000000000000000000000000008552600485019073ffffffffffffffffffffffffffffffffffffffff6080809282815116855282602082015116602086015262ffffff6040820151166040860152606081015160020b6060860152015116910152565b5af1918215610c9c57602092610c8c575b8080808080610bb2565b5f610c9691610ee5565b5f610c82565b6040513d5f823e3d90fd5b5f80fd5b73ffffffffffffffffffffffffffffffffffffffff610ccb945116610fc5565b83808481610be0565b610cf790848673ffffffffffffffffffffffffffffffffffffffff8a5116610fc5565b88610bd7565b506fffffffffffffffffffffffffffffffff83161515610bad565b6fffffffffffffffffffffffffffffffff919250610d4d9060203d602011610d54575b610d458183610ee5565b810190610f9d565b9190610b8f565b503d610d3b565b610d74915060203d602011610d5457610d458183610ee5565b86610b50565b90503d805f833e610d8b8183610ee5565b810190602081830312610ca75780519067ffffffffffffffff8211610ca7570181601f82011215610ca75780519067ffffffffffffffff8211610e225760405192610dfe60207fffffffffffffffffffffffffffffffffffffffffffffffffffffffffffffffe0601f8601160185610ee5565b82845260208383010111610ca757815f9260208093018386015e8301015284610ac8565b7f4e487b71000000000000000000000000000000000000000000000000000000005f52604160045260245ffd5b60646040517f08c379a000000000000000000000000000000000000000000000000000000000815260206004820152601660248201527f4f6e6c79206465706c6f7965722063616e2063616c6c000000000000000000006044820152fd5b6080810190811067ffffffffffffffff821117610e2257604052565b60a0810190811067ffffffffffffffff821117610e2257604052565b90601f7fffffffffffffffffffffffffffffffffffffffffffffffffffffffffffffffe0910116810190811067ffffffffffffffff821117610e2257604052565b359073ffffffffffffffffffffffffffffffffffffffff82168203610ca757565b35908160020b8203610ca757565b7fffffffffffffffffffffffffffffffffffffffffffffffffffffffffffffffe0601f602060409481855280519182918282880152018686015e5f8582860101520116010190565b90816020910312610ca757516fffffffffffffffffffffffffffffffff81168103610ca75790565b91929073ffffffffffffffffffffffffffffffffffffffff16803b15610ca7575f928360649273ffffffffffffffffffffffffffffffffffffffff948560405198899788967f0b0d9c0900000000000000000000000000000000000000000000000000000000885216600487015216602485015260448401525af18015610c9c5761104d5750565b5f61105791610ee5565b565b90816020910312610ca757518015158103610ca75790565b90816020910312610ca7575190565b90919073ffffffffffffffffffffffffffffffffffffffff168061112057505073ffffffffffffffffffffffffffffffffffffffff600460209260405194859384927f11da60b4000000000000000000000000000000000000000000000000000000008452165af18015610c9c576110f55750565b6111169060203d602011611119575b61110e8183610ee5565b810190611071565b50565b503d611104565b90929173ffffffffffffffffffffffffffffffffffffffff1691823b15610ca757604051937fa58411940000000000000000000000000000000000000000000000000000000085528260048601525a945f816024818389819bf18015610c9c576112e5575b5073ffffffffffffffffffffffffffffffffffffffff1684308214611271576020929160649160405195869485937f23b872dd000000000000000000000000000000000000000000000000000000008552600485015288602485015260448401525af180156105ff57916020918493611244575b505b6004604051809581937f11da60b40000000000000000000000000000000000000000000000000000000083525af190811561123857506110f55750565b604051903d90823e3d90fd5b61126390833d851161126a575b61125b8183610ee5565b810190611059565b505f6111f9565b503d611251565b929050604460209260405194859384927fa9059cbb00000000000000000000000000000000000000000000000000000000845288600485015260248401525af180156105ff579160209184936112c8575b506111fb565b6112de90833d851161126a5761125b8183610ee5565b505f6112c2565b6112f29195505f90610ee5565b5f9373ffffffffffffffffffffffffffffffffffffffff61118556fea164736f6c634300081a000a00000000000000000000000076e9e1affde82bb4544ce95ea58ffc2f9d45061f0000000000000000000000005c13377f19b9aeb3cb00fcc8e58e9a2b43889540",
        "nonce": "0xf10",
        "chainId": "0xaa36a7"
      },
      "additionalContracts": [],
      "isFixedGasLimit": false
    },
    {
      "hash": "0xbe2a67fa17df0bfe4a68992d67c2edbbf13eb7b2b3f4aaa8d8c43f1d8f67dfb2",
      "transactionType": "CALL",
      "contractName": null,
      "contractAddress": "0x1c7d4b196cb0c7b01d743fbc6116a902379c7238",
      "function": "approve(address,uint256)",
      "arguments": [
        "0xfc1DDe031037C4B505379996FE2670ef7Aaf2D30",
        "115792089237316195423570985008687907853269984665640564039457584007913129639935"
      ],
      "transaction": {
        "from": "0x63f976191f9dd75bd5b0fd81320d37fbc0d74080",
        "to": "0x1c7d4b196cb0c7b01d743fbc6116a902379c7238",
        "gas": "0x13eb1",
        "value": "0x0",
        "input": "0x095ea7b3000000000000000000000000fc1dde031037c4b505379996fe2670ef7aaf2d30ffffffffffffffffffffffffffffffffffffffffffffffffffffffffffffffff",
        "nonce": "0xf11",
        "chainId": "0xaa36a7"
      },
      "additionalContracts": [],
      "isFixedGasLimit": false
    },
    {
      "hash": "0xe6b841d4a86343b47e2695868218d65f7a2220a16f7ae29f7e4e097f6ad75a24",
      "transactionType": "CALL",
      "contractName": null,
      "contractAddress": "0xfff9976782d46cc05630d1f6ebab18b2324d6b14",
      "function": "approve(address,uint256)",
      "arguments": [
        "0xfc1DDe031037C4B505379996FE2670ef7Aaf2D30",
        "115792089237316195423570985008687907853269984665640564039457584007913129639935"
      ],
      "transaction": {
        "from": "0x63f976191f9dd75bd5b0fd81320d37fbc0d74080",
        "to": "0xfff9976782d46cc05630d1f6ebab18b2324d6b14",
        "gas": "0xfa27",
        "value": "0x0",
        "input": "0x095ea7b3000000000000000000000000fc1dde031037c4b505379996fe2670ef7aaf2d30ffffffffffffffffffffffffffffffffffffffffffffffffffffffffffffffff",
        "nonce": "0xf12",
        "chainId": "0xaa36a7"
      },
      "additionalContracts": [],
      "isFixedGasLimit": false
    },
    {
      "hash": "0x97578f0b6f07d0a0b812a15259be47125f2fe4f1795fc3ede90598513175a603",
      "transactionType": "CALL",
      "contractName": "CompoundHelper",
      "contractAddress": "0xfc1dde031037c4b505379996fe2670ef7aaf2d30",
      "function": "executeCompound((address,address,uint24,int24,address),(int24,int24,int256,bytes32),uint256,uint256)",
      "arguments": [
        "(0x1c7D4B196Cb0C7B01d743Fbc6116a902379C7238, 0xfFf9976782d46CC05630D1f6eBAb18b2324d6B14, 3000, 60, 0x5C13377F19B9AEB3CB00Fcc8E58e9A2B43889540)",
        "(659940, 779940, 1, 0x0000000000000000000000000000000000000000000000000000000000000000)",
        "30000",
        "180000000000000"
      ],
      "transaction": {
        "from": "0x63f976191f9dd75bd5b0fd81320d37fbc0d74080",
        "to": "0xfc1dde031037c4b505379996fe2670ef7aaf2d30",
        "gas": "0x51cf2",
        "value": "0x0",
        "input": "0x1cd625370000000000000000000000001c7d4b196cb0c7b01d743fbc6116a902379c7238000000000000000000000000fff9976782d46cc05630d1f6ebab18b2324d6b140000000000000000000000000000000000000000000000000000000000000bb8000000000000000000000000000000000000000000000000000000000000003c0000000000000000000000005c13377f19b9aeb3cb00fcc8e58e9a2b4388954000000000000000000000000000000000000000000000000000000000000a11e400000000000000000000000000000000000000000000000000000000000be6a40000000000000000000000000000000000000000000000000000000000000001000000000000000000000000000000000000000000000000000000000000000000000000000000000000000000000000000000000000000000000000000075300000000000000000000000000000000000000000000000000000a3b5840f4000",
        "nonce": "0xf13",
        "chainId": "0xaa36a7"
      },
      "additionalContracts": [],
      "isFixedGasLimit": false
    }
  ],
  "receipts": [
    {
      "status": "0x1",
      "cumulativeGasUsed": "0xa5582a",
      "logs": [],
      "logsBloom": "0x00000000000000000000000000000000000000000000000000000000000000000000000000000000000000000000000000000000000000000000000000000000000000000000000000000000000000000000000000000000000000000000000000000000000000000000000000000000000000000000000000000000000000000000000000000000000000000000000000000000000000000000000000000000000000000000000000000000000000000000000000000000000000000000000000000000000000000000000000000000000000000000000000000000000000000000000000000000000000000000000000000000000000000000000000000000",
      "type": "0x2",
      "transactionHash": "0x97578f0b6f07d0a0b812a15259be47125f2fe4f1795fc3ede90598513175a603",
      "transactionIndex": "0x5f",
      "blockHash": "0xc3a80be84a46963da3d10b551346f3f31f76f09340f2a4831f1011e80ec1e238",
      "blockNumber": "0x987787",
      "gasUsed": "0x10df56",
      "effectiveGasPrice": "0xf427f",
      "from": "0x63f976191f9dd75bd5b0fd81320d37fbc0d74080",
      "to": null,
      "contractAddress": "0xfc1dde031037c4b505379996fe2670ef7aaf2d30"
    },
    {
      "status": "0x1",
      "cumulativeGasUsed": "0xa63213",
      "logs": [
        {
          "address": "0x1c7d4b196cb0c7b01d743fbc6116a902379c7238",
          "topics": [
            "0x8c5be1e5ebec7d5bd14f71427d1e84f3dd0314c0f7b2291e5b200ac8c7c3b925",
            "0x00000000000000000000000063f976191f9dd75bd5b0fd81320d37fbc0d74080",
            "0x000000000000000000000000fc1dde031037c4b505379996fe2670ef7aaf2d30"
          ],
          "data": "0xffffffffffffffffffffffffffffffffffffffffffffffffffffffffffffffff",
          "blockHash": "0xc3a80be84a46963da3d10b551346f3f31f76f09340f2a4831f1011e80ec1e238",
          "blockNumber": "0x987787",
          "blockTimestamp": "0x695d6600",
          "transactionHash": "0xbe2a67fa17df0bfe4a68992d67c2edbbf13eb7b2b3f4aaa8d8c43f1d8f67dfb2",
          "transactionIndex": "0x60",
          "logIndex": "0x8b",
          "removed": false
        }
      ],
      "logsBloom": "0x00000000000000000000000000000000000000000000000000000000000200000000000000000000000000000000000000000000000010000000000000200000000000000000000000000000200000000000000000000000000000000000000000000000000000000000000000000000000000000000040000000000000000000000000000100000000000000000000000000000000000000000000000000010020000400000000000000000000000000000000000000000000000000000000000000000000000000000000000000000000000000000000000000000000000000010000000000000000010020000000000000000000000000000000000000000",
      "type": "0x2",
      "transactionHash": "0xbe2a67fa17df0bfe4a68992d67c2edbbf13eb7b2b3f4aaa8d8c43f1d8f67dfb2",
      "transactionIndex": "0x60",
      "blockHash": "0xc3a80be84a46963da3d10b551346f3f31f76f09340f2a4831f1011e80ec1e238",
      "blockNumber": "0x987787",
      "gasUsed": "0xd9e9",
      "effectiveGasPrice": "0xf427f",
      "from": "0x63f976191f9dd75bd5b0fd81320d37fbc0d74080",
      "to": "0x1c7d4b196cb0c7b01d743fbc6116a902379c7238",
      "contractAddress": null
    },
    {
      "status": "0x1",
      "cumulativeGasUsed": "0xa6e72f",
      "logs": [
        {
          "address": "0xfff9976782d46cc05630d1f6ebab18b2324d6b14",
          "topics": [
            "0x8c5be1e5ebec7d5bd14f71427d1e84f3dd0314c0f7b2291e5b200ac8c7c3b925",
            "0x00000000000000000000000063f976191f9dd75bd5b0fd81320d37fbc0d74080",
            "0x000000000000000000000000fc1dde031037c4b505379996fe2670ef7aaf2d30"
          ],
          "data": "0xffffffffffffffffffffffffffffffffffffffffffffffffffffffffffffffff",
          "blockHash": "0xc3a80be84a46963da3d10b551346f3f31f76f09340f2a4831f1011e80ec1e238",
          "blockNumber": "0x987787",
          "blockTimestamp": "0x695d6600",
          "transactionHash": "0xe81a8a5e51c8c3e142fb255a02fc08079b2bb994b1c5a3c2b1ac547ba1dd1a53",
          "transactionIndex": "0x61",
          "logIndex": "0x8c",
          "removed": false
        }
      ],
      "logsBloom": "0x00000000000000000000000000000000000000000000000000000000000000000000000000000000000000000000000000000000000010000000000000200000000000000000000000000000200000000000000000000000000000000000000000000000000000000000000000000000000000000000040000000000000000000040000000000000000000000000000000000000000000000000000000000010020020400000000000000000000000000000000000000000000000000000000000000000000000000002000000000000000000000000000000000000000000000010000000000000000000020000000000000000000000000000000000000000",
      "type": "0x2",
      "transactionHash": "0xe81a8a5e51c8c3e142fb255a02fc08079b2bb994b1c5a3c2b1ac547ba1dd1a53",
      "transactionIndex": "0x61",
      "blockHash": "0xc3a80be84a46963da3d10b551346f3f31f76f09340f2a4831f1011e80ec1e238",
      "blockNumber": "0x987787",
      "gasUsed": "0xb51c",
      "effectiveGasPrice": "0xf427f",
      "from": "0x63f976191f9dd75bd5b0fd81320d37fbc0d74080",
      "to": "0xfff9976782d46cc05630d1f6ebab18b2324d6b14",
      "contractAddress": null
    },
    {
      "status": "0x1",
      "cumulativeGasUsed": "0xaa9ad7",
      "logs": [
        {
          "address": "0x76e9e1affde82bb4544ce95ea58ffc2f9d45061f",
          "topics": [
            "0xf208f4912782fd25c7f114ca3723a2d5dd6f3bcc3ac8db5af63baa85f711d5ec",
            "0x6648efe854126eca977839455e095d4cb46e5035b64bc3aa0f8da2c5ebdce489",
            "0x000000000000000000000000fc1dde031037c4b505379996fe2670ef7aaf2d30"
          ],
          "data": "0x00000000000000000000000000000000000000000000000000000000000a11e400000000000000000000000000000000000000000000000000000000000be6a400000000000000000000000000000000000000000000000000000000000000010000000000000000000000000000000000000000000000000000000000000000",
          "blockHash": "0xc3a80be84a46963da3d10b551346f3f31f76f09340f2a4831f1011e80ec1e238",
          "blockNumber": "0x987787",
          "blockTimestamp": "0x695d6600",
          "transactionHash": "0xe6b841d4a86343b47e2695868218d65f7a2220a16f7ae29f7e4e097f6ad75a24",
          "transactionIndex": "0x62",
          "logIndex": "0x8d",
          "removed": false
        },
        {
          "address": "0x1c7d4b196cb0c7b01d743fbc6116a902379c7238",
          "topics": [
            "0xddf252ad1be2c89b69c2b068fc378daa952ba7f163c4a11628f55a4df523b3ef",
            "0x00000000000000000000000063f976191f9dd75bd5b0fd81320d37fbc0d74080",
            "0x00000000000000000000000076e9e1affde82bb4544ce95ea58ffc2f9d45061f"
          ],
          "data": "0x0000000000000000000000000000000000000000000000000000000000000001",
          "blockHash": "0xc3a80be84a46963da3d10b551346f3f31f76f09340f2a4831f1011e80ec1e238",
          "blockNumber": "0x987787",
          "blockTimestamp": "0x695d6600",
          "transactionHash": "0xe6b841d4a86343b47e2695868218d65f7a2220a16f7ae29f7e4e097f6ad75a24",
          "transactionIndex": "0x62",
          "logIndex": "0x8e",
          "removed": false
        },
        {
          "address": "0xfff9976782d46cc05630d1f6ebab18b2324d6b14",
          "topics": [
            "0xddf252ad1be2c89b69c2b068fc378daa952ba7f163c4a11628f55a4df523b3ef",
            "0x00000000000000000000000063f976191f9dd75bd5b0fd81320d37fbc0d74080",
            "0x00000000000000000000000076e9e1affde82bb4544ce95ea58ffc2f9d45061f"
          ],
          "data": "0x0000000000000000000000000000000000000000000000000000a034bf664469",
          "blockHash": "0xc3a80be84a46963da3d10b551346f3f31f76f09340f2a4831f1011e80ec1e238",
          "blockNumber": "0x987787",
          "blockTimestamp": "0x695d6600",
          "transactionHash": "0xe6b841d4a86343b47e2695868218d65f7a2220a16f7ae29f7e4e097f6ad75a24",
          "transactionIndex": "0x62",
          "logIndex": "0x8f",
          "removed": false
        },
        {
          "address": "0x5c13377f19b9aeb3cb00fcc8e58e9a2b43889540",
          "topics": [
            "0x09f360c713956e5eede31eb1105cc6adde9bcc9985923f91149a659b6968bdb2",
            "0x6648efe854126eca977839455e095d4cb46e5035b64bc3aa0f8da2c5ebdce489"
          ],
          "data": "0x00000000000000000000000000000000000000000000000000000000000000000000000000000000000000000000000000000000000000000000000000000000",
          "blockHash": "0xc3a80be84a46963da3d10b551346f3f31f76f09340f2a4831f1011e80ec1e238",
          "blockNumber": "0x987787",
          "blockTimestamp": "0x695d6600",
          "transactionHash": "0xe6b841d4a86343b47e2695868218d65f7a2220a16f7ae29f7e4e097f6ad75a24",
          "transactionIndex": "0x62",
          "logIndex": "0x90",
          "removed": false
        },
        {
          "address": "0x5c13377f19b9aeb3cb00fcc8e58e9a2b43889540",
          "topics": [
            "0xd42d7c103a3f8c3e5ac90a89545366e71021f08607dbf85d19e0f88484d1bd85",
            "0x6648efe854126eca977839455e095d4cb46e5035b64bc3aa0f8da2c5ebdce489"
          ],
          "data": "0x0000000000000000000000000000000000000000000000000000000000000000000000000000000000000000000000000000000000000000000000000000000000000000000000000000000000000000000000000000000000000000000000000000000000000000000000000000000000000000000000000000000000030d40000000000000000000000000000000000000000000000000000000000000000000000000000000000000000000000000000000000000000000000000695d6600",
          "blockHash": "0xc3a80be84a46963da3d10b551346f3f31f76f09340f2a4831f1011e80ec1e238",
          "blockNumber": "0x987787",
          "blockTimestamp": "0x695d6600",
          "transactionHash": "0xe6b841d4a86343b47e2695868218d65f7a2220a16f7ae29f7e4e097f6ad75a24",
          "transactionIndex": "0x62",
          "logIndex": "0x91",
          "removed": false
        }
      ],
      "logsBloom": "0x00001000000000000000000000000000002000000000000000000000000200000000000000000000000020100000000000000000000010000000000000001000000000000000000000000008200000000000000000001800000000000000010000000000000000000000000000000000000000200000040000000010000000000040000001100000000000000000010000001000000000000000000008000010000024400000040000000000000000000000000000000000000001000010000000000002000000000002000000000000000000000000000000008000000000000000000000000000000010020000050004000000000000000000000000000000",
      "type": "0x2",
      "transactionHash": "0xe6b841d4a86343b47e2695868218d65f7a2220a16f7ae29f7e4e097f6ad75a24",
      "transactionIndex": "0x62",
      "blockHash": "0xc3a80be84a46963da3d10b551346f3f31f76f09340f2a4831f1011e80ec1e238",
      "blockNumber": "0x987787",
      "gasUsed": "0x3b3a8",
      "effectiveGasPrice": "0xf427f",
      "from": "0x63f976191f9dd75bd5b0fd81320d37fbc0d74080",
      "to": "0xfc1dde031037c4b505379996fe2670ef7aaf2d30",
      "contractAddress": null
    }
  ],
  "libraries": [],
  "pending": [],
  "returns": {},
  "timestamp": 1767728642223,
  "chain": 11155111,
  "commit": "6ee287b"
}