{
  "transactions": [
    {
      "hash": "0x3f5c7d9115f811e9300edc81fb17f289bb86b1dec8757bd8f79bdabb8195029a",
      "transactionType": "CREATE",
      "contractName": "CompoundHelper",
      "contractAddress": "0xfae1d83529afaf0085f628cb25928eb126c050c3",
      "function": null,
      "arguments": [
        "0x76E9E1AFFDe82bb4544cE95EA58fFc2f9D45061f",
        "0x5C13377F19B9AEB3CB00Fcc8E58e9A2B43889540"
      ],
      "transaction": {
        "from": "0x63f976191f9dd75bd5b0fd81320d37fbc0d74080",
        "gas": "0x15b60b",
        "value": "0x0",
        "input": "0x60e0346100d757601f6113d738819003918201601f19168301916001600160401b038311848410176100db5780849260409485528339810103126100d7578051906001600160a01b03821682036100d75760200151906001600160a01b03821682036100d75760805260a0523360c0526040516112e790816100f08239608051818181609b015281816101a00152610bfa015260a0518181816104f0015281816109310152610c53015260c05181818161010d0152818161041b0152818161046f015281816107b0015281816108090152610aaa0152f35b5f80fd5b634e487b7160e01b5f52604160045260245ffdfe60806040526004361015610011575f80fd5b5f803560e01c80631cd62537146109555780637f5a7c7b146108e657806391dd734614610131578063d5f39488146100c25763dc4c90d314610051575f80fd5b346100bf57807ffffffffffffffffffffffffffffffffffffffffffffffffffffffffffffffffc3601126100bf57602060405173ffffffffffffffffffffffffffffffffffffffff7f0000000000000000000000000000000000000000000000000000000000000000168152f35b80fd5b50346100bf57807ffffffffffffffffffffffffffffffffffffffffffffffffffffffffffffffffc3601126100bf57602060405173ffffffffffffffffffffffffffffffffffffffff7f0000000000000000000000000000000000000000000000000000000000000000168152f35b50346100bf5760207ffffffffffffffffffffffffffffffffffffffffffffffffffffffffffffffffc3601126100bf5760043567ffffffffffffffff81116108e257366023820112156108e257806004013567ffffffffffffffff81116108de5781013660248201116108de577f000000000000000000000000000000000000000000000000000000000000000073ffffffffffffffffffffffffffffffffffffffff8116803303610880576101608484031261075c57604051926101f584610e6e565b60a08582031261087c576040519061020c82610e8a565b61021860248701610ee7565b825261022660448701610ee7565b6020830152606486013562ffffff8116810361087857604083015261024d60848701610f08565b606083015260a48601359173ffffffffffffffffffffffffffffffffffffffff83168303610878578660249282608095867fffffffffffffffffffffffffffffffffffffffffffffffffffffffffffffff3c95015288520301011261075c57610392610164604092818451976102c289610e6e565b6102ce60c48201610f08565b89526102dc60e48201610f08565b60208a0152610104810135868a015261012481013560608a01528860208901526101448101358689015201356060870152878651916103c08651998a9687957f5a6bcfda000000000000000000000000000000000000000000000000000000008752600487019073ffffffffffffffffffffffffffffffffffffffff6080809282815116855282602082015116602086015262ffffff6040820151166040860152606081015160020b6060860152015116910152565b8051600290810b60a48701526020820151900b60c4860152604081015160e486015260600151610104850152565b610140610124840152816101448401525af1801561086d5784938591610834575b508360801d600f0b84600f0b908681125f146107db576104409073ffffffffffffffffffffffffffffffffffffffff8651511690880390857f000000000000000000000000000000000000000000000000000000000000000091611041565b8581121561077f576104949073ffffffffffffffffffffffffffffffffffffffff6020865101511690870390847f000000000000000000000000000000000000000000000000000000000000000091611041565b848160801d8181600f0b135f14610777576fffffffffffffffffffffffffffffffff16915b8181600f0b135f1461076f576fffffffffffffffffffffffffffffffff16915b73ffffffffffffffffffffffffffffffffffffffff7f00000000000000000000000000000000000000000000000000000000000000001692855191843b1561076b57610599604051937fa22092e7000000000000000000000000000000000000000000000000000000008552600485019073ffffffffffffffffffffffffffffffffffffffff6080809282815116855282602082015116602086015262ffffff6040820151166040860152606081015160020b6060860152015116910152565b60a483015260c4820152818160e48183875af1801561076057610747575b50506040517fca7ce2bf000000000000000000000000000000000000000000000000000000008152602081600481855afa90811561073c57869161071d575b50604051907f541e63a8000000000000000000000000000000000000000000000000000000008252602082600481865afa91821561071257906fffffffffffffffffffffffffffffffff929161068498926106df575b508216806106b5575b50169182610688575b858560405190602082015260208152610678604082610ea6565b60405191829182610f16565b0390f35b73ffffffffffffffffffffffffffffffffffffffff60206106ac9551015116610f86565b5f80808061065e565b6106d990848673ffffffffffffffffffffffffffffffffffffffff89515116610f86565b5f610655565b839192506107049060203d60201161070b575b6106fc8183610ea6565b810190610f5e565b919061064c565b503d6106f2565b6040513d89823e3d90fd5b610736915060203d60201161070b576106fc8183610ea6565b5f6105f6565b6040513d88823e3d90fd5b8161075191610ea6565b61075c57845f6105b7565b8480fd5b6040513d84823e3d90fd5b8380fd5b5080916104d9565b5080916104b9565b85811361078d575b50610494565b6107d59073ffffffffffffffffffffffffffffffffffffffff60208651015116847f000000000000000000000000000000000000000000000000000000000000000091610f86565b5f610787565b8681136107e9575b50610440565b61082e9073ffffffffffffffffffffffffffffffffffffffff86515116857f000000000000000000000000000000000000000000000000000000000000000091610f86565b5f6107e3565b9350506040833d604011610865575b8161085060409383610ea6565b8101031261076b57602083519301515f6103e1565b3d9150610843565b6040513d86823e3d90fd5b8780fd5b8580fd5b60646040517f08c379a000000000000000000000000000000000000000000000000000000000815260206004820152601960248201527f4f6e6c7920506f6f6c4d616e616765722063616e2063616c6c000000000000006044820152fd5b8280fd5b5080fd5b50346100bf57807ffffffffffffffffffffffffffffffffffffffffffffffffffffffffffffffffc3601126100bf57602060405173ffffffffffffffffffffffffffffffffffffffff7f0000000000000000000000000000000000000000000000000000000000000000168152f35b34610d37577ffffffffffffffffffffffffffffffffffffffffffffffffffffffffffffffffc36016101608112610d375760a013610d375760405161099981610e8a565b60043573ffffffffffffffffffffffffffffffffffffffff81168103610d3757815260243573ffffffffffffffffffffffffffffffffffffffff81168103610d3757602082015260443562ffffff81168103610d375760408201526064358060020b8103610d3757606082015260843573ffffffffffffffffffffffffffffffffffffffff81168103610d3757608082015260807fffffffffffffffffffffffffffffffffffffffffffffffffffffffffffffff5c360112610d3757604051610a6181610e6e565b60a4358060020b8103610d3757815260c4358060020b8103610d3757602082015260e435604082015261010435606082015273ffffffffffffffffffffffffffffffffffffffff7f0000000000000000000000000000000000000000000000000000000000000000163303610e10575f610be091604051610ae181610e6e565b84815260208101918252606060408201916101243583520190610144358252610b8e60405193610b5e602086018973ffffffffffffffffffffffffffffffffffffffff6080809282815116855282602082015116602086015262ffffff6040820151166040860152606081015160020b6060860152015116910152565b518051600290810b60c08701526020820151900b60e0860152604081015161010086015260600151610120850152565b51610140830152516101608201526101608152610bad61018082610ea6565b604051809381927f48c8949100000000000000000000000000000000000000000000000000000000835260048301610f16565b03818373ffffffffffffffffffffffffffffffffffffffff7f0000000000000000000000000000000000000000000000000000000000000000165af1908115610d2c575f91610d3b575b50602081805181010312610d37576020015173ffffffffffffffffffffffffffffffffffffffff7f00000000000000000000000000000000000000000000000000000000000000001691823b15610d3757610d0260a45f928360405196879485937f701f4f57000000000000000000000000000000000000000000000000000000008552600485019073ffffffffffffffffffffffffffffffffffffffff6080809282815116855282602082015116602086015262ffffff6040820151166040860152606081015160020b6060860152015116910152565b5af1918215610d2c57602092610d1c575b50604051908152f35b5f610d2691610ea6565b5f610d13565b6040513d5f823e3d90fd5b5f80fd5b90503d805f833e610d4c8183610ea6565b810190602081830312610d375780519067ffffffffffffffff8211610d37570181601f82011215610d375780519067ffffffffffffffff8211610de35760405192610dbf60207fffffffffffffffffffffffffffffffffffffffffffffffffffffffffffffffe0601f8601160185610ea6565b82845260208383010111610d3757815f9260208093018386015e8301015282610c2a565b7f4e487b71000000000000000000000000000000000000000000000000000000005f52604160045260245ffd5b60646040517f08c379a000000000000000000000000000000000000000000000000000000000815260206004820152601660248201527f4f6e6c79206465706c6f7965722063616e2063616c6c000000000000000000006044820152fd5b6080810190811067ffffffffffffffff821117610de357604052565b60a0810190811067ffffffffffffffff821117610de357604052565b90601f7fffffffffffffffffffffffffffffffffffffffffffffffffffffffffffffffe0910116810190811067ffffffffffffffff821117610de357604052565b359073ffffffffffffffffffffffffffffffffffffffff82168203610d3757565b35908160020b8203610d3757565b7fffffffffffffffffffffffffffffffffffffffffffffffffffffffffffffffe0601f602060409481855280519182918282880152018686015e5f8582860101520116010190565b90816020910312610d3757516fffffffffffffffffffffffffffffffff81168103610d375790565b91929073ffffffffffffffffffffffffffffffffffffffff16803b15610d37575f928360649273ffffffffffffffffffffffffffffffffffffffff948560405198899788967f0b0d9c0900000000000000000000000000000000000000000000000000000000885216600487015216602485015260448401525af18015610d2c5761100e5750565b5f61101891610ea6565b565b90816020910312610d3757518015158103610d375790565b90816020910312610d37575190565b90919073ffffffffffffffffffffffffffffffffffffffff16806110e157505073ffffffffffffffffffffffffffffffffffffffff600460209260405194859384927f11da60b4000000000000000000000000000000000000000000000000000000008452165af18015610d2c576110b65750565b6110d79060203d6020116110da575b6110cf8183610ea6565b810190611032565b50565b503d6110c5565b90929173ffffffffffffffffffffffffffffffffffffffff1691823b15610d3757604051937fa58411940000000000000000000000000000000000000000000000000000000085528260048601525a945f816024818389819bf18015610d2c576112b1575b5073ffffffffffffffffffffffffffffffffffffffff168430821461123d576020929160649160405195869485937f23b872dd000000000000000000000000000000000000000000000000000000008552600485015288602485015260448401525af1801561123257916020918493611205575b505b6004604051809581937f11da60b40000000000000000000000000000000000000000000000000000000083525af19081156111f957506110b65750565b604051903d90823e3d90fd5b61122490833d851161122b575b61121c8183610ea6565b81019061101a565b505f6111ba565b503d611212565b6040513d85823e3d90fd5b929050604460209260405194859384927fa9059cbb00000000000000000000000000000000000000000000000000000000845288600485015260248401525af1801561123257916020918493611294575b506111bc565b6112aa90833d851161122b5761121c8183610ea6565b505f61128e565b6112be9195505f90610ea6565b5f9373ffffffffffffffffffffffffffffffffffffffff61114656fea164736f6c634300081a000a00000000000000000000000076e9e1affde82bb4544ce95ea58ffc2f9d45061f0000000000000000000000005c13377f19b9aeb3cb00fcc8e58e9a2b43889540",
        "nonce": "0x1103",
        "chainId": "0xaa36a7"
      },
      "additionalContracts": [],
      "isFixedGasLimit": false
    },
    {
      "hash": "0x377f87c47e556b5a421553eb211d3b41865027224b2f4a6561dad6f5842e2644",
      "transactionType": "CALL",
      "contractName": null,
      "contractAddress": "0x1c7d4b196cb0c7b01d743fbc6116a902379c7238",
      "function": "approve(address,uint256)",
      "arguments": [
        "0xFAe1d83529aFaf0085f628cB25928Eb126C050C3",
        "115792089237316195423570985008687907853269984665640564039457584007913129639935"
      ],
      "transaction": {
        "from": "0x63f976191f9dd75bd5b0fd81320d37fbc0d74080",
        "to": "0x1c7d4b196cb0c7b01d743fbc6116a902379c7238",
        "gas": "0x12ceb",
        "value": "0x0",
        "input": "0x095ea7b3000000000000000000000000fae1d83529afaf0085f628cb25928eb126c050c3ffffffffffffffffffffffffffffffffffffffffffffffffffffffffffffffff",
        "nonce": "0x1104",
        "chainId": "0xaa36a7"
      },
      "additionalContracts": [],
      "isFixedGasLimit": false
    },
    {
      "hash": "0x9b24b1504d9442d7b055e0730fa50bdd7bc71fb07fd6a4004a4757c06eb31482",
      "transactionType": "CALL",
      "contractName": null,
      "contractAddress": "0xfff9976782d46cc05630d1f6ebab18b2324d6b14",
      "function": "approve(address,uint256)",
      "arguments": [
        "0xFAe1d83529aFaf0085f628cB25928Eb126C050C3",
        "115792089237316195423570985008687907853269984665640564039457584007913129639935"
      ],
      "transaction": {
        "from": "0x63f976191f9dd75bd5b0fd81320d37fbc0d74080",
        "to": "0xfff9976782d46cc05630d1f6ebab18b2324d6b14",
        "gas": "0xfa17",
        "value": "0x0",
        "input": "0x095ea7b3000000000000000000000000fae1d83529afaf0085f628cb25928eb126c050c3ffffffffffffffffffffffffffffffffffffffffffffffffffffffffffffffff",
        "nonce": "0x1105",
        "chainId": "0xaa36a7"
      },
      "additionalContracts": [],
      "isFixedGasLimit": false
    },
    {
      "hash": "0x87e5308e2ae592fbab298f3a9e6b027e2b642bca0df7afec915def8c8f789d4f",
      "transactionType": "CALL",
      "contractName": "CompoundHelper",
      "contractAddress": "0xfae1d83529afaf0085f628cb25928eb126c050c3",
      "function": "executeCompound((address,address,uint24,int24,address),(int24,int24,int256,bytes32),uint256,uint256)",
      "arguments": [
        "(0x1c7D4B196Cb0C7B01d743Fbc6116a902379C7238, 0xfFf9976782d46CC05630D1f6eBAb18b2324d6B14, 3000, 60, 0x5C13377F19B9AEB3CB00Fcc8E58e9A2B43889540)",
        "(659940, 779940, 642536746176253625, 0x0000000000000000000000000000000000000000000000000000000000000000)",
        "3000",
        "480000000000000"
      ],
      "transaction": {
        "from": "0x63f976191f9dd75bd5b0fd81320d37fbc0d74080",
        "to": "0xfae1d83529afaf0085f628cb25928eb126c050c3",
        "gas": "0x46f2b",
        "value": "0x0",
        "input": "0x1cd625370000000000000000000000001c7d4b196cb0c7b01d743fbc6116a902379c7238000000000000000000000000fff9976782d46cc05630d1f6ebab18b2324d6b140000000000000000000000000000000000000000000000000000000000000bb8000000000000000000000000000000000000000000000000000000000000003c0000000000000000000000005c13377f19b9aeb3cb00fcc8e58e9a2b4388954000000000000000000000000000000000000000000000000000000000000a11e400000000000000000000000000000000000000000000000000000000000be6a400000000000000000000000000000000000000000000000008eabfc42ef88eb900000000000000000000000000000000000000000000000000000000000000000000000000000000000000000000000000000000000000000000000000000bb80000000000000000000000000000000000000000000000000001b48eb57e0000",
        "nonce": "0x1106",
        "chainId": "0xaa36a7"
      },
      "additionalContracts": [],
      "isFixedGasLimit": false
    }
  ],
  "receipts": [
    {
      "status": "0x1",
      "cumulativeGasUsed": "0x926780",
      "logs": [],
      "logsBloom": "0x00000000000000000000000000000000000000000000000000000000000000000000000000000000000000000000000000000000000000000000000000000000000000000000000000000000000000000000000000000000000000000000000000000000000000000000000000000000000000000000000000000000000000000000000000000000000000000000000000000000000000000000000000000000000000000000000000000000000000000000000000000000000000000000000000000000000000000000000000000000000000000000000000000000000000000000000000000000000000000000000000000000000000000000000000000000",
      "type": "0x2",
      "transactionHash": "0x87e5308e2ae592fbab298f3a9e6b027e2b642bca0df7afec915def8c8f789d4f",
      "transactionIndex": "0x90",
      "blockHash": "0xf2d7619c082654194dc43c60528c23867a2917a77603ddf03b222127e1bee234",
      "blockNumber": "0x987d34",
      "gasUsed": "0x10b36b",
      "effectiveGasPrice": "0xf4248",
      "from": "0x63f976191f9dd75bd5b0fd81320d37fbc0d74080",
      "to": null,
      "contractAddress": "0xfae1d83529afaf0085f628cb25928eb126c050c3"
    },
    {
      "status": "0x1",
      "cumulativeGasUsed": "0x93415d",
      "logs": [
        {
          "address": "0x1c7d4b196cb0c7b01d743fbc6116a902379c7238",
          "topics": [
            "0x8c5be1e5ebec7d5bd14f71427d1e84f3dd0314c0f7b2291e5b200ac8c7c3b925",
            "0x00000000000000000000000063f976191f9dd75bd5b0fd81320d37fbc0d74080",
            "0x000000000000000000000000fae1d83529afaf0085f628cb25928eb126c050c3"
          ],
          "data": "0xffffffffffffffffffffffffffffffffffffffffffffffffffffffffffffffff",
          "blockHash": "0xf2d7619c082654194dc43c60528c23867a2917a77603ddf03b222127e1bee234",
          "blockNumber": "0x987d34",
          "blockTimestamp": "0x695db454",
          "transactionHash": "0x377f87c47e556b5a421553eb211d3b41865027224b2f4a6561dad6f5842e2644",
          "transactionIndex": "0x91",
          "logIndex": "0x4f",
          "removed": false
        }
      ],
      "logsBloom": "0x00000000000000000000000000000000000000000000000000000000000200000000000000000000000000000000000000000000000010000000000004200000000000000000000000000000000000000000000000000000000000000000000000000000000000000000000000000000000000000000000000000000000000000000000000100000000000000000000000000000000000000000000000000000020000400000000000000000000000000000000000000000000000000000000000000000000000000000000000000000000000000000000000000000000000000010000000000800000010020000000000000000000001000000000000000000",
      "type": "0x2",
      "transactionHash": "0x377f87c47e556b5a421553eb211d3b41865027224b2f4a6561dad6f5842e2644",
      "transactionIndex": "0x91",
      "blockHash": "0xf2d7619c082654194dc43c60528c23867a2917a77603ddf03b222127e1bee234",
      "blockNumber": "0x987d34",
      "gasUsed": "0xd9dd",
      "effectiveGasPrice": "0xf4248",
      "from": "0x63f976191f9dd75bd5b0fd81320d37fbc0d74080",
      "to": "0x1c7d4b196cb0c7b01d743fbc6116a902379c7238",
      "contractAddress": null
    },
    {
      "status": "0x1",
      "cumulativeGasUsed": "0x93f66d",
      "logs": [
        {
          "address": "0xfff9976782d46cc05630d1f6ebab18b2324d6b14",
          "topics": [
            "0x8c5be1e5ebec7d5bd14f71427d1e84f3dd0314c0f7b2291e5b200ac8c7c3b925",
            "0x00000000000000000000000063f976191f9dd75bd5b0fd81320d37fbc0d74080",
            "0x000000000000000000000000fae1d83529afaf0085f628cb25928eb126c050c3"
          ],
          "data": "0xffffffffffffffffffffffffffffffffffffffffffffffffffffffffffffffff",
          "blockHash": "0xf2d7619c082654194dc43c60528c23867a2917a77603ddf03b222127e1bee234",
          "blockNumber": "0x987d34",
          "blockTimestamp": "0x695db454",
          "transactionHash": "0x3f5c7d9115f811e9300edc81fb17f289bb86b1dec8757bd8f79bdabb8195029a",
          "transactionIndex": "0x92",
          "logIndex": "0x50",
          "removed": false
        }
      ],
      "logsBloom": "0x00000000000000000000000000000000000000000000000000000000000000000000000000000000000000000000000000000000000010000000000004200000000000000000000000000000000000000000000000000000000000000000000000000000000000000000000000000000000000000000000000000000000000000040000000000000000000000000000000000000000000000000000000000000020020400000000000000000000000000000000000000000000000000000000000000000000000000002000000000000000000000000000000000000000000000010000000000800000000020000000000000000000001000000000000000000",
      "type": "0x2",
      "transactionHash": "0x3f5c7d9115f811e9300edc81fb17f289bb86b1dec8757bd8f79bdabb8195029a",
      "transactionIndex": "0x92",
      "blockHash": "0xf2d7619c082654194dc43c60528c23867a2917a77603ddf03b222127e1bee234",
      "blockNumber": "0x987d34",
      "gasUsed": "0xb510",
      "effectiveGasPrice": "0xf4248",
      "from": "0x63f976191f9dd75bd5b0fd81320d37fbc0d74080",
      "to": "0xfff9976782d46cc05630d1f6ebab18b2324d6b14",
      "contractAddress": null
    },
    {
      "status": "0x1",
      "cumulativeGasUsed": "0x972c45",
      "logs": [
        {
          "address": "0x76e9e1affde82bb4544ce95ea58ffc2f9d45061f",
          "topics": [
            "0xf208f4912782fd25c7f114ca3723a2d5dd6f3bcc3ac8db5af63baa85f711d5ec",
            "0x6648efe854126eca977839455e095d4cb46e5035b64bc3aa0f8da2c5ebdce489",
            "0x000000000000000000000000fae1d83529afaf0085f628cb25928eb126c050c3"
          ],
          "data": "0x00000000000000000000000000000000000000000000000000000000000a11e400000000000000000000000000000000000000000000000000000000000be6a400000000000000000000000000000000000000000000000008eabfc42ef88eb90000000000000000000000000000000000000000000000000000000000000000",
          "blockHash": "0xf2d7619c082654194dc43c60528c23867a2917a77603ddf03b222127e1bee234",
          "blockNumber": "0x987d34",
          "blockTimestamp": "0x695db454",
          "transactionHash": "0x9b24b1504d9442d7b055e0730fa50bdd7bc71fb07fd6a4004a4757c06eb31482",
          "transactionIndex": "0x93",
          "logIndex": "0x51",
          "removed": false
        },
        {
          "address": "0x1c7d4b196cb0c7b01d743fbc6116a902379c7238",
          "topics": [
            "0xddf252ad1be2c89b69c2b068fc378daa952ba7f163c4a11628f55a4df523b3ef",
            "0x00000000000000000000000063f976191f9dd75bd5b0fd81320d37fbc0d74080",
            "0x00000000000000000000000076e9e1affde82bb4544ce95ea58ffc2f9d45061f"
          ],
          "data": "0x0000000000000000000000000000000000000000000000000000000000000bb8",
          "blockHash": "0xf2d7619c082654194dc43c60528c23867a2917a77603ddf03b222127e1bee234",
          "blockNumber": "0x987d34",
          "blockTimestamp": "0x695db454",
          "transactionHash": "0x9b24b1504d9442d7b055e0730fa50bdd7bc71fb07fd6a4004a4757c06eb31482",
          "transactionIndex": "0x93",
          "logIndex": "0x52",
          "removed": false
        },
        {
          "address": "0x5c13377f19b9aeb3cb00fcc8e58e9a2b43889540",
          "topics": [
            "0x09f360c713956e5eede31eb1105cc6adde9bcc9985923f91149a659b6968bdb2",
            "0x6648efe854126eca977839455e095d4cb46e5035b64bc3aa0f8da2c5ebdce489"
          ],
          "data": "0x00000000000000000000000000000000000000000000000000000000000000000000000000000000000000000000000000000000000000000000000000000000",
          "blockHash": "0xf2d7619c082654194dc43c60528c23867a2917a77603ddf03b222127e1bee234",
          "blockNumber": "0x987d34",
          "blockTimestamp": "0x695db454",
          "transactionHash": "0x9b24b1504d9442d7b055e0730fa50bdd7bc71fb07fd6a4004a4757c06eb31482",
          "transactionIndex": "0x93",
          "logIndex": "0x53",
          "removed": false
        },
        {
          "address": "0x5c13377f19b9aeb3cb00fcc8e58e9a2b43889540",
          "topics": [
            "0xd42d7c103a3f8c3e5ac90a89545366e71021f08607dbf85d19e0f88484d1bd85",
            "0x6648efe854126eca977839455e095d4cb46e5035b64bc3aa0f8da2c5ebdce489"
          ],
          "data": "0x0000000000000000000000000000000000000000000000000000000000000000000000000000000000000000000000000000000000000000000000000000000000000000000000000000000000000000000000000000000000000000000000000000000000000000000000000000000000000000000000000000000000030d40000000000000000000000000000000000000000000000000000000000000000000000000000000000000000000000000000000000000000000000000695db454",
          "blockHash": "0xf2d7619c082654194dc43c60528c23867a2917a77603ddf03b222127e1bee234",
          "blockNumber": "0x987d34",
          "blockTimestamp": "0x695db454",
          "transactionHash": "0x9b24b1504d9442d7b055e0730fa50bdd7bc71fb07fd6a4004a4757c06eb31482",
          "transactionIndex": "0x93",
          "logIndex": "0x54",
          "removed": false
        }
      ],
      "logsBloom": "0x00001000000000000000000000000000002000000000000000000000000200000000000000000000000020100000000000000000000010000000000004001000000000000000000000000008000000000000000000001800000000000000010000000000000000000000000000000000000000200000000000000010000000000000000001100000000000000000010000001000000000000000000008000000000004400000040000000000000000000000000000000000000001000010000000000002000000000000000000000000000000000000000000008000000000000000000000000800000010020000050004000000000001000000000000000000",
      "type": "0x2",
      "transactionHash": "0x9b24b1504d9442d7b055e0730fa50bdd7bc71fb07fd6a4004a4757c06eb31482",
      "transactionIndex": "0x93",
      "blockHash": "0xf2d7619c082654194dc43c60528c23867a2917a77603ddf03b222127e1bee234",
      "blockNumber": "0x987d34",
      "gasUsed": "0x335d8",
      "effectiveGasPrice": "0xf4248",
      "from": "0x63f976191f9dd75bd5b0fd81320d37fbc0d74080",
      "to": "0xfae1d83529afaf0085f628cb25928eb126c050c3",
      "contractAddress": null
    }
  ],
  "libraries": [],
  "pending": [],
  "returns": {},
  "timestamp": 1767748693688,
  "chain": 11155111,
  "commit": "3d2e64c"
}