{
  "transactions": [
    {
      "hash": "0x42be029e5d978dcd9c31a9cec0a3f410b2d0b89269f052f223e837093f71e4bd",
      "transactionType": "CREATE",
      "contractName": "CompoundHelper",
      "contractAddress": "0x7e3ac0c464a0263aed4be2b26961999b35c8366d",
      "function": null,
      "arguments": [
        "0x76E9E1AFFDe82bb4544cE95EA58fFc2f9D45061f",
        "0xC5fB60De90960712B938dC19a7DC8a904d039540"
      ],
      "transaction": {
        "from": "0x63f976191f9dd75bd5b0fd81320d37fbc0d74080",
        "gas": "0x12dcf3",
        "value": "0x0",
        "input": "0x60e0346100d057601f61113238819003918201601f19168301916001600160401b038311848410176100d45780849260409485528339810103126100d0578051906001600160a01b03821682036100d05760200151906001600160a01b03821682036100d05760805260a0523360c05260405161104990816100e98239608051818181609b015281816101a00152610a79015260a0518181816104f001526107af015260c05181818161010d0152818161041d0152818161047101528181610631015281816106a101526109280152f35b5f80fd5b634e487b7160e01b5f52604160045260245ffdfe60806040526004361015610011575f80fd5b5f803560e01c80631cd62537146107d35780637f5a7c7b1461076557806391dd734614610131578063d5f39488146100c25763dc4c90d314610051575f80fd5b346100bf57807ffffffffffffffffffffffffffffffffffffffffffffffffffffffffffffffffc3601126100bf57602060405173ffffffffffffffffffffffffffffffffffffffff7f0000000000000000000000000000000000000000000000000000000000000000168152f35b80fd5b50346100bf57807ffffffffffffffffffffffffffffffffffffffffffffffffffffffffffffffffc3601126100bf57602060405173ffffffffffffffffffffffffffffffffffffffff7f0000000000000000000000000000000000000000000000000000000000000000168152f35b346106035760207ffffffffffffffffffffffffffffffffffffffffffffffffffffffffffffffffc3601126106035760043567ffffffffffffffff8111610603573660238201121561060357806004013567ffffffffffffffff811161060357810190366024830111610603577f00000000000000000000000000000000000000000000000000000000000000009173ffffffffffffffffffffffffffffffffffffffff8316803303610707576101608383031261060357604051916101f683610bf8565b60a084820312610603576040519061020d82610c14565b61021960248601610c71565b825261022760448601610c71565b6020830152606485013562ffffff8116810361060357604083015261024e60848601610c92565b606083015260a48501359173ffffffffffffffffffffffffffffffffffffffff83168303610603578560249282608095867fffffffffffffffffffffffffffffffffffffffffffffffffffffffffffffff3c95015287520301011261060357610393610164604092818451966102c388610bf8565b6102cf60c48201610c92565b88526102dd60e48201610c92565b602089015261010481013586890152610124810135606089015287602088015261014481013586880152013560608601525f8551916103c1865198899687957f5a6bcfda000000000000000000000000000000000000000000000000000000008752600487019073ffffffffffffffffffffffffffffffffffffffff6080809282815116855282602082015116602086015262ffffff6040820151166040860152606081015160020b6060860152015116910152565b8051600290810b60a48701526020820151900b60c4860152604081015160e486015260600151610104850152565b610140610124840152816101448401525af19283156105f8575f925f946106cc575b508260801d600f0b83600f0b905f81125f14610673576104429073ffffffffffffffffffffffffffffffffffffffff85515116905f0390847f000000000000000000000000000000000000000000000000000000000000000091610da3565b5f81121561061657906104969173ffffffffffffffffffffffffffffffffffffffff60208551015116905f03917f000000000000000000000000000000000000000000000000000000000000000091610da3565b8260801d5f81600f0b135f1461060e576fffffffffffffffffffffffffffffffff16925b5f81600f0b135f14610607576fffffffffffffffffffffffffffffffff165b73ffffffffffffffffffffffffffffffffffffffff7f000000000000000000000000000000000000000000000000000000000000000016915191803b15610603575f928360e4926105a39460405198899687957fa22092e7000000000000000000000000000000000000000000000000000000008752600487019073ffffffffffffffffffffffffffffffffffffffff6080809282815116855282602082015116602086015262ffffff6040820151166040860152606081015160020b6060860152015116910152565b60a485015260c48401525af19182156105f8576105e4926105e8575b50604051906020820152602081526105d8604082610c30565b60405191829182610ca0565b0390f35b5f6105f291610c30565b5f6105bf565b6040513d5f823e3d90fd5b5f80fd5b505f6104d9565b505f926104ba565b5f8113610625575b5050610496565b82516020015161066c927f00000000000000000000000000000000000000000000000000000000000000009173ffffffffffffffffffffffffffffffffffffffff16610ce8565b838061061e565b5f8113610681575b50610442565b6106c69073ffffffffffffffffffffffffffffffffffffffff85515116847f000000000000000000000000000000000000000000000000000000000000000091610ce8565b8561067b565b925092506040823d6040116106ff575b816106e960409383610c30565b81010312610603576020825192015192846103e3565b3d91506106dc565b60646040517f08c379a000000000000000000000000000000000000000000000000000000000815260206004820152601960248201527f4f6e6c7920506f6f6c4d616e616765722063616e2063616c6c000000000000006044820152fd5b34610603575f7ffffffffffffffffffffffffffffffffffffffffffffffffffffffffffffffffc36011261060357602060405173ffffffffffffffffffffffffffffffffffffffff7f0000000000000000000000000000000000000000000000000000000000000000168152f35b34610603577ffffffffffffffffffffffffffffffffffffffffffffffffffffffffffffffffc360161016081126106035760a0136106035760405161081781610c14565b60043573ffffffffffffffffffffffffffffffffffffffff8116810361060357815260243573ffffffffffffffffffffffffffffffffffffffff8116810361060357602082015260443562ffffff811681036106035760408201526064358060020b810361060357606082015260843573ffffffffffffffffffffffffffffffffffffffff8116810361060357608082015260807fffffffffffffffffffffffffffffffffffffffffffffffffffffffffffffff5c360112610603576040516108df81610bf8565b60a4358060020b810361060357815260c4358060020b810361060357602082015260e435604082015261010435606082015273ffffffffffffffffffffffffffffffffffffffff7f0000000000000000000000000000000000000000000000000000000000000000163303610b9a57610a5f915f9160405161096081610bf8565b82815260208101918252610a0d6060604083019261012435845201926101443584526109dd60405195602087019073ffffffffffffffffffffffffffffffffffffffff6080809282815116855282602082015116602086015262ffffff6040820151166040860152606081015160020b6060860152015116910152565b518051600290810b60c08701526020820151900b60e0860152604081015161010086015260600151610120850152565b51610140830152516101608201526101608152610a2c61018082610c30565b604051809381927f48c8949100000000000000000000000000000000000000000000000000000000835260048301610ca0565b03818373ffffffffffffffffffffffffffffffffffffffff7f0000000000000000000000000000000000000000000000000000000000000000165af19081156105f8575f91610ac5575b5060208180518101031261060357602080910151604051908152f35b90503d805f833e610ad68183610c30565b8101906020818303126106035780519067ffffffffffffffff8211610603570181601f820112156106035780519067ffffffffffffffff8211610b6d5760405192610b4960207fffffffffffffffffffffffffffffffffffffffffffffffffffffffffffffffe0601f8601160185610c30565b8284526020838301011161060357815f9260208093018386015e8301015281610aa9565b7f4e487b71000000000000000000000000000000000000000000000000000000005f52604160045260245ffd5b60646040517f08c379a000000000000000000000000000000000000000000000000000000000815260206004820152601660248201527f4f6e6c79206465706c6f7965722063616e2063616c6c000000000000000000006044820152fd5b6080810190811067ffffffffffffffff821117610b6d57604052565b60a0810190811067ffffffffffffffff821117610b6d57604052565b90601f7fffffffffffffffffffffffffffffffffffffffffffffffffffffffffffffffe0910116810190811067ffffffffffffffff821117610b6d57604052565b359073ffffffffffffffffffffffffffffffffffffffff8216820361060357565b35908160020b820361060357565b7fffffffffffffffffffffffffffffffffffffffffffffffffffffffffffffffe0601f602060409481855280519182918282880152018686015e5f8582860101520116010190565b91929073ffffffffffffffffffffffffffffffffffffffff16803b15610603575f928360649273ffffffffffffffffffffffffffffffffffffffff948560405198899788967f0b0d9c0900000000000000000000000000000000000000000000000000000000885216600487015216602485015260448401525af180156105f857610d705750565b5f610d7a91610c30565b565b90816020910312610603575180151581036106035790565b90816020910312610603575190565b90919073ffffffffffffffffffffffffffffffffffffffff1680610e4357505073ffffffffffffffffffffffffffffffffffffffff600460209260405194859384927f11da60b4000000000000000000000000000000000000000000000000000000008452165af180156105f857610e185750565b610e399060203d602011610e3c575b610e318183610c30565b810190610d94565b50565b503d610e27565b90929173ffffffffffffffffffffffffffffffffffffffff1691823b1561060357604051937fa58411940000000000000000000000000000000000000000000000000000000085528260048601525a945f816024818389819bf180156105f857611013575b5073ffffffffffffffffffffffffffffffffffffffff1684308214610f9f576020929160649160405195869485937f23b872dd000000000000000000000000000000000000000000000000000000008552600485015288602485015260448401525af18015610f9457916020918493610f67575b505b6004604051809581937f11da60b40000000000000000000000000000000000000000000000000000000083525af1908115610f5b5750610e185750565b604051903d90823e3d90fd5b610f8690833d8511610f8d575b610f7e8183610c30565b810190610d7c565b505f610f1c565b503d610f74565b6040513d85823e3d90fd5b929050604460209260405194859384927fa9059cbb00000000000000000000000000000000000000000000000000000000845288600485015260248401525af18015610f9457916020918493610ff6575b50610f1e565b61100c90833d8511610f8d57610f7e8183610c30565b505f610ff0565b6110209195505f90610c30565b5f9373ffffffffffffffffffffffffffffffffffffffff610ea856fea164736f6c634300081a000a00000000000000000000000076e9e1affde82bb4544ce95ea58ffc2f9d45061f000000000000000000000000c5fb60de90960712b938dc19a7dc8a904d039540",
        "nonce": "0xe6b",
        "chainId": "0xaa36a7"
      },
      "additionalContracts": [],
      "isFixedGasLimit": false
    },
    {
      "hash": "0x4e888f14874dc3615c91eefa886b5a244827447963f682f748fc1817163a25b5",
      "transactionType": "CALL",
      "contractName": null,
      "contractAddress": "0x1c7d4b196cb0c7b01d743fbc6116a902379c7238",
      "function": "approve(address,uint256)",
      "arguments": [
        "0x7E3AC0c464A0263aEd4BE2B26961999B35c8366D",
        "115792089237316195423570985008687907853269984665640564039457584007913129639935"
      ],
      "transaction": {
        "from": "0x63f976191f9dd75bd5b0fd81320d37fbc0d74080",
        "to": "0x1c7d4b196cb0c7b01d743fbc6116a902379c7238",
        "gas": "0x13eb1",
        "value": "0x0",
        "input": "0x095ea7b30000000000000000000000007e3ac0c464a0263aed4be2b26961999b35c8366dffffffffffffffffffffffffffffffffffffffffffffffffffffffffffffffff",
        "nonce": "0xe6c",
        "chainId": "0xaa36a7"
      },
      "additionalContracts": [],
      "isFixedGasLimit": false
    },
    {
      "hash": "0xd5442e0caa97af166090613cd669be37e97eb24e51e9645ca398d290539758d0",
      "transactionType": "CALL",
      "contractName": null,
      "contractAddress": "0xfff9976782d46cc05630d1f6ebab18b2324d6b14",
      "function": "approve(address,uint256)",
      "arguments": [
        "0x7E3AC0c464A0263aEd4BE2B26961999B35c8366D",
        "115792089237316195423570985008687907853269984665640564039457584007913129639935"
      ],
      "transaction": {
        "from": "0x63f976191f9dd75bd5b0fd81320d37fbc0d74080",
        "to": "0xfff9976782d46cc05630d1f6ebab18b2324d6b14",
        "gas": "0xfa27",
        "value": "0x0",
        "input": "0x095ea7b30000000000000000000000007e3ac0c464a0263aed4be2b26961999b35c8366dffffffffffffffffffffffffffffffffffffffffffffffffffffffffffffffff",
        "nonce": "0xe6d",
        "chainId": "0xaa36a7"
      },
      "additionalContracts": [],
      "isFixedGasLimit": false
    },
    {
      "hash": "0xea9b239dedecd87190205b5559cdc73e10f26a1449c0b1923af6566296ef470b",
      "transactionType": "CALL",
      "contractName": "CompoundHelper",
      "contractAddress": "0x7e3ac0c464a0263aed4be2b26961999b35c8366d",
      "function": "executeCompound((address,address,uint24,int24,address),(int24,int24,int256,bytes32),uint256,uint256)",
      "arguments": [
        "(0x1c7D4B196Cb0C7B01d743Fbc6116a902379C7238, 0xfFf9976782d46CC05630D1f6eBAb18b2324d6B14, 3000, 60, 0xC5fB60De90960712B938dC19a7DC8a904d039540)",
        "(659940, 779940, 13, 0x0000000000000000000000000000000000000000000000000000000000000000)",
        "54000",
        "54000000000000"
      ],
      "transaction": {
        "from": "0x63f976191f9dd75bd5b0fd81320d37fbc0d74080",
        "to": "0x7e3ac0c464a0263aed4be2b26961999b35c8366d",
        "gas": "0x55ff5",
        "value": "0x0",
        "input": "0x1cd625370000000000000000000000001c7d4b196cb0c7b01d743fbc6116a902379c7238000000000000000000000000fff9976782d46cc05630d1f6ebab18b2324d6b140000000000000000000000000000000000000000000000000000000000000bb8000000000000000000000000000000000000000000000000000000000000003c000000000000000000000000c5fb60de90960712b938dc19a7dc8a904d03954000000000000000000000000000000000000000000000000000000000000a11e400000000000000000000000000000000000000000000000000000000000be6a4000000000000000000000000000000000000000000000000000000000000000d0000000000000000000000000000000000000000000000000000000000000000000000000000000000000000000000000000000000000000000000000000d2f00000000000000000000000000000000000000000000000000000311cdad16000",
        "nonce": "0xe6e",
        "chainId": "0xaa36a7"
      },
      "additionalContracts": [],
      "isFixedGasLimit": false
    }
  ],
  "receipts": [
    {
      "status": "0x1",
      "cumulativeGasUsed": "0x470d58",
      "logs": [],
      "logsBloom": "0x00000000000000000000000000000000000000000000000000000000000000000000000000000000000000000000000000000000000000000000000000000000000000000000000000000000000000000000000000000000000000000000000000000000000000000000000000000000000000000000000000000000000000000000000000000000000000000000000000000000000000000000000000000000000000000000000000000000000000000000000000000000000000000000000000000000000000000000000000000000000000000000000000000000000000000000000000000000000000000000000000000000000000000000000000000000",
      "type": "0x2",
      "transactionHash": "0x4e888f14874dc3615c91eefa886b5a244827447963f682f748fc1817163a25b5",
      "transactionIndex": "0x2f",
      "blockHash": "0xe4e8a53d91a2482fbdfbf299d06801c6667353c342005e2658cd7eec337c9081",
      "blockNumber": "0x9875f9",
      "gasUsed": "0xe8294",
      "effectiveGasPrice": "0x15170f",
      "from": "0x63f976191f9dd75bd5b0fd81320d37fbc0d74080",
      "to": null,
      "contractAddress": "0x7e3ac0c464a0263aed4be2b26961999b35c8366d"
    },
    {
      "status": "0x1",
      "cumulativeGasUsed": "0x47e741",
      "logs": [
        {
          "address": "0x1c7d4b196cb0c7b01d743fbc6116a902379c7238",
          "topics": [
            "0x8c5be1e5ebec7d5bd14f71427d1e84f3dd0314c0f7b2291e5b200ac8c7c3b925",
            "0x00000000000000000000000063f976191f9dd75bd5b0fd81320d37fbc0d74080",
            "0x0000000000000000000000007e3ac0c464a0263aed4be2b26961999b35c8366d"
          ],
          "data": "0xffffffffffffffffffffffffffffffffffffffffffffffffffffffffffffffff",
          "blockHash": "0xe4e8a53d91a2482fbdfbf299d06801c6667353c342005e2658cd7eec337c9081",
          "blockNumber": "0x9875f9",
          "blockTimestamp": "0x695d5034",
          "transactionHash": "0xd5442e0caa97af166090613cd669be37e97eb24e51e9645ca398d290539758d0",
          "transactionIndex": "0x30",
          "logIndex": "0x26",
          "removed": false
        }
      ],
      "logsBloom": "0x00000000000000000000000000000000000000000000000000000000000200000000000000000000000000000000000000000000000010000000000000200000000000000000000000000000000000000000000000000000000000000000000000000000000000000000000200000000000000000000000000000000000000000100000000100000000000000000000000000000000000000000000000000000020000400000000000000000000000000000000000000000000000000000000000000000000000000000000000000000000000000000000000000000000100000010000000000000000010020000000000000000000000000000000000000000",
      "type": "0x2",
      "transactionHash": "0xd5442e0caa97af166090613cd669be37e97eb24e51e9645ca398d290539758d0",
      "transactionIndex": "0x30",
      "blockHash": "0xe4e8a53d91a2482fbdfbf299d06801c6667353c342005e2658cd7eec337c9081",
      "blockNumber": "0x9875f9",
      "gasUsed": "0xd9e9",
      "effectiveGasPrice": "0x15170f",
      "from": "0x63f976191f9dd75bd5b0fd81320d37fbc0d74080",
      "to": "0x1c7d4b196cb0c7b01d743fbc6116a902379c7238",
      "contractAddress": null
    },
    {
      "status": "0x1",
      "cumulativeGasUsed": "0x489c5d",
      "logs": [
        {
          "address": "0xfff9976782d46cc05630d1f6ebab18b2324d6b14",
          "topics": [
            "0x8c5be1e5ebec7d5bd14f71427d1e84f3dd0314c0f7b2291e5b200ac8c7c3b925",
            "0x00000000000000000000000063f976191f9dd75bd5b0fd81320d37fbc0d74080",
            "0x0000000000000000000000007e3ac0c464a0263aed4be2b26961999b35c8366d"
          ],
          "data": "0xffffffffffffffffffffffffffffffffffffffffffffffffffffffffffffffff",
          "blockHash": "0xe4e8a53d91a2482fbdfbf299d06801c6667353c342005e2658cd7eec337c9081",
          "blockNumber": "0x9875f9",
          "blockTimestamp": "0x695d5034",
          "transactionHash": "0xea9b239dedecd87190205b5559cdc73e10f26a1449c0b1923af6566296ef470b",
          "transactionIndex": "0x31",
          "logIndex": "0x27",
          "removed": false
        }
      ],
      "logsBloom": "0x00000000000000000000000000000000000000000000000000000000000000000000000000000000000000000000000000000000000010000000000000200000000000000000000000000000000000000000000000000000000000000000000000000000000000000000000200000000000000000000000000000000000000000140000000000000000000000000000000000000000000000000000000000000020020400000000000000000000000000000000000000000000000000000000000000000000000000002000000000000000000000000000000000000000100000010000000000000000000020000000000000000000000000000000000000000",
      "type": "0x2",
      "transactionHash": "0xea9b239dedecd87190205b5559cdc73e10f26a1449c0b1923af6566296ef470b",
      "transactionIndex": "0x31",
      "blockHash": "0xe4e8a53d91a2482fbdfbf299d06801c6667353c342005e2658cd7eec337c9081",
      "blockNumber": "0x9875f9",
      "gasUsed": "0xb51c",
      "effectiveGasPrice": "0x15170f",
      "from": "0x63f976191f9dd75bd5b0fd81320d37fbc0d74080",
      "to": "0xfff9976782d46cc05630d1f6ebab18b2324d6b14",
      "contractAddress": null
    },
    {
      "status": "0x1",
      "cumulativeGasUsed": "0x4c8089",
      "logs": [
        {
          "address": "0x76e9e1affde82bb4544ce95ea58ffc2f9d45061f",
          "topics": [
            "0xf208f4912782fd25c7f114ca3723a2d5dd6f3bcc3ac8db5af63baa85f711d5ec",
            "0xc6dd5a3d7384ff97515ee981285684484b76e083ae1580aa0e6454907db65559",
            "0x0000000000000000000000007e3ac0c464a0263aed4be2b26961999b35c8366d"
          ],
          "data": "0x00000000000000000000000000000000000000000000000000000000000a11e400000000000000000000000000000000000000000000000000000000000be6a4000000000000000000000000000000000000000000000000000000000000000d0000000000000000000000000000000000000000000000000000000000000000",
          "blockHash": "0xe4e8a53d91a2482fbdfbf299d06801c6667353c342005e2658cd7eec337c9081",
          "blockNumber": "0x9875f9",
          "blockTimestamp": "0x695d5034",
          "transactionHash": "0x42be029e5d978dcd9c31a9cec0a3f410b2d0b89269f052f223e837093f71e4bd",
          "transactionIndex": "0x32",
          "logIndex": "0x28",
          "removed": false
        },
        {
          "address": "0x1c7d4b196cb0c7b01d743fbc6116a902379c7238",
          "topics": [
            "0xddf252ad1be2c89b69c2b068fc378daa952ba7f163c4a11628f55a4df523b3ef",
            "0x00000000000000000000000063f976191f9dd75bd5b0fd81320d37fbc0d74080",
            "0x00000000000000000000000076e9e1affde82bb4544ce95ea58ffc2f9d45061f"
          ],
          "data": "0x0000000000000000000000000000000000000000000000000000000000000001",
          "blockHash": "0xe4e8a53d91a2482fbdfbf299d06801c6667353c342005e2658cd7eec337c9081",
          "blockNumber": "0x9875f9",
          "blockTimestamp": "0x695d5034",
          "transactionHash": "0x42be029e5d978dcd9c31a9cec0a3f410b2d0b89269f052f223e837093f71e4bd",
          "transactionIndex": "0x32",
          "logIndex": "0x29",
          "removed": false
        },
        {
          "address": "0xfff9976782d46cc05630d1f6ebab18b2324d6b14",
          "topics": [
            "0xddf252ad1be2c89b69c2b068fc378daa952ba7f163c4a11628f55a4df523b3ef",
            "0x00000000000000000000000063f976191f9dd75bd5b0fd81320d37fbc0d74080",
            "0x00000000000000000000000076e9e1affde82bb4544ce95ea58ffc2f9d45061f"
          ],
          "data": "0x0000000000000000000000000000000000000000000000000000301d3759cac7",
          "blockHash": "0xe4e8a53d91a2482fbdfbf299d06801c6667353c342005e2658cd7eec337c9081",
          "blockNumber": "0x9875f9",
          "blockTimestamp": "0x695d5034",
          "transactionHash": "0x42be029e5d978dcd9c31a9cec0a3f410b2d0b89269f052f223e837093f71e4bd",
          "transactionIndex": "0x32",
          "logIndex": "0x2a",
          "removed": false
        },
        {
          "address": "0xc5fb60de90960712b938dc19a7dc8a904d039540",
          "topics": [
            "0x09f360c713956e5eede31eb1105cc6adde9bcc9985923f91149a659b6968bdb2",
            "0xc6dd5a3d7384ff97515ee981285684484b76e083ae1580aa0e6454907db65559"
          ],
          "data": "0x00000000000000000000000000000000000000000000000000000000000000000000000000000000000000000000000000000000000000000000000000000000",
          "blockHash": "0xe4e8a53d91a2482fbdfbf299d06801c6667353c342005e2658cd7eec337c9081",
          "blockNumber": "0x9875f9",
          "blockTimestamp": "0x695d5034",
          "transactionHash": "0x42be029e5d978dcd9c31a9cec0a3f410b2d0b89269f052f223e837093f71e4bd",
          "transactionIndex": "0x32",
          "logIndex": "0x2b",
          "removed": false
        },
        {
          "address": "0xc5fb60de90960712b938dc19a7dc8a904d039540",
          "topics": [
            "0xd42d7c103a3f8c3e5ac90a89545366e71021f08607dbf85d19e0f88484d1bd85",
            "0xc6dd5a3d7384ff97515ee981285684484b76e083ae1580aa0e6454907db65559"
          ],
          "data": "0x0000000000000000000000000000000000000000000000000000000000000000000000000000000000000000000000000000000000000000000000000000000000000000000000000000000000000000000000000000000000000000000000000000000000000000000000000000000000000000000000000000000000030d40000000000000000000000000000000000000000000000000000000000000000000000000000000000000000000000000000000000000000000000000695d5034",
          "blockHash": "0xe4e8a53d91a2482fbdfbf299d06801c6667353c342005e2658cd7eec337c9081",
          "blockNumber": "0x9875f9",
          "blockTimestamp": "0x695d5034",
          "transactionHash": "0x42be029e5d978dcd9c31a9cec0a3f410b2d0b89269f052f223e837093f71e4bd",
          "transactionIndex": "0x32",
          "logIndex": "0x2c",
          "removed": false
        }
      ],
      "logsBloom": "0x00001000000000000000000000000000000000000000000001000000000200000000000000000000000000140000000000000000000010000000000000000000000004000000000000000008000000000000000000001800000000000000010000000000000000000000000200000000000000208000000000000010000000000140000001100000000000000000010000001000000000000000000008000000000024400000000000000000000000000000000000000000000001000010000000000002000000000002000000000000000000000000000000008000008100000000000000000000000010020000000004002000000000000000000000000000",
      "type": "0x2",
      "transactionHash": "0x42be029e5d978dcd9c31a9cec0a3f410b2d0b89269f052f223e837093f71e4bd",
      "transactionIndex": "0x32",
      "blockHash": "0xe4e8a53d91a2482fbdfbf299d06801c6667353c342005e2658cd7eec337c9081",
      "blockNumber": "0x9875f9",
      "gasUsed": "0x3e42c",
      "effectiveGasPrice": "0x15170f",
      "from": "0x63f976191f9dd75bd5b0fd81320d37fbc0d74080",
      "to": "0x7e3ac0c464a0263aed4be2b26961999b35c8366d",
      "contractAddress": null
    }
  ],
  "libraries": [],
  "pending": [],
  "returns": {},
  "timestamp": 1767723061056,
  "chain": 11155111,
  "commit": "7e25353"
}