{
  "transactions": [
    {
      "hash": "0x1f464d2d2d55892d6ee639d3b33b95bee4e128e866e48190c543506f038d7155",
      "transactionType": "CREATE",
      "contractName": "CompoundHelper",
      "contractAddress": "0x2aad5651f2ca73dfbeb5355c3b56a2207d5ade6b",
      "function": null,
      "arguments": [
        "0x76E9E1AFFDe82bb4544cE95EA58fFc2f9D45061f",
        "0x5C13377F19B9AEB3CB00Fcc8E58e9A2B43889540"
      ],
      "transaction": {
        "from": "0x63f976191f9dd75bd5b0fd81320d37fbc0d74080",
        "gas": "0x15b21b",
        "value": "0x0",
        "input": "0x60e0346100d057601f6113cb38819003918201601f19168301916001600160401b038311848410176100d45780849260409485528339810103126100d0578051906001600160a01b03821682036100d05760200151906001600160a01b03821682036100d05760805260a0523360c0526040516112e290816100e98239608051818181609b015281816101a00152610cf5015260a0518181816104f10152610a2b015260c05181818161010d0152818161041d01528181610471015281816108c40152818161091d0152610ba40152f35b5f80fd5b634e487b7160e01b5f52604160045260245ffdfe60806040526004361015610011575f80fd5b5f803560e01c80631cd6253714610a4f5780637f5a7c7b146109e157806391dd734614610131578063d5f39488146100c25763dc4c90d314610051575f80fd5b346100bf57807ffffffffffffffffffffffffffffffffffffffffffffffffffffffffffffffffc3601126100bf57602060405173ffffffffffffffffffffffffffffffffffffffff7f0000000000000000000000000000000000000000000000000000000000000000168152f35b80fd5b50346100bf57807ffffffffffffffffffffffffffffffffffffffffffffffffffffffffffffffffc3601126100bf57602060405173ffffffffffffffffffffffffffffffffffffffff7f0000000000000000000000000000000000000000000000000000000000000000168152f35b503461087f5760207ffffffffffffffffffffffffffffffffffffffffffffffffffffffffffffffffc36011261087f5760043567ffffffffffffffff811161087f573660238201121561087f57806004013567ffffffffffffffff811161087f57810136602482011161087f577f00000000000000000000000000000000000000000000000000000000000000009073ffffffffffffffffffffffffffffffffffffffff8216803303610983576101608483031261087f57604051916101f683610e74565b60a08582031261087f576040519061020d82610e90565b61021960248701610eed565b825261022760448701610eed565b6020830152606486013562ffffff8116810361087f57604083015261024e60848701610f0e565b606083015260a48601359173ffffffffffffffffffffffffffffffffffffffff8316830361087f578660249282608095867fffffffffffffffffffffffffffffffffffffffffffffffffffffffffffffff3c95015287520301011261087f57610393610164604092818451976102c389610e74565b6102cf60c48201610f0e565b89526102dd60e48201610f0e565b60208a0152610104810135868a015261012481013560608a015288602088015261014481013586880152013560608601525f8551916103c18651998a9687957f5a6bcfda000000000000000000000000000000000000000000000000000000008752600487019073ffffffffffffffffffffffffffffffffffffffff6080809282815116855282602082015116602086015262ffffff6040820151166040860152606081015160020b6060860152015116910152565b8051600290810b60a48701526020820151900b60c4860152604081015160e486015260600151610104850152565b610140610124840152816101448401525af1918215610874575f935f93610948575b508360801d600f0b84600f0b905f81125f146108ef576104429073ffffffffffffffffffffffffffffffffffffffff85515116905f0390847f000000000000000000000000000000000000000000000000000000000000000091611047565b5f811215610893576104969073ffffffffffffffffffffffffffffffffffffffff60208551015116905f0390837f000000000000000000000000000000000000000000000000000000000000000091611047565b8260801d5f81600f0b135f1461088b576fffffffffffffffffffffffffffffffff16925b5f81600f0b135f14610883576fffffffffffffffffffffffffffffffff16925b73ffffffffffffffffffffffffffffffffffffffff7f00000000000000000000000000000000000000000000000000000000000000001693835191853b1561087f5761059a604051937fa22092e7000000000000000000000000000000000000000000000000000000008552600485019073ffffffffffffffffffffffffffffffffffffffff6080809282815116855282602082015116602086015262ffffff6040820151166040860152606081015160020b6060860152015116910152565b60a483015260c48201525f8160e48183885af180156108745761085f575b506040517fca7ce2bf000000000000000000000000000000000000000000000000000000008152602081600481875afa908115610854578691610835575b50604051907f541e63a8000000000000000000000000000000000000000000000000000000008252602082600481885afa91821561082a5787926107e7575b506fffffffffffffffffffffffffffffffff168015801580916107cc575b610684575b6106808760405190602082015260208152610674604082610eac565b60405191829182610f1c565b0390f35b916fffffffffffffffffffffffffffffffff91889594936107a2575b50168481610775575b50505051823b156107665760a461073a918360405195869485937f701f4f57000000000000000000000000000000000000000000000000000000008552600485019073ffffffffffffffffffffffffffffffffffffffff6080809282815116855282602082015116602086015262ffffff6040820151166040860152606081015160020b6060860152015116910152565b5af1801561076a57610751575b8080808080610658565b61075c838092610eac565b6107665781610747565b5080fd5b6040513d85823e3d90fd5b61079a9273ffffffffffffffffffffffffffffffffffffffff60208651015116610f8c565b5f80846106a9565b6107c690878573ffffffffffffffffffffffffffffffffffffffff88515116610f8c565b5f6106a0565b506fffffffffffffffffffffffffffffffff83161515610653565b6fffffffffffffffffffffffffffffffff91925061081c9060203d602011610823575b6108148183610eac565b810190610f64565b9190610635565b503d61080a565b6040513d89823e3d90fd5b61084e915060203d602011610823576108148183610eac565b5f6105f6565b6040513d88823e3d90fd5b61086c9195505f90610eac565b5f935f6105b8565b6040513d5f823e3d90fd5b5f80fd5b505f926104da565b505f926104ba565b5f81136108a1575b50610496565b6108e99073ffffffffffffffffffffffffffffffffffffffff60208551015116837f000000000000000000000000000000000000000000000000000000000000000091610f8c565b5f61089b565b5f81136108fd575b50610442565b6109429073ffffffffffffffffffffffffffffffffffffffff85515116847f000000000000000000000000000000000000000000000000000000000000000091610f8c565b5f6108f7565b935091506040833d60401161097b575b8161096560409383610eac565b8101031261087f5760208351930151915f6103e3565b3d9150610958565b60646040517f08c379a000000000000000000000000000000000000000000000000000000000815260206004820152601960248201527f4f6e6c7920506f6f6c4d616e616765722063616e2063616c6c000000000000006044820152fd5b3461087f575f7ffffffffffffffffffffffffffffffffffffffffffffffffffffffffffffffffc36011261087f57602060405173ffffffffffffffffffffffffffffffffffffffff7f0000000000000000000000000000000000000000000000000000000000000000168152f35b3461087f577ffffffffffffffffffffffffffffffffffffffffffffffffffffffffffffffffc3601610160811261087f5760a01361087f57604051610a9381610e90565b60043573ffffffffffffffffffffffffffffffffffffffff8116810361087f57815260243573ffffffffffffffffffffffffffffffffffffffff8116810361087f57602082015260443562ffffff8116810361087f5760408201526064358060020b810361087f57606082015260843573ffffffffffffffffffffffffffffffffffffffff8116810361087f57608082015260807fffffffffffffffffffffffffffffffffffffffffffffffffffffffffffffff5c36011261087f57604051610b5b81610e74565b60a4358060020b810361087f57815260c4358060020b810361087f57602082015260e435604082015261010435606082015273ffffffffffffffffffffffffffffffffffffffff7f0000000000000000000000000000000000000000000000000000000000000000163303610e1657610cdb915f91604051610bdc81610e74565b82815260208101918252610c89606060408301926101243584520192610144358452610c5960405195602087019073ffffffffffffffffffffffffffffffffffffffff6080809282815116855282602082015116602086015262ffffff6040820151166040860152606081015160020b6060860152015116910152565b518051600290810b60c08701526020820151900b60e0860152604081015161010086015260600151610120850152565b51610140830152516101608201526101608152610ca861018082610eac565b604051809381927f48c8949100000000000000000000000000000000000000000000000000000000835260048301610f1c565b03818373ffffffffffffffffffffffffffffffffffffffff7f0000000000000000000000000000000000000000000000000000000000000000165af1908115610874575f91610d41575b5060208180518101031261087f57602080910151604051908152f35b90503d805f833e610d528183610eac565b81019060208183031261087f5780519067ffffffffffffffff821161087f570181601f8201121561087f5780519067ffffffffffffffff8211610de95760405192610dc560207fffffffffffffffffffffffffffffffffffffffffffffffffffffffffffffffe0601f8601160185610eac565b8284526020838301011161087f57815f9260208093018386015e8301015281610d25565b7f4e487b71000000000000000000000000000000000000000000000000000000005f52604160045260245ffd5b60646040517f08c379a000000000000000000000000000000000000000000000000000000000815260206004820152601660248201527f4f6e6c79206465706c6f7965722063616e2063616c6c000000000000000000006044820152fd5b6080810190811067ffffffffffffffff821117610de957604052565b60a0810190811067ffffffffffffffff821117610de957604052565b90601f7fffffffffffffffffffffffffffffffffffffffffffffffffffffffffffffffe0910116810190811067ffffffffffffffff821117610de957604052565b359073ffffffffffffffffffffffffffffffffffffffff8216820361087f57565b35908160020b820361087f57565b7fffffffffffffffffffffffffffffffffffffffffffffffffffffffffffffffe0601f602060409481855280519182918282880152018686015e5f8582860101520116010190565b9081602091031261087f57516fffffffffffffffffffffffffffffffff8116810361087f5790565b91929073ffffffffffffffffffffffffffffffffffffffff16803b1561087f575f928360649273ffffffffffffffffffffffffffffffffffffffff948560405198899788967f0b0d9c0900000000000000000000000000000000000000000000000000000000885216600487015216602485015260448401525af18015610874576110145750565b5f61101e91610eac565b565b9081602091031261087f5751801515810361087f5790565b9081602091031261087f575190565b90919073ffffffffffffffffffffffffffffffffffffffff16806110e757505073ffffffffffffffffffffffffffffffffffffffff600460209260405194859384927f11da60b4000000000000000000000000000000000000000000000000000000008452165af18015610874576110bc5750565b6110dd9060203d6020116110e0575b6110d58183610eac565b810190611038565b50565b503d6110cb565b90929173ffffffffffffffffffffffffffffffffffffffff1691823b1561087f57604051937fa58411940000000000000000000000000000000000000000000000000000000085528260048601525a945f816024818389819bf18015610874576112ac575b5073ffffffffffffffffffffffffffffffffffffffff1684308214611238576020929160649160405195869485937f23b872dd000000000000000000000000000000000000000000000000000000008552600485015288602485015260448401525af1801561076a5791602091849361120b575b505b6004604051809581937f11da60b40000000000000000000000000000000000000000000000000000000083525af19081156111ff57506110bc5750565b604051903d90823e3d90fd5b61122a90833d8511611231575b6112228183610eac565b810190611020565b505f6111c0565b503d611218565b929050604460209260405194859384927fa9059cbb00000000000000000000000000000000000000000000000000000000845288600485015260248401525af1801561076a5791602091849361128f575b506111c2565b6112a590833d8511611231576112228183610eac565b505f611289565b6112b99195505f90610eac565b5f9373ffffffffffffffffffffffffffffffffffffffff61114c56fea164736f6c634300081a000a00000000000000000000000076e9e1affde82bb4544ce95ea58ffc2f9d45061f0000000000000000000000005c13377f19b9aeb3cb00fcc8e58e9a2b43889540",
        "nonce": "0xe9a",
        "chainId": "0xaa36a7"
      },
      "additionalContracts": [],
      "isFixedGasLimit": false
    },
    {
      "hash": "0x6f4483a3f545c201ff69af9a78e65e269e199243ffc09e3f94167be31b99f179",
      "transactionType": "CALL",
      "contractName": null,
      "contractAddress": "0x1c7d4b196cb0c7b01d743fbc6116a902379c7238",
      "function": "approve(address,uint256)",
      "arguments": [
        "0x2aaD5651F2Ca73DFbeB5355c3b56A2207d5ADe6b",
        "115792089237316195423570985008687907853269984665640564039457584007913129639935"
      ],
      "transaction": {
        "from": "0x63f976191f9dd75bd5b0fd81320d37fbc0d74080",
        "to": "0x1c7d4b196cb0c7b01d743fbc6116a902379c7238",
        "gas": "0x13eb1",
        "value": "0x0",
        "input": "0x095ea7b30000000000000000000000002aad5651f2ca73dfbeb5355c3b56a2207d5ade6bffffffffffffffffffffffffffffffffffffffffffffffffffffffffffffffff",
        "nonce": "0xe9b",
        "chainId": "0xaa36a7"
      },
      "additionalContracts": [],
      "isFixedGasLimit": false
    },
    {
      "hash": "0xa0d94b1b429363f3c2aca440c3b2a4bc084c1fd956e5efc9f0f9c84eb30fdd47",
      "transactionType": "CALL",
      "contractName": null,
      "contractAddress": "0xfff9976782d46cc05630d1f6ebab18b2324d6b14",
      "function": "approve(address,uint256)",
      "arguments": [
        "0x2aaD5651F2Ca73DFbeB5355c3b56A2207d5ADe6b",
        "115792089237316195423570985008687907853269984665640564039457584007913129639935"
      ],
      "transaction": {
        "from": "0x63f976191f9dd75bd5b0fd81320d37fbc0d74080",
        "to": "0xfff9976782d46cc05630d1f6ebab18b2324d6b14",
        "gas": "0xfa27",
        "value": "0x0",
        "input": "0x095ea7b30000000000000000000000002aad5651f2ca73dfbeb5355c3b56a2207d5ade6bffffffffffffffffffffffffffffffffffffffffffffffffffffffffffffffff",
        "nonce": "0xe9c",
        "chainId": "0xaa36a7"
      },
      "additionalContracts": [],
      "isFixedGasLimit": false
    },
    {
      "hash": "0x2461c6b4f7f82e572e365d0930f7766532d8d02a682f21e9d36917fe730ed1c5",
      "transactionType": "CALL",
      "contractName": "CompoundHelper",
      "contractAddress": "0x2aad5651f2ca73dfbeb5355c3b56a2207d5ade6b",
      "function": "executeCompound((address,address,uint24,int24,address),(int24,int24,int256,bytes32),uint256,uint256)",
      "arguments": [
        "(0x1c7D4B196Cb0C7B01d743Fbc6116a902379C7238, 0xfFf9976782d46CC05630D1f6eBAb18b2324d6B14, 3000, 60, 0x5C13377F19B9AEB3CB00Fcc8E58e9A2B43889540)",
        "(659940, 779940, 4, 0x0000000000000000000000000000000000000000000000000000000000000000)",
        "15000",
        "15000000000000"
      ],
      "transaction": {
        "from": "0x63f976191f9dd75bd5b0fd81320d37fbc0d74080",
        "to": "0x2aad5651f2ca73dfbeb5355c3b56a2207d5ade6b",
        "gas": "0x578f9",
        "value": "0x0",
        "input": "0x1cd625370000000000000000000000001c7d4b196cb0c7b01d743fbc6116a902379c7238000000000000000000000000fff9976782d46cc05630d1f6ebab18b2324d6b140000000000000000000000000000000000000000000000000000000000000bb8000000000000000000000000000000000000000000000000000000000000003c0000000000000000000000005c13377f19b9aeb3cb00fcc8e58e9a2b4388954000000000000000000000000000000000000000000000000000000000000a11e400000000000000000000000000000000000000000000000000000000000be6a4000000000000000000000000000000000000000000000000000000000000000400000000000000000000000000000000000000000000000000000000000000000000000000000000000000000000000000000000000000000000000000003a9800000000000000000000000000000000000000000000000000000da475abf000",
        "nonce": "0xe9d",
        "chainId": "0xaa36a7"
      },
      "additionalContracts": [],
      "isFixedGasLimit": false
    }
  ],
  "receipts": [
    {
      "status": "0x1",
      "cumulativeGasUsed": "0xb6018a",
      "logs": [],
      "logsBloom": "0x00000000000000000000000000000000000000000000000000000000000000000000000000000000000000000000000000000000000000000000000000000000000000000000000000000000000000000000000000000000000000000000000000000000000000000000000000000000000000000000000000000000000000000000000000000000000000000000000000000000000000000000000000000000000000000000000000000000000000000000000000000000000000000000000000000000000000000000000000000000000000000000000000000000000000000000000000000000000000000000000000000000000000000000000000000000",
      "type": "0x2",
      "transactionHash": "0xa0d94b1b429363f3c2aca440c3b2a4bc084c1fd956e5efc9f0f9c84eb30fdd47",
      "transactionIndex": "0x2f",
      "blockHash": "0xeec9e6036f1d1960913d501f8226fdd3e14b51296519c214ff0d0706f8d94480",
      "blockNumber": "0x98768a",
      "gasUsed": "0x10b064",
      "effectiveGasPrice": "0xf4264",
      "from": "0x63f976191f9dd75bd5b0fd81320d37fbc0d74080",
      "to": null,
      "contractAddress": "0x2aad5651f2ca73dfbeb5355c3b56a2207d5ade6b"
    },
    {
      "status": "0x1",
      "cumulativeGasUsed": "0xb6db73",
      "logs": [
        {
          "address": "0x1c7d4b196cb0c7b01d743fbc6116a902379c7238",
          "topics": [
            "0x8c5be1e5ebec7d5bd14f71427d1e84f3dd0314c0f7b2291e5b200ac8c7c3b925",
            "0x00000000000000000000000063f976191f9dd75bd5b0fd81320d37fbc0d74080",
            "0x0000000000000000000000002aad5651f2ca73dfbeb5355c3b56a2207d5ade6b"
          ],
          "data": "0xffffffffffffffffffffffffffffffffffffffffffffffffffffffffffffffff",
          "blockHash": "0xeec9e6036f1d1960913d501f8226fdd3e14b51296519c214ff0d0706f8d94480",
          "blockNumber": "0x98768a",
          "blockTimestamp": "0x695d57cc",
          "transactionHash": "0x2461c6b4f7f82e572e365d0930f7766532d8d02a682f21e9d36917fe730ed1c5",
          "transactionIndex": "0x30",
          "logIndex": "0x43",
          "removed": false
        }
      ],
      "logsBloom": "0x00000000000000000000000000000000000000000000000000000000000200000000000000000000000000000000000000000000000010000000000000200000000000000000100000000000000000000000000000000000000000000000000000000000000000000000000000000000000000000000000000000000000000020000000000100000000000000000000000000000000000000000000000000000020000400000000000000000000000000000000008000000000000000000000000000000000000000000000000000000000000000000000000000000000000000010000000000000000010020000000000000000000000000000000000000000",
      "type": "0x2",
      "transactionHash": "0x2461c6b4f7f82e572e365d0930f7766532d8d02a682f21e9d36917fe730ed1c5",
      "transactionIndex": "0x30",
      "blockHash": "0xeec9e6036f1d1960913d501f8226fdd3e14b51296519c214ff0d0706f8d94480",
      "blockNumber": "0x98768a",
      "gasUsed": "0xd9e9",
      "effectiveGasPrice": "0xf4264",
      "from": "0x63f976191f9dd75bd5b0fd81320d37fbc0d74080",
      "to": "0x1c7d4b196cb0c7b01d743fbc6116a902379c7238",
      "contractAddress": null
    },
    {
      "status": "0x1",
      "cumulativeGasUsed": "0xb7908f",
      "logs": [
        {
          "address": "0xfff9976782d46cc05630d1f6ebab18b2324d6b14",
          "topics": [
            "0x8c5be1e5ebec7d5bd14f71427d1e84f3dd0314c0f7b2291e5b200ac8c7c3b925",
            "0x00000000000000000000000063f976191f9dd75bd5b0fd81320d37fbc0d74080",
            "0x0000000000000000000000002aad5651f2ca73dfbeb5355c3b56a2207d5ade6b"
          ],
          "data": "0xffffffffffffffffffffffffffffffffffffffffffffffffffffffffffffffff",
          "blockHash": "0xeec9e6036f1d1960913d501f8226fdd3e14b51296519c214ff0d0706f8d94480",
          "blockNumber": "0x98768a",
          "blockTimestamp": "0x695d57cc",
          "transactionHash": "0x1f464d2d2d55892d6ee639d3b33b95bee4e128e866e48190c543506f038d7155",
          "transactionIndex": "0x31",
          "logIndex": "0x44",
          "removed": false
        }
      ],
      "logsBloom": "0x00000000000000000000000000000000000000000000000000000000000000000000000000000000000000000000000000000000000010000000000000200000000000000000100000000000000000000000000000000000000000000000000000000000000000000000000000000000000000000000000000000000000000020040000000000000000000000000000000000000000000000000000000000000020020400000000000000000000000000000000008000000000000000000000000000000000000000002000000000000000000000000000000000000000000000010000000000000000000020000000000000000000000000000000000000000",
      "type": "0x2",
      "transactionHash": "0x1f464d2d2d55892d6ee639d3b33b95bee4e128e866e48190c543506f038d7155",
      "transactionIndex": "0x31",
      "blockHash": "0xeec9e6036f1d1960913d501f8226fdd3e14b51296519c214ff0d0706f8d94480",
      "blockNumber": "0x98768a",
      "gasUsed": "0xb51c",
      "effectiveGasPrice": "0xf4264",
      "from": "0x63f976191f9dd75bd5b0fd81320d37fbc0d74080",
      "to": "0xfff9976782d46cc05630d1f6ebab18b2324d6b14",
      "contractAddress": null
    },
    {
      "status": "0x1",
      "cumulativeGasUsed": "0xbb86d7",
      "logs": [
        {
          "address": "0x76e9e1affde82bb4544ce95ea58ffc2f9d45061f",
          "topics": [
            "0xf208f4912782fd25c7f114ca3723a2d5dd6f3bcc3ac8db5af63baa85f711d5ec",
            "0x6648efe854126eca977839455e095d4cb46e5035b64bc3aa0f8da2c5ebdce489",
            "0x0000000000000000000000002aad5651f2ca73dfbeb5355c3b56a2207d5ade6b"
          ],
          "data": "0x00000000000000000000000000000000000000000000000000000000000a11e400000000000000000000000000000000000000000000000000000000000be6a400000000000000000000000000000000000000000000000000000000000000040000000000000000000000000000000000000000000000000000000000000000",
          "blockHash": "0xeec9e6036f1d1960913d501f8226fdd3e14b51296519c214ff0d0706f8d94480",
          "blockNumber": "0x98768a",
          "blockTimestamp": "0x695d57cc",
          "transactionHash": "0x6f4483a3f545c201ff69af9a78e65e269e199243ffc09e3f94167be31b99f179",
          "transactionIndex": "0x32",
          "logIndex": "0x45",
          "removed": false
        },
        {
          "address": "0x1c7d4b196cb0c7b01d743fbc6116a902379c7238",
          "topics": [
            "0xddf252ad1be2c89b69c2b068fc378daa952ba7f163c4a11628f55a4df523b3ef",
            "0x00000000000000000000000063f976191f9dd75bd5b0fd81320d37fbc0d74080",
            "0x00000000000000000000000076e9e1affde82bb4544ce95ea58ffc2f9d45061f"
          ],
          "data": "0x0000000000000000000000000000000000000000000000000000000000000001",
          "blockHash": "0xeec9e6036f1d1960913d501f8226fdd3e14b51296519c214ff0d0706f8d94480",
          "blockNumber": "0x98768a",
          "blockTimestamp": "0x695d57cc",
          "transactionHash": "0x6f4483a3f545c201ff69af9a78e65e269e199243ffc09e3f94167be31b99f179",
          "transactionIndex": "0x32",
          "logIndex": "0x46",
          "removed": false
        },
        {
          "address": "0xfff9976782d46cc05630d1f6ebab18b2324d6b14",
          "topics": [
            "0xddf252ad1be2c89b69c2b068fc378daa952ba7f163c4a11628f55a4df523b3ef",
            "0x00000000000000000000000063f976191f9dd75bd5b0fd81320d37fbc0d74080",
            "0x00000000000000000000000076e9e1affde82bb4544ce95ea58ffc2f9d45061f"
          ],
          "data": "0x00000000000000000000000000000000000000000000000000000d000f3ce4b4",
          "blockHash": "0xeec9e6036f1d1960913d501f8226fdd3e14b51296519c214ff0d0706f8d94480",
          "blockNumber": "0x98768a",
          "blockTimestamp": "0x695d57cc",
          "transactionHash": "0x6f4483a3f545c201ff69af9a78e65e269e199243ffc09e3f94167be31b99f179",
          "transactionIndex": "0x32",
          "logIndex": "0x47",
          "removed": false
        },
        {
          "address": "0x5c13377f19b9aeb3cb00fcc8e58e9a2b43889540",
          "topics": [
            "0x09f360c713956e5eede31eb1105cc6adde9bcc9985923f91149a659b6968bdb2",
            "0x6648efe854126eca977839455e095d4cb46e5035b64bc3aa0f8da2c5ebdce489"
          ],
          "data": "0x00000000000000000000000000000000000000000000000000000000000000000000000000000000000000000000000000000000000000000000000000000000",
          "blockHash": "0xeec9e6036f1d1960913d501f8226fdd3e14b51296519c214ff0d0706f8d94480",
          "blockNumber": "0x98768a",
          "blockTimestamp": "0x695d57cc",
          "transactionHash": "0x6f4483a3f545c201ff69af9a78e65e269e199243ffc09e3f94167be31b99f179",
          "transactionIndex": "0x32",
          "logIndex": "0x48",
          "removed": false
        },
        {
          "address": "0x5c13377f19b9aeb3cb00fcc8e58e9a2b43889540",
          "topics": [
            "0xd42d7c103a3f8c3e5ac90a89545366e71021f08607dbf85d19e0f88484d1bd85",
            "0x6648efe854126eca977839455e095d4cb46e5035b64bc3aa0f8da2c5ebdce489"
          ],
          "data": "0x0000000000000000000000000000000000000000000000000000000000000000000000000000000000000000000000000000000000000000000000000000000000000000000000000000000000000000000000000000000000000000000000000000000000000000000000000000000000000000000000000000000000030d40000000000000000000000000000000000000000000000000000000000000000000000000000000000000000000000000000000000000000000000000695d57cc",
          "blockHash": "0xeec9e6036f1d1960913d501f8226fdd3e14b51296519c214ff0d0706f8d94480",
          "blockNumber": "0x98768a",
          "blockTimestamp": "0x695d57cc",
          "transactionHash": "0x6f4483a3f545c201ff69af9a78e65e269e199243ffc09e3f94167be31b99f179",
          "transactionIndex": "0x32",
          "logIndex": "0x49",
          "removed": false
        }
      ],
      "logsBloom": "0x00001000000000000000000000000000002000000000000000000000000200000000000000000000000020100000000000000000000010000000000000001000000000000000100000000008000000000000000000001800000000000000010000000000000000000000000000000000000000200000000000000010000000020040000001100000000000000000010000001000000000000000000008000000000024400000040000000000000000000000000008000000000001000010000000000002000000000002000000000000000000000000000000008000000000000000000000000000000010020000050004000000000000000000000000000000",
      "type": "0x2",
      "transactionHash": "0x6f4483a3f545c201ff69af9a78e65e269e199243ffc09e3f94167be31b99f179",
      "transactionIndex": "0x32",
      "blockHash": "0xeec9e6036f1d1960913d501f8226fdd3e14b51296519c214ff0d0706f8d94480",
      "blockNumber": "0x98768a",
      "gasUsed": "0x3f648",
      "effectiveGasPrice": "0xf4264",
      "from": "0x63f976191f9dd75bd5b0fd81320d37fbc0d74080",
      "to": "0x2aad5651f2ca73dfbeb5355c3b56a2207d5ade6b",
      "contractAddress": null
    }
  ],
  "libraries": [],
  "pending": [],
  "returns": {},
  "timestamp": 1767725006212,
  "chain": 11155111,
  "commit": "7e25353"
}