{
  "transactions": [
    {
      "hash": "0x4a6834892fdd170dcc3b0c530942f91c35cc2632a543d4d339eb7cd98e3c1c01",
      "transactionType": "CREATE",
      "contractName": "CompoundHelper",
      "contractAddress": "0x0b045303aa5df6a86a81951e9cb5c5fb657da8c6",
      "function": null,
      "arguments": [
        "0x76E9E1AFFDe82bb4544cE95EA58fFc2f9D45061f",
        "0x6A087B9340925E1c66273FAE8F7527c8754F1540"
      ],
      "transaction": {
        "from": "0x63f976191f9dd75bd5b0fd81320d37fbc0d74080",
        "gas": "0x12dcf3",
        "value": "0x0",
        "input": "0x60e0346100d057601f61113238819003918201601f19168301916001600160401b038311848410176100d45780849260409485528339810103126100d0578051906001600160a01b03821682036100d05760200151906001600160a01b03821682036100d05760805260a0523360c05260405161104990816100e98239608051818181609b015281816101a00152610a79015260a0518181816104f001526107af015260c05181818161010d0152818161041d0152818161047101528181610631015281816106a101526109280152f35b5f80fd5b634e487b7160e01b5f52604160045260245ffdfe60806040526004361015610011575f80fd5b5f803560e01c80631cd62537146107d35780637f5a7c7b1461076557806391dd734614610131578063d5f39488146100c25763dc4c90d314610051575f80fd5b346100bf57807ffffffffffffffffffffffffffffffffffffffffffffffffffffffffffffffffc3601126100bf57602060405173ffffffffffffffffffffffffffffffffffffffff7f0000000000000000000000000000000000000000000000000000000000000000168152f35b80fd5b50346100bf57807ffffffffffffffffffffffffffffffffffffffffffffffffffffffffffffffffc3601126100bf57602060405173ffffffffffffffffffffffffffffffffffffffff7f0000000000000000000000000000000000000000000000000000000000000000168152f35b346106035760207ffffffffffffffffffffffffffffffffffffffffffffffffffffffffffffffffc3601126106035760043567ffffffffffffffff8111610603573660238201121561060357806004013567ffffffffffffffff811161060357810190366024830111610603577f00000000000000000000000000000000000000000000000000000000000000009173ffffffffffffffffffffffffffffffffffffffff8316803303610707576101608383031261060357604051916101f683610bf8565b60a084820312610603576040519061020d82610c14565b61021960248601610c71565b825261022760448601610c71565b6020830152606485013562ffffff8116810361060357604083015261024e60848601610c92565b606083015260a48501359173ffffffffffffffffffffffffffffffffffffffff83168303610603578560249282608095867fffffffffffffffffffffffffffffffffffffffffffffffffffffffffffffff3c95015287520301011261060357610393610164604092818451966102c388610bf8565b6102cf60c48201610c92565b88526102dd60e48201610c92565b602089015261010481013586890152610124810135606089015287602088015261014481013586880152013560608601525f8551916103c1865198899687957f5a6bcfda000000000000000000000000000000000000000000000000000000008752600487019073ffffffffffffffffffffffffffffffffffffffff6080809282815116855282602082015116602086015262ffffff6040820151166040860152606081015160020b6060860152015116910152565b8051600290810b60a48701526020820151900b60c4860152604081015160e486015260600151610104850152565b610140610124840152816101448401525af19283156105f8575f925f946106cc575b508260801d600f0b83600f0b905f81125f14610673576104429073ffffffffffffffffffffffffffffffffffffffff85515116905f0390847f000000000000000000000000000000000000000000000000000000000000000091610da3565b5f81121561061657906104969173ffffffffffffffffffffffffffffffffffffffff60208551015116905f03917f000000000000000000000000000000000000000000000000000000000000000091610da3565b8260801d5f81600f0b135f1461060e576fffffffffffffffffffffffffffffffff16925b5f81600f0b135f14610607576fffffffffffffffffffffffffffffffff165b73ffffffffffffffffffffffffffffffffffffffff7f000000000000000000000000000000000000000000000000000000000000000016915191803b15610603575f928360e4926105a39460405198899687957fa22092e7000000000000000000000000000000000000000000000000000000008752600487019073ffffffffffffffffffffffffffffffffffffffff6080809282815116855282602082015116602086015262ffffff6040820151166040860152606081015160020b6060860152015116910152565b60a485015260c48401525af19182156105f8576105e4926105e8575b50604051906020820152602081526105d8604082610c30565b60405191829182610ca0565b0390f35b5f6105f291610c30565b5f6105bf565b6040513d5f823e3d90fd5b5f80fd5b505f6104d9565b505f926104ba565b5f8113610625575b5050610496565b82516020015161066c927f00000000000000000000000000000000000000000000000000000000000000009173ffffffffffffffffffffffffffffffffffffffff16610ce8565b838061061e565b5f8113610681575b50610442565b6106c69073ffffffffffffffffffffffffffffffffffffffff85515116847f000000000000000000000000000000000000000000000000000000000000000091610ce8565b8561067b565b925092506040823d6040116106ff575b816106e960409383610c30565b81010312610603576020825192015192846103e3565b3d91506106dc565b60646040517f08c379a000000000000000000000000000000000000000000000000000000000815260206004820152601960248201527f4f6e6c7920506f6f6c4d616e616765722063616e2063616c6c000000000000006044820152fd5b34610603575f7ffffffffffffffffffffffffffffffffffffffffffffffffffffffffffffffffc36011261060357602060405173ffffffffffffffffffffffffffffffffffffffff7f0000000000000000000000000000000000000000000000000000000000000000168152f35b34610603577ffffffffffffffffffffffffffffffffffffffffffffffffffffffffffffffffc360161016081126106035760a0136106035760405161081781610c14565b60043573ffffffffffffffffffffffffffffffffffffffff8116810361060357815260243573ffffffffffffffffffffffffffffffffffffffff8116810361060357602082015260443562ffffff811681036106035760408201526064358060020b810361060357606082015260843573ffffffffffffffffffffffffffffffffffffffff8116810361060357608082015260807fffffffffffffffffffffffffffffffffffffffffffffffffffffffffffffff5c360112610603576040516108df81610bf8565b60a4358060020b810361060357815260c4358060020b810361060357602082015260e435604082015261010435606082015273ffffffffffffffffffffffffffffffffffffffff7f0000000000000000000000000000000000000000000000000000000000000000163303610b9a57610a5f915f9160405161096081610bf8565b82815260208101918252610a0d6060604083019261012435845201926101443584526109dd60405195602087019073ffffffffffffffffffffffffffffffffffffffff6080809282815116855282602082015116602086015262ffffff6040820151166040860152606081015160020b6060860152015116910152565b518051600290810b60c08701526020820151900b60e0860152604081015161010086015260600151610120850152565b51610140830152516101608201526101608152610a2c61018082610c30565b604051809381927f48c8949100000000000000000000000000000000000000000000000000000000835260048301610ca0565b03818373ffffffffffffffffffffffffffffffffffffffff7f0000000000000000000000000000000000000000000000000000000000000000165af19081156105f8575f91610ac5575b5060208180518101031261060357602080910151604051908152f35b90503d805f833e610ad68183610c30565b8101906020818303126106035780519067ffffffffffffffff8211610603570181601f820112156106035780519067ffffffffffffffff8211610b6d5760405192610b4960207fffffffffffffffffffffffffffffffffffffffffffffffffffffffffffffffe0601f8601160185610c30565b8284526020838301011161060357815f9260208093018386015e8301015281610aa9565b7f4e487b71000000000000000000000000000000000000000000000000000000005f52604160045260245ffd5b60646040517f08c379a000000000000000000000000000000000000000000000000000000000815260206004820152601660248201527f4f6e6c79206465706c6f7965722063616e2063616c6c000000000000000000006044820152fd5b6080810190811067ffffffffffffffff821117610b6d57604052565b60a0810190811067ffffffffffffffff821117610b6d57604052565b90601f7fffffffffffffffffffffffffffffffffffffffffffffffffffffffffffffffe0910116810190811067ffffffffffffffff821117610b6d57604052565b359073ffffffffffffffffffffffffffffffffffffffff8216820361060357565b35908160020b820361060357565b7fffffffffffffffffffffffffffffffffffffffffffffffffffffffffffffffe0601f602060409481855280519182918282880152018686015e5f8582860101520116010190565b91929073ffffffffffffffffffffffffffffffffffffffff16803b15610603575f928360649273ffffffffffffffffffffffffffffffffffffffff948560405198899788967f0b0d9c0900000000000000000000000000000000000000000000000000000000885216600487015216602485015260448401525af180156105f857610d705750565b5f610d7a91610c30565b565b90816020910312610603575180151581036106035790565b90816020910312610603575190565b90919073ffffffffffffffffffffffffffffffffffffffff1680610e4357505073ffffffffffffffffffffffffffffffffffffffff600460209260405194859384927f11da60b4000000000000000000000000000000000000000000000000000000008452165af180156105f857610e185750565b610e399060203d602011610e3c575b610e318183610c30565b810190610d94565b50565b503d610e27565b90929173ffffffffffffffffffffffffffffffffffffffff1691823b1561060357604051937fa58411940000000000000000000000000000000000000000000000000000000085528260048601525a945f816024818389819bf180156105f857611013575b5073ffffffffffffffffffffffffffffffffffffffff1684308214610f9f576020929160649160405195869485937f23b872dd000000000000000000000000000000000000000000000000000000008552600485015288602485015260448401525af18015610f9457916020918493610f67575b505b6004604051809581937f11da60b40000000000000000000000000000000000000000000000000000000083525af1908115610f5b5750610e185750565b604051903d90823e3d90fd5b610f8690833d8511610f8d575b610f7e8183610c30565b810190610d7c565b505f610f1c565b503d610f74565b6040513d85823e3d90fd5b929050604460209260405194859384927fa9059cbb00000000000000000000000000000000000000000000000000000000845288600485015260248401525af18015610f9457916020918493610ff6575b50610f1e565b61100c90833d8511610f8d57610f7e8183610c30565b505f610ff0565b6110209195505f90610c30565b5f9373ffffffffffffffffffffffffffffffffffffffff610ea856fea164736f6c634300081a000a00000000000000000000000076e9e1affde82bb4544ce95ea58ffc2f9d45061f0000000000000000000000006a087b9340925e1c66273fae8f7527c8754f1540",
        "nonce": "0xdc8",
        "chainId": "0xaa36a7"
      },
      "additionalContracts": [],
      "isFixedGasLimit": false
    },
    {
      "hash": "0xa12c9f7724344f4c425e0cb2e29605a4a642a30c527298de582966efaf11f177",
      "transactionType": "CALL",
      "contractName": null,
      "contractAddress": "0x1c7d4b196cb0c7b01d743fbc6116a902379c7238",
      "function": "approve(address,uint256)",
      "arguments": [
        "0x0b045303aa5df6a86A81951E9cB5c5Fb657DA8C6",
        "115792089237316195423570985008687907853269984665640564039457584007913129639935"
      ],
      "transaction": {
        "from": "0x63f976191f9dd75bd5b0fd81320d37fbc0d74080",
        "to": "0x1c7d4b196cb0c7b01d743fbc6116a902379c7238",
        "gas": "0x13eb1",
        "value": "0x0",
        "input": "0x095ea7b30000000000000000000000000b045303aa5df6a86a81951e9cb5c5fb657da8c6ffffffffffffffffffffffffffffffffffffffffffffffffffffffffffffffff",
        "nonce": "0xdc9",
        "chainId": "0xaa36a7"
      },
      "additionalContracts": [],
      "isFixedGasLimit": false
    },
    {
      "hash": "0xee9596b726837b5cc170a6a993d766053fd15c3a3c25954a408ec4f89a693c6f",
      "transactionType": "CALL",
      "contractName": null,
      "contractAddress": "0xfff9976782d46cc05630d1f6ebab18b2324d6b14",
      "function": "approve(address,uint256)",
      "arguments": [
        "0x0b045303aa5df6a86A81951E9cB5c5Fb657DA8C6",
        "115792089237316195423570985008687907853269984665640564039457584007913129639935"
      ],
      "transaction": {
        "from": "0x63f976191f9dd75bd5b0fd81320d37fbc0d74080",
        "to": "0xfff9976782d46cc05630d1f6ebab18b2324d6b14",
        "gas": "0xfa27",
        "value": "0x0",
        "input": "0x095ea7b30000000000000000000000000b045303aa5df6a86a81951e9cb5c5fb657da8c6ffffffffffffffffffffffffffffffffffffffffffffffffffffffffffffffff",
        "nonce": "0xdca",
        "chainId": "0xaa36a7"
      },
      "additionalContracts": [],
      "isFixedGasLimit": false
    },
    {
      "hash": "0x421a856d28457d67606c6d01e75baa001d9da5bef9132ff0cda883660b753d72",
      "transactionType": "CALL",
      "contractName": "CompoundHelper",
      "contractAddress": "0x0b045303aa5df6a86a81951e9cb5c5fb657da8c6",
      "function": "executeCompound((address,address,uint24,int24,address),(int24,int24,int256,bytes32),uint256,uint256)",
      "arguments": [
        "(0x1c7D4B196Cb0C7B01d743Fbc6116a902379C7238, 0xfFf9976782d46CC05630D1f6eBAb18b2324d6B14, 3000, 60, 0x6A087B9340925E1c66273FAE8F7527c8754F1540)",
        "(-887220, 887220, 3, 0x0000000000000000000000000000000000000000000000000000000000000000)",
        "5400",
        "429000000000000"
      ],
      "transaction": {
        "from": "0x63f976191f9dd75bd5b0fd81320d37fbc0d74080",
        "to": "0x0b045303aa5df6a86a81951e9cb5c5fb657da8c6",
        "gas": "0x514a5",
        "value": "0x0",
        "input": "0x1cd625370000000000000000000000001c7d4b196cb0c7b01d743fbc6116a902379c7238000000000000000000000000fff9976782d46cc05630d1f6ebab18b2324d6b140000000000000000000000000000000000000000000000000000000000000bb8000000000000000000000000000000000000000000000000000000000000003c0000000000000000000000006a087b9340925e1c66273fae8f7527c8754f1540fffffffffffffffffffffffffffffffffffffffffffffffffffffffffff2764c00000000000000000000000000000000000000000000000000000000000d89b40000000000000000000000000000000000000000000000000000000000000003000000000000000000000000000000000000000000000000000000000000000000000000000000000000000000000000000000000000000000000000000015180000000000000000000000000000000000000000000000000001862c589bd000",
        "nonce": "0xdcb",
        "chainId": "0xaa36a7"
      },
      "additionalContracts": [],
      "isFixedGasLimit": false
    }
  ],
  "receipts": [
    {
      "status": "0x1",
      "cumulativeGasUsed": "0x315351f",
      "logs": [],
      "logsBloom": "0x00000000000000000000000000000000000000000000000000000000000000000000000000000000000000000000000000000000000000000000000000000000000000000000000000000000000000000000000000000000000000000000000000000000000000000000000000000000000000000000000000000000000000000000000000000000000000000000000000000000000000000000000000000000000000000000000000000000000000000000000000000000000000000000000000000000000000000000000000000000000000000000000000000000000000000000000000000000000000000000000000000000000000000000000000000000",
      "type": "0x2",
      "transactionHash": "0x4a6834892fdd170dcc3b0c530942f91c35cc2632a543d4d339eb7cd98e3c1c01",
      "transactionIndex": "0x27",
      "blockHash": "0x3283a002e9941d585338b404440907a0f13e666f260c7dd15f69f86517840617",
      "blockNumber": "0x987329",
      "gasUsed": "0xe8294",
      "effectiveGasPrice": "0x5933c2",
      "from": "0x63f976191f9dd75bd5b0fd81320d37fbc0d74080",
      "to": null,
      "contractAddress": "0x0b045303aa5df6a86a81951e9cb5c5fb657da8c6"
    },
    {
      "status": "0x1",
      "cumulativeGasUsed": "0x10086fb",
      "logs": [
        {
          "address": "0x1c7d4b196cb0c7b01d743fbc6116a902379c7238",
          "topics": [
            "0x8c5be1e5ebec7d5bd14f71427d1e84f3dd0314c0f7b2291e5b200ac8c7c3b925",
            "0x00000000000000000000000063f976191f9dd75bd5b0fd81320d37fbc0d74080",
            "0x0000000000000000000000000b045303aa5df6a86a81951e9cb5c5fb657da8c6"
          ],
          "data": "0xffffffffffffffffffffffffffffffffffffffffffffffffffffffffffffffff",
          "blockHash": "0xae1abd69451a7af66ca7e1f61c82fa8eb9d89c340c216be7b065dc42173009ea",
          "blockNumber": "0x98732a",
          "blockTimestamp": "0x695d29dc",
          "transactionHash": "0xa12c9f7724344f4c425e0cb2e29605a4a642a30c527298de582966efaf11f177",
          "transactionIndex": "0x2f",
          "logIndex": "0xc2",
          "removed": false
        }
      ],
      "logsBloom": "0x00000000000008000000000000000000000000000000000000000000000200000000000000000000000000000000000000000000000010000000000000200000000000000000000000000000000000000000000000000000000000000000000000000000000000000000000000000000000000000200000000000000000000000000000000100000000000000000000000000000000000000000000000000000020000400000000000000000000000000000000000000000000000000000000000000000000000400000000000000000000000000000000000000000000000000010000000000000000010020000000000000000000000000000000000000000",
      "type": "0x2",
      "transactionHash": "0xa12c9f7724344f4c425e0cb2e29605a4a642a30c527298de582966efaf11f177",
      "transactionIndex": "0x2f",
      "blockHash": "0xae1abd69451a7af66ca7e1f61c82fa8eb9d89c340c216be7b065dc42173009ea",
      "blockNumber": "0x98732a",
      "gasUsed": "0xd9e9",
      "effectiveGasPrice": "0x595765",
      "from": "0x63f976191f9dd75bd5b0fd81320d37fbc0d74080",
      "to": "0x1c7d4b196cb0c7b01d743fbc6116a902379c7238",
      "contractAddress": null
    },
    {
      "status": "0x1",
      "cumulativeGasUsed": "0x5abc62",
      "logs": [
        {
          "address": "0xfff9976782d46cc05630d1f6ebab18b2324d6b14",
          "topics": [
            "0x8c5be1e5ebec7d5bd14f71427d1e84f3dd0314c0f7b2291e5b200ac8c7c3b925",
            "0x00000000000000000000000063f976191f9dd75bd5b0fd81320d37fbc0d74080",
            "0x0000000000000000000000000b045303aa5df6a86a81951e9cb5c5fb657da8c6"
          ],
          "data": "0xffffffffffffffffffffffffffffffffffffffffffffffffffffffffffffffff",
          "blockHash": "0x1e7e044eb7c59994d3a351d2019f5cbe4e5bb746f62bc965ef4623264410a8e6",
          "blockNumber": "0x98732b",
          "blockTimestamp": "0x695d29e8",
          "transactionHash": "0xee9596b726837b5cc170a6a993d766053fd15c3a3c25954a408ec4f89a693c6f",
          "transactionIndex": "0x20",
          "logIndex": "0x20",
          "removed": false
        }
      ],
      "logsBloom": "0x00000000000008000000000000000000000000000000000000000000000000000000000000000000000000000000000000000000000010000000000000200000000000000000000000000000000000000000000000000000000000000000000000000000000000000000000000000000000000000200000000000000000000000040000000000000000000000000000000000000000000000000000000000000020020400000000000000000000000000000000000000000000000000000000000000000000000400002000000000000000000000000000000000000000000000010000000000000000000020000000000000000000000000000000000000000",
      "type": "0x2",
      "transactionHash": "0xee9596b726837b5cc170a6a993d766053fd15c3a3c25954a408ec4f89a693c6f",
      "transactionIndex": "0x20",
      "blockHash": "0x1e7e044eb7c59994d3a351d2019f5cbe4e5bb746f62bc965ef4623264410a8e6",
      "blockNumber": "0x98732b",
      "gasUsed": "0xb51c",
      "effectiveGasPrice": "0x594880",
      "from": "0x63f976191f9dd75bd5b0fd81320d37fbc0d74080",
      "to": "0xfff9976782d46cc05630d1f6ebab18b2324d6b14",
      "contractAddress": null
    },
    {
      "status": "0x1",
      "cumulativeGasUsed": "0x36a47c",
      "logs": [
        {
          "address": "0x76e9e1affde82bb4544ce95ea58ffc2f9d45061f",
          "topics": [
            "0xf208f4912782fd25c7f114ca3723a2d5dd6f3bcc3ac8db5af63baa85f711d5ec",
            "0xd58729fc13ee7d293fc30f8f84c2cc79455586e3950bd0c05ea5723ad86f906f",
            "0x0000000000000000000000000b045303aa5df6a86a81951e9cb5c5fb657da8c6"
          ],
          "data": "0xfffffffffffffffffffffffffffffffffffffffffffffffffffffffffff2764c00000000000000000000000000000000000000000000000000000000000d89b400000000000000000000000000000000000000000000000000000000000000030000000000000000000000000000000000000000000000000000000000000000",
          "blockHash": "0xd57a9b97852279819b6d503f5c4fa8c677ca34323ec8bd8f61b59043b9ad6ceb",
          "blockNumber": "0x98732c",
          "blockTimestamp": "0x695d29f4",
          "transactionHash": "0x421a856d28457d67606c6d01e75baa001d9da5bef9132ff0cda883660b753d72",
          "transactionIndex": "0x33",
          "logIndex": "0x1e",
          "removed": false
        },
        {
          "address": "0x1c7d4b196cb0c7b01d743fbc6116a902379c7238",
          "topics": [
            "0xddf252ad1be2c89b69c2b068fc378daa952ba7f163c4a11628f55a4df523b3ef",
            "0x00000000000000000000000063f976191f9dd75bd5b0fd81320d37fbc0d74080",
            "0x00000000000000000000000076e9e1affde82bb4544ce95ea58ffc2f9d45061f"
          ],
          "data": "0x0000000000000000000000000000000000000000000000000000000000000001",
          "blockHash": "0xd57a9b97852279819b6d503f5c4fa8c677ca34323ec8bd8f61b59043b9ad6ceb",
          "blockNumber": "0x98732c",
          "blockTimestamp": "0x695d29f4",
          "transactionHash": "0x421a856d28457d67606c6d01e75baa001d9da5bef9132ff0cda883660b753d72",
          "transactionIndex": "0x33",
          "logIndex": "0x1f",
          "removed": false
        },
        {
          "address": "0xfff9976782d46cc05630d1f6ebab18b2324d6b14",
          "topics": [
            "0xddf252ad1be2c89b69c2b068fc378daa952ba7f163c4a11628f55a4df523b3ef",
            "0x00000000000000000000000063f976191f9dd75bd5b0fd81320d37fbc0d74080",
            "0x00000000000000000000000076e9e1affde82bb4544ce95ea58ffc2f9d45061f"
          ],
          "data": "0x0000000000000000000000000000000000000000000000000001849d3537b474",
          "blockHash": "0xd57a9b97852279819b6d503f5c4fa8c677ca34323ec8bd8f61b59043b9ad6ceb",
          "blockNumber": "0x98732c",
          "blockTimestamp": "0x695d29f4",
          "transactionHash": "0x421a856d28457d67606c6d01e75baa001d9da5bef9132ff0cda883660b753d72",
          "transactionIndex": "0x33",
          "logIndex": "0x20",
          "removed": false
        },
        {
          "address": "0x6a087b9340925e1c66273fae8f7527c8754f1540",
          "topics": [
            "0x09f360c713956e5eede31eb1105cc6adde9bcc9985923f91149a659b6968bdb2",
            "0xd58729fc13ee7d293fc30f8f84c2cc79455586e3950bd0c05ea5723ad86f906f"
          ],
          "data": "0x00000000000000000000000000000000000000000000000000000000000000000000000000000000000000000000000000000000000000000000000000000000",
          "blockHash": "0xd57a9b97852279819b6d503f5c4fa8c677ca34323ec8bd8f61b59043b9ad6ceb",
          "blockNumber": "0x98732c",
          "blockTimestamp": "0x695d29f4",
          "transactionHash": "0x421a856d28457d67606c6d01e75baa001d9da5bef9132ff0cda883660b753d72",
          "transactionIndex": "0x33",
          "logIndex": "0x21",
          "removed": false
        }
      ],
      "logsBloom": "0x00001000000008000000000000000000000000000000000000000000000220000000000000000000000000100000000000000000000010000000000000000000000000000000000000000008000000000000000000000800000000000000010000000000000000000020000000000000000000200200004000000010000000000040000001100000000000000000010000001000000000000000000000000000000024400000000000000000000000000000000000000000000001020000000000000002000000480002000000000000000000800000000000008000000000000000000000000000000010020000000004000000000000000000000000000000",
      "type": "0x2",
      "transactionHash": "0x421a856d28457d67606c6d01e75baa001d9da5bef9132ff0cda883660b753d72",
      "transactionIndex": "0x33",
      "blockHash": "0xd57a9b97852279819b6d503f5c4fa8c677ca34323ec8bd8f61b59043b9ad6ceb",
      "blockNumber": "0x98732c",
      "gasUsed": "0x3ada5",
      "effectiveGasPrice": "0x592e89",
      "from": "0x63f976191f9dd75bd5b0fd81320d37fbc0d74080",
      "to": "0x0b045303aa5df6a86a81951e9cb5c5fb657da8c6",
      "contractAddress": null
    }
  ],
  "libraries": [],
  "pending": [],
  "returns": {},
  "timestamp": 1767713268446,
  "chain": 11155111,
  "commit": "7902c05"
}