{
  "transactions": [
    {
      "hash": "0xae8c251b985b4c538a824295ad2edc202bea9db646bf100f529b2b78803904b9",
      "transactionType": "CALL",
      "contractName": null,
      "contractAddress": "0x7bc9ddcbe9f25a249ac4c07a6d86616e78e45540",
      "function": "setPoolConfig((address,address,uint24,int24,address),bool)",
      "arguments": [
        "(0x1c7D4B196Cb0C7B01d743Fbc6116a902379C7238, 0xfFf9976782d46CC05630D1f6eBAb18b2324d6B14, 3000, 60, 0x7BC9dDcbE9F25A249Ac4c07a6d86616E78E45540)",
        "true"
      ],
      "transaction": {
        "from": "0x63f976191f9dd75bd5b0fd81320d37fbc0d74080",
        "to": "0x7bc9ddcbe9f25a249ac4c07a6d86616e78e45540",
        "gas": "0x101a0",
        "value": "0x0",
        "input": "0x08e9b5ac0000000000000000000000001c7d4b196cb0c7b01d743fbc6116a902379c7238000000000000000000000000fff9976782d46cc05630d1f6ebab18b2324d6b140000000000000000000000000000000000000000000000000000000000000bb8000000000000000000000000000000000000000000000000000000000000003c0000000000000000000000007bc9ddcbe9f25a249ac4c07a6d86616e78e455400000000000000000000000000000000000000000000000000000000000000001",
        "nonce": "0x3",
        "chainId": "0xaa36a7"
      },
      "additionalContracts": [],
      "isFixedGasLimit": false
    },
    {
      "hash": "0x8fe89e01e5282bc15af0af1efc93e597e57b5d1d003c86569b8f09ef347ac6a9",
      "transactionType": "CALL",
      "contractName": null,
      "contractAddress": "0x7bc9ddcbe9f25a249ac4c07a6d86616e78e45540",
      "function": "setTokenPricesUSD((address,address,uint24,int24,address),uint256,uint256)",
      "arguments": [
        "(0x1c7D4B196Cb0C7B01d743Fbc6116a902379C7238, 0xfFf9976782d46CC05630D1f6eBAb18b2324d6B14, 3000, 60, 0x7BC9dDcbE9F25A249Ac4c07a6d86616E78E45540)",
        "1000000000000000000",
        "3000000000000000000000"
      ],
      "transaction": {
        "from": "0x63f976191f9dd75bd5b0fd81320d37fbc0d74080",
        "to": "0x7bc9ddcbe9f25a249ac4c07a6d86616e78e45540",
        "gas": "0x17dbb",
        "value": "0x0",
        "input": "0xadc8ee270000000000000000000000001c7d4b196cb0c7b01d743fbc6116a902379c7238000000000000000000000000fff9976782d46cc05630d1f6ebab18b2324d6b140000000000000000000000000000000000000000000000000000000000000bb8000000000000000000000000000000000000000000000000000000000000003c0000000000000000000000007bc9ddcbe9f25a249ac4c07a6d86616e78e455400000000000000000000000000000000000000000000000000de0b6b3a76400000000000000000000000000000000000000000000000000a2a15d09519be00000",
        "nonce": "0x4",
        "chainId": "0xaa36a7"
      },
      "additionalContracts": [],
      "isFixedGasLimit": false
    },
    {
      "hash": "0x6def1e6945d58dde6130cdb84104c68c033b91911cd77043e8dd0ed3390b24c0",
      "transactionType": "CALL",
      "contractName": null,
      "contractAddress": "0x7bc9ddcbe9f25a249ac4c07a6d86616e78e45540",
      "function": "setPoolTickRange((address,address,uint24,int24,address),int24,int24)",
      "arguments": [
        "(0x1c7D4B196Cb0C7B01d743Fbc6116a902379C7238, 0xfFf9976782d46CC05630D1f6eBAb18b2324d6B14, 3000, 60, 0x7BC9dDcbE9F25A249Ac4c07a6d86616E78E45540)",
        "-887272",
        "887272"
      ],
      "transaction": {
        "from": "0x63f976191f9dd75bd5b0fd81320d37fbc0d74080",
        "to": "0x7bc9ddcbe9f25a249ac4c07a6d86616e78e45540",
        "gas": "0x1939d",
        "value": "0x0",
        "input": "0x3cede4f60000000000000000000000001c7d4b196cb0c7b01d743fbc6116a902379c7238000000000000000000000000fff9976782d46cc05630d1f6ebab18b2324d6b140000000000000000000000000000000000000000000000000000000000000bb8000000000000000000000000000000000000000000000000000000000000003c0000000000000000000000007bc9ddcbe9f25a249ac4c07a6d86616e78e45540fffffffffffffffffffffffffffffffffffffffffffffffffffffffffff2761800000000000000000000000000000000000000000000000000000000000d89e8",
        "nonce": "0x5",
        "chainId": "0xaa36a7"
      },
      "additionalContracts": [],
      "isFixedGasLimit": false
    }
  ],
  "receipts": [
    {
      "status": "0x1",
      "cumulativeGasUsed": "0x8b984b",
      "logs": [],
      "logsBloom": "0x00000000000000000000000000000000000000000000000000000000000000000000000000000000000000000000000000000000000000000000000000000000000000000000000000000000000000000000000000000000000000000000000000000000000000000000000000000000000000000000000000000000000000000000000000000000000000000000000000000000000000000000000000000000000000000000000000000000000000000000000000000000000000000000000000000000000000000000000000000000000000000000000000000000000000000000000000000000000000000000000000000000000000000000000000000000",
      "type": "0x2",
      "transactionHash": "0xae8c251b985b4c538a824295ad2edc202bea9db646bf100f529b2b78803904b9",
      "transactionIndex": "0x3b",
      "blockHash": "0x96cb327dae2fec8ccf05f69ed4ed82c1b991cd0343608089ee85dd077f21ead4",
      "blockNumber": "0x97760f",
      "gasUsed": "0xba85",
      "effectiveGasPrice": "0x14657b0",
      "from": "0x63f976191f9dd75bd5b0fd81320d37fbc0d74080",
      "to": "0x7bc9ddcbe9f25a249ac4c07a6d86616e78e45540",
      "contractAddress": null
    },
    {
      "status": "0x1",
      "cumulativeGasUsed": "0x8cacaa",
      "logs": [],
      "logsBloom": "0x00000000000000000000000000000000000000000000000000000000000000000000000000000000000000000000000000000000000000000000000000000000000000000000000000000000000000000000000000000000000000000000000000000000000000000000000000000000000000000000000000000000000000000000000000000000000000000000000000000000000000000000000000000000000000000000000000000000000000000000000000000000000000000000000000000000000000000000000000000000000000000000000000000000000000000000000000000000000000000000000000000000000000000000000000000000",
      "type": "0x2",
      "transactionHash": "0x8fe89e01e5282bc15af0af1efc93e597e57b5d1d003c86569b8f09ef347ac6a9",
      "transactionIndex": "0x3c",
      "blockHash": "0x96cb327dae2fec8ccf05f69ed4ed82c1b991cd0343608089ee85dd077f21ead4",
      "blockNumber": "0x97760f",
      "gasUsed": "0x1145f",
      "effectiveGasPrice": "0x14657b0",
      "from": "0x63f976191f9dd75bd5b0fd81320d37fbc0d74080",
      "to": "0x7bc9ddcbe9f25a249ac4c07a6d86616e78e45540",
      "contractAddress": null
    },
    {
      "status": "0x1",
      "cumulativeGasUsed": "0x8dc0a4",
      "logs": [],
      "logsBloom": "0x00000000000000000000000000000000000000000000000000000000000000000000000000000000000000000000000000000000000000000000000000000000000000000000000000000000000000000000000000000000000000000000000000000000000000000000000000000000000000000000000000000000000000000000000000000000000000000000000000000000000000000000000000000000000000000000000000000000000000000000000000000000000000000000000000000000000000000000000000000000000000000000000000000000000000000000000000000000000000000000000000000000000000000000000000000000",
      "type": "0x2",
      "transactionHash": "0x6def1e6945d58dde6130cdb84104c68c033b91911cd77043e8dd0ed3390b24c0",
      "transactionIndex": "0x3d",
      "blockHash": "0x96cb327dae2fec8ccf05f69ed4ed82c1b991cd0343608089ee85dd077f21ead4",
      "blockNumber": "0x97760f",
      "gasUsed": "0x113fa",
      "effectiveGasPrice": "0x14657b0",
      "from": "0x63f976191f9dd75bd5b0fd81320d37fbc0d74080",
      "to": "0x7bc9ddcbe9f25a249ac4c07a6d86616e78e45540",
      "contractAddress": null
    }
  ],
  "libraries": [],
  "pending": [],
  "returns": {},
  "timestamp": 1766854885444,
  "chain": 11155111,
  "commit": "90ffcf9"
}