{
  "transactions": [
    {
      "hash": "0xde7124d229168881262225ce8424bfdcee0035ed6a4d01cc9910983183925cab",
      "transactionType": "CALL",
      "contractName": null,
      "contractAddress": "0xeaf32b3657427a3796928035d6b2dbb28c355540",
      "function": "setPoolConfig((address,address,uint24,int24,address),bool)",
      "arguments": [
        "(0x1c7D4B196Cb0C7B01d743Fbc6116a902379C7238, 0xfFf9976782d46CC05630D1f6eBAb18b2324d6B14, 3000, 60, 0xEaF32b3657427a3796928035d6B2DBb28C355540)",
        "true"
      ],
      "transaction": {
        "from": "0x63f976191f9dd75bd5b0fd81320d37fbc0d74080",
        "to": "0xeaf32b3657427a3796928035d6b2dbb28c355540",
        "gas": "0xa724",
        "value": "0x0",
        "input": "0x08e9b5ac0000000000000000000000001c7d4b196cb0c7b01d743fbc6116a902379c7238000000000000000000000000fff9976782d46cc05630d1f6ebab18b2324d6b140000000000000000000000000000000000000000000000000000000000000bb8000000000000000000000000000000000000000000000000000000000000003c000000000000000000000000eaf32b3657427a3796928035d6b2dbb28c3555400000000000000000000000000000000000000000000000000000000000000001",
        "nonce": "0x39",
        "chainId": "0xaa36a7"
      },
      "additionalContracts": [],
      "isFixedGasLimit": false
    },
    {
      "hash": "0x050c507405e30e81cedc280b624b4a08e33c9e18c829d49a74d8524e34d02424",
      "transactionType": "CALL",
      "contractName": null,
      "contractAddress": "0xeaf32b3657427a3796928035d6b2dbb28c355540",
      "function": "setTokenPricesUSD((address,address,uint24,int24,address),uint256,uint256)",
      "arguments": [
        "(0x1c7D4B196Cb0C7B01d743Fbc6116a902379C7238, 0xfFf9976782d46CC05630D1f6eBAb18b2324d6B14, 3000, 60, 0xEaF32b3657427a3796928035d6B2DBb28C355540)",
        "1000000000000000000",
        "3000000000000000000000"
      ],
      "transaction": {
        "from": "0x63f976191f9dd75bd5b0fd81320d37fbc0d74080",
        "to": "0xeaf32b3657427a3796928035d6b2dbb28c355540",
        "gas": "0x19e15",
        "value": "0x0",
        "input": "0xadc8ee270000000000000000000000001c7d4b196cb0c7b01d743fbc6116a902379c7238000000000000000000000000fff9976782d46cc05630d1f6ebab18b2324d6b140000000000000000000000000000000000000000000000000000000000000bb8000000000000000000000000000000000000000000000000000000000000003c000000000000000000000000eaf32b3657427a3796928035d6b2dbb28c3555400000000000000000000000000000000000000000000000000de0b6b3a76400000000000000000000000000000000000000000000000000a2a15d09519be00000",
        "nonce": "0x3a",
        "chainId": "0xaa36a7"
      },
      "additionalContracts": [],
      "isFixedGasLimit": false
    },
    {
      "hash": "0xbfbfc87b6bc1b472b1d966b2640e613efdac28054348b67c1a84efef2a3e8f6c",
      "transactionType": "CALL",
      "contractName": null,
      "contractAddress": "0xeaf32b3657427a3796928035d6b2dbb28c355540",
      "function": "setPoolTickRange((address,address,uint24,int24,address),int24,int24)",
      "arguments": [
        "(0x1c7D4B196Cb0C7B01d743Fbc6116a902379C7238, 0xfFf9976782d46CC05630D1f6eBAb18b2324d6B14, 3000, 60, 0xEaF32b3657427a3796928035d6B2DBb28C355540)",
        "-887272",
        "887272"
      ],
      "transaction": {
        "from": "0x63f976191f9dd75bd5b0fd81320d37fbc0d74080",
        "to": "0xeaf32b3657427a3796928035d6b2dbb28c355540",
        "gas": "0xcdd8",
        "value": "0x0",
        "input": "0x3cede4f60000000000000000000000001c7d4b196cb0c7b01d743fbc6116a902379c7238000000000000000000000000fff9976782d46cc05630d1f6ebab18b2324d6b140000000000000000000000000000000000000000000000000000000000000bb8000000000000000000000000000000000000000000000000000000000000003c000000000000000000000000eaf32b3657427a3796928035d6b2dbb28c355540fffffffffffffffffffffffffffffffffffffffffffffffffffffffffff2761800000000000000000000000000000000000000000000000000000000000d89e8",
        "nonce": "0x3b",
        "chainId": "0xaa36a7"
      },
      "additionalContracts": [],
      "isFixedGasLimit": false
    }
  ],
  "receipts": [
    {
      "status": "0x1",
      "cumulativeGasUsed": "0xf8a732",
      "logs": [
        {
          "address": "0xeaf32b3657427a3796928035d6b2dbb28c355540",
          "topics": [
            "0x5ccbffa18a4422a6c0cc78bdaa34b188e2dba24e3ba9b1655454922136fb8937",
            "0x2b1b07dc2271486c8d5d31d927ee536709c8f03063a039c791e9aa0e4dc5d0ba"
          ],
          "data": "0x0000000000000000000000000000000000000000000000000000000000000001",
          "blockHash": "0x2b4d7bc656c54b1d1d81d66bfc3ec1f3f570c742bcae881edc5c7f0dfd191644",
          "blockNumber": "0x977f20",
          "blockTimestamp": "0x69508548",
          "transactionHash": "0xde7124d229168881262225ce8424bfdcee0035ed6a4d01cc9910983183925cab",
          "transactionIndex": "0x57",
          "logIndex": "0x20d",
          "removed": false
        }
      ],
      "logsBloom": "0x00800000000000000000000000000000000010000000000000200000000000000000000000000000000000000000000000001000000000000000000000002000000000000000000000000000000000000000000000000000000000000000000000000000000000000000000000000000000000000000000000000000000000000000000000000000800000000000000004000000000000000000002000000000000000000000000000000000000000000000000000000000000000000000000000000000000000000000000000000000000000000000000000000000000000000001000000000000000000000000000000000000000000000000000000000000",
      "type": "0x2",
      "transactionHash": "0xde7124d229168881262225ce8424bfdcee0035ed6a4d01cc9910983183925cab",
      "transactionIndex": "0x57",
      "blockHash": "0x2b4d7bc656c54b1d1d81d66bfc3ec1f3f570c742bcae881edc5c7f0dfd191644",
      "blockNumber": "0x977f20",
      "gasUsed": "0x7249",
      "effectiveGasPrice": "0x106a7a",
      "from": "0x63f976191f9dd75bd5b0fd81320d37fbc0d74080",
      "to": "0xeaf32b3657427a3796928035d6b2dbb28c355540",
      "contractAddress": null
    },
    {
      "status": "0x1",
      "cumulativeGasUsed": "0xf9c255",
      "logs": [
        {
          "address": "0xeaf32b3657427a3796928035d6b2dbb28c355540",
          "topics": [
            "0x882c9eca713e887423b67acd3e18dc6d775c83c403e3a6d5811fea016ca5152b",
            "0x2b1b07dc2271486c8d5d31d927ee536709c8f03063a039c791e9aa0e4dc5d0ba"
          ],
          "data": "0x0000000000000000000000000000000000000000000000000de0b6b3a76400000000000000000000000000000000000000000000000000a2a15d09519be00000",
          "blockHash": "0x2b4d7bc656c54b1d1d81d66bfc3ec1f3f570c742bcae881edc5c7f0dfd191644",
          "blockNumber": "0x977f20",
          "blockTimestamp": "0x69508548",
          "transactionHash": "0x050c507405e30e81cedc280b624b4a08e33c9e18c829d49a74d8524e34d02424",
          "transactionIndex": "0x58",
          "logIndex": "0x20e",
          "removed": false
        }
      ],
      "logsBloom": "0x00800000000000000000000000000000000010000000000000200000000000000000000000000000000000000000000000000000000000000000000000000000000000000000000000000000000000400000000000000000000000000000000000000000000000000000000000000000008000000000000000000000000000000000000000000000800000000000000000000000000000000000002000000000000000000000000000000000000000000000000000000000000000000000000000000000000000000000000000000000000000000000000000000000000000000001000000000000000001000000000000000000000000000000000000000000",
      "type": "0x2",
      "transactionHash": "0x050c507405e30e81cedc280b624b4a08e33c9e18c829d49a74d8524e34d02424",
      "transactionIndex": "0x58",
      "blockHash": "0x2b4d7bc656c54b1d1d81d66bfc3ec1f3f570c742bcae881edc5c7f0dfd191644",
      "blockNumber": "0x977f20",
      "gasUsed": "0x11b23",
      "effectiveGasPrice": "0x106a7a",
      "from": "0x63f976191f9dd75bd5b0fd81320d37fbc0d74080",
      "to": "0xeaf32b3657427a3796928035d6b2dbb28c355540",
      "contractAddress": null
    },
    {
      "status": "0x1",
      "cumulativeGasUsed": "0xfa575d",
      "logs": [
        {
          "address": "0xeaf32b3657427a3796928035d6b2dbb28c355540",
          "topics": [
            "0xb3235f358edd480fca4ed0cc727f602efc55a46eea248086850b0493c9f39072",
            "0x2b1b07dc2271486c8d5d31d927ee536709c8f03063a039c791e9aa0e4dc5d0ba"
          ],
          "data": "0xfffffffffffffffffffffffffffffffffffffffffffffffffffffffffff2761800000000000000000000000000000000000000000000000000000000000d89e8",
          "blockHash": "0x2b4d7bc656c54b1d1d81d66bfc3ec1f3f570c742bcae881edc5c7f0dfd191644",
          "blockNumber": "0x977f20",
          "blockTimestamp": "0x69508548",
          "transactionHash": "0xbfbfc87b6bc1b472b1d966b2640e613efdac28054348b67c1a84efef2a3e8f6c",
          "transactionIndex": "0x59",
          "logIndex": "0x20f",
          "removed": false
        }
      ],
      "logsBloom": "0x00800000000000000000000000000000000010000000000000200000000000000000000000000000000000000000000000000000000000000000000000000000000000000000000000000000000000000000000000000000000000000000000000000000000000000000000000000000000000020000000000000000000000000000000000000000800000000000000000000000000000000000002000000000000000000800000000000000000000000000000000000000000000000000000000000000000000000000000000000000000000000000001000000000000000000001000000000000000000000000000000000000000000000000000000000000",
      "type": "0x2",
      "transactionHash": "0xbfbfc87b6bc1b472b1d966b2640e613efdac28054348b67c1a84efef2a3e8f6c",
      "transactionIndex": "0x59",
      "blockHash": "0x2b4d7bc656c54b1d1d81d66bfc3ec1f3f570c742bcae881edc5c7f0dfd191644",
      "blockNumber": "0x977f20",
      "gasUsed": "0x9508",
      "effectiveGasPrice": "0x106a7a",
      "from": "0x63f976191f9dd75bd5b0fd81320d37fbc0d74080",
      "to": "0xeaf32b3657427a3796928035d6b2dbb28c355540",
      "contractAddress": null
    }
  ],
  "libraries": [],
  "pending": [],
  "returns": {},
  "timestamp": 1766884681796,
  "chain": 11155111,
  "commit": "85a9738"
}