{
  "transactions": [
    {
      "hash": "0xd60cc2b5691a97c6393387b4334a19b11e3ad6d5fb2d372c195d9292bd333e73",
      "transactionType": "CALL",
      "contractName": null,
      "contractAddress": "0xac739f2f5c72c80a4491cf273308c3d94f00d540",
      "function": "setPoolConfig((address,address,uint24,int24,address),bool)",
      "arguments": [
        "(0x1c7D4B196Cb0C7B01d743Fbc6116a902379C7238, 0xfFf9976782d46CC05630D1f6eBAb18b2324d6B14, 3000, 60, 0xAc739f2F5c72C80a4491cf273308C3D94F00D540)",
        "true"
      ],
      "transaction": {
        "from": "0x63f976191f9dd75bd5b0fd81320d37fbc0d74080",
        "to": "0xac739f2f5c72c80a4491cf273308c3d94f00d540",
        "gas": "0x9dc9",
        "value": "0x0",
        "input": "0x08e9b5ac0000000000000000000000001c7d4b196cb0c7b01d743fbc6116a902379c7238000000000000000000000000fff9976782d46cc05630d1f6ebab18b2324d6b140000000000000000000000000000000000000000000000000000000000000bb8000000000000000000000000000000000000000000000000000000000000003c000000000000000000000000ac739f2f5c72c80a4491cf273308c3d94f00d5400000000000000000000000000000000000000000000000000000000000000001",
        "nonce": "0x98",
        "chainId": "0xaa36a7"
      },
      "additionalContracts": [],
      "isFixedGasLimit": false
    },
    {
      "hash": "0x5811f9f3bf67259dc98b04210ea8067134be7db849bad45c964be3e475e542b7",
      "transactionType": "CALL",
      "contractName": null,
      "contractAddress": "0xac739f2f5c72c80a4491cf273308c3d94f00d540",
      "function": "setTokenPricesUSD((address,address,uint24,int24,address),uint256,uint256)",
      "arguments": [
        "(0x1c7D4B196Cb0C7B01d743Fbc6116a902379C7238, 0xfFf9976782d46CC05630D1f6eBAb18b2324d6B14, 3000, 60, 0xAc739f2F5c72C80a4491cf273308C3D94F00D540)",
        "1000000000000000000",
        "3000000000000000000000"
      ],
      "transaction": {
        "from": "0x63f976191f9dd75bd5b0fd81320d37fbc0d74080",
        "to": "0xac739f2f5c72c80a4491cf273308c3d94f00d540",
        "gas": "0x18704",
        "value": "0x0",
        "input": "0xadc8ee270000000000000000000000001c7d4b196cb0c7b01d743fbc6116a902379c7238000000000000000000000000fff9976782d46cc05630d1f6ebab18b2324d6b140000000000000000000000000000000000000000000000000000000000000bb8000000000000000000000000000000000000000000000000000000000000003c000000000000000000000000ac739f2f5c72c80a4491cf273308c3d94f00d5400000000000000000000000000000000000000000000000000de0b6b3a76400000000000000000000000000000000000000000000000000a2a15d09519be00000",
        "nonce": "0x99",
        "chainId": "0xaa36a7"
      },
      "additionalContracts": [],
      "isFixedGasLimit": false
    },
    {
      "hash": "0xbd856bb8ceecd8141e6b12599bae3d452a5b5c2c4ccf7bb98387f2cc1d2f2109",
      "transactionType": "CALL",
      "contractName": null,
      "contractAddress": "0xac739f2f5c72c80a4491cf273308c3d94f00d540",
      "function": "setPoolTickRange((address,address,uint24,int24,address),int24,int24)",
      "arguments": [
        "(0x1c7D4B196Cb0C7B01d743Fbc6116a902379C7238, 0xfFf9976782d46CC05630D1f6eBAb18b2324d6B14, 3000, 60, 0xAc739f2F5c72C80a4491cf273308C3D94F00D540)",
        "-887272",
        "887272"
      ],
      "transaction": {
        "from": "0x63f976191f9dd75bd5b0fd81320d37fbc0d74080",
        "to": "0xac739f2f5c72c80a4491cf273308c3d94f00d540",
        "gas": "0xcdc7",
        "value": "0x0",
        "input": "0x3cede4f60000000000000000000000001c7d4b196cb0c7b01d743fbc6116a902379c7238000000000000000000000000fff9976782d46cc05630d1f6ebab18b2324d6b140000000000000000000000000000000000000000000000000000000000000bb8000000000000000000000000000000000000000000000000000000000000003c000000000000000000000000ac739f2f5c72c80a4491cf273308c3d94f00d540fffffffffffffffffffffffffffffffffffffffffffffffffffffffffff2761800000000000000000000000000000000000000000000000000000000000d89e8",
        "nonce": "0x9a",
        "chainId": "0xaa36a7"
      },
      "additionalContracts": [],
      "isFixedGasLimit": false
    }
  ],
  "receipts": [
    {
      "status": "0x1",
      "cumulativeGasUsed": "0xdbdc58",
      "logs": [
        {
          "address": "0xac739f2f5c72c80a4491cf273308c3d94f00d540",
          "topics": [
            "0x5ccbffa18a4422a6c0cc78bdaa34b188e2dba24e3ba9b1655454922136fb8937",
            "0x654245e83aa2a8b86fc390e45cb0565c2150f8ed606ea40f36d678228dbf2745"
          ],
          "data": "0x0000000000000000000000000000000000000000000000000000000000000001",
          "blockHash": "0x423479952e09951bad5e2e55c8e434bf039fa0686a82235cee56b4e4716ad827",
          "blockNumber": "0x97a8de",
          "blockTimestamp": "0x6952995c",
          "transactionHash": "0xbd856bb8ceecd8141e6b12599bae3d452a5b5c2c4ccf7bb98387f2cc1d2f2109",
          "transactionIndex": "0x61",
          "logIndex": "0x1c0",
          "removed": false
        }
      ],
      "logsBloom": "0x00000001000000000000000000000040000000002000000000000000000000000000000000000000000000000000000000001000000000000000000000002000000000000000000000000000000000080000000000000000000000000000000000000000000000000000000000000000000000000000000000000000000000000000000000000000000000000000000004000000000000000000000000000000000000000000000000000000000000008000000000000000000000000000000000000000000000000000000000000000000000000000000000000000000000000000000000000000000000000000000000000200000000000000000000000000",
      "type": "0x2",
      "transactionHash": "0xbd856bb8ceecd8141e6b12599bae3d452a5b5c2c4ccf7bb98387f2cc1d2f2109",
      "transactionIndex": "0x61",
      "blockHash": "0x423479952e09951bad5e2e55c8e434bf039fa0686a82235cee56b4e4716ad827",
      "blockNumber": "0x97a8de",
      "gasUsed": "0x723d",
      "effectiveGasPrice": "0x1a35ed",
      "from": "0x63f976191f9dd75bd5b0fd81320d37fbc0d74080",
      "to": "0xac739f2f5c72c80a4491cf273308c3d94f00d540",
      "contractAddress": null
    },
    {
      "status": "0x1",
      "cumulativeGasUsed": "0xdcf76f",
      "logs": [
        {
          "address": "0xac739f2f5c72c80a4491cf273308c3d94f00d540",
          "topics": [
            "0x882c9eca713e887423b67acd3e18dc6d775c83c403e3a6d5811fea016ca5152b",
            "0x654245e83aa2a8b86fc390e45cb0565c2150f8ed606ea40f36d678228dbf2745"
          ],
          "data": "0x0000000000000000000000000000000000000000000000000de0b6b3a76400000000000000000000000000000000000000000000000000a2a15d09519be00000",
          "blockHash": "0x423479952e09951bad5e2e55c8e434bf039fa0686a82235cee56b4e4716ad827",
          "blockNumber": "0x97a8de",
          "blockTimestamp": "0x6952995c",
          "transactionHash": "0x5811f9f3bf67259dc98b04210ea8067134be7db849bad45c964be3e475e542b7",
          "transactionIndex": "0x62",
          "logIndex": "0x1c1",
          "removed": false
        }
      ],
      "logsBloom": "0x00000001000000000000000000000040000000002000000000000000000000000000000000000000000000000000000000000000000000000000000000000000000000000000000000000000000000480000000000000000000000000000000000000000000000000000000000000000008000000000000000000000000000000000000000000000000000000000000000000000000000000000000000000000000000000000000000000000000000008000000000000000000000000000000000000000000000000000000000000000000000000000000000000000000000000000000000000000000001000000000000000200000000000000000000000000",
      "type": "0x2",
      "transactionHash": "0x5811f9f3bf67259dc98b04210ea8067134be7db849bad45c964be3e475e542b7",
      "transactionIndex": "0x62",
      "blockHash": "0x423479952e09951bad5e2e55c8e434bf039fa0686a82235cee56b4e4716ad827",
      "blockNumber": "0x97a8de",
      "gasUsed": "0x11b17",
      "effectiveGasPrice": "0x1a35ed",
      "from": "0x63f976191f9dd75bd5b0fd81320d37fbc0d74080",
      "to": "0xac739f2f5c72c80a4491cf273308c3d94f00d540",
      "contractAddress": null
    },
    {
      "status": "0x1",
      "cumulativeGasUsed": "0xdd8c6b",
      "logs": [
        {
          "address": "0xac739f2f5c72c80a4491cf273308c3d94f00d540",
          "topics": [
            "0xb3235f358edd480fca4ed0cc727f602efc55a46eea248086850b0493c9f39072",
            "0x654245e83aa2a8b86fc390e45cb0565c2150f8ed606ea40f36d678228dbf2745"
          ],
          "data": "0xfffffffffffffffffffffffffffffffffffffffffffffffffffffffffff2761800000000000000000000000000000000000000000000000000000000000d89e8",
          "blockHash": "0x423479952e09951bad5e2e55c8e434bf039fa0686a82235cee56b4e4716ad827",
          "blockNumber": "0x97a8de",
          "blockTimestamp": "0x6952995c",
          "transactionHash": "0xd60cc2b5691a97c6393387b4334a19b11e3ad6d5fb2d372c195d9292bd333e73",
          "transactionIndex": "0x63",
          "logIndex": "0x1c2",
          "removed": false
        }
      ],
      "logsBloom": "0x00000001000000000000000000000040000000002000000000000000000000000000000000000000000000000000000000000000000000000000000000000000000000000000000000000000000000080000000000000000000000000000000000000000000000000000000000000000000000020000000000000000000000000000000000000000000000000000000000000000000000000000000000000000000000000800000000000000000000008000000000000000000000000000000000000000000000000000000000000000000000000000001000000000000000000000000000000000000000000000000000000200000000000000000000000000",
      "type": "0x2",
      "transactionHash": "0xd60cc2b5691a97c6393387b4334a19b11e3ad6d5fb2d372c195d9292bd333e73",
      "transactionIndex": "0x63",
      "blockHash": "0x423479952e09951bad5e2e55c8e434bf039fa0686a82235cee56b4e4716ad827",
      "blockNumber": "0x97a8de",
      "gasUsed": "0x94fc",
      "effectiveGasPrice": "0x1a35ed",
      "from": "0x63f976191f9dd75bd5b0fd81320d37fbc0d74080",
      "to": "0xac739f2f5c72c80a4491cf273308c3d94f00d540",
      "contractAddress": null
    }
  ],
  "libraries": [],
  "pending": [],
  "returns": {},
  "timestamp": 1767020895838,
  "chain": 11155111,
  "commit": "85a9738"
}