{
  "transactions": [
    {
      "hash": "0x72fa57ba26a99be11aaff6de19f33217dbd6cfa128f16e7fed5d5ad90e37dd19",
      "transactionType": "CALL",
      "contractName": null,
      "contractAddress": "0x01308892b21f3e6fb6ff8e13a29d775e991d5540",
      "function": "setPoolConfig((address,address,uint24,int24,address),bool)",
      "arguments": [
        "(0x1c7D4B196Cb0C7B01d743Fbc6116a902379C7238, 0xfFf9976782d46CC05630D1f6eBAb18b2324d6B14, 3000, 60, 0x01308892b21f3E6fB6fF8e13a29D775e991D5540)",
        "true"
      ],
      "transaction": {
        "from": "0x63f976191f9dd75bd5b0fd81320d37fbc0d74080",
        "to": "0x01308892b21f3e6fb6ff8e13a29d775e991d5540",
        "gas": "0xa724",
        "value": "0x0",
        "input": "0x08e9b5ac0000000000000000000000001c7d4b196cb0c7b01d743fbc6116a902379c7238000000000000000000000000fff9976782d46cc05630d1f6ebab18b2324d6b140000000000000000000000000000000000000000000000000000000000000bb8000000000000000000000000000000000000000000000000000000000000003c00000000000000000000000001308892b21f3e6fb6ff8e13a29d775e991d55400000000000000000000000000000000000000000000000000000000000000001",
        "nonce": "0x1c",
        "chainId": "0xaa36a7"
      },
      "additionalContracts": [],
      "isFixedGasLimit": false
    },
    {
      "hash": "0x52be890e16d0ec599a546059bebf96cb06fff7d0de804984f1d71924f3510639",
      "transactionType": "CALL",
      "contractName": null,
      "contractAddress": "0x01308892b21f3e6fb6ff8e13a29d775e991d5540",
      "function": "setTokenPricesUSD((address,address,uint24,int24,address),uint256,uint256)",
      "arguments": [
        "(0x1c7D4B196Cb0C7B01d743Fbc6116a902379C7238, 0xfFf9976782d46CC05630D1f6eBAb18b2324d6B14, 3000, 60, 0x01308892b21f3E6fB6fF8e13a29D775e991D5540)",
        "1000000000000000000",
        "3000000000000000000000"
      ],
      "transaction": {
        "from": "0x63f976191f9dd75bd5b0fd81320d37fbc0d74080",
        "to": "0x01308892b21f3e6fb6ff8e13a29d775e991d5540",
        "gas": "0x19e15",
        "value": "0x0",
        "input": "0xadc8ee270000000000000000000000001c7d4b196cb0c7b01d743fbc6116a902379c7238000000000000000000000000fff9976782d46cc05630d1f6ebab18b2324d6b140000000000000000000000000000000000000000000000000000000000000bb8000000000000000000000000000000000000000000000000000000000000003c00000000000000000000000001308892b21f3e6fb6ff8e13a29d775e991d55400000000000000000000000000000000000000000000000000de0b6b3a76400000000000000000000000000000000000000000000000000a2a15d09519be00000",
        "nonce": "0x1d",
        "chainId": "0xaa36a7"
      },
      "additionalContracts": [],
      "isFixedGasLimit": false
    },
    {
      "hash": "0x5d16e6fea5b86df8b5f114f02b4eca7fb7ca9ba1073804833c1617d8756a48a0",
      "transactionType": "CALL",
      "contractName": null,
      "contractAddress": "0x01308892b21f3e6fb6ff8e13a29d775e991d5540",
      "function": "setPoolTickRange((address,address,uint24,int24,address),int24,int24)",
      "arguments": [
        "(0x1c7D4B196Cb0C7B01d743Fbc6116a902379C7238, 0xfFf9976782d46CC05630D1f6eBAb18b2324d6B14, 3000, 60, 0x01308892b21f3E6fB6fF8e13a29D775e991D5540)",
        "-887272",
        "887272"
      ],
      "transaction": {
        "from": "0x63f976191f9dd75bd5b0fd81320d37fbc0d74080",
        "to": "0x01308892b21f3e6fb6ff8e13a29d775e991d5540",
        "gas": "0xcdd8",
        "value": "0x0",
        "input": "0x3cede4f60000000000000000000000001c7d4b196cb0c7b01d743fbc6116a902379c7238000000000000000000000000fff9976782d46cc05630d1f6ebab18b2324d6b140000000000000000000000000000000000000000000000000000000000000bb8000000000000000000000000000000000000000000000000000000000000003c00000000000000000000000001308892b21f3e6fb6ff8e13a29d775e991d5540fffffffffffffffffffffffffffffffffffffffffffffffffffffffffff2761800000000000000000000000000000000000000000000000000000000000d89e8",
        "nonce": "0x1e",
        "chainId": "0xaa36a7"
      },
      "additionalContracts": [],
      "isFixedGasLimit": false
    }
  ],
  "receipts": [
    {
      "status": "0x1",
      "cumulativeGasUsed": "0x1121627",
      "logs": [
        {
          "address": "0x01308892b21f3e6fb6ff8e13a29d775e991d5540",
          "topics": [
            "0x5ccbffa18a4422a6c0cc78bdaa34b188e2dba24e3ba9b1655454922136fb8937",
            "0x3e787f8e105d15f0defa18c11b59ad8649262980b0a7f97fce2543ec171ee142"
          ],
          "data": "0x0000000000000000000000000000000000000000000000000000000000000001",
          "blockHash": "0x24141ca3f7094b541ac7143d1f091e4bad4a6390f949f0d1d9156e066e64a6a2",
          "blockNumber": "0x977c92",
          "blockTimestamp": "0x6950640c",
          "transactionHash": "0x72fa57ba26a99be11aaff6de19f33217dbd6cfa128f16e7fed5d5ad90e37dd19",
          "transactionIndex": "0x4b",
          "logIndex": "0x176",
          "removed": false
        }
      ],
      "logsBloom": "0x00000000000000000000000000000000000000000000000000000000000000000000000000000000000000001000000000001000000000000000000000002000200000000000000000000000001000100000000000000000000000000000000000000000000000000000000000000000000000000000000000000000000000000000000000000000000000000000000004000000000000000000000000000000000000000000000000000000000000040000000000000000000001000000000000000000000000000000000000000000000000000000000000000000000000000000000000000000000000000000000000000000000000000000000000000000",
      "type": "0x2",
      "transactionHash": "0x72fa57ba26a99be11aaff6de19f33217dbd6cfa128f16e7fed5d5ad90e37dd19",
      "transactionIndex": "0x4b",
      "blockHash": "0x24141ca3f7094b541ac7143d1f091e4bad4a6390f949f0d1d9156e066e64a6a2",
      "blockNumber": "0x977c92",
      "gasUsed": "0x7249",
      "effectiveGasPrice": "0x1300cf",
      "from": "0x63f976191f9dd75bd5b0fd81320d37fbc0d74080",
      "to": "0x01308892b21f3e6fb6ff8e13a29d775e991d5540",
      "contractAddress": null
    },
    {
      "status": "0x1",
      "cumulativeGasUsed": "0x113314a",
      "logs": [
        {
          "address": "0x01308892b21f3e6fb6ff8e13a29d775e991d5540",
          "topics": [
            "0x882c9eca713e887423b67acd3e18dc6d775c83c403e3a6d5811fea016ca5152b",
            "0x3e787f8e105d15f0defa18c11b59ad8649262980b0a7f97fce2543ec171ee142"
          ],
          "data": "0x0000000000000000000000000000000000000000000000000de0b6b3a76400000000000000000000000000000000000000000000000000a2a15d09519be00000",
          "blockHash": "0x24141ca3f7094b541ac7143d1f091e4bad4a6390f949f0d1d9156e066e64a6a2",
          "blockNumber": "0x977c92",
          "blockTimestamp": "0x6950640c",
          "transactionHash": "0x5d16e6fea5b86df8b5f114f02b4eca7fb7ca9ba1073804833c1617d8756a48a0",
          "transactionIndex": "0x4c",
          "logIndex": "0x177",
          "removed": false
        }
      ],
      "logsBloom": "0x00000000000000000000000000000000000000000000000000000000000000000000000000000000000000001000000000000000000000000000000000000000200000000000000000000000001000500000000000000000000000000000000000000000000000000000000000000000008000000000000000000000000000000000000000000000000000000000000000000000000000000000000000000000000000000000000000000000000000040000000000000000000001000000000000000000000000000000000000000000000000000000000000000000000000000000000000000000000001000000000000000000000000000000000000000000",
      "type": "0x2",
      "transactionHash": "0x5d16e6fea5b86df8b5f114f02b4eca7fb7ca9ba1073804833c1617d8756a48a0",
      "transactionIndex": "0x4c",
      "blockHash": "0x24141ca3f7094b541ac7143d1f091e4bad4a6390f949f0d1d9156e066e64a6a2",
      "blockNumber": "0x977c92",
      "gasUsed": "0x11b23",
      "effectiveGasPrice": "0x1300cf",
      "from": "0x63f976191f9dd75bd5b0fd81320d37fbc0d74080",
      "to": "0x01308892b21f3e6fb6ff8e13a29d775e991d5540",
      "contractAddress": null
    },
    {
      "status": "0x1",
      "cumulativeGasUsed": "0x113c652",
      "logs": [
        {
          "address": "0x01308892b21f3e6fb6ff8e13a29d775e991d5540",
          "topics": [
            "0xb3235f358edd480fca4ed0cc727f602efc55a46eea248086850b0493c9f39072",
            "0x3e787f8e105d15f0defa18c11b59ad8649262980b0a7f97fce2543ec171ee142"
          ],
          "data": "0xfffffffffffffffffffffffffffffffffffffffffffffffffffffffffff2761800000000000000000000000000000000000000000000000000000000000d89e8",
          "blockHash": "0x24141ca3f7094b541ac7143d1f091e4bad4a6390f949f0d1d9156e066e64a6a2",
          "blockNumber": "0x977c92",
          "blockTimestamp": "0x6950640c",
          "transactionHash": "0x52be890e16d0ec599a546059bebf96cb06fff7d0de804984f1d71924f3510639",
          "transactionIndex": "0x4d",
          "logIndex": "0x178",
          "removed": false
        }
      ],
      "logsBloom": "0x00000000000000000000000000000000000000000000000000000000000000000000000000000000000000001000000000000000000000000000000000000000200000000000000000000000001000100000000000000000000000000000000000000000000000000000000000000000000000020000000000000000000000000000000000000000000000000000000000000000000000000000000000000000000000000800000000000000000000040000000000000000000001000000000000000000000000000000000000000000000000000000001000000000000000000000000000000000000000000000000000000000000000000000000000000000",
      "type": "0x2",
      "transactionHash": "0x52be890e16d0ec599a546059bebf96cb06fff7d0de804984f1d71924f3510639",
      "transactionIndex": "0x4d",
      "blockHash": "0x24141ca3f7094b541ac7143d1f091e4bad4a6390f949f0d1d9156e066e64a6a2",
      "blockNumber": "0x977c92",
      "gasUsed": "0x9508",
      "effectiveGasPrice": "0x1300cf",
      "from": "0x63f976191f9dd75bd5b0fd81320d37fbc0d74080",
      "to": "0x01308892b21f3e6fb6ff8e13a29d775e991d5540",
      "contractAddress": null
    }
  ],
  "libraries": [],
  "pending": [],
  "returns": {},
  "timestamp": 1766876174520,
  "chain": 11155111,
  "commit": "c0a531b"
}