{
  "transactions": [
    {
      "hash": "0x084c4dea55f9fab0bce440342872704d504c78922cdded4583cb59ed2f1c3011",
      "transactionType": "CALL",
      "contractName": null,
      "contractAddress": "0x76e9e1affde82bb4544ce95ea58ffc2f9d45061f",
      "function": "initialize((address,address,uint24,int24,address),uint160)",
      "arguments": [
        "(0x1c7D4B196Cb0C7B01d743Fbc6116a902379C7238, 0xfFf9976782d46CC05630D1f6eBAb18b2324d6B14, 5000, 60, 0xC5fB60De90960712B938dC19a7DC8a904d039540)",
        "340275971719517849884124397208085282957798792"
      ],
      "transaction": {
        "from": "0x63f976191f9dd75bd5b0fd81320d37fbc0d74080",
        "to": "0x76e9e1affde82bb4544ce95ea58ffc2f9d45061f",
        "gas": "0x1abdf",
        "value": "0x0",
        "input": "0x6276cbbe0000000000000000000000001c7d4b196cb0c7b01d743fbc6116a902379c7238000000000000000000000000fff9976782d46cc05630d1f6ebab18b2324d6b140000000000000000000000000000000000000000000000000000000000001388000000000000000000000000000000000000000000000000000000000000003c000000000000000000000000c5fb60de90960712b938dc19a7dc8a904d039540000000000000000000000000000f422d34c9022439a2ba7376e9ebcf6543ad88",
        "nonce": "0xded",
        "chainId": "0xaa36a7"
      },
      "additionalContracts": [],
      "isFixedGasLimit": false
    },
    {
      "hash": "0xdceefb0785b3e6fecd5b154e29087c2a7f48ec063023a3b199f203740ae2c77d",
      "transactionType": "CALL",
      "contractName": null,
      "contractAddress": "0xc5fb60de90960712b938dc19a7dc8a904d039540",
      "function": "setTokenPricesUSD((address,address,uint24,int24,address),uint256,uint256)",
      "arguments": [
        "(0x1c7D4B196Cb0C7B01d743Fbc6116a902379C7238, 0xfFf9976782d46CC05630D1f6eBAb18b2324d6B14, 5000, 60, 0xC5fB60De90960712B938dC19a7DC8a904d039540)",
        "1000000000000000000",
        "3000000000000000000000"
      ],
      "transaction": {
        "from": "0x63f976191f9dd75bd5b0fd81320d37fbc0d74080",
        "to": "0xc5fb60de90960712b938dc19a7dc8a904d039540",
        "gas": "0x19eb7",
        "value": "0x0",
        "input": "0xadc8ee270000000000000000000000001c7d4b196cb0c7b01d743fbc6116a902379c7238000000000000000000000000fff9976782d46cc05630d1f6ebab18b2324d6b140000000000000000000000000000000000000000000000000000000000001388000000000000000000000000000000000000000000000000000000000000003c000000000000000000000000c5fb60de90960712b938dc19a7dc8a904d0395400000000000000000000000000000000000000000000000000de0b6b3a76400000000000000000000000000000000000000000000000000a2a15d09519be00000",
        "nonce": "0xdee",
        "chainId": "0xaa36a7"
      },
      "additionalContracts": [],
      "isFixedGasLimit": false
    },
    {
      "hash": "0x37b146641c2754d7b34497bb4c9dfbf0c695a7c94ed5d99f4cdb69b4a9f89368",
      "transactionType": "CALL",
      "contractName": null,
      "contractAddress": "0xc5fb60de90960712b938dc19a7dc8a904d039540",
      "function": "setPoolTickRange((address,address,uint24,int24,address),int24,int24)",
      "arguments": [
        "(0x1c7D4B196Cb0C7B01d743Fbc6116a902379C7238, 0xfFf9976782d46CC05630D1f6eBAb18b2324d6B14, 5000, 60, 0xC5fB60De90960712B938dC19a7DC8a904d039540)",
        "-887220",
        "887220"
      ],
      "transaction": {
        "from": "0x63f976191f9dd75bd5b0fd81320d37fbc0d74080",
        "to": "0xc5fb60de90960712b938dc19a7dc8a904d039540",
        "gas": "0x18660",
        "value": "0x0",
        "input": "0x3cede4f60000000000000000000000001c7d4b196cb0c7b01d743fbc6116a902379c7238000000000000000000000000fff9976782d46cc05630d1f6ebab18b2324d6b140000000000000000000000000000000000000000000000000000000000001388000000000000000000000000000000000000000000000000000000000000003c000000000000000000000000c5fb60de90960712b938dc19a7dc8a904d039540fffffffffffffffffffffffffffffffffffffffffffffffffffffffffff2764c00000000000000000000000000000000000000000000000000000000000d89b4",
        "nonce": "0xdef",
        "chainId": "0xaa36a7"
      },
      "additionalContracts": [],
      "isFixedGasLimit": false
    }
  ],
  "receipts": [
    {
      "status": "0x1",
      "cumulativeGasUsed": "0x70e0fc",
      "logs": [
        {
          "address": "0x76e9e1affde82bb4544ce95ea58ffc2f9d45061f",
          "topics": [
            "0xdd466e674ea557f56295e2d0218a125ea4b4f0f6f3307b95f85e6110838d6438",
            "0x3cf8817a5d90216a572995be280be4336c564b5a0e59ed8fdcc7279fc4bbff62",
            "0x0000000000000000000000001c7d4b196cb0c7b01d743fbc6116a902379c7238",
            "0x000000000000000000000000fff9976782d46cc05630d1f6ebab18b2324d6b14"
          ],
          "data": "0x0000000000000000000000000000000000000000000000000000000000001388000000000000000000000000000000000000000000000000000000000000003c000000000000000000000000c5fb60de90960712b938dc19a7dc8a904d039540000000000000000000000000000f422d34c9022439a2ba7376e9ebcf6543ad8800000000000000000000000000000000000000000000000000000000000afc58",
          "blockHash": "0x89fd2ffe55d3f155f652fe9ba42608fdddcd3e54b8aca9005434b585c6e97dbb",
          "blockNumber": "0x987477",
          "blockTimestamp": "0x695d3bac",
          "transactionHash": "0x084c4dea55f9fab0bce440342872704d504c78922cdded4583cb59ed2f1c3011",
          "transactionIndex": "0x40",
          "logIndex": "0x55",
          "removed": false
        }
      ],
      "logsBloom": "0x00000000001000000000000000000000000000000000000000000000000000000000000080000000000000000000000000000800000004000000000000000000100000000000000000000000000000000000000000000800000000000000010000000000000000000000000000800000000000000000000000000000000000000000000000000008000000000000010000000001000000000000000000200000000000000000000000000000000000000000008000000000000000000000000000000000000000000000000001000000000000000000000000000000000000000000000000000000000000000000000000000100000000000000000000000000",
      "type": "0x2",
      "transactionHash": "0x084c4dea55f9fab0bce440342872704d504c78922cdded4583cb59ed2f1c3011",
      "transactionIndex": "0x40",
      "blockHash": "0x89fd2ffe55d3f155f652fe9ba42608fdddcd3e54b8aca9005434b585c6e97dbb",
      "blockNumber": "0x987477",
      "gasUsed": "0x135c6",
      "effectiveGasPrice": "0x1043ce",
      "from": "0x63f976191f9dd75bd5b0fd81320d37fbc0d74080",
      "to": "0x76e9e1affde82bb4544ce95ea58ffc2f9d45061f",
      "contractAddress": null
    },
    {
      "status": "0x1",
      "cumulativeGasUsed": "0x71fc8d",
      "logs": [
        {
          "address": "0xc5fb60de90960712b938dc19a7dc8a904d039540",
          "topics": [
            "0x882c9eca713e887423b67acd3e18dc6d775c83c403e3a6d5811fea016ca5152b",
            "0x3cf8817a5d90216a572995be280be4336c564b5a0e59ed8fdcc7279fc4bbff62"
          ],
          "data": "0x0000000000000000000000000000000000000000000000000de0b6b3a76400000000000000000000000000000000000000000000000000a2a15d09519be00000",
          "blockHash": "0x89fd2ffe55d3f155f652fe9ba42608fdddcd3e54b8aca9005434b585c6e97dbb",
          "blockNumber": "0x987477",
          "blockTimestamp": "0x695d3bac",
          "transactionHash": "0xdceefb0785b3e6fecd5b154e29087c2a7f48ec063023a3b199f203740ae2c77d",
          "transactionIndex": "0x41",
          "logIndex": "0x56",
          "removed": false
        }
      ],
      "logsBloom": "0x00000000000000000000000000000000000000000000000000000000000000000000000080000000000000040000000000000000000000000000000000000000000000000000000000000000000000400000000000000000000000000000000000000000000000000000000000800000008000000000000000000000000000000000000000000000000000000000000000000000000000000000000000000000000000000000000000000000000000000000000000000000000000000000000000000000000000000000000000000000000000000000000000000000008000000000000000000000000001000000000000002100000000000000000000000000",
      "type": "0x2",
      "transactionHash": "0xdceefb0785b3e6fecd5b154e29087c2a7f48ec063023a3b199f203740ae2c77d",
      "transactionIndex": "0x41",
      "blockHash": "0x89fd2ffe55d3f155f652fe9ba42608fdddcd3e54b8aca9005434b585c6e97dbb",
      "blockNumber": "0x987477",
      "gasUsed": "0x11b91",
      "effectiveGasPrice": "0x1043ce",
      "from": "0x63f976191f9dd75bd5b0fd81320d37fbc0d74080",
      "to": "0xc5fb60de90960712b938dc19a7dc8a904d039540",
      "contractAddress": null
    },
    {
      "status": "0x1",
      "cumulativeGasUsed": "0x73172d",
      "logs": [
        {
          "address": "0xc5fb60de90960712b938dc19a7dc8a904d039540",
          "topics": [
            "0xb3235f358edd480fca4ed0cc727f602efc55a46eea248086850b0493c9f39072",
            "0x3cf8817a5d90216a572995be280be4336c564b5a0e59ed8fdcc7279fc4bbff62"
          ],
          "data": "0xfffffffffffffffffffffffffffffffffffffffffffffffffffffffffff2764c00000000000000000000000000000000000000000000000000000000000d89b4",
          "blockHash": "0x89fd2ffe55d3f155f652fe9ba42608fdddcd3e54b8aca9005434b585c6e97dbb",
          "blockNumber": "0x987477",
          "blockTimestamp": "0x695d3bac",
          "transactionHash": "0x37b146641c2754d7b34497bb4c9dfbf0c695a7c94ed5d99f4cdb69b4a9f89368",
          "transactionIndex": "0x42",
          "logIndex": "0x57",
          "removed": false
        }
      ],
      "logsBloom": "0x00000000000000000000000000000000000000000000000000000000000000000000000080000000000000040000000000000000000000000000000000000000000000000000000000000000000000000000000000000000000000000000000000000000000000000000000000800000000000020000000000000000000000000000000000000000000000000000000000000000000000000000000000000000000000000800000000000000000000000000000000000000000000000000000000000000000000000000000000000000000000000000001000000000008000000000000000000000000000000000000000002100000000000000000000000000",
      "type": "0x2",
      "transactionHash": "0x37b146641c2754d7b34497bb4c9dfbf0c695a7c94ed5d99f4cdb69b4a9f89368",
      "transactionIndex": "0x42",
      "blockHash": "0x89fd2ffe55d3f155f652fe9ba42608fdddcd3e54b8aca9005434b585c6e97dbb",
      "blockNumber": "0x987477",
      "gasUsed": "0x11aa0",
      "effectiveGasPrice": "0x1043ce",
      "from": "0x63f976191f9dd75bd5b0fd81320d37fbc0d74080",
      "to": "0xc5fb60de90960712b938dc19a7dc8a904d039540",
      "contractAddress": null
    }
  ],
  "libraries": [],
  "pending": [],
  "returns": {},
  "timestamp": 1767717805474,
  "chain": 11155111,
  "commit": "a14ca04"
}